:100000000C947200189500001895000018950000D7
:10001000189500001895000018950000189500002C
:10002000189500001895000018950000189500001C
:10003000189500001895000018950000189500000C
:1000400018950000189500001895000018950000FC
:100050000C94280218950000189500000C94590182
:10006000189500000C94C600189500001895000023
:1000700018950000189500001895000018950000CC
:1000800018950000189500001895000018950000BC
:1000900018950000189500001895000018950000AC
:1000A000189500001895000018950000189500009C
:1000B000189500001895000018950000189500008C
:1000C000189500001895000018950000189500007C
:1000D000189500001895000018950000189500006C
:1000E000189500008FEF8DBFC0EBE8E24E2E81E245
:1000F0008EBFD1E2F1E25F2EA89584B7082E882743
:1001000084BF88E199278093600090936000EEEFB0
:10011000FFE1A0E0B2E088278D933197E9F787E609
:100120008093C40080E08093C50088E18093C10083
:100130006624389A399A3A9A279A85E085BD80E0F4
:1001400084BD70916E00716070936E0085E085BD16
:1001500080E08093800085E08093810070916F0043
:10016000716070936F0085E0809381007091C10091
:1001700070687093C10070E07093B9007CE0709378
:10018000B8000E944C1B78940C9445170F921F9254
:100190002F923F924F925F927F92AF92BF920F93B6
:1001A0001F932F933F934F935F936F937F938F93FF
:1001B0009F93AF93BF93CF93DF93EF93FF938FB74B
:1001C0008F938BB78F9388278BBFAFE5B7E0809174
:1001D000C6008C9384E2482F00915F07041711F04A
:1001E0000C94FD0070914103706170934103A6E986
:1001F000B6E088278C930C943A010D3011F00C94E2
:100200002201A1E4B3E08C9184FB16F00C94200150
:10021000709141037F7E7093410380E0A6E9B6E0D0
:100220000E94A2188D9388278C93E6E9F6E0A0E659
:10023000B7E00E94391E70914103786070934103CA
:100240000C943A010F3118F011F00C9429010C9420
:100250003A01A1E4B3E08C9184FB16F00C943A01CE
:10026000AFE5B7E08C91A6E9B6E00E94A2188D93A5
:1002700088278C938F918BBF8F918FBFFF91EF91C8
:10028000DF91CF91BF91AF919F918F917F916F91AE
:100290005F914F913F912F911F910F91BF90AF9020
:1002A0007F905F904F903F902F901F900F901895E8
:1002B00008950F921F922F923F924F925F927F92DA
:1002C000AF92BF920F931F932F933F934F935F93E0
:1002D0006F937F938F939F93AF93BF93CF93DF934E
:1002E000EF93FF938FB78F938BB78F9388278BBF35
:1002F00074E676BDABEBB3E08C918F5F8C93ABEB88
:10030000B3E00C9148E00E947B1E8C930091BB03EC
:10031000003011F00C940A02ACEBB3E00C9140E217
:100320000E947B1E8C9381E0809321020091210228
:10033000043018F011F00C940502ECE1FCE10E948D
:10034000501DA1E2B2E0AD90BB24A0ECB3E0AA0D39
:10035000BB1D8C919927ADEBB3E00E94121D8091DB
:10036000BC03ADEBB3E00E943F1D0E94351D0C9015
:100370000822689409F4E894A1E4B3E08C9185F92B
:100380008C9300912102013011F00C94D201A1E470
:10039000B3E08C9185FBA8E2B0E08C9180F98C935E
:1003A0000C94FD01023011F00C94E101A1E4B3E0E2
:1003B0008C9185FBA8E2B0E08C9181F98C930C9430
:1003C000FD01033011F00C94F001A1E4B3E08C9135
:1003D00085FBA8E2B0E08C9182F98C930C94FD012E
:1003E000043011F00C94FD01A1E4B3E08C9185FB85
:1003F000A5E2B0E08C9187F98C93A1E2B2E08C91F8
:100400008F5F8C9310F40C949601ACEBB3E08C915D
:100410008F5F8C938F918BBF8F918FBFFF91EF91E7
:10042000DF91CF91BF91AF919F918F917F916F910C
:100430005F914F913F912F911F910F91BF90AF907E
:100440007F905F904F903F902F901F900F90189546
:100450000F921F922F923F924F925F927F92AF9294
:10046000BF920F931F932F933F934F935F936F937D
:100470007F938F939F93AF93BF93CF93DF93EF932C
:10048000FF938FB78F938BB78F9388278BBF87EF9F
:1004900092EC90938500809384007091C503716005
:1004A0007093C5030E946119E8E0F2E0FA93EA93C1
:1004B000E1E1F2E00E94EE1AA7ECB3E00D931D9388
:1004C0002D933D93A7ECB3E00E945518E7ECF3E0C1
:1004D000A1E1B2E00E94DE1A0E947419E7ECF3E099
:1004E000A8E0B2E00E94E61A0E946C198F918BBFBF
:1004F0008F918FBFFF91EF91DF91CF91BF91AF911E
:100500009F918F917F916F915F914F913F912F912B
:100510001F910F91BF90AF907F905F904F903F9051
:100520002F901F900F901895089508950895409862
:10053000ECE9FDE30E94501D0E94B1180E94B8181A
:10054000A0E1B1E2E2ECFDE30E94501D0E94EC1C30
:100550000E94A9180E94B818A0E1B1E2E6EDFDE3FF
:100560000E94501D0E94EC1C0E94A9180E94B818FD
:10057000A0E1B1E2EEEDFDE30E94501D0E94EC1CF3
:100580000E94A9180E94B81880E08093C10380E0FF
:100590008093C20380E08093C30381E08093C4030F
:1005A000E1E0F0E0A0E7B3E094E00E94681EE8EE2E
:1005B000FDE30E94501D0E94B118E0E7F3E0A0E1C6
:1005C000B1E20E94E61A0E94A918E8EFFDE30E943A
:1005D000501D0E94B118E0E7F3E0A0E1B1E20E94F3
:1005E000DE1A0E94A9180E94B818E5E0F0E0A4E71E
:1005F000B3E00E94651EEAEFFDE30E94501D0E94D9
:10060000B118D201E4E7F3E00E94261ED2010E9455
:10061000AB180E94B81881E080932002009120025C
:10062000043018F011F00C945303E0E2F2E0A190D2
:10063000BB24E5E0F0E0EA0DFB1DA0E2B2E0AD90E6
:10064000BB24A4E7B3E0AA0DBB1D0E94651EE4E035
:10065000FEE30E94501D0E94B118E0E2F2E0A0E12A
:10066000B1E20E94991D0E94A918E6E1FEE30E94F2
:10067000501D0E94B118D201E0E2F2E0A190BB242B
:10068000E4E7F3E0EA0DFB1D0E94261ED2010E9462
:10069000AB180E94B818A0E2B2E08C918F5F8C93E7
:1006A00010F40C940E0380E08093220281E080938A
:1006B000200200912002003118F011F00C94AD03DB
:1006C000E0E2F2E0A190BB24E6E0F0E0AA0CBB1C63
:1006D000AA0CBB1CEA0DFB1DA3E2B2E094E00E9451
:1006E000681EA3E2B2E00D911D912D913C91A0E214
:1006F000B2E0AD90BB24A5E7B3E0AA0CBB1CAA0CEA
:10070000BB1CAA0DBB1D0D931D932D933C93E8E1DB
:10071000FEE30E94501D0E94B118E0E2F2E0A0E169
:10072000B1E20E94991D0E94A918EEE1FEE30E9429
:10073000501D0E94B118E3E2F2E0A0E1B1E20E9494
:10074000DE1A0E94A9180E94B818A0E2B2E08C91AB
:100750008F5F8C9310F40C945903EAE4F0E0A9EB5A
:10076000B3E00E94671EE6E2FEE30E94501D0E9475
:10077000B118E9EBF3E0A0E1B1E20E94891D0E940B
:10078000A9180E94B8180E94BE05E4E3FEE30E9487
:10079000501D0E94B118A2E4B3E00E94AB18ECE334
:1007A000FEE30E94501D0E94B1180E94B8180895DF
:1007B000E5E0F0E0A0E1BB2781E08C937BE70E94BD
:1007C000541EEAE4F0E004E110E0A0E1BB277BE77F
:1007D0000E94561E81E08093200200912002043086
:1007E00018F011F00C940B04E0E2F2E0A190BB24AD
:1007F000E5E0F0E0EA0DFB1DA0E1BB278FE78C935D
:100800007BE70E94541EA0E2B2E08C918F5F8C9334
:1008100010F40C94ED03ABE0B3E0EEE3FEE30E94D2
:10082000501D0E94EC1CEBE0F3E00E94791AA9E74E
:10083000B3E00D931D932D933D93ABE0B3E0E8E45B
:10084000FEE30E94501D0E94EC1CEBE0F3E00E94CE
:10085000791AADE7B3E00D931D932D933D93ABE073
:10086000B3E0E2E5FEE30E94501D0E94EC1CEBE0C9
:10087000F3E00E94791AA1E8B3E00D931D932D9344
:100880003D93ABE0B3E0ECE5FEE30E94501D0E9417
:10089000EC1CEBE0F3E00E94791AA5E8B3E00D93BD
:1008A0001D932D933D93ABE0B3E0E6E6FEE30E949B
:1008B000501D0E94EC1CEBE0F3E00E94791AA9E8BD
:1008C000B3E00D931D932D933D93ABE0B3E0E0E7D0
:1008D000FEE30E94501D0E94EC1CEBE0F3E00E943E
:1008E000791AADE8B3E00D931D932D933D93ABE0E2
:1008F000B3E0EAE7FEE30E94501D0E94EC1CEBE02F
:10090000F3E00E94791AA1E9B3E00D931D932D93B2
:100910003D93ABE0B3E0E4E8FEE30E94501D0E948B
:10092000EC1CEBE0F3E00E94791AA5E9B3E00D932B
:100930001D932D933D93ABE0B3E0EEE8FEE30E9400
:10094000501D0E94EC1CEBE0F3E00E94791AA9E92B
:10095000B3E00D931D932D933D93ABE0B3E0E8E935
:10096000FEE30E94501D0E94EC1CEBE0F3E00E94AD
:10097000791AADE9B3E00D931D932D933D93ABE050
:10098000B3E0E2EAFEE30E94501D0E94EC1CEBE0A3
:10099000F3E00E94791AA1EAB3E00D931D932D9321
:1009A0003D93ABE0B3E0ECEAFEE30E94501D0E94F1
:1009B000EC1CEBE0F3E00E94791AA5EAB3E00D939A
:1009C0001D932D933D93ABE0B3E0E6EBFEE30E9475
:1009D000501D0E94EC1CEBE0F3E00E94791AA9EA9A
:1009E000B3E00D931D932D933D93ABE0B3E0E0ECAA
:1009F000FEE30E94501D0E94EC1CEBE0F3E00E941D
:100A0000791AADEAB3E00D931D932D933D93ABE0BE
:100A1000B3E0EAECFEE30E94501D0E94EC1CEBE008
:100A2000F3E00E94791AA1EBB3E00D931D932D938F
:100A30003D93ABE0B3E0E4EDFEE30E94501D0E9465
:100A4000EC1CEBE0F3E00E94791AA5EBB3E00D9308
:100A50001D932D933D9381E080932102009121020B
:100A6000003118F011F00C945905E1E2F2E0A19088
:100A7000BB24E6E0F0E0AA0CBB1CAA0CBB1CEA0DF0
:100A8000FB1DA1E2B2E0AD90BB24A5E7B3E0AA0C48
:100A9000BB1CAA0CBB1CAA0DBB1D94E07BE70E94EB
:100AA000571EA1E2B2E08C918F5F8C9310F40C94EE
:100AB0002E050895EEEDFEE30E94501D0E94B11830
:100AC0000E94B818E0E0F0E0A0E4B3E00E94651EE8
:100AD00080E080932202A1E4B3E08C9183FB16F0C6
:100AE0000C94850570914103777F70934103E8EF83
:100AF000FEE30E94501D0E94B118A0E6B7E00E94DC
:100B0000AB180E94B8180E944F060091C50301302F
:100B100011F00C94AF057091C5037E7F7093C503EF
:100B2000A0E2B2E08C918F5F8C93A2E2B2E08C9154
:100B30008F5F8C93A0E2B2E00C914AE00E947B1E92
:100B40008C9300912002003011F00C94AF05EEEF71
:100B5000FEE30E94501D0E94B1180E94B818009137
:100B60004003013011F00C946B05E0E2FFE30E94BA
:100B7000501D0E94B1180E94B818089580E080931B
:100B8000200280E080932202A2E4B3E088278C93C5
:100B90008EE08093200200912002073118F011F0BE
:100BA0000C94E705E09120020E94B51C082FE0E1BB
:100BB000F0E0A2E4B3E00E94A2180E940D1EA0E2A1
:100BC000B2E08C918F5F8C9310F40C94CB05E2E42F
:100BD000F3E0A0E3B2E00E94391EA2E4B3E088276C
:100BE0008C938EE08093200200912002073118F050
:100BF00011F00C941006E09120020E94B51C082F01
:100C0000E0E1F0E0A2E4B3E00E94A2180E940D1E11
:100C1000A0E2B2E08C918F5F8C9310F40C94F405F9
:100C2000E0E3F2E0A2E4B3E00E94931E11F00C9422
:100C30001C0681E080932002A2E2B2E08C918F5FDB
:100C40008C9300912002003011F00C943B0684EF4D
:100C500091E00E945219E4E3FFE30E94501D0E94BC
:100C6000B118E2E2F2E0A0E1B1E20E94991D0E9417
:100C7000A9180E94B81800912002013081E009F003
:100C800080E08F93009122020A3081E009F080E039
:100C90009F91892B882311F40C94C4050895EAE3ED
:100CA000FFE30E94501D0E94B118A0E6B7E00E9429
:100CB000AB180E94B81881E0E0E6F7E006E00A937E
:100CC000ABE0B3E00E943E1EE0E6F7E09CE204E108
:100CD00032E2ACECB3E00E94A71EABECB3E02C9385
:100CE0000091CB03003018F011F00C9479060C94AD
:100CF000AB0681E0809320024091CB03009120025B
:100D0000041718F011F00C94AB06E0E2F2E0A0E159
:100D1000B1E20E94991D0E94A918ECE3FFE30E9432
:100D2000501D0E94B118A0E2B2E00D91112745E1DB
:100D300050E00E94BF1CA7EBB3E0A00FB11F0E94C0
:100D4000AB180E94B818A0E2B2E08C918F5F8C9330
:100D500010F40C947C06ACECB3E00E948B1E082FC0
:100D6000063011F00C94C10BECECF3E0A9E2B2E018
:100D70000E94391EE9E2F2E0A9E2B2E00E94291DD8
:100D80008FEF8093F902A9E2B2E0EEE3FFE30E9465
:100D9000501D0E94911E11F00C940F0780E080936B
:100DA000F902A0E3B2E0E6E4FFE30E94501D0E94D6
:100DB000EC1CABE0B3E0E2ECFDE30E94501D0E94AE
:100DC000EC1CEBE0F3E0A0E3B2E00E94A2180E946A
:100DD000391EA0E3B2E00E94A218EAE5FFE30E94F8
:100DE000501D0E94EC1CABE0B3E0EEEDFDE30E9471
:100DF000501D0E94EC1CEBE0F3E0A0E3B2E00E9487
:100E0000A2180E94391EA0E3B2E00E94A218ECE3EF
:100E1000FEE30E94501D0E94EC1C0C94BF0BE8E600
:100E2000FFE30E94501D0E94911E11F00C943607A2
:100E300080E08093F902A0E3B2E0E0E7FFE30E94E4
:100E4000501D0E94EC1C7091410370687093410327
:100E500081E080934003E0E0F0E0A0E4B3E07BE7D2
:100E60000E94541E0E94D8030C94BF0BEEE9FFE3CE
:100E70000E94501D0E94911E11F00C94600780E0AA
:100E80008093F9020E94BE05A0E3B2E0E6EAFFE328
:100E90000E94501D0E94EC1CE2E4F3E0A0E3B2E0EB
:100EA0000E94A2180E94391EA0E3B2E00E94A2187C
:100EB000ECE3FEE30E94501D0E94EC1C0C94BF0B5F
:100EC000E0EBFFE30E94501D0E94911E11F00C9474
:100ED000D8070091CB03033011F00C94D307A1EE97
:100EE000B3E00E94DE1DA0E2B2E00C93009120026C
:100EF000003080E010F009F081E08F930091200233
:100F0000053081E008F080E09F918923882311F467
:100F10000C94CE07A6EFB3E00E94DE1DA2E2B2E081
:100F20000C9300912202013110F00C94C90780E06B
:100F30008093F902A0E3B2E0E8EBFFE30E94501DCA
:100F40000E94EC1CE0E2F2E0A0E3B2E00E94A218F2
:100F50000E94991DA0E3B2E00E94A218E6E1FEE320
:100F60000E94501D0E94EC1CE2E2F2E0A0E3B2E01D
:100F70000E94A2180E94991D80912202A0E2B2E074
:100F8000AD90BB24A0ECB3E0AA0DBB1D8C930C94D8
:100F9000CC0786E08093F9020C94D10785E080931A
:100FA000F9020C94D60784E08093F9020C94BF0BED
:100FB000EAECFFE30E94501D0E94911E11F00C9478
:100FC000E7080091CB03023011F00C94E208A1EE87
:100FD000B3E00E948B1E082F0C3011F00C94DD083A
:100FE00080E08093F90287E0E1EEF3E002E00A930B
:100FF000ABE0B3E00E943E1EABE0B3E00E94A2185B
:10100000ECE3FFE30E94501D0E94EC1C89E0E1EE3E
:10101000F3E002E00A93ABE0B3E00E94A2180E9462
:101020003E1EABE0B3E00E94A218ECE3FFE30E9497
:10103000501D0E94EC1C8BE0E1EEF3E002E00A930D
:10104000ABE0B3E00E94A2180E943E1EABE0B3E00A
:101050000E94AB180E94B818EBE0F3E0A1E1B2E007
:101060000E94391E0E947419E2EDFFE30E94501D98
:101070000E94B1180E946119A1E1B2E00E94AB1870
:101080000E94B81881E0E1EEF3E002E00A93ABE0E1
:10109000B3E00E943E1EABE0B3E00E94A218E6ED72
:1010A000FFE30E94501D0E94EC1C83E0E1EEF3E0A0
:1010B00002E00A93ABE0B3E00E94A2180E943E1E39
:1010C000ABE0B3E00E94A218E6EDFFE30E94501DE2
:1010D0000E94EC1C85E0E1EEF3E002E00A93ABE055
:1010E000B3E00E94A2180E943E1EABE0B3E00E9453
:1010F000AB180E94B818EBE0F3E0A8E0B2E00E9461
:10110000391E0E946C19E8EDFFE30E94501D0E94F9
:10111000B1180E946119A8E0B2E00E94AB180E94C9
:10112000B818A0E3B2E0ECEDFFE30E94501D0E946E
:10113000EC1C0E946119E8E0F2E0A0E3B2E00E943A
:10114000A2180E94391EA0E3B2E00E94A218E6E0B5
:10115000F0E40E94501D0E94EC1C0E946119E1E124
:10116000F2E0A0E3B2E00E94A2180E94391EE5E07E
:10117000F2E00E94C419A9E5B3E08C930E94110D1E
:101180000E945B0D0E948A0CE2E0F2E00E94A51A28
:10119000A0E7B3E00D931D932D933D93E1E0F0E0C4
:1011A000A0E7B3E094E07BE70E94571E70914103F3
:1011B0007064709341030C94E00886E08093F90218
:1011C0000C94E50884E08093F9020C94BF0BEAE0EC
:1011D000F0E40E94501D0E94911E11F00C94FD0835
:1011E00080E08093F902A0E3B2E0E2E1F0E40E9443
:1011F000501D0E94EC1C0C94BF0BEAE1F0E40E942D
:10120000501D0E94911E11F00C943D0980E08093C6
:10121000F9020E946119E1E1F2E0ABE0B3E00E9463
:10122000391EA0E3B2E0E2E2F0E40E94501D0E9409
:10123000EC1CEBE0F3E0A0E3B2E00E94A2180E94F5
:10124000391EA0E3B2E00E94A218E0E3F0E40E949D
:10125000501D0E94EC1C0E946119E8E0F2E0ABE036
:10126000B3E00E94391EEBE0F3E0A0E3B2E00E949D
:10127000A2180E94391E0C94BF0BE0E4F0E40E9417
:10128000501D0E94911E11F00C94790980E080930A
:10129000F902E0E7F3E0ABE0B3E00E94DE1AA0E37E
:1012A000B2E0E8E4F0E40E94501D0E94EC1CEBE088
:1012B000F3E0A0E3B2E00E94A2180E94391EA0E36E
:1012C000B2E00E94A218ECE5F0E40E94501D0E94DA
:1012D000EC1CE0E7F3E0ABE0B3E00E94E61AEBE0E1
:1012E000F3E0A0E3B2E00E94A2180E94391E0C9421
:1012F000BF0BE4E6F0E40E94501D0E94911E11F025
:101300000C94800A0091CB03043011F00C947B0AFA
:10131000A1EEB3E00E94DE1DA2E2B2E00C930091C8
:101320002202003080E010F009F081E08F930091FC
:101330002202053081E008F080E09F918923882314
:1013400011F40C94760AA6EFB3E00E94DE1DA0E231
:10135000B2E00C9300912002003080E010F009F020
:1013600081E08F9300912002053081E008F080E059
:101370009F918923882311F40C94710A80E0809353
:10138000F902EBE0F4E0ABE0B3E00E94391EA2E228
:10139000B2E00D91112701501040A7E2B2E00D9389
:1013A0001C93A7E2B2E00D911C9144E050E00E9432
:1013B000BF1CA7E2B2E00D931C93A7E2B2E00D912F
:1013C0001C91A0E2B2E04D915527040F151FA7E232
:1013D000B2E00D931C93ECE6F0E40E94501D0E94D5
:1013E000B118E7E2F2E0A0E1B1E20E94891D0E949B
:1013F000A9180E94B818EBE0F3E00E94791AA7E25E
:10140000B2E0AD90BD90A5E7B3E0AA0CBB1CAA0C5E
:10141000BB1CAA0DBB1D0D931D932D933D93E7E2BD
:10142000F2E0A190B190E6E0F0E0AA0CBB1CAA0C9F
:10143000BB1CEA0DFB1DA7E2B2E0AD90BD90A5E795
:10144000B3E0AA0CBB1CAA0CBB1CAA0DBB1D94E0EC
:101450007BE70E94571EE7E2F2E0A190B190E5E73A
:10146000F3E0AA0CBB1CAA0CBB1CEA0DFB1DABE0F5
:10147000B3E00E94DE1AA0E3B2E0E6E7F0E40E94E7
:10148000501D0E94EC1CE0E2F2E0A0E3B2E00E94FA
:10149000A2180E94991DA0E3B2E00E94A218E6E003
:1014A000F0E40E94501D0E94EC1CEBE0F3E0A0E38E
:1014B000B2E00E94A2180E94391EA0E3B2E00E948E
:1014C000A218E4E8F0E40E94501D0E94EC1CE2E245
:1014D000F2E0A0E3B2E00E94A2180E94991D0C94D1
:1014E000740A86E08093F9020C94790A85E080936F
:1014F000F9020C947E0A84E08093F9020C94BF0BED
:10150000EEE8F0E40E94501D0E94911E11F00C9430
:10151000510B0091CB03033011F00C944C0BA1EE56
:10152000B3E00E94DE1DA2E2B2E00C930091220221
:10153000003080E010F009F081E08F9300912202EA
:10154000053081E008F080E09F918923882311F421
:101550000C94470BA6EFB3E00E94DE1DA0E2B2E0C0
:101560000C9300912002003080E010F009F081E03F
:101570008F9300912002053081E008F080E09F9178
:101580008923882311F40C94420B80E08093F902A4
:10159000A2E2B2E00D91112701501040A7E2B2E0A3
:1015A0000D931C93A7E2B2E00D911C9144E050E032
:1015B0000E94BF1CA7E2B2E00D931C93A7E2B2E029
:1015C0000D911C91A0E2B2E04D915527040F151F1B
:1015D000A7E2B2E00D931C93ECE6F0E40E94501DEC
:1015E0000E94B118E7E2F2E0A0E1B1E20E94891D99
:1015F0000E94A9180E94B818E7E2F2E0A190B19009
:10160000E5E7F3E0AA0CBB1CAA0CBB1CEA0DFB1D12
:10161000ABE0B3E00E94DE1AA0E3B2E0E6E9F0E45A
:101620000E94501D0E94EC1CE0E2F2E0A0E3B2E058
:101630000E94A2180E94991DA0E3B2E00E94A21885
:10164000EEE9F0E40E94501D0E94EC1CEBE0F3E098
:10165000A0E3B2E00E94A2180E94391EA0E3B2E00B
:101660000E94A218E4E8F0E40E94501D0E94EC1CC5
:10167000E2E2F2E0A0E3B2E00E94A2180E94991D0B
:101680000C94450B86E08093F9020C944A0B85E09C
:101690008093F9020C944F0B84E08093F9020C9430
:1016A000BF0BE2EAF0E40E94501D0E94911E11F06F
:1016B0000C949E0B0091CB03023011F00C94990B0B
:1016C000A1EEB3E00E94DE1DA0E2B2E00C93009117
:1016D0002002003018F011F00C94700B0C94940B55
:1016E00080E08093F902A0E2B2E08C91A9EBB3E034
:1016F0008D9388278C93A0E3B2E0EAEAF0E40E949D
:10170000501D0E94EC1CE9EBF3E0A0E3B2E00E9464
:10171000A2180E94891DEAE4F0E0A9EBB3E07BE7A0
:101720000E94561E0C94970B85E08093F9020C944E
:101730009C0B84E08093F9020C94BF0BE0ECF0E486
:101740000E94501D0E94911E11F00C94BC0B80E071
:101750008093F902A0E3B2E0E8ECF0E40E94501DAF
:101760000E94EC1CE9EBF3E0A0E3B2E00E94A218B7
:101770000E94891D0C94BF0B81E08093F9020C94A8
:10178000C40B82E08093F9020091F902003018F056
:1017900011F00C94CD0B0C94DB0BE2E4FBE10E9406
:1017A000501DA9EFB2E08C9199270E94211DA0E362
:1017B000B2E00E94EC1CA0E3B2E00E94AB180E94D1
:1017C000B818089580E080932002709141037F7BD8
:1017D000709341030091C503013011F00C945B0C30
:1017E0007091C5037E7F7093C503A0E2B2E08C9137
:1017F0008F5F8C93E0EDF0E40E94501D0E94B118C1
:10180000E0E2F2E0A0E1B1E20E94991D0E94A91875
:101810000E94B8180E948A0C62FA16F40C94590CB3
:10182000EAEDF0E40E94501D0E94B1180E94611977
:10183000A1E1B2E00E94AB18E2EEF0E40E94501D7C
:101840000E94B1180E946119A8E0B2E00E94AB1892
:101850000E94B818E2E0F2E00E94A51AA3E2B2E00A
:101860000D931D932D933D93A0E7B3E04D915D91B2
:101870006D917C91A3E2B2E00D911D912D913C916F
:101880000E94761D1CF011F00C94480C0C944F0C27
:10189000709141037064709341030C94570CE6EE11
:1018A000F0E40E94501D0E94B1180E94B8180C94D8
:1018B0005B0C0E94F81AA1E4B3E08C9183FB16F054
:1018C0000C94750C70914103777F70934103E8EF9E
:1018D000FEE30E94501D0E94B118A0E6B7E00E94EE
:1018E000AB180E94B8180E944F06009120020A30DF
:1018F00081E009F080E08F93A1E4B3E08C9186FB56
:1019000081E00EF080E09F91892B882311F40C94E4
:10191000EA0B08950E940F1B62FA16F40C94080D4E
:1019200010ED0E94231B10E00E94231B0E940F1B3E
:1019300062FA16F40C94FE0C11ED0E94231B0E9417
:10194000421BA2E0B2E01C930E94421BA3E0B2E063
:101950001C930E94421BA4E0B2E01C930E94421B15
:10196000A9E5B3E01C930E94421BA5E0B2E01C93E2
:101970000E94421BA6E0B2E01C930E94401BA7E01D
:10198000B2E01C930E941B1B62FA16F00C94D20C5E
:10199000EEE0F1E40E94501D0E94B1180E94B818B8
:1019A0000C94FC0C909102020E944219A2E0B2E059
:1019B0008C93909103020E944219A3E0B2E08C93B1
:1019C000909104020E944219A4E0B2E08C9390919D
:1019D00005020E944219A5E0B2E08C9390910602A4
:1019E0000E944219A6E0B2E08C93909107020E94F7
:1019F0004219A7E0B2E08C930C94060DEEE1F1E4FD
:101A00000E94501D0E94B1180E94B8180C94100D2D
:101A1000E6E4F1E40E94501D0E94B1180E94B8183B
:101A200008950E940F1B62FA16F40C94520D8091D7
:101A300005020E943B19A5E0B2E08C93809106025A
:101A40000E943B19A6E0B2E08C93809107020E94AD
:101A50003B19A7E0B2E08C9310ED0E94231B13E02A
:101A60000E94231B109159030E94231B1091050211
:101A70000E94231B109106020E94231B1091070253
:101A80000E94231B0E941B1B62FA16F00C94500D3F
:101A9000EEE6F1E40E94501D0E94B1180E94B818B1
:101AA0000C945A0DEEE7F1E40E94501D0E94B1180B
:101AB0000E94B81808950E940F1B62FA16F40C9445
:101AC000980D809102020E943B19A2E0B2E08C9333
:101AD000809103020E943B19A3E0B2E08C938091B5
:101AE00004020E943B19A4E0B2E08C9310ED0E9426
:101AF000231B10E00E94231B109102020E94231B53
:101B0000109103020E94231B109104020E94231BC8
:101B10000E941B1B62FA16F00C94960DE0EAF1E4A9
:101B20000E94501D0E94B1180E94B8180C94A00D7C
:101B3000ECEAF1E40E94501D0E94B1180E94B8180E
:101B400008954F4B00436F6D616E646F206E6F2080
:101B50007265636F6E6F6369646F004C6F6E676967
:101B600074756420636F6D616E646F206E6F207694
:101B7000616C696461004E756D65726F20646520EB
:101B80007573756172696F206E6F2076616C696420
:101B90006F004E756D65726F2064652070617261B3
:101BA0006D6574726F7320696E76616C69646F0025
:101BB0004572726F72206C6F6E6769747564207005
:101BC0006172616D6574726F2031004572726F725F
:101BD000206C6F6E676974756420706172616D65E9
:101BE00074726F203200506172616D6574726F2083
:101BF0006E6F2076616C69646F004552524F5238A7
:101C0000004552524F522053442E20496E74656E47
:101C10007465206465206E7565766F0000000000B5
:101C200003000000330000003303000033330000E2
:101C30003333030033C00C00FF0FFF0F55555555CC
:101C400033333333FFFFFFFF0C00FCFFCC00FCFFFE
:101C5000CC0CFCFFCCCCFCFF0C00FCFFF0FFFFFF2A
:101C6000408000AA840018F8AA02F8E000AA010047
:101C7000E0F8AA02F8E000AA0100E0F8AA02F818C9
:101C800000AA020080F0F8AA04F8F08000AA03007D
:101C900038AA0338F8AA03F838AA033800AA0100C2
:101CA00080E0F0F87838AA013878F8F0704000AA9F
:101CB0000200F8AA03F800AA0400F8AA03F800AA90
:101CC0000200F8AA03F800AA0200F8AA02F8F0E05D
:101CD0008000AA0300F8AA02F800AA020080E0F03F
:101CE000AA01F07838AA023878F8F0704000AA0CFF
:101CF00000037FFFAA01FFF8FE7F0F010F7FFEF8B0
:101D0000FFAA01FF7F0300AA0100E0FCFFAA01FF78
:101D10007F7770777FFFAA01FFFCE000AA0500FF34
:101D2000AA03FF00AA05001F7FFFAA01FFE0C0AAC7
:101D300001C0E0F8AA01F8703000AA0200FFAA036F
:101D4000FF07AA0407FFAA03FF00AA0200FFAA03D5
:101D5000FF00AA0200FFAA02FF0001070F1E78F091
:101D6000FFAA02FF00AA02001F7FFFAA01FFE0C036
:101D7000AA01C0CEEEFEAA02FE7E00AA0E0001AAB3
:101D8000030100AA040001AA030100AA020001AA9B
:101D9000030100AA060001AA030100AA040001AA87
:101DA000030100AA080001AA050100AA050001AA72
:101DB000030100AA040001AA030100AA020001AA6B
:101DC000030100AA020001AA020100AA060001AA5A
:101DD000020100AA060001AA050100AA2C00C0F019
:101DE000F8AA01F838AA0138F8AA01F8F0E000AA28
:101DF0000200C0F0AA01F0F838AA0138F8F0AA01F0
:101E0000F0C000AA030080C0AA01C0E0F8AA03F84D
:101E100000AA0300E0F0F8AA01F838AA0138F8F0A7
:101E2000AA01F0C000AA4E0080E0F0F8FCDECFAAC4
:101E300001CFC7C100AA02003FFFAA02FFC0AA014A
:101E4000C0FFAA02FF3F00AA03000301AA0101008C
:101E5000FFAA03FF00AA030063E7EFAA01EFCEE6A3
:101E6000FFAA01FF7F3F00AA4E0001AA090100AAB4
:101E7000050001AA030100AA0A0001AA030100AAA1
:101E8000050001AA040100AAAE0001080802000032
:101E90000000000000000000065F060000000007D0
:101EA00003000703000000247E247E240000002499
:101EB0002B6A120000000063130864630000003600
:101EC00049562050000000000703000000000000F9
:101ED0003E41000000000000413E000000000008FC
:101EE0003E1C3E0800000008083E080800000000F4
:101EF000E06000000000000808080808000000007A
:101F00006060000000000020100804020000003E95
:101F10005149453E00000000427F40000000006241
:101F2000514949460000002249494936000000183D
:101F300014127F100000002F494949310000003C75
:101F40004A494930000000017109050300000036CC
:101F500049494936000000064949291E0000000091
:101F60006C6C000000000000EC6C00000000000839
:101F70001422410000000024242424240000000036
:101F80004122140800000002015909060000003E29
:101F9000415D551E0000007E1111117E0000007F82
:101FA000494949360000003E414141220000007F7E
:101FB0004141413E0000007F494949410000007F06
:101FC000090909010000003E4149497A0000007FEB
:101FD0000808087F00000000417F41000000003039
:101FE0004040403F0000007F081422410000007F75
:101FF000404040400000007F0204027F0000007F5C
:102000000204087F0000003E4141413E0000007F85
:10201000090909060000003E4151215E0000007FD1
:1020200009091966000000264949493200000001EB
:10203000017F01010000003F4040403F0000001FC1
:102040002040201F0000003F403C403F0000006354
:1020500014081463000000070870080700000071EE
:1020600049454300000000007F414100000000029C
:10207000040810200000000041417F00000000041F
:102080000201020400008080808080808080000047
:102090000307000000000020545454780000007F23
:1020A00044444438000000384444442800000038C8
:1020B0004444447F00000038545454080000000891
:1020C0007E09090000000018A4A4A47C0000007F81
:1020D0000404780000000000007D40000000004083
:1020E00080847D000000007F102844000000000074
:1020F000007F40000000007C041804780000007C91
:10210000040478000000003844444438000000FC17
:102110004444443800000038444444FC0000004477
:1021200078440408000000085454542000000004BF
:102130003E4424000000003C40207C000000001CC5
:102140002040201C0000003C6030603C0000006C1F
:1021500010106C000000009CA0603C0000000064B7
:1021600054544C00000000083E41410000000000B3
:10217000007700000000000041413E08000000021E
:10218000010201000000003C2623263C0000001E46
:10219000A1E121120000003D40207D000000003838
:1021A0005454550900000020555555780000002072
:1021B00055545578000000205555547800000020F3
:1021C000575557780000001CA2E222140000003886
:1021D0005555550800000038555455080000003882
:1021E0005555540800000000017C4100000000002B
:1021F0000279420000000000017C400000000070F5
:1022000029242970000000782F252F780000007CF9
:102210005454554500000034547C54580000007E4E
:10222000097F494900000038454539000000003861
:102230004544390000000039454438000000003CA6
:1022400041217D000000003D41207C000000009CF9
:10225000A1603D000000003D42423D000000003C06
:1022600041403D00000000182466240000000048A2
:102270003E494962000000292A7C2A290000007F8B
:102280000916781000000040887E09020000002036
:102290005455557800000000007D410000000038D2
:1022A000444539000000003C40217D000000007AD8
:1022B000090A71000000007A11227900000000086C
:1022C0005555555E0000004E51514E000000003043
:1022D000484D40200000003C0404040400000404B5
:1022E0000404041C00000017084C6A50000000178A
:1022F00008342A7800000000307D3000000000081B
:102300001400081400000014080014080000441110
:10231000441144110000AA55AA55AA550000BBEE6D
:10232000BBEEBBEE0000000000FF0000000008084C
:1023300008FF000000000A0A0AFF0000000008FF72
:1023400000FF0000000008F808F8000000000A0A7A
:102350000AFE000000000AFB00FF0000000000FF72
:1023600000FF000000000AFA02FE000000000A0B55
:10237000080F00000000080F080F000000000A0A04
:102380000A0F00000000080808F800000000000024
:10239000000F080800000808080F080800000808D7
:1023A00008F808080000000000FF080800000808FE
:1023B000080808080000080808FF080800000000D6
:1023C00000FF0A0A000000FF00FF08080000000FDD
:1023D000080B0A0A000000FE02FA0A0A00000A0BB3
:1023E000080B0A0A00000AFA02FA0A0A000000FFB3
:1023F00000FB0A0A00000A0A0A0A0A0A00000AFB8D
:1024000000FB0A0A00000A0A0A0B0A0A0000080F69
:10241000080F080800000A0A0AFA0A0A000008F869
:1024200008F808080000000F080F08080000000066
:10243000000F0A0A0000000000FE0A0A000000F86F
:1024400008F80808000008FF00FF080800000A0A52
:102450000AFB0A0A00000808080F0000000000003C
:1024600000F808080000FFFFFFFFFFFF0000F0F08A
:10247000F0F0F0F00000FFFFFF000000000000009F
:1024800000FFFFFF00000F0F0F0F0F0F00000018DD
:1024900024241824000000FE4A4A34000000007F73
:1024A00001010300000000027E027E0200000063C2
:1024B000554963000000001824241C04000000FC9F
:1024C00020201C0000000008047804000000000820
:1024D000557755080000003E49493E000000004C79
:1024E0007202724C000000225559300000000018A2
:1024F0002418241800000018247E24180000001C52
:102500002A2A2A000000003C02023C000000002AA7
:102510002A2A2A0000000000242E24000000005176
:102520004A4A4400000000444A4A510000000000AA
:1025300000FC020400000020403F000000000008F2
:10254000082A0808000000241224120000000006D7
:102550000909060000000000181800000000000033
:102560000800000000000030403E020200000001B0
:102570000E010E00000000090D0A00000000003CE2
:102580003C3C3C000000020C18020000000000006F
:10259000000000000000000000000000000000003B
:1025A0000000000000007CFFFF7C00000000000035
:1025B000000000333300000000000000263E1E0033
:1025C00000263E1E00000000000000000000000089
:1025D000000000000010F0FE1E10F0FE1E100000B3
:1025E000021E1F03021E1F030000000078FCCCFF28
:1025F000FFCCCC8800000000040C0C3F3F0C0F0700
:1026000000000000386C6C3880C0E070381C00009E
:10261000181C0E0703011C36361C000000B8FCC64F
:10262000E23E1C00000000001F3F3121371E1C3617
:10263000220000000000263E1E00000000000000F6
:1026400000000000000000000000000000F0FCFEA0
:10265000070101000000000000030F1F38202000C8
:102660000000000000010107FEFCF0000000000077
:10267000002020381F0F0300000000000098B8E081
:10268000F8F8E0B898000000000C0E030F0F030EDE
:102690000C00000000808080F0F08080800000004E
:1026A000000101010F0F0101010000000000000006
:1026B00000000000000000000000004C7C3C000016
:1026C000000000000080808080808080800000000A
:1026D00000010101010101010100000000000000F2
:1026E0000000000000000000000000383838000042
:1026F0000000000000000080C0E070381C0E0000E8
:102700001C0E07030100000000000000F8FE068315
:10271000C363331EFEF80000071F1B313030301832
:102720001F070000000C0C0EFFFF0000000000005F
:10273000003030303F3F3030300000001C1E0703B7
:1027400083C3E3773E1C0000383C3E3733313030E2
:10275000303000000C0E07C3C3C3C3E77E3C00004B
:102760000C1C3830303030391F0E0000C0E070389B
:102770001C0EFFFF000000000707060606063F3F8D
:1027800006060000787F6763636363E3C38300002A
:102790000C1C3830303030381F0F0000C0F0F8DC2F
:1027A000CEC7C3C3800000000F1F3930303030392E
:1027B0001F0F00000303030303C3F33F0F030000D5
:1027C0000000303C0F0300000000000000BCFEE7EA
:1027D000C3C3E7FEBC0000000F1F39303030303972
:1027E0001F0F00003C7EE7C3C3C3C3E7FEFC00002D
:1027F00000303030381C0E0703000000000000706D
:1028000070700000000000000000001C1C1C000094
:102810000000000000000070707000000000000068
:102820000000004C7C7C00000000000000C0E0F0D4
:10283000381C0E070300000000000103070E1C38BF
:102840003000000000606060606060606000000058
:102850000006060606060606060000000003070E30
:102860001C38F0E0C00000000030381C0E070301E7
:10287000000000001C1E070383C3E3773E1C00001A
:10288000000000003737000000000000FCFE03F3EA
:102890001BFBFB07FEF800000F1F303336373736BF
:1028A000030100000000E0FC1F1FFCE0000000002E
:1028B000383F0706060606073F380000FFFFC3C380
:1028C000C3C3E7FEBC0000003F3F3030303030393A
:1028D0001F0F0000F0FC0E07030303070E0C00009F
:1028E000030F1C38303030381C0C0000FFFF03038E
:1028F0000303070EFCF000003F3F30303030381C3F
:102900000F030000FFFFC3C3C3C3C3C3030300001F
:102910003F3F30303030303030300000FFFFC3C335
:10292000C3C3C3C3030300003F3F00000000000017
:1029300000000000F0FC0E0703C3C3C3C7C60000BD
:10294000030F1C38303030303F3F0000FFFFC0C065
:10295000C0C0C0C0FFFF00003F3F000000000000FB
:102960003F3F000000000303FFFF030300000000DF
:10297000000030303F3F3030000000000000000019
:1029800000000000FFFF00000E1E383030303038ED
:102990001F070000FFFFC0E0F0381C0E0703000017
:1029A0003F3F000103070E1C38300000FFFF00000E
:1029B00000000000000000003F3F30303030303079
:1029C00030300000FFFF1E78E0E0781EFFFF0000BF
:1029D0003F3F0000010100003F3F0000FFFF0E38B5
:1029E000F0C00000FFFF00003F3F00000003071C95
:1029F0003F3F0000F0FC0E070303070EFCF0000051
:102A0000030F1C383030381C0F030000FFFF838396
:102A1000838383C7FE7C00003F3F01010101010168
:102A200000000000F0FC0E070303070EFCF000009E
:102A3000030F1C3830363E1C3F330000FFFF8383FA
:102A4000838383C7FE7C00003F3F010103070F1D06
:102A5000383000003C7EE7C3C3C3C3C78E0C000000
:102A60000C1C3830303030391F0F000003030303D3
:102A7000FFFF030303030000000000003F3F0000CE
:102A800000000000FFFF000000000000FFFF00004A
:102A9000071F3830303030381F070000073FF8C0BC
:102AA0000000C0F83F0700000000010F3E3E0F018C
:102AB00000000000FFFF000080800000FFFF00001A
:102AC0003F3F1C060303061C3F3F0000030F1C3062
:102AD000E0E0301C0F030000303C0E030101030E48
:102AE0003C300000030F3CF0C0C0F03C0F0300007E
:102AF000000000003F3F000000000000030303034C
:102B0000C3E3331F0F030000303C3E33313030301D
:102B1000303000000000FFFF03030303000000004B
:102B200000003F3F30303030000000001C3870E0C3
:102B3000C080000000000000000000000103070E3C
:102B40001C180000000003030303FFFF0000000047
:102B50000000303030303F3F0000000070381C0E65
:102B6000070E1C387000000000000000000000008C
:102B70000000000000000000000000000000C0C0D5
:102B8000C0C0C0C0C0C0C0C0C0C000000000003E87
:102B90007E46000000000000000000000000000071
:102BA000000000000040606060606060E0C0000005
:102BB0001C3E3333333333333F3F0000FFFFC060ED
:102BC000606060E0C08000003F3F3030303030381F
:102BD0001F0F000080C0E06060606060C080000087
:102BE0000F1F3830303030301808000080C0E060EF
:102BF0006060E0C0FFFF00000F1F38303030303021
:102C00003F3F000080C0E06060606060C080000006
:102C10000F1F3B333333333313010000000000F048
:102C2000F81C0C0C000000000003037F7F0303036B
:102C300000000000C0E0703030303030F0F00000B4
:102C400001636766666666733F1F0000FFFFC06032
:102C50006060E0C0800000003F3F00000000003FD7
:102C60003F00000000000060ECEC000000000000ED
:102C7000000030303F3F3030000000000000000016
:102C80000060ECEC000000000000307060607F3FEE
:102C90000000000000FFFF0080C0E06000000000B6
:102CA000003F3F03070F1C38300000000000000306
:102CB000FFFF000000000000000030303F3F3030D8
:102CC00000000000E0C0E0E0C0C0E0E0C080000024
:102CD0003F3F00003F3F00003F3F000000E0E0C0FA
:102CE000606060E0C0800000003F3F000000000026
:102CF0003F3F000080C0E060606060E0C080000096
:102D00000F1F3830303030381F0F0000F0F03030F7
:102D100030303070E0C000007F7F060C0C0C0C0ED1
:102D200007030000C0E0703030303030F0F00000B9
:102D300003070E0C0C0C0C067F7F000000E0E0C0C7
:102D400060606060E0C00000003F3F0000000000E5
:102D50000000000000C0E0606060606040000000B3
:102D6000001133333333333F1E000000006060FE38
:102D7000FE606060000000000000001F3F30303047
:102D800030000000E0E0000000000000E0E0000093
:102D90000F1F3830303030183F3F000060E08000B7
:102DA00000000080E06000000001071E38381E07A8
:102DB00001000000E0E00000E0E00000E0E00000D2
:102DC000071F381C0F0F1C381F07000060E0C08071
:102DD0000080C0E06000000030381D0F070F1D3874
:102DE00030000000000030F0C00000C0F0300000F3
:102DF00000000040733F0F0300000000406060606F
:102E000060E0E0602000000030383C363331303084
:102E1000100000000080C0F87C0E060606000000CE
:102E20000000010F1F3830303000000000000000AB
:102E3000FFFF000000000000000000003F3F000016
:102E400000000000000606060E7CF8C080000000AE
:102E500000303030381F0F0100000000406030109B
:102E60003060406030100000080C0602060C080CB0
:102E7000060200000080C060303060C080000000AA
:102E80000F0F0C0C0C0C0C0C0F0F84E08093C40380
:102E90000E945A050E94970283E08093C403EEECDF
:102EA000F1E40E94501D0E94B1180E94B8180E94BF
:102EB0007D1B80E08A9380E08A9380E08A93E0E63D
:102EC000FCE10E94501D882780931D020E94621C15
:102ED000E1E0F0E00E94D1180E947D1BEAE8FEE1EB
:102EE0000E94501DAAE1B2E0ED93FD938BB78C9345
:102EF00081E080931F0281E080931E0288278093E7
:102F00001D02E6EDF1E40E94501D0E94CA1883E004
:102F100080931F0281E080931E02882780931D0208
:102F2000A0E1B1E2E8EEF1E40E94501D0E94EC1C29
:102F30000E94C21885E080931F0281E080931E02E8
:102F4000882780931D02A0E1B1E2E6EDFDE30E9437
:102F5000501D0E94EC1C0E94C21887E080931F0243
:102F600081E080931E02882780931D02A0E1B1E2D8
:102F7000EEEDFDE30E94501D0E94EC1C0E94C21861
:102F8000ECEFF1E40E94501D0E94B1180E94B818A5
:102F900083E08093C4030E94E20BA1E4B3E08C9130
:102FA00086FB16F00C94CB1781E08093C403EAE013
:102FB000F2E40E94501D0E94B1180E94B818E1E08E
:102FC000F0E00E94D1180E947D1BA1E4B3E08C9137
:102FD00083FB16F00C94FF1770914103777F709379
:102FE0004103E8EFFEE30E94501D0E94B118A0E6E5
:102FF000B7E00E94AB180E94B8180E944F060091DB
:10300000C503013011F00C9445187091C5037E7F03
:103010007093C503A1E2B2E08C918F5F8C930E9404
:103020006119E8E0F2E0ABE0B3E00E94391EABE0EA
:10303000B3E00E94A218E0E1F2E40E94501D0E9459
:10304000EC1C0E946119E1E1F2E0ABE0B3E00E9408
:10305000A2180E94391EABE0B3E00E94A218E0E182
:10306000F2E40E94501D0E94EC1C80E080931F023D
:1030700083E080931E028091210280931D02E2E191
:10308000F2E40E94501D0E94CA18A1E4B3E08C91A2
:1030900087FB16F00C945318709141037F7770935F
:1030A00041030E9497020C94E5170D911D912D91FB
:1030B0003C910F5F1F4F2F4F3F4F3C932E931E931A
:1030C0000E93089509D00E94BF1C00FC10D00895F3
:1030D00003D01ED001F8F9CF0024E89457FF02C0B6
:1030E00009D0689400F80BD010F80124089502D09C
:1030F00009D00895509540954F5F5F4F0895E8942B
:1031000017FF0895009510950F5F1F4F689408955D
:10311000352F242FE894452B11F468940895512FEE
:10312000402F0027112780E1440F551F001F111F5A
:10313000021B130B416018F4020F131F4E7F8A9578
:1031400099F708958F938D918823E9F711978F91BF
:103150000895A0E1B1E28D91882311F00CD0FBCF4E
:1031600008950E94F21C802D11F005D0FACF089529
:103170008DE001D08AE00090C00005FEFCCF809376
:10318000C6000895A0E1B1E28D91882311F00FD01F
:10319000FBCF08950E94F21C802D11F008D0FACFC9
:1031A000089588EE93E07ED03197D9F708950C9476
:1031B0008E1B00FC05D0089530D005D001F8F9CF62
:1031C00037D03FD00895842F952FA62FB72FE8949E
:1031D000452B462B472B11F468940895402F512F0F
:1031E000622F732F0027112722273327F0E2440F85
:1031F000551F661F771F001F111F221F331F081B3B
:10320000190B2A0B3B0B416028F4080F191F2A1FCA
:103210003B1F4E7FFA9559F708950024E89477FFF5
:1032200002C006D0689400F809D010F8012408956F
:1032300012D04F5F5F4F6F4F7F4F0895E89437FF75
:10324000089500951095209530950F5F1F4F2F4FD3
:103250003F4F6894089540955095609570950895F6
:10326000982F82958F70805D8D939F70905D9D9358
:1032700088278C9308954AE0082F0E947B1E0295B0
:10328000802B0895892F8F70905110F0865FFCCFAE
:1032900008953197F1F70895689462F80895E894D5
:1032A00062F80895EF93FF93EE27E82BE92B31F0B6
:1032B000E0EAFFE03197F1F70197D1F7FF91EF9145
:1032C00008950E949402A8E0B2E0E5E0F2E00E94D6
:1032D000B41933970C949019E8E0F2E0A5E0B2E05D
:1032E0000E94A2190C949502E1E1F2E0A2E0B2E0A2
:1032F0000E947E190C949602ADE0BB2786819781CF
:103300000E94671D0D93838194810E94671D0D9318
:10331000808191810E94671D0D930895EDE0FF2744
:1033200082810E945C1D8AE38D9381810E945C1DD5
:103330008AE38D9380810E945C1D88278C93089579
:10334000ADE0BB27808191810E94671D0D93838131
:1033500094810E94671D0D93868197810E94671D4D
:103360000D930895EDE0FF2780810E945C1D8FE2A0
:103370008D9381810E945C1D8FE28D9382810E94DA
:103380005C1D88278D93089521D00F2D06950695F5
:103390000F0D0D0D8F2D837021F41E2D13300AF4A7
:1033A0000A958E2D8A959927E0ECF3E30E94501D33
:1033B000A8E1BB270E940E1D080F47E00C947B1E5E
:1033C00005010104060204000305010393E0ADE0DA
:1033D00002C096E0AAE0B0E08FB7F89401910D9397
:1033E0009A95E1F78FBF08950191119145EB55E052
:1033F0000E946818440F440FF42E0F31150728F46B
:1034000081E0E82E0395D02E24C00C33150728F454
:1034100082E0E82E0E51D02E1CC00150150B4DE657
:1034200051E00E948818F40E7CE07A95872F992746
:10343000E4E5F4E30E94501DA2E1BB270E94081DB1
:103440000217130790F37395E72E021B130B0395D6
:10345000D02E089500001F003B005A00780097000E
:10346000B500D400F300110130014E01019111911A
:103470002191308140E851E561E070E00E94DC1864
:10348000042F152F0C94F619A1DF0E2D0A95802F0D
:103490000295003220F01F2D137009F40395DA9481
:1034A0000D0D11279927ECEBF4E30E94501DA8E1C4
:1034B000BB270E940E1D080F111F0895000F1B2A25
:1034C000384755647381909E81DF0F2D11274CE39F
:1034D00055270E94621855270E0D151F4CE3222711
:1034E0003327662777270E94C91C0D0D131F231F42
:1034F00008950E947C190C94651A68DFDF92EF92A0
:10350000FF920F2D1127222733274DE651E060E06F
:1035100070E00E94C91CFF904F2D4D5F4695469567
:103520005527662777270E94711DEF90DF900F9334
:103530001F932F933F930E94451A222733277F9191
:103540006F915F914F910C94711D43DFAF92BF92C9
:10355000CF920E947E1A40E851E561E070E00E943F
:10356000C91CFF90EF90DF900F931F932F933F9311
:103570000E94651A7F916F915F914F910C94711D1C
:10358000019111912191308140E851E561E070E0B5
:103590000E94DC180C94D01A019111912191308174
:1035A00040E15EE060E070E00E94DC18F42E4CE345
:1035B00050E00E946818E42ED02E0895AF93BF9378
:1035C0000E94C01ABF91AF910C948E19AF93BF9314
:1035D0000E94361ABF91AF910C94B219AAE0BB2792
:1035E0000E947E19E991F9910E94A0190C94A61AE3
:1035F00051985098599A589A089568944093BC00ED
:103600008F939F9388279927019629F04091BC00BA
:1036100047FFFACFE8949F918F9162F8089544EAAA
:10362000ECDF4091B900487F483019F0403109F093
:10363000689462F8089544E94093BC004091BC004E
:1036400044FDFCCF08951093BB0044E8D6DF8F9370
:103650009F9388279927019671F04091B900487F80
:10366000483FC9F3E894483139F0483229F04034F2
:1036700019F0403509F068949F918F9162F8089590
:1036800044E801C044ECB9DF1091BB004091B9009F
:10369000487F483FD9F308950E940F1BE8EBF6E3FB
:1036A0000E94501D5AE10E94F21C102D0E94231B03
:1036B0005A95C9F70C941B1B78AED580003FD300F8
:1036C000408D142000A1C8DA1281FFD9F1D840A49E
:1036D000A6AF0E940F1B18E70E94231B182F09C0DA
:1036E00018E70E940F1B0E94231B10E40E94231B5B
:1036F000182F0E94231B0C941B1B0E940F1B18E702
:103700000E94231B10E40E94231B1127E0E0F4E039
:103710000E94231B3197E1F70C941B1BEF93FF933F
:1037200050911F025F9370901E02E0911A02F09177
:103730001B023BB600901C020BBE0E94F21C202D07
:103740000E94F21C302D0E94F21C002D0E94F21CDF
:10375000602D8052482F0E946F1EE40FF51F7CD011
:10376000CC241124E22E603071F1DD24DA94CD2CCA
:10377000FF24032F0E94F21C29F00A95E00FF11D8F
:103780006BD003C0F3940A95A9F7FD1408F4DF2C5D
:10379000EA9471F7E22EFF24032F319762D0D89577
:1037A000002029F00A95E01BF1095BD003C0F394D7
:1037B0000A9599F7FC1408F4CF2CEA9461F7D31614
:1037C00011F4D62ECC2470921E02732F7C194091D6
:1037D0001E0250911F020E943F1C603041F0DD200C
:1037E00031F05D2D0E94F21C5A95E1F77D190E947F
:1037F000F21C802D50911D02552309F080950E94E6
:10380000701B50911E02539550931E027A9579F7C2
:10381000EC0DF11D21D0603081F050911D02762F0A
:103820008827552309F080950E94701B7A95C1F76F
:1038300050911E02560F50931E0250911F02539535
:1038400050931F022A9509F0BECF5F9150931F023B
:103850003BBEFF91EF91089518F42BB623942BBE35
:10386000089518F42BB62A942BBE08950AD00E940E
:103870000F1B18E70E94231B10E40C94231B4A958E
:103880005A954F930E940F1B18E70E94231B10E0CC
:103890000E94231B10EB150F0E94231B1F911F93E7
:1038A00012951F7010610E94231B1F911F700E94B0
:1038B000231BC1CE772321F0AA27BB270C94651EBA
:1038C0000C94F21C11242224332479910E945A1C56
:1038D000002D48E00E947B1E0A930E945A1C0A9207
:1038E0000A920B8148E00E947B1E0B834C81F42ED0
:1038F0005B81BCDF131479F40E945A1C202C802DAC
:103900008A3A39F00E945A1C802D8A3A39F0319750
:103910000DC031960BC01A9469F308C00E945A1C5E
:10392000802D882311F4329701C0102C822D9091A4
:103930001D02992309F080958F934F2D5B8196DFAF
:103940008F91F394182F0E94231B89818A95898374
:1039500089F68B8183958B83888189838A818A9577
:103960008A8321F625960C941B1B41E2FF2747BF53
:1039700084910895019111912191308108950F92C0
:10398000B801469F8001479F100D569F100D0F9064
:1039900008950F921F922F92C801D901489F80016C
:1039A0004A9F90014B9F202C499F100D211D321DD5
:1039B0005A9F202C589F100D211D321D599F200DFC
:1039C000311D689F200D311D699F300D789F300D8E
:1039D0002F901F900F9008950E94F21C0D920020CE
:1039E000D9F70895D895319628F48F938BB783959E
:1039F0008BBF8F910020089591E005C092E003C035
:103A000094E001C098E0EEDF0D929A95E1F70895F9
:103A1000880F991FE80FF91F0DD0F0CFE80FF91F9D
:103A200009D0EACF880F991F880F991FE80FF91F57
:103A300001D0E6CF28F48F938BB783958BBF8F91FE
:103A400008950196019721F00E94F21CE9F7FACF40
:103A50000895819104D08D938823D9F708958136F4
:103A600018F08B3708F48F7D089591E0882321F0BA
:103A70008894991F8A95E9F7892F90950895883041
:103A800018F011968850FBCF08950F9200240BBEBA
:103A90000F9008950F9301E00BBF0F918894089544
:103AA0000F930027F9CF0F9302E0F6CF0F9303E0B7
:103AB000F3CF0F9304E0F0CF00278A3018F08A503C
:103AC0000395FBCF005D0D93805D8D93089580532A
:103AD00090530027813018F0065F8A95FBCF090FBD
:103AE0000895040F151F261F371F08950417150783
:103AF000260737070895000F111F221F331F08954F
:103B000000951095209530950F5F1F4F2F4F3F4F19
:103B10000895019110810FC00E94BA1C0EC00E942E
:103B2000BA1C10C00191108117FF05C03FEF2FEFA5
:103B300004C0008111272227332737FF03C0E0DFAD
:103B40008DE28D93CF92DF92EF92AA24BB24CC24F6
:103B5000DD24EE2440E2EAE0FF2755E093E3808194
:103B6000890F87FD9F7083FD907F891B81935A95F4
:103B7000A9F7C1DFAA1CBB1CCC1CDD1CEE1C4A959E
:103B800051F7E894EFE0FF2782910BD0EB30E0F79C
:103B90001EF068948A2D09D04D93EF90DF90CF905E
:103BA0000895982F829501D0892F8F70805D26F01F
:103BB000803309F4089568948D93089500271127A0
:103BC000222733271DD08A3328F4803318F005D0FC
:103BD00015D0F9CF0EF494CF089580538F93402FD2
:103BE000512F622F732F87DF86DF7BDF84DF8F917A
:103BF0009927080F191F291F391F08958D910895BE
:103C0000E894FCDF8032E9F38B32D9F38930C9F3D1
:103C10008D3211F46894F2CF089541E003C042E080
:103C200001C044E0E40F8827F81F8291982F829505
:103C300006D0892F04D04A95C1F70C94361E8F7098
:103C40008A3008F0895F805D8D93089541E0E40F2C
:103C50008827F81F829138E098E1880F991F9D937B
:103C60003A95D1F74A95B1F70C94361E88278D9373
:103C7000089581918D938823E1F708950991919199
:103C8000992359F08A95D9F73197002331F0819122
:103C90008D930A958823C9F70895E8CFF999FECF47
:103CA000E1BDF2BD3196089591E001C092E07B370D
:103CB00051F47FB7F894F2DF8D9180BDFA9AF99AAA
:103CC0009A95C9F77FBF7727089591E001C092E0E8
:103CD000E5DFF89A80B58D939A95D1F70895FF9313
:103CE0005527F8E0469508F4500F57954795FA95F3
:103CF000D1F7FF910895FF93881BF9E0001FFA9513
:103D000011F4FF910895881F841B18F4840F889480
:103D1000F5CF0894F3CF8FEF83959D919923E1F729
:103D20000895689401C0E894AF93BF938D9116F005
:103D3000919103C00E94F21C902D891718F011F484
:103D40008823A1F7BF91AF910895689401C0E894CA
:103D50002227102F231709F4089526F40E94F21C3D
:103D6000802D01C08191803081F0891741F070E091
:103D70008D931A9591F7239571E01D93EACF01D0A9
:103D8000E8CF703011F077270895772331F4239529
:103D9000882713958D931A95E9F708952A2A2A2AD8
:103DA0002A2A2A2A2A2A2A2A204C4F52412D424FB7
:103DB0004D4241202A2A2A2A2A2A2A2A2A2A2A2A1B
:103DC000000032372D30322D323032352031383A42
:103DD00033303A303400302E312E3635000052491F
:103DE00045474F2E42415300556C74696D61204127
:103DF000435420434C4B20002C00456E6170726F81
:103E0000673D000048616220446961732053656D1D
:103E1000616E612000003D004872692000002C2086
:103E2000486F72613D005469656D706F72696567B6
:103E30006F3D000049447365723C00003E0030361F
:103E40003A30303A3030000030373A30303A3030A3
:103E5000000030383A30303A3030000030393A30F3
:103E6000303A3030000031303A30303A30300000F3
:103E700031313A30303A3030000031323A30303A75
:103E80003030000031333A30303A303000003133D6
:103E90003A33303A3030000031343A33303A30304F
:103EA000000031353A33303A3030000031363A33A1
:103EB000303A3030000031373A33303A3030000099
:103EC00031383A33303A3030000031393A33303A11
:103ED0003030000032303A33303A3030000056652E
:103EE0007269666963617220436F6E6669672E202E
:103EF000496E696369616C00534552313D00496EFA
:103F000067726573652076616C6F72657320646596
:103F100020636F6E66696775726163696F6E00001A
:103F2000434F4E4649472E20494E494349414C2074
:103F30004F4B000054727920000024003A004C4599
:103F400045564657000056657273696F6E20465796
:103F50003A204665636861203C003E2C2041726334
:103F60006869766F203C000052535456415200005D
:103F7000536520636F6E6669677572616E20766146
:103F8000726961626C657320612076616C6F726525
:103F90007320706F72206465666563746F004C45B2
:103FA000455249440000494420736572203C00009A
:103FB0005345544C45440000536520636F6E666959
:103FC00067757261206C65640000534554434C4B27
:103FD0000000543E00002F00443E0000574154436F
:103FE00048494E4720494E464F524D412E20536579
:103FF00020636F6E66696775726F2072656C6F6A99
:1040000020656E200000206120004C45455254433D
:1040100000004C65652052544300534953434C4BB8
:104020000000486F72612061637475616C3D00002F
:104030002C2046656368612061637475616C3D0086
:104040004C4545434C4B0000556C74696D612041F3
:10405000435420434C4B2061203D00002C206465DC
:104060006C200000534554485249000050545220DF
:104070004872693D0000436F6E6669672048726947
:1040800065676F0020656E2050524F4720004C45F9
:1040900045485249000048726965676F0000203D3D
:1040A00000005345545452490000536520636F6E1D
:1040B00066696775726F2054726965676F3D0000AD
:1040C0004C4545545249000054726965676F3D0084
:1040D0004C656F2052544320000052544320483D09
:1040E00000002C463D00486F726120616374756169
:1040F0006C203C20486F72616D696E2C2061637486
:1041000075616C69636520656C20434C4B0045729A
:1041100072206765746461746574696D65004E6FC3
:1041200020736520656E636F6E74726F2044533325
:1041300032333120656E204765746461746574693B
:104140006D65203200004E6F20736520656E636FD1
:104150006E74726F2044533332333120656E2047C2
:1041600065746461746574696D6520310000457221
:1041700072207365746461746574696D65004E6F57
:1041800020736520656E636F6E74726F20445333C5
:1041900032333120656E20536574646174650000AC
:1041A0004572722073657474696D65004E6F20737B
:1041B0006520656E636F6E74726F204453333233C3
:1041C0003120656E2053657474696D6500004D453E
:1041D0004741525443002A2A20204D45474120326E
:1041E000303230202A2A000032372D30322D323042
:1041F00032352031383A33303A30350056657269FD
:104200006669636120434C4B00004D61696E00009C
:044210002000310059
:00000001FF
