:100000000C947200189500001895000018950000D7
:10001000189500001895000018950000189500002C
:10002000189500001895000018950000189500001C
:100030001895000018950000189500000C9496057E
:1000400018950000189500001895000018950000FC
:100050000C94210318950000189500000C9452028E
:10006000189500000C940E011895000018950000DA
:1000700018950000189500001895000018950000CC
:1000800018950000189500001895000018950000BC
:100090000C94A00118950000189500001895000018
:1000A000189500001895000018950000189500009C
:1000B000189500001895000018950000189500008C
:1000C000189500001895000018950000189500007C
:1000D000189500001895000018950000189500006C
:1000E000189500008FEF8DBFC0E0E8E14E2E81E251
:1000F0008EBFD1E2FFE15F2EA89584B7082E882736
:1001000084BF88E199278093600090936000EEEFB0
:10011000FFE1A0E0B2E088278D933197E9F787E609
:100120008093C40080E08093C50088E18093C10083
:100130006624279A389A399A3A9A3B9A3C9A3D9A79
:100140003E9A3F9A70910A01716070930A01709112
:100150000A01726070930A0170910A0174607093D1
:100160000A01219A229A239A289A209A5F9A579AEA
:10017000159A089809980A980B98109A119A129A49
:10018000139A85E085BD80E084BD70916E0071603A
:1001900070936E0085E085BD80E08093800085E0EF
:1001A0008093810070916F00716070936F0085E0A3
:1001B0008093810087E08093B10080E08093B0005D
:1001C0007091700071607093700087E08093B1004F
:1001D0007091C10070687093C10087E68093CC0075
:1001E00080E08093CD007091C8007D7F7093C8003F
:1001F00086E08093CA0088E18093C9007091C900AD
:1002000070687093C90070E07093B9007CE07093DF
:10021000B8000E94005978940C94274E0F921F92B8
:100220002F923F924F925F927F92AF92BF920F9325
:100230001F932F933F934F935F936F937F938F936E
:100240009F93AF93BF93CF93DF93EF93FF939FB7AA
:100250009F939BB79F9399279BBFA9E2BBE0809197
:10026000C6008C9384E2482F0091290B041711F0EB
:100270000C94450170919408786070939408A4E7F9
:10028000BAE088278C930C9482010D3011F00C9405
:100290006A01A4E9B8E08C9183FB16F00C94680124
:1002A00070919408777F7093940880E0A4E7BAE097
:1002B0000E9450558D9388278C93E4E7FAE0AAE2D8
:1002C000BBE00E94155C7091940874607093940870
:1002D0000C9482010F3118F011F00C9471010C9400
:1002E0008201A4E9B8E08C9183FB16F00C948201A2
:1002F000A9E2BBE08C91A4E7BAE00E9450558D932F
:1003000088278C939F919BBF9F919FBFFF91EF91F7
:10031000DF91CF91BF91AF919F918F917F916F911D
:100320005F914F913F912F911F910F91BF90AF908F
:100330007F905F904F903F902F901F900F90189557
:100340000F921F922F923F924F925F927F92AF92A5
:10035000BF920F931F932F933F934F935F936F938E
:100360007F938F939F93AF93BF93CF93DF93EF933D
:10037000FF939FB79F939BB79F9399279BBFA0EB3A
:10038000B8E08091CE008C9385E2482F0091B008B0
:10039000041711F00C94D701709194087062709357
:1003A0009408A1EBB8E088278C930C9434020D30AC
:1003B00011F00C940C02A4E9B8E08C9185FB16F0C6
:1003C0000C940A02709194087F7D7093940880E0E9
:1003D000A1EBB8E00E9450558D9388278C93E1EBF8
:1003E000F8E0AEE3B9E00E94155CAEE3B9E0ECE4FE
:1003F000FEEB0E94C35A0E947F5C11F00C94050230
:1004000070913C02706270933C027091940870612C
:10041000709394080C9434020F3118F011F00C947E
:1004200013020C943402A4E9B8E08C9185FB16F019
:100430000C943402A0EBB8E08C91A1EBB8E00E94E0
:1004400050558D9388278C93A1EBB8E00E94795C7E
:10045000082F0C3818F011F00C9430020C94340270
:10046000A1EBB8E088278C939F919BBF9F919FBF82
:10047000FF91EF91DF91CF91BF91AF919F918F91BC
:100480007F916F915F914F913F912F911F910F91AC
:10049000BF90AF907F905F904F903F902F901F90B4
:1004A0000F9018950F921F922F923F924F925F924A
:1004B0007F92AF92BF920F931F932F933F934F93CF
:1004C0005F936F937F938F939F93AF93BF93CF93DC
:1004D000DF93EF93FF939FB79F939BB79F939927CA
:1004E0009BBF74E676BDA3EAB7E08C918F5F8C93D7
:1004F000A3EAB7E00C9148E00E94695C8C930091FC
:10050000A307003011F00C94B802A4EAB7E00C91F4
:1005100040E20E94695C8C93E0E9F9E80E94C35ACA
:10052000A9EAB7E08C919927A5EAB7E00E947A5A28
:100530008091A407A5EAB7E00E94AE5A0E94A45A8F
:100540000C900822689409F4E894ABE5B7E08C912C
:1005500083F98C93ABE5B7E08C9183FBA5E2B0E027
:100560008C9187F98C93A4EAB7E08C918F5F8C9380
:10057000ABE5B7E08C9184FB16F00C94DE02A1EAA7
:10058000B7E00E940955A1EAB7E00D911C9149EF2F
:1005900051E00E943655A1EAB7E00D931C93A1EA01
:1005A000B7E00D911C91003050E0150711F00C944C
:1005B000DE0270915B07706270935B07ABE5B7E09A
:1005C0008C9181FB16F00C94FD02ADEAB7E00E941D
:1005D0000955AFEAB7E04D915C91ADEAB7E00D91F6
:1005E0001C910417150711F00C94FB0270915B0726
:1005F000746070935B070C94030380E090E0ADEAB5
:10060000B7E08D939C939F919BBF9F919FBFFF915C
:10061000EF91DF91CF91BF91AF919F918F917F919A
:100620006F915F914F913F912F911F910F91BF90CB
:10063000AF907F905F904F903F902F901F900F90C2
:1006400018950F921F922F923F924F925F927F9236
:10065000AF92BF920F931F932F933F934F935F934C
:100660006F937F938F939F93AF93BF93CF93DF93BA
:10067000EF93FF939FB79F939BB79F9399279BBF40
:1006800087EF92EC90938500809384007091AA0785
:1006900071607093AA070E941557E8E0F2E0FA93A0
:1006A000EA93E1E1F2E00E94A258A1EBB7E00D93DA
:1006B0001D932D933D93A1EBB7E00E94FC54E1EB19
:1006C000F7E0A1E1B2E00E9492580E942857E1EBC6
:1006D000F7E0A8E0B2E00E949A580E9420570E94DA
:1006E0001557E1E1F2E0A9EDB6E00E94155CE9EDF5
:1006F000F6E00E942D58A5EBB7E00D931D932D93C6
:100700003D9381E08093B9070091B907003118F05B
:1007100011F00C94B703A9EBB7E0AD90BB24A5E9A9
:10072000B6E0AA0CBB1CAA0CBB1CAA0DBB1D4D91AC
:100730005D916D917C91A5EBB7E00D911D912D918F
:100740003C910E94435B11F00C94AF037091E4065E
:1007500070627093E4068091B9078093E506A9EB77
:10076000B7E08C918F5F8C9310F40C948403A1EB11
:10077000B7E00D911D912D913C91A7E5B7E04D910A
:100780005D916D917C910E94A355AAEBB7E00D930A
:100790001D932D933D9340E050E060E070E0AAEBA4
:1007A000B7E00D911D912D913C910E94435B11F09A
:1007B0000C94DF0370915B07706870935B07A1EB8B
:1007C000B7E00D911D912D913C91AFEBB7E04C91AD
:1007D0005527662777270E94A355AAEBB7E00D930C
:1007E0001D932D933D9340E050E060E070E0AAEB54
:1007F000B7E00D911D912D913C910E94435B11F04A
:100800000C94070470915B07716070935B0781E043
:100810008093410200914102053018F011F00C94D0
:100820007604A1EBB7E00D911D912D913C91A1E4CF
:10083000B2E0AD90BB24A8EFB6E0AA0CBB1CAA0C9A
:10084000BB1CAA0DBB1D4D915D916D917C910E94C9
:100850003E5BAAEBB7E00D931D932D933D93AAEB5E
:10086000B7E00D911D912D913C91A1E4B2E0AD90C6
:10087000BB24A4EEB6E0AA0CBB1CAA0CBB1CAA0DA0
:10088000BB1D4D915D916D917C910E94A355AAEB8A
:10089000B7E00D931D932D933D930091410241E0EC
:1008A000041BA0E4B2E00C9340E050E060E070E094
:1008B000AAEBB7E00D911D912D913C910E94435BF5
:1008C00011F00C946E0480914002AEEBB7E00E94F0
:1008D000AE5A0E94A45A9C91982B9C93A1E4B2E03A
:1008E0008C918F5F8C9310F40C940A04A4E3B7E00E
:1008F0008C918F5F8C93A4E3B7E00C9141E00E9450
:10090000695C8C9300913407003011F00C948D04D5
:100910007091E40674607093E406AAE7B7E08C91E6
:100920008F5F8C93AAE7B7E00C9145E00E94695C69
:100930008C9300917A07003011F00C94A40470910C
:100940005B07706470935B07A4EEB6E08C9187FB45
:1009500016F00C94E104A4E9B8E08C9187FB16F43E
:100960000C94E104A5E9B4E00E940955A5E9B4E0BE
:100970000D911C91A3E9B4E04D915C910E94365514
:10098000A5E9B4E00D931C93A5E9B4E00D911C9189
:10099000003050E0150711F00C94E10470919408B8
:1009A000706870939408469847980E94700F7091F1
:1009B000BE0771607093BE077091BE07746070933C
:1009C000BE07A4E9B8E08C9187FB16F00C941405DF
:1009D000A5E9B8E00E940955A5E9B8E00D911C9180
:1009E000A7E9B8E04D915C910E943655A5E9B8E0C1
:1009F0000D931C93A5E9B8E00D911C91003050E0D7
:100A0000150711F00C9414057091E406706470934E
:100A1000E406709194087F777093940880E090E0EA
:100A2000A5E9B4E08D939C93A0ECB7E08C9186FB94
:100A300016F00C947505A0ECB7E08C9185FB16F0D0
:100A40000C944805A0E9B8E00E940955A0E9B8E077
:100A50000D911C91ACE8B8E04D915C910E94365527
:100A6000A0E9B8E00D931C93A0E9B8E00D911C91AA
:100A7000003050E0150711F00C9448057091C00744
:100A800070617093C0077091C0077F7D7093C0073D
:100A9000A0ECB7E08C9184FB16F00C947505A2E9EC
:100AA000B8E00E940955A2E9B8E00D911C91AEE8AA
:100AB000B8E04D915C910E943655A2E9B8E00D93E3
:100AC0001C93A2E9B8E00D911C91003050E015078D
:100AD00011F00C9475057091C00770627093C00797
:100AE0007091C0077F7E7093C0079F919BBF9F91BD
:100AF0009FBFFF91EF91DF91CF91BF91AF919F91F8
:100B00008F917F916F915F914F913F912F911F91A5
:100B10000F91BF90AF907F905F904F903F902F903C
:100B20001F900F9018950895089508950F921F92A1
:100B30002F923F924F925F927F92AF92BF920F930C
:100B40001F932F933F934F935F936F937F938F9355
:100B50009F93AF93BF93CF93DF93EF93FF939FB791
:100B60009F939BB79F9399279BBF74E67093B200A6
:100B7000A6EDB7E08C918F5F8C93A6EDB7E00C915A
:100B80004AE00E94695C8C930091D607003011F016
:100B90000C94AC0700274427A0E2B0E08C9180FBC6
:100BA00000F9A2EFB7E08C9180FB40F9042700FB2D
:100BB000A0ECB7E08C9187F98C93A0ECB7E08C9116
:100BC00087FBAFE0B8E08C9180F98C930027442735
:100BD000A0E2B0E08C9181FB00F9A2EFB7E08C912C
:100BE00081FB40F9042700FBA0ECB7E08C9187F96A
:100BF0008C93A0ECB7E08C9187FBAFE0B8E08C91D0
:100C000081F98C9300274427A0E2B0E08C9182FB0D
:100C100000F9A2EFB7E08C9182FB40F9042700FBBA
:100C2000A0ECB7E08C9187F98C93A0ECB7E08C91A5
:100C300087FBAFE0B8E08C9182F98C9300274427C2
:100C4000A0E2B0E08C9183FB00F9A2EFB7E08C91B9
:100C500083FB40F9042700FBA0ECB7E08C9187F9F7
:100C60008C93A0ECB7E08C9187FBAFE0B8E08C915F
:100C700083F98C9381E08093C1070091C107043010
:100C800018F011F00C94AC070091C10741E0041B6F
:100C9000A2ECB7E00C93A1ECB7E0AD90BB24AFE0C1
:100CA000B8E0AA0DBB1D0C91003011F00C94740635
:100CB0008091C207AFE0B8E00E94AE5A0E94A45AE9
:100CC0000C900822689409F4E89416F40C947206C7
:100CD00082E0A1ECB7E0AD90BB24AFE0B8E0AA0D94
:100CE000BB1D8C930C94A407013011F00C94940656
:100CF0008091C207AFE0B8E00E94AE5A0E94A45AA9
:100D00000C900822689409F4E89416F00C9492066A
:100D100083E0A1ECB7E0AD90BB24AFE0B8E0AA0D52
:100D2000BB1D8C930C94A407023011F00C941D078A
:100D30008091C207AFE0B8E00E94AE5A0E94A45A68
:100D40000C900822689409F4E89416F00C94C206FA
:100D500080E0A1ECB7E0AD90BB24AFE0B8E0AA0D15
:100D6000BB1D8C9380E090E0A1ECB7E0AD90BB247C
:100D7000A1ECB7E0AA0CBB1CAA0DBB1D8D939C93E4
:100D80000C941B07A1ECB7E0AD90BB24A1ECB7E03D
:100D9000AA0CBB1CAA0DBB1D0E940955A1ECB7E013
:100DA000AD90BB24A1ECB7E0AA0CBB1CAA0DBB1DE7
:100DB0000D911C91A1ECB7E0AD90BB24A8EEB7E07B
:100DC000AA0CBB1CAA0DBB1D4D915C910E9436550F
:100DD000A1ECB7E0AD90BB24A1ECB7E0AA0CBB1C22
:100DE000AA0DBB1D0D931C93A1ECB7E0AD90BB24E5
:100DF000A1ECB7E0AA0CBB1CAA0DBB1D0D911C9168
:100E0000003050E0150711F00C941B0781E0A1ECB5
:100E1000B7E0AD90BB24AFE0B8E0AA0DBB1D8C934A
:100E20008091C207A3EDB7E00E94AE5A0E94A45A77
:100E30009C91982B9C930C94A407033011F00C9474
:100E4000A4078091C207AFE0B8E00E94AE5A0E94AA
:100E5000A45A0C900822689409F4E89416F40C94AF
:100E60004B0781E0A1ECB7E0AD90BB24AFE0B8E068
:100E7000AA0DBB1D8C9380E090E0A1ECB7E0AD9093
:100E8000BB24A9ECB7E0AA0CBB1CAA0DBB1D8D931B
:100E90009C930C94A407A1ECB7E0AD90BB24A9EC03
:100EA000B7E0AA0CBB1CAA0DBB1D0E940955A1EC02
:100EB000B7E0AD90BB24A9ECB7E0AA0CBB1CAA0D0F
:100EC000BB1D0D911C91A1ECB7E0AD90BB24A0EE31
:100ED000B7E0AA0CBB1CAA0DBB1D4D915C910E94F2
:100EE0003655A1ECB7E0AD90BB24A9ECB7E0AA0C55
:100EF000BB1CAA0DBB1D0D931C93A1ECB7E0AD90DC
:100F0000BB24A9ECB7E0AA0CBB1CAA0DBB1D0D911C
:100F10001C91003050E0150711F00C94A40780E0FC
:100F2000A1ECB7E0AD90BB24AFE0B8E0AA0DBB1DCB
:100F30008C938091C207A4EDB7E00E94AE5A0E9444
:100F4000A45A9C91982B9C93A1ECB7E08C918F5F55
:100F50008C9310F40C943D0600919B08003011F026
:100F60000C94BA0705990C94B80782E080939B080B
:100F70000C941208013011F00C94C607059B0C94D8
:100F8000C40783E080939B080C941208023011F090
:100F90000C94D707059B0C94D20780E080939B08A4
:100FA0000C94D50781E080939B080C9412080330C1
:100FB00011F00C94120805990C94E30781E08093DA
:100FC0009B080C94120880E080939B08A8EAB8E084
:100FD0000E94FC54A8EAB8E00D911D912D913C911E
:100FE000A4EAB8E04D915D916D917C910E94A3556A
:100FF000A0EAB8E00D931D932D933D9340E050E09F
:1010000060E070E0A0EAB8E00D911D912D913C9157
:101010000E94435B11F00C94120870919408706464
:10102000709394089F919BBF9F919FBFFF91EF91F9
:10103000DF91CF91BF91AF919F918F917F916F91F0
:101040005F914F913F912F911F910F91BF90AF9062
:101050007F905F904F903F902F901F900F9018952A
:101060002F98E0E5FEEB0E94C35A0E945F550E9454
:101070006655A0E0BFE1E0E7FEEB0E94C35A0E9484
:10108000545A0E9457550E946655A0E0BFE1E4E81B
:10109000FEEB0E94C35A0E94545A0E9457550E9468
:1010A0006655A0E0BFE1ECE8FEEB0E94C35A0E9447
:1010B000545A0E9457550E946655E1E4F3E0A7EDAB
:1010C000B7E00E94525CE6E9FEEB0E94C35A0E9420
:1010D0005F55E7EDF7E0A0E0BFE10E94665B0E948C
:1010E00057550E946655E1E0F0E0A8E8B3E094E0CF
:1010F0000E94555CEEE9FEEB0E94C35A0E945F55C8
:10110000E8E8F3E0A0E0BFE10E949A580E9457553A
:10111000EEEAFEEB0E94C35A0E945F55E8E8F3E056
:10112000A0E0BFE10E9492580E9457550E94665568
:10113000ECE3F3E0A7E5B7E094E00E94555CE0EB58
:10114000FEEB0E94C35A0E945F55E7E5F7E0A0E07E
:10115000BFE10E94595B0E9457550E946655E0E42A
:10116000F3E0AFEBB7E00E94525CECECFEEB0E94C8
:10117000C35A0E945F55EFEBF7E0A0E0BFE10E9489
:10118000665B0E9457550E94665581E0809320025D
:1011900000912002043018F011F00C940D09E0E2E7
:1011A000F2E0A190BB24E5E0F0E0EA0DFB1DA0E237
:1011B000B2E0AD90BB24ADE8B3E0AA0DBB1D0E9428
:1011C000525CE2EEFEEB0E94C35A0E945F55E0E2E1
:1011D000F2E0A0E0BFE10E94665B0E945755E4EF99
:1011E000FEEB0E94C35A0E945F55D201E0E2F2E09A
:1011F000A190BB24EDE8F3E0EA0DFB1D0E94F35B38
:10120000D2010E9459550E946655A0E2B2E08C912D
:101210008F5F8C9310F40C94C808E6EFFEEB0E94ED
:10122000C35A0E945F550E94665581E08093240254
:1012300000912402043018F011F00C94C809E0E089
:10124000FFEB0E94C35A0E945F55E4E2F2E0A0E087
:10125000BFE10E94665B0E9457550E94665581E07F
:101260008093250200912502003118F011F00C94B2
:10127000C009A895A4E2B2E00D91112701501040D9
:10128000A0E3B2E00D931C93A0E3B2E00D911C919A
:1012900040E150E00E94275AA0E3B2E00D931C9376
:1012A000A0E3B2E00D911C91A5E2B2E04D9155276B
:1012B000040F151FA0E3B2E00D931C93E0E3F2E0EE
:1012C000A190B190E6E0F0E0AA0CBB1CAA0CBB1CFC
:1012D000EA0DFB1DA8E2B2E094E00E94555CA8E292
:1012E000B2E00D911D912D913C91A0E3B2E0AD9043
:1012F000BD90AFE8B3E0AA0CBB1CAA0CBB1CAA0DA6
:10130000BB1D0D931D932D933C93A7EDB7E00C915E
:1013100000FB16F00C94B809E6E0FFEB0E94C35AFC
:101320000E945F55E5E2F2E0A0E0BFE10E94665B4B
:101330000E945755E4EFFEEB0E94C35A0E945F558E
:10134000E8E2F2E0A0E0BFE10E9492580E94575507
:10135000ECE0FFEB0E94C35A0E945F55E0E3F2E02D
:10136000A0E0BFE10E94565B0E9457550E9466555F
:10137000A5E2B2E08C918F5F8C9310F40C9432094B
:10138000A4E2B2E08C918F5F8C9310F40C94180956
:10139000E0E1FFEB0E94C35A0E945F550E94665530
:1013A00081E08093240200912402043018F011F0AF
:1013B0000C94B40AE0E0FFEB0E94C35A0E945F5510
:1013C000E4E2F2E0A0E0BFE10E94665B0E945755B4
:1013D0000E94665581E0809325020091250200312C
:1013E00018F011F00C94AC0AECE1FFEB0E94C35A28
:1013F0000E945F55E5E2F2E0A0E0BFE10E94665B7B
:101400000E9457550E946655A4E2B2E00D91112743
:1014100001501040A0E3B2E00D931C93A0E3B2E0B2
:101420000D911C9140E250E00E94275AA0E3B2E0E7
:101430000D931C93A5E2B2E00D91112701501040CD
:10144000A2E3B2E00D931C93A2E3B2E00D911C91D4
:1014500048E050E00E94275AA2E3B2E00D931C93AB
:10146000A0E3B2E00D911C91A2E3B2E04D915C913A
:10147000040F151FA0E3B2E00D931C9381E080934D
:10148000270200912702083018F011F00C94A40AEA
:10149000A8950091300240912702040FACE8B3E018
:1014A0000C93ECE8F3E0A190BB24EBE0F1E0EA0D53
:1014B000FB1DACE8B3E0AD90BB24A6E9B4E0AA0DF7
:1014C000BB1D0E94525CA7EDB7E00C9100FB16F02B
:1014D0000C949C0AE6E2FFEB0E94C35A0E945F55FF
:1014E000E7E2F2E0A0E0BFE10E94665B0E94575590
:1014F000E4EFFEEB0E94C35A0E945F55D201ECE874
:10150000F3E0A190BB24E6E9F4E0EA0DFB1D0E94A4
:10151000F35BD2010E945955ECE2FFEB0E94C35AE3
:101520000E945F55ECE8F3E0A0E0BFE10E94665B3B
:101530000E9457550E946655A7E2B2E08C918F5FDA
:101540008C9310F40C94410AA5E2B2E08C918F5F69
:101550008C9310F40C94ED09A4E2B2E08C918F5FAF
:101560008C9310F40C94D309EAE0F1E0A3E9B4E021
:101570000E94545CE0E3FFEB0E94C35A0E945F5557
:10158000E3E9F4E0A0E0BFE10E94565B0E945755FA
:101590000E946655E9E7F3E0A7E9B8E00E94545CD1
:1015A000EEE3FFEB0E94C35A0E945F55E7E9F8E0C3
:1015B000A0E0BFE10E94565B0E9457550E9466550D
:1015C0000E943B17EEE4FFEB0E94C35A0E945F5556
:1015D000AAE5B3E00E945955E6E5FFEB0E94C35A25
:1015E0000E945F550E94665583E680939806E5E069
:1015F000F0E0ADE8B3E00E94525CE8E5FFEB0E944A
:10160000C35A0E945F55EDE8F3E0A0E0BFE10E94FD
:10161000665B0E9457550E94665500918D0300300D
:1016200018F011F00C94160B0C942D0B00918D03F7
:10163000053010F00C94200B0E94D50D0C942B0B50
:1016400080E080938D03E6E6FFEB0E94C35A0E9480
:101650005F550E9466550C94350BE6E7FFEB0E9440
:10166000C35A0E945F550E94665581E08093200214
:1016700000912002053018F011F00C94CB0BE0E241
:10168000F2E0A190BB24E8E0F3E0AA0CBB1CAA0C9A
:10169000BB1CEA0DFB1DA0E2B2E0AD90BB24A4EEA2
:1016A000B6E0AA0CBB1CAA0CBB1CAA0DBB1D94E087
:1016B0000E94555CE0E2F2E0A190BB24ECE1F3E093
:1016C000AA0CBB1CAA0CBB1CEA0DFB1DA0E2B2E0DD
:1016D000AD90BB24A8EFB6E0AA0CBB1CAA0CBB1CA7
:1016E000AA0DBB1D94E00E94555CEAE8FFEB0E9446
:1016F000C35A0E945F55E0E2F2E0A0E0BFE10E9421
:10170000665B0E945755E4EFFEEB0E94C35A0E94AD
:101710005F55E0E2F2E0A190BB24E4EEF6E0AA0C13
:10172000BB1CAA0CBB1CEA0DFB1DA0E0BFE10E9484
:10173000595B0E945755EEE8FFEB0E94C35A0E9486
:101740005F55E0E2F2E0A0E0BFE10E94665B0E942C
:101750005755E4EFFEEB0E94C35A0E945F55E0E24A
:10176000F2E0A190BB24E8EFF6E0AA0CBB1CAA0CA7
:10177000BB1CEA0DFB1DA0E0BFE10E94595B0E946B
:1017800057550E946655A0E2B2E08C918F5F8C9312
:1017900010F40C94380BE2E4F3E0A8EDB7E00E94FB
:1017A000545CA8EDB7E00E940955E4E9FFEB0E9404
:1017B000C35A0E945F55E8EDF7E0A0E0BFE10E9448
:1017C000565B0E9457550E946655E2E4F3E0A8ED8F
:1017D000B7E07BE70E94385CE6E4F3E0A0EEB7E018
:1017E0000E94525CEEE9FFEB0E94C35A0E945F55D3
:1017F000D201E0EEF7E00E94F35BD2010E9459555E
:101800000E94665581E080932002009120020430FE
:1018100018F011F00C94E20CA895E0E2F2E00191CE
:10182000112747E050E00E94275AE1E5F3E0E00F7E
:10183000F11FA0E2B2E00D91112747E050E00E94B5
:10184000275AACEEB7E0A00FB11F96E00E945C5C97
:10185000E0ECFFEB0E94C35A0E945F55E0E2F2E029
:10186000A0E0BFE10E94665B0E945755E4EFFEEBEB
:101870000E94C35A0E945F55A0E2B2E00D91112769
:1018800047E050E00E94275AACEEB7E0A00FB11F2E
:101890000E9459550E946655E0E2F2E0A190BB24F7
:1018A000E5E4F3E0AA0CBB1CEA0DFB1DA0E2B2E0EC
:1018B000AD90BB24A0EEB7E0AA0CBB1CAA0DBB1DCB
:1018C0000E94545CE8ECFFEB0E94C35A0E945F55F3
:1018D000E0E2F2E0A0E0BFE10E94665B0E945755A3
:1018E000E4EFFEEB0E94C35A0E945F55E0E2F2E093
:1018F000A190BB24E0EEF7E0AA0CBB1CEA0DFB1D97
:10190000A0E0BFE10E94565B0E945755E4EDFFEB5B
:101910000E94C35A0E945F550E946655E0E2F2E0C1
:10192000A190BB24EDE4F3E0AA0CBB1CEA0DFB1D67
:10193000A0E2B2E0AD90BB24A8EEB7E0AA0CBB1CBD
:10194000AA0DBB1D0E94545CECEDFFEB0E94C35A34
:101950000E945F55E0E2F2E0A0E0BFE10E94665B1A
:101960000E945755E4EFFEEB0E94C35A0E945F5558
:10197000E0E2F2E0A190BB24E8EEF7E0AA0CBB1C89
:10198000EA0DFB1DA0E0BFE10E94565B0E94575587
:10199000E4EDFFEB0E94C35A0E945F550E9466551A
:1019A00085E0A0E2B2E0AD90BB24A3E1B8E0AA0DCF
:1019B000BB1D8C93A0E2B2E08C918F5F8C9310F4EE
:1019C0000C94050CE7E5F3E0A2EFB7E00E94525C4F
:1019D000E8EEFFEB0E94C35A0E945F55D201E2EF8E
:1019E000F7E00E94F35BD2010E9459550E946655B0
:1019F000E4E7F3E0A8E1B8E00E94525CE0EFFFEB1F
:101A00000E94C35A0E945F55D201E8E1F8E00E94AB
:101A1000F35BD2010E9459550E946655E5E7F3E059
:101A2000ACE8B8E00E94545CE8EFFFEB0E94C35AB8
:101A30000E945F55ECE8F8E0A0E0BFE10E94565B31
:101A40000E9457550E946655E7E7F3E0AEE8B8E01C
:101A50000E94545CE4E0F0EC0E94C35A0E945F557F
:101A6000EEE8F8E0A0E0BFE10E94565B0E94575507
:101A70000E946655EBE7F3E0A9E9B8E00E94525CEA
:101A8000E0E1F0EC0E94C35A0E945F55E9E9F8E0FA
:101A9000A0E0BFE10E94665B0E9457550E94665518
:101AA000ECE7F3E0AAE9B8E00E94525CECE1F0EC6C
:101AB0000E94C35A0E945F55EAE9F8E0A0E0BFE146
:101AC0000E94665B0E9457550E94665583E680938C
:101AD0008B08EDE7F3E0A8EAB8E094E00E94555CDB
:101AE000ECE2F0EC0E94C35A0E945F55E8EAF8E08D
:101AF000A0E0BFE10E94595B0E9457550E946655C5
:101B0000ACEAB8E0E1E8F3E094E00E94555CE4E37D
:101B1000F0EC0E94C35A0E945F55ECEAF8E0A0E0A6
:101B2000BFE10E94E85C0E9428560E9457550E941F
:101B30006655ECEAF8E00E94ED5CE8EAF8E00E9405
:101B4000E85C0E941C5D0E94AD5DEDE0F0E0ACE958
:101B5000B8E00E941A5CEEE3F0EC0E94C35A0E94C7
:101B60005F55ECE9F8E0A0E0BFE10E94E85C0E946C
:101B700028560E9457550E946655E5E8F3E0A4EA0E
:101B8000B8E094E00E94555CE6E4F0EC0E94C35A91
:101B90000E945F55E4EAF8E0A0E0BFE10E94595BD3
:101BA0000E9457550E946655089580918D03809339
:101BB0002402E0E0FFEB0E94C35A0E945F55E4E27A
:101BC000F2E0A0E0BFE10E94665B0E9457550E94D0
:101BD0006655A4E2B2E0AD90BB24ADE8B3E0AA0D37
:101BE000BB1D8C9180939203EEE4F0EC0E94C35AEB
:101BF0000E945F55D201E2E9F3E00E94F35BD2015B
:101C00000E9459550E94665581E0809325020091FB
:101C10002502003118F011F00C94930EA895A4E25F
:101C2000B2E00D91112701501040A0E3B2E00D93F6
:101C30001C93A0E3B2E00D911C9140E150E00E94A2
:101C4000275AA0E3B2E00D931C93A0E3B2E00D91FC
:101C50001C91A5E2B2E04D915527040F151FA0E39A
:101C6000B2E00D931C93A0E3B2E0AD90BD90AFE85D
:101C7000B3E0AA0CBB1CAA0CBB1CAA0DBB1D0D918A
:101C80001D912D913C91A8E2B2E00D931D932D93EF
:101C90003C93A8E2B2E00D911D912D913C91A5E2FB
:101CA000B2E0AD90BB24A5E9B6E0AA0CBB1CAA0C1F
:101CB000BB1CAA0DBB1D0D931D932D933C93ECE50E
:101CC000F0EC0E94C35A0E945F55E5E2F2E0A0E00A
:101CD000BFE10E94665B0E945755E4EFFEEB0E9455
:101CE000C35A0E945F55E8E2F2E0A0E0BFE10E9423
:101CF00092580E945755ECE0FFEB0E94C35A0E9495
:101D00005F55E0E3F2E0A0E0BFE10E94565B0E9475
:101D100057550E946655A5E2B2E08C918F5F8C9377
:101D200010F40C94070E089582E00E941F5A82E07E
:101D30000E941F5A81E00E941F5AAA85BB850D91FF
:101D4000112701501040AC81BD810D931C93AC81D3
:101D5000BD810D911C9140E250E00E94275AAC8158
:101D6000BD810D931C93A885B9850D911127015054
:101D70001040AA81BB810D931C93AA81BB810D9158
:101D80001C9148E050E00E94275AAA81BB810D9324
:101D90001C93AC81BD810D911C91AA81BB814D9199
:101DA0005C91040F151FAC81BD810D931C93AC8118
:101DB000BD810D911C91AE81BF814D915527040FBE
:101DC000151FAC81BD810D931C93AC81BD810D911C
:101DD0001C910F5F1F4FAC81BD810D931C93AC8193
:101DE000BD81AD90BD90A6E9B4E0AA0DBB1D8C915C
:101DF000A881B9818C93A881B9810C91003011F030
:101E00000C94060F469847980C94080F469A479AE8
:101E1000EAE6F0EC0E94C35A0E945F55EE81FF8112
:101E2000A0E0BFE10E94665B0E945755E4EFFEEB25
:101E30000E94C35A0E945F55D201E881F9810E9435
:101E4000F35BD2010E945955EEEAFEEB0E94C35AA1
:101E50000E945F55EC81FD81A0E0BFE10E94565BCE
:101E60000E9457550E946655A881B9818C9180FBCC
:101E7000A8E2B0E08C9180F98C93A881B9818C9113
:101E800081FBA8E2B0E08C9181F98C93A881B981A3
:101E90008C9182FBA8E2B0E08C9182F98C93A881AE
:101EA000B9818C9183FBA8E2B0E08C9183F98C938B
:101EB000A881B9818C9184FBA8E2B0E08C9184F96F
:101EC0008C93A881B9818C9185FBA8E2B0E08C91BC
:101ED00085F98C9385E0481A80E0580A2696089583
:101EE0004098419842984398449845980895409A5C
:101EF000419A429A439A449A459A08950E941557E6
:101F0000E8E0F2E0A4E2B3E00E94155CA4E2B3E0F2
:101F10000E945055EEE6F0EC0E94C35A0E94545ABB
:101F20000E941557E1E1F2E0A4E2B3E00E945055AF
:101F30000E94155CA4E2B3E00E945055EEE6F0EC7E
:101F40000E94C35A0E94545A81E080931F0281E08C
:101F500080931E02882780931D02A4E2B3E00E94B2
:101F60008B55A4E2B3E0E0E7F0EC0E94C35A0E9474
:101F7000545AE2E1F8E0A4E2B3E00E9450550E9416
:101F8000665B00274427A0E2B0E08C9181FB00F95A
:101F9000A2EFB7E08C9181FB40F9042700FBACE392
:101FA000B2E08C9187F98C93A4E2B3E00E94505583
:101FB000E4E7F0EC0E94C35A0E94545AACE3B2E04A
:101FC0008C9187FBA4E2B3E00E9450550E94B45A62
:101FD0008D9388278C9300274427A0E2B0E08C9152
:101FE00080FB00F9A2EFB7E08C9180FB40F9042759
:101FF00000FBACE3B2E08C9187F98C93A4E2B3E0F0
:102000000E945055EAE7F0EC0E94C35A0E94545ACD
:10201000ACE3B2E08C9187FBA4E2B3E00E945055A0
:102020000E94B45A8D9388278C93A4E2B3E00E9457
:102030005055E0E8F0EC0E94C35A0E94545A83E0E5
:1020400080931F0281E080931E02882780931D02E7
:10205000A4E2B3E00E948B55A4E2B3E0E4E8F0EC24
:102060000E94C35A0E94545AECE6F7E0A4E2B3E09F
:102070000E9450550E94155CA4E2B3E00E945055A6
:10208000E8E8F0EC0E94C35A0E94545AE1E6F7E0F7
:10209000A4E2B3E00E9450550E94155CA4E2B3E0B4
:1020A0000E945055E0E8F0EC0E94C35A0E94545A36
:1020B00085E080931F0281E080931E028827809331
:1020C0001D02A4E2B3E00E948B55AEE3B2E08C9116
:1020D0008F5F8C93AEE3B2E00C9100FB16F00C9492
:1020E0009311ADE3B2E08C918F5F8C93A4E2B3E0E7
:1020F00088278C93ADE3B2E00C9141E10E94695CCA
:102100008C9300913D02003011F00C944411A4E234
:10211000B3E0ECE8F0EC0E94C35A0E94545AEDE898
:10212000F3E0A4E2B3E00E9450550E94665BA4E293
:10213000B3E00E945055EEE8F0EC0E94C35A0E94B2
:10214000545AA2E9B3E08C9180FBA4E2B3E00E9470
:1021500050550E94B45A8D9388278C93A4E2B3E023
:102160000E945055E2E9F0EC0E94C35A0E94545A72
:10217000A2E9B3E08C9181FBA4E2B3E00E94505548
:102180000E94B45A8D9388278C93A4E2B3E00E94F6
:102190005055E2E9F0EC0E94C35A0E94545AA2E959
:1021A000B3E08C9182FBA4E2B3E00E9450550E9400
:1021B000B45A8D9388278C93A4E2B3E00E945055C3
:1021C000E4E9F0EC0E94C35A0E94545AA2E9B3E039
:1021D0008C9183FBA4E2B3E00E9450550E94B45A54
:1021E0008D9388278C93A4E2B3E00E945055E6E9D2
:1021F000F0EC0E94C35A0E94545AA2E9B3E08C91B9
:1022000084FBA4E2B3E00E9450550E94B45A8D931F
:1022100088278C93A4E2B3E00E945055E8E9F0ECE3
:102220000E94C35A0E94545AA2E9B3E08C9185FBE4
:10223000A4E2B3E00E9450550E94B45A8D938827BF
:102240008C93A4E2B3E00E945055EAE9F0EC0E94BE
:10225000C35A0E94545AA2E9B3E08C9186FBA4E2CF
:10226000B3E00E9450550E94B45A8D9388278C93F6
:10227000A4E2B3E00E945055EEE6F0EC0E94C35A8F
:102280000E94545A0C948611ADE3B2E0AD90BB2489
:10229000A5E9B6E0AA0CBB1CAA0CBB1CAA0DBB1D71
:1022A0000D911D912D913C91A8E2B2E00D931D93EB
:1022B0002D933C93A4E2B3E0ECE9F0EC0E94C35A06
:1022C0000E94545AEDE3F2E0A4E2B3E00E945055BC
:1022D0000E94665BA4E2B3E00E945055E4EFFEEB7F
:1022E0000E94C35A0E94545AE8E2F2E0A4E2B3E02A
:1022F0000E9450550E949258A4E2B3E00E945055AB
:10230000E0EAF0EC0E94C35A0E94545A87E080939E
:102310001F0281E080931E02882780931D02A4E2A1
:10232000B3E00E948B550895E5E0F0E0A0E1BB2703
:1023300081E08C937BE70E94365CEAE0F1E00CE3FD
:1023400010E0A0E1BB277BE70E94385CE9E7F3E0FF
:1023500004E813E0A0E1BB277BE70E94385C80E043
:1023600080932102EDE7F3E000E010E020E030E0B0
:10237000A0E1BB2794E07BE70E94395CACEAB8E0BF
:10238000E0E4FEEB0E94C35A0E94685AE1E8F3E0E1
:10239000ACEAB8E094E07BE70E94395CE5E8F3E062
:1023A00001E010E020E030E0A0E1BB2794E07BE713
:1023B0000E94395C81E08093200200912002043069
:1023C00018F011F00C948912A895E0E2F2E0A190C7
:1023D000BB24E5E0F0E0EA0DFB1DA0E1BB278FE7A1
:1023E0008C937BE70E94365CA4E2B3E0E6EAF0EC73
:1023F0000E94C35A0E94545AE4E2F3E00E942D580E
:10240000A8E2B2E00D931D932D933D93E0EBF0EC29
:102410000E94C35A0E945F55E0E2F2E0A0E0BFE1F3
:102420000E94665B0E945755E6EBF0EC0E94C35A8F
:102430000E945F55E8E2F2E0A0E0BFE10E94595B34
:102440000E9457550E94665581E0809322020091B8
:102450002202003118F011F00C948112A1E2B2E0D6
:102460008C918F5F8C93A8E2B2E00D911D912D911C
:102470003C91A1E2B2E0AD90BB24AFE8B3E0AA0C7E
:10248000BB1CAA0CBB1CAA0DBB1D0D931D932D9349
:102490003C93ECE9F0EC0E94C35A0E945F55E1E2E4
:1024A000F2E0A0E0BFE10E94665B0E945755E4EFB6
:1024B000FEEB0E94C35A0E945F55E8E2F2E0A0E002
:1024C000BFE10E9492580E9457550E946655A8E2AB
:1024D000B2E00D911D912D913C9140E15EE060E0F4
:1024E00070E00E94395BA8E2B2E00D931D932D933A
:1024F0003D93A2E2B2E08C918F5F8C9310F40C9428
:102500002712A0E2B2E08C918F5F8C9310F40C94B0
:10251000DD1181E08093250200912502003418F03E
:1025200011F00C94B712E5E2F2E0A190BB24E6E0D2
:10253000F0E0AA0CBB1CAA0CBB1CEA0DFB1DA5E21B
:10254000B2E0AD90BB24AFE8B3E0AA0CBB1CAA0C70
:10255000BB1CAA0DBB1D94E07BE70E94395CA5E281
:10256000B2E08C918F5F8C9310F40C948C1281E00C
:102570008093240200912402043018F011F00C948E
:10258000A613E0E0FFEB0E94C35A0E945F55E4E20D
:10259000F2E0A0E0BFE10E94665B0E9457550E94F6
:1025A000665581E08093250200912502003118F0E4
:1025B00011F00C949E13ECE1FFEB0E94C35A0E94B1
:1025C0005F55E5E2F2E0A0E0BFE10E94665B0E9499
:1025D00057550E946655A4E2B2E00D9111270150B3
:1025E0001040A0E3B2E00D931C93A0E3B2E00D9184
:1025F0001C9140E250E00E94275AA0E3B2E00D9304
:102600001C93A5E2B2E00D91112701501040A2E306
:10261000B2E00D931C93A2E3B2E00D911C9148E04F
:1026200050E00E94275AA2E3B2E00D931C93A0E36E
:10263000B2E00D911C91A2E3B2E04D915C91040FC8
:10264000151FA0E3B2E00D931C9381E08093270255
:1026500000912702083018F011F00C949613A895F9
:102660000091300240912702040FACE8B3E00C93D4
:10267000E4EDF9E80E94C35AA7E2B2E08C919927F1
:10268000A0E2B2E00E94765A80912002ACE8B3E06A
:10269000AD90BB24A6E9B4E0AA0DBB1D8C93ECE879
:1026A000F3E0A190BB24EBE0F1E0EA0DFB1DA0E21A
:1026B000B2E07BE70E94365CE6E2FFEB0E94C35A81
:1026C0000E945F55E7E2F2E0A0E0BFE10E94665B96
:1026D0000E945755E4EFFEEB0E94C35A0E945F55DB
:1026E000D201ECE8F3E0A190BB24E6E9F4E0EA0DC6
:1026F000FB1D0E94F35BD2010E945955ECE2FFEBF7
:102700000E94C35A0E945F55ECE8F3E0A0E0BFE1ED
:102710000E94665B0E9457550E946655A7E2B2E090
:102720008C918F5F8C9310F40C942813A5E2B2E087
:102730008C918F5F8C9310F40C94D412A4E2B2E0CD
:102740008C918F5F8C9310F40C94BA12E1E4F3E057
:10275000A0E1BB2780E08C937BE70E94365C80E0A1
:102760008093200281E080932402009124020530AE
:1027700018F011F00C9429140CE211E020E030E084
:10278000A4E2B2E0AD90BB24A4EEB6E0AA0CBB1C60
:10279000AA0CBB1CAA0DBB1D0D931D932D933C933E
:1027A000E4E2F2E0A190BB24E8E0F3E0AA0CBB1C59
:1027B000AA0CBB1CEA0DFB1DA4E2B2E0AD90BB2449
:1027C000A4EEB6E0AA0CBB1CAA0CBB1CAA0DBB1D38
:1027D00094E07BE70E94395CA0E2B2E08C91A4E235
:1027E000B2E0AD90BB24A8EFB6E0AA0CBB1CAA0CCB
:1027F000BB1CAA0DBB1D8D9388278D938D938C9345
:10280000E4E2F2E0A190BB24ECE1F3E0AA0CBB1CF3
:10281000AA0CBB1CEA0DFB1DA4E2B2E0AD90BB24E8
:10282000A8EFB6E0AA0CBB1CAA0CBB1CAA0DBB1DD2
:1028300094E07BE70E94395CA0E2B2E08C91845C7A
:102840008C93A4E2B2E08C918F5F8C9310F40C9483
:10285000B51381E08093240200912402043018F023
:1028600011F00C947E14A4E2B3E0EEEBF0EC0E94C5
:10287000C35A0E94545AE4E2F2E0A4E2B3E00E9498
:1028800050550E94665BE4E2F2E00191112747E0B7
:1028900050E00E94275AE1E5F3E0E00FF11FA4E2C7
:1028A000B3E07BE70E94475CE4E2F2E0A190BB2446
:1028B000E5E4F3E0AA0CBB1CEA0DFB1D0AE010E006
:1028C000A0E1BB277BE70E94385CE4E2F2E0A19044
:1028D000BB24EDE4F3E0AA0CBB1CEA0DFB1D0AE0EF
:1028E00010E0A0E1BB277BE70E94385CA4E2B2E0E5
:1028F0008C918F5F8C9310F40C942C14E7E5F3E02B
:10290000A0E1BB278FE08C937BE70E94365CE4E775
:10291000F3E0A0E1BB278FE08C937BE70E94365C5D
:10292000E5E7F3E00CE310E0A0E1BB277BE70E94C2
:10293000385CE7E7F3E008E017E0A0E1BB277BE7BE
:102940000E94385CECE3F3E000E11EE020E030E0C0
:10295000A0E1BB2794E07BE70E94395CE0E4F3E070
:10296000A0E1BB278CE38C937BE70E94365CECE70D
:10297000F3E0A0E1BB2780E08C937BE70E94365C0C
:10298000E4E4F3E000E010E0A0E1BB277BE70E9475
:10299000385CEBE7F3E0A0E1BB2784E18C937BE7B5
:1029A0000E94365C0895E5E0F0E0A0E1BB2781E0FD
:1029B0008C937BE70E94365CE7E5F3E0A0E1BB2760
:1029C0008DE08C937BE70E94365CEAE0F1E00CE35B
:1029D00010E0A0E1BB277BE70E94385CE9E7F3E069
:1029E00004E813E0A0E1BB277BE70E94385CA4E287
:1029F000B3E0E2ECF0EC0E94C35A0E94545AE4E2C5
:102A0000F3E00E942D58A8E2B2E00D931D932D93A0
:102A10003D93EAE0F0E0A8E2B2E094E07BE70E94B8
:102A2000395CA4E2B3E0ECECF0EC0E94C35A0E94E3
:102A3000545AE4E2F3E00E942D58A8E2B2E00D936C
:102A40001D932D933D93EEE0F0E0A8E2B2E094E018
:102A50007BE70E94395CA4E2B3E0E6EDF0EC0E9473
:102A6000C35A0E94545AE4E2F3E00E942D58A8E2AF
:102A7000B2E00D931D932D933D93E2E1F0E0A8E2C7
:102A8000B2E094E07BE70E94395CA4E2B3E0E0EEC0
:102A9000F0EC0E94C35A0E94545AE4E2F3E00E9410
:102AA0002D58A8E2B2E00D931D932D933D93E6E1DE
:102AB000F0E0A8E2B2E094E07BE70E94395CA4E297
:102AC000B3E0EAEEF0EC0E94C35A0E94545AE4E2EA
:102AD000F3E00E942D58A8E2B2E00D931D932D93D0
:102AE0003D93EAE1F0E0A8E2B2E094E07BE70E94E7
:102AF000395CA4E2B3E0E4EFF0EC0E94C35A0E9418
:102B0000545AE4E2F3E00E942D58A8E2B2E00D939B
:102B10001D932D933D93EEE1F0E0A8E2B2E094E046
:102B20007BE70E94395CA4E2B3E0EEEFF0EC0E9498
:102B3000C35A0E94545AE4E2F3E00E942D58A8E2DE
:102B4000B2E00D931D932D933D93E2E2F0E0A8E2F5
:102B5000B2E094E07BE70E94395CA4E2B3E0E2ECEF
:102B6000F0EC0E94C35A0E94545AE4E2F3E00E943F
:102B70002D58A8E2B2E00D931D932D933D93E6E20C
:102B8000F0E0A8E2B2E094E07BE70E94395CEAE280
:102B9000F0E0A8E2B2E094E07BE70E94395CEEE26C
:102BA000F0E0A8E2B2E094E07BE70E94395CE2E367
:102BB000F0E0A8E2B2E094E07BE70E94395CE6E353
:102BC000F0E0A8E2B2E094E07BE70E94395CEAE33F
:102BD000F0E0A8E2B2E094E07BE70E94395CEEE32B
:102BE000F0E0A8E2B2E094E07BE70E94395CE2E426
:102BF000F0E0A8E2B2E094E07BE70E94395CE6E412
:102C0000F0E0A8E2B2E094E07BE70E94395C81E06A
:102C10008093240281E080932502009125020031F7
:102C200018F011F00C94D616ECE1FFEB0E94C35A99
:102C30000E945F55E5E2F2E0A0E0BFE10E94665B22
:102C40000E9457550E946655A4E2B2E00D911127EB
:102C500001501040A0E3B2E00D931C93A0E3B2E05A
:102C60000D911C9140E250E00E94275AA0E3B2E08F
:102C70000D931C93A5E2B2E00D9111270150104075
:102C8000A2E3B2E00D931C93A2E3B2E00D911C917C
:102C900048E050E00E94275AA2E3B2E00D931C9353
:102CA000A0E3B2E00D911C91A2E3B2E04D915C91E2
:102CB000040F151FA0E3B2E00D931C9381E08093F5
:102CC000270200912702083018F011F00C94CE165C
:102CD0000091300240912702040FACE8B3E00C935E
:102CE000EEEDF9E80E94C35AA7E2B2E08C91992771
:102CF000A0E2B2E00E94765A80912002ACE8B3E0F4
:102D0000AD90BB24A6E9B4E0AA0DBB1D8C93ECE802
:102D1000F3E0A190BB24EBE0F1E0EA0DFB1DA0E2A3
:102D2000B2E07BE70E94365CE6E2FFEB0E94C35A0A
:102D30000E945F55E7E2F2E0A0E0BFE10E94665B1F
:102D40000E945755E4EFFEEB0E94C35A0E945F5564
:102D5000D201ECE8F3E0A190BB24E6E9F4E0EA0D4F
:102D6000FB1D0E94F35BD2010E945955ECE2FFEB80
:102D70000E94C35A0E945F55ECE8F3E0A0E0BFE177
:102D80000E94665B0E9457550E946655A7E2B2E01A
:102D90008C918F5F8C9310F40C946116A5E2B2E0D5
:102DA0008C918F5F8C9310F40C940D160895E8E0CD
:102DB000F1EC0E94C35A0E945F550E946655E0E004
:102DC000F0E0A9E5B3E00E94525C80E0809321022C
:102DD000A4E9B8E08C9182FB16F00C940217709174
:102DE00094087B7F70939408E2E2F1EC0E94C35A4E
:102DF0000E945F55AAE2BBE00E9459550E946655A9
:102E00000E94D0170091AA07013011F00C942C17E2
:102E10007091AA077E7F7093AA07A0E2B2E08C911E
:102E20008F5F8C93A1E2B2E08C918F5F8C93A0E2D4
:102E3000B2E00C914AE00E94695C8C930091200200
:102E4000003011F00C942C17E8E2F1EC0E94C35A08
:102E50000E945F550E94665500915903013011F0A0
:102E60000C94E816EAE4F1EC0E94C35A0E945F5504
:102E70000E946655089580E08093200280E0809350
:102E80002102AAE5B3E088278C938EE0809320028C
:102E900000912002073118F011F00C946617A0E29F
:102EA000B2E0EC91FF270E940E5A082FE0E1F0E01B
:102EB000AAE5B3E00E9450550E94DA5BA0E2B2E0BE
:102EC0008C918F5F8C9310F40C944817EAE5F3E033
:102ED000A9E4B2E00E94155CAAE5B3E088278C93D0
:102EE0008EE08093200200912002073118F011F04B
:102EF0000C949117A0E2B2E0EC91FF270E940E5AC9
:102F0000082FE0E1F0E0AAE5B3E00E9450550E94EE
:102F1000DA5BA0E2B2E08C918F5F8C9310F40C949A
:102F20007317E9E4F2E0AAE5B3E00E94815C11F0D6
:102F30000C949D1781E080932002A1E2B2E08C9175
:102F40008F5F8C9300912002003011F00C94BC171D
:102F500084EF91E00E941956EEE5F1EC0E94C35A0D
:102F60000E945F55E1E2F2E0A0E0BFE10E94665BF3
:102F70000E9457550E94665500912002013081E061
:102F800009F080E08F93009121020A3081E009F07E
:102F900080E09F91892B882311F40C9441170895A8
:102FA000E4E6F1EC0E94C35A0E945F55AAE2BBE03E
:102FB0000E9459550E946655A89581E0EAE2FBE01F
:102FC00006E00A93A4E2B3E00E94205CEAE2FBE0A0
:102FD0009CE204E138E0ACECB9E00E94B35CABECFD
:102FE000B9E02C93ACECB9E00E94795C082F063074
:102FF00011F00C94D431ECECF9E0A2E4B2E00E94C0
:10300000155CE2E4F2E0A2E4B2E00E94985A8FEF8D
:1030100080931203A2E4B2E0E6E6F1EC0E94C35A08
:103020000E947F5C11F00C94561880E0809312038C
:10303000A9E4B2E0EEE6F1EC0E94C35A0E94545AB1
:10304000A4E2B3E0E2E8F1EC0E94C35A0E94545AB1
:10305000E4E2F3E0A9E4B2E00E9450550E94155C5E
:10306000A9E4B2E00E945055E6E9F1EC0E94C35A8F
:103070000E94545AA4E2B3E0ECE8FEEB0E94C35A6B
:103080000E94545AE4E2F3E0A9E4B2E00E945055F1
:103090000E94155CA9E4B2E00E945055E6E5FFEB02
:1030A0000E94C35A0E94545A0C94D231E4EAF1ECC3
:1030B0000E94C35A0E947F5C11F00C947D1880E03E
:1030C00080931203A9E4B2E0ECEAF1EC0E94C35A47
:1030D0000E94545A70913C02746070933C0281E0EB
:1030E00080935903E0E0F0E0A9E5B3E07BE70E94BC
:1030F000365C0E9494110C94D231EAEDF1EC0E94FE
:10310000C35A0E947F5C11F00C94981880E0809361
:103110001203A9E4B2E0E2EEF1EC0E94C35A0E946D
:10312000545A70913C02706170933C020C94D231FD
:10313000E6EFF1EC0E94C35A0E947F5C11F00C9400
:10314000B51880E080931203A9E4B2E0EEEFF1EC51
:103150000E94C35A0E94545A70913C02746070934A
:103160003C020E94D3140C94D231E8E1F2EC0E94AC
:10317000C35A0E947F5C11F00C9411190091CB0985
:10318000023011F00C940C19A1EEB9E00E94AB5B77
:10319000A0E2B2E00C9300912002003080E010F039
:1031A00009F081E08F9300912002013181E008F065
:1031B00080E09F918923882311F40C94071980E003
:1031C000809312037091E40670627093E40680911C
:1031D00020028093E506A9E4B2E0E0E2F2EC0E946E
:1031E000C35A0E94545AE0E2F2E0A9E4B2E00E941D
:1031F00050550E94665BA9E4B2E00E945055E6E497
:10320000F2EC0E94C35A0E94545A0C940A1985E0A9
:10321000809312030C940F1984E0809312030C9492
:10322000D231E4E5F2EC0E94C35A0E947F5C11F0B7
:103230000C943B1980E0809312030E943B17A9E491
:10324000B2E0ECE5F2EC0E94C35A0E94545AEAE55F
:10325000F3E0A9E4B2E00E9450550E94155CA9E495
:10326000B2E00E945055E6E5FFEB0E94C35A0E946F
:10327000545A0C94D231E6E6F2EC0E94C35A0E94F2
:103280007F5C11F00C947A190091CB09023011F097
:103290000C947519A1EEB9E00E94AB5BA0E2B2E01C
:1032A0000C9300912002013110F00C94701980E011
:1032B00080931203A9E4B2E0EEE6F2EC0E94C35A56
:1032C0000E94545AE0E2F2E0A9E4B2E00E945055B4
:1032D0000E94665B809120028093A9070C94731969
:1032E00085E0809312030C94781984E08093120394
:1032F0000C94D231E6E8F2EC0E94C35A0E947F5C43
:1033000011F00C94891A0091CB09023011F00C9441
:10331000841AA1EEB9E00E94795C082F0C3011F0FC
:103320000C947F1A80E08093120387E0E1EEF9E0CD
:1033300002E00A93A4E2B3E00E94205CA4E2B3E0BE
:103340000E945055EEE8F2EC0E94C35A0E94545A73
:1033500089E0E1EEF9E002E00A93A4E2B3E00E9422
:1033600050550E94205CA4E2B3E00E945055EEE864
:10337000F2EC0E94C35A0E94545A8BE0E1EEF9E04D
:1033800002E00A93A4E2B3E00E9450550E94205C40
:10339000A4E2B3E00E9459550E946655E4E2F3E0CE
:1033A000A1E1B2E00E94155C0E942857E0E9F2EC2E
:1033B0000E94C35A0E945F550E941557A1E1B2E0D6
:1033C0000E9459550E94665581E0E1EEF9E002E065
:1033D0000A93A4E2B3E00E94205CA4E2B3E00E945E
:1033E0005055E4E9F2EC0E94C35A0E94545A83E01B
:1033F000E1EEF9E002E00A93A4E2B3E00E94505546
:103400000E94205CA4E2B3E00E945055E4E9F2EC93
:103410000E94C35A0E94545A85E0E1EEF9E002E0AE
:103420000A93A4E2B3E00E9450550E94205CA4E2FB
:10343000B3E00E9459550E946655E4E2F3E0A8E02B
:10344000B2E00E94155C0E942057E6E9F2EC0E946F
:10345000C35A0E945F550E941557A8E0B2E00E942F
:1034600059550E946655A9E4B2E0EAE9F2EC0E94DF
:10347000C35A0E94545A0E941557E8E0F2E0A9E4AA
:10348000B2E00E9450550E94155CA9E4B2E00E948F
:103490005055E4ECF2EC0E94C35A0E94545A0E9428
:1034A0001557E1E1F2E0A9E4B2E00E9450550E9414
:1034B000155CE5E0F2E00E947857A1E7B3E08C9359
:1034C0000E94A0330E94EA330E941933E2E0F2E046
:1034D0000E945958A8E8B3E00D931D932D933D9396
:1034E000E1E0F0E0A8E8B3E094E07BE70E94395C1B
:1034F00070913C02726070933C020C94821A86E0D8
:10350000809312030C94871A84E0809312030C9426
:10351000D231E8ECF2EC0E94C35A0E947F5C11F0B9
:103520000C949F1A80E080931203A9E4B2E0E0EDCE
:10353000F2EC0E94C35A0E94545A0C94D231E8ED26
:10354000F2EC0E94C35A0E947F5C11F00C94DF1AC7
:1035500080E0809312030E941557E1E1F2E0A4E2BB
:10356000B3E00E94155CA9E4B2E0E0EEF2EC0E9448
:10357000C35A0E94545AE4E2F3E0A9E4B2E00E9484
:1035800050550E94155CA9E4B2E00E945055EEEE41
:10359000F2EC0E94C35A0E94545A0E941557E8E068
:1035A000F2E0A4E2B3E00E94155CE4E2F3E0A9E4F7
:1035B000B2E00E9450550E94155C0C94D231EEEF9F
:1035C000F2EC0E94C35A0E947F5C11F00C941B1B0A
:1035D00080E080931203E8E8F3E0A4E2B3E00E9405
:1035E0009258A9E4B2E0E6E0F3EC0E94C35A0E94CC
:1035F000545AE4E2F3E0A9E4B2E00E9450550E947C
:10360000155CA9E4B2E00E945055EAE1F3EC0E9497
:10361000C35A0E94545AE8E8F3E0A4E2B3E00E94DF
:103620009A58E4E2F3E0A9E4B2E00E9450550E9407
:10363000155C0C94D231E2E2F3EC0E94C35A0E9472
:103640007F5C11F00C94241C0091CB09043011F024
:103650000C941F1CA1EEB9E00E94AB5BA1E2B2E0AA
:103660000C9300912102003080E010F009F081E01D
:103670008F9300912102053081E008F080E09F9156
:103680008923882311F40C941A1CA6EFB9E00E9438
:10369000AB5BA0E2B2E00C9300912002003080E02E
:1036A00010F009F081E08F9300912002013181E058
:1036B00008F080E09F918923882311F40C94151C55
:1036C00080E080931203EBE0FAE0A4E2B3E00E9412
:1036D000155CA1E2B2E00D91112701501040A0E36A
:1036E000B2E00D931C93A0E3B2E00D911C9140E178
:1036F00050E00E94275AA0E3B2E00D931C93A0E390
:10370000B2E00D911C91A0E2B2E04D915527040F5B
:10371000151FA0E3B2E00D931C93EAE2F3EC0E94C4
:10372000C35A0E945F55E0E3F2E0A0E0BFE10E94CF
:10373000565B0E9457550E946655E4E2F3E00E94F2
:103740002D58A0E3B2E0AD90BD90AFE8B3E0AA0C75
:10375000BB1CAA0CBB1CAA0DBB1D0D931D932D9366
:103760003D93E0E3F2E0A190B190E6E0F0E0AA0C36
:10377000BB1CAA0CBB1CEA0DFB1DA0E3B2E0AD9084
:10378000BD90AFE8B3E0AA0CBB1CAA0CBB1CAA0DF1
:10379000BB1D94E07BE70E94395CE0E3F2E0A1907E
:1037A000B190EFE8F3E0AA0CBB1CAA0CBB1CEA0D1D
:1037B000FB1DA4E2B3E00E949258A9E4B2E0E4E366
:1037C000F3EC0E94C35A0E94545AE0E2F2E0A9E4EA
:1037D000B2E00E9450550E94665BA9E4B2E00E94EC
:1037E0005055E4ECF2EC0E94C35A0E94545AE4E2B1
:1037F000F3E0A9E4B2E00E9450550E94155CA9E4F0
:10380000B2E00E945055E2E4F3EC0E94C35A0E94D9
:10381000545AE1E2F2E0A9E4B2E00E9450550E945D
:10382000665B0E94D50D0C94181C86E080931203F1
:103830000C941D1C85E0809312030C94221C84E0E0
:10384000809312030C94D231ECE4F3EC0E94C35A3F
:103850000E947F5C11F00C94F51C0091CB090330A1
:1038600011F00C94F01CA1EEB9E00E94AB5BA1E258
:10387000B2E00C9300912102003080E010F009F0DA
:1038800081E08F9300912102053081E008F080E013
:103890009F918923882311F40C94EB1CA6EFB9E0C7
:1038A0000E94AB5BA0E2B2E00C93009120020030DA
:1038B00080E010F009F081E08F9300912002013147
:1038C00081E008F080E09F918923882311F40C9413
:1038D000E61C80E080931203A1E2B2E00D91112773
:1038E00001501040A0E3B2E00D931C93A0E3B2E0BE
:1038F0000D911C9140E150E00E94275AA0E3B2E0F4
:103900000D931C93A0E3B2E00D911C91A0E2B2E0F4
:103910004D915527040F151FA0E3B2E00D931C93A2
:10392000EAE2F3EC0E94C35A0E945F55E0E3F2E042
:10393000A0E0BFE10E94565B0E9457550E94665569
:10394000E0E3F2E0A190B190EFE8F3E0AA0CBB1C39
:10395000AA0CBB1CEA0DFB1DA4E2B3E00E94925826
:10396000A9E4B2E0E4E5F3EC0E94C35A0E94545A81
:10397000E0E2F2E0A9E4B2E00E9450550E94665BEA
:10398000A9E4B2E00E945055ECE5F3EC0E94C35A62
:103990000E94545AE4E2F3E0A9E4B2E00E945055D8
:1039A0000E94155CA9E4B2E00E945055E2E4F3ECF9
:1039B0000E94C35A0E94545AE1E2F2E0A9E4B2E044
:1039C0000E9450550E94665B0C94E91C86E080932F
:1039D00012030C94EE1C85E0809312030C94F31CEC
:1039E00084E0809312030C94D231E0E6F3EC0E9461
:1039F000C35A0E947F5C11F00C94471D0091CB09C3
:103A0000023011F00C94421DA1EEB9E00E94AB5BB4
:103A1000A0E3B2E00D931C93A0E3B2E00D911C91E2
:103A2000003050E0150718F011F00C94191D0C949B
:103A30003D1D80E080931203A0E3B2E08D919C9144
:103A4000A3E9B4E08D939C93A9E4B2E0E8E6F3EC3B
:103A50000E94C35A0E94545AE3E9F4E0A9E4B2E098
:103A60000E9450550E94565BEAE0F1E0A3E9B4E001
:103A70007BE70E94385C0C94401D85E08093120324
:103A80000C94451D84E0809312030C94D231EEE730
:103A9000F3EC0E94C35A0E947F5C11F00C94651DE8
:103AA00080E080931203A9E4B2E0E6E8F3EC0E9420
:103AB000C35A0E94545AE3E9F4E0A9E4B2E00E9438
:103AC00050550E94565B0C94D231EEE8F3EC0E9404
:103AD000C35A0E947F5C11F00C94B71D0091CB0972
:103AE000023011F00C94B21DA1EEB9E00E94AB5B64
:103AF000A0E3B2E00D931C93A0E3B2E00D911C9102
:103B0000003050E0150718F011F00C94891D0C944A
:103B1000AD1D80E080931203A0E3B2E08D919C91F3
:103B2000A7E9B8E08D939C93A9E4B2E0E6E9F3EC51
:103B30000E94C35A0E94545AE7E9F8E0A9E4B2E0AF
:103B40000E9450550E94565BE9E7F3E0A7E9B8E010
:103B50007BE70E94385C0C94B01D85E080931203D3
:103B60000C94B51D84E0809312030C94D231E0EBE9
:103B7000F3EC0E94C35A0E947F5C11F00C94D51D97
:103B800080E080931203A9E4B2E0E8EBF3EC0E943A
:103B9000C35A0E94545AE7E9F8E0A9E4B2E00E944F
:103BA00050550E94565B0C94D231E6ECF3EC0E9427
:103BB000C35A0E947F5C11F00C94271E0091CB0920
:103BC000023011F00C94221EA1EEB9E00E94AB5B12
:103BD000A0E3B2E00D931C93A0E3B2E00D911C9121
:103BE000003050E0150718F011F00C94F91D0C94FA
:103BF0001D1E80E080931203A0E3B2E08D919C91A2
:103C0000ACE8B8E08D939C93A9E4B2E0EEECF3EC61
:103C10000E94C35A0E94545AECE8F8E0A9E4B2E0CA
:103C20000E9450550E94565BE5E7F3E0ACE8B8E02F
:103C30007BE70E94385C0C94201E85E08093120381
:103C40000C94251E84E0809312030C94D231E6EE8E
:103C5000F3EC0E94C35A0E947F5C11F00C94451E45
:103C600080E080931203A9E4B2E0E8EFFFEB0E944A
:103C7000C35A0E94545AECE8F8E0A9E4B2E00E946A
:103C800050550E94565B0C94D231EEEEF3EC0E943C
:103C9000C35A0E947F5C11F00C94971E0091CB09CF
:103CA000023011F00C94921EA1EEB9E00E94AB5BC1
:103CB000A0E3B2E00D931C93A0E3B2E00D911C9140
:103CC000003050E0150718F011F00C94691E0C94A8
:103CD0008D1E80E080931203A0E3B2E08D919C9151
:103CE000AEE8B8E08D939C93A9E4B2E0E6EFF3EC84
:103CF0000E94C35A0E94545AEEE8F8E0A9E4B2E0E8
:103D00000E9450550E94565BE7E7F3E0AEE8B8E04A
:103D10007BE70E94385C0C94901E85E08093120330
:103D20000C94951E84E0809312030C94D231E0E150
:103D3000F4EC0E94C35A0E947F5C11F00C94B51EF3
:103D400080E080931203A9E4B2E0E4E0F0EC0E948A
:103D5000C35A0E94545AEEE8F8E0A9E4B2E00E9487
:103D600050550E94565B0C94D231E8E1F4EC0E946D
:103D7000C35A0E947F5C11F00C94F11F0091CB0993
:103D8000053011F00C94EC1FA1EEB9E00E94AB5B82
:103D9000A1E2B2E00C9300912102003080E010F02B
:103DA00009F081E08F9300912102053081E008F055
:103DB00080E09F918923882311F40C94E71FA6EFDC
:103DC000B9E00E94AB5BA2E2B2E00C930091220248
:103DD000003080E010F009F081E08F930091220222
:103DE000013181E008F080E09F918923882311F45C
:103DF0000C94E21FABE0BAE00E94AB5BA0E2B2E041
:103E00000C9300912002003080E010F009F081E076
:103E10008F9300912002093081E008F080E09F91AB
:103E20008923882311F40C94DD1FA1E2B2E00D91E7
:103E3000112701501040A0E3B2E00D931C93A0E3C2
:103E4000B2E00D911C9140E250E00E94275AA0E39D
:103E5000B2E00D931C93A2E2B2E00D911127015044
:103E60001040A2E3B2E00D931C93A2E3B2E00D91E7
:103E70001C9148E050E00E94275AA2E3B2E00D9363
:103E80001C93A0E3B2E00D911C91A2E3B2E04D912E
:103E90005C91040F151FA0E3B2E00D931C93A0E307
:103EA000B2E00D911C91A0E2B2E04D915527040FB4
:103EB000151FA0E3B2E00D931C93E0E2F4EC0E9426
:103EC000C35A0E945F55E0E3F2E0A0E0BFE10E9428
:103ED000565B0E9457550E946655A0E2BAE00E94C8
:103EE000035CA3E2B2E00C9380912302A0E3B2E072
:103EF000AD90BD90A6E9B4E0AA0DBB1D8C93E0E3A4
:103F0000F2E0A190B190EBE0F1E0EA0DFB1DA3E23D
:103F1000B2E07BE70E94365C80E080931203A9E464
:103F2000B2E0EAE2F4EC0E94C35A0E94545AE0E282
:103F3000F2E0A9E4B2E00E9450550E94665BA9E459
:103F4000B2E00E945055EAE3F4EC0E94C35A0E948A
:103F5000545AE2E2F2E0A9E4B2E00E9450550E9415
:103F6000665BA9E4B2E00E945055E8E4F4EC0E94DC
:103F7000C35A0E94545AE1E2F2E0A9E4B2E00E947E
:103F800050550E94665BA9E4B2E00E945055E4EFF0
:103F9000FEEB0E94C35A0E94545AA9E4B2E00E9468
:103FA0005055E0E3F2E0A190B190E6E9F4E0EA0DCB
:103FB000FB1D0E94F35B0C94E01F87E080931203CB
:103FC0000C94E51F86E0809312030C94EA1F85E0B1
:103FD000809312030C94EF1F84E0809312030C94DF
:103FE000D231E2E5F4EC0E94C35A0E947F5C11F0EA
:103FF0000C940E210091CB09043011F00C9409218E
:10400000A1EEB9E00E94AB5BA1E2B2E00C9300919B
:104010002102003080E010F009F081E08F930091E0
:104020002102053081E008F080E09F9189238823F8
:1040300011F40C940421A6EFB9E00E94AB5BA2E25C
:10404000B2E00C9300912202003080E010F009F001
:1040500081E08F9300912202013181E008F080E03D
:104060009F918923882311F40C94FF20ABE0BAE0E0
:104070000E94AB5BA0E2B2E00C9300912002003002
:1040800080E010F009F081E08F9300912002093068
:1040900081E008F080E09F918923882311F40C943B
:1040A000FA2080E080931203A1E2B2E00D91112783
:1040B00001501040A0E3B2E00D931C93A0E3B2E0E6
:1040C0000D911C9140E250E00E94275AA0E3B2E01B
:1040D0000D931C93A2E2B2E00D9111270150104004
:1040E000A2E3B2E00D931C93A2E3B2E00D911C9108
:1040F00048E050E00E94275AA2E3B2E00D931C93DF
:10410000A0E3B2E00D911C91A2E3B2E04D915C916D
:10411000040F151FA0E3B2E00D931C93A0E3B2E0DF
:104120000D911C91A0E2B2E04D915527040F151F8F
:10413000A0E3B2E00D931C93EAE5F4EC0E94C35AAD
:104140000E945F55E0E3F2E0A0E0BFE10E94565B11
:104150000E9457550E946655A9E4B2E0E6E2FFEBE3
:104160000E94C35A0E94545AE0E2F2E0A9E4B2E08D
:104170000E9450550E94665BA9E4B2E00E9450552F
:10418000EAE3F4EC0E94C35A0E94545AE2E2F2E0DD
:10419000A9E4B2E00E9450550E94665BA9E4B2E037
:1041A0000E945055E8E4F4EC0E94C35A0E94545A0D
:1041B000E1E2F2E0A9E4B2E00E9450550E94665BA1
:1041C000A9E4B2E00E945055E4EFFEEB0E94C35A0E
:1041D0000E94545AA9E4B2E00E945055E0E3F2E094
:1041E000A190B190E6E9F4E0EA0DFB1D0E94F35BBB
:1041F0000C94FD2087E0809312030C94022186E04A
:10420000809312030C94072185E0809312030C9491
:104210000C2184E0809312030C94D231E8E6F4EC94
:104220000E94C35A0E947F5C11F00C946C21009193
:10423000CB09023011F00C946721A1EEB9E00E9485
:10424000AB5BA1E2B2E00C9300912102003080E070
:1042500010F009F081E08F9300912102053081E098
:1042600008F080E09F918923882311F40C94622147
:1042700080E080931203A1EEB9E00E94AB5BADE851
:10428000B3E00C93E5E0F0E0ADE8B3E07BE70E943B
:10429000365CA9E4B2E0E0E7F4EC0E94C35A0E9465
:1042A000545AEDE8F3E0A9E4B2E00E9450550E94B0
:1042B000665B0E94D50D7091BE0772607093BE0759
:1042C0000C94652185E0809312030C946A2184E0AC
:1042D000809312030C94D231EEE8F4EC0E94C35A9E
:1042E0000E947F5C11F00C948F2180E08093120378
:1042F000A9E4B2E0E8E5FFEB0E94C35A0E94545AD9
:10430000EDE8F3E0A9E4B2E00E9450550E94665B3C
:104310007091E40678607093E4060C94D231E6E97B
:10432000F4EC0E94C35A0E947F5C11F00C9412229C
:104330000091CB09033011F00C940D22A1EEB9E0ED
:104340000E94AB5BA1E2B2E00C930091210200302D
:1043500080E010F009F081E08F9300912102053098
:1043600081E008F080E09F918923882311F40C9468
:10437000082280E080931203A6EFB9E00E94035C5C
:10438000A1E2B2E0AD90BB24ADE8B3E0AA0DBB1D45
:104390000C93E1E2F2E0A190BB24E5E0F0E0EA0D4D
:1043A000FB1DA1E2B2E0AD90BB24ADE8B3E0AA0DE5
:1043B000BB1D7BE70E94365CA9E4B2E0EEE9F4ECB9
:1043C0000E94C35A0E94545AEDE8F3E0A9E4B2E017
:1043D0000E9450550E94665BA9E4B2E00E945055CD
:1043E000E4ECF2EC0E94C35A0E94545AA9E4B2E0F1
:1043F0000E945055E1E2F2E0A190BB24EDE8F3E029
:10440000EA0DFB1D0E94F35B0E94D50D0C940B225C
:1044100085E0809312030C94102284E080931203B1
:104420000C94D231ECEBF4EC0E94C35A0E947F5CF6
:1044300011F00C946C220091CB09023011F00C9415
:10444000672200912102003080E010F009F081E045
:104450008F9300912102053081E008F080E09F9168
:104460008923882311F40C94622280E08093120344
:10447000A9E4B2E0E4ECF4EC0E94C35A0E94545A5E
:10448000EDE8F3E0A9E4B2E00E9450550E94665BBB
:10449000A9E4B2E00E945055E8EDF4EC0E94C35A42
:1044A0000E94545AA9E4B2E00E945055E1E2F2E0C1
:1044B000A190BB24EDE8F3E0EA0DFB1D0E94F35B45
:1044C0000C94652285E0809312030C946A2284E0A8
:1044D000809312030C94D231ECEDF4EC0E94C35A99
:1044E0000E947F5C11F00C9413230091CB090330E0
:1044F00011F00C940E23A1EEB9E00E94AB5BA4E294
:10450000B2E00C9300912402003080E010F009F03A
:1045100081E08F9300912402063081E008F080E072
:104520009F918923882311F40C940923A6EFB9E005
:104530000E94AB5BACE2B2E00D931D932D933D93D3
:10454000ACE2B2E00D911D912D913C91A4E2B2E05C
:10455000AD90BB24A4EEB6E0AA0CBB1CAA0CBB1CFD
:10456000AA0DBB1D0D931D932D933C93E4E2F2E045
:10457000A190BB24E8E0F3E0AA0CBB1CAA0CBB1C76
:10458000EA0DFB1DACE2B2E094E07BE70E94395CEF
:1045900080E080931203A9E4B2E0E4EEF4EC0E9420
:1045A000C35A0E94545AE4E2F2E0A9E4B2E00E9445
:1045B00050550E94665BA9E4B2E00E945055EEE8B7
:1045C000F2EC0E94C35A0E94545AE4E2F2E0A19035
:1045D000BB24E4EEF6E0AA0CBB1CAA0CBB1CEA0D43
:1045E000FB1DA9E4B2E00E9450550E94595BE4E231
:1045F000F2E0A190BB24E4EEF6E0AA0CBB1CAA0CEE
:10460000BB1CEA0DFB1DA0E1B7E00E94595B0C94B6
:104610000C2383E0809312030C94112384E0809395
:1046200012030C94D231EAEFF4EC0E94C35A0E94B8
:104630007F5C11F00C94BA230091CB09033011F088
:104640000C94B523A1EEB9E00E94AB5BA4E2B2E00A
:104650000C9300912402003080E010F009F081E01A
:104660008F9300912402063081E008F080E09F9152
:104670008923882311F40C94B023A6EFB9E00E949B
:10468000AB5BACE2B2E00D931D932D933D93ACE296
:10469000B2E00D911D912D913C91A4E2B2E0AD905C
:1046A000BB24A8EFB6E0AA0CBB1CAA0CBB1CAA0D2D
:1046B000BB1D0D931D932D933C93E4E2F2E0A1907A
:1046C000BB24ECE1F3E0AA0CBB1CAA0CBB1CEA0D5A
:1046D000FB1DACE2B2E094E07BE70E94395C80E035
:1046E00080931203A9E4B2E0E4EEF4EC0E94C35A12
:1046F0000E94545AE4E2F2E0A9E4B2E00E9450556C
:104700000E94665BA9E4B2E00E945055EEE8F2EC2C
:104710000E94C35A0E94545AE4E2F2E0A190BB24E2
:10472000E8EFF6E0AA0CBB1CAA0CBB1CEA0DFB1DB3
:10473000A9E4B2E00E9450550E94595BE4E2F2E025
:10474000A190BB24E8EFF6E0AA0CBB1CAA0CBB1C92
:10475000EA0DFB1DA0E1B7E00E94595B0C94B32366
:1047600083E0809312030C94B82384E080931203B7
:104770000C94D231E2E0F5EC0E94C35A0E947F5CB7
:1047800011F00C945F240091CB09023011F00C94CD
:104790005A24A1EEB9E00E94AB5BA4E2B2E00C9314
:1047A00000912402003080E010F009F081E08F9346
:1047B00000912402063081E008F080E09F91892377
:1047C000882311F40C945524A9E4B2E0EAE0F5EC56
:1047D0000E94C35A0E94545AE4E2F2E0A9E4B2E013
:1047E0000E9450550E94665BA9E4B2E00E945055B9
:1047F000EEE8F2EC0E94C35A0E94545AE4E2F2E05E
:10480000A190BB24E4EEF6E0AA0CBB1CAA0CBB1CD6
:10481000EA0DFB1DA9E4B2E00E9450550E94595BCD
:1048200080E080931203E4E6F1EC0E94C35A0E94F8
:104830005F55E4E2F2E0A0E0BFE10E94665B0E9407
:104840005755EEEAFEEB0E94C35A0E945F55E4E220
:10485000F2E0A190BB24E4EEF6E0AA0CBB1CAA0C8B
:10486000BB1CEA0DFB1DA0E0BFE10E94595B0E944A
:1048700057550E946655E2E1F5EC0E94C35A0E942A
:104880005F550E946655E4E2F2E0A190BB24E4EE9D
:10489000F6E0AA0CBB1CAA0CBB1CEA0DFB1DA0E198
:1048A000B7E00E94595B0C94582483E08093120374
:1048B0000C945D2484E0809312030C94D231E6E1E1
:1048C000F5EC0E94C35A0E947F5C11F00C94042501
:1048D0000091CB09023011F00C94FF24A1EEB9E055
:1048E0000E94AB5BA4E2B2E00C9300912402003082
:1048F00080E010F009F081E08F93009124020630EF
:1049000081E008F080E09F918923882311F40C94C2
:10491000FA24A9E4B2E0EEE1F5EC0E94C35A0E9449
:10492000545AE4E2F2E0A9E4B2E00E9450550E9439
:10493000665BA9E4B2E00E945055EEE8F2EC0E94FA
:10494000C35A0E94545AE4E2F2E0A190BB24E8EF7B
:10495000F6E0AA0CBB1CAA0CBB1CEA0DFB1DA9E4CB
:10496000B2E00E9450550E94595B80E08093120390
:10497000E4E6F1EC0E94C35A0E945F55E4E2F2E0E3
:10498000A0E0BFE10E94665B0E945755EEEAFEEB95
:104990000E94C35A0E945F55E4E2F2E0A190BB245A
:1049A000E8EFF6E0AA0CBB1CAA0CBB1CEA0DFB1D31
:1049B000A0E0BFE10E94595B0E9457550E946655D6
:1049C000E2E1F5EC0E94C35A0E945F550E946655D1
:1049D000E4E2F2E0A190BB24E8EFF6E0AA0CBB1CF5
:1049E000AA0CBB1CEA0DFB1DA0E1B7E00E94595BBD
:1049F0000C94FD2483E0809312030C94022584E040
:104A0000809312030C94D231EAE2F5EC0E94C35A6F
:104A10000E947F5C11F00C9477250091CB09023045
:104A200011F00C947225A1EEB9E00E94AB5BA4E2F8
:104A3000B2E00C9300912402003080E010F009F005
:104A400081E08F9300912402063081E008F080E03D
:104A50009F918923882311F40C946D2580E0809325
:104A600012030091240241E0041BA0E2B2E00C9387
:104A700080912002AEEBB7E00E94AE5A0E94A45A89
:104A80009C91982B9C93A9E4B2E0E2E3F5EC0E94A0
:104A9000C35A0E94545AE4E2F2E0A9E4B2E00E9450
:104AA00050550E94665BA9E4B2E00E945055EEEAC0
:104AB000FEEB0E94C35A0E94545AA9E4B2E00E943D
:104AC0005055EEEBF7E00E94F35BA0E1B7E0EEEBB0
:104AD000F7E00E94F35B0C94702583E0809312034F
:104AE0000C94752584E0809312030C94D231E6E493
:104AF000F5EC0E94C35A0E947F5C11F00C94B8251B
:104B00000091CB09023011F00C94B32580E0809322
:104B10001203A1EEB9E00E94AB5BA7E5B7E00D93ED
:104B20001D932D933D93ECE3F3E0A7E5B7E094E00C
:104B30007BE70E94395CA9E4B2E0EEE4F5EC0E9468
:104B4000C35A0E94545AE7E5F7E0A9E4B2E00E9494
:104B500050550E94595BE7E5F7E0A0E1B7E00E94FD
:104B6000595B0C94B62584E0809312030C94D231E7
:104B7000E6E6F5EC0E94C35A0E947F5C11F00C94AB
:104B8000DC2580E080931203A9E4B2E0EEE6F5ECC8
:104B90000E94C35A0E94545AE7E5F7E0A9E4B2E044
:104BA0000E9450550E94595BE7E5F7E0A0E1B7E0AD
:104BB0000E94595B0C94D231E8E7F5EC0E94C35A8D
:104BC0000E947F5C11F00C94F72580E08093120323
:104BD00070915B07706870935B07A9E4B2E0E0E84E
:104BE000F5EC0E94C35A0E94545A0C94D231E8E862
:104BF000F5EC0E94C35A0E947F5C11F00C9434269D
:104C00000091CB09023011F00C942F2680E08093A4
:104C10001203A1EEB9E00E94AB5BAFEBB7E00C93DF
:104C2000E0E4F3E0AFEBB7E07BE70E94365CA9E499
:104C3000B2E0E0E9F5EC0E94C35A0E94545AEFEB4F
:104C4000F7E0A9E4B2E00E9450550E94665BEFEBEA
:104C5000F7E0A0E1B7E00E94665B0C94322684E0A6
:104C6000809312030C94D231E2EAF5EC0E94C35A0D
:104C70000E947F5C11F00C94582680E08093120310
:104C8000A9E4B2E0EAEAF5EC0E94C35A0E94545A41
:104C9000EFEBF7E0A9E4B2E00E9450550E94665B9A
:104CA000EFEBF7E0A0E1B7E00E94665B0C94D23135
:104CB000E0EBF5EC0E94C35A0E947F5C11F00C946B
:104CC000732680E08093120370915B07716070938C
:104CD0005B07A9E4B2E0E8EBF5EC0E94C35A0E943E
:104CE000545A0C94D231E2ECF5EC0E94C35A0E9463
:104CF0007F5C11F00C94AA260091CB09023011F0D0
:104D00000C94A52680E080931203A1EEB9E00E94E6
:104D1000AB5BA7EDB7E00C93E1E4F3E0A7EDB7E000
:104D20007BE70E94365CA9E4B2E0EAECF5EC0E9475
:104D3000C35A0E94545AE7EDF7E0A9E4B2E00E949A
:104D400050550E94665B0C94A82684E08093120361
:104D50000C94D231E0EEF5EC0E94C35A0E947F5CC5
:104D600011F00C94C82680E080931203A9E4B2E00D
:104D7000E6E9FEEB0E94C35A0E94545AE7EDF7E0C1
:104D8000A9E4B2E00E9450550E94665B0C94D231B7
:104D9000E8EEF5EC0E94C35A0E947F5C11F00C947F
:104DA0000B270091CB09023011F00C940627A1EEDD
:104DB000B9E00E94AB5BA8EDB7E00D931C93E2E471
:104DC000F3E0A8EDB7E07BE70E94385C80E08093D9
:104DD0001203A9E4B2E0E0EFF5EC0E94C35A0E948E
:104DE000545AE8EDF7E0A9E4B2E00E9450550E9461
:104DF000565BE8EDF7E0A0E1B7E00E94565B7091EA
:104E0000BE0772607093BE070C94092784E08093FC
:104E100012030C94D231E0E1F6EC0E94C35A0E94D6
:104E20007F5C11F00C9444270091CB09013011F004
:104E30000C943F2780E080931203A9E4B2E0E8E1FC
:104E4000F6EC0E94C35A0E94545AE8EDF7E0A9E438
:104E5000B2E00E9450550E94565BA9E4B2E00E9465
:104E60005055E6E5FFEB0E94C35A0E94545AE8ED04
:104E7000F7E0A0E1B7E00E94565B0C94422784E083
:104E8000809312030C94D231ECE2F6EC0E94C35AE8
:104E90000E947F5C11F00C948E270091CB090230A8
:104EA00011F00C948927A1EEB9E00E94AB5BA0E25F
:104EB000B2E00C9300912002023010F00C94842791
:104EC00080E08093120300912002003011F00C94D6
:104ED0006C275F980C946D275F9AA9E4B2E0E4E335
:104EE000F6EC0E94C35A0E94545AABE2B0E08C9197
:104EF00087FBA9E4B2E00E9450550E94B45A8D93FA
:104F000088278C930C94872783E0809312030C945A
:104F10008C2784E0809312030C94D231EEE3F6ECFC
:104F20000E94C35A0E947F5C11F00C94BF2700912D
:104F3000CB09023011F00C94BA2780E08093120361
:104F4000A1EEB9E00E94AB5BACEDB7E00D931C9312
:104F5000A9E4B2E0E6E4F6EC0E94C35A0E94545A77
:104F6000ECEDF7E0A9E4B2E00E9450550E94565BD8
:104F70000C94BD2784E0809312030C94D231EEE5AB
:104F8000F6EC0E94C35A0E947F5C11F00C94F72744
:104F90000091CB09023011F00C94F22780E080934D
:104FA0001203A1EEB9E00E94AB5BAAEDB7E00D934E
:104FB0001C93E4E4F3E0AAEDB7E07BE70E94385CE1
:104FC000A9E4B2E0E6E6F6EC0E94C35A0E94545A05
:104FD000EAEDF7E0A9E4B2E00E9450550E94565B6A
:104FE0000C94F52784E0809312030C94D231E0E80E
:104FF000F6EC0E94C35A0E947F5C11F00C94392891
:1050000080E080931203A9E4B2E0E8E8F6EC0E94A5
:10501000C35A0E94545AEAEDF7E0A9E4B2E00E94B4
:1050200050550E94565BA9E4B2E00E945055E8E951
:10503000F6EC0E94C35A0E94545AECEDF7E0A9E442
:10504000B2E00E9450550E94565BA9E4B2E00E9473
:105050005055E4EAF6EC0E94C35A0E94545AEEED11
:10506000F7E0A9E4B2E00E9450550E94665B0C9400
:10507000D231E2EBF6EC0E94C35A0E947F5C11F041
:105080000C945E2880E080931203A1EEB9E00E94A8
:10509000AB5BAEEDB7E00C93A9E4B2E0EAEBF6EC63
:1050A0000E94C35A0E94545AEEEDF7E0A9E4B2E020
:1050B0000E9450550E94665B0C94D231EAECF6ECEB
:1050C0000E94C35A0E947F5C11F00C9495280091B5
:1050D000CB09023011F00C94902880E080931203E9
:1050E000A1EEB9E00E94AB5BAAE9B8E00C93ECE753
:1050F000F3E0AAE9B8E07BE70E94365CA9E4B2E0FD
:10510000E2EDF6EC0E94C35A0E94545AEAE9F8E034
:10511000A9E4B2E00E9450550E94665B0C9493286B
:1051200084E0809312030C94D231EEEEF6EC0E94F0
:10513000C35A0E947F5C11F00C94B32880E08093E6
:105140001203A9E4B2E0ECE1F0EC0E94C35A0E9421
:10515000545AEAE9F8E0A9E4B2E00E9450550E94EE
:10516000665B0C94D231E6EFF6EC0E94C35A0E94C3
:105170007F5C11F00C94EA280091CB09023011F009
:105180000C94E52880E080931203A1EEB9E00E9420
:10519000AB5BA9E9B8E00C93EBE7F3E0A9E9B8E071
:1051A0007BE70E94365CA9E4B2E0EEEFF6EC0E94E9
:1051B000C35A0E94545AE9E9F8E0A9E4B2E00E9417
:1051C00050550E94665B0C94E82884E0809312039B
:1051D0000C94D231E6E2F7EC0E94C35A0E947F5C45
:1051E00011F00C94082980E080931203A9E4B2E046
:1051F000EEE2F7EC0E94C35A0E94545AE9E9F8E043
:10520000A9E4B2E00E9450550E94665B0C94D23132
:10521000EEE4F7EC0E94C35A0E947F5C11F00C94FC
:105220009F2980E080931203A9E4B2E0E6E5F7EC61
:105230000E94C35A0E94545A81E080932002009138
:105240002002043018F011F00C949D2900912002E6
:1052500041E0041BA4E2B2E00C9380912402A8E197
:10526000B8E00E94AE5A0E94A45A0C90082268949A
:1052700009F4E89416F00C949529002744278091AE
:105280002402A0E2B0E00E94AE5A0E94A45A0C9000
:105290000822689409F4E89400F980912402A2EFAE
:1052A000B7E00E94AE5A0E94A45A0C90082268945B
:1052B00009F4E89440F9042700FBACE3B2E08C91D8
:1052C00087F98C93E0E2F2E00191112747E050E08A
:1052D0000E94275AECEEF7E0E00FF11FA9E4B2E0DC
:1052E0000E9450550E94155CA9E4B2E00E945055FE
:1052F000E4EFFEEB0E94C35A0E94545AACE3B2E0C2
:105300008C9187FBA9E4B2E00E9450550E94B45AE8
:105310008D9388278C93A9E4B2E00E945055EEEA61
:10532000FEEB0E94C35A0E94545AA0E2B2E08C9154
:105330008F5F8C9310F40C941F290C94D231EAE601
:10534000F7EC0E94C35A0E947F5C11F00C94552A1E
:105350000091CB09043011F00C94502AA1EEB9E071
:105360000E94AB5BA1E2B2E00C93009121020130FC
:1053700011F00C94432AA6EFB9E00E94AB5BA0E2C7
:10538000B2E00C9300912002003080E010F009F0B0
:1053900081E08F9300912002053081E008F080E0E9
:1053A0009F918923882311F40C943E2A80E08093F6
:1053B00012030091200241E0041BA2E2B2E00C9330
:1053C000ABE0BAE00E94AB5BA1E2B2E00C930091CB
:1053D0002102003011F00C94FA2980912202A8E1F8
:1053E000B8E00E94AE5A0E94A45A8C9189238C93F3
:1053F0000C94052A80912202A8E1B8E00E94AE5ADE
:105400000E94A45A9C91982B9C93E4E7F3E0A8E1B6
:10541000B8E07BE70E94365CA9E4B2E0E2E7F7EC93
:105420000E94C35A0E94545AE0E2F2E0A9E4B2E0BA
:105430000E9450550E94665BA9E4B2E00E9450555C
:10544000E4EFFEEB0E94C35A0E94545A809122025C
:10545000A8E1B8E00E94AE5A0E94A45A0C9008221B
:10546000689409F4E894A9E4B2E00E9450550E94BF
:10547000B45A8D9388278C930C94412A85E08093AD
:1054800012030C944E2A80E080931203A9E4B2E048
:10549000E6E8F7EC0E94C35A0E94545A0C94532A2F
:1054A00084E0809312030C94D231E4EAF7EC0E947A
:1054B000C35A0E947F5C11F00C942E2B0091CB09F3
:1054C000013011F00C94792A80E080931203A9E452
:1054D000B2E0ECEAF7EC0E94C35A0E94545AA9E4E5
:1054E000B2E00E945055E8E1F8E00E94F35B0C94B2
:1054F0002C2B023011F00C94AC2AA1EEB9E00E94E2
:10550000AB5BA1E2B2E00C9300912102013011F0FB
:105510000C949F2A80E080931203A9E4B2E0ECEAA5
:10552000F7EC0E94C35A0E94545AA9E4B2E00E94C8
:105530005055E8E1F8E00E94F35B0C94AA2A80E061
:1055400080931203A9E4B2E0E4EBF7EC0E94C35AA3
:105550000E94545A0C942C2B033011F00C94292BDC
:10556000A1EEB9E00E94AB5BA1E2B2E00C93009126
:105570002102013011F00C941C2BA6EFB9E00E941F
:10558000AB5BA0E2B2E00C9300912002003080E01F
:1055900010F009F081E08F9300912002053081E046
:1055A00008F080E09F918923882311F40C94172B35
:1055B00080E0809312030091200241E0041BA2E2EC
:1055C000B2E00C9380E080931203A9E4B2E0E8EC2F
:1055D000F7EC0E94C35A0E94545AE0E2F2E0A9E4B8
:1055E000B2E00E9450550E94665BA9E4B2E00E94BE
:1055F0005055E4EFFEEB0E94C35A0E94545A80912A
:105600002202A8E1B8E00E94AE5A0E94A45A0C906F
:105610000822689409F4E894A9E4B2E00E94505585
:105620000E94B45A8D9388278C930C941A2B85E092
:10563000809312030C94272B80E080931203A9E43B
:10564000B2E0E0EDF7EC0E94C35A0E94545A0C9469
:105650002C2B84E0809312030C94D231E6EEF7EC0D
:105660000E94C35A0E947F5C11F00C94CA2B0091D7
:10567000CB09033011F00C94C52BA1EEB9E00E94C8
:10568000AB5BA0E2B2E00C9300912002003080E01E
:1056900010F009F081E08F9300912002053081E045
:1056A00008F080E09F918923882311F40C94C02B8B
:1056B00080E0809312030091200241E0041BA2E2EB
:1056C000B2E00C93A6EFB9E00E94AB5BA1E2B2E0BE
:1056D0000C9300912102003011F00C947C2B8091EE
:1056E0002202A2EFB7E00E94AE5A0E94A45A8C9107
:1056F00089238C930C94872B80912202A2EFB7E030
:105700000E94AE5A0E94A45A9C91982B9C93E7E564
:10571000F3E0A2EFB7E07BE70E94365CA9E4B2E0D9
:10572000EEEEF7EC0E94C35A0E94545AE0E2F2E017
:10573000A9E4B2E00E9450550E94665BA9E4B2E081
:105740000E945055E4EFFEEB0E94C35A0E94545A47
:1057500080912202A2EFB7E00E94AE5A0E94A45AA2
:105760000C900822689409F4E894A9E4B2E00E943D
:1057700050550E94B45A8D9388278C930C94C32B58
:1057800085E0809312030C94C82B84E0809312036D
:105790000C94D231E2E0F8EC0E94C35A0E947F5C84
:1057A00011F00C94532C0091CB09013011F00C94A2
:1057B000EE2B80E080931203A9E4B2E0EAE0F8EC7B
:1057C0000E94C35A0E94545AA9E4B2E00E94505564
:1057D000E2EFF7E00E94F35B0C94512C023011F0E1
:1057E0000C944E2CA1EEB9E00E94AB5BA0E2B2E0BB
:1057F0000C9300912002003080E010F009F081E06D
:105800008F9300912002053081E008F080E09F91A5
:105810008923882311F40C94492C0091200241E043
:10582000041BA2E2B2E00C9380E080931203A9E48F
:10583000B2E0E2E1F8EC0E94C35A0E94545AE0E25E
:10584000F2E0A9E4B2E00E9450550E94665BA9E430
:10585000B2E00E945055E4EFFEEB0E94C35A0E9452
:10586000545A80912202A2EFB7E00E94AE5A0E94E1
:10587000A45A0C900822689409F4E894A9E4B2E0D0
:105880000E9450550E94B45A8D9388278C930C9493
:105890004C2C85E0809312030C94512C84E080936F
:1058A00012030C94D231EAE1F8EC0E94C35A0E9430
:1058B0007F5C11F00C94772E0091CB09053011F02C
:1058C0000C94722EA1EEB9E00E94AB5BA0E2B2E0B4
:1058D0000C93A6EFB9E00E94AB5BA1E2B2E00C939F
:1058E000ABE0BAE00E94AB5BA2E2B2E00C930091A5
:1058F0002002013011F00C94542E0091210200304E
:1059000080E010F009F081E08F93009121020530D2
:1059100081E008F080E09F918923882311F40C94A2
:10592000472E00912202013011F00C94F32CE0E29A
:10593000FAE0A1E2B2E00D91112747E050E00E94A9
:10594000275AACEEB7E0A00FB11F0E94155CE1E250
:10595000F2E00191112747E050E00E94275AE1E56B
:10596000F3E0E00FF11FA1E2B2E00D91112747E053
:1059700050E00E94275AACEEB7E0A00FB11F7BE7C2
:105980000E94475C80E080931203A9E4B2E0E2E267
:10599000F8EC0E94C35A0E94545AE1E2F2E0A9E4F2
:1059A000B2E00E9450550E94665BA9E4B2E00E94FA
:1059B0005055E4EFFEEB0E94C35A0E94545AE1E2B4
:1059C000F2E00191112747E050E00E94275AECEEE7
:1059D000F7E0E00FF11FA9E4B2E00E9450550E94E9
:1059E000155C0C94452E023011F00C94722DA0E23F
:1059F000BAE00E94AB5BA3E2B2E00C9300912302F9
:105A0000023010F00C94652D0091210241E0041B3E
:105A1000A4E2B2E00C9300912302003011F00C9448
:105A20001E2D80912402A2EFB7E00E94AE5A0E9480
:105A3000A45A8C9189238C930C94292D8091240253
:105A4000A2EFB7E00E94AE5A0E94A45A9C91982BF4
:105A50009C93E7E5F3E0A2EFB7E07BE70E94365CBA
:105A600080E080931203A9E4B2E0E6E3F8EC0E9440
:105A7000C35A0E94545AE1E2F2E0A9E4B2E00E9463
:105A800050550E94665BA9E4B2E00E945055E4EFD5
:105A9000FEEB0E94C35A0E94545A80912402A2EF46
:105AA000B7E00E94AE5A0E94A45A0C900822689453
:105AB00009F4E894A9E4B2E00E9450550E94B45A57
:105AC0008D9388278C930C94702D80E08093120323
:105AD000A9E4B2E0ECE3F8EC0E94C35A0E94545AE5
