:100000000C947200189500001895000018950000D7
:10001000189500001895000018950000189500002C
:10002000189500001895000018950000189500001C
:10003000189500001895000018950000189500000C
:1000400018950000189500001895000018950000FC
:100050000C94070318950000189500000C943802C2
:10006000189500000C94F4001895000018950000F5
:1000700018950000189500001895000018950000CC
:1000800018950000189500001895000018950000BC
:100090000C94860118950000189500001895000032
:1000A000189500001895000018950000189500009C
:1000B000189500001895000018950000189500008C
:1000C000189500001895000018950000189500007C
:1000D000189500001895000018950000189500006C
:1000E000189500008FEF8DBFC0EBE8E24E2E81E245
:1000F0008EBFD1E2F1E25F2EA89584B7082E882743
:1001000084BF88E199278093600090936000EEEFB0
:10011000FFE1A0E0B2E088278D933197E9F787E609
:100120008093C40080E08093C50088E18093C10083
:100130006624279A389A399A3A9A3B9A3C9A3D9A79
:100140003E9A3F9A70910A01716070930A01709112
:100150000A01726070930A0170910A0174607093D1
:100160000A01289A209A5F9A579A85E085BD80E017
:1001700084BD70916E00716070936E0085E085BDE6
:1001800080E08093800085E08093810070916F0013
:10019000716070936F0085E0809381007091C10061
:1001A00070687093C10087E68093CC0080E08093F4
:1001B000CD007091C8007D7F7093C80086E0809369
:1001C000CA0088E18093C9007091C900706870937B
:1001D000C90070E07093B9007CE07093B8000E9491
:1001E000243978940C9423310F921F922F923F92CE
:1001F0004F925F927F92AF92BF920F931F932F9374
:100200003F934F935F936F937F938F939F93AF939E
:10021000BF93CF93DF93EF93FF938FB78F938BB7FA
:100220008F9388278BBFAAEFB9E08091C6008C938B
:1002300084E2482F0091FA09041711F00C942B0165
:1002400070912B05726070932B05A1E3B9E08827AC
:100250008C930C9468010D3011F00C945001ABE2BA
:10026000B5E08C9181FB16F00C944E0170912B053A
:100270007D7F70932B0580E0A1E3B9E00E94743587
:100280008D9388278C93E1E3F9E0ABEFB9E00E940E
:100290008D3C70912B05716070932B050C94680157
:1002A0000F3118F011F00C9457010C946801ABE277
:1002B000B5E08C9181FB16F00C946801AAEFB9E0CF
:1002C0008C91A1E3B9E00E9474358D9388278C93BB
:1002D0008F918BBF8F918FBFFF91EF91DF91CF9166
:1002E000BF91AF919F918F917F916F915F914F914E
:1002F0003F912F911F910F91BF90AF907F905F9092
:100300004F903F902F901F900F9018950F921F9233
:100310002F923F924F925F927F92AF92BF920F9334
:100320001F932F933F934F935F936F937F938F937D
:100330009F93AF93BF93CF93DF93EF93FF938FB7C9
:100340008F938BB78F9388278BBFABE4B5E08091F9
:10035000CE008C9385E2482F00914B05041711F0D5
:100360000C94BD0170912B05786070932B05ACE463
:10037000B5E088278C930C941A020D3011F00C9480
:10038000F201ABE2B5E08C9183FB16F00C94F00126
:1003900070912B05777F70932B0580E0ACE4B5E07E
:1003A0000E9474358D9388278C93ECE4F5E0A9EDD9
:1003B000B5E00E948D3CA9EDB5E0EEE7FDE70E94B7
:1003C000403B0E94EB3C11F00C94EB017091390220
:1003D00070687093390270912B05746070932B05CF
:1003E0000C941A020F3118F011F00C94F9010C94CE
:1003F0001A02ABE2B5E08C9183FB16F00C941A0262
:10040000ABE4B5E08C91ACE4B5E00E9474358D931B
:1004100088278C93ACE4B5E00E94E53C082F0C38AB
:1004200018F011F00C9416020C941A02ACE4B5E02A
:1004300088278C938F918BBF8F918FBFFF91EF9106
:10044000DF91CF91BF91AF919F918F917F916F91EC
:100450005F914F913F912F911F910F91BF90AF905E
:100460007F905F904F903F902F901F900F90189526
:100470000F921F922F923F924F925F927F92AF9274
:10048000BF920F931F932F933F934F935F936F935D
:100490007F938F939F93AF93BF93CF93DF93EF930C
:1004A000FF938FB78F938BB78F9388278BBF74E69B
:1004B00076BDA4E2B5E08C918F5F8C93A4E2B5E0A9
:1004C0000C9148E00E94D53C8C93009124050030AB
:1004D00011F00C949E02A5E2B5E00C9140E20E945E
:1004E000D53C8C93E2E9FFE40E94403BAAE2B5E0F0
:1004F0008C919927A6E2B5E00E94F73A80912505F4
:10050000A6E2B5E00E942B3B0E94213B0C90082202
:10051000689409F4E894ABE2B5E08C9187F98C9388
:10052000ABE2B5E08C9187FBA5E2B0E08C9187F956
:100530008C93A5E2B5E08C918F5F8C93A2EBB4E035
:100540008C9180FB16F00C94C402A2E2B5E00E94EC
:100550002D35A2E2B5E00D911C9149EF51E00E94CA
:100560005A35A2E2B5E00D931C93A2E2B5E00D91DD
:100570001C91003050E0150711F00C94C4027091EA
:10058000B20472607093B204ABE2B5E08C9185FB6B
:1005900016F00C94E302AFE2B5E00E942D35A1E322
:1005A000B5E04D915C91AFE2B5E00D911C9104175F
:1005B000150711F00C94E10270912B057064709393
:1005C0002B050C94E90280E090E0AFE2B5E08D935A
:1005D0009C938F918BBF8F918FBFFF91EF91DF9194
:1005E000CF91BF91AF919F918F917F916F915F91CB
:1005F0004F913F912F911F910F91BF90AF907F909E
:100600005F904F903F902F901F900F9018950F92F2
:100610001F922F923F924F925F927F92AF92BF9222
:100620000F931F932F933F934F935F936F937F93FA
:100630008F939F93AF93BF93CF93DF93EF93FF93EA
:100640008FB78F938BB78F9388278BBF87EF92ECF1
:10065000909385008093840070912C057160709355
:100660002C050E943937E8E0F2E0FA93EA93E1E1E1
:10067000F2E00E94C638A3E3B5E00D931D932D93DD
:100680003D93A3E3B5E00E942035E3E3F5E0A1E16B
:10069000B2E00E94B6380E944C37E3E3F5E0A8E0F0
:1006A000B2E00E94BE380E9444370E943937E1E12F
:1006B000F2E0A3E6B4E00E948D3CE3E6F4E00E94A1
:1006C0005138A7E3B5E00D931D932D933D9381E041
:1006D00080933B0500913B05043018F011F00C9419
:1006E0009D03ABE3B5E0AD90BB24AFE4B4E0AA0C4E
:1006F000BB1CAA0CBB1CAA0DBB1D4D915D916D913D
:100700007C91A7E3B5E00D911D912D913C910E9444
:10071000BB3B11F00C949503709139027260709399
:10072000390280913B0580936E04ABE3B5E08C9178
:100730008F5F8C9310F40C946A03A3E3B5E00D91E2
:100740001D912D913C91A9EDB4E04D915D916D917C
:100750007C910E94C735ACE3B5E00D931D932D93BA
:100760003D9340E050E060E070E0ACE3B5E00D9117
:100770001D912D913C910E94BB3B11F00C94C5033F
:100780007091B20478607093B204A3E3B5E00D9168
:100790001D912D913C91A1E4B5E04C915527662720
:1007A00077270E94C735ACE3B5E00D931D932D93D9
:1007B0003D9340E050E060E070E0ACE3B5E00D91C7
:1007C0001D912D913C910E94BB3B11F00C94ED03C7
:1007D00070912B05706170932B0581E080933B0233
:1007E00000913B02043018F011F00C945C04A3E378
:1007F000B5E00D911D912D913C91ABE3B2E0AD9030
:10080000BB24ADE7B4E0AA0CBB1CAA0CBB1CAA0D10
:10081000BB1D4D915D916D917C910E94B63BACE307
:10082000B5E00D931D932D933D93ACE3B5E00D9191
:100830001D912D913C91ABE3B2E0AD90BB24ADE6B0
:10084000B4E0AA0CBB1CAA0CBB1CAA0DBB1D4D918D
:100850005D916D917C910E94C735ACE3B5E00D933D
:100860001D932D933D9300913B0241E0041BAAE3AD
:10087000B2E00C9340E050E060E070E0ACE3B5E043
:100880000D911D912D913C910E94BB3B11F00C9458
:10089000540480913A02A0E4B5E00E942B3B0E94F0
:1008A000213B9C91982B9C93ABE3B2E08C918F5FA2
:1008B0008C9310F40C94F003A6EBB4E08C918F5F52
:1008C0008C93A6EBB4E00C9141E00E94D53C8C9354
:1008D0000091B604003011F00C9473047091B204CE
:1008E00070647093B204ABEFB4E08C918F5F8C9323
:1008F000ABEFB4E00C9145E00E94D53C8C930091A5
:10090000FB04003011F00C948A047091B2047460FE
:100910007093B204A9E3B2E08C9183FB16F00C94BF
:10092000B204AFECB3E00E942D35AFECB3E00D9113
:100930001C91ADECB3E04D915C910E945A35AFEC47
:10094000B3E00D931C93AFECB3E00D911C9100301C
:1009500050E0150711F00C94B204709139027460E4
:10096000709339028F918BBF8F918FBFFF91EF9161
:10097000DF91CF91BF91AF919F918F917F916F91B7
:100980005F914F913F912F911F910F91BF90AF9029
:100990007F905F904F903F902F901F900F901895F1
:1009A0000895089508952F98E2E8FDE70E94403BDE
:1009B0000E9483350E948A35A0E1B1E2E2EAFDE7B8
:1009C0000E94403B0E94D13A0E947B350E948A35AA
:1009D000A0E1B1E2E6EBFDE70E94403B0E94D13A84
:1009E0000E947B350E948A35A0E1B1E2EEEBFDE783
:1009F0000E94403B0E94D13A0E947B350E948A357A
:100A0000E1E0F0E0A2E8B3E094E00E94C23CE8EC50
:100A1000FDE70E94403B0E948335E2E8F3E0A0E15D
:100A2000B1E20E94BE380E947B35E8EDFDE70E94EE
:100A3000403B0E948335E2E8F3E0A0E1B1E20E948E
:100A4000B6380E947B350E948A35E4EFF0E0A9EDCC
:100A5000B4E094E00E94C23CEAEDFDE70E94403B16
:100A60000E948335E9EDF4E0A0E1B1E20E94D13BC0
:100A70000E947B350E948A35E8EFF0E0A1E4B5E002
:100A80000E94BF3CE6EFFDE70E94403B0E94833599
:100A9000E1E4F5E0A0E1B1E20E94DE3B0E947B359B
:100AA0000E948A3581E08093200200912002043068
:100AB00018F011F00C949A05E0E2F2E0A190BB244A
:100AC000E5E0F0E0EA0DFB1DA0E2B2E0AD90BB2452
:100AD000A7E8B3E0AA0DBB1D0E94BF3CECE0FEE717
:100AE0000E94403B0E948335E0E2F2E0A0E1B1E2E7
:100AF0000E94DE3B0E947B35EEE1FEE70E94403B18
:100B00000E948335D201E0E2F2E0A190BB24E7E845
:100B1000F3E0EA0DFB1D0E946B3CD2010E947D3583
:100B20000E948A35A0E2B2E08C918F5F8C9310F422
:100B30000C945505E0E2FEE70E94403B0E9483359D
:100B40000E948A3581E080932402009124020430BF
:100B500018F011F00C945406EAE2FEE70E94403BC4
:100B60000E948335E4E2F2E0A0E1B1E20E94DE3BC4
:100B70000E947B350E948A3581E080932502009196
:100B80002502043018F011F00C944C06A4E2B2E0F7
:100B90000D91112701501040A0E3B2E00D931C937A
:100BA000A0E3B2E00D911C9144E050E00E94A43A11
:100BB000A0E3B2E00D931C93A0E3B2E00D911C9171
:100BC000A5E2B2E04D915527040F151FA0E3B2E056
:100BD0000D931C93E0E3F2E0A190B190E6E0F0E029
:100BE000AA0CBB1CAA0CBB1CEA0DFB1DA8E2B2E0C0
:100BF00094E00E94C23CA8E2B2E00D911D912D91BB
:100C00003C91A0E3B2E0AD90BD90A9E8B3E0AA0C9E
:100C1000BB1CAA0CBB1CAA0DBB1D0D931D932D93D1
:100C20003C93A2E4B5E00C9100FB16F00C94440652
:100C3000E0E3FEE70E94403B0E948335E5E2F2E0FC
:100C4000A0E1B1E20E94DE3B0E947B35EEE1FEE7CF
:100C50000E94403B0E948335E8E2F2E0A0E1B1E26D
:100C60000E94B6380E947B35E6E3FEE70E94403BD7
:100C70000E948335E0E3F2E0A0E1B1E20E94CE3BC6
:100C80000E947B350E948A35A5E2B2E08C918F5F8D
:100C90008C9310F40C94BF05A4E2B2E08C918F5FAA
:100CA0008C9310F40C94A505EAE3FEE70E94403B08
:100CB0000E9483350E948A3581E08093240200914E
:100CC0002402043018F011F00C943F07EAE2FEE72A
:100CD0000E94403B0E948335E4E2F2E0A0E1B1E2F1
:100CE0000E94DE3B0E947B350E948A3581E0809322
:100CF000250200912502043018F011F00C943707FA
:100D0000E6E4FEE70E94403B0E948335E5E2F2E024
:100D1000A0E1B1E20E94DE3B0E947B350E948A3551
:100D2000A4E2B2E00D91112701501040A0E3B2E01F
:100D30000D931C93A0E3B2E00D911C9140E250E0B2
:100D40000E94A43AA0E3B2E00D931C93A5E2B2E0A6
:100D50000D91112701501040A2E3B2E00D931C93B6
:100D6000A2E3B2E00D911C9148E050E00E94A43A49
:100D7000A2E3B2E00D931C93A0E3B2E00D911C91AD
:100D8000A2E3B2E04D915C91040F151FA0E3B2E025
:100D90000D931C9381E08093270200912702083075
:100DA00018F011F00C942F070091300240912702A7
:100DB000040FA6E8B3E00C93E6E8F3E0A190BB24AF
:100DC000EBE4F0E0EA0DFB1DA6E8B3E0AD90BB2438
:100DD000A0EDB3E0AA0DBB1D0E94BF3CA2E4B5E0AC
:100DE0000C9100FB16F00C942707E0E5FEE70E944B
:100DF000403B0E948335E7E2F2E0A0E1B1E20E94CD
:100E0000DE3B0E947B35EEE1FEE70E94403B0E9404
:100E10008335D201E6E8F3E0A190BB24E0EDF3E0F6
:100E2000EA0DFB1D0E946B3CD2010E947D35E6E578
:100E3000FEE70E94403B0E948335E6E8F3E0A0E134
:100E4000B1E20E94DE3B0E947B350E948A35A7E218
:100E5000B2E08C918F5F8C9310F40C94CD06A5E2D8
:100E6000B2E08C918F5F8C9310F40C947906A4E21D
:100E7000B2E08C918F5F8C9310F40C945F06EAE4DF
:100E8000F0E0ADECB3E00E94C13CEAE5FEE70E9471
:100E9000403B0E948335EDECF3E0A0E1B1E20E941B
:100EA000CE3B0E947B350E948A350E94030FE8E604
:100EB000FEE70E94403B0E948335A4E5B3E00E9418
:100EC0007D35E0E7FEE70E94403B0E9483350E94AB
:100ED0008A3583E680935204E5E0F0E0A7E8B3E0CA
:100EE0000E94BF3CE2E7FEE70E94403B0E94833540
:100EF000E7E8F3E0A0E1B1E20E94DE3B0E947B352F
:100F00000E948A3500918703003018F011F00C948C
:100F10008B070C94A20700918703053010F00C9406
:100F200095070E948E080C94A00780E080938703A9
:100F3000E0E8FEE70E94403B0E9483350E948A352C
:100F40000C94AA07E0E9FEE70E94403B0E9483352B
:100F50000E948A3581E080932002009120020430B3
:100F600018F011F00C944008E0E2F2E0A190BB24EC
:100F7000E8ECF0E0AA0CBB1CAA0CBB1CEA0DFB1DA4
:100F8000A0E2B2E0AD90BB24ADE6B4E0AA0CBB1C7D
:100F9000AA0CBB1CAA0DBB1D94E00E94C23CE0E25F
:100FA000F2E0A190BB24E8EDF0E0AA0CBB1CAA0C77
:100FB000BB1CEA0DFB1DA0E2B2E0AD90BB24ADE787
:100FC000B4E0AA0CBB1CAA0CBB1CAA0DBB1D94E070
:100FD0000E94C23CE4EAFEE70E94403B0E94833547
:100FE000E0E2F2E0A0E1B1E20E94DE3B0E947B354C
:100FF000EEE1FEE70E94403B0E948335E0E2F2E032
:10100000A190BB24EDE6F4E0AA0CBB1CAA0CBB1C0F
:10101000EA0DFB1DA0E1B1E20E94D13B0E947B35AD
:10102000E8EAFEE70E94403B0E948335E0E2F2E0FE
:10103000A0E1B1E20E94DE3B0E947B35EEE1FEE7DB
:101040000E94403B0E948335E0E2F2E0A190BB2485
:10105000EDE7F4E0AA0CBB1CAA0CBB1CEA0DFB1DBF
:10106000A0E1B1E20E94D13B0E947B350E948A350B
:10107000A0E2B2E08C918F5F8C9310F40C94AD07DA
:10108000E9EFF0E0A2E4B5E00E94BF3CEEEAFEE743
:101090000E94403B0E948335E2E4F5E0A0E1B1E22A
:1010A0000E94DE3B0E947B350E948A35EAEFF0E029
:1010B000A3E4B5E00E94C13CA3E4B5E00E942D3555
:1010C000E6EBFEE70E94403B0E948335E3E4F5E057
:1010D000A0E1B1E20E94CE3B0E947B350E948A359E
:1010E000EAEFF0E0A3E4B5E07BE70E94B03CEEEF6E
:1010F000F0E0AAE4B5E00E94BF3CE0ECFEE70E940D
:10110000403B0E948335D201EAE4F5E00E946B3C4B
:10111000D2010E947D350E948A350895809187030F
:1011200080932402EAE2FEE70E94403B0E9483355E
:10113000E4E2F2E0A0E1B1E20E94DE3B0E947B35F6
:101140000E948A35A4E2B2E0AD90BB24A7E8B3E0E8
:10115000AA0DBB1D8C9180938C03E2EEFEE70E94EA
:10116000403B0E948335D201ECE8F3E00E946B3CE7
:10117000D2010E947D350E948A3581E0809325024C
:1011800000912502043018F011F00C944B09A4E2F0
:10119000B2E00D91112701501040A0E3B2E00D9391
:1011A0001C93A0E3B2E00D911C9144E050E00E943A
:1011B000A43AA0E3B2E00D931C93A0E3B2E00D913A
:1011C0001C91A5E2B2E04D915527040F151FA0E335
:1011D000B2E00D931C93A0E3B2E0AD90BD90A9E8FE
:1011E000B3E0AA0CBB1CAA0CBB1CAA0DBB1D0D9125
:1011F0001D912D913C91A8E2B2E00D931D932D938A
:101200003C93A8E2B2E00D911D912D913C91A5E295
:10121000B2E0AD90BB24AFE4B4E0AA0CBB1CAA0CB6
:10122000BB1CAA0DBB1D0D931D932D933C93E0EFAA
:10123000FEE70E94403B0E948335E5E2F2E0A0E138
:10124000B1E20E94DE3B0E947B35EEE1FEE70E94A8
:10125000403B0E948335E8E2F2E0A0E1B1E20E9467
:10126000B6380E947B35E6E3FEE70E94403B0E94D1
:101270008335E0E3F2E0A0E1B1E20E94CE3B0E94C0
:101280007B350E948A35A5E2B2E08C918F5F8C930A
:1012900010F40C94C008089582E00E949E3A82E007
:1012A0000E949E3A81E00E949E3AAA85BB850D91DC
:1012B000112701501040AC81BD810D931C93AC816E
:1012C000BD810D911C9140E250E00E94A43AAC8196
:1012D000BD810D931C93A885B9850D9111270150EF
:1012E0001040AA81BB810D931C93AA81BB810D91F3
:1012F0001C9148E050E00E94A43AAA81BB810D9362
:101300001C93AC81BD810D911C91AA81BB814D9133
:101310005C91040F151FAC81BD810D931C93AC81B2
:10132000BD810D911C91AE81BF814D915527040F58
:10133000151FAC81BD810D931C93AC81BD810D91B6
:101340001C910F5F1F4FAC81BD810D931C93AC812D
:10135000BD81AD90BD90A0EDB3E0AA0DBB1D8C91F9
:10136000A881B9818C93EEEFFEE70E94403B0E947A
:101370008335EE81FF81A0E1B1E20E94DE3B0E9455
:101380007B35EEE1FEE70E94403B0E948335D201AF
:10139000E881F9810E946B3CD2010E947D35E8ED25
:1013A000FDE70E94403B0E948335EC81FD81A0E176
:1013B000B1E20E94CE3B0E947B350E948A35A88113
:1013C000B9818C9180FBA8E2B0E08C9180F98C937C
:1013D000A881B9818C9181FBA8E2B0E08C9181F960
:1013E0008C93A881B9818C9182FBA8E2B0E08C91AA
:1013F00082F98C93A881B9818C9183FBA8E2B0E03B
:101400008C9183F98C93A881B9818C9184FBA8E29B
:10141000B0E08C9184F98C93A881B9818C9185FB83
:10142000A8E2B0E08C9185F98C9385E0481A80E0C1
:10143000580A2696089540984198429843984498AF
:10144000459808950E943937E8E0F2E0AEE1B3E054
:101450000E948D3CAEE1B3E00E947435E2E0FFE70C
:101460000E94403B0E94D13A0E943937E1E1F2E00C
:10147000AEE1B3E00E9474350E948D3CAEE1B3E072
:101480000E947435E2E0FFE70E94403B0E94D13A9F
:1014900081E080931F0281E080931E028827809361
:1014A0001D02AEE1B3E00E94AF35AEE1B3E0E4E08F
:1014B000FFE70E94403B0E94D13AE7E8F3E0AEE14B
:1014C000B3E00E9474350E94DE3BAEE1B3E00E94BF
:1014D0007435E6E0FFE70E94403B0E94D13AACE859
:1014E000B3E08C9180FBAEE1B3E00E9474350E94C2
:1014F000313B8D9388278C93AEE1B3E00E94743525
:10150000EAE0FFE70E94403B0E94D13AACE8B3E03A
:101510008C9181FBAEE1B3E00E9474350E94313BB7
:101520008D9388278C93AEE1B3E00E947435EAE096
:10153000FFE70E94403B0E94D13AACE8B3E08C91B7
:1015400082FBAEE1B3E00E9474350E94313B8D9383
:1015500088278C93AEE1B3E00E947435ECE0FFE79E
:101560000E94403B0E94D13AACE8B3E08C9183FBEF
:10157000AEE1B3E00E9474350E94313B8D93882721
:101580008C93AEE1B3E00E947435EEE0FFE70E9479
:10159000403B0E94D13AACE8B3E08C9184FBAEE1D1
:1015A000B3E00E9474350E94313B8D9388278C9361
:1015B000AEE1B3E00E947435E0E1FFE70E94403BFA
:1015C0000E94D13AACE8B3E08C9185FBAEE1B3E088
:1015D0000E9474350E94313B8D9388278C93AEE135
:1015E000B3E00E947435E2E1FFE70E94403B0E94B5
:1015F000D13AACE8B3E08C9186FBAEE1B3E00E9457
:1016000074350E94313B8D9388278C93AEE1B3E013
:101610000E947435E2E0FFE70E94403B0E94D13A0D
:1016200083E080931F0281E080931E0288278093CD
:101630001D02AEE1B3E00E94AF35A3E5B4E00D9129
:101640001D912D913C91A8E2B2E00D931D932D9335
:101650003C93E8E2F2E0AEE1B3E00E94B638AEE1DE
:10166000B3E00E947435E2E0FFE70E94403B0E9435
:10167000D13AA7E5B4E00D911D912D913C91A8E2DE
:10168000B2E00D931D932D933C93E8E2F2E0AEE1BE
:10169000B3E00E9474350E94B638AEE1B3E00E9418
:1016A0007435E2E0FFE70E94403B0E94D13A85E0BA
:1016B00080931F0281E080931E02882780931D0281
:1016C000AEE1B3E00E94AF35ABE5B4E00D911D9102
:1016D0002D913C91A8E2B2E00D931D932D933C9384
:1016E000E8E2F2E0AEE1B3E00E94B638AEE1B3E08A
:1016F0000E947435E2E0FFE70E94403B0E94D13A2D
:10170000AFE5B4E00D911D912D913C91A8E2B2E0BE
:101710000D931D932D933C93E8E2F2E0AEE1B3E02C
:101720000E9474350E94B638AEE1B3E00E94743571
:10173000E2E0FFE70E94403B0E94D13A87E08093BD
:101740001F0281E080931E02882780931D02AEE174
:10175000B3E00E94AF350895E5E0F0E0A0E1BB27DB
:1017600081E08C937BE70E94AE3CEAE4F0E004E188
:1017700010E0A0E1BB277BE70E94B03C81E08093B2
:10178000200200912002043018F011F00C94DF0BBD
:10179000E0E2F2E0A190BB24E5E0F0E0EA0DFB1D01
:1017A000A0E1BB278FE78C937BE70E94AE3CA0E2D1
:1017B000B2E08C918F5F8C9310F40C94C10BAEE16E
:1017C000B3E0E4E1FFE70E94403B0E94D13AEEE142
:1017D000F3E00E945138ADE8B3E00D931D932D93D3
:1017E0003D93AEE1B3E0EEE1FFE70E94403B0E9493
:1017F000D13AEEE1F3E00E945138A1E9B3E00D9354
:101800001D932D933D93AEE1B3E0E8E2FFE70E9424
:10181000403B0E94D13AEEE1F3E00E945138A5E945
:10182000B3E00D931D932D933D93AEE1B3E0E2E35E
:10183000FFE70E94403B0E94D13AEEE1F3E00E94B4
:101840005138A9E9B3E00D931D932D933D93AEE17B
:10185000B3E0ECE3FFE70E94403B0E94D13AEEE1A7
:10186000F3E00E945138ADE9B3E00D931D932D9341
:101870003D93AEE1B3E0E6E4FFE70E94403B0E9407
:10188000D13AEEE1F3E00E945138A1EAB3E00D93C2
:101890001D932D933D93AEE1B3E0E0E5FFE70E9499
:1018A000403B0E94D13AEEE1F3E00E945138A5EAB4
:1018B000B3E00D931D932D933D93AEE1B3E0EAE5C4
:1018C000FFE70E94403B0E94D13AEEE1F3E00E9424
:1018D0005138A9EAB3E00D931D932D933D93AEE1EA
:1018E000B3E0E4E6FFE70E94403B0E94D13AEEE11C
:1018F000F3E00E945138ADEAB3E00D931D932D93B0
:101900003D93AEE1B3E0EEE6FFE70E94403B0E946C
:10191000D13AEEE1F3E00E945138A1EBB3E00D9330
:101920001D932D933D93AEE1B3E0E8E7FFE70E94FE
:10193000403B0E94D13AEEE1F3E00E945138A5EB22
:10194000B3E00D931D932D933D93AEE1B3E0E2E838
:10195000FFE70E94403B0E94D13AEEE1F3E00E9493
:101960005138A9EBB3E00D931D932D933D93AEE158
:10197000B3E0ECE8FFE70E94403B0E94D13AEEE181
:10198000F3E00E945138ADEBB3E00D931D932D931E
:101990003D93AEE1B3E0E6E9FFE70E94403B0E94E1
:1019A000D13AEEE1F3E00E945138A1ECB3E00D939F
:1019B0001D932D933D93AEE1B3E0E0EAFFE70E9473
:1019C000403B0E94D13AEEE1F3E00E945138A5EC91
:1019D000B3E00D931D932D933D93AEE1B3E0EAEA9E
:1019E000FFE70E94403B0E94D13AEEE1F3E00E9403
:1019F0005138A9ECB3E00D931D932D933D9381E0F5
:101A00008093250200912502003118F011F00C940A
:101A10002D0DE5E2F2E0A190BB24E6E0F0E0AA0C97
:101A2000BB1CAA0CBB1CEA0DFB1DA5E2B2E0AD90ED
:101A3000BB24A9E8B3E0AA0CBB1CAA0CBB1CAA0DD2
:101A4000BB1D94E07BE70E94B13CA5E2B2E08C9123
:101A50008F5F8C9310F40C94020D81E0809324022C
:101A600000912402043018F011F00C941B0EEAE2ED
:101A7000FEE70E94403B0E948335E4E2F2E0A0E1F1
:101A8000B1E20E94DE3B0E947B350E948A3581E0F4
:101A90008093250200912502043018F011F00C9477
:101AA000130EE6E4FEE70E94403B0E948335E5E228
:101AB000F2E0A0E1B1E20E94DE3B0E947B350E9491
:101AC0008A35A4E2B2E00D91112701501040A0E345
:101AD000B2E00D931C93A0E3B2E00D911C9140E2A3
:101AE00050E00E94A43AA0E3B2E00D931C93A5E25B
:101AF000B2E00D91112701501040A2E3B2E00D9326
:101B00001C93A2E3B2E00D911C9148E050E00E94CA
:101B1000A43AA2E3B2E00D931C93A0E3B2E00D91CE
:101B20001C91A2E3B2E04D915C91040F151FA0E35C
:101B3000B2E00D931C9381E080932702009127026D
:101B4000083018F011F00C940B0E00913002409107
:101B50002702040FA6E8B3E00C93E6EDFFE40E9431
:101B6000403BA7E2B2E08C919927A0E2B2E00E944C
:101B7000F33A80912002A6E8B3E0AD90BB24A0ED3B
:101B8000B3E0AA0DBB1D8C93E6E8F3E0A190BB2463
:101B9000EBE4F0E0EA0DFB1DA0E2B2E07BE70E947F
:101BA000AE3CE0E5FEE70E94403B0E948335E7E261
:101BB000F2E0A0E1B1E20E94DE3B0E947B35EEE163
:101BC000FEE70E94403B0E948335D201E6E8F3E045
:101BD000A190BB24E0EDF3E0EA0DFB1D0E946B3CFD
:101BE000D2010E947D35E6E5FEE70E94403B0E945F
:101BF0008335E6E8F3E0A0E1B1E20E94DE3B0E941B
:101C00007B350E948A35A7E2B2E08C918F5F8C937E
:101C100010F40C949E0DA5E2B2E08C918F5F8C9332
:101C200010F40C944A0DA4E2B2E08C918F5F8C9377
:101C300010F40C94300DE9EFF0E0A0E1BB2780E058
:101C40008C937BE70E94AE3C80E08093200281E091
:101C50008093240200912402043018F011F00C94B7
:101C60009E0E0CE211E020E030E0A4E2B2E0AD9084
:101C7000BB24ADE6B4E0AA0CBB1CAA0CBB1CAA0D8D
:101C8000BB1D0D931D932D933C93E4E2F2E0A190D4
:101C9000BB24E8ECF0E0AA0CBB1CAA0CBB1CEA0DB0
:101CA000FB1DA4E2B2E0AD90BB24ADE6B4E0AA0C0B
:101CB000BB1CAA0CBB1CAA0DBB1D94E07BE70E94B9
:101CC000B13CA0E2B2E08C91A4E2B2E0AD90BB24C2
:101CD000ADE7B4E0AA0CBB1CAA0CBB1CAA0DBB1D33
:101CE0008D9388278D938D938C93E4E2F2E0A190FD
:101CF000BB24E8EDF0E0AA0CBB1CAA0CBB1CEA0D4F
:101D0000FB1DA4E2B2E0AD90BB24ADE7B4E0AA0CA9
:101D1000BB1CAA0CBB1CAA0DBB1D94E07BE70E9458
:101D2000B13CA0E2B2E08C91845C8C93A4E2B2E07E
:101D30008C918F5F8C9310F40C942A0E0895E4EB31
:101D4000FFE70E94403B0E9483350E948A35E0E015
:101D5000F0E0A3E5B3E00E94BF3C80E08093210265
:101D6000ABE2B5E08C9180FB16F00C94CA0E70913A
:101D70002B057E7F70932B05EEECFFE70E94403B26
:101D80000E948335ABEFB9E00E947D350E948A3511
:101D90000E94940F00912C05013011F00C94F40E68
:101DA00070912C057E7F70932C05A0E2B2E08C919F
:101DB0008F5F8C93A1E2B2E08C918F5F8C93A0E255
:101DC000B2E00C914AE00E94D53C8C930091200235
:101DD000003011F00C94F40EE4EDFFE70E94403B5C
:101DE0000E9483350E948A3500915303013011F01F
:101DF0000C94B00EE6EFFFE70E94403B0E94833553
:101E00000E948A35089580E08093200280E08093CC
:101E10002102A4E5B3E088278C938EE08093200212
:101E200000912002073118F011F00C942C0FE09172
:101E300020020E948D3A082FE0E1F0E0A4E5B3E033
:101E40000E9474350E94523CA0E2B2E08C918F5FF8
:101E50008C9310F40C94100FE4E5F3E0A3E4B2E0EB
:101E60000E948D3CA4E5B3E088278C938EE080939C
:101E7000200200912002073118F011F00C94550F48
:101E8000E09120020E948D3A082FE0E1F0E0A4E505
:101E9000B3E00E9474350E94523CA0E2B2E08C9103
:101EA0008F5F8C9310F40C94390FE3E4F2E0A4E517
:101EB000B3E00E94ED3C11F00C94610F81E080933F
:101EC0002002A1E2B2E08C918F5F8C9300912002FE
:101ED000003011F00C94800F84EF91E00E943D36A9
:101EE000EAE0F0E80E94403B0E948335E1E2F2E044
:101EF000A0E1B1E20E94DE3B0E947B350E948A3560
:101F000000912002013081E009F080E08F93009180
:101F100021020A3081E009F080E09F91892B88231B
:101F200011F40C94090F0895E0E1F0E80E94403BA1
:101F30000E948335ABEFB9E00E947D350E948A355F
:101F400081E0EBEFF9E006E00A93AEE1B3E00E9436
:101F5000983CEBEFF9E09CE204E132E2A7E6B6E060
:101F60000E941F3DA6E6B6E02C93A7E6B6E00E94CD
:101F7000E53C082F063011F00C943A1EE7E6F6E037
:101F8000ACE3B2E00E948D3CECE3F2E0ACE3B2E003
:101F90000E94153B8FEF80930C03ACE3B2E0E2E1CB
:101FA000F0E80E94403B0E94EB3C11F00C941910A9
:101FB00080E080930C03A3E4B2E0EAE1F0E80E9441
:101FC000403B0E94D13AAEE1B3E0E2EAFDE70E9475
:101FD000403B0E94D13AEEE1F3E0A3E4B2E00E947C
:101FE00074350E948D3CA3E4B2E00E947435EEE2A9
:101FF000F0E80E94403B0E94D13AAEE1B3E0EEEB44
:10200000FDE70E94403B0E94D13AEEE1F3E0A3E4F9
:10201000B2E00E9474350E948D3CA3E4B2E00E94BD
:102020007435E0E7FEE70E94403B0E94D13A0C94F1
:10203000381EECE3F0E80E94403B0E94EB3C11F0BC
:102040000C94401080E080930C03A3E4B2E0E4E43D
:10205000F0E80E94403B0E94D13A709139027064CE
:102060007093390281E080935303E0E0F0E0A3E550
:10207000B3E07BE70E94AE3C0E94AC0B0C94381E90
:10208000E2E7F0E80E94403B0E94EB3C11F00C9428
:102090006A1080E080930C030E94030FA3E4B2E077
:1020A000EAE7F0E80E94403B0E94D13AE4E5F3E021
:1020B000A3E4B2E00E9474350E948D3CA3E4B2E038
:1020C0000E947435E0E7FEE70E94403B0E94D13A4F
:1020D0000C94381EE4E8F0E80E94403B0E94EB3C80
:1020E00011F00C94A91000916606023011F00C94C6
:1020F000A410ACE7B6E00E94233CA0E2B2E00C934F
:1021000000912002013110F00C949F1080E0809328
:102110000C03A3E4B2E0ECE8F0E80E94403B0E942C
:10212000D13AE0E2F2E0A3E4B2E00E9474350E940A
:10213000DE3B8091200280932A050C94A21085E05A
:1021400080930C030C94A71084E080930C030C94F0
:10215000381EE4EAF0E80E94403B0E94EB3C11F09C
:102160000C94B81100916606023011F00C94B31172
:10217000ACE7B6E00E94E53C082F0C3011F00C945F
:10218000AE1180E080930C0387E0ECE7F6E002E01C
:102190000A93AEE1B3E00E94983CAEE1B3E00E9446
:1021A0007435ECEAF0E80E94403B0E94D13A89E0A5
:1021B000ECE7F6E002E00A93AEE1B3E00E9474358A
:1021C0000E94983CAEE1B3E00E947435ECEAF0E87E
:1021D0000E94403B0E94D13A8BE0ECE7F6E002E03F
:1021E0000A93AEE1B3E00E9474350E94983CAEE1E0
:1021F000B3E00E947D350E948A35EEE1F3E0A1E173
:10220000B2E00E948D3C0E944C37EEEAF0E80E945A
:10221000403B0E9483350E943937A1E1B2E00E9421
:102220007D350E948A3581E0ECE7F6E002E00A9312
:10223000AEE1B3E00E94983CAEE1B3E00E94743599
:10224000E2EBF0E80E94403B0E94D13A83E0ECE7E9
:10225000F6E002E00A93AEE1B3E00E9474350E941A
:10226000983CAEE1B3E00E947435E2EBF0E80E94E6
:10227000403B0E94D13A85E0ECE7F6E002E00A93A9
:10228000AEE1B3E00E9474350E94983CAEE1B3E049
:102290000E947D350E948A35EEE1F3E0A8E0B2E0CD
:1022A0000E948D3C0E944437E4EBF0E80E94403BE2
:1022B0000E9483350E943937A8E0B2E00E947D3544
:1022C0000E948A35A3E4B2E0E8EBF0E80E94403BCC
:1022D0000E94D13A0E943937E8E0F2E0A3E4B2E08C
:1022E0000E9474350E948D3CA3E4B2E00E947435D4
:1022F000E2EEF0E80E94403B0E94D13A0E9439375A
:10230000E1E1F2E0A3E4B2E00E9474350E948D3C6A
:10231000E5E0F2E00E949C37ABE6B3E08C930E94CC
:102320008A1F0E94D41F0E94031FE2E0F2E00E9475
:102330007D38A2E8B3E00D931D932D933D93E1E02A
:10234000F0E0A2E8B3E094E07BE70E94B13C70913A
:1023500039027062709339020C94B11186E0809357
:102360000C030C94B61184E080930C030C94381E7B
:10237000E6EEF0E80E94403B0E94EB3C11F00C942A
:10238000CE1180E080930C03A3E4B2E0EEEEF0E81F
:102390000E94403B0E94D13A0C94381EE6EFF0E8D0
:1023A0000E94403B0E94EB3C11F00C940E1280E026
:1023B00080930C030E943937E1E1F2E0AEE1B3E033
:1023C0000E948D3CA3E4B2E0EEEFF0E80E94403BB7
:1023D0000E94D13AEEE1F3E0A3E4B2E00E9474354A
:1023E0000E948D3CA3E4B2E00E947435ECE0F1E879
:1023F0000E94403B0E94D13A0E943937E8E0F2E067
:10240000AEE1B3E00E948D3CEEE1F3E0A3E4B2E084
:102410000E9474350E948D3C0C94381EECE1F1E86A
:102420000E94403B0E94EB3C11F00C944A1280E069
:1024300080930C03E2E8F3E0AEE1B3E00E94B6382B
:10244000A3E4B2E0E4E2F1E80E94403B0E94D13A0A
:10245000EEE1F3E0A3E4B2E00E9474350E948D3C0B
:10246000A3E4B2E00E947435E8E3F1E80E94403B47
:102470000E94D13AE2E8F3E0AEE1B3E00E94BE3858
:10248000EEE1F3E0A3E4B2E00E9474350E948D3CDB
:102490000C94381EE0E4F1E80E94403B0E94EB3CC3
:1024A00011F00C94531300916606043011F00C9453
:1024B0004E13ACE7B6E00E94233CA1E2B2E00C93DD
:1024C00000912102003080E010F009F081E08F934C
:1024D00000912102053081E008F080E09F9189237E
:1024E000882311F40C944913A1E9B6E00E94233C1F
:1024F000A0E2B2E00C9300912002003080E010F0E6
:1025000009F081E08F9300912002053081E008F00E
:1025100080E09F918923882311F40C94441380E078
:1025200080930C03E6EAF6E0AEE1B3E00E948D3C56
:10253000A1E2B2E00D91112701501040A0E3B2E0FA
:102540000D931C93A0E3B2E00D911C9144E050E088
:102550000E94A43AA0E3B2E00D931C93A0E3B2E082
:102560000D911C91A0E2B2E04D915527040F151F6B
:10257000A0E3B2E00D931C93E8E4F1E80E94403B35
:102580000E948335E0E3F2E0A0E1B1E20E94CE3B9D
:102590000E947B350E948A35EEE1F3E00E945138BB
:1025A000A0E3B2E0AD90BD90A9E8B3E0AA0CBB1CDB
:1025B000AA0CBB1CAA0DBB1D0D931D932D933D931F
:1025C000E0E3F2E0A190B190E6E0F0E0AA0CBB1CE1
:1025D000AA0CBB1CEA0DFB1DA0E3B2E0AD90BD90C0
:1025E000A9E8B3E0AA0CBB1CAA0CBB1CAA0DBB1D1E
:1025F00094E07BE70E94B13CE0E3F2E0A190B1906F
:10260000E9E8F3E0AA0CBB1CAA0CBB1CEA0DFB1DFD
:10261000AEE1B3E00E94B638A3E4B2E0E2E5F1E84F
:102620000E94403B0E94D13AE0E2F2E0A3E4B2E033
:102630000E9474350E94DE3BA3E4B2E00E94743530
:10264000E2EEF0E80E94403B0E94D13AEEE1F3E076
:10265000A3E4B2E00E9474350E948D3CA3E4B2E092
:102660000E947435E0E6F1E80E94403B0E94D13AB6
:10267000E1E2F2E0A3E4B2E00E9474350E94DE3BA6
:102680000E948E080C94471386E080930C030C94F0
:102690004C1385E080930C030C94511384E08093D9
:1026A0000C030C94381EEAE6F1E80E94403B0E94BD
:1026B000EB3C11F00C94241400916606033011F0E9
:1026C0000C941F14ACE7B6E00E94233CA1E2B2E0F8
:1026D0000C9300912102003080E010F009F081E0BD
:1026E0008F9300912102053081E008F080E09F91F6
:1026F0008923882311F40C941A14A1E9B6E00E94EE
:10270000233CA0E2B2E00C9300912002003080E074
:1027100010F009F081E08F9300912002053081E0F4
:1027200008F080E09F918923882311F40C941514FC
:1027300080E080930C03A1E2B2E00D9111270150DB
:102740001040A0E3B2E00D931C93A0E3B2E00D9122
:102750001C9144E050E00E94A43AA0E3B2E00D9343
:102760001C93A0E3B2E00D911C91A0E2B2E04D9168
:102770005527040F151FA0E3B2E00D931C93E8E466
:10278000F1E80E94403B0E948335E0E3F2E0A0E1E3
:10279000B1E20E94CE3B0E947B350E948A35E0E385
:1027A000F2E0A190B190E9E8F3E0AA0CBB1CAA0CFE
:1027B000BB1CEA0DFB1DAEE1B3E00E94B638A3E4FA
:1027C000B2E0E2E7F1E80E94403B0E94D13AE0E249
:1027D000F2E0A3E4B2E00E9474350E94DE3BA3E481
:1027E000B2E00E947435EAE7F1E80E94403B0E94A3
:1027F000D13AEEE1F3E0A3E4B2E00E9474350E9426
:102800008D3CA3E4B2E00E947435E0E6F1E80E945A
:10281000403B0E94D13AE1E2F2E0A3E4B2E00E9440
:1028200074350E94DE3B0C94181486E080930C03F0
:102830000C941D1485E080930C030C94221484E006
:1028400080930C030C94381EEEE7F1E80E94403BA5
:102850000E94EB3C11F00C9471140091660602305A
:1028600011F00C946C14ACE7B6E00E94233CA0E29B
:10287000B2E00C9300912002003018F011F00C949B
:1028800043140C94671480E080930C03A0E2B2E040
:102890008C91ADECB3E08D9388278C93A3E4B2E0E8
:1028A000E6E8F1E80E94403B0E94D13AEDECF3E00B
:1028B000A3E4B2E00E9474350E94CE3BEAE4F0E06B
:1028C000ADECB3E07BE70E94B03C0C946A1485E069
:1028D00080930C030C946F1484E080930C030C948D
:1028E000381EECE9F1E80E94403B0E94EB3C11F0FD
:1028F0000C948F1480E080930C03A3E4B2E0E4EA2C
:10290000F1E80E94403B0E94D13AEDECF3E0A3E4F1
:10291000B2E00E9474350E94CE3B0C94381EECEA63
:10292000F1E80E94403B0E94EB3C11F00C94CB1567
:1029300000916606053011F00C94C615ACE7B6E0C0
:102940000E94233CA1E2B2E00C93009121020030EE
:1029500080E010F009F081E08F93009121020530B2
:1029600081E008F080E09F918923882311F40C9482
:10297000C115A1E9B6E00E94233CA2E2B2E00C93AB
:1029800000912202003080E010F009F081E08F9386
:1029900000912202053081E008F080E09F918923B8
:1029A000882311F40C94BC15A6EAB6E00E94233CDF
:1029B000A0E2B2E00C9300912002003080E010F021
:1029C00009F081E08F9300912002093081E008F046
:1029D00080E09F918923882311F40C94B715A1E21C
:1029E000B2E00D91112701501040A0E3B2E00D9329
:1029F0001C93A0E3B2E00D911C9140E250E00E94D4
:102A0000A43AA0E3B2E00D931C93A2E2B2E00D91D0
:102A1000112701501040A2E3B2E00D931C93A2E3F2
:102A2000B2E00D911C9148E050E00E94A43AA2E36C
:102A3000B2E00D931C93A0E3B2E00D911C91A2E3D0
:102A4000B2E04D915C91040F151FA0E3B2E00D932D
:102A50001C93A0E3B2E00D911C91A0E2B2E04D9175
:102A60005527040F151FA0E3B2E00D931C93E4EB70
:102A7000F1E80E94403B0E948335E0E3F2E0A0E1F0
:102A8000B1E20E94CE3B0E947B350E948A35ABEBBF
:102A9000B6E00E947B3CA3E2B2E00C93809123025B
:102AA000A0E3B2E0AD90BD90A0EDB3E0AA0DBB1DD8
:102AB0008C93E0E3F2E0A190B190EBE4F0E0EA0D5A
:102AC000FB1DA3E2B2E07BE70E94AE3C80E0809376
:102AD0000C03A3E4B2E0EEEBF1E80E94403B0E945D
:102AE000D13AE0E2F2E0A3E4B2E00E9474350E9441
:102AF000DE3BA3E4B2E00E947435EEECF1E80E9404
:102B0000403B0E94D13AE2E2F2E0A3E4B2E00E944C
:102B100074350E94DE3BA3E4B2E00E947435ECED14
:102B2000F1E80E94403B0E94D13AE1E2F2E0A3E4E6
:102B3000B2E00E9474350E94DE3BA3E4B2E00E9442
:102B40007435EEE1FEE70E94403B0E94D13AA3E4D7
:102B5000B2E00E947435E0E3F2E0A190B190E0EDC4
:102B6000F3E0EA0DFB1D0E946B3C0C94BA1587E064
:102B700080930C030C94BF1586E080930C030C9497
:102B8000C41585E080930C030C94C91584E08093F0
:102B90000C030C94381EE6EEF1E80E94403B0E94C4
:102BA000EB3C11F00C94E81600916606043011F02D
:102BB0000C94E316ACE7B6E00E94233CA1E2B2E03D
:102BC0000C9300912102003080E010F009F081E0C8
:102BD0008F9300912102053081E008F080E09F9101
:102BE0008923882311F40C94DE16A1E9B6E00E9433
:102BF000233CA2E2B2E00C9300912202003080E07C
:102C000010F009F081E08F9300912202053081E0FD
:102C100008F080E09F918923882311F40C94D91641
:102C2000A6EAB6E00E94233CA0E2B2E00C93009139
:102C30002002003080E010F009F081E08F930091D5
:102C40002002093081E008F080E09F9189238823E9
:102C500011F40C94D41680E080930C03A1E2B2E04E
:102C60000D91112701501040A0E3B2E00D931C9389
:102C7000A0E3B2E00D911C9140E250E00E94A43A22
:102C8000A0E3B2E00D931C93A2E2B2E00D911127F4
:102C900001501040A2E3B2E00D931C93A2E3B2E016
:102CA0000D911C9148E050E00E94A43AA2E3B2E0EA
:102CB0000D931C93A0E3B2E00D911C91A2E3B2E04E
:102CC0004D915C91040F151FA0E3B2E00D931C938E
:102CD000A0E3B2E00D911C91A0E2B2E04D91552726
:102CE000040F151FA0E3B2E00D931C93EEEEF1E884
:102CF0000E94403B0E948335E0E3F2E0A0E1B1E2B4
:102D00000E94CE3B0E947B350E948A35A3E4B2E04C
:102D1000E0E5FEE70E94403B0E94D13AE0E2F2E0AB
:102D2000A3E4B2E00E9474350E94DE3BA3E4B2E06B
:102D30000E947435EEECF1E80E94403B0E94D13ACB
:102D4000E2E2F2E0A3E4B2E00E9474350E94DE3BCE
:102D5000A3E4B2E00E947435ECEDF1E80E94403B40
:102D60000E94D13AE1E2F2E0A3E4B2E00E947435BD
:102D70000E94DE3BA3E4B2E00E947435EEE1FEE780
:102D80000E94403B0E94D13AA3E4B2E00E94743515
:102D9000E0E3F2E0A190B190E0EDF3E0EA0DFB1D7D
:102DA0000E946B3C0C94D71687E080930C030C9424
:102DB000DC1686E080930C030C94E11685E080938A
:102DC0000C030C94E61684E080930C030C94381EDC
:102DD000ECEFF1E80E94403B0E94EB3C11F00C94B8
:102DE000461700916606023011F00C944117ACE7CB
:102DF000B6E00E94233CA1E2B2E00C9300912102D4
:102E0000003080E010F009F081E08F930091210202
:102E1000053081E008F080E09F918923882311F438
:102E20000C943C1780E080930C03ACE7B6E00E9462
:102E3000233CA7E8B3E00C93E5E0F0E0A7E8B3E0BB
:102E40007BE70E94AE3CA3E4B2E0E4E0F2E80E943B
:102E5000403B0E94D13AE7E8F3E0A3E4B2E00E94ED
:102E600074350E94DE3B0E948E08709140057260AE
:102E7000709340050C943F1785E080930C030C94ED
:102E8000441784E080930C030C94381EE2E2F2E8CD
:102E90000E94403B0E94EB3C11F00C94691780E0CB
:102EA00080930C03A3E4B2E0E2E7FEE70E94403B1C
:102EB0000E94D13AE7E8F3E0A3E4B2E00E9474355F
:102EC0000E94DE3B7091B20470687093B2040C945F
:102ED000381EEAE2F2E80E94403B0E94EB3C11F00F
:102EE0000C94EC1700916606033011F00C94E71770
:102EF000ACE7B6E00E94233CA1E2B2E00C93009163
:102F00002102003080E010F009F081E08F93009101
:102F10002102053081E008F080E09F918923882319
:102F200011F40C94E21780E080930C03A1E9B6E061
:102F30000E947B3CA1E2B2E0AD90BB24A7E8B3E0E5
:102F4000AA0DBB1D0C93E1E2F2E0A190BB24E5E0E9
:102F5000F0E0EA0DFB1DA1E2B2E0AD90BB24A7E8D2
:102F6000B3E0AA0DBB1D7BE70E94AE3CA3E4B2E038
:102F7000E2E3F2E80E94403B0E94D13AE7E8F3E046
:102F8000A3E4B2E00E9474350E94DE3BA3E4B2E009
:102F90000E947435E2EEF0E80E94403B0E94D13A74
:102FA000A3E4B2E00E947435E1E2F2E0A190BB2418
:102FB000E7E8F3E0EA0DFB1D0E946B3C0E948E08DF
:102FC0000C94E51785E080930C030C94EA1784E0D9
:102FD00080930C030C94381EE0E5F2E80E94403B1D
:102FE0000E94EB3C11F00C944618009166060230EA
:102FF00011F00C94411800912102003080E010F093
:1030000009F081E08F9300912102053081E008F002
:1030100080E09F918923882311F40C943C1880E070
:1030200080930C03A3E4B2E0E8E5F2E80E94403BA1
:103030000E94D13AE7E8F3E0A3E4B2E00E947435DD
:103040000E94DE3BA3E4B2E00E947435ECE6F2E8B5
:103050000E94403B0E94D13AA3E4B2E00E94743542
:10306000E1E2F2E0A190BB24E7E8F3E0EA0DFB1D0A
:103070000E946B3C0C943F1885E080930C030C94E9
:10308000441884E080930C030C94381EE0E7F2E8C7
:103090000E94403B0E94EB3C11F00C94ED18009113
:1030A0006606033011F00C94E818ACE7B6E00E9415
:1030B000233CA4E2B2E00C9300912402003080E0B3
:1030C00010F009F081E08F9300912402053081E037
:1030D00008F080E09F918923882311F40C94E31871
:1030E000A1E9B6E00E94233CACE2B2E00D931D934F
:1030F0002D933D93ACE2B2E00D911D912D913C9149
:10310000A4E2B2E0AD90BB24ADE6B4E0AA0CBB1CD7
:10311000AA0CBB1CAA0DBB1D0D931D932D933C93B4
:10312000E4E2F2E0A190BB24E8ECF0E0AA0CBB1CC6
:10313000AA0CBB1CEA0DFB1DACE2B2E094E07BE7FD
:103140000E94B13C80E080930C03A3E4B2E0E8E786
:10315000F2E80E94403B0E94D13AE4E2F2E0A3E4AC
:10316000B2E00E9474350E94DE3BA3E4B2E00E940C
:103170007435ECEAF0E80E94403B0E94D13AE4E268
:10318000F2E0A190BB24EDE6F4E0AA0CBB1CAA0C73
:10319000BB1CEA0DFB1DA3E4B2E00E9474350E9443
:1031A000D13BE4E2F2E0A190BB24EDE6F4E0AA0C0E
:1031B000BB1CAA0CBB1CEA0DFB1DA1E9B4E00E94DC
:1031C000D13B0C94E61883E080930C030C94EB182D
:1031D00084E080930C030C94381EEEE8F2E80E9421
:1031E000403B0E94EB3C11F00C9494190091660650
:1031F000033011F00C948F19ACE7B6E00E94233C29
:10320000A4E2B2E00C9300912402003080E010F0C0
:1032100009F081E08F9300912402053081E008F0ED
:1032200080E09F918923882311F40C948A19A1E9E5
:10323000B6E00E94233CACE2B2E00D931D932D93C7
:103240003D93ACE2B2E00D911D912D913C91A4E231
:10325000B2E0AD90BB24ADE7B4E0AA0CBB1CAA0C55
:10326000BB1CAA0DBB1D0D931D932D933C93E4E253
:10327000F2E0A190BB24E8EDF0E0AA0CBB1CAA0C84
:10328000BB1CEA0DFB1DACE2B2E094E07BE70E94C0
:10329000B13C80E080930C03A3E4B2E0E8E7F2E8FD
:1032A0000E94403B0E94D13AE4E2F2E0A3E4B2E0A3
:1032B0000E9474350E94DE3BA3E4B2E00E947435A4
:1032C000ECEAF0E80E94403B0E94D13AE4E2F2E0EE
:1032D000A190BB24EDE7F4E0AA0CBB1CAA0CBB1C1C
:1032E000EA0DFB1DA3E4B2E00E9474350E94D13BBD
:1032F000E4E2F2E0A190BB24EDE7F4E0AA0CBB1CF1
:10330000AA0CBB1CEA0DFB1DA1E9B4E00E94D13B55
:103310000C948D1983E080930C030C94921984E033
:1033200080930C030C94381EE6E9F2E80E94403BBF
:103330000E94EB3C11F00C94391A009166060230A1
:1033400011F00C94341AACE7B6E00E94233CA4E2DE
:10335000B2E00C9300912402003080E010F009F0FC
:1033600081E08F9300912402053081E008F080E035
:103370009F918923882311F40C942F1AA3E4B2E0BF
:10338000EEE9F2E80E94403B0E94D13AE4E2F2E02A
:10339000A3E4B2E00E9474350E94DE3BA3E4B2E0F5
:1033A0000E947435ECEAF0E80E94403B0E94D13A5A
:1033B000E4E2F2E0A190BB24EDE6F4E0AA0CBB1C31
:1033C000AA0CBB1CEA0DFB1DA3E4B2E00E947435FD
:1033D0000E94D13B80E080930C03E0E1F0E80E9482
:1033E000403B0E948335E4E2F2E0A0E1B1E20E94BA
:1033F000DE3B0E947B35E8EDFDE70E94403B0E94EA
:103400008335E4E2F2E0A190BB24EDE6F4E0AA0CFF
:10341000BB1CAA0CBB1CEA0DFB1DA0E1B1E20E9483
:10342000D13B0E947B350E948A35E6EAF2E80E9491
:10343000403B0E9483350E948A35E4E2F2E0A1908D
:10344000BB24EDE6F4E0AA0CBB1CAA0CBB1CEA0DE5
:10345000FB1DA1E9B4E00E94D13B0C94321A83E039
:1034600080930C030C94371A84E080930C030C9423
:10347000381EEAEAF2E80E94403B0E94EB3C11F061
:103480000C94DE1A00916606023011F00C94D91AE1
:10349000ACE7B6E00E94233CA4E2B2E00C930091BA
:1034A0002402003080E010F009F081E08F93009159
:1034B0002402053081E008F080E09F918923882371
:1034C00011F40C94D41AA3E4B2E0E2EBF2E80E9407
:1034D000403B0E94D13AE4E2F2E0A3E4B2E00E9471
:1034E00074350E94DE3BA3E4B2E00E947435ECEA3E
:1034F000F0E80E94403B0E94D13AE4E2F2E0A19061
:10350000BB24EDE7F4E0AA0CBB1CAA0CBB1CEA0D23
:10351000FB1DA3E4B2E00E9474350E94D13B80E021
:1035200080930C03E0E1F0E80E94403B0E94833569
:10353000E4E2F2E0A0E1B1E20E94DE3B0E947B35D2
:10354000E8EDFDE70E94403B0E948335E4E2F2E0B3
:10355000A190BB24EDE7F4E0AA0CBB1CAA0CBB1C99
:10356000EA0DFB1DA0E1B1E20E94D13B0E947B3538
:103570000E948A35E6EAF2E80E94403B0E948335C9
:103580000E948A35E4E2F2E0A190BB24EDE7F4E08A
:10359000AA0CBB1CAA0CBB1CEA0DFB1DA1E9B4E0E4
:1035A0000E94D13B0C94D71A83E080930C030C94B7
:1035B000DC1A84E080930C030C94381EEEEBF2E8E6
:1035C0000E94403B0E94EB3C11F00C94511B009177
:1035D0006606023011F00C944C1BACE7B6E00E947A
:1035E000233CA4E2B2E00C9300912402003080E07E
:1035F00010F009F081E08F9300912402053081E002
:1036000008F080E09F918923882311F40C94471BD4
:1036100080E080930C030091240241E0041BA0E2AF
:10362000B2E00C9380912002A0E4B5E00E942B3B15
:103630000E94213B9C91982B9C93A3E4B2E0E6EC82
:10364000F2E80E94403B0E94D13AE4E2F2E0A3E4B7
:10365000B2E00E9474350E94DE3BA3E4B2E00E9417
:103660007435E8EDFDE70E94403B0E94D13AA3E4A7
:10367000B2E00E947435E0E4F5E00E946B3CA1E901
:10368000B4E0E0E4F5E00E946B3C0C944A1B83E05C
:1036900080930C030C944F1B84E080930C030C94D8
:1036A000381EEAEDF2E80E94403B0E94EB3C11F02C
:1036B0000C948F1B00916606023011F00C948A1B4B
:1036C000ACE7B6E00E94233CA9EDB4E00D931D9356
:1036D0002D933D93E4EFF0E0A9EDB4E094E07BE7B7
:1036E0000E94B13CA3E4B2E0E2EEF2E80E94403B6B
:1036F0000E94D13AE9EDF4E0A3E4B2E00E9474350F
:103700000E94D13BE9EDF4E0A1E9B4E00E94D13B95
:103710000C948D1B84E080930C030C94381EEAEF0C
:10372000F2E80E94403B0E94EB3C11F00C94B31B6A
:1037300080E080930C03A3E4B2E0E2E0F3E80E94AF
:10374000403B0E94D13AE9EDF4E0A3E4B2E00E94EC
:1037500074350E94D13BE9EDF4E0A1E9B4E00E94A8
:10376000D13B0C94381EECE0F3E80E94403B0E94F1
:10377000EB3C11F00C94CE1B80E080930C03709115
:10378000B20478607093B204A3E4B2E0E4E1F3E839
:103790000E94403B0E94D13A0C94381EECE1F3E8C1
:1037A0000E94403B0E94EB3C11F00C940B1C0091DA
:1037B0006606023011F00C94061C80E080930C0326
:1037C000ACE7B6E00E94233CA1E4B5E00C93E8EF3F
:1037D000F0E0A1E4B5E07BE70E94AE3CA3E4B2E0F8
:1037E000E4E2F3E80E94403B0E94D13AE1E4F5E0D4
:1037F000A3E4B2E00E9474350E94DE3BE1E4F5E010
:10380000A1E9B4E00E94DE3B0C94091C84E08093A3
:103810000C030C94381EE6E3F3E80E94403B0E9440
:10382000EB3C11F00C942F1C80E080930C03A3E47C
:10383000B2E0EEE3F3E80E94403B0E94D13AE1E4BB
:10384000F5E0A3E4B2E00E9474350E94DE3BE1E4BF
:10385000F5E0A1E9B4E00E94DE3B0C94381EE4E4FC
:10386000F3E80E94403B0E94EB3C11F00C944A1C90
:1038700080E080930C0370912B05706170932B0591
:10388000A3E4B2E0ECE4F3E80E94403B0E94D13AAA
:103890000C94381EE6E5F3E80E94403B0E94EB3CA6
:1038A00011F00C94811C00916606023011F00C940A
:1038B0007C1C80E080930C03ACE7B6E00E94233CC4
:1038C000A2E4B5E00C93E9EFF0E0A2E4B5E07BE719
:1038D0000E94AE3CA3E4B2E0EEE5F3E80E94403B78
:1038E0000E94D13AE2E4F5E0A3E4B2E00E9474352C
:1038F0000E94DE3B0C947F1C84E080930C030C94AC
:10390000381EE4E7F3E80E94403B0E94EB3C11F0D4
:103910000C949F1C80E080930C03A3E4B2E0EEEAD9
:10392000FEE70E94403B0E94D13AE2E4F5E0A3E4C6
:10393000B2E00E9474350E94DE3B0C94381EECE726
:10394000F3E80E94403B0E94EB3C11F00C94E21C17
:1039500000916606023011F00C94DD1CACE7B6E075
:103960000E94233CA3E4B5E00D931C93EAEFF0E042
:10397000A3E4B5E07BE70E94B03C80E080930C03B9
:10398000A3E4B2E0E4E8F3E80E94403B0E94D13AAD
:10399000E3E4F5E0A3E4B2E00E9474350E94CE3B7C
:1039A000E3E4F5E0A1E9B4E00E94CE3B709140056C
:1039B0007260709340050C94E01C84E080930C03CB
:1039C0000C94381EE4EAF3E80E94403B0E94EB3C72
:1039D00011F00C941B1D00916606013011F00C943F
:1039E000161D80E080930C03A3E4B2E0ECEAF3E858
:1039F0000E94403B0E94D13AE3E4F5E0A3E4B2E048
:103A00000E9474350E94CE3BA3E4B2E00E9474355C
:103A1000E0E7FEE70E94403B0E94D13AE3E4F5E094
:103A2000A1E9B4E00E94CE3B0C94191D84E0809380
:103A30000C030C94381EE0ECF3E80E94403B0E941B
:103A4000EB3C11F00C94651D00916606023011F0FC
:103A50000C94601DACE7B6E00E94233CA0E2B2E00B
:103A60000C9300912002023010F00C945B1D80E05A
:103A700080930C0300912002003011F00C94431D40
:103A80005F980C94441D5F9AA3E4B2E0E8ECF3E87D
:103A90000E94403B0E94D13AABE2B0E08C9187FBA0
:103AA000A3E4B2E00E9474350E94313B8D938827D5
:103AB0008C930C945E1D83E080930C030C94631D27
:103AC00084E080930C030C94381EE2EDF3E80E942E
:103AD000403B0E94EB3C11F00C94961D0091660651
:103AE000023011F00C94911D80E080930C03ACE740
:103AF000B6E00E94233CA7E4B5E00D931C93A3E439
:103B0000B2E0EAEDF3E80E94403B0E94D13AE7E4DC
:103B1000F5E0A3E4B2E00E9474350E94CE3B0C9421
:103B2000941D84E080930C030C94381EE2EFF3E8BC
:103B30000E94403B0E94EB3C11F00C94CE1D009182
:103B40006606023011F00C94C91D80E080930C03CE
:103B5000ACE7B6E00E94233CA5E4B5E00D931C93CE
:103B6000ECEFF0E0A5E4B5E07BE70E94B03CA3E415
:103B7000B2E0EAEFF3E80E94403B0E94D13AE5E46C
:103B8000F5E0A3E4B2E00E9474350E94CE3B0C94B1
:103B9000CC1D84E080930C030C94381EE4E1F4E81F
:103BA0000E94403B0E94EB3C11F00C94101E80E000
:103BB00080930C03A3E4B2E0ECE1F4E80E94403B04
:103BC0000E94D13AE5E4F5E0A3E4B2E00E94743546
:103BD0000E94CE3BA3E4B2E00E947435ECE2F4E82C
:103BE0000E94403B0E94D13AE7E4F5E0A3E4B2E052
:103BF0000E9474350E94CE3BA3E4B2E00E9474356B
:103C0000E8E3F4E80E94403B0E94D13AE9E4F5E0A1
:103C1000A3E4B2E00E9474350E94DE3B0C94381E8F
:103C2000E6E4F4E80E94403B0E94EB3C11F00C9467
:103C3000351E80E080930C03ACE7B6E00E94233C85
:103C4000A9E4B5E00C93A3E4B2E0EEE4F4E80E944A
:103C5000403B0E94D13AE9E4F5E0A3E4B2E00E94DF
:103C600074350E94DE3B0C94381E81E080930C0377
:103C70000C943D1E82E080930C0300910C030030F5
:103C800018F011F00C94461E0C94541EE8EBFEE460
:103C90000E94403BACE0B3E08C9199270E940D3B21
:103CA000A3E4B2E00E94D13AA3E4B2E00E947D35E1
:103CB0000E948A35089580E0809320027091390235
:103CC0007F7D7093390200912C05013011F00C9426
:103CD000D41E70912C057E7F70932C05A0E2B2E07B
:103CE0008C918F5F8C93EEE5F4E80E94403B0E943C
:103CF0008335E0E2F2E0A0E1B1E20E94DE3B0E9407
:103D00007B350E948A350E94031F62FA16F40C94D8
:103D1000D21EE8E6F4E80E94403B0E9483350E94F0
:103D20003937A1E1B2E00E947D35E0E7F4E80E9476
:103D3000403B0E9483350E943937A8E0B2E00E94E0
:103D40007D350E948A35E2E0F2E00E947D38A8E2EB
:103D5000B2E00D931D932D933D93A2E8B3E04D91F6
:103D60005D916D917C91A8E2B2E00D911D912D9134
:103D70003C910E94BB3B1CF011F00C94C11E0C94B2
:103D8000C81E709139027062709339020C94D01E73
:103D9000E4E7F4E80E94403B0E9483350E948A35A4
:103DA0000C94D41E0E94D038ABE2B5E08C9180FB1D
:103DB00016F00C94EE1E70912B057E7F70932B05F0
:103DC000EEECFFE70E94403B0E948335ABEFB9E089
:103DD0000E947D350E948A350E94940F0091200236
:103DE0000A3081E009F080E08F93A9E3B2E08C9182
:103DF00085FB81E00EF080E09F91892B882311F4F0
:103E00000C94631E08950E94E73862FA16F40C942D
:103E1000811F10ED0E94FB3810E00E94FB380E94C9
:103E2000E73862FA16F40C94771F11ED0E94FB3804
:103E30000E941A39A2E0B2E01C930E941A39A3E052
:103E4000B2E01C930E941A39A4E0B2E01C930E94D5
:103E50001A39ABE6B3E01C930E941A39A5E0B2E030
:103E60001C930E941A39A6E0B2E01C930E941839F4
:103E7000A7E0B2E01C930E94F33862FA16F00C94AB
:103E80004B1FECE9F4E80E94403B0E9483350E94FE
:103E90008A350C94751F909102020E942D36A2E083
:103EA000B2E08C93909103020E942D36A3E0B2E021
:103EB0008C93909104020E942D36A4E0B2E08C9382
:103EC000909105020E942D36A5E0B2E08C9390916E
:103ED00006020E942D36A6E0B2E08C939091070274
:103EE0000E942D36A7E0B2E08C930C947F1FECEA81
:103EF000F4E80E94403B0E9483350E948A350C946E
:103F0000891FE4EDF4E80E94403B0E9483350E9443
:103F10008A3508950E94E73862FA16F40C94CB1F94
:103F2000809105020E942636A5E0B2E08C93809134
:103F300006020E942636A6E0B2E08C93809107022A
:103F40000E942636A7E0B2E08C9310ED0E94FB3869
:103F500013E00E94FB3810916B030E94FB38109114
:103F600005020E94FB38109106020E94FB38109156
:103F700007020E94FB380E94F33862FA16F00C9494
:103F8000C91FECEFF4E80E94403B0E9483350E9479
:103F90008A350C94D31FECE0F5E80E94403B0E9468
:103FA00083350E948A3508950E94E73862FA16F434
:103FB0000C941120809102020E942636A2E0B2E009
:103FC0008C93809103020E942636A3E0B2E08C938A
:103FD000809104020E942636A4E0B2E08C9310ED9A
:103FE0000E94FB3810E00E94FB38109102020E94F0
:103FF000FB38109103020E94FB38109104020E94CA
:10400000FB380E94F33862FA16F00C940F20EEE2AF
:10401000F5E80E94403B0E9483350E948A350C944B
:104020001920EAE3F5E80E94403B0E9483350E9494
:104030008A35089581E00E949E3A81E00E949E3A6E
:1040400084E00E949E3A209A289881E090E00E94A5
:104050003D36289AEF93FF93ECE9F0E00E94343666
:10406000FF91EF912098EF93FF93ECE9F0E00E942D
:104070003436FF91EF91189B0C948520209A289854
:1040800084E190E00E943D36289AEF93FF93ECE99B
:10409000F0E00E943436FF91EF912098EF93FF9368
:1040A000ECE9F0E00E943436FF91EF91189B0C94FC
:1040B0006620A2EEB4E088278C93ADEEB4E08827AA
:1040C0008C9381E08093F9040C942523EF93FF9364
:1040D000ECE3F1E00E943436FF91EF9118990C94D3
:1040E0008020A2EEB4E088278C93ADEEB4E0882760
:1040F0008C9381E08093F9040C9425230C94832005
:104100008BE08093F8040C94A220EF93FF93ECE3F0
:10411000F1E00E943436FF91EF9118990C949F20A2
:10412000A2EEB4E088278C93ADEEB4E088278C93A0
:1041300081E08093F9040C9425230C94A22086E15D
:104140008093F80480E090E0A2E2B5E08D939C9328
:104150007091B2047D7F7093B2047091B20471606B
:104160007093B204A3E2B0E00C9100FB81E00EF08A
:1041700080E08F93A2EBB4E08C9181FB81E00EF4A0
:1041800080E09F918923882311F40C94C9200C941A
:10419000B220A2EBB4E08C9181FB16F40C940623C0
:1041A00080E08093F90481E0AC81BD818C93AC8187
:1041B000BD810C91053018F011F00C94CF2187E0EF
:1041C000AA81BB818C93AA81BB814C9100E004172A
:1041D00018F011F00C94BC2180E090E0A2E2B5E070
:1041E0008D939C937091B2047D7F7093B204709113
:1041F000B20471607093B204A3E2B0E00C9100FBD2
:1042000081E00EF480E08F93A2EBB4E08C9181FB0F
:1042100081E00EF480E09F918923882311F40C94AF
:1042200013210C94FC20A2EBB4E08C9181FB16F4DA
:104230000C949C21EF93FF93E8E8F0E00E94343661
:10424000FF91EF91189B0C9484216894AA81BB8103
:104250008C91AC81BD81AD90BB24ACEDB4E0AA0DD6
:10426000BB1D0E942B3B0E94213B0C9016F00922A3
:1042700001C0082A0C9280E090E0A2E2B5E08D93A4
:104280009C937091B2047D7F7093B2047091B204DC
:1042900071607093B204A3E2B0E00C9100FB81E086
:1042A0000EF080E08F93A2EBB4E08C9181FB81E073
:1042B0000EF480E09F918923882311F40C946221ED
:1042C0000C944B21A2EBB4E08C9181FB16F00C9482
:1042D0008221A2E4B5E00C9103FB16F00C94782146
:1042E000ECE5F5E80E94403B0E9483350E948A3548
:1042F0007091B2047E7F7093B20484E08093F904DD
:104300000C94BC210C949A21E894AA81BB818C91D5
:10431000AC81BD81AD90BB24ACEDB4E0AA0DBB1D5A
:104320000E942B3B0E94213B0C9016F0092201C0F9
:10433000082A0C920C94B521A2E4B5E00C9103FB81
:1043400016F00C94AB21E2E6F5E80E94403B0E9497
:1043500083350E948A357091B2047E7F7093B204D7
:1043600083E08093F9040C94BC21AA81BB810E9454
:104370001C3510F00C94E3200091F904003018F083
:1043800011F00C94C5210C94C7210C94CF21AC8161
:10439000BD818C918F5F8C9310F40C94D720009189
:1043A000F904003011F00C94F922209A289A009117
:1043B000F804063111F00C94F9210091DD044091CC
:1043C000DE04040FAA81BB810C93AA81BB810C91EE
:1043D0004091DF04040FAA81BB810C93AA81BB81A9
:1043E0000C914091E004040FAA81BB810C930C94C2
:1043F00001220091DD044091DF04040FAA81BB81FA
:104400000C934091E104AA81BB810C91041711F433
:104410000C941F22A2EEB4E0E8E6F5E80E94403BCF
:104420000E94D13AADEEB4E0E8E6F5E80E94403BE8
:104430000E94D13A86E08093F9040C94F72200910F
:10444000F804063111F00C94EB22E6E7FDE70E9438
:10445000403B0E94AE3EEDEDF4E0D080EE24FF2420
:1044600000270E94883D0E94193EEDE0F0E0A881FF
:10447000B9810E94923CEEEDF4E0D080EE24FF245E
:1044800000270E94883D0E945E3DE881F9810E94DC
:10449000543D0E94603EEDE0F0E0A881B9810E94A9
:1044A000923CEAE7FDE70E94403B0E94AE3EE88175
:1044B000F9810E94543D0E94C03DEDE0F0E0A881EA
:1044C000B9810E94923CA0E1B1E2AF93BF93E88131
:1044D000F9810E94543D0E944C3611E001E0BF91E9
:1044E000AF910E946E3BE0E1F1E2ADEEB4E00E94DC
:1044F0008D3CAFEDB4E00C9107FB16F00C948F22CD
:10450000AFEDB4E08C918F778C93A2EEB4E0EEE641
:10451000F5E80E94403B0E94D13A0C949322A2EE0F
:10452000B4E088278C93E6E7FDE70E94403B0E94B9
:10453000AE3EEFEDF4E0D080EE24FF2400270E9491
:10454000883D0E94193EEDE0F0E0A881B9810E940B
:10455000923CE0EEF4E0D080EE24FF2400270E949D
:10456000883D0E945E3DE881F9810E94543D0E9491
:10457000603EEDE0F0E0A881B9810E94923CEAE75C
:10458000FDE70E94403B0E94AE3EE881F9810E9417
:10459000543D0E94C03DEDE0F0E0A881B9810E9449
:1045A000923CA0E1B1E2AF93BF93E881F9810E9410
:1045B000543D0E944C3611E001E0BF91AF910E9442
:1045C0006E3BE0E1F1E2A2EEB4E00E9474350E949D
:1045D0008D3C0C94F722EFEDF4E0A2EEB4E00E94E3
:1045E000DE3BEDEDF4E0ADEEB4E00E94DE3B0C947A
:1045F0000423A2EEB4E088278C93ADEEB4E08827C4
:104600008C9385E08093F9040C942523A2E4B5E013
:104610000C9103FB16F00C941523E0E7F5E80E94DB
:10462000403B0E9483350E948A357091B2047E7FA0
:104630007093B204A2EEB4E088278C93ADEEB4E0A0
:1046400088278C9382E08093F90486E0481A80E002
:10465000580A2696089580E08093380270913902B6
:104660007F7770933902A8E3B2E08C918F5F8C93CF
:10467000E6E7F5E80E94403B0E948335E8E3F2E07C
:10468000A0E1B1E20E94DE3B0E947B350E948A35A8
:1046900084E690E0A1E3B5E08D939C9380E090E008
:1046A000AFE2B5E08D939C9370912B05706270938F
:1046B0002B0570912B057F7B70932B05ABE2B5E04A
:1046C0008C9182FB16F00C94782370912B057B7FE4
:1046D00070932B05E2E8F5E80E94403B0E94833589
:1046E000A9EDB5E00E947D350E948A350E94EA233B
:1046F000ABE2B5E08C9180FB16F00C9492237091A4
:104700002B057E7F70932B05EEECFFE70E94403B6C
:104710000E948335ABEFB9E00E947D350E948A3557
:104720000E94940FA9E3B2E08C9187FB81E00EF028
:1047300080E08F93ABE2B5E08C9186FB81E00EF0D8
:1047400080E09F91892B882311F40C945E23709153
:104750002B057F7D70932B05A9E3B2E08C9187FB3D
:1047600016F40C94CB23E0E1F0E80E94403B0E9459
:104770008335A3E4B2E00E947D350E948A35E0E1F2
:10478000F0E80E94403B0E949C35A3E4B2E00E9406
:1047900096350E94A335A9E3B2E08C9187FB81E0B6
:1047A0000EF080E08F9300913802033081E009F031
:1047B00080E09F91892B882311F40C94332370910E
:1047C0002B057F7D70932B05709139027F77709355
:1047D00039020895E9EDF5E09BE304E132E2A7E652
:1047E000B6E00E941F3DA6E6B6E02C930091660657
:1047F000003018F011F00C94FF230C940724E7E626
:10480000F6E0ACE3B2E00E948D3C0C940D24E9ED9F
:10481000F5E0ACE3B2E00E948D3CACE3B2E0EEE741
:10482000FDE70E94403B0E94EB3C11F00C942524D4
:104830007091390270687093390280E090E0A7E4CB
:10484000B5E08D939C930C948524EAE8F5E80E94EA
:10485000403B0E94EB3C11F00C943B2470913902D8
:104860007F777093390280E090E0A7E4B5E08D9304
:104870009C930C948524EEE8F5E80E94403B0E944E
:10488000EB3C11F00C94492480E0809349050C9492
:104890008524E2E9F5E80E94403B0E94EB3C11F0E0
:1048A0000C945924A9E4B5E08C918F5F8C930C94FF
:1048B0008524E8E9F5E80E94403B0E94EB3C11F0BA
:1048C0000C947D2480E090E0A7E4B5E08D939C9368
:1048D00070912B05716070932B05ECE7F6E0ABEF60
:1048E000B9E00E948D3CE0EAF5E80E94403B0E945E
:1048F00083350E948A350C948524ECEAF5E80E9401
:10490000403B0E9483350E948A350895E8EBF5E824
:104910000E94403B0E948335E881F981A0E1B1E229
:104920000E94DE3B0E947B35EEEBF5E80E94403BA7
:104930000E9483350E943937A1E1B2E00E947D35A3
:10494000E8EDFDE70E94403B0E9483350E94393725
:10495000A8E0B2E00E947D350E948A35A881B98125
:104960000C91013011F00C94B9240E94DA240C94BB
:10497000D924023011F00C94C1240E9408260C9412
:10498000D924033011F00C94C9240E9406270C94FA
:10499000D924043011F00C94D1240E9407270C94E0
:1049A000D924E0ECF5E80E94403B0E9483350E9448
:1049B0008A3508950E943937E8E0F2E0ACE6B3E0CA
:1049C0000E948D3C0E943937E1E1F2E0A7E7B3E0B5
:1049D0000E948D3CA3E4B2E0EEECF5E80E94403B7F
:1049E0000E94D13AECE6F3E0A3E4B2E00E94743511
:1049F0000E948D3CA3E4B2E00E947435E8EDFDE72F
:104A00000E94403B0E94D13AE7E7F3E0A3E4B2E022
:104A10000E9474350E948D3CA3E4B2E00E9474357C
:104A2000E8EDFDE70E94403B0E94D13AE4E5F3E067
:104A3000A3E4B2E00E9474350E948D3CA3E4B2E08E
:104A40000E947435E2EDF5E80E94403B0E94D13AA5
:104A5000A3E4B2E00E947435E8EDFDE70E94403B1C
:104A60000E94D13AA8E2B0E08C9180FBA3E4B2E0CE
:104A70000E9474350E94313B8D9388278C93A3E468
:104A8000B2E00E947435E8EDFDE70E94403B0E94D1
:104A9000D13AA8E2B0E08C9181FBA3E4B2E00E949D
:104AA00074350E94313B8D9388278C93A3E4B2E048
:104AB0000E947435E8EDFDE70E94403B0E94D13A28
:104AC000A8E2B0E08C9182FBA3E4B2E00E947435CE
:104AD0000E94313B8D9388278C93A3E4B2E00E941F
:104AE0007435E8EDFDE70E94403B0E94D13AA8E210
:104AF000B0E08C9183FBA3E4B2E00E9474350E9485
:104B0000313B8D9388278C93A3E4B2E00E947435E7
:104B1000E8EDFDE70E94403B0E94D13AA8E2B0E0F8
:104B20008C9184FBA3E4B2E00E9474350E94313B77
:104B30008D9388278C93A3E4B2E00E947435E8ED4E
:104B4000FDE70E94403B0E94D13AA8E2B0E08C9180
:104B500085FBA3E4B2E00E9474350E94313B8D9343
:104B600088278C93A3E4B2E00E947435E6EDF5E863
:104B70000E94403B0E94D13AA3E4B2E00E94E53C8F
:104B8000A0E3B2E08D9388278C93A0E3B2E0ED918F
:104B9000FC91A3E4B2E00E94FF3CA4E3B2E00D93D9
:104BA0001D932D933D93A3E4B2E00E947435EAED8A
:104BB000F5E80E94403B0E94D13AE4E3F2E0A3E42E
:104BC000B2E00E9474350E94563C8AE0A3E4B2E051
:104BD0000E9474358D9388278C93E0E1F0E80E9461
:104BE000403B0E948335A3E4B2E00E947D350E94E1
:104BF0008A35E0E1F0E80E94403B0E949C35A3E446
:104C0000B2E00E9496350E94A3350E942B2308959E
:104C10000E943937E8E0F2E0ACE6B3E00E948D3C58
:104C20000E943937E1E1F2E0A7E7B3E00E948D3C52
:104C3000A3E4B2E0ECEDF5E80E94403B0E94D13ADB
:104C4000ECE6F3E0A3E4B2E00E9474350E948D3CF0
:104C5000A3E4B2E00E947435E8EDFDE70E94403B1A
:104C60000E94D13AE7E7F3E0A3E4B2E00E94743592
:104C70000E948D3CA3E4B2E00E947435E8EDFDE7AC
:104C80000E94403B0E94D13AE4E5F3E0A3E4B2E0A5
:104C90000E9474350E948D3CA3E4B2E00E947435FA
:104CA000E0EEF5E80E94403B0E94D13AA3E4B2E076
:104CB0000E947435E8EDFDE70E94403B0E94D13A26
:104CC000EDEEF4E0A3E4B2E00E9474350E948D3C66
:104CD000A3E4B2E00E947435E8EDFDE70E94403B9A
:104CE0000E94D13AE2EEF4E0A3E4B2E00E9474350F
:104CF0000E948D3CA3E4B2E00E947435E8EDFDE72C
:104D00000E94403B0E94D13AE3E4F5E0A3E4B2E024
:104D10000E9474350E94CE3BA3E4B2E00E94743539
:104D2000E8EDFDE70E94403B0E94D13AE5E4F5E062
:104D3000A3E4B2E00E9474350E94CE3BA3E4B2E04B
:104D40000E947435E8EDFDE70E94403B0E94D13A95
:104D5000E7E8F3E0A3E4B2E00E9474350E94DE3B92
:104D6000A3E4B2E00E947435E4EEF5E80E94403B13
:104D70000E94D13AA3E4B2E00E94E53CA0E3B2E095
:104D80008D9388278C93A0E3B2E0ED91FC91A3E48E
:104D9000B2E00E94FF3CA4E3B2E00D931D932D937B
:104DA0003D93A3E4B2E00E947435EAEDF5E80E9479
:104DB000403B0E94D13AE4E3F2E0A3E4B2E00E9477
:104DC00074350E94563C8AE0A3E4B2E00E94743538
:104DD0008D9388278C93E0E1F0E80E94403B0E948D
:104DE0008335A3E4B2E00E947D350E948A35E0E17C
:104DF000F0E80E94403B0E949C35A3E4B2E00E9490
:104E000096350E94A3350E942B2308950895089596
:104E1000A7E4B5E00E942D35A7E4B5E00D911C9103
:104E200048E552E00E945A35A7E4B5E00D931C9383
:104E3000A7E4B5E00D911C91003050E0150711F08A
:104E40000C945B27E8EEF5E80E94403B0E94833516
:104E50000E948A35A5E4B5E00E942D35ECEFF0E024
:104E6000A5E4B5E07BE70E94B03CE2EFF5E80E94E4
:104E7000403B0E948335E5E4F5E0A0E1B1E20E9409
:104E8000CE3B0E947B350E948A355F98ECEFF5E8B7
:104E90000E94403B0E9483350E948A35E1E0F0E0A9
:104EA0000E94BC355F9AE6E0F6E80E94403B0E9413
:104EB00083350E948A3508954F4B00436F6D616EB4
:104EC000646F206E6F207265636F6E6F6369646FCD
:104ED000004C6F6E676974756420636F6D616E64FA
:104EE0006F206E6F2076616C696461004E756D6530
:104EF000726F206465207573756172696F206E6FC3
:104F00002076616C69646F004E756D65726F206408
:104F10006520706172616D6574726F7320696E7661
:104F2000616C69646F004572726F72206C6F6E679E
:104F30006974756420706172616D6574726F20317F
:104F4000004572726F72206C6F6E676974756420B1
:104F5000706172616D6574726F20320050617261B0
:104F60006D6574726F206E6F2076616C69646F007E
:104F70004552524F5238004552524F522053442E00
:104F800020496E74656E7465206465206E75657663
:104F90006F00000000000300000033000000330336
:104FA0000000333300003333030033C00C00FF0F25
:104FB000FF0F5555555533333333FFFFFFFF0C00BB
:104FC000FCFFCC00FCFFCC0CFCFFCCCCFCFF0C00AD
:104FD000FCFFF0FFFFFF00010204081020408000EA
:104FE0004C756E6573004D6172746573004D696533
:104FF00072636F6C6573004A7565766573005669F8
:1050000065726E65730053616261646F00446F6D19
:10501000696E676F004E6F2076616C00408000AA59
:10502000840018F8AA02F8E000AA0100E0F8AA0239
:10503000F8E000AA0100E0F8AA02F81800AA0200AD
:1050400080F0F8AA04F8F08000AA030038AA033818
:10505000F8AA03F838AA033800AA010080E0F0F8A3
:105060007838AA013878F8F0704000AA0200F8AA4F
:1050700003F800AA0400F8AA03F800AA0200F8AA9C
:1050800003F800AA0200F8AA02F8F0E08000AA03E0
:1050900000F8AA02F800AA020080E0F0AA01F07865
:1050A00038AA023878F8F0704000AA0C00037FFF9D
:1050B000AA01FFF8FE7F0F010F7FFEF8FFAA01FF94
:1050C0007F0300AA0100E0FCFFAA01FF7F77707751
:1050D0007FFFAA01FFFCE000AA0500FFAA03FF0072
:1050E000AA05001F7FFFAA01FFE0C0AA01C0E0F8E7
:1050F000AA01F8703000AA0200FFAA03FF07AA0461
:1051000007FFAA03FF00AA0200FFAA03FF00AA02EA
:1051100000FFAA02FF0001070F1E78F0FFAA02FF9E
:1051200000AA02001F7FFFAA01FFE0C0AA01C0CEB3
:10513000EEFEAA02FE7E00AA0E0001AA030100AA4A
:10514000040001AA030100AA020001AA030100AAA7
:10515000060001AA030100AA040001AA030100AA93
:10516000080001AA050100AA050001AA030100AA7E
:10517000040001AA030100AA020001AA030100AA77
:10518000020001AA020100AA060001AA020100AA67
:10519000060001AA050100AA2C00C0F0F8AA01F837
:1051A00038AA0138F8AA01F8F0E000AA0200C0F01D
:1051B000AA01F0F838AA0138F8F0AA01F0C000AA54
:1051C000030080C0AA01C0E0F8AA03F800AA030007
:1051D000E0F0F8AA01F838AA0138F8F0AA01F0C006
:1051E00000AA4E0080E0F0F8FCDECFAA01CFC7C1D4
:1051F00000AA02003FFFAA02FFC0AA01C0FFAA0244
:10520000FF3F00AA03000301AA010100FFAA03FF58
:1052100000AA030063E7EFAA01EFCEE6FFAA01FFB1
:105220007F3F00AA4E0001AA090100AA050001AAB9
:10523000030100AA0A0001AA030100AA050001AAAD
:10524000040100AAAE0001080802000000000000EE
:1052500000000000065F06000000000703000703CF
:10526000000000247E247E24000000242B6A12000B
:1052700000000063130864630000003649562050A4
:105280000000000007030000000000003E41000095
:1052900000000000413E0000000000083E1C3E08E7
:1052A00000000008083E080800000000E060000060
:1052B0000000000808080808000000006060000006
:1052C00000000020100804020000003E5149453E45
:1052D00000000000427F4000000000625149494642
:1052E00000000022494949360000001814127F10BE
:1052F0000000002F494949310000003C4A4949302B
:1053000000000001710905030000003649494936D3
:10531000000000064949291E000000006C6C0000D6
:1053200000000000EC6C00000000000814224100A6
:10533000000000242424242400000000412214083A
:1053400000000002015909060000003E415D551EA3
:105350000000007E1111117E0000007F494949368E
:105360000000003E414141220000007F4141413E9A
:105370000000007F494949410000007F09090901F7
:105380000000003E4149497A0000007F0808087F7C
:1053900000000000417F4100000000304040403FDD
:1053A0000000007F081422410000007F4040404080
:1053B0000000007F0204027F0000007F0204087FDB
:1053C0000000003E4141413E0000007F09090906FE
:1053D0000000003E4151215E0000007F090919666E
:1053E000000000264949493200000001017F010107
:1053F0000000003F4040403F0000001F2040201FB1
:105400000000003F403C403F00000063140814636C
:1054100000000007087008070000007149454300BC
:10542000000000007F41410000000002040810203D
:105430000000000041417F0000000004020102045E
:105440000000808080808080808000000307000052
:1054500000000020545454780000007F4444443835
:105460000000003844444428000000384444447F8D
:105470000000003854545408000000087E09090058
:1054800000000018A4A4A47C0000007F040478009D
:1054900000000000007D40000000004080847D008E
:1054A0000000007F1028440000000000007F400042
:1054B0000000007C041804780000007C04047800DC
:1054C0000000003844444438000000FC44444438A0
:1054D00000000038444444FC0000004478440408C0
:1054E0000000000854545420000000043E442400EE
:1054F0000000003C40207C000000001C2040201CDC
:105500000000003C6030603C0000006C10106C003B
:105510000000009CA0603C000000006454544C005B
:10552000000000083E41410000000000007700003C
:105530000000000041413E0800000002010201009D
:105540000000003C2623263C0000001EA1E12112A1
:105550000000003D40207D000000003854545509F3
:10556000000000205555557800000020555455780E
:1055700000000020555554780000002057555778FA
:105580000000001CA2E22214000000385555550806
:10559000000000385554550800000038555554088F
:1055A00000000000017C4100000000000279420080
:1055B00000000000017C40000000007029242970D8
:1055C000000000782F252F780000007C54545545AA
:1055D00000000034547C54580000007E097F494983
:1055E00000000038454539000000003845443900C6
:1055F00000000039454438000000003C41217D0096
:105600000000003D41207C000000009CA1603D00A6
:105610000000003D42423D000000003C41403D0092
:105620000000001824662400000000483E4949623A
:10563000000000292A7C2A290000007F0916781022
:1056400000000040887E0902000000205455557873
:1056500000000000007D4100000000384445390092
:105660000000003C40217D000000007A090A710022
:105670000000007A11227900000000085555555E9F
:105680000000004E51514E0000000030484D4020B7
:105690000000003C04040404000004040404041C8E
:1056A00000000017084C6A500000001708342A78E0
:1056B00000000000307D30000000000814000814D5
:1056C00000000014080014080000441144114411A3
:1056D0000000AA55AA55AA550000BBEEBBEEBBEED2
:1056E0000000000000FF00000000080808FF0000A4
:1056F00000000A0A0AFF0000000008FF00FF000087
:10570000000008F808F8000000000A0A0AFE00007D
:1057100000000AFB00FF0000000000FF00FF000087
:1057200000000AFA02FE000000000A0B080F000049
:105730000000080F080F000000000A0A0A0F00000E
:105740000000080808F8000000000000000F08082A
:1057500000000808080F08080000080808F80808F2
:105760000000000000FF08080000080808080808FA
:105770000000080808FF08080000000000FF0A0AEF
:10578000000000FF00FF08080000000F080B0A0AD5
:10579000000000FE02FA0A0A00000A0B080B0A0ABF
:1057A00000000AFA02FA0A0A000000FF00FB0A0AD7
:1057B00000000A0A0A0A0A0A00000AFB00FB0A0A99
:1057C00000000A0A0A0B0A0A0000080F080F08085E
:1057D00000000A0A0AFA0A0A000008F808F808088D
:1057E0000000000F080F080800000000000F0A0A60
:1057F0000000000000FE0A0A000000F808F808088F
:10580000000008FF00FF080800000A0A0AFB0A0A55
:1058100000000808080F00000000000000F8080859
:105820000000FFFFFFFFFFFF0000F0F0F0F0F0F0DE
:105830000000FFFFFF0000000000000000FFFFFF6E
:1058400000000F0F0F0F0F0F000000182424182462
:10585000000000FE4A4A34000000007F01010300FE
:10586000000000027E027E020000006355496300D2
:105870000000001824241C04000000FC20201C0050
:10588000000000080478040000000008557755085F
:105890000000003E49493E000000004C7202724C7C
:1058A0000000002255593000000000182418241868
:1058B00000000018247E24180000001C2A2A2A0058
:1058C0000000003C02023C000000002A2A2A2A00B4
:1058D00000000000242E2400000000514A4A440029
:1058E000000000444A4A51000000000000FC02048D
:1058F00000000020403F000000000008082A0808BF
:10590000000000241224120000000006090906000D
:10591000000000001818000000000000080000004F
:1059200000000030403E0202000000010E010E00A7
:10593000000000090D0A00000000003C3C3C3C0057
:105940000000020C1802000000000000000000002F
:105950000000000000000000000000000000000047
:1059600000007CFFFF7C000000000000000000330E
:105970003300000000000000263E1E0000263E1EF0
:105980000000000000000000000000000000000017
:105990000010F0FE1E10F0FE1E100000021E1F037D
:1059A000021E1F030000000078FCCCFFFFCCCC8857
:1059B00000000000040C0C3F3F0C0F07000000002B
:1059C000386C6C3880C0E070381C0000181C0E0762
:1059D00003011C36361C000000B8FCC6E23E1C0069
:1059E000000000001F3F3121371E1C36220000003E
:1059F0000000263E1E000000000000000000000025
:105A0000000000000000000000F0FCFE07010100A3
:105A10000000000000030F1F3820200000000000DD
:105A200000010107FEFCF00000000000002020380B
:105A30001F0F0300000000000098B8E0F8F8E0B87D
:105A400098000000000C0E030F0F030E0C00000066
:105A500000808080F0F08080800000000001010163
:105A60000F0F010101000000000000000000000015
:105A7000000000000000004C7C3C00000000000022
:105A80000080808080808080800000000001010113
:105A90000101010101000000000000000000000001
:105AA000000000000000003838380000000000004E
:105AB00000000080C0E070381C0E00001C0E0703C0
:105AC0000100000000000000F8FE0683C363331EDF
:105AD000FEF80000071F1B31303030181F07000090
