:100000000C947200189500001895000018950000D7
:10001000189500001895000018950000189500002C
:10002000189500001895000018950000189500001C
:100030001895000018950000189500000C944D05C7
:1000400018950000189500001895000018950000FC
:100050000C94200318950000189500000C94510290
:10006000189500000C940D011895000018950000DB
:1000700018950000189500001895000018950000CC
:1000800018950000189500001895000018950000BC
:100090000C949F0118950000189500001895000019
:1000A000189500001895000018950000189500009C
:1000B000189500001895000018950000189500008C
:1000C000189500001895000018950000189500007C
:1000D000189500001895000018950000189500006C
:1000E000189500008FEF8DBFC0EBE8E24E2E81E245
:1000F0008EBFD1E2F1E25F2EA89584B7082E882743
:1001000084BF88E199278093600090936000EEEFB0
:10011000FFE1A0E0B2E088278D933197E9F787E609
:100120008093C40080E08093C50088E18093C10083
:100130006624279A389A399A3A9A3B9A3C9A3D9A79
:100140003E9A3F9A70910A01716070930A01709112
:100150000A01726070930A0170910A0174607093D1
:100160000A01219A229A239A289A209A5F9A579AEA
:10017000089809980A980B98109A119A129A139A4B
:1001800085E085BD80E084BD70916E0071607093E4
:100190006E0085E085BD80E08093800085E08093DF
:1001A000810070916F00716070936F0085E08093A3
:1001B000810087E08093B10080E08093B00070916F
:1001C000700071607093700087E08093B10070914F
:1001D000C10070687093C10087E68093CC0080E016
:1001E0008093CD007091C8007D7F7093C80086E039
:1001F0008093CA0088E18093C9007091C90070683B
:100200007093C90070E07093B9007CE07093B800FF
:100210000E94A14C78940C947D430F921F922F92D0
:100220003F924F925F927F92AF92BF920F931F9334
:100230002F933F934F935F936F937F938F939F93EE
:10024000AF93BF93CF93DF93EF93FF938FB78F93CA
:100250008BB78F9388278BBFA3ECBAE08091C60041
:100260008C9384E2482F0091C30A041711F00C9478
:10027000440170911306726070931306AAEFB9E0FF
:1002800088278C930C9481010D3011F00C94690136
:10029000A3E1B6E08C9181FB16F00C94670170919C
:1002A00013067D7F7093130680E0AAEFB9E00E94E9
:1002B000F1488D9388278C93EAEFF9E0A4ECBAE03B
:1002C0000E940A50709113067160709313060C948B
:1002D00081010F3118F011F00C9470010C94810120
:1002E000A3E1B6E08C9181FB16F00C948101A3ECA4
:1002F000BAE08C91AAEFB9E00E94F1488D9388276B
:100300008C938F918BBF8F918FBFFF91EF91DF9176
:10031000CF91BF91AF919F918F917F916F915F919D
:100320004F913F912F911F910F91BF90AF907F9070
:100330005F904F903F902F901F900F9018950F92C5
:100340001F922F923F924F925F927F92AF92BF92F5
:100350000F931F932F933F934F935F936F937F93CD
:100360008F939F93AF93BF93CF93DF93EF93FF93BD
:100370008FB78F938BB78F9388278BBFA4E1B6E09D
:100380008091CE008C9385E2482F009114060417CB
:1003900011F00C94D60170911306786070931306D7
:1003A000A5E1B6E088278C930C9433020D3011F050
:1003B0000C940B02A3E1B6E08C9183FB16F00C9435
:1003C000090270911306777F7093130680E0A5E110
:1003D000B6E00E94F1488D9388278C93E5E1F6E022
:1003E000A2EAB6E00E940A50A2EAB6E0E2EAF4EA23
:1003F0000E94BD4E0E947D5011F00C940402709139
:1004000038027064709338027091130674607093B0
:1004100013060C9433020F3118F011F00C941202F1
:100420000C943302A3E1B6E08C9183FB16F00C949C
:100430003302A4E1B6E08C91A5E1B6E00E94F14858
:100440008D9388278C93A5E1B6E00E947750082F02
:100450000C3818F011F00C942F020C943302A5E123
:10046000B6E088278C938F918BBF8F918FBFFF91C0
:10047000EF91DF91CF91BF91AF919F918F917F913C
:100480006F915F914F913F912F911F910F91BF906D
:10049000AF907F905F904F903F902F901F900F9064
:1004A00018950F921F922F923F924F925F927F92D8
:1004B000AF92BF920F931F932F933F934F935F93EE
:1004C0006F937F938F939F93AF93BF93CF93DF935C
:1004D000EF93FF938FB78F938BB78F9388278BBF43
:1004E00074E676BDA5E2B5E08C918F5F8C93A5E2B2
:1004F000B5E00C9148E00E9467508C93009125056F
:10050000003011F00C94B702A6E2B5E00C9140E285
:100510000E9467508C93E6E4F4E70E94BD4EABE284
:10052000B5E08C919927A7E2B5E00E94744E8091C6
:100530002605A7E2B5E00E94A84E0E949E4E0C90B0
:100540000822689409F4E894A2E2B5E08C9186F957
:100550008C93A2E2B5E08C9186FBA5E2B0E08C9191
:1005600087F98C93A6E2B5E08C918F5F8C93A2E221
:10057000B5E08C9187FB16F00C94DD02A3E2B5E0A8
:100580000E94AA48A3E2B5E00D911C9149EF51E009
:100590000E94D748A3E2B5E00D931C93A3E2B5E017
:1005A0000D911C91003050E0150711F00C94DD0204
:1005B00070916E04716070936E04A2E2B5E08C914C
:1005C00084FB16F00C94FC02AFE2B5E00E94AA484E
:1005D000A1E3B5E04D915C91AFE2B5E00D911C91C6
:1005E0000417150711F00C94FA027091220570623D
:1005F000709322050C94020380E090E0AFE2B5E036
:100600008D939C938F918BBF8F918FBFFF91EF91B3
:10061000DF91CF91BF91AF919F918F917F916F911A
:100620005F914F913F912F911F910F91BF90AF908C
:100630007F905F904F903F902F901F900F90189554
:100640000F921F922F923F924F925F927F92AF92A2
:10065000BF920F931F932F933F934F935F936F938B
:100660007F938F939F93AF93BF93CF93DF93EF933A
:10067000FF938FB78F938BB78F9388278BBF87EFAD
:1006800092EC909385008093840070912C057160AA
:1006900070932C050E94B64AE8E0F2E0FA93EA93E0
:1006A000E1E1F2E00E94434CA3E3B5E00D931D931A
:1006B0002D933D93A3E3B5E00E949D48E3E3F5E06D
:1006C000A1E1B2E00E94334C0E94C94AE3E3F5E0A5
:1006D000A8E0B2E00E943B4C0E94C14A0E94B64A88
:1006E000E1E1F2E0A3E6B4E00E940A50E3E6F4E0C0
:1006F0000E94CE4BA7E3B5E00D931D932D933D9340
:1007000081E080933B0500913B05043018F011F027
:100710000C94B603ABE3B5E0AD90BB24AFE4B4E01A
:10072000AA0CBB1CAA0CBB1CAA0DBB1D4D915D9154
:100730006D917C91A7E3B5E00D911D912D913C91B8
:100740000E94384F11F00C94AE0370913802716022
:100750007093380280913B0580936F04ABE3B5E062
:100760008C918F5F8C9310F40C948303A3E3B5E01A
:100770000D911D912D913C91A9EDB4E04D915D91AC
:100780006D917C910E944449ACE3B5E00D931D93BB
:100790002D933D9340E050E060E070E0ACE3B5E0C5
:1007A0000D911D912D913C910E94384F11F00C94A8
:1007B000DE0370916E04746070936E04A3E3B5E081
:1007C0000D911D912D913C91A1E4B5E04C915527DF
:1007D000662777270E944449ACE3B5E00D931D934B
:1007E0002D933D9340E050E060E070E0ACE3B5E075
:1007F0000D911D912D913C910E94384F11F00C9458
:1008000006047091220578607093220581E0809340
:100810003B0200913B02043018F011F00C94750477
:10082000A3E3B5E00D911D912D913C91ABE3B2E0B6
:10083000AD90BB24AEE7B4E0AA0CBB1CAA0CBB1C59
:10084000AA0DBB1D4D915D916D917C910E94334F1E
:10085000ACE3B5E00D931D932D933D93ACE3B5E070
:100860000D911D912D913C91ABE3B2E0AD90BB2475
:10087000AEE6B4E0AA0CBB1CAA0CBB1CAA0DBB1DA7
:100880004D915D916D917C910E944449ACE3B5E03E
:100890000D931D932D933D9300913B0241E0041B6A
:1008A000AAE3B2E00C9340E050E060E070E0ACE31B
:1008B000B5E00D911D912D913C910E94384F11F0A2
:1008C0000C946D0480913A02A0E4B5E00E94A84E19
:1008D0000E949E4E9C91982B9C93ABE3B2E08C912E
:1008E0008F5F8C9310F40C940904A6EBB4E08C9108
:1008F0008F5F8C93A6EBB4E00C9141E00E946750AF
:100900008C930091B604003011F00C948C0470911B
:100910006E04706270936E04ABEFB4E08C918F5FE5
:100920008C93ABEFB4E00C9145E00E9467508C9340
:100930000091FB04003011F00C94A30470916E043C
:10094000726070936E04A8E3B2E08C9182FB16F0A3
:100950000C94CB04AFECB3E00E94AA48AFECB3E038
:100960000D911C91ADECB3E04D915C910E94D74884
:10097000AFECB3E00D931C93AFECB3E00D911C9181
:10098000003050E0150711F00C94CB047091380240
:10099000726070933802A2E2B5E08C9181FB16F090
:1009A0000C942C05A2E2B5E08C9180FB16F00C941F
:1009B000FF04AFE0B6E00E94AA48AFE0B6E00D91B8
:1009C0001C91ABE0B6E04D915C910E94D748AFE03E
:1009D000B6E00D931C93AFE0B6E00D911C91003092
:1009E00050E0150711F00C94FF0470911306706825
:1009F00070931306709122057E7F70932205A3E108
:100A0000B6E08C9187FB16F00C942C05A1E1B6E0C2
:100A10000E94AA48A1E1B6E00D911C91ADE0B6E0BC
:100A20004D915C910E94D748A1E1B6E00D931C93D3
:100A3000A1E1B6E00D911C91003050E0150711F0D6
:100A40000C942C05709122057160709322057091B1
:100A500013067F77709313068F918BBF8F918FBF93
:100A6000FF91EF91DF91CF91BF91AF919F918F91C6
:100A70007F916F915F914F913F912F911F910F91B6
:100A8000BF90AF907F905F904F903F902F901F90BE
:100A90000F9018950895089508950F921F922F9220
:100AA0003F924F925F927F92AF92BF920F931F93AC
:100AB0002F933F934F935F936F937F938F939F9366
:100AC000AF93BF93CF93DF93EF93FF938FB78F9342
:100AD0008BB78F9388278BBF74E67093B200A7E51E
:100AE000B5E08C918F5F8C93A7E5B5E00C914AE05F
:100AF0000E9467508C9300915705003011F00C94C0
:100B0000630700274427A0E2B0E08C9180FB00F946
:100B1000A2E7B5E08C9180FB40F9042700FBA2E23C
:100B2000B5E08C9182F98C93A2E2B5E08C9182FBC6
:100B3000AFE8B5E08C9180F98C9300274427A0E2C0
:100B4000B0E08C9181FB00F9A2E7B5E08C9181FBCC
:100B500040F9042700FBA2E2B5E08C9182F98C9366
:100B6000A2E2B5E08C9182FBAFE8B5E08C9181F90F
:100B70008C9300274427A0E2B0E08C9182FB00F91F
:100B8000A2E7B5E08C9182FB40F9042700FBA2E2CA
:100B9000B5E08C9182F98C93A2E2B5E08C9182FB56
:100BA000AFE8B5E08C9182F98C9300274427A0E24E
:100BB000B0E08C9183FB00F9A2E7B5E08C9183FB58
:100BC00040F9042700FBA2E2B5E08C9182F98C93F6
:100BD000A2E2B5E08C9182FBAFE8B5E08C9183F99D
:100BE0008C9381E08093420500914205043018F017
:100BF00011F00C9463070091420541E0041BA3E44B
:100C0000B5E00C93A2E4B5E0AD90BB24AFE8B5E04D
:100C1000AA0DBB1D0C91003011F00C942B06809195
:100C20004305AFE8B5E00E94A84E0E949E4E0C908E
:100C30000822689409F4E89416F40C94290682E0DA
:100C4000A2E4B5E0AD90BB24AFE8B5E0AA0DBB1DB2
:100C50008C930C945B07013011F00C944B0680913F
:100C60004305AFE8B5E00E94A84E0E949E4E0C904E
:100C70000822689409F4E89416F00C94490683E07D
:100C8000A2E4B5E0AD90BB24AFE8B5E0AA0DBB1D72
:100C90008C930C945B07023011F00C94D406809175
:100CA0004305AFE8B5E00E94A84E0E949E4E0C900E
:100CB0000822689409F4E89416F00C94790680E010
:100CC000A2E4B5E0AD90BB24AFE8B5E0AA0DBB1D32
:100CD0008C9380E090E0A2E4B5E0AD90BB24A2E468
:100CE000B5E0AA0CBB1CAA0DBB1D8D939C930C9464
:100CF000D206A2E4B5E0AD90BB24A2E4B5E0AA0C14
:100D0000BB1CAA0DBB1D0E94AA48A2E4B5E0AD9091
:100D1000BB24A2E4B5E0AA0CBB1CAA0DBB1D0D911F
:100D20001C91A2E4B5E0AD90BB24A8E6B5E0AA0C06
:100D3000BB1CAA0DBB1D4D915C910E94D748A2E43B
:100D4000B5E0AD90BB24A2E4B5E0AA0CBB1CAA0D93
:100D5000BB1D0D931C93A2E4B5E0AD90BB24A2E4AF
:100D6000B5E0AA0CBB1CAA0DBB1D0D911C91003057
:100D700050E0150711F00C94D20681E0A2E4B5E032
:100D8000AD90BB24AFE8B5E0AA0DBB1D8C9380915C
:100D90004305A4E5B5E00E94A84E0E949E4E9C919A
:100DA000982B9C930C945B07033011F00C945B0719
:100DB00080914305AFE8B5E00E94A84E0E949E4E88
:100DC0000C900822689409F4E89416F40C94020735
:100DD00081E0A2E4B5E0AD90BB24AFE8B5E0AA0D98
:100DE000BB1D8C9380E090E0A2E4B5E0AD90BB2405
:100DF000AAE4B5E0AA0CBB1CAA0DBB1D8D939C9365
:100E00000C945B07A2E4B5E0AD90BB24AAE4B5E086
:100E1000AA0CBB1CAA0DBB1D0E94AA48A2E4B5E007
:100E2000AD90BB24AAE4B5E0AA0CBB1CAA0DBB1D67
:100E30000D911C91A2E4B5E0AD90BB24A0E6B5E015
:100E4000AA0CBB1CAA0DBB1D4D915C910E94D748FA
:100E5000A2E4B5E0AD90BB24AAE4B5E0AA0CBB1CAB
:100E6000AA0DBB1D0D931C93A2E4B5E0AD90BB246D
:100E7000AAE4B5E0AA0CBB1CAA0DBB1D0D911C91E8
:100E8000003050E0150711F00C945B0780E0A2E4FD
:100E9000B5E0AD90BB24AFE8B5E0AA0DBB1D8C93C7
:100EA00080914305A5E5B5E00E94A84E0E949E4EA4
:100EB0009C91982B9C93A2E4B5E08C918F5F8C93CE
:100EC00010F40C94F4058F918BBF8F918FBFFF911D
:100ED000EF91DF91CF91BF91AF919F918F917F91D2
:100EE0006F915F914F913F912F911F910F91BF9003
:100EF000AF907F905F904F903F902F901F900F90FA
:100F000018952F98E6EAF4EA0E94BD4E0E94004927
:100F10000E940749A0E1B1E2E6ECF4EA0E94BD4E6E
:100F20000E944E4E0E94F8480E940749A0E1B1E29B
:100F3000EAEDF4EA0E94BD4E0E944E4E0E94F8482F
:100F40000E940749A0E1B1E2E2EEF4EA0E94BD4E40
:100F50000E944E4E0E94F8480E940749E1E0F0E0EE
:100F6000A2E8B3E094E00E944A50ECEEF4EA0E945A
:100F7000BD4E0E940049E2E8F3E0A0E1B1E20E9428
:100F80003B4C0E94F848ECEFF4EA0E94BD4E0E94F0
:100F90000049E2E8F3E0A0E1B1E20E94334C0E9494
:100FA000F8480E940749E4EFF0E0A9EDB4E094E0CE
:100FB0000E944A50EEEFF4EA0E94BD4E0E940049A2
:100FC000E9EDF4E0A0E1B1E20E944E4F0E94F84842
:100FD0000E940749E8EFF0E0A1E4B5E00E94475025
:100FE000EAE1F5EA0E94BD4E0E940049E1E4F5E025
:100FF000A0E1B1E20E945B4F0E94F8480E940749BD
:1010000081E08093200200912002043018F011F05A
:101010000C944808E0E2F2E0A190BB24E5E0F0E0A7
:10102000EA0DFB1DA0E2B2E0AD90BB24A7E8B3E05F
:10103000AA0DBB1D0E944750E0E3F5EA0E94BD4E99
:101040000E940049E0E2F2E0A0E1B1E20E945B4FC1
:101050000E94F848E2E4F5EA0E94BD4E0E94004971
:10106000D201E0E2F2E0A190BB24E7E8F3E0EA0D70
:10107000FB1D0E94E84FD2010E94FA480E940749D6
:10108000A0E2B2E08C918F5F8C9310F40C94030873
:10109000E4E4F5EA0E94BD4E0E9400490E9407491F
:1010A00081E08093240200912402043018F011F0B2
:1010B0000C940209EEE4F5EA0E94BD4E0E9400493C
:1010C000E4E2F2E0A0E1B1E20E945B4F0E94F84846
:1010D0000E94074981E08093250200912502043097
:1010E00018F011F00C94FA08A4E2B2E00D91112767
:1010F00001501040A0E3B2E00D931C93A0E3B2E0D6
:101100000D911C9144E050E00E94214EA0E3B2E01A
:101110000D931C93A0E3B2E00D911C91A5E2B2E007
:101120004D915527040F151FA0E3B2E00D931C93BA
:10113000E0E3F2E0A190B190E6E0F0E0AA0CBB1C85
:10114000AA0CBB1CEA0DFB1DA8E2B2E094E00E94D1
:101150004A50A8E2B2E00D911D912D913C91A0E37F
:10116000B2E0AD90BD90A9E8B3E0AA0CBB1CAA0CFC
:10117000BB1CAA0DBB1D0D931D932D933C93A8E59D
:10118000B5E00C9100FB16F00C94F208E4E5F5EAEA
:101190000E94BD4E0E940049E5E2F2E0A0E1B1E20A
:1011A0000E945B4F0E94F848E2E4F5EA0E94BD4EBF
:1011B0000E940049E8E2F2E0A0E1B1E20E94334C73
:1011C0000E94F848EAE5F5EA0E94BD4E0E940049F7
:1011D000E0E3F2E0A0E1B1E20E944B4F0E94F84848
:1011E0000E940749A5E2B2E08C918F5F8C9310F4C6
:1011F0000C946D08A4E2B2E08C918F5F8C9310F494
:101200000C945308EEE5F5EA0E94BD4E0E94004999
:101210000E94074981E08093240200912402043057
:1012200018F011F00C94ED09EEE4F5EA0E94BD4EC1
:101230000E940049E4E2F2E0A0E1B1E20E945B4FCB
:101240000E94F8480E94074981E08093250200919E
:101250002502043018F011F00C94E509EAE6F5EAED
:101260000E94BD4E0E940049E5E2F2E0A0E1B1E239
:101270000E945B4F0E94F8480E940749A4E2B2E036
:101280000D91112701501040A0E3B2E00D931C9383
:10129000A0E3B2E00D911C9140E250E00E94214E8B
:1012A000A0E3B2E00D931C93A5E2B2E00D911127EB
:1012B00001501040A2E3B2E00D931C93A2E3B2E010
:1012C0000D911C9148E050E00E94214EA2E3B2E053
:1012D0000D931C93A0E3B2E00D911C91A2E3B2E048
:1012E0004D915C91040F151FA0E3B2E00D931C9388
:1012F00081E08093270200912702083018F011F056
:101300000C94DD090091300240912702040FA6E8F9
:10131000B3E00C93E6E8F3E0A190BB24EBE4F0E04B
:10132000EA0DFB1DA6E8B3E0AD90BB24A0EDB3E051
:10133000AA0DBB1D0E944750A8E5B5E00C9100FB2B
:1013400016F00C94D509E4E7F5EA0E94BD4E0E9420
:101350000049E7E2F2E0A0E1B1E20E945B4F0E94A7
:10136000F848E2E4F5EA0E94BD4E0E940049D2012D
:10137000E6E8F3E0A190BB24E0EDF3E0EA0DFB1D0D
:101380000E94E84FD2010E94FA48EAE7F5EA0E947B
:10139000BD4E0E940049E6E8F3E0A0E1B1E20E9400
:1013A0005B4F0E94F8480E940749A7E2B2E08C9187
:1013B0008F5F8C9310F40C947B09A5E2B2E08C91C2
:1013C0008F5F8C9310F40C942709A4E2B2E08C9107
:1013D0008F5F8C9310F40C940D09EAE4F0E0ADEC0F
:1013E000B3E00E944950EEE7F5EA0E94BD4E0E942C
:1013F0000049EDECF3E0A0E1B1E20E944B4F0E9406
:10140000F8480E9407490E946113ECE8F5EA0E943F
:10141000BD4E0E940049A4E5B3E00E94FA48E4E909
:10142000F5EA0E94BD4E0E9400490E94074983E6EA
:1014300080935204E5E0F0E0A7E8B3E00E94475053
:10144000E6E9F5EA0E94BD4E0E940049E7E8F3E0B4
:10145000A0E1B1E20E945B4F0E94F8480E94074958
:1014600000918703003018F011F00C94390A0C94A5
:10147000500A00918703053010F00C94430A0E9433
:10148000730C0C944E0A80E080938703E4EAF5EA3B
:101490000E94BD4E0E9400490E9407490C94580AC0
:1014A000E4EBF5EA0E94BD4E0E9400490E94074904
:1014B00081E08093200200912002043018F011F0A6
:1014C0000C94EE0AE0E2F2E0A190BB24E8ECF0E03C
:1014D000AA0CBB1CAA0CBB1CEA0DFB1DA0E2B2E0CF
:1014E000AD90BB24AEE6B4E0AA0CBB1CAA0CBB1C9E
:1014F000AA0DBB1D94E00E944A50E0E2F2E0A190E8
:10150000BB24E8EDF0E0AA0CBB1CAA0CBB1CEA0D46
:10151000FB1DA0E2B2E0AD90BB24AEE7B4E0AA0CA4
:10152000BB1CAA0CBB1CAA0DBB1D94E00E944A5018
:10153000E8ECF5EA0E94BD4E0E940049E0E2F2E0CC
:10154000A0E1B1E20E945B4F0E94F848E2E4F5EAB4
:101550000E94BD4E0E940049E0E2F2E0A190BB244F
:10156000EEE6F4E0AA0CBB1CAA0CBB1CEA0DFB1DAA
:10157000A0E1B1E20E944E4F0E94F848ECECF5EA7F
:101580000E94BD4E0E940049E0E2F2E0A0E1B1E21B
:101590000E945B4F0E94F848E2E4F5EA0E94BD4ECB
:1015A0000E940049E0E2F2E0A190BB24EEE7F4E003
:1015B000AA0CBB1CAA0CBB1CEA0DFB1DA0E1B1E2EE
:1015C0000E944E4F0E94F8480E940749A0E2B2E0F4
:1015D0008C918F5F8C9310F40C945B0AE9EFF0E030
:1015E000A8E5B5E00E944750E2EDF5EA0E94BD4E45
:1015F0000E940049E8E5F5E0A0E1B1E20E945B4FFE
:101600000E94F8480E940749EAEFF0E0A9E5B5E03A
:101610000E944950A9E5B5E00E94AA48EAEDF5EA22
:101620000E94BD4E0E940049E9E5F5E0A0E1B1E26B
:101630000E944B4F0E94F8480E940749EAEFF0E0F1
:10164000A9E5B5E07BE70E942D50EEEFF0E0A0E6C3
:10165000B5E00E944750E4EEF5EA0E94BD4E0E94BC
:101660000049D201E0E6F5E00E94E84FD2010E9475
:10167000FA480E94074981E08093200200912002ED
:10168000043018F011F00C941A0CE0E2F2E0019131
:10169000112747E050E00E94214EE9E0F1E0E00F21
:1016A000F11FA0E2B2E00D91112747E050E00E9447
:1016B000214EACE6B5E0A00FB11F96E00E9451505C
:1016C000E6E0F6EA0E94BD4E0E940049E0E2F2E048
:1016D000A0E1B1E20E945B4F0E94F848E2E4F5EA23
:1016E0000E94BD4E0E940049A0E2B2E00D91112778
:1016F00047E050E00E94214EACE6B5E0A00FB11FDC
:101700000E94FA480E940749E0E2F2E0A190BB245F
:10171000EDEFF0E0AA0CBB1CEA0DFB1DA0E2B2E06D
:10172000AD90BB24A0E6B5E0AA0CBB1CAA0DBB1D66
:101730000E944950EEE0F6EA0E94BD4E0E94004928
:10174000E0E2F2E0A0E1B1E20E945B4F0E94F848C3
:10175000E2E4F5EA0E94BD4E0E940049E0E2F2E0B8
:10176000A190BB24E0E6F5E0AA0CBB1CEA0DFB1D32
:10177000A0E1B1E20E944B4F0E94F848EAE1F6EA8C
:101780000E94BD4E0E9400490E940749E0E2F2E03B
:10179000A190BB24E5E0F1E0AA0CBB1CEA0DFB1D07
:1017A000A0E2B2E0AD90BB24A8E6B5E0AA0CBB1C59
:1017B000AA0DBB1D0E944950E2E2F6EA0E94BD4E0E
:1017C0000E940049E0E2F2E0A0E1B1E20E945B4F3A
:1017D0000E94F848E2E4F5EA0E94BD4E0E940049EA
:1017E000E0E2F2E0A190BB24E8E6F5E0AA0CBB1C25
:1017F000EA0DFB1DA0E1B1E20E944B4F0E94F848A8
:10180000EAE1F6EA0E94BD4E0E9400490E940749A3
:1018100085E0A0E2B2E0AD90BB24A3E9B5E0AA0D5B
:10182000BB1D8C93A0E2B2E08C918F5F8C9310F47F
:101830000C943E0BEFE0F1E0A2E7B5E00E944750C8
:10184000EEE2F6EA0E94BD4E0E940049D201E2E7B4
:10185000F5E00E94E84FD2010E94FA480E94074931
:10186000ECE2F1E0A8E9B5E00E944750E6E3F6EAD1
:101870000E94BD4E0E940049D201E8E9F5E00E94B5
:10188000E84FD2010E94FA480E940749EDE2F1E0D8
:10189000ABE0B6E00E944950EEE3F6EA0E94BD4E8E
:1018A0000E940049EBE0F6E0A0E1B1E20E944B4F5C
:1018B0000E94F8480E940749EFE2F1E0ADE0B6E08F
:1018C0000E944950EAE4F6EA0E94BD4E0E94004997
:1018D000EDE0F6E0A0E1B1E20E944B4F0E94F84833
:1018E0000E94074908958091870380932402EEE4C3
:1018F000F5EA0E94BD4E0E940049E4E2F2E0A0E158
:10190000B1E20E945B4F0E94F8480E940749A4E29E
:10191000B2E0AD90BB24A7E8B3E0AA0DBB1D8C914B
:1019200080938C03E6E5F6EA0E94BD4E0E940049D2
:10193000D201ECE8F3E00E94E84FD2010E94FA489D
:101940000E94074981E0809325020091250204301E
:1019500018F011F00C94300DA4E2B2E00D911127B3
:1019600001501040A0E3B2E00D931C93A0E3B2E05D
:101970000D911C9144E050E00E94214EA0E3B2E0A2
:101980000D931C93A0E3B2E00D911C91A5E2B2E08F
:101990004D915527040F151FA0E3B2E00D931C9342
:1019A000A0E3B2E0AD90BD90A9E8B3E0AA0CBB1CE7
:1019B000AA0CBB1CAA0DBB1D0D911D912D913C9134
:1019C000A8E2B2E00D931D932D933C93A8E2B2E000
:1019D0000D911D912D913C91A5E2B2E0AD90BB24FB
:1019E000AFE4B4E0AA0CBB1CAA0CBB1CAA0DBB1D27
:1019F0000D931D932D933C93E4E6F6EA0E94BD4EB1
:101A00000E940049E5E2F2E0A0E1B1E20E945B4FF2
:101A10000E94F848E2E4F5EA0E94BD4E0E940049A7
:101A2000E8E2F2E0A0E1B1E20E94334C0E94F84803
:101A3000EAE5F5EA0E94BD4E0E940049E0E3F2E0CB
:101A4000A0E1B1E20E944B4F0E94F8480E94074972
:101A5000A5E2B2E08C918F5F8C9310F40C94A50CEE
:101A6000089582E00E941B4E82E00E941B4E81E09E
:101A70000E941B4EAA85BB850D9111270150104075
:101A8000AC81BD810D931C93AC81BD810D911C91E6
:101A900040E250E00E94214EAC81BD810D931C9329
:101AA000A885B9850D91112701501040AA81BB81ED
:101AB0000D931C93AA81BB810D911C9148E050E0CD
:101AC0000E94214EAA81BB810D931C93AC81BD81E4
:101AD0000D911C91AA81BB814D915C91040F151F42
:101AE000AC81BD810D931C93AC81BD810D911C9186
:101AF000AE81BF814D915527040F151FAC81BD816B
:101B00000D931C93AC81BD810D911C910F5F1F4FF4
:101B1000AC81BD810D931C93AC81BD81AD90BD9016
:101B2000A0EDB3E0AA0DBB1D8C91A881B9818C9367
:101B3000E2E7F6EA0E94BD4E0E940049EE81FF8175
:101B4000A0E1B1E20E945B4F0E94F848E2E4F5EAAE
:101B50000E94BD4E0E940049D201E881F9810E9495
:101B6000E84FD2010E94FA48ECEFF4EA0E94BD4E21
:101B70000E940049EC81FD81A0E1B1E20E944B4F3F
:101B80000E94F8480E940749A881B9818C9180FB86
:101B9000A8E2B0E08C9180F98C93A881B9818C91F6
:101BA00081FBA8E2B0E08C9181F98C93A881B98186
:101BB0008C9182FBA8E2B0E08C9182F98C93A88191
:101BC000B9818C9183FBA8E2B0E08C9183F98C936E
:101BD000A881B9818C9184FBA8E2B0E08C9184F952
:101BE0008C93A881B9818C9185FBA8E2B0E08C919F
:101BF00085F98C9385E0481A80E0580A2696089566
:101C000040984198429843984498459808950E9476
:101C1000B64AE8E0F2E0AEE1B3E00E940A50AEE17D
:101C2000B3E00E94F148E6E7F6EA0E94BD4E0E944A
:101C30004E4E0E94B64AE1E1F2E0AEE1B3E00E940E
:101C4000F1480E940A50AEE1B3E00E94F148E6E795
:101C5000F6EA0E94BD4E0E944E4E81E080931F0224
:101C600081E080931E02882780931D02AEE1B3E0DD
:101C70000E942C49AEE1B3E0E8E7F6EA0E94BD4ECF
:101C80000E944E4EE7E8F3E0AEE1B3E00E94F14877
:101C90000E945B4FAEE1B3E00E94F148EAE7F6EA4A
:101CA0000E94BD4E0E944E4EACE8B3E08C9180FB8A
:101CB000AEE1B3E00E94F1480E94AE4E8D938827BA
:101CC0008C93AEE1B3E00E94F148EEE7F6EA0E94A1
:101CD000BD4E0E944E4EACE8B3E08C9181FBAEE16C
:101CE000B3E00E94F1480E94AE4E8D9388278C93FA
:101CF000AEE1B3E00E94F148EEE7F6EA0E94BD4E85
:101D00000E944E4EACE8B3E08C9182FBAEE1B3E0B2
:101D10000E94F1480E94AE4E8D9388278C93AEE1CD
:101D2000B3E00E94F148E0E8F6EA0E94BD4E0E944E
:101D30004E4EACE8B3E08C9183FBAEE1B3E00E9481
:101D4000F1480E94AE4E8D9388278C93AEE1B3E0AC
:101D50000E94F148E2E8F6EA0E94BD4E0E944E4E13
:101D6000ACE8B3E08C9184FBAEE1B3E00E94F148B3
:101D70000E94AE4E8D9388278C93AEE1B3E00E9413
:101D8000F148E4E8F6EA0E94BD4E0E944E4EACE8EF
:101D9000B3E08C9185FBAEE1B3E00E94F1480E9474
:101DA000AE4E8D9388278C93AEE1B3E00E94F1484C
:101DB000E6E8F6EA0E94BD4E0E944E4EACE8B3E063
:101DC0008C9186FBAEE1B3E00E94F1480E94AE4EDA
:101DD0008D9388278C93AEE1B3E00E94F148E6E74B
:101DE000F6EA0E94BD4E0E944E4E83E080931F0291
:101DF00081E080931E02882780931D02AEE1B3E04C
:101E00000E942C49A3E5B4E00D911D912D913C91C8
:101E1000A8E2B2E00D931D932D933C93E8E2F2E02B
:101E2000AEE1B3E00E94334CAEE1B3E00E94F14872
:101E3000E6E7F6EA0E94BD4E0E944E4EA7E5B4E0EA
:101E40000D911D912D913C91A8E2B2E00D931D934F
:101E50002D933C93E8E2F2E0AEE1B3E00E94F1485A
:101E60000E94334CAEE1B3E00E94F148E6E7F6EAA7
:101E70000E94BD4E0E944E4E85E080931F0281E07D
:101E800080931E02882780931D02AEE1B3E00E947A
:101E90002C49ABE5B4E00D911D912D913C91A8E248
:101EA000B2E00D931D932D933C93E8E2F2E0AEE196
:101EB000B3E00E94334CAEE1B3E00E94F148E6E7A4
:101EC000F6EA0E94BD4E0E944E4EAFE5B4E00D9181
:101ED0001D912D913C91A8E2B2E00D931D932D939D
:101EE0003C93E8E2F2E0AEE1B3E00E94F1480E94E8
:101EF000334CAEE1B3E00E94F148E6E7F6EA0E9417
:101F0000BD4E0E944E4E87E080931F0281E0809379
:101F10001E02882780931D02AEE1B3E00E942C4987
:101F20000895E5E0F0E0A0E1BB2781E08C937BE73A
:101F30000E942B50EAE4F0E004E110E0A0E1BB27AE
:101F40007BE70E942D5081E08093200200912002C7
:101F5000043018F011F00C94C40FE0E2F2E0A1900C
:101F6000BB24E5E0F0E0EA0DFB1DA0E1BB278FE715
:101F70008C937BE70E942B50A0E2B2E08C918F5FA4
:101F80008C9310F40C94A60FAEE1B3E0E8E8F6EA07
:101F90000E94BD4E0E944E4EEEE1F3E00E94CE4BF9
:101FA000ADE8B3E00D931D932D933D93AEE1B3E007
:101FB000E2E9F6EA0E94BD4E0E944E4EEEE1F3E0E9
:101FC0000E94CE4BA1E9B3E00D931D932D933D9359
:101FD000AEE1B3E0ECE9F6EA0E94BD4E0E944E4E3F
:101FE000EEE1F3E00E94CE4BA5E9B3E00D931D9323
:101FF0002D933D93AEE1B3E0E6EAF6EA0E94BD4ED2
:102000000E944E4EEEE1F3E00E94CE4BA9E9B3E010
:102010000D931D932D933D93AEE1B3E0E0EBF6EA13
:102020000E94BD4E0E944E4EEEE1F3E00E94CE4B68
:10203000ADE9B3E00D931D932D933D93AEE1B3E075
:10204000EAEBF6EA0E94BD4E0E944E4EEEE1F3E04E
:102050000E94CE4BA1EAB3E00D931D932D933D93C7
:10206000AEE1B3E0E4ECF6EA0E94BD4E0E944E4EB3
:10207000EEE1F3E00E94CE4BA5EAB3E00D931D9391
:102080002D933D93AEE1B3E0EEECF6EA0E94BD4E37
:102090000E944E4EEEE1F3E00E94CE4BA9EAB3E07F
:1020A0000D931D932D933D93AEE1B3E0E8EDF6EA79
:1020B0000E94BD4E0E944E4EEEE1F3E00E94CE4BD8
:1020C000ADEAB3E00D931D932D933D93AEE1B3E0E4
:1020D000E2EEF6EA0E94BD4E0E944E4EEEE1F3E0C3
:1020E0000E94CE4BA1EBB3E00D931D932D933D9336
:1020F000AEE1B3E0ECEEF6EA0E94BD4E0E944E4E19
:10210000EEE1F3E00E94CE4BA5EBB3E00D931D93FF
:102110002D933D93AEE1B3E0E6EFF6EA0E94BD4EAB
:102120000E944E4EEEE1F3E00E94CE4BA9EBB3E0ED
:102130000D931D932D933D93AEE1B3E0E0E0F7EAFC
:102140000E94BD4E0E944E4EEEE1F3E00E94CE4B47
:10215000ADEBB3E00D931D932D933D93AEE1B3E052
:10216000EAE0F7EA0E94BD4E0E944E4EEEE1F3E037
:102170000E94CE4BA1ECB3E00D931D932D933D93A4
:10218000AEE1B3E0E4E1F7EA0E94BD4E0E944E4E9C
:10219000EEE1F3E00E94CE4BA5ECB3E00D931D936E
:1021A0002D933D93AEE1B3E0EEE1F7EA0E94BD4E20
:1021B0000E944E4EEEE1F3E00E94CE4BA9ECB3E05C
:1021C0000D931D932D933D9381E080932502009103
:1021D0002502003118F011F00C941211E5E2F2E042
:1021E000A190BB24E6E0F0E0AA0CBB1CAA0CBB1C2F
:1021F000EA0DFB1DA5E2B2E0AD90BB24A9E8B3E077
:10220000AA0CBB1CAA0CBB1CAA0DBB1D94E07BE74F
:102210000E942E50A5E2B2E08C918F5F8C9310F457
:102220000C94E71081E08093240200912402043092
:1022300018F011F00C940012EEE4F5EA0E94BD4E85
:102240000E940049E4E2F2E0A0E1B1E20E945B4FAB
:102250000E94F8480E94074981E08093250200917E
:102260002502043018F011F00C94F811EAE6F5EAB2
:102270000E94BD4E0E940049E5E2F2E0A0E1B1E219
:102280000E945B4F0E94F8480E940749A4E2B2E016
:102290000D91112701501040A0E3B2E00D931C9363
:1022A000A0E3B2E00D911C9140E250E00E94214E6B
:1022B000A0E3B2E00D931C93A5E2B2E00D911127CB
:1022C00001501040A2E3B2E00D931C93A2E3B2E0F0
:1022D0000D911C9148E050E00E94214EA2E3B2E033
:1022E0000D931C93A0E3B2E00D911C91A2E3B2E028
:1022F0004D915C91040F151FA0E3B2E00D931C9368
:1023000081E08093270200912702083018F011F035
:102310000C94F0110091300240912702040FA6E8BE
:10232000B3E00C93EAE8F4E70E94BD4EA7E2B2E006
:102330008C919927A0E2B2E00E94704E8091200219
:10234000A6E8B3E0AD90BB24A0EDB3E0AA0DBB1DA1
:102350008C93E6E8F3E0A190BB24EBE4F0E0EA0D17
:10236000FB1DA0E2B2E07BE70E942B50E4E7F5EA18
:102370000E94BD4E0E940049E7E2F2E0A0E1B1E216
:102380000E945B4F0E94F848E2E4F5EA0E94BD4ECD
:102390000E940049D201E6E8F3E0A190BB24E0ED01
:1023A000F3E0EA0DFB1D0E94E84FD2010E94FA48BB
:1023B000EAE7F5EA0E94BD4E0E940049E6E8F3E034
:1023C000A0E1B1E20E945B4F0E94F8480E940749D9
:1023D000A7E2B2E08C918F5F8C9310F40C94831180
:1023E000A5E2B2E08C918F5F8C9310F40C942F11C6
:1023F000A4E2B2E08C918F5F8C9310F40C941511D1
:10240000E9EFF0E0A0E1BB2780E08C937BE70E943E
:102410002B5080E08093200281E080932402009181
:102420002402043018F011F00C9483120CE211E035
:1024300020E030E0A4E2B2E0AD90BB24AEE6B4E030
:10244000AA0CBB1CAA0CBB1CAA0DBB1D0D931D9393
:102450002D933C93E4E2F2E0A190BB24E8ECF0E0A1
:10246000AA0CBB1CAA0CBB1CEA0DFB1DA4E2B2E02B
:10247000AD90BB24AEE6B4E0AA0CBB1CAA0CBB1CFE
:10248000AA0DBB1D94E07BE70E942E50A0E2B2E0B3
:102490008C91A4E2B2E0AD90BB24AEE7B4E0AA0C0C
:1024A000BB1CAA0CBB1CAA0DBB1D8D9388278D934A
:1024B0008D938C93E4E2F2E0A190BB24E8EDF0E090
:1024C000AA0CBB1CAA0CBB1CEA0DFB1DA4E2B2E0CB
:1024D000AD90BB24AEE7B4E0AA0CBB1CAA0CBB1C9D
:1024E000AA0DBB1D94E07BE70E942E50A0E2B2E053
:1024F0008C91845C8C93A4E2B2E08C918F5F8C937E
:1025000010F40C940F1281E08093240200912402B5
:10251000043018F011F00C94D812AEE1B3E0E8E208
:10252000F7EA0E94BD4E0E944E4EE4E2F2E0AEE1B8
:10253000B3E00E94F1480E945B4FE4E2F2E00191B7
:10254000112747E050E00E94214EE9E0F1E0E00F62
:10255000F11FAEE1B3E07BE70E943C50E4E2F2E021
:10256000A190BB24EDEFF0E0AA0CBB1CEA0DFB1D13
:102570000AE010E0A0E1BB277BE70E942D50E4E2D7
:10258000F2E0A190BB24E5E0F1E0AA0CBB1CEA0D4F
:10259000FB1D0AE010E0A0E1BB277BE70E942D5065
:1025A000A4E2B2E08C918F5F8C9310F40C948612AD
:1025B000EFE0F1E0A0E1BB278FE08C937BE70E9486
:1025C0002B50ECE2F1E0A0E1BB278FE08C937BE79E
:1025D0000E942B50EDE2F1E00CE310E0A0E1BB27FC
:1025E0007BE70E942D50EFE2F1E00EE110E0A0E168
:1025F000BB277BE70E942D500895ECE2F7EA0E948A
:10260000BD4E0E9400490E940749E0E0F0E0A3E5CA
:10261000B3E00E94475080E080932102A3E1B6E03E
:102620008C9180FB16F00C942813709113067E7F1A
:1026300070931306E6E4F7EA0E94BD4E0E9400493B
:10264000A4ECBAE00E94FA480E9407490E94F213E3
:1026500000912C05013011F00C94521370912C054F
:102660007E7F70932C05A0E2B2E08C918F5F8C93FB
:10267000A1E2B2E08C918F5F8C93A0E2B2E00C916A
:102680004AE00E9467508C9300912002003011F0C4
:102690000C945213ECE4F7EA0E94BD4E0E940049EC
:1026A0000E94074900915303013011F00C940E135E
:1026B000EEE6F7EA0E94BD4E0E9400490E940749DB
:1026C000089580E08093200280E080932102A4E5B9
:1026D000B3E088278C938EE0809320020091200243
:1026E000073118F011F00C948A13E09120020E9437
:1026F0000A4E082FE0E1F0E0A4E5B3E00E94F148C3
:102700000E94CF4FA0E2B2E08C918F5F8C9310F4C7
:102710000C946E13E4E5F3E0A3E4B2E00E940A50E7
:10272000A4E5B3E088278C938EE08093200200918B
:102730002002073118F011F00C94B313E09120023D
:102740000E940A4E082FE0E1F0E0A4E5B3E00E9409
:10275000F1480E94CF4FA0E2B2E08C918F5F8C9342
:1027600010F40C949713E3E4F2E0A4E5B3E00E94C4
:102770007F5011F00C94BF1381E080932002A1E2FE
:10278000B2E08C918F5F8C9300912002003011F0A9
:102790000C94DE1384EF91E00E94BA49E2E8F7EA74
:1027A0000E94BD4E0E940049E1E2F2E0A0E1B1E2E8
:1027B0000E945B4F0E94F8480E9407490091200246
:1027C000013081E009F080E08F93009121020A300E
:1027D00081E009F080E09F91892B882311F40C940B
:1027E00067130895E8E8F7EA0E94BD4E0E94004989
:1027F000A4ECBAE00E94FA480E94074981E0E4ECA8
:10280000FAE006E00A93AEE1B3E00E941550E4EC72
:10281000FAE09CE204E132E2A0E3B7E00E94B150AA
:10282000AFE2B7E02C93A0E3B7E00E947750082F07
:10283000063011F00C94592AE0E3F7E0ACE3B2E083
:102840000E940A50ECE3F2E0ACE3B2E00E94924E48
:102850008FEF80930C03ACE3B2E0EAE8F7EA0E9462
:10286000BD4E0E947D5011F00C94771480E080934F
:102870000C03A3E4B2E0E2E9F7EA0E94BD4E0E9435
:102880004E4EAEE1B3E0E6ECF4EA0E94BD4E0E948B
:102890004E4EEEE1F3E0A3E4B2E00E94F1480E9464
:1028A0000A50A3E4B2E00E94F148E6EAF7EA0E9487
:1028B000BD4E0E944E4EAEE1B3E0E2EEF4EA0E945D
:1028C000BD4E0E944E4EEEE1F3E0A3E4B2E00E9462
:1028D000F1480E940A50A3E4B2E00E94F148E4E902
:1028E000F5EA0E94BD4E0E944E4E0C94572AE4EB2E
:1028F000F7EA0E94BD4E0E947D5011F00C949E1488
:1029000080E080930C03A3E4B2E0ECEBF7EA0E94D2
:10291000BD4E0E944E4E7091380270627093380224
:1029200081E080935303E0E0F0E0A3E5B3E07BE7D0
:102930000E942B500E94910F0C94572AEAEEF7EA5E
:102940000E94BD4E0E947D5011F00C94C81480E08E
:1029500080930C030E946113A3E4B2E0E2EFF7EA74
:102960000E94BD4E0E944E4EE4E5F3E0A3E4B2E0C7
:102970000E94F1480E940A50A3E4B2E00E94F1488C
:10298000E4E9F5EA0E94BD4E0E944E4E0C94572A8F
:10299000ECEFF7EA0E94BD4E0E947D5011F00C94BE
:1029A000071500912F07023011F00C940215A5E4D1
:1029B000B7E00E94A04FA0E2B2E00C930091200289
:1029C000013110F00C94FD1480E080930C03A3E41B
:1029D000B2E0E4E0F8EA0E94BD4E0E944E4EE0E212
:1029E000F2E0A3E4B2E00E94F1480E945B4F8091C4
:1029F000200280932B050C94001585E080930C0336
:102A00000C94051584E080930C030C94572AECE198
:102A1000F8EA0E94BD4E0E947D5011F00C941616EB
:102A200000912F07023011F00C941116A5E4B7E0C5
:102A30000E947750082F0C3011F00C940C1680E097
:102A400080930C0387E0E5E4F7E002E00A93AEE14F
:102A5000B3E00E941550AEE1B3E00E94F148E4E219
:102A6000F8EA0E94BD4E0E944E4E89E0E5E4F7E090
:102A700002E00A93AEE1B3E00E94F1480E941550D3
:102A8000AEE1B3E00E94F148E4E2F8EA0E94BD4EF4
:102A90000E944E4E8BE0E5E4F7E002E00A93AEE1DF
:102AA000B3E00E94F1480E941550AEE1B3E00E94ED
:102AB000FA480E940749EEE1F3E0A1E1B2E00E948A
:102AC0000A500E94C94AE6E2F8EA0E94BD4E0E94FE
:102AD00000490E94B64AA1E1B2E00E94FA480E9471
:102AE000074981E0E5E4F7E002E00A93AEE1B3E0F4
:102AF0000E941550AEE1B3E00E94F148EAE2F8EA24
:102B00000E94BD4E0E944E4E83E0E5E4F7E002E0F5
:102B10000A93AEE1B3E00E94F1480E941550AEE185
:102B2000B3E00E94F148EAE2F8EA0E94BD4E0E943A
:102B30004E4E85E0E5E4F7E002E00A93AEE1B3E053
:102B40000E94F1480E941550AEE1B3E00E94FA489D
:102B50000E940749EEE1F3E0A8E0B2E00E940A50CB
:102B60000E94C14AECE2F8EA0E94BD4E0E94004970
:102B70000E94B64AA8E0B2E00E94FA480E940749C3
:102B8000A3E4B2E0E0E3F8EA0E94BD4E0E944E4E9C
:102B90000E94B64AE8E0F2E0A3E4B2E00E94F14805
:102BA0000E940A50A3E4B2E00E94F148EAE5F8EA84
:102BB0000E94BD4E0E944E4E0E94B64AE1E1F2E0F4
:102BC000A3E4B2E00E94F1480E940A50E5E0F2E07E
:102BD0000E94194BABE6B3E08C930E94A92B0E9494
:102BE000F32B0E94222BE2E0F2E00E94FA4BA2E8D3
:102BF000B3E00D931D932D933D93E1E0F0E0A2E847
:102C0000B3E094E07BE70E942E507091380270612F
:102C1000709338020C940F1686E080930C030C948A
:102C2000141684E080930C030C94572AEEE5F8EA1E
:102C30000E94BD4E0E947D5011F00C942C1680E035
:102C400080930C03A3E4B2E0E6E6F8EA0E94BD4EEE
:102C50000E944E4E0C94572AEEE6F8EA0E94BD4EB2
:102C60000E947D5011F00C946C1680E080930C0350
:102C70000E94B64AE1E1F2E0AEE1B3E00E940A5000
:102C8000A3E4B2E0E6E7F8EA0E94BD4E0E944E4E91
:102C9000EEE1F3E0A3E4B2E00E94F1480E940A50A2
:102CA000A3E4B2E00E94F148E4E8F8EA0E94BD4ED5
:102CB0000E944E4E0E94B64AE8E0F2E0AEE1B3E078
:102CC0000E940A50EEE1F3E0A3E4B2E00E94F14872
:102CD0000E940A500C94572AE4E9F8EA0E94BD4E7B
:102CE0000E947D5011F00C94A81680E080930C0394
:102CF000E2E8F3E0AEE1B3E00E94334CA3E4B2E0DB
:102D0000ECE9F8EA0E94BD4E0E944E4EEEE1F3E07F
:102D1000A3E4B2E00E94F1480E940A50A3E4B2E0AA
:102D20000E94F148E0EBF8EA0E94BD4E0E944E4E30
:102D3000E2E8F3E0AEE1B3E00E943B4CEEE1F3E009
:102D4000A3E4B2E00E94F1480E940A500C94572A72
:102D5000E8EBF8EA0E94BD4E0E947D5011F00C9401
:102D6000B11700912F07043011F00C94AC17A5E4B3
:102D7000B7E00E94A04FA1E2B2E00C9300912102C3
:102D8000003080E010F009F081E08F930091210283
:102D9000053081E008F080E09F918923882311F4B9
:102DA0000C94A717AAE5B7E00E94A04FA0E2B2E0FA
:102DB0000C9300912002003080E010F009F081E0D7
:102DC0008F9300912002053081E008F080E09F9110
:102DD0008923882311F40C94A21780E080930C03BC
:102DE000EFE6F7E0AEE1B3E00E940A50A1E2B2E004
:102DF0000D91112701501040A0E3B2E00D931C93F8
:102E0000A0E3B2E00D911C9144E050E00E94214EFD
:102E1000A0E3B2E00D931C93A0E3B2E00D911C91EE
:102E2000A0E2B2E04D915527040F151FA0E3B2E0D8
:102E30000D931C93E0ECF8EA0E94BD4E0E940049FD
:102E4000E0E3F2E0A0E1B1E20E944B4F0E94F848BB
:102E50000E940749EEE1F3E00E94CE4BA0E3B2E00E
:102E6000AD90BD90A9E8B3E0AA0CBB1CAA0CBB1C9A
:102E7000AA0DBB1D0D931D932D933D93E0E3F2E04E
:102E8000A190B190E6E0F0E0AA0CBB1CAA0CBB1C20
:102E9000EA0DFB1DA0E3B2E0AD90BD90A9E8B3E060
:102EA000AA0CBB1CAA0CBB1CAA0DBB1D94E07BE7A3
:102EB0000E942E50E0E3F2E0A190B190E9E8F3E047
:102EC000AA0CBB1CAA0CBB1CEA0DFB1DAEE1B3E0B7
:102ED0000E94334CA3E4B2E0EAECF8EA0E94BD4E53
:102EE0000E944E4EE0E2F2E0A3E4B2E00E94F1481C
:102EF0000E945B4FA3E4B2E00E94F148EAE5F8EAE1
:102F00000E94BD4E0E944E4EEEE1F3E0A3E4B2E01B
:102F10000E94F1480E940A50A3E4B2E00E94F148E6
:102F2000E8EDF8EA0E94BD4E0E944E4EE1E2F2E06A
:102F3000A3E4B2E00E94F1480E945B4F0E94730C30
:102F40000C94A51786E080930C030C94AA1785E0D7
:102F500080930C030C94AF1784E080930C030C94C3
:102F6000572AE2EEF8EA0E94BD4E0E947D5011F011
:102F70000C94821800912F07033011F00C947D18E7
:102F8000A5E4B7E00E94A04FA1E2B2E00C9300914B
:102F90002102003080E010F009F081E08F93009171
:102FA0002102053081E008F080E09F918923882389
:102FB00011F40C947818AAE5B7E00E94A04FA0E2A3
:102FC000B2E00C9300912002003080E010F009F094
:102FD00081E08F9300912002053081E008F080E0CD
:102FE0009F918923882311F40C94731880E08093B7
:102FF0000C03A1E2B2E00D91112701501040A0E3B3
:10300000B2E00D931C93A0E3B2E00D911C9144E05B
:1030100050E00E94214EA0E3B2E00D931C93A0E388
:10302000B2E00D911C91A0E2B2E04D915527040F42
:10303000151FA0E3B2E00D931C93E0ECF8EA0E94A8
:10304000BD4E0E940049E0E3F2E0A0E1B1E20E943F
:103050004B4F0E94F8480E940749E0E3F2E0A1903C
:10306000B190E9E8F3E0AA0CBB1CAA0CBB1CEA0D6A
:10307000FB1DAEE1B3E00E94334CA3E4B2E0EAEE04
:10308000F8EA0E94BD4E0E944E4EE0E2F2E0A3E458
:10309000B2E00E94F1480E945B4FA3E4B2E00E94BC
:1030A000F148E2EFF8EA0E94BD4E0E944E4EEEE17A
:1030B000F3E0A3E4B2E00E94F1480E940A50A3E4C6
:1030C000B2E00E94F148E8EDF8EA0E94BD4E0E948D
:1030D0004E4EE1E2F2E0A3E4B2E00E94F1480E9429
:1030E0005B4F0C94761886E080930C030C947B184D
:1030F00085E080930C030C94801884E080930C038B
:103100000C94572AE6EFF8EA0E94BD4E0E947D50CB
:1031100011F00C94D41800912F07023011F00C9488
:10312000CF18A5E4B7E00E94A04FA0E3B2E00D9352
:103130001C93A0E3B2E00D911C91003050E0150704
:1031400018F011F00C94A6180C94CA1880E0809323
:103150000C03A0E3B2E08D919C91ADECB3E08D93B4
:103160009C93A3E4B2E0EEEFF8EA0E94BD4E0E9409
:103170004E4EEDECF3E0A3E4B2E00E94F1480E9471
:103180004B4FEAE4F0E0ADECB3E07BE70E942D505A
:103190000C94CD1885E080930C030C94D21884E035
:1031A00080930C030C94572AE4E1F9EA0E94BD4E87
:1031B0000E947D5011F00C94F21880E080930C0373
:1031C000A3E4B2E0ECE1F9EA0E94BD4E0E944E4E4B
:1031D000EDECF3E0A3E4B2E00E94F1480E944B4F13
:1031E0000C94572AE4E2F9EA0E94BD4E0E947D50F9
:1031F00011F00C94441900912F07023011F00C9437
:103200003F19A5E4B7E00E94A04FA0E3B2E00D9300
:103210001C93A0E3B2E00D911C91003050E0150723
:1032200018F011F00C9416190C943A1980E0809360
:103230000C03A0E3B2E08D919C91ABE0B6E08D93DE
:103240009C93A3E4B2E0ECE2F9EA0E94BD4E0E9436
:103250004E4EEBE0F6E0A3E4B2E00E94F1480E949B
:103260004B4FEDE2F1E0ABE0B6E07BE70E942D5082
:103270000C943D1985E080930C030C94421984E072
:1032800080930C030C94572AE4E4F9EA0E94BD4EA3
:103290000E947D5011F00C94621980E080930C0321
:1032A000A3E4B2E0EEE3F6EA0E94BD4E0E944E4E69
:1032B000EBE0F6E0A3E4B2E00E94F1480E944B4F3D
:1032C0000C94572AECE4F9EA0E94BD4E0E947D500E
:1032D00011F00C94B41900912F07023011F00C94E6
:1032E000AF19A5E4B7E00E94A04FA0E3B2E00D93B0
:1032F0001C93A0E3B2E00D911C91003050E0150743
:1033000018F011F00C9486190C94AA1980E080939F
:103310000C03A0E3B2E08D919C91ADE0B6E08D93FB
:103320009C93A3E4B2E0E4E5F9EA0E94BD4E0E945A
:103330004E4EEDE0F6E0A3E4B2E00E94F1480E94B8
:103340004B4FEFE2F1E0ADE0B6E07BE70E942D509D
:103350000C94AD1985E080930C030C94B21984E0B1
:1033600080930C030C94572AEEE6F9EA0E94BD4EB6
:103370000E947D5011F00C94D21980E080930C03D0
:10338000A3E4B2E0EAE4F6EA0E94BD4E0E944E4E8B
:10339000EDE0F6E0A3E4B2E00E94F1480E944B4F5A
:1033A0000C94572AE6E7F9EA0E94BD4E0E947D5030
:1033B00011F00C940E1B00912F07053011F00C94A6
:1033C000091BA5E4B7E00E94A04FA1E2B2E00C9374
:1033D00000912102003080E010F009F081E08F932D
:1033E00000912102053081E008F080E09F9189235F
:1033F000882311F40C94041BAAE5B7E00E94A04FA7
:10340000A2E2B2E00C9300912202003080E010F0C2
:1034100009F081E08F9300912202053081E008F0ED
:1034200080E09F918923882311F40C94FF1AAFE662
:10343000B7E00E94A04FA0E2B2E00C9300912002FE
:10344000003080E010F009F081E08F9300912002BD
:10345000093081E008F080E09F918923882311F4EE
:103460000C94FA1AA1E2B2E00D911127015010401C
:10347000A0E3B2E00D931C93A0E3B2E00D911C9188
:1034800040E250E00E94214EA0E3B2E00D931C9375
:10349000A2E2B2E00D91112701501040A2E3B2E088
:1034A0000D931C93A2E3B2E00D911C9148E050E013
:1034B0000E94214EA2E3B2E00D931C93A0E3B2E080
:1034C0000D911C91A2E3B2E04D915C91040F151F88
:1034D000A0E3B2E00D931C93A0E3B2E00D911C9128
:1034E000A0E2B2E04D915527040F151FA0E3B2E012
:1034F0000D931C93EEE7F9EA0E94BD4E0E9400492D
:10350000E0E3F2E0A0E1B1E20E944B4F0E94F848F4
:103510000E940749A4E8B7E00E94F84FA3E2B2E096
:103520000C9380912302A0E3B2E0AD90BD90A0ED9A
:10353000B3E0AA0DBB1D8C93E0E3F2E0A190B19043
:10354000EBE4F0E0EA0DFB1DA3E2B2E07BE70E94B2
:103550002B5080E080930C03A3E4B2E0E8E8F9EAA2
:103560000E94BD4E0E944E4EE0E2F2E0A3E4B2E0C3
:103570000E94F1480E945B4FA3E4B2E00E94F14830
:10358000E8E9F9EA0E94BD4E0E944E4EE2E2F2E006
:10359000A3E4B2E00E94F1480E945B4FA3E4B2E0D2
:1035A0000E94F148E6EAF9EA0E94BD4E0E944E4EA2
:1035B000E1E2F2E0A3E4B2E00E94F1480E945B4F36
:1035C000A3E4B2E00E94F148E2E4F5EA0E94BD4EB5
:1035D0000E944E4EA3E4B2E00E94F148E0E3F2E024
:1035E000A190B190E0EDF3E0EA0DFB1D0E94E84FE1
:1035F0000C94FD1A87E080930C030C94021B86E068
:1036000080930C030C94071B85E080930C030C94AF
:103610000C1B84E080930C030C94572AE0EBF9EA2E
:103620000E94BD4E0E947D5011F00C942B1C009105
:103630002F07043011F00C94261CA5E4B7E00E947B
:10364000A04FA1E2B2E00C9300912102003080E093
:1036500010F009F081E08F9300912102053081E0A4
:1036600008F080E09F918923882311F40C94211C99
:10367000AAE5B7E00E94A04FA2E2B2E00C9300914D
:103680002202003080E010F009F081E08F93009179
:103690002202053081E008F080E09F918923882391
:1036A00011F40C941C1CAFE6B7E00E94A04FA0E2FE
:1036B000B2E00C9300912002003080E010F009F09D
:1036C00081E08F9300912002093081E008F080E0D2
:1036D0009F918923882311F40C94171C80E0809318
:1036E0000C03A1E2B2E00D91112701501040A0E3BC
:1036F000B2E00D931C93A0E3B2E00D911C9140E267
:1037000050E00E94214EA0E3B2E00D931C93A2E290
:10371000B2E00D91112701501040A2E3B2E00D93E9
:103720001C93A2E3B2E00D911C9148E050E00E948E
:10373000214EA2E3B2E00D931C93A0E3B2E00D9101
:103740001C91A2E3B2E04D915C91040F151FA0E320
:10375000B2E00D931C93A0E3B2E00D911C91A0E2A6
:10376000B2E04D915527040F151FA0E3B2E00D9371
:103770001C93E8EBF9EA0E94BD4E0E940049E0E389
:10378000F2E0A0E1B1E20E944B4F0E94F8480E9493
:103790000749A3E4B2E0E4E7F5EA0E94BD4E0E94C7
:1037A0004E4EE0E2F2E0A3E4B2E00E94F1480E9453
:1037B0005B4FA3E4B2E00E94F148E8E9F9EA0E9415
:1037C000BD4E0E944E4EE2E2F2E0A3E4B2E00E945F
:1037D000F1480E945B4FA3E4B2E00E94F148E6EAA0
:1037E000F9EA0E94BD4E0E944E4EE1E2F2E0A3E4EF
:1037F000B2E00E94F1480E945B4FA3E4B2E00E9455
:10380000F148E2E4F5EA0E94BD4E0E944E4EA3E468
:10381000B2E00E94F148E0E3F2E0A190B190E0ED67
:10382000F3E0EA0DFB1D0E94E84F0C941A1C87E0A0
:1038300080930C030C941F1C86E080930C030C9463
:10384000241C85E080930C030C94291C84E0809355
:103850000C030C94572AE6ECF9EA0E94BD4E0E9434
:103860007D5011F00C94891C00912F07023011F04B
:103870000C94841CA5E4B7E00E94A04FA1E2B2E042
:103880000C9300912102003080E010F009F081E0FB
:103890008F9300912102053081E008F080E09F9134
:1038A0008923882311F40C947F1C80E080930C03FF
:1038B000A5E4B7E00E94A04FA7E8B3E00C93E5E0D1
:1038C000F0E0A7E8B3E07BE70E942B50A3E4B2E06E
:1038D000EEECF9EA0E94BD4E0E944E4EE7E8F3E09E
:1038E000A3E4B2E00E94F1480E945B4F0E94730C77
:1038F000709140057260709340050C94821C85E0C5
:1039000080930C030C94871C84E080930C030C942C
:10391000572AECEEF9EA0E94BD4E0E947D5011F04C
:103920000C94AC1C80E080930C03A3E4B2E0E6E9C5
:10393000F5EA0E94BD4E0E944E4EE7E8F3E0A3E494
:10394000B2E00E94F1480E945B4F70916E04706477
:1039500070936E040C94572AE4EFF9EA0E94BD4E6E
:103960000E947D5011F00C942F1D00912F07033001
:1039700011F00C942A1DA5E4B7E00E94A04FA1E22B
:10398000B2E00C9300912102003080E010F009F0C9
:1039900081E08F9300912102053081E008F080E002
:1039A0009F918923882311F40C94251D80E0809336
:1039B0000C03AAE5B7E00E94F84FA1E2B2E0AD9097
:1039C000BB24A7E8B3E0AA0DBB1D0C93E1E2F2E033
:1039D000A190BB24E5E0F0E0EA0DFB1DA1E2B2E01E
:1039E000AD90BB24A7E8B3E0AA0DBB1D7BE70E9406
:1039F0002B50A3E4B2E0ECEFF9EA0E94BD4E0E9426
:103A00004E4EE7E8F3E0A3E4B2E00E94F1480E94E2
:103A10005B4FA3E4B2E00E94F148EAE5F8EA0E94B5
:103A2000BD4E0E944E4EA3E4B2E00E94F148E1E296
:103A3000F2E0A190BB24E7E8F3E0EA0DFB1D0E9451
:103A4000E84F0E94730C0C94281D85E080930C03B2
:103A50000C942D1D84E080930C030C94572AEAE10A
:103A6000FAEA0E94BD4E0E947D5011F00C94891D0F
:103A700000912F07023011F00C94841D0091210257
:103A8000003080E010F009F081E08F930091210276
:103A9000053081E008F080E09F918923882311F4AC
:103AA0000C947F1D80E080930C03A3E4B2E0E2E27B
:103AB000FAEA0E94BD4E0E944E4EE7E8F3E0A3E40E
:103AC000B2E00E94F1480E945B4FA3E4B2E00E9482
:103AD000F148E6E3FAEA0E94BD4E0E944E4EA3E48E
:103AE000B2E00E94F148E1E2F2E0A190BB24E7E8F5
:103AF000F3E0EA0DFB1D0E94E84F0C94821D85E067
:103B000080930C030C94871D84E080930C030C9429
:103B1000572AEAE3FAEA0E94BD4E0E947D5011F056
:103B20000C94301E00912F07033011F00C942B1EC3
:103B3000A5E4B7E00E94A04FA4E2B2E00C9300918C
:103B40002402003080E010F009F081E08F930091B2
:103B50002402053081E008F080E09F9189238823CA
:103B600011F40C94261EAAE5B7E00E94A04FACE227
:103B7000B2E00D931D932D933D93ACE2B2E00D9115
:103B80001D912D913C91A4E2B2E0AD90BB24AEE634
:103B9000B4E0AA0CBB1CAA0CBB1CAA0DBB1D0D9348
:103BA0001D932D933C93E4E2F2E0A190BB24E8EC5A
:103BB000F0E0AA0CBB1CAA0CBB1CEA0DFB1DACE27E
:103BC000B2E094E07BE70E942E5080E080930C03EB
:103BD000A3E4B2E0E2E4FAEA0E94BD4E0E944E4E37
:103BE000E4E2F2E0A3E4B2E00E94F1480E945B4FFD
:103BF000A3E4B2E00E94F148E4E2F8EA0E94BD4E7C
:103C00000E944E4EE4E2F2E0A190BB24EEE6F4E026
:103C1000AA0CBB1CAA0CBB1CEA0DFB1DA3E4B2E062
:103C20000E94F1480E944E4FE4E2F2E0A190BB24D2
:103C3000EEE6F4E0AA0CBB1CAA0CBB1CEA0DFB1DB3
:103C4000A2E9B4E00E944E4F0C94291E83E08093B9
:103C50000C030C942E1E84E080930C030C94572AC2
:103C6000E8E5FAEA0E94BD4E0E947D5011F00C94E6
:103C7000D71E00912F07033011F00C94D21EA5E43B
:103C8000B7E00E94A04FA4E2B2E00C93009124029E
:103C9000003080E010F009F081E08F930091240261
:103CA000053081E008F080E09F918923882311F49A
:103CB0000C94CD1EAAE5B7E00E94A04FACE2B2E0A2
:103CC0000D931D932D933D93ACE2B2E00D911D91A8
:103CD0002D913C91A4E2B2E0AD90BB24AEE7B4E0FC
:103CE000AA0CBB1CAA0CBB1CAA0DBB1D0D931D93DB
:103CF0002D933C93E4E2F2E0A190BB24E8EDF0E0E8
:103D0000AA0CBB1CAA0CBB1CEA0DFB1DACE2B2E06A
:103D100094E07BE70E942E5080E080930C03A3E4A4
:103D2000B2E0E2E4FAEA0E94BD4E0E944E4EE4E2A6
:103D3000F2E0A3E4B2E00E94F1480E945B4FA3E4EA
:103D4000B2E00E94F148E4E2F8EA0E94BD4E0E940F
:103D50004E4EE4E2F2E0A190BB24EEE7F4E0AA0CC0
:103D6000BB1CAA0CBB1CEA0DFB1DA3E4B2E00E9425
:103D7000F1480E944E4FE4E2F2E0A190BB24EEE74E
:103D8000F4E0AA0CBB1CAA0CBB1CEA0DFB1DA2E9AB
:103D9000B4E00E944E4F0C94D01E83E080930C033D
:103DA0000C94D51E84E080930C030C94572AE0E613
:103DB000FAEA0E94BD4E0E947D5011F00C947C1FC7
:103DC00000912F07023011F00C94771FA5E4B7E0A3
:103DD0000E94A04FA4E2B2E00C93009124020030B4
:103DE00080E010F009F081E08F930091240205300B
:103DF00081E008F080E09F918923882311F40C94DE
:103E0000721FA3E4B2E0E8E6FAEA0E94BD4E0E9407
:103E10004E4EE4E2F2E0A3E4B2E00E94F1480E94D8
:103E20005B4FA3E4B2E00E94F148E4E2F8EA0E94AA
:103E3000BD4E0E944E4EE4E2F2E0A190BB24EEE6BD
:103E4000F4E0AA0CBB1CAA0CBB1CEA0DFB1DA3E4EE
:103E5000B2E00E94F1480E944E4F80E080930C0334
:103E6000E8E8F7EA0E94BD4E0E940049E4E2F2E071
:103E7000A0E1B1E20E945B4F0E94F848ECEFF4EA47
:103E80000E94BD4E0E940049E4E2F2E0A190BB24F2
:103E9000EEE6F4E0AA0CBB1CAA0CBB1CEA0DFB1D51
:103EA000A0E1B1E20E944E4F0E94F8480E940749EB
:103EB000E0E7FAEA0E94BD4E0E9400490E940749CD
:103EC000E4E2F2E0A190BB24EEE6F4E0AA0CBB1C15
:103ED000AA0CBB1CEA0DFB1DA2E9B4E00E944E4FE8
:103EE0000C94751F83E080930C030C947A1F84E07C
:103EF00080930C030C94572AE4E7FAEA0E94BD4E23
:103F00000E947D5011F00C94212000912F07023067
:103F100011F00C941C20A5E4B7E00E94A04FA4E28D
:103F2000B2E00C9300912402003080E010F009F020
:103F300081E08F9300912402053081E008F080E059
:103F40009F918923882311F40C941720A3E4B2E0F5
:103F5000ECE7FAEA0E94BD4E0E944E4EE4E2F2E027
:103F6000A3E4B2E00E94F1480E945B4FA3E4B2E0F8
:103F70000E94F148E4E2F8EA0E94BD4E0E944E4ED3
:103F8000E4E2F2E0A190BB24EEE7F4E0AA0CBB1C53
:103F9000AA0CBB1CEA0DFB1DA3E4B2E00E94F14891
:103FA0000E944E4F80E080930C03E8E8F7EA0E94FD
:103FB000BD4E0E940049E4E2F2E0A0E1B1E20E94BD
:103FC0005B4F0E94F848ECEFF4EA0E94BD4E0E945D
:103FD0000049E4E2F2E0A190BB24EEE7F4E0AA0C91
:103FE000BB1CAA0CBB1CEA0DFB1DA0E1B1E20E94A8
:103FF0004E4F0E94F8480E940749E0E7FAEA0E9403
:10400000BD4E0E9400490E940749E4E2F2E0A190FF
:10401000BB24EEE7F4E0AA0CBB1CAA0CBB1CEA0D07
:10402000FB1DA2E9B4E00E944E4F0C941A2083E0DD
:1040300080930C030C941F2084E080930C030C9459
:10404000572AE8E8FAEA0E94BD4E0E947D5011F01E
:104050000C94942000912F07023011F00C948F20C3
:10406000A5E4B7E00E94A04FA4E2B2E00C93009157
:104070002402003080E010F009F081E08F9300917D
:104080002402053081E008F080E09F918923882395
:1040900011F40C948A2080E080930C030091240298
:1040A00041E0041BA0E2B2E00C9380912002A0E466
:1040B000B5E00E94A84E0E949E4E9C91982B9C9326
:1040C000A3E4B2E0E0E9FAEA0E94BD4E0E944E4E3F
:1040D000E4E2F2E0A3E4B2E00E94F1480E945B4F08
:1040E000A3E4B2E00E94F148ECEFF4EA0E94BD4E76
:1040F0000E944E4EA3E4B2E00E94F148E0E4F5E0F5
:104100000E94E84FA2E9B4E0E0E4F5E00E94E84F45
:104110000C948D2083E080930C030C94922084E017
:1041200080930C030C94572AE4EAFAEA0E94BD4EED
:104130000E947D5011F00C94D22000912F07023084
:1041400011F00C94CD20A5E4B7E00E94A04FA9ED9A
:10415000B4E00D931D932D933D93E4EFF0E0A9EDB2
:10416000B4E094E07BE70E942E50A3E4B2E0ECEAD6
:10417000FAEA0E94BD4E0E944E4EE9EDF4E0A3E43F
:10418000B2E00E94F1480E944E4FE9EDF4E0A2E94E
:10419000B4E00E944E4F0C94D02084E080930C0336
:1041A0000C94572AE4ECFAEA0E94BD4E0E947D501E
:1041B00011F00C94F62080E080930C03A3E4B2E0AD
:1041C000ECECFAEA0E94BD4E0E944E4EE9EDF4E09E
:1041D000A3E4B2E00E94F1480E944E4FE9EDF4E002
:1041E000A2E9B4E00E944E4F0C94572AE6EDFAEA99
:1041F0000E94BD4E0E947D5011F00C94112180E070
:1042000080930C0370916E04746070936E04A3E449
:10421000B2E0EEEDFAEA0E94BD4E0E944E4E0C94C2
:10422000572AE6EEFAEA0E94BD4E0E947D5011F038
:104230000C944E2100912F07023011F00C9449216B
:1042400080E080930C03A5E4B7E00E94A04FA1E4B6
:10425000B5E00C93E8EFF0E0A1E4B5E07BE70E9465
:104260002B50A3E4B2E0EEEEFAEA0E94BD4E0E94AB
:104270004E4EE1E4F5E0A3E4B2E00E94F1480E9472
:104280005B4FE1E4F5E0A2E9B4E00E945B4F0C94DF
:104290004C2184E080930C030C94572AE0E0FBEA65
:1042A0000E94BD4E0E947D5011F00C94722180E05E
:1042B00080930C03A3E4B2E0E8E0FBEA0E94BD4E69
:1042C0000E944E4EE1E4F5E0A3E4B2E00E94F14822
:1042D0000E945B4FE1E4F5E0A2E9B4E00E945B4F8D
:1042E0000C94572AEEE0FBEA0E94BD4E0E947D50DE
:1042F00011F00C948D2180E080930C0370912205C5
:10430000786070932205A3E4B2E0E6E1FBEA0E9444
:10431000BD4E0E944E4E0C94572AE0E2FBEA0E94EA
:10432000BD4E0E947D5011F00C94C42100912F07C6
:10433000023011F00C94BF2180E080930C03A5E4BF
:10434000B7E00E94A04FA8E5B5E00C93E9EFF0E0DC
:10435000A8E5B5E07BE70E942B50A3E4B2E0E8E2D9
:10436000FBEA0E94BD4E0E944E4EE8E5F5E0A3E454
:10437000B2E00E94F1480E945B4F0C94C22184E09D
:1043800080930C030C94572AEEE3FBEA0E94BD4E87
:104390000E947D5011F00C94E22180E080930C0388
:1043A000A3E4B2E0E2EDF5EA0E94BD4E0E944E4E5B
:1043B000E8E5F5E0A3E4B2E00E94F1480E945B4F1B
:1043C0000C94572AE6E4FBEA0E94BD4E0E947D5001
:1043D00011F00C94252200912F07023011F00C945B
:1043E0002022A5E4B7E00E94A04FA9E5B5E00D9317
:1043F0001C93EAEFF0E0A9E5B5E07BE70E942D50C1
:1044000080E080930C03A3E4B2E0EEE4FBEA0E94B8
:10441000BD4E0E944E4EE9E5F5E0A3E4B2E00E94F5
:10442000F1480E944B4FE9E5F5E0A2E9B4E00E94B3
:104430004B4F709140057260709340050C9423229D
:1044400084E080930C030C94572AEEE6FBEA0E946A
:10445000BD4E0E947D5011F00C945E2200912F07FA
:10446000013011F00C94592280E080930C03A3E4F6
:10447000B2E0E6E7FBEA0E94BD4E0E944E4EE9E53F
:10448000F5E0A3E4B2E00E94F1480E944B4FA3E4A0
:10449000B2E00E94F148E4E9F5EA0E94BD4E0E94B4
:1044A0004E4EE9E5F5E0A2E9B4E00E944B4F0C94D2
:1044B0005C2284E080930C030C94572AEAE8FBEA20
:1044C0000E94BD4E0E947D5011F00C94A8220091D4
:1044D0002F07023011F00C94A322A5E4B7E00E944C
:1044E000A04FA0E2B2E00C9300912002023010F045
:1044F0000C949E2280E080930C03009120020030F7
:1045000011F00C9486225F980C9487225F9AA3E4A2
:10451000B2E0E2E9FBEA0E94BD4E0E944E4EABE2E1
:10452000B0E08C9187FBA3E4B2E00E94F1480E94C6
:10453000AE4E8D9388278C930C94A12283E08093B8
:104540000C030C94A62284E080930C030C94572A4D
:10455000ECE9FBEA0E94BD4E0E947D5011F00C94E4
:10456000D92200912F07023011F00C94D42280E060
:1045700080930C03A5E4B7E00E94A04FADE5B5E041
:104580000D931C93A3E4B2E0E4EAFBEA0E94BD4E63
:104590000E944E4EEDE5F5E0A3E4B2E00E94F14842
:1045A0000E944B4F0C94D72284E080930C030C9410
:1045B000572AECEBFBEA0E94BD4E0E947D5011F0A1
:1045C0000C94112300912F07023011F00C940C234E
:1045D00080E080930C03A5E4B7E00E94A04FABE518
:1045E000B5E00D931C93ECEFF0E0ABE5B5E07BE7B5
:1045F0000E942D50A3E4B2E0E4ECFBEA0E94BD4E21
:104600000E944E4EEBE5F5E0A3E4B2E00E94F148D3
:104610000E944B4F0C940F2384E080930C030C9466
:10462000572AEEEDFBEA0E94BD4E0E947D5011F02C
:104630000C94532380E080930C03A3E4B2E0E6EEF5
:10464000FBEA0E94BD4E0E944E4EEBE5F5E0A3E46E
:10465000B2E00E94F1480E944B4FA3E4B2E00E94F6
:10466000F148E6EFFBEA0E94BD4E0E944E4EEDE59A
:10467000F5E0A3E4B2E00E94F1480E944B4FA3E4AE
:10468000B2E00E94F148E2E0FCEA0E94BD4E0E94C6
:104690004E4EEFE5F5E0A3E4B2E00E94F1480E943F
:1046A0005B4F0C94572AE0E1FCEA0E94BD4E0E9449
:1046B0007D5011F00C94782380E080930C03A5E4E6
:1046C000B7E00E94A04FAFE5B5E00C93A3E4B2E0E1
:1046D000E8E1FCEA0E94BD4E0E944E4EEFE5F5E097
:1046E000A3E4B2E00E94F1480E945B4F0C94572A69
:1046F000E8E2FCEA0E94BD4E0E947D5011F00C944D
:104700000F2480E080930C03A3E4B2E0E0E3FCEA32
:104710000E94BD4E0E944E4E81E080932002009187
:104720002002043018F011F00C940D2400912002A6
:1047300041E0041BA4E2B2E00C9380912402A8E9BA
:10474000B5E00E94A84E0E949E4E0C9008226894EC
:1047500009F4E89416F00C9405240027442780916E
:104760002402A0E2B0E00E94A84E0E949E4E0C904F
:104770000822689409F4E89400F980912402A2E7E1
:10478000B5E00E94A84E0E949E4E0C9008226894AC
:1047900009F4E89440F9042700FBA8E3B2E08C9107
:1047A00087F98C93E0E2F2E00191112747E050E0B5
:1047B0000E94214EECE6F5E0E00FF11FA3E4B2E029
:1047C0000E94F1480E940A50A3E4B2E00E94F1481E
:1047D000E2E4F5EA0E94BD4E0E944E4EA8E3B2E02C
:1047E0008C9187FBA3E4B2E00E94F1480E94AE4E98
:1047F0008D9388278C93A3E4B2E00E94F148ECEFFC
:10480000F4EA0E94BD4E0E944E4EA0E2B2E08C91AE
:104810008F5F8C9310F40C948F230C94572AE4E44C
:10482000FCEA0E94BD4E0E947D5011F00C94C524FC
:1048300000912F07043011F00C94C024A5E4B7E0D8
:104840000E94A04FA1E2B2E00C930091210201303E
:1048500011F00C94B324AAE5B7E00E94A04FA0E2A7
:10486000B2E00C9300912002003080E010F009F0DB
:1048700081E08F9300912002053081E008F080E014
:104880009F918923882311F40C94AE2480E08093B7
:104890000C030091200241E0041BA2E2B2E00C9361
:1048A000AFE6B7E00E94A04FA1E2B2E00C93009106
:1048B0002102003011F00C946A2480912202A8E9B0
:1048C000B5E00E94A84E0E949E4E8C9189238C9345
:1048D0000C94752480912202A8E9B5E00E94A84EAC
:1048E0000E949E4E9C91982B9C93ECE2F1E0A8E9EB
:1048F000B5E07BE70E942B50A3E4B2E0ECE4FCEAD5
:104900000E94BD4E0E944E4EE0E2F2E0A3E4B2E00F
:104910000E94F1480E945B4FA3E4B2E00E94F1487C
:10492000E2E4F5EA0E94BD4E0E944E4E80912202C2
:10493000A8E9B5E00E94A84E0E949E4E0C90082265
:10494000689409F4E894A3E4B2E00E94F1480E945C
:10495000AE4E8D9388278C930C94B12485E0809380
:104960000C030C94BE2480E080930C03A3E4B2E01B
:10497000E0E6FCEA0E94BD4E0E944E4E0C94C32419
:1049800084E080930C030C94572AEEE7FCEA0E9423
:10499000BD4E0E947D5011F00C949E2500912F0772
:1049A000013011F00C94E92480E080930C03A3E41F
:1049B000B2E0E6E8FCEA0E94BD4E0E944E4EA3E43F
:1049C000B2E00E94F148E8E9F5E00E94E84F0C945B
:1049D0009C25023011F00C941C25A5E4B7E00E9440
:1049E000A04FA1E2B2E00C9300912102013011F03E
:1049F0000C940F2580E080930C03A3E4B2E0E6E87A
:104A0000FCEA0E94BD4E0E944E4EA3E4B2E00E941A
:104A1000F148E8E9F5E00E94E84F0C941A2580E09F
:104A200080930C03A3E4B2E0EEE8FCEA0E94BD4EE2
:104A30000E944E4E0C949C25033011F00C94992545
:104A4000A5E4B7E00E94A04FA1E2B2E00C93009170
:104A50002102013011F00C948C25AAE5B7E00E94E8
:104A6000A04FA0E2B2E00C9300912002003080E061
:104A700010F009F081E08F9300912002053081E071
:104A800008F080E09F918923882311F40C948725F6
:104A900080E080930C030091200241E0041BA2E21D
:104AA000B2E00C9380E080930C03A3E4B2E0E2EA6E
:104AB000FCEA0E94BD4E0E944E4EE0E2F2E0A3E40A
:104AC000B2E00E94F1480E945B4FA3E4B2E00E9472
:104AD000F148E2E4F5EA0E94BD4E0E944E4E8091FC
:104AE0002202A8E9B5E00E94A84E0E949E4E0C90BA
:104AF0000822689409F4E894A3E4B2E00E94F14823
:104B00000E94AE4E8D9388278C930C948A2585E065
:104B100080930C030C94972580E080930C03A3E40E
:104B2000B2E0EAEAFCEA0E94BD4E0E944E4E0C94AE
:104B30009C2584E080930C030C94572AE0ECFCEA5B
:104B40000E94BD4E0E947D5011F00C943A260091B7
:104B50002F07033011F00C943526A5E4B7E00E942E
:104B6000A04FA0E2B2E00C9300912002003080E060
:104B700010F009F081E08F9300912002053081E070
:104B800008F080E09F918923882311F40C9430264B
:104B900080E080930C030091200241E0041BA2E21C
:104BA000B2E00C93AAE5B7E00E94A04FA1E2B2E008
:104BB0000C9300912102003011F00C94EC258091AF
:104BC0002202A2E7B5E00E94A84E0E949E4E8C9160
:104BD00089238C930C94F72580912202A2E7B5E0FB
:104BE0000E94A84E0E949E4E9C91982B9C93EFE0B1
:104BF000F1E0A2E7B5E07BE70E942B50A3E4B2E02E
:104C0000E8ECFCEA0E94BD4E0E944E4EE0E2F2E06B
:104C1000A3E4B2E00E94F1480E945B4FA3E4B2E03B
:104C20000E94F148E2E4F5EA0E94BD4E0E944E4E19
:104C300080912202A2E7B5E00E94A84E0E949E4EFB
:104C40000C900822689409F4E894A3E4B2E00E946E
:104C5000F1480E94AE4E8D9388278C930C94332696
:104C600085E080930C030C94382684E080930C0339
:104C70000C94572AECEDFCEA0E94BD4E0E947D5038
:104C800011F00C94C32600912F07013011F00C9401
:104C90005E2680E080930C03A3E4B2E0E4EEFCEA3D
:104CA0000E94BD4E0E944E4EA3E4B2E00E94F14825
:104CB000E2E7F5E00E94E84F0C94C126023011F0C3
:104CC0000C94BE26A5E4B7E00E94A04FA0E2B2E09B
:104CD0000C9300912002003080E010F009F081E098
:104CE0008F9300912002053081E008F080E09F91D1
:104CF0008923882311F40C94B9260091200241E005
:104D0000041BA2E2B2E00C9380E080930C03A3E4C6
:104D1000B2E0ECEEFCEA0E94BD4E0E944E4EE0E294
:104D2000F2E0A3E4B2E00E94F1480E945B4FA3E4EA
:104D3000B2E00E94F148E2E4F5EA0E94BD4E0E9412
:104D40004E4E80912202A2E7B5E00E94A84E0E943A
:104D50009E4E0C900822689409F4E894A3E4B2E013
:104D60000E94F1480E94AE4E8D9388278C930C943C
:104D7000BC2685E080930C030C94C12684E08093CC
:104D80000C030C94572AE4EFFCEA0E94BD4E0E94EB
:104D90007D5011F00C94E72800912F07053011F099
:104DA0000C94E228A5E4B7E00E94A04FA0E2B2E094
:104DB0000C93AAE5B7E00E94A04FA1E2B2E00C93E9
:104DC000AFE6B7E00E94A04FA2E2B2E00C930091E0
:104DD0002002013011F00C94C4280091210200300F
:104DE00080E010F009F081E08F93009121020530FE
:104DF00081E008F080E09F918923882311F40C94CE
:104E0000B72800912202013011F00C946327E4E8E6
:104E1000F7E0A1E2B2E00D91112747E050E00E94D7
:104E2000214EACE6B5E0A00FB11F0E940A50E1E2AE
:104E3000F2E00191112747E050E00E94214EE9E0A5
:104E4000F1E0E00FF11FA1E2B2E00D91112747E080
:104E500050E00E94214EACE6B5E0A00FB11F7BE709
:104E60000E943C5080E080930C03A3E4B2E0ECEF9E
:104E7000FCEA0E94BD4E0E944E4EE1E2F2E0A3E445
:104E8000B2E00E94F1480E945B4FA3E4B2E00E94AE
:104E9000F148E2E4F5EA0E94BD4E0E944E4EE1E286
:104EA000F2E00191112747E050E00E94214EECE62C
:104EB000F5E0E00FF11FA3E4B2E00E94F1480E9488
:104EC0000A500C94B528023011F00C94E227A4E8A3
:104ED000B7E00E94A04FA3E2B2E00C93009123023E
:104EE000023010F00C94D5270091210241E0041B00
:104EF000A4E2B2E00C9300912302003011F00C9474
:104F00008E2780912402A2E7B5E00E94A84E0E945D
:104F10009E4E8C9189238C930C9499278091240226
:104F2000A2E7B5E00E94A84E0E949E4E9C91982B4D
:104F30009C93EFE0F1E0A2E7B5E07BE70E942B5005
:104F400080E080930C03A3E4B2E0E0E1FDEA0E947C
:104F5000BD4E0E944E4EE1E2F2E0A3E4B2E00E94B8
:104F6000F1480E945B4FA3E4B2E00E94F148E2E402
:104F7000F5EA0E94BD4E0E944E4E80912402A2E7A7
:104F8000B5E00E94A84E0E949E4E0C9008226894A4
:104F900009F4E894A3E4B2E00E94F1480E94AE4E06
:104FA0008D9388278C930C94E02780E080930C03EA
:104FB000A3E4B2E0E6E1FDEA0E94BD4E0E944E4E3F
:104FC0000C94B528033011F00C944628A4E8B7E0FF
:104FD0000E94A04FA1E2B2E0AD90BB24A0E6B5E0F4
:104FE000AA0CBB1CAA0DBB1D0D931C93E1E2F2E0C1
:104FF000A190BB24EDEFF0E0AA0CBB1CEA0DFB1D59
:10500000A1E2B2E0AD90BB24A0E6B5E0AA0CBB1CC7
:10501000AA0DBB1D7BE70E942D5080E080930C03FE
:10502000A3E4B2E0E4E3FDEA0E94BD4E0E944E4ECE
:10503000E1E2F2E0A3E4B2E00E94F1480E945B4F9B
:10504000A3E4B2E00E94F148E2E4F5EA0E94BD4E1A
:105050000E944E4EE1E2F2E0A190BB24E0E6F5E0D2
:10506000AA0CBB1CEA0DFB1DA3E4B2E00E94F148B0
:105070000E944B4FA3E4B2E00E94F148E0E5FDEA54
:105080000E94BD4E0E944E4E0C94B528043011F083
:105090000C94AA28A4E8B7E00E94A04FA1E2B2E0D5
:1050A000AD90BB24A8E6B5E0AA0CBB1CAA0DBB1DA5
:1050B0000D931C93E1E2F2E0A190BB24E5E0F1E066
:1050C000AA0CBB1CEA0DFB1DA1E2B2E0AD90BB2413
:1050D000A8E6B5E0AA0CBB1CAA0DBB1D7BE70E948D
:1050E0002D5080E080930C03A3E4B2E0E8E5FDEAF4
:1050F0000E94BD4E0E944E4EE1E2F2E0A3E4B2E017
:105100000E94F1480E945B4FA3E4B2E00E94F14884
:10511000E2E4F5EA0E94BD4E0E944E4EE1E2F2E06A
:10512000A190BB24E8E6F5E0AA0CBB1CEA0DFB1D30
:10513000A3E4B2E00E94F1480E944B4FA3E4B2E026
:105140000E94F148E0E5FDEA0E94BD4E0E944E4EED
:105150000C94B52880E080930C03A3E4B2E0E4E76C
:10516000FDEA0E94BD4E0E944E4E0C94C22880E083
:1051700080930C03A3E4B2E0ECE8FDEA0E94BD4E8C
:105180000E944E4E0C94E028033011F00C94D52868
:1051900080E080930C03A3E4B2E0EEE9FDEA0E9414
:1051A000BD4E0E944E4E0C94E02880E080930C038C
:1051B000A3E4B2E0E6ECFDEA0E94BD4E0E944E4E32
:1051C0000C94E52884E080930C030C94572AE2EEBB
:1051D000FDEA0E94BD4E0E947D5011F00C94D7292B
:1051E00000912F07033011F00C94D229A5E4B7E009
:1051F0000E94A04FA0E2B2E00C93AAE5B7E00E94A3
:10520000A04FA1E2B2E00C9300912002013011F016
:105210000C94C12980E080930C030091210200309E
:1052200080E010F009F081E08F93009121020530B9
:1052300081E008F080E09F918923882311F40C9489
:10524000B4290091210241E0041BA4E2B2E00C93D6
:10525000A3E4B2E0E8E2F7EA0E94BD4E0E944E4E9F
:10526000E1E2F2E0A3E4B2E00E94F1480E945B4F69
:10527000A3E4B2E00E94F148EAEEFDEA0E94BD4ECE
:105280000E944E4EE1E2F2E00191112747E050E02A
:105290000E94214EECE6F5E0E00FF11FA3E4B2E03E
:1052A0000E94F1480E940A50A3E4B2E00E94F14833
:1052B000E4EFFDEA0E94BD4E0E944E4E8091240212
:1052C000A2E7B5E00E94A84E0E949E4E0C900822D4
:1052D000689409F4E894A3E4B2E00E94F1480E94C3
:1052E000AE4E8D9388278C93A3E4B2E00E94F148E0
:1052F000EAEFFDEA0E94BD4E0E944E4EE1E2F2E06E
:10530000A190BB24E0E6F5E0AA0CBB1CEA0DFB1D56
:10531000A3E4B2E00E94F1480E944B4FA3E4B2E044
:105320000E94F148E2E0FEEA0E94BD4E0E944E4E0D
:10533000E1E2F2E0A190BB24E8E6F5E0AA0CBB1C98
:10534000EA0DFB1DA3E4B2E00E94F1480E944B4F1E
:10535000A3E4B2E00E94F148E2E1FEEA0E94BD4E01
:105360000E944E4E0C94BF2980E080930C03A3E46E
:10537000B2E0ECE8FDEA0E94BD4E0E944E4E0C9455
:10538000D029033011F00C94D02980E080930C03D5
:10539000A3E4B2E0EEE9FDEA0E94BD4E0E944E4E4B
:1053A0000C94D52984E080930C030C94572AEAE1ED
:1053B000FEEA0E94BD4E0E947D5011F00C94542ACA
:1053C000A5E4B7E00E94A04FA0E2B2E00C930091E8
:1053D0002002003080E010F009F081E08F9300910E
:1053E0002002043081E008F080E09F918923882327
:1053F00011F40C944F2AAAE5B7E00E94A04FA1E255
:10540000B2E00C9300912102023010F00C94282A93
:1054100000912102003011F00C941B2A809120028F
:10542000A5E2B0E00E94A84E0E949E4E8C91892376
:105430008C930C94262A80912002A5E2B0E00E9471
:10544000A84E0E949E4E9C91982B9C930C942B2AC4
:1054500085E080930C03A3E4B2E0E2E2FEEA0E945E
:10546000BD4E0E944E4EE0E2F2E0A3E4B2E00E94A4
:10547000F1480E945B4FA3E4B2E00E94F148E2E4ED
:10548000F5EA0E94BD4E0E944E4EE1E2F2E0A3E436
:10549000B2E00E94F1480E945B4F0C94522A84E0D3
:1054A00080930C030C94572A81E080930C030C9496
:1054B0005C2A82E080930C0300910C03003018F00A
:1054C00011F00C94652A0C94732AECE6F3E70E9421
:1054D000BD4EACE0B3E08C9199270E948A4EA3E4C4
:1054E000B2E00E944E4EA3E4B2E00E94FA480E944D
:1054F0000749089580E080932002709138027F7EF2
:105500007093380200912C05013011F00C94F32AAD
:1055100070912C057E7F70932C05A0E2B2E08C91F7
:105520008F5F8C93E6E3FEEA0E94BD4E0E94004925
:10553000E0E2F2E0A0E1B1E20E945B4F0E94F84895
:105540000E9407490E94222B62FA16F40C94F12A59
:10555000E0E4FEEA0E94BD4E0E9400490E94B64A65
:10556000A1E1B2E00E94FA48E8E4FEEA0E94BD4EE2
:105570000E9400490E94B64AA8E0B2E00E94FA48A0
:105580000E940749E2E0F2E00E94FA4BA8E2B2E092
:105590000D931D932D933D93A2E8B3E04D915D9142
:1055A0006D917C91A8E2B2E00D911D912D913C91FD
:1055B0000E94384F1CF011F00C94E02A0C94E72A5A
:1055C000709138027061709338020C94EF2AECE409
:1055D000FEEA0E94BD4E0E9400490E9407490C94B9
:1055E000F32A0E944D4CA3E1B6E08C9180FB16F0AB
:1055F0000C940D2B709113067E7F70931306E6E4D6
:10560000F7EA0E94BD4E0E940049A4ECBAE00E9455
:10561000FA480E9407490E94F213009120020A30C2
:1056200081E009F080E08F93A8E3B2E08C9184FBE5
:1056300081E00EF080E09F91892B882311F40C9477
:10564000822A08950E94644C62FA16F40C94A02BEE
:1056500010ED0E94784C10E00E94784C0E94644C3F
:1056600062FA16F40C94962B11ED0E94784C0E946D
:10567000974CA2E0B2E01C930E94974CA3E0B2E0EA
:105680001C930E94974CA4E0B2E01C930E94974C9C
:10569000ABE6B3E01C930E94974CA5E0B2E01C93EC
:1056A0000E94974CA6E0B2E01C930E94954CA7E0A4
:1056B000B2E01C930E94704C62FA16F00C946A2BB4
:1056C000E4E7FEEA0E94BD4E0E9400490E9407499D
:1056D0000C94942B909102020E94AA49A2E0B2E09D
:1056E0008C93909103020E94AA49A3E0B2E08C93AC
:1056F000909104020E94AA49A4E0B2E08C93909198
:1057000005020E94AA49A5E0B2E08C93909106029E
:105710000E94AA49A6E0B2E08C93909107020E94F1
:10572000AA49A7E0B2E08C930C949E2BE4E8FEEA31
:105730000E94BD4E0E9400490E9407490C94A82B6C
:10574000ECEAFEEA0E94BD4E0E9400490E94074911
:1057500008950E94644C62FA16F40C94EA2B80912E
:1057600005020E94A349A5E0B2E08C938091060255
:105770000E94A349A6E0B2E08C93809107020E94A8
:10578000A349A7E0B2E08C9310ED0E94784C13E09F
:105790000E94784C10916B030E94784C1091050286
:1057A0000E94784C109106020E94784C10910702DA
:1057B0000E94784C0E94704C62FA16F00C94E82B10
:1057C000E4EDFEEA0E94BD4E0E9400490E94074996
:1057D0000C94F22BE4EEFEEA0E94BD4E0E940049BA
:1057E0000E94074908950E94644C62FA16F40C94D2
:1057F000302C809102020E94A349A2E0B2E08C9377
:10580000809103020E94A349A3E0B2E08C938091AF
:1058100004020E94A349A4E0B2E08C9310ED0E9420
:10582000784C10E00E94784C109102020E94784C53
:10583000109103020E94784C109104020E94784C4F
:105840000E94704C62FA16F00C942E2CE6E0FFEAEF
:105850000E94BD4E0E9400490E9407490C94382CBA
:10586000E2E1FFEA0E94BD4E0E9400490E94074902
:10587000089581E00E941B4E81E00E941B4E84E04F
:105880000E941B4E209A289881E090E00E94BA491D
:10589000289AEF93FF93ECE9F0E00E94B149FF9161
:1058A000EF912098EF93FF93ECE9F0E00E94B1496B
:1058B000FF91EF91189B0C94A42C209A289884E1D6
:1058C00090E00E94BA49289AEF93FF93ECE9F0E048
:1058D0000E94B149FF91EF912098EF93FF93ECE97B
:1058E000F0E00E94B149FF91EF91189B0C94852C38
:1058F000A2EEB4E088278C93ADEEB4E088278C93B9
:1059000081E08093F9040C94442FEF93FF93ECE330
:10591000F1E00E94B149FF91EF9118990C949F2CEE
:10592000A2EEB4E088278C93ADEEB4E088278C9388
:1059300081E08093F9040C94442F0C94A22C8BE00A
:105940008093F8040C94C12CEF93FF93ECE3F1E007
:105950000E94B149FF91EF9118990C94BE2CA2EED0
:10596000B4E088278C93ADEEB4E088278C9381E077
:105970008093F9040C94442F0C94C12C86E18093FD
:10598000F80480E090E0A3E2B5E08D939C937091E1
:105990006E047E7F70936E04709122057068709320
:1059A0002205A3E2B0E00C9100FB81E00EF080E064
:1059B0008F93AEE6B4E08C9180FB81E00EF480E042
:1059C0009F918923882311F40C94E82C0C94D12CFA
:1059D000AEE6B4E08C9180FB16F40C94252F80E0A9
:1059E0008093F90481E0AC81BD818C93AC81BD8151
:1059F0000C91053018F011F00C94EE2D87E0AA817F
:105A0000BB818C93AA81BB814C9100E0041718F0F4
:105A100011F00C94DB2D80E090E0A3E2B5E08D93D3
:105A20009C9370916E047E7F70936E04709122053A
:105A3000706870932205A3E2B0E00C9100FB81E056
:105A40000EF480E08F93AEE6B4E08C9180FB81E0B1
:105A50000EF480E09F918923882311F40C94322D59
:105A60000C941B2DAEE6B4E08C9180FB16F40C94E4
:105A7000BB2DEF93FF93E8E8F0E00E94B149FF915E
:105A8000EF91189B0C94A32D6894AA81BB818C91F3
:105A9000AC81BD81AD90BB24ACEDB4E0AA0DBB1DC3
:105AA0000E94A84E0E949E4E0C9016F0092201C042
:105AB000082A0C9280E090E0A3E2B5E08D939C93DD
:105AC00070916E047E7F70936E04709122057068F1
:105AD00070932205A3E2B0E00C9100FB81E00EF090
