:100000000C947200189500001895000018950000D7
:10001000189500001895000018950000189500002C
:10002000189500001895000018950000189500001C
:100030001895000018950000189500000C9496057E
:1000400018950000189500001895000018950000FC
:100050000C94210318950000189500000C9452028E
:10006000189500000C940E011895000018950000DA
:1000700018950000189500001895000018950000CC
:1000800018950000189500001895000018950000BC
:100090000C94A00118950000189500001895000018
:1000A000189500001895000018950000189500009C
:1000B000189500001895000018950000189500008C
:1000C000189500001895000018950000189500007C
:1000D000189500001895000018950000189500006C
:1000E000189500008FEF8DBFC0E0E8E14E2E81E251
:1000F0008EBFD1E2FFE15F2EA89584B7082E882736
:1001000084BF88E199278093600090936000EEEFB0
:10011000FFE1A0E0B2E088278D933197E9F787E609
:100120008093C40080E08093C50088E18093C10083
:100130006624279A389A399A3A9A3B9A3C9A3D9A79
:100140003E9A3F9A70910A01716070930A01709112
:100150000A01726070930A0170910A0174607093D1
:100160000A01219A229A239A289A209A5F9A579AEA
:10017000159A089809980A980B98109A119A129A49
:10018000139A85E085BD80E084BD70916E0071603A
:1001900070936E0085E085BD80E08093800085E0EF
:1001A0008093810070916F00716070936F0085E0A3
:1001B0008093810087E08093B10080E08093B0005D
:1001C0007091700071607093700087E08093B1004F
:1001D0007091C10070687093C10087E68093CC0075
:1001E00080E08093CD007091C8007D7F7093C8003F
:1001F00086E08093CA0088E18093C9007091C900AD
:1002000070687093C90070E07093B9007CE07093DF
:10021000B8000E94775A78940C94704F0F921F92F6
:100220002F923F924F925F927F92AF92BF920F9325
:100230001F932F933F934F935F936F937F938F936E
:100240009F93AF93BF93CF93DF93EF93FF939FB7AA
:100250009F939BB79F9399279BBFACE8BBE080918E
:10026000C6008C9384E2482F00918C0B041711F088
:100270000C94450170919408746070939408A7EDF4
:10028000BAE088278C930C9482010D3011F00C9405
:100290006A01A4E9B8E08C9182FB16F00C94680125
:1002A000709194087B7F7093940880E0A7EDBAE08A
:1002B0000E94C7568D9388278C93E7EDFAE0ADE84E
:1002C000BBE00E948C5D70919408726070939408FA
:1002D0000C9482010F3118F011F00C9471010C9400
:1002E0008201A4E9B8E08C9182FB16F00C948201A3
:1002F000ACE8BBE08C91A7EDBAE00E94C7568D93A5
:1003000088278C939F919BBF9F919FBFFF91EF91F7
:10031000DF91CF91BF91AF919F918F917F916F911D
:100320005F914F913F912F911F910F91BF90AF908F
:100330007F905F904F903F902F901F900F90189557
:100340000F921F922F923F924F925F927F92AF92A5
:10035000BF920F931F932F933F934F935F936F938E
:100360007F938F939F93AF93BF93CF93DF93EF933D
:10037000FF939FB79F939BB79F9399279BBFA3EB37
:10038000B8E08091CE008C9385E2482F0091B308AD
:10039000041711F00C94D701709194087061709358
:1003A0009408A4EBB8E088278C930C9434020D30A9
:1003B00011F00C940C02A4E9B8E08C9184FB16F0C7
:1003C0000C940A02709194087F7E7093940880E0E8
:1003D000A4EBB8E00E94C7568D9388278C93E4EB7A
:1003E000F8E0A1E4B9E00E948C5DA1E4B9E0EAE3A1
:1003F000F1EC0E943A5C0E94F65D11F00C9405024B
:1004000070913C02706270933C0270919408786025
:10041000709394080C9434020F3118F011F00C947E
:1004200013020C943402A4E9B8E08C9184FB16F01A
:100430000C943402A3EBB8E08C91A4EBB8E00E94DA
:10044000C7568D9388278C93A4EBB8E00E94F05D8B
:10045000082F0C3818F011F00C9430020C94340270
:10046000A4EBB8E088278C939F919BBF9F919FBF7F
:10047000FF91EF91DF91CF91BF91AF919F918F91BC
:100480007F916F915F914F913F912F911F910F91AC
:10049000BF90AF907F905F904F903F902F901F90B4
:1004A0000F9018950F921F922F923F924F925F924A
:1004B0007F92AF92BF920F931F932F933F934F93CF
:1004C0005F936F937F938F939F93AF93BF93CF93DC
:1004D000DF93EF93FF939FB79F939BB79F939927CA
:1004E0009BBF74E676BDA3EAB7E08C918F5F8C93D7
:1004F000A3EAB7E00C9148E00E94E05D8C93009184
:10050000A307003011F00C94B802A4EAB7E00C91F4
:1005100040E20E94E05D8C93E2E2FCE80E943A5CDB
:10052000A9EAB7E08C919927A5EAB7E00E94F15BB0
:100530008091A407A5EAB7E00E94255C0E941B5C9D
:100540000C900822689409F4E894A7E5B7E08C9130
:1005500082F98C93A7E5B7E08C9182FBA5E2B0E02D
:100560008C9187F98C93A4EAB7E08C918F5F8C9380
:10057000A7E5B7E08C9183FB16F00C94DE02A1EAAC
:10058000B7E00E948056A1EAB7E00D911C9149EFB7
:1005900051E00E94AD56A1EAB7E00D931C93A1EA89
:1005A000B7E00D911C91003050E0150711F00C944C
:1005B000DE0270915707706170935707A7E5B7E0A7
:1005C0008C9180FB16F00C94FD02ADEAB7E00E941E
:1005D0008056AFEAB7E04D915C91ADEAB7E00D917E
:1005E0001C910417150711F00C94FB02709157072A
:1005F0007260709357070C94030380E090E0ADEABB
:10060000B7E08D939C939F919BBF9F919FBFFF915C
:10061000EF91DF91CF91BF91AF919F918F917F919A
:100620006F915F914F913F912F911F910F91BF90CB
:10063000AF907F905F904F903F902F901F900F90C2
:1006400018950F921F922F923F924F925F927F9236
:10065000AF92BF920F931F932F933F934F935F934C
:100660006F937F938F939F93AF93BF93CF93DF93BA
:10067000EF93FF939FB79F939BB79F9399279BBF40
:1006800087EF92EC90938500809384007091AA0785
:1006900071607093AA070E948C58E8E0F2E0FA9328
:1006A000EA93E1E1F2E00E94195AA1EBB7E00D9361
:1006B0001D932D933D93A1EBB7E00E947356E1EBA0
:1006C000F7E0A1E1B2E00E94095A0E949F58E1EBD5
:1006D000F7E0A8E0B2E00E94115A0E9497580E94E9
:1006E0008C58E1E1F2E0AAEDB6E00E948C5DEAED03
:1006F000F6E00E94A459A5EBB7E00D931D932D934E
:100700003D9381E08093B9070091B907003118F05B
:1007100011F00C94B703A9EBB7E0AD90BB24A6E9A8
:10072000B6E0AA0CBB1CAA0CBB1CAA0DBB1D4D91AC
:100730005D916D917C91A5EBB7E00D911D912D918F
:100740003C910E94BA5C11F00C94AF037091990631
:100750007061709399068091B9078093E506A9EBC3
:10076000B7E08C918F5F8C9310F40C948403A1EB11
:10077000B7E00D911D912D913C91A8E5B7E04D9109
:100780005D916D917C910E941A57AAEBB7E00D9391
:100790001D932D933D9340E050E060E070E0AAEBA4
:1007A000B7E00D911D912D913C910E94BA5C11F022
:1007B0000C94DF0370915707706470935707A1EB97
:1007C000B7E00D911D912D913C91AFEBB7E04C91AD
:1007D0005527662777270E941A57AAEBB7E00D9393
:1007E0001D932D933D9340E050E060E070E0AAEB54
:1007F000B7E00D911D912D913C910E94BA5C11F0D2
:100800000C9407047091C00770687093C00781E072
:100810008093410200914102053018F011F00C94D0
:100820007604A1EBB7E00D911D912D913C91A1E4CF
:10083000B2E0AD90BB24A8EFB6E0AA0CBB1CAA0C9A
:10084000BB1CAA0DBB1D4D915D916D917C910E94C9
:10085000B55CAAEBB7E00D931D932D933D93AAEBE6
:10086000B7E00D911D912D913C91A1E4B2E0AD90C6
:10087000BB24A4EEB6E0AA0CBB1CAA0CBB1CAA0DA0
:10088000BB1D4D915D916D917C910E941A57AAEB11
:10089000B7E00D931D932D933D930091410241E0EC
:1008A000041BA0E4B2E00C9340E050E060E070E094
:1008B000AAEBB7E00D911D912D913C910E94BA5C7D
:1008C00011F00C946E0480914002AEEBB7E00E94F0
:1008D000255C0E941B5C9C91982B9C93A1E4B2E048
:1008E0008C918F5F8C9310F40C940A04A4E3B7E00E
:1008F0008C918F5F8C93A4E3B7E00C9141E00E9450
:10090000E05D8C9300913407003011F00C948D045D
:1009100070919906726070939906AAE7B7E08C917E
:100920008F5F8C93AAE7B7E00C9145E00E94E05DF1
:100930008C9300917A07003011F00C94A40470910C
:100940005707706270935707A9E9B6E08C9186FB50
:1009500016F00C94E104A4E9B8E08C9186FB16F43F
:100960000C94E104A5E9B4E00E948056A5E9B4E046
:100970000D911C91A3E9B4E04D915C910E94AD569C
:10098000A5E9B4E00D931C93A5E9B4E00D911C9189
:10099000003050E0150711F00C94E10470919408B8
:1009A000706470939408469847980E94AF0F7091B6
:1009B000BE0771607093BE077091BE07746070933C
:1009C000BE07A4E9B8E08C9186FB16F00C941405E0
:1009D000A5E9B8E00E948056A5E9B8E00D911C9108
:1009E000A7E9B8E04D915C910E94AD56A5E9B8E049
:1009F0000D931C93A5E9B8E00D911C91003050E0D7
:100A0000150711F00C94140570919906706270939B
:100A10009906709194087F7B7093940880E090E031
:100A2000A5E9B4E08D939C93A0ECB7E08C9185FB95
:100A300016F00C947505A0ECB7E08C9184FB16F0D1
:100A40000C944805A0E9B8E00E948056A0E9B8E0FF
:100A50000D911C91ACE8B8E04D915C910E94AD56AF
:100A6000A0E9B8E00D931C93A0E9B8E00D911C91AA
:100A7000003050E0150711F00C9448057091C00744
:100A800078607093C0077091C0077F7E7093C00735
:100A9000A0ECB7E08C9183FB16F00C947505A2E9ED
:100AA000B8E00E948056A2E9B8E00D911C91AEE832
:100AB000B8E04D915C910E94AD56A2E9B8E00D936B
:100AC0001C93A2E9B8E00D911C91003050E015078D
:100AD00011F00C9475057091C00770617093C00798
:100AE0007091C007777F7093C0079F919BBF9F91C4
:100AF0009FBFFF91EF91DF91CF91BF91AF919F91F8
:100B00008F917F916F915F914F913F912F911F91A5
:100B10000F91BF90AF907F905F904F903F902F903C
:100B20001F900F9018950895089508950F921F92A1
:100B30002F923F924F925F927F92AF92BF920F930C
:100B40001F932F933F934F935F936F937F938F9355
:100B50009F93AF93BF93CF93DF93EF93FF939FB791
:100B60009F939BB79F9399279BBF74E67093B200A6
:100B7000A6EDB7E08C918F5F8C93A6EDB7E00C915A
:100B80004AE00E94E05D8C930091D607003011F09E
:100B90000C94AC0700274427A0E2B0E08C9180FBC6
:100BA00000F9A2EFB7E08C9180FB40F9042700FB2D
:100BB000A0ECB7E08C9186F98C93A0ECB7E08C9117
:100BC00086FBAFE0B8E08C9180F98C930027442736
:100BD000A0E2B0E08C9181FB00F9A2EFB7E08C912C
:100BE00081FB40F9042700FBA0ECB7E08C9186F96B
:100BF0008C93A0ECB7E08C9186FBAFE0B8E08C91D1
:100C000081F98C9300274427A0E2B0E08C9182FB0D
:100C100000F9A2EFB7E08C9182FB40F9042700FBBA
:100C2000A0ECB7E08C9186F98C93A0ECB7E08C91A6
:100C300086FBAFE0B8E08C9182F98C9300274427C3
:100C4000A0E2B0E08C9183FB00F9A2EFB7E08C91B9
:100C500083FB40F9042700FBA0ECB7E08C9186F9F8
:100C60008C93A0ECB7E08C9186FBAFE0B8E08C9160
:100C700083F98C9381E08093C1070091C107043010
:100C800018F011F00C94AC070091C10741E0041B6F
:100C9000A2ECB7E00C93A1ECB7E0AD90BB24AFE0C1
:100CA000B8E0AA0DBB1D0C91003011F00C94740635
:100CB0008091C207AFE0B8E00E94255C0E941B5CF7
:100CC0000C900822689409F4E89416F40C947206C7
:100CD00082E0A1ECB7E0AD90BB24AFE0B8E0AA0D94
:100CE000BB1D8C930C94A407013011F00C94940656
:100CF0008091C207AFE0B8E00E94255C0E941B5CB7
:100D00000C900822689409F4E89416F00C9492066A
:100D100083E0A1ECB7E0AD90BB24AFE0B8E0AA0D52
:100D2000BB1D8C930C94A407023011F00C941D078A
:100D30008091C207AFE0B8E00E94255C0E941B5C76
:100D40000C900822689409F4E89416F00C94C206FA
:100D500080E0A1ECB7E0AD90BB24AFE0B8E0AA0D15
:100D6000BB1D8C9380E090E0A1ECB7E0AD90BB247C
:100D7000A1ECB7E0AA0CBB1CAA0DBB1D8D939C93E4
:100D80000C941B07A1ECB7E0AD90BB24A1ECB7E03D
:100D9000AA0CBB1CAA0DBB1D0E948056A1ECB7E09B
:100DA000AD90BB24A1ECB7E0AA0CBB1CAA0DBB1DE7
:100DB0000D911C91A1ECB7E0AD90BB24A8EEB7E07B
:100DC000AA0CBB1CAA0DBB1D4D915C910E94AD5697
:100DD000A1ECB7E0AD90BB24A1ECB7E0AA0CBB1C22
:100DE000AA0DBB1D0D931C93A1ECB7E0AD90BB24E5
:100DF000A1ECB7E0AA0CBB1CAA0DBB1D0D911C9168
:100E0000003050E0150711F00C941B0781E0A1ECB5
:100E1000B7E0AD90BB24AFE0B8E0AA0DBB1D8C934A
:100E20008091C207A3EDB7E00E94255C0E941B5C85
:100E30009C91982B9C930C94A407033011F00C9474
:100E4000A4078091C207AFE0B8E00E94255C0E9431
:100E50001B5C0C900822689409F4E89416F40C9436
:100E60004B0781E0A1ECB7E0AD90BB24AFE0B8E068
:100E7000AA0DBB1D8C9380E090E0A1ECB7E0AD9093
:100E8000BB24A9ECB7E0AA0CBB1CAA0DBB1D8D931B
:100E90009C930C94A407A1ECB7E0AD90BB24A9EC03
:100EA000B7E0AA0CBB1CAA0DBB1D0E948056A1EC8A
:100EB000B7E0AD90BB24A9ECB7E0AA0CBB1CAA0D0F
:100EC000BB1D0D911C91A1ECB7E0AD90BB24A0EE31
:100ED000B7E0AA0CBB1CAA0DBB1D4D915C910E94F2
:100EE000AD56A1ECB7E0AD90BB24A9ECB7E0AA0CDD
:100EF000BB1CAA0DBB1D0D931C93A1ECB7E0AD90DC
:100F0000BB24A9ECB7E0AA0CBB1CAA0DBB1D0D911C
:100F10001C91003050E0150711F00C94A40780E0FC
:100F2000A1ECB7E0AD90BB24AFE0B8E0AA0DBB1DCB
:100F30008C938091C207A4EDB7E00E94255C0E94CB
:100F40001B5C9C91982B9C93A1ECB7E08C918F5FDC
:100F50008C9310F40C943D0600919B08003011F026
:100F60000C94BA0705990C94B80782E080939B080B
:100F70000C941208013011F00C94C607059B0C94D8
:100F8000C40783E080939B080C941208023011F090
:100F90000C94D707059B0C94D20780E080939B08A4
:100FA0000C94D50781E080939B080C9412080330C1
:100FB00011F00C94120805990C94E30781E08093DA
:100FC0009B080C94120880E080939B08A8EAB8E084
:100FD0000E947356A8EAB8E00D911D912D913C91A5
:100FE000A4EAB8E04D915D916D917C910E941A57F1
:100FF000A0EAB8E00D931D932D933D9340E050E09F
:1010000060E070E0A0EAB8E00D911D912D913C9157
:101010000E94BA5C11F00C941208709194087062EE
:10102000709394089F919BBF9F919FBFFF91EF91F9
:10103000DF91CF91BF91AF919F918F917F916F91F0
:101040005F914F913F912F911F910F91BF90AF9062
:101050007F905F904F903F902F901F900F9018952A
:101060002F98EEE3F1EC0E943A5C0E94D6560E9463
:10107000DD56A0E0BFE1EEE5F1EC0E943A5C0E9493
:10108000CB5B0E94CE560E94DD56A0E0BFE1E2E7B6
:10109000F1EC0E943A5C0E94CB5B0E94CE560E940B
:1010A000DD56A0E0BFE1EAE7F1EC0E943A5C0E9465
:1010B000CB5B0E94CE560E94DD56E1E4F3E0A7ED43
:1010C000B7E00E94C95DE4E8F1EC0E943A5C0E943E
:1010D000D656E7EDF7E0A0E0BFE10E94DD5C0E949C
:1010E000CE560E94DD56E1E0F0E0A8E8B3E094E0DF
:1010F0000E94CC5DECE8F1EC0E943A5C0E94D6566E
:10110000E8E8F3E0A0E0BFE10E94115A0E94CE5649
:10111000ECE9F1EC0E943A5C0E94D656E8E8F3E074
:10112000A0E0BFE10E94095A0E94CE560E94DD56FF
:10113000ECE3F3E0A8E5B7E094E00E94CC5DEEE9D3
:10114000F1EC0E943A5C0E94D656E8E5F7E0A0E098
:10115000BFE10E94D05C0E94CE560E94DD56E0E4C2
:10116000F3E0AFEBB7E00E94C95DEAEBF1EC0E945F
:101170003A5C0E94D656EFEBF7E0A0E0BFE10E9498
:10118000DD5C0E94CE560E94DD5681E080932002F5
:1011900000912002043018F011F00C940D09E0E2E7
:1011A000F2E0A190BB24E5E0F0E0EA0DFB1DA0E237
:1011B000B2E0AD90BB24ADE8B3E0AA0DBB1D0E9428
:1011C000C95DE0EDF1EC0E943A5C0E94D656E0E287
:1011D000F2E0A0E0BFE10E94DD5C0E94CE56E2EEAC
:1011E000F1EC0E943A5C0E94D656D201E0E2F2E0B5
:1011F000A190BB24EDE8F3E0EA0DFB1D0E946A5DBF
:10120000D2010E94D0560E94DD56A0E2B2E08C913D
:101210008F5F8C9310F40C94C808E4EEF1EC0E94FC
:101220003A5C0E94D6560E94DD5681E080932402EB
:1012300000912402043018F011F00C94C809EEEE6D
:10124000F1EC0E943A5C0E94D656E4E2F2E0A0E0A3
:10125000BFE10E94DD5C0E94CE560E94DD5681E017
:101260008093250200912502003118F011F00C94B2
:10127000C009A895A4E2B2E00D91112701501040D9
:10128000A0E3B2E00D931C93A0E3B2E00D911C919A
:1012900040E150E00E949E5BA0E3B2E00D931C93FE
:1012A000A0E3B2E00D911C91A5E2B2E04D9155276B
:1012B000040F151FA0E3B2E00D931C93E0E3F2E0EE
:1012C000A190B190E6E0F0E0AA0CBB1CAA0CBB1CFC
:1012D000EA0DFB1DA8E2B2E094E00E94CC5DA8E21A
:1012E000B2E00D911D912D913C91A0E3B2E0AD9043
:1012F000BD90AFE8B3E0AA0CBB1CAA0CBB1CAA0DA6
:10130000BB1D0D931D932D933C93A7EDB7E00C915E
:1013100000FB16F00C94B809E4EFF1EC0E943A5C83
:101320000E94D656E5E2F2E0A0E0BFE10E94DD5C5B
:101330000E94CE56E2EEF1EC0E943A5C0E94D65634
:10134000E8E2F2E0A0E0BFE10E94095A0E94CE5616
:10135000EAEFF1EC0E943A5C0E94D656E0E3F2E03C
:10136000A0E0BFE10E94CD5C0E94CE560E94DD56F7
:10137000A5E2B2E08C918F5F8C9310F40C9432094B
:10138000A4E2B2E08C918F5F8C9310F40C94180956
:10139000EEEFF1EC0E943A5C0E94D6560E94DD56B8
:1013A00081E08093240200912402043018F011F0AF
:1013B0000C94B40AEEEEF1EC0E943A5C0E94D65610
:1013C000E4E2F2E0A0E0BFE10E94DD5C0E94CE56C4
:1013D0000E94DD5681E080932502009125020031B4
:1013E00018F011F00C94AC0AEAE0F2EC0E943A5CBE
:1013F0000E94D656E5E2F2E0A0E0BFE10E94DD5C8B
:101400000E94CE560E94DD56A4E2B2E00D91112753
:1014100001501040A0E3B2E00D931C93A0E3B2E0B2
:101420000D911C9140E250E00E949E5BA0E3B2E06F
:101430000D931C93A5E2B2E00D91112701501040CD
:10144000A2E3B2E00D931C93A2E3B2E00D911C91D4
:1014500048E050E00E949E5BA2E3B2E00D931C9333
:10146000A0E3B2E00D911C91A2E3B2E04D915C913A
:10147000040F151FA0E3B2E00D931C9381E080934D
:10148000270200912702083018F011F00C94A40AEA
:10149000A8950091300240912702040FACE8B3E018
:1014A0000C93ECE8F3E0A190BB24EBE0F1E0EA0D53
:1014B000FB1DACE8B3E0AD90BB24A6E9B4E0AA0DF7
:1014C000BB1D0E94C95DA7EDB7E00C9100FB16F0B3
:1014D0000C949C0AE4E1F2EC0E943A5C0E94D6561D
:1014E000E7E2F2E0A0E0BFE10E94DD5C0E94CE56A0
:1014F000E2EEF1EC0E943A5C0E94D656D201ECE892
:10150000F3E0A190BB24E6E9F4E0EA0DFB1D0E94A4
:101510006A5DD2010E94D056EAE1F2EC0E943A5C88
:101520000E94D656ECE8F3E0A0E0BFE10E94DD5C4B
:101530000E94CE560E94DD56A7E2B2E08C918F5FEA
:101540008C9310F40C94410AA5E2B2E08C918F5F69
:101550008C9310F40C94ED09A4E2B2E08C918F5FAF
:101560008C9310F40C94D309EAE0F1E0A3E9B4E021
:101570000E94CB5DEEE1F2EC0E943A5C0E94D656EE
:10158000E3E9F4E0A0E0BFE10E94CD5C0E94CE560A
:101590000E94DD56E9E7F3E0A7E9B8E00E94CB5DE1
:1015A000ECE2F2EC0E943A5C0E94D656E7E9F8E0E1
:1015B000A0E0BFE10E94CD5C0E94CE560E94DD56A5
:1015C0000E94C317ECE3F2EC0E943A5C0E94D656EC
:1015D000AAE5B3E00E94D056E4E4F2EC0E943A5C43
:1015E0000E94D6560E94DD5683E680939806E5E079
:1015F000F0E0ADE8B3E00E94C95DE6E4F2EC0E94E1
:101600003A5C0E94D656EDE8F3E0A0E0BFE10E940C
:10161000DD5C0E94CE560E94DD5600918D030030A5
:1016200018F011F00C94160B0C942D0B00918D03F7
:10163000053010F00C94200B0E94140E0C942B0B10
:1016400080E080938D03E4E5F2EC0E943A5C0E9416
:10165000D6560E94DD560C94350BE4E6F2EC0E945F
:101660003A5C0E94D6560E94DD5681E080932002AB
:1016700000912002053018F011F00C94CB0BE0E241
:10168000F2E0A190BB24E8E0F3E0AA0CBB1CAA0C9A
:10169000BB1CEA0DFB1DA0E2B2E0AD90BB24A4EEA2
:1016A000B6E0AA0CBB1CAA0CBB1CAA0DBB1D94E087
:1016B0000E94CC5DE0E2F2E0A190BB24ECE1F3E01B
:1016C000AA0CBB1CAA0CBB1CEA0DFB1DA0E2B2E0DD
:1016D000AD90BB24A8EFB6E0AA0CBB1CAA0CBB1CA7
:1016E000AA0DBB1D94E00E94CC5DE8E7F2EC0E94DD
:1016F0003A5C0E94D656E0E2F2E0A0E0BFE10E9430
:10170000DD5C0E94CE56E2EEF1EC0E943A5C0E9453
:10171000D656E0E2F2E0A190BB24E4EEF6E0AA0C9B
:10172000BB1CAA0CBB1CEA0DFB1DA0E0BFE10E9484
:10173000D05C0E94CE56ECE7F2EC0E943A5C0E942C
:10174000D656E0E2F2E0A0E0BFE10E94DD5C0E943C
:10175000CE56E2EEF1EC0E943A5C0E94D656E0E2F0
:10176000F2E0A190BB24E8EFF6E0AA0CBB1CAA0CA7
:10177000BB1CEA0DFB1DA0E0BFE10E94D05C0E94F3
:10178000CE560E94DD56A0E2B2E08C918F5F8C9322
:1017900010F40C94380BE2E4F3E0A8EDB7E00E94FB
:1017A000CB5DA8EDB7E00E948056E2E8F2EC0E9423
:1017B0003A5C0E94D656E8EDF7E0A0E0BFE10E9457
:1017C000CD5C0E94CE560E94DD56E2E4F3E0A8ED27
:1017D000B7E07BE70E94AF5DE6E4F3E0A0EEB7E0A0
:1017E0000E94C95DECE8F2EC0E943A5C0E94D65679
:1017F000D201E0EEF7E00E946A5DD2010E94D0566D
:101800000E94DD5681E08093200200912002043086
:1018100018F011F00C94E20CA895E0E2F2E00191CE
:10182000112747E050E00E949E5BE1E5F3E0E00F06
:10183000F11FA0E2B2E00D91112747E050E00E94B5
:101840009E5BACEEB7E0A00FB11F96E00E94D35DA7
:10185000EEEAF2EC0E943A5C0E94D656E0E2F2E038
:10186000A0E0BFE10E94DD5C0E94CE56E2EEF1EC0A
:101870000E943A5C0E94D656A0E2B2E00D91112778
:1018800047E050E00E949E5BACEEB7E0A00FB11FB6
:101890000E94D0560E94DD56E0E2F2E0A190BB2407
:1018A000E5E4F3E0AA0CBB1CEA0DFB1DA0E2B2E0EC
:1018B000AD90BB24A0EEB7E0AA0CBB1CAA0DBB1DCB
:1018C0000E94CB5DE6EBF2EC0E943A5C0E94D65699
:1018D000E0E2F2E0A0E0BFE10E94DD5C0E94CE56B3
:1018E000E2EEF1EC0E943A5C0E94D656E0E2F2E0B1
:1018F000A190BB24E0EEF7E0AA0CBB1CEA0DFB1D97
:10190000A0E0BFE10E94CD5C0E94CE56E2ECF2EC7A
:101910000E943A5C0E94D6560E94DD56E0E2F2E058
:10192000A190BB24EDE4F3E0AA0CBB1CEA0DFB1D67
:10193000A0E2B2E0AD90BB24A8EEB7E0AA0CBB1CBD
:10194000AA0DBB1D0E94CB5DEAECF2EC0E943A5C52
:101950000E94D656E0E2F2E0A0E0BFE10E94DD5C2A
:101960000E94CE56E2EEF1EC0E943A5C0E94D656FE
:10197000E0E2F2E0A190BB24E8EEF7E0AA0CBB1C89
:10198000EA0DFB1DA0E0BFE10E94CD5C0E94CE5697
:10199000E2ECF2EC0E943A5C0E94D6560E94DD56C0
:1019A00085E0A0E2B2E0AD90BB24A3E1B8E0AA0DCF
:1019B000BB1D8C93A0E2B2E08C918F5F8C9310F4EE
:1019C0000C94050CE7E5F3E0A2EFB7E00E94C95DD7
:1019D000E6EDF2EC0E943A5C0E94D656D201E2EFAC
:1019E000F7E00E946A5DD2010E94D0560E94DD5647
:1019F000E4E7F3E0A8E1B8E00E94C95DEEEDF2ECA7
:101A00000E943A5C0E94D656D201E8E1F8E00E94BA
:101A10006A5DD2010E94D0560E94DD568FEF8093FE
:101A20001808EEEDF2EC0E943A5C0E94D656D20104
:101A3000E8E1F8E00E946A5DD2010E94D0560E945F
:101A4000DD56E5E7F3E0ACE8B8E00E94CB5DE6EEFA
:101A5000F2EC0E943A5C0E94D656ECE8F8E0A0E076
:101A6000BFE10E94CD5C0E94CE560E94DD56E7E7A2
:101A7000F3E0AEE8B8E00E94CB5DE2EFF2EC0E944A
:101A80003A5C0E94D656EEE8F8E0A0E0BFE10E9482
:101A9000CD5C0E94CE560E94DD56EBE7F3E0A9E94B
:101AA000B8E00E94C95DEEEFF2EC0E943A5C0E9441
:101AB000D656E9E9F8E0A0E0BFE10E94DD5C0E94B3
:101AC000CE560E94DD56ECE7F3E0AAE9B8E00E94AA
:101AD000C95DEAE0F3EC0E943A5C0E94D656EAE95E
:101AE000F8E0A0E0BFE10E94DD5C0E94CE560E94BB
:101AF000DD5683E680938B08EDE7F3E0A8EAB8E0D3
:101B000094E00E94CC5DEAE1F3EC0E943A5C0E9412
:101B1000D656E8EAF8E0A0E0BFE10E94D05C0E945F
:101B2000CE560E94DD56ACEAB8E0E1E8F3E094E07E
:101B30000E94CC5DE2E2F3EC0E943A5C0E94D65631
:101B4000ECEAF8E0A0E0BFE10E945F5E0E949F57D0
:101B50000E94CE560E94DD56ECEAF8E00E94645ED8
:101B6000E8EAF8E00E945F5E0E94935E0E94245FB4
:101B7000EDE0F0E0ACE9B8E00E94915DECE2F3EC5E
:101B80000E943A5C0E94D656ECE9F8E0A0E0BFE182
:101B90000E945F5E0E949F570E94CE560E94DD56B3
:101BA000E5E8F3E0A4EAB8E094E00E94CC5DE4E369
:101BB000F3EC0E943A5C0E94D656E4EAF8E0A0E01A
:101BC000BFE10E94D05C0E94CE560E94DD56E9E83B
:101BD000F3E0A0EBB8E00E94C95DECE3F3EC0E94F7
:101BE0003A5C0E94D656D201E0EBF8E00E946A5DB2
:101BF000D2010E94D0560E94DD56EAE8F3E0A1EB44
:101C0000B8E00E94CB5DE8E4F3EC0E943A5C0E94ED
:101C1000D656E1EBF8E0A0E0BFE10E94CD5C0E9467
:101C2000CE560E94DD56089580918D038093240244
:101C3000EEEEF1EC0E943A5C0E94D656E4E2F2E04D
:101C4000A0E0BFE10E94DD5C0E94CE560E94DD56FE
:101C5000A4E2B2E0AD90BB24ADE8B3E0AA0DBB1D99
:101C60008C9180939203E2E5F3EC0E943A5C0E942F
:101C7000D656D201E2E9F3E00E946A5DD2010E94E9
:101C8000D0560E94DD5681E0809325020091250206
:101C9000003118F011F00C94D20EA895A4E2B2E035
:101CA0000D91112701501040A0E3B2E00D931C9359
:101CB000A0E3B2E00D911C9140E150E00E949E5BD8
:101CC000A0E3B2E00D931C93A0E3B2E00D911C9150
:101CD000A5E2B2E04D915527040F151FA0E3B2E035
:101CE0000D931C93A0E3B2E0AD90BD90AFE8B3E0DC
:101CF000AA0CBB1CAA0CBB1CAA0DBB1D0D911D91EF
:101D00002D913C91A8E2B2E00D931D932D933C934D
:101D1000A8E2B2E00D911D912D913C91A5E2B2E0B7
:101D2000AD90BB24A6E9B6E0AA0CBB1CAA0CBB1C58
:101D3000AA0DBB1D0D931D932D933C93E0E6F3EC90
:101D40000E943A5C0E94D656E5E2F2E0A0E0BFE1D4
:101D50000E94DD5C0E94CE56E2EEF1EC0E943A5CFD
:101D60000E94D656E8E2F2E0A0E0BFE10E94095AE4
:101D70000E94CE56EAEFF1EC0E943A5C0E94D656E1
:101D8000E0E3F2E0A0E0BFE10E94CD5C0E94CE560D
:101D90000E94DD56A5E2B2E08C918F5F8C9310F427
:101DA0000C94460E089582E00E94965B82E00E94A9
:101DB000965B81E00E94965BAA85BB850D911127F9
:101DC00001501040AC81BD810D931C93AC81BD814D
:101DD0000D911C9140E250E00E949E5BAC81BD8160
:101DE0000D931C93A885B9850D91112701501040C2
:101DF000AA81BB810D931C93AA81BB810D911C917B
:101E000048E050E00E949E5BAA81BB810D931C9329
:101E1000AC81BD810D911C91AA81BB814D915C91DA
:101E2000040F151FAC81BD810D931C93AC81BD8146
:101E30000D911C91AE81BF814D915527040F151F47
:101E4000AC81BD810D931C93AC81BD810D911C9122
:101E50000F5F1F4FAC81BD810D931C93AC81BD8181
:101E6000AD90BD90A6E9B4E0AA0DBB1D8C91A881F0
:101E7000B9818C93A881B9810C91003011F00C9438
:101E8000450F469847980C94470F469A479AEEE6B6
:101E9000F3EC0E943A5C0E94D656EE81FF81A0E0EE
:101EA000BFE10E94DD5C0E94CE56E2EEF1EC0E94A2
:101EB0003A5C0E94D656D201E881F9810E946A5D9F
:101EC000D2010E94D056ECE9F1EC0E943A5C0E94EB
:101ED000D656EC81FD81A0E0BFE10E94CD5C0E945E
:101EE000CE560E94DD56A881B9818C9180FBA8E274
:101EF000B0E08C9180F98C93A881B9818C9181FBA1
:101F0000A8E2B0E08C9181F98C93A881B9818C9181
:101F100082FBA8E2B0E08C9182F98C93A881B98110
:101F20008C9183FBA8E2B0E08C9183F98C93A8811B
:101F3000B9818C9184FBA8E2B0E08C9184F98C93F8
:101F4000A881B9818C9185FBA8E2B0E08C9185F9DC
:101F50008C9385E0481A80E0580A269608954098A8
:101F6000419842984398449845980895409A419AD8
:101F7000429A439A449A459A0895A0EBB8E08C910E
:101F800080FBA8E2B0E08C9180F98C93A0EBB8E0E4
:101F90008C9181FBA8E2B0E08C9181F98C93A0EB4D
:101FA000B8E08C9182FBA8E2B0E08C9182F98C932E
:101FB000A0EBB8E08C9183FBA8E2B0E08C9183F9B0
:101FC0008C93A0EBB8E08C9184FBA8E2B0E08C91FC
:101FD00084F98C93A0EBB8E08C9185FBA8E2B0E08B
:101FE0008C9185F98C9308950E948C58E8E0F2E07A
:101FF000A4E2B3E00E948C5DA4E2B3E00E94C75665
:10200000E2E7F3EC0E943A5C0E94CB5B0E948C58A2
:10201000E1E1F2E0A4E2B3E00E94C7560E948C5DC9
:10202000A4E2B3E00E94C756E2E7F3EC0E943A5CF8
:102030000E94CB5B81E080931F0281E080931E02AF
:10204000882780931D02A4E2B3E00E940257A4E215
:10205000B3E0E4E7F3EC0E943A5C0E94CB5BE2E180
:10206000F8E0A4E2B3E00E94C7560E94DD5C0027BE
:102070004427A0E2B0E08C9181FB00F9A2EFB7E029
:102080008C9181FB40F9042700FBACE3B2E08C911A
:1020900087F98C93A4E2B3E00E94C756E8E7F3EC1B
:1020A0000E943A5C0E94CB5BACE3B2E08C9187FB70
:1020B000A4E2B3E00E94C7560E942B5C8D93882750
:1020C0008C9300274427A0E2B0E08C9180FB00F9BC
:1020D000A2EFB7E08C9180FB40F9042700FBACE352
:1020E000B2E08C9187F98C93A4E2B3E00E94C756CA
:1020F000EEE7F3EC0E943A5C0E94CB5BACE3B2E00B
:102100008C9187FBA4E2B3E00E94C7560E942B5C2F
:102110008D9388278C93A4E2B3E00E94C756E4E82D
:10212000F3EC0E943A5C0E94CB5B83E080931F0239
:1021300081E080931E02882780931D02A4E2B3E011
:102140000E940257A4E2B3E0E8E8F3EC0E943A5C94
:102150000E94CB5BECE6F7E0A4E2B3E00E94C75636
:102160000E948C5DA4E2B3E00E94C756ECE8F3EC59
:102170000E943A5C0E94CB5BE1E6F7E0A4E2B3E0A8
:102180000E94C7560E948C5DA4E2B3E00E94C7562D
:10219000E4E8F3EC0E943A5C0E94CB5B85E080931C
:1021A0001F0281E080931E02882780931D02A4E213
:1021B000B3E00E940257AEE3B2E08C918F5F8C9344
:1021C000AEE3B2E00C9100FB16F00C940912ADE303
:1021D000B2E08C918F5F8C93A4E2B3E088278C935C
:1021E000ADE3B2E00C9141E10E94E05D8C9300917F
:1021F0003D02003011F00C94BA11A4E2B3E0E0E922
:10220000F3EC0E943A5C0E94CB5BEDE8F3E0A4E2C1
:10221000B3E00E94C7560E94DD5CA4E2B3E00E94D6
:10222000C756E2E9F3EC0E943A5C0E94CB5BA2E95C
:10223000B3E08C9180FBA4E2B3E00E94C7560E94F9
:102240002B5C8D9388278C93A4E2B3E00E94C75641
:10225000E6E9F3EC0E943A5C0E94CB5BA2E9B3E0B2
:102260008C9181FBA4E2B3E00E94C7560E942B5CD4
:102270008D9388278C93A4E2B3E00E94C756E6E9C9
:10228000F3EC0E943A5C0E94CB5BA2E9B3E08C9134
:1022900082FBA4E2B3E00E94C7560E942B5C8D93A0
:1022A00088278C93A4E2B3E00E94C756E8E9F3ECD8
:1022B0000E943A5C0E94CB5BA2E9B3E08C9183FB65
:1022C000A4E2B3E00E94C7560E942B5C8D9388273E
:1022D0008C93A4E2B3E00E94C756EAE9F3EC0E94B3
:1022E0003A5C0E94CB5BA2E9B3E08C9184FBA4E250
:1022F000B3E00E94C7560E942B5C8D9388278C9375
:10230000A4E2B3E00E94C756ECE9F3EC0E943A5C09
:102310000E94CB5BA2E9B3E08C9185FBA4E2B3E021
:102320000E94C7560E942B5C8D9388278C93A4E251
:10233000B3E00E94C756EEE9F3EC0E943A5C0E94BB
:10234000CB5BA2E9B3E08C9186FBA4E2B3E00E94F0
:10235000C7560E942B5C8D9388278C93A4E2B3E030
:102360000E94C756E2E7F3EC0E943A5C0E94CB5B06
:102370000C94FC11ADE3B2E0AD90BB24A6E9B6E04D
:10238000AA0CBB1CAA0CBB1CAA0DBB1D0D911D9158
:102390002D913C91A8E2B2E00D931D932D933C93B7
:1023A000A4E2B3E0E0EAF3EC0E943A5C0E94CB5B6B
:1023B000EDE3F2E0A4E2B3E00E94C7560E94DD5CC8
:1023C000A4E2B3E00E94C756E2EEF1EC0E943A5C50
:1023D0000E94CB5BE8E2F2E0A4E2B3E00E94C756C1
:1023E0000E94095AA4E2B3E00E94C756E4EAF3EC63
:1023F0000E943A5C0E94CB5B87E080931F0281E0E1
:1024000080931E02882780931D02A4E2B3E00E94FD
:1024100002570895E5E0F0E0A0E1BB2781E08C934E
:102420007BE70E94AD5DEAE0F1E00CE310E0A0E1A3
:10243000BB277BE70E94AF5DE9E7F3E004E813E028
:10244000A0E1BB277BE70E94AF5D80E08093210283
:10245000EDE7F3E000E010E020E030E0A0E1BB2792
:1024600094E07BE70E94B05DACEAB8E0EEE2F1EC0C
:102470000E943A5C0E94DF5BE1E8F3E0ACEAB8E07E
:1024800094E07BE70E94B05DE5E8F3E001E010E056
:1024900020E030E0A0E1BB2794E07BE70E94B05D44
:1024A00081E08093200200912002043018F011F0A6
:1024B0000C94FF12A895E0E2F2E0A190BB24E5E0C5
:1024C000F0E0EA0DFB1DA0E1BB278FE78C937BE7D3
:1024D0000E94AD5DA4E2B3E0EAEAF3EC0E943A5C4C
:1024E0000E94CB5BE4E2F3E00E94A459A8E2B2E0D0
:1024F0000D931D932D933D93E4EBF3EC0E943A5C16
:102500000E94D656E0E2F2E0A0E0BFE10E94DD5C6E
:102510000E94CE56EAEBF3EC0E943A5C0E94D6563B
:10252000E8E2F2E0A0E0BFE10E94D05C0E94CE565B
:102530000E94DD5681E08093220200912202003148
:1025400018F011F00C94F712A1E2B2E08C918F5FB9
:102550008C93A8E2B2E00D911D912D913C91A1E2E6
:10256000B2E0AD90BB24AFE8B3E0AA0CBB1CAA0C50
:10257000BB1CAA0DBB1D0D931D932D933C93E0EA4C
:10258000F3EC0E943A5C0E94D656E1E2F2E0A0E051
:10259000BFE10E94DD5C0E94CE56E2EEF1EC0E94AB
:1025A0003A5C0E94D656E8E2F2E0A0E0BFE10E9469
:1025B000095A0E94CE560E94DD56A8E2B2E00D9163
:1025C0001D912D913C9140E15EE060E070E00E9441
:1025D000B05CA8E2B2E00D931D932D933D93A2E26F
:1025E000B2E08C918F5F8C9310F40C949D12A0E25A
:1025F000B2E08C918F5F8C9310F40C94531281E0B5
:102600008093250200912502003418F011F00C94FB
:102610002D13E5E2F2E0A190BB24E6E0F0E0AA0C85
:10262000BB1CAA0CBB1CEA0DFB1DA5E2B2E0AD90E1
:10263000BB24AFE8B3E0AA0CBB1CAA0CBB1CAA0DC0
:10264000BB1D94E07BE70E94B05DA5E2B2E08C91F7
:102650008F5F8C9310F40C94021381E0809324021A
:1026600000912402043018F011F00C941C14EEEECA
:10267000F1EC0E943A5C0E94D656E4E2F2E0A0E05F
:10268000BFE10E94DD5C0E94CE560E94DD5681E0D3
:102690008093250200912502003118F011F00C946E
:1026A0001414EAE0F2EC0E943A5C0E94D656E5E28D
:1026B000F2E0A0E0BFE10E94DD5C0E94CE560E94E5
:1026C000DD56A4E2B2E00D91112701501040A0E3C5
:1026D000B2E00D931C93A0E3B2E00D911C9140E297
:1026E00050E00E949E5BA0E3B2E00D931C93A5E234
:1026F000B2E00D91112701501040A2E3B2E00D931A
:102700001C93A2E3B2E00D911C9148E050E00E94BE
:102710009E5BA2E3B2E00D931C93A0E3B2E00D91A7
:102720001C91A2E3B2E04D915C91040F151FA0E350
:10273000B2E00D931C9381E0809327020091270261
:10274000083018F011F00C940C14A8950091300288
:1027500040912702040FACE8B3E00C93E6E6FCE8F6
:102760000E943A5CA7E2B2E08C919927A0E2B2E025
:102770000E94ED5B80912002ACE8B3E0AD90BB24F9
:10278000A6E9B4E0AA0DBB1D8C93ECE8F3E0A190A0
:10279000BB24EBE0F1E0EA0DFB1DA0E2B2E07BE739
:1027A0000E94AD5DE4E1F2EC0E943A5C0E94D656D4
:1027B000E7E2F2E0A0E0BFE10E94DD5C0E94CE56BD
:1027C000E2EEF1EC0E943A5C0E94D656D201ECE8AF
:1027D000F3E0A190BB24E6E9F4E0EA0DFB1D0E94C2
:1027E0006A5DD2010E94D056EAE1F2EC0E943A5CA6
:1027F0000E94D656ECE8F3E0A0E0BFE10E94DD5C69
:102800000E94CE560E94DD56A7E2B2E08C918F5F07
:102810008C9310F40C949E13A5E2B2E08C918F5F20
:102820008C9310F40C944A13A4E2B2E08C918F5F65
:102830008C9310F40C943013E1E4F3E0A0E1BB2797
:1028400080E08C937BE70E94AD5D80E08093200266
:1028500081E08093240200912402053018F011F0E9
:102860000C949F140CE211E020E030E0A4E2B2E00E
:10287000AD90BB24A4EEB6E0AA0CBB1CAA0CBB1CFA
:10288000AA0DBB1D0D931D932D933C93E4E2F2E042
:10289000A190BB24E8E0F3E0AA0CBB1CAA0CBB1C73
:1028A000EA0DFB1DA4E2B2E0AD90BB24A4EEB6E0BD
:1028B000AA0CBB1CAA0CBB1CAA0DBB1D94E07BE799
:1028C0000E94B05DA0E2B2E08C91A4E2B2E0AD90D3
:1028D000BB24A8EFB6E0AA0CBB1CAA0CBB1CAA0D1B
:1028E000BB1D8D9388278D938D938C93E4E2F2E04A
:1028F000A190BB24ECE1F3E0AA0CBB1CAA0CBB1C0E
:10290000EA0DFB1DA4E2B2E0AD90BB24A8EFB6E057
:10291000AA0CBB1CAA0CBB1CAA0DBB1D94E07BE738
:102920000E94B05DA0E2B2E08C91845C8C93A4E242
:10293000B2E08C918F5F8C9310F40C942B1481E097
:102940008093240200912402043018F011F00C94BA
:10295000F414A4E2B3E0E2ECF3EC0E943A5C0E94CF
:10296000CB5BE4E2F2E0A4E2B3E00E94C7560E942F
:10297000DD5CE4E2F2E00191112747E050E00E94C3
:102980009E5BE1E5F3E0E00FF11FA4E2B3E07BE73B
:102990000E94BE5DE4E2F2E0A190BB24E5E4F3E036
:1029A000AA0CBB1CEA0DFB1D0AE010E0A0E1BB274E
:1029B0007BE70E94AF5DE4E2F2E0A190BB24EDE48E
:1029C000F3E0AA0CBB1CEA0DFB1D0AE010E0A0E13D
:1029D000BB277BE70E94AF5DA4E2B2E08C918F5FE2
:1029E0008C9310F40C94A214E7E5F3E0A0E1BB276C
:1029F0008FE08C937BE70E94AD5DE4E7F3E0A0E11C
:102A0000BB278FE08C937BE70E94AD5DE5E7F3E0A9
:102A10000CE310E0A0E1BB277BE70E94AF5DE7E796
:102A2000F3E008E017E0A0E1BB277BE70E94AF5D81
:102A3000ECE3F3E000E11EE020E030E0A0E1BB27A2
:102A400094E07BE70E94B05DE0E4F3E0A0E1BB2707
:102A50008CE38C937BE70E94AD5DECE7F3E0A0E1B3
:102A6000BB2780E08C937BE70E94AD5DE4E4F3E05C
:102A700000E010E0A0E1BB277BE70E94AF5DEBE741
:102A8000F3E0A0E1BB2784E18C937BE70E94AD5D7E
:102A9000E9E8F3E0A0E1BB278FE38C937BE70E949A
:102AA000AD5DEAE8F3E000E010E0A0E1BB277BE7E2
:102AB0000E94AF5D0895E5E0F0E0A0E1BB2781E072
:102AC0008C937BE70E94AD5DE7E5F3E0A0E1BB27D7
:102AD0008DE08C937BE70E94AD5DEAE0F1E00CE3D2
:102AE00010E0A0E1BB277BE70E94AF5DE9E7F3E0E0
:102AF00004E813E0A0E1BB277BE70E94AF5DA4E2FE
:102B0000B3E0E6ECF3EC0E943A5C0E94CB5BE4E2BB
:102B1000F3E00E94A459A8E2B2E00D931D932D9317
:102B20003D93EAE0F0E0A8E2B2E094E07BE70E94A7
:102B3000B05DA4E2B3E0E0EDF3EC0E943A5C0E94E9
:102B4000CB5BE4E2F3E00E94A459A8E2B2E00D936B
:102B50001D932D933D93EEE0F0E0A8E2B2E094E007
:102B60007BE70E94B05DA4E2B3E0EAEDF3EC0E94E3
:102B70003A5C0E94CB5BE4E2F3E00E94A459A8E235
:102B8000B2E00D931D932D933D93E2E1F0E0A8E2B6
:102B9000B2E094E07BE70E94B05DA4E2B3E0E4EE33
:102BA000F3EC0E943A5C0E94CB5BE4E2F3E00E940B
:102BB000A459A8E2B2E00D931D932D933D93E6E155
:102BC000F0E0A8E2B2E094E07BE70E94B05DA4E20E
:102BD000B3E0EEEEF3EC0E943A5C0E94CB5BE4E2E1
:102BE000F3E00E94A459A8E2B2E00D931D932D9347
:102BF0003D93EAE1F0E0A8E2B2E094E07BE70E94D6
:102C0000B05DA4E2B3E0E8EFF3EC0E943A5C0E940E
:102C1000CB5BE4E2F3E00E94A459A8E2B2E00D939A
:102C20001D932D933D93EEE1F0E0A8E2B2E094E035
:102C30007BE70E94B05DA4E2B3E0E2E0F4EC0E9426
:102C40003A5C0E94CB5BE4E2F3E00E94A459A8E264
:102C5000B2E00D931D932D933D93E2E2F0E0A8E2E4
:102C6000B2E094E07BE70E94B05DA4E2B3E0E6EC62
:102C7000F3EC0E943A5C0E94CB5BE4E2F3E00E943A
:102C8000A459A8E2B2E00D931D932D933D93E6E283
:102C9000F0E0A8E2B2E094E07BE70E94B05DEAE2F7
:102CA000F0E0A8E2B2E094E07BE70E94B05DEEE2E3
:102CB000F0E0A8E2B2E094E07BE70E94B05DE2E3DE
:102CC000F0E0A8E2B2E094E07BE70E94B05DE6E3CA
:102CD000F0E0A8E2B2E094E07BE70E94B05DEAE3B6
:102CE000F0E0A8E2B2E094E07BE70E94B05DEEE3A2
:102CF000F0E0A8E2B2E094E07BE70E94B05DE2E49D
:102D0000F0E0A8E2B2E094E07BE70E94B05DE6E488
:102D1000F0E0A8E2B2E094E07BE70E94B05D81E0E1
:102D20008093240281E080932502009125020031E6
:102D300018F011F00C945E17EAE0F2EC0E943A5C95
:102D40000E94D656E5E2F2E0A0E0BFE10E94DD5C21
:102D50000E94CE560E94DD56A4E2B2E00D911127EA
:102D600001501040A0E3B2E00D931C93A0E3B2E049
:102D70000D911C9140E250E00E949E5BA0E3B2E006
:102D80000D931C93A5E2B2E00D9111270150104064
:102D9000A2E3B2E00D931C93A2E3B2E00D911C916B
:102DA00048E050E00E949E5BA2E3B2E00D931C93CA
:102DB000A0E3B2E00D911C91A2E3B2E04D915C91D1
:102DC000040F151FA0E3B2E00D931C9381E08093E4
:102DD000270200912702083018F011F00C945617C2
:102DE0000091300240912702040FACE8B3E00C934D
:102DF000E0E7FCE80E943A5CA7E2B2E08C919927F8
:102E0000A0E2B2E00E94ED5B80912002ACE8B3E06A
:102E1000AD90BB24A6E9B4E0AA0DBB1D8C93ECE8F1
:102E2000F3E0A190BB24EBE0F1E0EA0DFB1DA0E292
:102E3000B2E07BE70E94AD5DE4E1F2EC0E943A5C17
:102E40000E94D656E7E2F2E0A0E0BFE10E94DD5C1E
:102E50000E94CE56E2EEF1EC0E943A5C0E94D656F9
:102E6000D201ECE8F3E0A190BB24E6E9F4E0EA0D3E
:102E7000FB1D0E946A5DD2010E94D056EAE1F2EC8D
:102E80000E943A5C0E94D656ECE8F3E0A0E0BFE175
:102E90000E94DD5C0E94CE560E94DD56A7E2B2E0A1
:102EA0008C918F5F8C9310F40C94E916A5E2B2E03C
:102EB0008C918F5F8C9310F40C9495160895ECE030
:102EC000F4EC0E943A5C0E94D6560E94DD56E0E087
:102ED000F0E0A9E5B3E00E94C95D80E080932102A3
:102EE000A4E9B8E08C9181FB16F00C948A177091DC
:102EF00094087D7F70939408E6E2F4EC0E943A5CBB
:102F00000E94D656ADE8BBE00E94D0560E94DD5626
:102F10000E9458180091AA07013011F00C94B417C0
:102F20007091AA077E7F7093AA07A0E2B2E08C910D
:102F30008F5F8C93A1E2B2E08C918F5F8C93A0E2C3
:102F4000B2E00C914AE00E94E05D8C930091200277
:102F5000003011F00C94B417ECE2F4EC0E943A5CEF
:102F60000E94D6560E94DD5600915903013011F09F
:102F70000C947017EEE4F4EC0E943A5C0E94D65672
:102F80000E94DD56089580E08093200280E08093C7
:102F90002102AAE5B3E088278C938EE0809320027B
:102FA00000912002073118F011F00C94EE17A0E206
:102FB000B2E0EC91FF270E94855B082FE0E1F0E092
:102FC000AAE5B3E00E94C7560E94515DA0E2B2E0BC
:102FD0008C918F5F8C9310F40C94D017EAE5F3E09A
:102FE000A9E4B2E00E948C5DAAE5B3E088278C9347
:102FF0008EE08093200200912002073118F011F03A
:103000000C941918A0E2B2E0EC91FF270E94855BB6
:10301000082FE0E1F0E0AAE5B3E00E94C7560E9465
:10302000515DA0E2B2E08C918F5F8C9310F40C9410
:10303000FB17E9E4F2E0AAE5B3E00E94F85D11F0C5
:103040000C94251881E080932002A1E2B2E08C91DB
:103050008F5F8C9300912002003011F00C94441883
:1030600084EF91E00E949057E2E6F4EC0E943A5C13
:103070000E94D656E1E2F2E0A0E0BFE10E94DD5CF2
:103080000E94CE560E94DD5600912002013081E060
:1030900009F080E08F93009121020A3081E009F06D
:1030A00080E09F91892B882311F40C94C91708950F
:1030B000E8E6F4EC0E943A5C0E94D656ADE8BBE02C
:1030C0000E94D0560E94DD56A89581E0EDE8FBE015
:1030D00006E00A93A4E2B3E00E94975DEDE8FBE00E
:1030E0009CE200E238E0AFECB9E00E942A5EAEEC70
:1030F000B9E02C93AFECB9E00E94F05D082F0630E8
:1031000011F00C948C33EFECF9E0A2E4B2E00E94F1
:103110008C5DE2E4F2E0A2E4B2E00E940F5C8FEF8B
:1031200080931203A2E4B2E0EAE6F4EC0E943A5C77
:103130000E94F65D11F00C94DE1880E0809312037B
:10314000A9E4B2E0E2E7F4EC0E943A5C0E94CB5BB7
:10315000A4E2B3E0E6E8F4EC0E943A5C0E94CB5BA8
:10316000E4E2F3E0A9E4B2E00E94C7560E948C5D5D
:10317000A9E4B2E00E94C756EAE9F4EC0E943A5C86
:103180000E94CB5BA4E2B3E0EAE7F1EC0E943A5C78
:103190000E94CB5BE4E2F3E0A9E4B2E00E94C756F0
:1031A0000E948C5DA9E4B2E00E94C756E4E4F2EC10
:1031B0000E943A5C0E94CB5B0C948A33E8EAF4EC00
:1031C0000E943A5C0E94F65D11F00C94051980E0B3
:1031D00080931203A9E4B2E0E0EBF4EC0E943A5CC5
:1031E0000E94CB5B70913C02726070933C0281E064
:1031F00080935903E0E0F0E0A9E5B3E07BE70E94AB
:10320000AD5D0E940A120C948A33EEEDF4EC0E943C
:103210003A5C0E94F65D11F00C94201980E08093D6
:103220001203A9E4B2E0E6EEF4EC0E943A5C0E94DC
:10323000CB5B70913C02706170933C020C948A33BA
:10324000EAEFF4EC0E943A5C0E94F65D11F00C94F7
:103250003D1980E080931203A9E4B2E0E2E0F5ECCE
:103260000E943A5C0E94CB5B70913C02726070934A
:103270003C020E945B150C948A33ECE1F5EC0E9451
:103280003A5C0E94F65D11F00C9499190091CE09F8
:10329000023011F00C949419A0EFB9E00E94225D65
:1032A000A0E2B2E00C9300912002003080E010F028
:1032B00009F081E08F9300912002013181E008F054
:1032C00080E09F918923882311F40C948F1980E06A
:1032D00080931203709199067061709399068091A2
:1032E00020028093E506A9E4B2E0E4E2F5EC0E9456
:1032F0003A5C0E94CB5BE0E2F2E0A9E4B2E00E941B
:10330000C7560E94DD5CA9E4B2E00E94C756EAE419
:10331000F5EC0E943A5C0E94CB5B0C94921985E01C
:10332000809312030C94971984E0809312030C94F9
:103330008A33E8E5F5EC0E943A5C0E94F65D11F0F4
:103340000C94C31980E0809312030E94C317A9E470
:10335000B2E0E0E6F5EC0E943A5C0E94CB5BEAE565
:10336000F3E0A9E4B2E00E94C7560E948C5DA9E494
:10337000B2E00E94C756E4E4F2EC0E943A5C0E947C
:10338000CB5B0C948A33EAE6F5EC0E943A5C0E942F
:10339000F65D11F00C94021A0091CE09023011F082
:1033A0000C94FD19A0EFB9E00E94225DA0E2B2E00A
:1033B0000C9300912002013110F00C94F81980E078
:1033C00080931203A9E4B2E0E2E7F5EC0E943A5CD4
:1033D0000E94CB5BE0E2F2E0A9E4B2E00E94C756B3
:1033E0000E94DD5C809120028093A9070C94FB1958
:1033F00085E0809312030C94001A84E080931203FA
:103400000C948A33EAE8F5EC0E943A5C0E94F65D7F
:1034100011F00C94111B0091CE09023011F00C94A4
:103420000C1BA0EFB9E00E94F05D082F0C3011F0EA
:103430000C94071B80E08093120387E0E0EFF9E033
:1034400002E00A93A4E2B3E00E94975DA4E2B3E035
:103450000E94C756E2E9F5EC0E943A5C0E94CB5B01
:1034600089E0E0EFF9E002E00A93A4E2B3E00E9411
:10347000C7560E94975DA4E2B3E00E94C756E2E9F6
:10348000F5EC0E943A5C0E94CB5B8BE0E0EFF9E048
:1034900002E00A93A4E2B3E00E94C7560E94975D3F
:1034A000A4E2B3E00E94D0560E94DD56E4E2F3E0CD
:1034B000A1E1B2E00E948C5D0E949F58E4E9F5EC26
:1034C0000E943A5C0E94D6560E948C58A1E1B2E05C
:1034D0000E94D0560E94DD5681E0E0EFF9E002E064
:1034E0000A93A4E2B3E00E94975DA4E2B3E00E94D5
:1034F000C756E8E9F5EC0E943A5C0E94CB5B83E09A
:10350000E0EFF9E002E00A93A4E2B3E00E94C756BC
:103510000E94975DA4E2B3E00E94C756E8E9F5EC8B
:103520000E943A5C0E94CB5B85E0E0EFF9E002E0AC
:103530000A93A4E2B3E00E94C7560E94975DA4E2FA
:10354000B3E00E94D0560E94DD56E4E2F3E0A8E02A
:10355000B2E00E948C5D0E949758EAE9F5EC0E9467
:103560003A5C0E94D6560E948C58A8E0B2E00E94B5
:10357000D0560E94DD56A9E4B2E0EEE9F5EC0E94D7
:103580003A5C0E94CB5B0E948C58E8E0F2E0A9E430
:10359000B2E00E94C7560E948C5DA9E4B2E00E948E
:1035A000C756E8ECF5EC0E943A5C0E94CB5B0E94A7
:1035B0008C58E1E1F2E0A9E4B2E00E94C7560E9413
:1035C0008C5DE5E0F2E00E94EF58A1E7B3E08C9358
:1035D0000E9476350E94C0350E94EF34E2E0F2E0AE
:1035E0000E94D059A8E8B3E00D931D932D933D930D
:1035F000E1E0F0E0A8E8B3E094E07BE70E94B05D92
:1036000070913C02716070933C020C940A1B86E03E
:10361000809312030C940F1B84E0809312030C948C
:103620008A33ECECF5EC0E943A5C0E94F65D11F0F6
:103630000C94271B80E080931203A9E4B2E0E4ED30
:10364000F5EC0E943A5C0E94CB5B0C948A33ECED63
:10365000F5EC0E943A5C0E94F65D11F00C94671B39
:1036600080E0809312030E948C58E1E1F2E0A4E232
:10367000B3E00E948C5DA9E4B2E0E4EEF5EC0E94B8
:103680003A5C0E94CB5BE4E2F3E0A9E4B2E00E9482
:10369000C7560E948C5DA9E4B2E00E94C756E2EFD3
:1036A000F5EC0E943A5C0E94CB5B0E948C58E8E0EB
:1036B000F2E0A4E2B3E00E948C5DE4E2F3E0A9E46E
:1036C000B2E00E94C7560E948C5D0C948A33E2E0FF
:1036D000F6EC0E943A5C0E94F65D11F00C94A31B7C
:1036E00080E080931203E8E8F3E0A4E2B3E00E94F4
:1036F000095AA9E4B2E0EAE0F6EC0E943A5C0E94C2
:10370000CB5BE4E2F3E0A9E4B2E00E94C7560E947A
:103710008C5DA9E4B2E00E94C756EEE1F6EC0E948F
:103720003A5C0E94CB5BE8E8F3E0A4E2B3E00E94DD
:10373000115AE4E2F3E0A9E4B2E00E94C7560E9405
:103740008C5D0C948A33E6E2F6EC0E943A5C0E94AF
:10375000F65D11F00C94AC1C0091CE09043011F010
:103760000C94A71CA0EFB9E00E94225DA1E2B2E098
:103770000C9300912102003080E010F009F081E00C
:103780008F9300912102053081E008F080E09F9145
:103790008923882311F40C94A21CA1E1BAE00E94B1
:1037A000225DA0E2B2E00C9300912002003080E0A4
:1037B00010F009F081E08F9300912002013181E047
:1037C00008F080E09F918923882311F40C949D1CBC
:1037D00080E080931203E2E3FAE0A4E2B3E00E9407
:1037E0008C5DA1E2B2E00D91112701501040A0E3E1
:1037F000B2E00D931C93A0E3B2E00D911C9140E167
:1038000050E00E949E5BA0E3B2E00D931C93A0E306
:10381000B2E00D911C91A0E2B2E04D915527040F4A
:10382000151FA0E3B2E00D931C93EEE2F6EC0E94AC
:103830003A5C0E94D656E0E3F2E0A0E0BFE10E94CD
:10384000CD5C0E94CE560E94DD56E4E2F3E00E9479
:10385000A459A0E3B2E0AD90BD90AFE8B3E0AA0CEC
:10386000BB1CAA0CBB1CAA0DBB1D0D931D932D9355
:103870003D93E0E3F2E0A190B190E6E0F0E0AA0C25
:10388000BB1CAA0CBB1CEA0DFB1DA0E3B2E0AD9073
:10389000BD90AFE8B3E0AA0CBB1CAA0CBB1CAA0DE0
:1038A000BB1D94E07BE70E94B05DE0E3F2E0A190F5
:1038B000B190EFE8F3E0AA0CBB1CAA0CBB1CEA0D0C
:1038C000FB1DA4E2B3E00E94095AA9E4B2E0E8E3D8
:1038D000F6EC0E943A5C0E94CB5BE0E2F2E0A9E4E5
:1038E000B2E00E94C7560E94DD5CA9E4B2E00E94EB
:1038F000C756E8ECF5EC0E943A5C0E94CB5BE4E230
:10390000F3E0A9E4B2E00E94C7560E948C5DA9E4EE
:10391000B2E00E94C756E6E4F6EC0E943A5C0E94D0
:10392000CB5BE1E2F2E0A9E4B2E00E94C7560E945C
:10393000DD5C0E94140E0C94A01C86E080931203A0
:103940000C94A51C85E0809312030C94AA1C84E0BF
:10395000809312030C948A33E0E5F6EC0E943A5C03
:103960000E94F65D11F00C947D1D0091CE0903308C
:1039700011F00C94781DA0EFB9E00E94225DA1E245
:10398000B2E00C9300912102003080E010F009F0C9
:1039900081E08F9300912102053081E008F080E002
:1039A0009F918923882311F40C94731DA1E1BAE03F
:1039B0000E94225DA0E2B2E00C9300912002003050
:1039C00080E010F009F081E08F9300912002013136
:1039D00081E008F080E09F918923882311F40C9402
:1039E0006E1D80E080931203A1E2B2E00D911127D9
:1039F00001501040A0E3B2E00D931C93A0E3B2E0AD
:103A00000D911C9140E150E00E949E5BA0E3B2E06A
:103A10000D931C93A0E3B2E00D911C91A0E2B2E0E3
:103A20004D915527040F151FA0E3B2E00D931C9391
:103A3000EEE2F6EC0E943A5C0E94D656E0E3F2E039
:103A4000A0E0BFE10E94CD5C0E94CE560E94DD56F0
:103A5000E0E3F2E0A190B190EFE8F3E0AA0CBB1C28
:103A6000AA0CBB1CEA0DFB1DA4E2B3E00E94095A9C
:103A7000A9E4B2E0E8E5F6EC0E943A5C0E94CB5B78
:103A8000E0E2F2E0A9E4B2E00E94C7560E94DD5CE9
:103A9000A9E4B2E00E94C756E0E6F6EC0E943A5C68
:103AA0000E94CB5BE4E2F3E0A9E4B2E00E94C756D7
:103AB0000E948C5DA9E4B2E00E94C756E6E4F6ECF1
:103AC0000E943A5C0E94CB5BE1E2F2E0A9E4B2E042
:103AD0000E94C7560E94DD5C0C94711D86E08093A5
:103AE00012030C94761D85E0809312030C947B1DC9
:103AF00084E0809312030C948A33E4E6F6EC0E948F
:103B00003A5C0E94F65D11F00C94CF1D0091CE0935
:103B1000023011F00C94CA1DA0EFB9E00E94225DA2
:103B2000A0E3B2E00D931C93A0E3B2E00D911C91D1
:103B3000003050E0150718F011F00C94A11D0C9402
:103B4000C51D80E080931203A0E3B2E08D919C91AB
:103B5000A3E9B4E08D939C93A9E4B2E0ECE6F6EC23
:103B60000E943A5C0E94CB5BE3E9F4E0A9E4B2E096
:103B70000E94C7560E94CD5CEAE0F1E0A3E9B4E000
:103B80007BE70E94AF5D0C94C81D85E08093120313
:103B90000C94CD1D84E0809312030C948A33E2E8E8
:103BA000F6EC0E943A5C0E94F65D11F00C94ED1D5B
:103BB00080E080931203A9E4B2E0EAE8F6EC0E9408
:103BC0003A5C0E94CB5BE3E9F4E0A9E4B2E00E9436
:103BD000C7560E94CD5C0C948A33E2E9F6EC0E9451
:103BE0003A5C0E94F65D11F00C943F1E0091CE09E4
:103BF000023011F00C943A1EA0EFB9E00E94225D51
:103C0000A0E3B2E00D931C93A0E3B2E00D911C91F0
:103C1000003050E0150718F011F00C94111E0C94B0
:103C2000351E80E080931203A0E3B2E08D919C9159
:103C3000A7E9B8E08D939C93A9E4B2E0EAE9F6EC39
:103C40000E943A5C0E94CB5BE7E9F8E0A9E4B2E0AD
:103C50000E94C7560E94CD5CE9E7F3E0A7E9B8E00F
:103C60007BE70E94AF5D0C94381E85E080931203C1
:103C70000C943D1E84E0809312030C948A33E4EB91
:103C8000F6EC0E943A5C0E94F65D11F00C945D1E09
:103C900080E080931203A9E4B2E0ECEBF6EC0E9422
:103CA0003A5C0E94CB5BE7E9F8E0A9E4B2E00E944D
:103CB000C7560E94CD5C0C948A33EAECF6EC0E9465
:103CC0003A5C0E94F65D11F00C94AF1E0091CE0993
:103CD000023011F00C94AA1EA0EFB9E00E94225D00
:103CE000A0E3B2E00D931C93A0E3B2E00D911C9110
:103CF000003050E0150718F011F00C94811E0C9460
:103D0000A51E80E080931203A0E3B2E08D919C9108
:103D1000ACE8B8E08D939C93A9E4B2E0E2EDF6EC58
:103D20000E943A5C0E94CB5BECE8F8E0A9E4B2E0C8
:103D30000E94C7560E94CD5CE5E7F3E0ACE8B8E02E
:103D40007BE70E94AF5D0C94A81E85E08093120370
:103D50000C94AD1E84E0809312030C948A33EAEE37
:103D6000F6EC0E943A5C0E94F65D11F00C94CD1EB8
:103D700080E080931203A9E4B2E0E6EEF2EC0E9448
:103D80003A5C0E94CB5BECE8F8E0A9E4B2E00E9468
:103D9000C7560E94CD5C0C948A33E2EFF6EC0E9489
:103DA0003A5C0E94F65D11F00C941F1F0091CE0941
:103DB000023011F00C941A1FA0EFB9E00E94225DAE
:103DC000A0E3B2E00D931C93A0E3B2E00D911C912F
:103DD000003050E0150718F011F00C94F11E0C940F
:103DE000151F80E080931203A0E3B2E08D919C91B7
:103DF000AEE8B8E08D939C93A9E4B2E0EAEFF6EC6C
:103E00000E943A5C0E94CB5BEEE8F8E0A9E4B2E0E5
:103E10000E94C7560E94CD5CE7E7F3E0AEE8B8E049
:103E20007BE70E94AF5D0C94181F85E0809312031E
:103E30000C941D1F84E0809312030C948A33E4E1F8
:103E4000F7EC0E943A5C0E94F65D11F00C943D1F65
:103E500080E080931203A9E4B2E0E2EFF2EC0E946A
:103E60003A5C0E94CB5BEEE8F8E0A9E4B2E00E9485
:103E7000C7560E94CD5C0C948A33ECE1F7EC0E94AB
:103E80003A5C0E94F65D11F00C9479200091CE0905
:103E9000053011F00C947420A0EFB9E00E94225D6F
:103EA000A1E2B2E00C9300912102003080E010F01A
:103EB00009F081E08F9300912102053081E008F044
:103EC00080E09F918923882311F40C946F20A1E155
:103ED000BAE00E94225DA2E2B2E00C9300912202BD
:103EE000003080E010F009F081E08F930091220211
:103EF000013181E008F080E09F918923882311F44B
:103F00000C946A20A2E3BAE00E94225DA0E2B2E033
:103F10000C9300912002003080E010F009F081E065
:103F20008F9300912002093081E008F080E09F919A
:103F30008923882311F40C946520A1E2B2E00D914D
:103F4000112701501040A0E3B2E00D931C93A0E3B1
:103F5000B2E00D911C9140E250E00E949E5BA0E314
:103F6000B2E00D931C93A2E2B2E00D911127015033
:103F70001040A2E3B2E00D931C93A2E3B2E00D91D6
:103F80001C9148E050E00E949E5BA2E3B2E00D93DA
:103F90001C93A0E3B2E00D911C91A2E3B2E04D911D
:103FA0005C91040F151FA0E3B2E00D931C93A0E3F6
:103FB000B2E00D911C91A0E2B2E04D915527040FA3
:103FC000151FA0E3B2E00D931C93E4E2F7EC0E940E
:103FD0003A5C0E94D656E0E3F2E0A0E0BFE10E9426
:103FE000CD5C0E94CE560E94DD56A3E5BAE00E9449
:103FF0007A5DA3E2B2E00C9380912302A0E3B2E0E9
:10400000AD90BD90A6E9B4E0AA0DBB1D8C93E0E392
:10401000F2E0A190B190EBE0F1E0EA0DFB1DA3E22C
:10402000B2E07BE70E94AD5D80E080931203A9E4DB
:10403000B2E0EEE2F7EC0E943A5C0E94CB5BE0E279
:10404000F2E0A9E4B2E00E94C7560E94DD5CA9E458
:10405000B2E00E94C756EEE3F7EC0E943A5C0E9481
:10406000CB5BE2E2F2E0A9E4B2E00E94C7560E9414
:10407000DD5CA9E4B2E00E94C756ECE4F7EC0E94D4
:104080003A5C0E94CB5BE1E2F2E0A9E4B2E00E947C
:10409000C7560E94DD5CA9E4B2E00E94C756E2EE7A
:1040A000F1EC0E943A5C0E94CB5BA9E4B2E00E9472
:1040B000C756E0E3F2E0A190B190E6E9F4E0EA0D42
:1040C000FB1D0E946A5D0C94682087E080931203B8
:1040D0000C946D2086E0809312030C94722085E08E
:1040E000809312030C94772084E0809312030C9445
:1040F0008A33E6E5F7EC0E943A5C0E94F65D11F027
:104100000C9496210091CE09043011F00C94912169
:10411000A0EFB9E00E94225DA1E2B2E00C93009111
:104120002102003080E010F009F081E08F930091CF
:104130002102053081E008F080E09F9189238823E7
:1041400011F40C948C21A1E1BAE00E94225DA2E25C
:10415000B2E00C9300912202003080E010F009F0F0
:1041600081E08F9300912202013181E008F080E02C
:104170009F918923882311F40C948721A2E3BAE04C
:104180000E94225DA0E2B2E00C9300912002003078
:1041900080E010F009F081E08F9300912002093057
:1041A00081E008F080E09F918923882311F40C942A
:1041B000822180E080931203A1E2B2E00D911127E9
:1041C00001501040A0E3B2E00D931C93A0E3B2E0D5
:1041D0000D911C9140E250E00E949E5BA0E3B2E092
:1041E0000D931C93A2E2B2E00D91112701501040F3
:1041F000A2E3B2E00D931C93A2E3B2E00D911C91F7
:1042000048E050E00E949E5BA2E3B2E00D931C9355
:10421000A0E3B2E00D911C91A2E3B2E04D915C915C
:10422000040F151FA0E3B2E00D931C93A0E3B2E0CE
:104230000D911C91A0E2B2E04D915527040F151F7E
:10424000A0E3B2E00D931C93EEE5F7EC0E943A5C1C
:104250000E94D656E0E3F2E0A0E0BFE10E94CD5C10
:104260000E94CE560E94DD56A9E4B2E0E4E1F2ECF1
:104270000E943A5C0E94CB5BE0E2F2E0A9E4B2E08B
:104280000E94C7560E94DD5CA9E4B2E00E94C756B6
:10429000EEE3F7EC0E943A5C0E94CB5BE2E2F2E0D4
:1042A000A9E4B2E00E94C7560E94DD5CA9E4B2E036
:1042B0000E94C756ECE4F7EC0E943A5C0E94CB5B8C
:1042C000E1E2F2E0A9E4B2E00E94C7560E94DD5CA0
:1042D000A9E4B2E00E94C756E2EEF1EC0E943A5C1B
:1042E0000E94CB5BA9E4B2E00E94C756E0E3F2E093
:1042F000A190B190E6E9F4E0EA0DFB1D0E946A5D31
:104300000C94852187E0809312030C948A2186E027
:10431000809312030C948F2185E0809312030C94F8
:10432000942184E0809312030C948A33ECE6F7EC3A
:104330000E943A5C0E94F65D11F00C94F421009109
:10434000CE09023011F00C94EF21A0EFB9E00E94E9
:10435000225DA1E2B2E00C9300912102003080E0E6
:1043600010F009F081E08F9300912102053081E087
:1043700008F080E09F918923882311F40C94EA21AE
:1043800080E080931203A0EFB9E00E94225DADE8C7
:10439000B3E00C93E5E0F0E0ADE8B3E07BE70E942A
:1043A000AD5DA9E4B2E0E4E7F7EC0E943A5C0E945C
:1043B000CB5BEDE8F3E0A9E4B2E00E94C7560E94AF
:1043C000DD5C0E94140E7091BE0772607093BE0790
:1043D0000C94ED2185E0809312030C94F22184E08B
:1043E000809312030C948A33E2E9F7EC0E943A5C62
:1043F0000E94F65D11F00C94172280E08093120366
:10440000A9E4B2E0E6E4F2EC0E943A5C0E94CB5BE5
:10441000EDE8F3E0A9E4B2E00E94C7560E94DD5C3B
:10442000709199067460709399060C948A33EAE946
:10443000F7EC0E943A5C0E94F65D11F00C949A220F
:104440000091CE09033011F00C949522A0EFB9E051
:104450000E94225DA1E2B2E00C93009121020030A3
:1044600080E010F009F081E08F9300912102053087
:1044700081E008F080E09F918923882311F40C9457
:10448000902280E080931203A1E1BAE00E947A5D5D
:10449000A1E2B2E0AD90BB24ADE8B3E0AA0DBB1D34
:1044A0000C93E1E2F2E0A190BB24E5E0F0E0EA0D3C
:1044B000FB1DA1E2B2E0AD90BB24ADE8B3E0AA0DD4
:1044C000BB1D7BE70E94AD5DA9E4B2E0E2EAF7EC38
:1044D0000E943A5C0E94CB5BEDE8F3E0A9E4B2E015
:1044E0000E94C7560E94DD5CA9E4B2E00E94C75654
:1044F000E8ECF5EC0E943A5C0E94CB5BA9E4B2E0E8
:104500000E94C756E1E2F2E0A190BB24EDE8F3E09F
:10451000EA0DFB1D0E946A5D0E94140E0C9493220A
:1045200085E0809312030C94982284E08093120318
:104530000C948A33E0ECF7EC0E943A5C0E94F65D42
:1045400011F00C94F4220091CE09023011F00C9479
:10455000EF2200912102003080E010F009F081E0AC
:104560008F9300912102053081E008F080E09F9157
:104570008923882311F40C94EA2280E080931203AB
:10458000A9E4B2E0E8ECF7EC0E943A5C0E94CB5B55
:10459000EDE8F3E0A9E4B2E00E94C7560E94DD5CBA
:1045A000A9E4B2E00E94C756ECEDF7EC0E943A5C39
:1045B0000E94CB5BA9E4B2E00E94C756E1E2F2E0C0
:1045C000A190BB24EDE8F3E0EA0DFB1D0E946A5DBB
:1045D0000C94ED2285E0809312030C94F22284E087
:1045E000809312030C948A33E0EEF7EC0E943A5C5D
:1045F0000E94F65D11F00C949B230091CE090330CC
:1046000011F00C949623A0EFB9E00E94225DA4E281
:10461000B2E00C9300912402003080E010F009F029
:1046200081E08F9300912402063081E008F080E061
:104630009F918923882311F40C949123A1E1BAE07E
:104640000E94225DACE2B2E00D931D932D933D9349
:10465000ACE2B2E00D911D912D913C91A4E2B2E04B
:10466000AD90BB24A4EEB6E0AA0CBB1CAA0CBB1CEC
:10467000AA0DBB1D0D931D932D933C93E4E2F2E034
:10468000A190BB24E8E0F3E0AA0CBB1CAA0CBB1C65
:10469000EA0DFB1DACE2B2E094E07BE70E94B05D66
:1046A00080E080931203A9E4B2E0E8EEF7EC0E9408
:1046B0003A5C0E94CB5BE4E2F2E0A9E4B2E00E9443
:1046C000C7560E94DD5CA9E4B2E00E94C756E2E949
:1046D000F5EC0E943A5C0E94CB5BE4E2F2E0A19030
:1046E000BB24E4EEF6E0AA0CBB1CAA0CBB1CEA0D32
:1046F000FB1DA9E4B2E00E94C7560E94D05CE4E230
:10470000F2E0A190BB24E4EEF6E0AA0CBB1CAA0CDC
:10471000BB1CEA0DFB1DA0E1B7E00E94D05C0C942D
:10472000942383E0809312030C94992384E0809374
:1047300012030C948A33EEEFF7EC0E943A5C0E946D
:10474000F65D11F00C9442240091CE09033011F073
:104750000C943D24A0EFB9E00E94225DA4E2B2E0F7
:104760000C9300912402003080E010F009F081E009
:104770008F9300912402063081E008F080E09F9141
:104780008923882311F40C943824A1E1BAE00E9413
:10479000225DACE2B2E00D931D932D933D93ACE20C
:1047A000B2E00D911D912D913C91A4E2B2E0AD904B
:1047B000BB24A8EFB6E0AA0CBB1CAA0CBB1CAA0D1C
:1047C000BB1D0D931D932D933C93E4E2F2E0A19069
:1047D000BB24ECE1F3E0AA0CBB1CAA0CBB1CEA0D49
:1047E000FB1DACE2B2E094E07BE70E94B05D80E0AC
:1047F00080931203A9E4B2E0E8EEF7EC0E943A5C81
:104800000E94CB5BE4E2F2E0A9E4B2E00E94C7566A
:104810000E94DD5CA9E4B2E00E94C756E2E9F5EC33
:104820000E943A5C0E94CB5BE4E2F2E0A190BB24E0
:10483000E8EFF6E0AA0CBB1CAA0CBB1CEA0DFB1DA2
:10484000A9E4B2E00E94C7560E94D05CE4E2F2E024
:10485000A190BB24E8EFF6E0AA0CBB1CAA0CBB1C81
:10486000EA0DFB1DA0E1B7E00E94D05C0C943B2454
:1048700083E0809312030C94402484E0809312031D
:104880000C948A33E6E0F8EC0E943A5C0E94F65DF4
:1048900011F00C94E7240091CE09023011F00C9431
:1048A000E224A0EFB9E00E94225DA4E2B2E00C9302
:1048B00000912402003080E010F009F081E08F9335
:1048C00000912402063081E008F080E09F91892366
:1048D000882311F40C94DD24A9E4B2E0EEE0F8ECB6
:1048E0000E943A5C0E94CB5BE4E2F2E0A9E4B2E011
:1048F0000E94C7560E94DD5CA9E4B2E00E94C75640
:10490000E2E9F5EC0E943A5C0E94CB5BE4E2F2E063
:10491000A190BB24E4EEF6E0AA0CBB1CAA0CBB1CC5
:10492000EA0DFB1DA9E4B2E00E94C7560E94D05CCC
:1049300080E080931203E8E6F4EC0E943A5C0E9467
:10494000D656E4E2F2E0A0E0BFE10E94DD5C0E9406
:10495000CE56ECE9F1EC0E943A5C0E94D656E4E2B5
:10496000F2E0A190BB24E4EEF6E0AA0CBB1CAA0C7A
:10497000BB1CEA0DFB1DA0E0BFE10E94D05C0E94C1
:10498000CE560E94DD56E6E1F8EC0E943A5C0E94A9
:10499000D6560E94DD56E4E2F2E0A190BB24E4EE9C
:1049A000F6E0AA0CBB1CAA0CBB1CEA0DFB1DA0E187
:1049B000B7E00E94D05C0C94E02483E08093120363
:1049C0000C94E52484E0809312030C948A33EAE18A
:1049D000F8EC0E943A5C0E94F65D11F00C948C2574
:1049E0000091CE09023011F00C948725A0EFB9E0B8
:1049F0000E94225DA4E2B2E00C93009124020030F8
:104A000080E010F009F081E08F93009124020630DD
:104A100081E008F080E09F918923882311F40C94B1
:104A20008225A9E4B2E0E2E2F8EC0E943A5C0E943E
:104A3000CB5BE4E2F2E0A9E4B2E00E94C7560E9438
:104A4000DD5CA9E4B2E00E94C756E2E9F5EC0E9401
:104A50003A5C0E94CB5BE4E2F2E0A190BB24E8EF79
:104A6000F6E0AA0CBB1CAA0CBB1CEA0DFB1DA9E4BA
:104A7000B2E00E94C7560E94D05C80E0809312038F
:104A8000E8E6F4EC0E943A5C0E94D656E4E2F2E0DA
:104A9000A0E0BFE10E94DD5C0E94CE56ECE9F1ECA3
:104AA0000E943A5C0E94D656E4E2F2E0A190BB2458
:104AB000E8EFF6E0AA0CBB1CAA0CBB1CEA0DFB1D20
:104AC000A0E0BFE10E94D05C0E94CE560E94DD565D
:104AD000E6E1F8EC0E943A5C0E94D6560E94DD5650
:104AE000E4E2F2E0A190BB24E8EFF6E0AA0CBB1CE4
:104AF000AA0CBB1CEA0DFB1DA0E1B7E00E94D05C34
:104B00000C94852583E0809312030C948A2584E01D
:104B1000809312030C948A33EEE2F8EC0E943A5C24
:104B20000E94F65D11F00C94FF250091CE09023031
:104B300011F00C94FA25A0EFB9E00E94225DA4E2E6
:104B4000B2E00C9300912402003080E010F009F0F4
:104B500081E08F9300912402063081E008F080E02C
:104B60009F918923882311F40C94F52580E080938C
:104B700012030091240241E0041BA0E2B2E00C9376
:104B800080912002AEEBB7E00E94255C0E941B5C86
:104B90009C91982B9C93A9E4B2E0E6E3F8EC0E9488
:104BA0003A5C0E94CB5BE4E2F2E0A9E4B2E00E944E
:104BB000C7560E94DD5CA9E4B2E00E94C756ECE94A
:104BC000F1EC0E943A5C0E94CB5BA9E4B2E00E9447
:104BD000C756EEEBF7E00E946A5DA0E1B7E0EEEBAE
:104BE000F7E00E946A5D0C94F82583E0809312033D
:104BF0000C94FD2584E0809312030C948A33EAE43C
:104C0000F8EC0E943A5C0E94F65D11F00C9440268C
:104C10000091CE09023011F00C943B2680E0809385
:104C20001203A0EFB9E00E94225DA8E5B7E00D9362
:104C30001D932D933D93ECE3F3E0A8E5B7E094E0FA
:104C40007BE70E94B05DA9E4B2E0E2E5F8EC0E94E7
:104C50003A5C0E94CB5BE8E5F7E0A9E4B2E00E9491
:104C6000C7560E94D05CE8E5F7E0A0E1B7E00E94FB
:104C7000D05C0C943E2684E0809312030C948A331B
:104C8000EAE6F8EC0E943A5C0E94F65D11F00C94A2
:104C9000642680E080931203A9E4B2E0E2E7F8EC36
:104CA0000E943A5C0E94CB5BE8E5F7E0A9E4B2E041
:104CB0000E94C7560E94D05CE8E5F7E0A0E1B7E0AB
:104CC0000E94D05C0C948A33ECE7F8EC0E943A5CCA
:104CD0000E94F65D11F00C947F2680E08093120311
:104CE00070915707706470935707A9E4B2E0E4E845
:104CF000F8EC0E943A5C0E94CB5B0C948A33ECE89F
:104D0000F8EC0E943A5C0E94F65D11F00C94BC260F
:104D10000091CE09023011F00C94B72680E0809308
:104D20001203A0EFB9E00E94225DAFEBB7E00C9355
:104D3000E0E4F3E0AFEBB7E07BE70E94AD5DA9E410
:104D4000B2E0E4E9F8EC0E943A5C0E94CB5BEFEB46
:104D5000F7E0A9E4B2E00E94C7560E94DD5CEFEBE9
:104D6000F7E0A0E1B7E00E94DD5C0C94BA2684E095
:104D7000809312030C948A33E6EAF8EC0E943A5CC2
:104D80000E94F65D11F00C94E02680E080931203FF
:104D9000A9E4B2E0EEEAF8EC0E943A5C0E94CB5B38
:104DA000EFEBF7E0A9E4B2E00E94C7560E94DD5C99
:104DB000EFEBF7E0A0E1B7E00E94DD5C0C948A33F2
:104DC000E4EBF8EC0E943A5C0E94F65D11F00C9462
:104DD000FB2680E0809312037091C0077068709387
:104DE000C007A9E4B2E0ECEBF8EC0E943A5C0E9448
:104DF000CB5B0C948A33E6ECF8EC0E943A5C0E94A0
:104E0000F65D11F00C9432270091CE09023011F0BA
:104E10000C942D2780E080931203A0EFB9E00E944C
:104E2000225DA7EDB7E00C93E1E4F3E0A7EDB7E076
:104E30007BE70E94AD5DA9E4B2E0EEECF8EC0E94E5
:104E40003A5C0E94CB5BE7EDF7E0A9E4B2E00E9498
:104E5000C7560E94DD5C0C94302784E080931203D7
:104E60000C948A33E4EEF8EC0E943A5C0E94F65D02
:104E700011F00C94502780E080931203A9E4B2E073
:104E8000E4E8F1EC0E943A5C0E94CB5BE7EDF7E0CE
:104E9000A9E4B2E00E94C7560E94DD5C0C948A33FC
:104EA000ECEEF8EC0E943A5C0E94F65D11F00C9476
:104EB00093270091CE09023011F00C948E27A0EFB9
:104EC000B9E00E94225DA8EDB7E00D931C93E2E4E7
:104ED000F3E0A8EDB7E07BE70E94AF5D80E0809350
:104EE0001203A9E4B2E0E4EFF8EC0E943A5C0E94FD
:104EF000CB5BE8EDF7E0A9E4B2E00E94C7560E9460
:104F0000CD5CE8EDF7E0A0E1B7E00E94CD5C7091E8
:104F1000BE0772607093BE070C94912784E0809363
:104F200012030C948A33E4E1F9EC0E943A5C0E948B
:104F3000F65D11F00C94CC270091CE09013011F0F0
:104F40000C94C72780E080931203A9E4B2E0ECE15F
:104F5000F9EC0E943A5C0E94CB5BE8EDF7E0A9E433
:104F6000B2E00E94C7560E94CD5CA9E4B2E00E9464
:104F7000C756E4E4F2EC0E943A5C0E94CB5BE8ED99
:104F8000F7E0A0E1B7E00E94CD5C0C94CA2784E072
:104F9000809312030C948A33E0E3F9EC0E943A5CAC
:104FA0000E94F65D11F00C9416280091CE09023093
:104FB00011F00C941128A0EFB9E00E94225DA0E24C
:104FC000B2E00C9300912002023010F00C940C28F7
:104FD00080E08093120300912002003011F00C94C5
:104FE000F4275F980C94F5275F9AA9E4B2E0E8E310
:104FF000F9EC0E943A5C0E94CB5BABE2B0E08C9192
:1050000087FBA9E4B2E00E94C7560E942B5C8D93F7
:1050100088278C930C940F2883E0809312030C94C0
:10502000142884E0809312030C948A33E2E4F9ECB0
:105030000E943A5C0E94F65D11F00C9447280091A2
:10504000CE09023011F00C94422880E080931203C4
:10505000A0EFB9E00E94225DACEDB7E00D931C9388
:10506000A9E4B2E0EAE4F9EC0E943A5C0E94CB5B6E
:10507000ECEDF7E0A9E4B2E00E94C7560E94CD5CD7
:105080000C94452884E0809312030C948A33E2E662
:10509000F9EC0E943A5C0E94F65D11F00C947F28B6
:1050A0000091CE09023011F00C947A2880E08093B0
:1050B0001203A0EFB9E00E94225DAAEDB7E00D93C4
:1050C0001C93E4E4F3E0AAEDB7E07BE70E94AF5D58
:1050D000A9E4B2E0EAE6F9EC0E943A5C0E94CB5BFC
:1050E000EAEDF7E0A9E4B2E00E94C7560E94CD5C69
:1050F0000C947D2884E0809312030C948A33E4E8B6
:10510000F9EC0E943A5C0E94F65D11F00C94C12803
:1051100080E080931203A9E4B2E0ECE8F9EC0E948D
:105120003A5C0E94CB5BEAEDF7E0A9E4B2E00E94B2
:10513000C7560E94CD5CA9E4B2E00E94C756ECE9D4
:10514000F9EC0E943A5C0E94CB5BECEDF7E0A9E43D
:10515000B2E00E94C7560E94CD5CA9E4B2E00E9472
:10516000C756E8EAF9EC0E943A5C0E94CB5BEEED90
:10517000F7E0A9E4B2E00E94C7560E94DD5C0C94FF
:105180008A33E6EBF9EC0E943A5C0E94F65D11F07E
:105190000C94E62880E080931203A0EFB9E00E940F
:1051A000225DAEEDB7E00C93A9E4B2E0EEEBF9ECD2
:1051B0000E943A5C0E94CB5BEEEDF7E0A9E4B2E01E
:1051C0000E94C7560E94DD5C0C948A33EEECF9EC29
:1051D0000E943A5C0E94F65D11F00C941D2900912A
:1051E000CE09023011F00C94182980E0809312034C
:1051F000A0EFB9E00E94225DAAE9B8E00C93ECE7C9
:10520000F3E0AAE9B8E07BE70E94AD5DA9E4B2E073
:10521000E6EDF9EC0E943A5C0E94CB5BEAE9F8E02B
:10522000A9E4B2E00E94C7560E94DD5C0C941B29E1
:1052300084E0809312030C948A33E2EFF9EC0E942D
:105240003A5C0E94F65D11F00C943B2980E080935B
:105250001203A9E4B2E0EAE0F3EC0E943A5C0E9497
:10526000CB5BEAE9F8E0A9E4B2E00E94C7560E94ED
:10527000DD5C0C948A33EAEFF9EC0E943A5C0E9400
:10528000F65D11F00C9472290091CE09023011F0F4
:105290000C946D2980E080931203A0EFB9E00E9486
:1052A000225DA9E9B8E00C93EBE7F3E0A9E9B8E0E7
:1052B0007BE70E94AD5DA9E4B2E0E2E0FAEC0E9477
:1052C0003A5C0E94CB5BE9E9F8E0A9E4B2E00E9415
:1052D000C7560E94DD5C0C94702984E08093120311
:1052E0000C948A33EAE2FAEC0E943A5C0E94F65D82
:1052F00011F00C94902980E080931203A9E4B2E0AD
:10530000E2E3FAEC0E943A5C0E94CB5BE9E9F8E048
:10531000A9E4B2E00E94C7560E94DD5C0C948A3377
:10532000E2E5FAEC0E943A5C0E94F65D11F00C9402
:10533000272A80E080931203A9E4B2E0EAE5FAECC0
:105340000E943A5C0E94CB5B81E080932002009136
:105350002002043018F011F00C94252A009120024C
:1053600041E0041BA4E2B2E00C9380912402A8E186
:10537000B8E00E94255C0E941B5C0C900822689497
:1053800009F4E89416F00C941D2A00274427809114
:105390002402A0E2B0E00E94255C0E941B5C0C90FD
:1053A0000822689409F4E89400F980912402A2EF9D
:1053B000B7E00E94255C0E941B5C0C900822689458
:1053C00009F4E89440F9042700FBACE3B2E08C91C7
:1053D00087F98C93E0E2F2E00191112747E050E079
:1053E0000E949E5BECEEF7E0E00FF11FA9E4B2E053
:1053F0000E94C7560E948C5DA9E4B2E00E94C75685
:10540000E2EEF1EC0E943A5C0E94CB5BACE3B2E0CE
:105410008C9187FBA9E4B2E00E94C7560E942B5CE6
:105420008D9388278C93A9E4B2E00E94C756ECE9DB
:10543000F1EC0E943A5C0E94CB5BA0E2B2E08C915E
:105440008F5F8C9310F40C94A7290C948A33EEE6AA
:10545000FAEC0E943A5C0E94F65D11F00C94DD2A91
:105460000091CE09043011F00C94D82AA0EFB9E0D5
:105470000E94225DA1E2B2E00C9300912102013072
:1054800011F00C94CB2AA1E1BAE00E94225DA0E2C7
:10549000B2E00C9300912002003080E010F009F09F
:1054A00081E08F9300912002053081E008F080E0D8
:1054B0009F918923882311F40C94C62A80E080935D
:1054C00012030091200241E0041BA2E2B2E00C931F
:1054D000A2E3BAE00E94225DA1E2B2E00C93009147
:1054E0002102003011F00C94822A80912202A8E15E
:1054F000B8E00E94255C0E941B5C8C9189238C93F0
:105500000C948D2A80912202A8E1B8E00E94255CCB
:105510000E941B5C9C91982B9C93E4E7F3E0A8E12C
:10552000B8E07BE70E94AD5DA9E4B2E0E6E7FAEC03
:105530000E943A5C0E94CB5BE0E2F2E0A9E4B2E0B8
:105540000E94C7560E94DD5CA9E4B2E00E94C756E3
:10555000E2EEF1EC0E943A5C0E94CB5B8091220269
:10556000A8E1B8E00E94255C0E941B5C0C90082218
:10557000689409F4E894A9E4B2E00E94C7560E9436
:105580002B5C8D9388278C930C94C92A85E080939B
:1055900012030C94D62A80E080931203A9E4B2E0AF
:1055A000EAE8FAEC0E943A5C0E94CB5B0C94DB2A9E
:1055B00084E0809312030C948A33E8EAFAEC0E94A8
:1055C0003A5C0E94F65D11F00C94B62B0091CE0966
:1055D000013011F00C94012B80E080931203A9E4B8
:1055E000B2E0E0EBFAEC0E943A5C0E94CB5BA9E4EB
:1055F000B2E00E94C756E8E1F8E00E946A5D0C94B0
:10560000B42B023011F00C94342BA0EFB9E00E94BF
:10561000225DA1E2B2E00C9300912102013011F071
:105620000C94272B80E080931203A9E4B2E0E0EB16
:10563000FAEC0E943A5C0E94CB5BA9E4B2E00E94C3
:10564000C756E8E1F8E00E946A5D0C94322B80E0D6
:1056500080931203A9E4B2E0E8EBFAEC0E943A5C12
:105660000E94CB5B0C94B42B033011F00C94B12B43
:10567000A0EFB9E00E94225DA1E2B2E00C9300919C
:105680002102013011F00C94A42BA1E1BAE00E9498
:10569000225DA0E2B2E00C9300912002003080E095
:1056A00010F009F081E08F9300912002053081E035
:1056B00008F080E09F918923882311F40C949F2B9C
:1056C00080E0809312030091200241E0041BA2E2DB
:1056D000B2E00C9380E080931203A9E4B2E0ECEC1A
:1056E000FAEC0E943A5C0E94CB5BE0E2F2E0A9E4B3
:1056F000B2E00E94C7560E94DD5CA9E4B2E00E94BD
:10570000C756E2EEF1EC0E943A5C0E94CB5B8091BE
:105710002202A8E1B8E00E94255C0E941B5C0C906C
:105720000822689409F4E894A9E4B2E00E94C756FC
:105730000E942B5C8D9388278C930C94A22B85E080
:10574000809312030C94AF2B80E080931203A9E4A2
:10575000B2E0E4EDFAEC0E943A5C0E94CB5B0C9460
:10576000B42B84E0809312030C948A33EAEEFAECB3
:105770000E943A5C0E94F65D11F00C94522C00914C
:10578000CE09033011F00C944D2CA0EFB9E00E942B
:10579000225DA0E2B2E00C9300912002003080E094
:1057A00010F009F081E08F9300912002053081E034
:1057B00008F080E09F918923882311F40C94482CF1
:1057C00080E0809312030091200241E0041BA2E2DA
:1057D000B2E00C93A1E1BAE00E94225DA1E2B2E046
:1057E0000C9300912102003011F00C94042C809154
:1057F0002202A2EFB7E00E94255C0E941B5C8C9104
:1058000089238C930C940F2C80912202A2EFB7E095
:105810000E94255C0E941B5C9C91982B9C93E7E561
:10582000F3E0A2EFB7E07BE70E94AD5DA9E4B2E050
:10583000E2EFFAEC0E943A5C0E94CB5BE0E2F2E01D
:10584000A9E4B2E00E94C7560E94DD5CA9E4B2E080
:105850000E94C756E2EEF1EC0E943A5C0E94CB5BDC
:1058600080912202A2EFB7E00E94255C0E941B5C9F
:105870000C900822689409F4E894A9E4B2E00E942C
:10588000C7560E942B5C8D9388278C930C944B2CCD
:1058900085E0809312030C94502C84E080931203D3
:1058A0000C948A33E6E0FBEC0E943A5C0E94F65DC1
:1058B00011F00C94DB2C0091CE09013011F00C9406
:1058C000762C80E080931203A9E4B2E0EEE0FBECDA
:1058D0000E943A5C0E94CB5BA9E4B2E00E94C756EA
:1058E000E2EFF7E00E946A5D0C94D92C023011F0CF
:1058F0000C94D62CA0EFB9E00E94225DA0E2B2E0A9
:105900000C9300912002003080E010F009F081E05B
:105910008F9300912002053081E008F080E09F9194
:105920008923882311F40C94D12C0091200241E0AA
:10593000041BA2E2B2E00C9380E080931203A9E47E
:10594000B2E0E6E1FBEC0E943A5C0E94CB5BE0E255
:10595000F2E0A9E4B2E00E94C7560E94DD5CA9E42F
:10596000B2E00E94C756E2EEF1EC0E943A5C0E945F
:10597000CB5B80912202A2EFB7E00E94255C0E94DF
:105980001B5C0C900822689409F4E894A9E4B2E046
:105990000E94C7560E942B5C8D9388278C930C9491
:1059A000D42C85E0809312030C94D92C84E080934E
:1059B00012030C948A33EEE1FBEC0E943A5C0E94E5
:1059C000F65D11F00C94FF2E0091CE09053011F018
:1059D0000C94FA2EA0EFB9E00E94225DA0E2B2E0A2
:1059E0000C93A1E1BAE00E94225DA1E2B2E00C9327
:1059F000A2E3BAE00E94225DA2E2B2E00C93009121
:105A00002002013011F00C94DC2E009121020030B4
:105A100080E010F009F081E08F93009121020530C1
:105A200081E008F080E09F918923882311F40C9491
:105A3000CF2E00912202013011F00C947B2DE3E572
:105A4000FAE0A1E2B2E00D91112747E050E00E9498
:105A50009E5BACEEB7E0A00FB11F0E948C5DE1E24F
:105A6000F2E00191112747E050E00E949E5BE1E5E2
:105A7000F3E0E00FF11FA1E2B2E00D91112747E042
:105A800050E00E949E5BACEEB7E0A00FB11F7BE739
:105A90000E94BE5D80E080931203A9E4B2E0E6E2DA
:105AA000FBEC0E943A5C0E94CB5BE1E2F2E0A9E4ED
:105AB000B2E00E94C7560E94DD5CA9E4B2E00E94F9
:105AC000C756E2EEF1EC0E943A5C0E94CB5BE1E249
:105AD000F2E00191112747E050E00E949E5BECEE5E
