:100000000C947200189500001895000018950000D7
:10001000189500001895000018950000189500002C
:10002000189500001895000018950000189500001C
:100030001895000018950000189500000C944D05C7
:1000400018950000189500001895000018950000FC
:100050000C94200318950000189500000C94510290
:10006000189500000C940D011895000018950000DB
:1000700018950000189500001895000018950000CC
:1000800018950000189500001895000018950000BC
:100090000C949F0118950000189500001895000019
:1000A000189500001895000018950000189500009C
:1000B000189500001895000018950000189500008C
:1000C000189500001895000018950000189500007C
:1000D000189500001895000018950000189500006C
:1000E000189500008FEF8DBFC0E8E8E94E2E81E241
:1000F0008EBFD1E2F0E25F2EA89584B7082E882744
:1001000084BF88E199278093600090936000EEEFB0
:10011000FFE1A0E0B2E088278D933197E9F787E609
:100120008093C40080E08093C50088E18093C10083
:100130006624279A389A399A3A9A3B9A3C9A3D9A79
:100140003E9A3F9A70910A01716070930A01709112
:100150000A01726070930A0170910A0174607093D1
:100160000A01219A229A239A289A209A5F9A579AEA
:10017000089809980A980B98109A119A129A139A4B
:1001800085E085BD80E084BD70916E0071607093E4
:100190006E0085E085BD80E08093800085E08093DF
:1001A000810070916F00716070936F0085E08093A3
:1001B000810087E08093B10080E08093B00070916F
:1001C000700071607093700087E08093B10070914F
:1001D000C10070687093C10087E68093CC0080E016
:1001E0008093CD007091C8007D7F7093C80086E039
:1001F0008093CA0088E18093C9007091C90070683B
:100200007093C90070E07093B9007CE07093B800FF
:100210000E94F74D78940C9424440F921F922F92D1
:100220003F924F925F927F92AF92BF920F931F9334
:100230002F933F934F935F936F937F938F939F93EE
:10024000AF93BF93CF93DF93EF93FF938FB78F93CA
:100250008BB78F9388278BBFA3E2BDE08091C60048
:100260008C9384E2482F0091230D041711F00C9415
:10027000440170918608716070938608AEE6BCE018
:1002800088278C930C9481010D3011F00C94690136
:10029000A6E8B8E08C9180FB16F00C946701709191
:1002A00086087E7F7093860880E0AEE6BCE00E9400
:1002B000474A8D9388278C93EEE6FCE0A4E2BDE0EC
:1002C0000E9460517091A20970687093A2090C9409
:1002D00081010F3118F011F00C9470010C94810120
:1002E000A6E8B8E08C9180FB16F00C948101A3E2A3
:1002F000BDE08C91AEE6BCE00E94474A8D93882712
:100300008C938F918BBF8F918FBFFF91EF91DF9176
:10031000CF91BF91AF919F918F917F916F915F919D
:100320004F913F912F911F910F91BF90AF907F9070
:100330005F904F903F902F901F900F9018950F92C5
:100340001F922F923F924F925F927F92AF92BF92F5
:100350000F931F932F933F934F935F936F937F93CD
:100360008F939F93AF93BF93CF93DF93EF93FF93BD
:100370008FB78F938BB78F9388278BBFA7E8B8E091
:100380008091CE008C9385E2482F00918708041756
:1003900011F00C94D60170918608746070938608F1
:1003A000A8E8B8E088278C930C9433020D3011F044
:1003B0000C940B02A6E8B8E08C9182FB16F00C942A
:1003C0000902709186087B7F7093860880E0A8E818
:1003D000B8E00E94474A8D9388278C93E8E8F8E0BC
:1003E000A5E1B9E00E946051A5E1B9E0EEE4F7EAC9
:1003F0000E9413500E94D35111F00C94040270918A
:10040000380270627093380270918608726070933F
:1004100086080C9433020F3118F011F00C9412027C
:100420000C943302A6E8B8E08C9182FB16F00C9491
:100430003302A7E8B8E08C91A8E8B8E00E94474AE8
:100440008D9388278C93A8E8B8E00E94CD51082F9F
:100450000C3818F011F00C942F020C943302A8E819
:10046000B8E088278C938F918BBF8F918FBFFF91BE
:10047000EF91DF91CF91BF91AF919F918F917F913C
:100480006F915F914F913F912F911F910F91BF906D
:10049000AF907F905F904F903F902F901F900F9064
:1004A00018950F921F922F923F924F925F927F92D8
:1004B000AF92BF920F931F932F933F934F935F93EE
:1004C0006F937F938F939F93AF93BF93CF93DF935C
:1004D000EF93FF938FB78F938BB78F9388278BBF43
:1004E00074E676BDA7E9B7E08C918F5F8C93A7E99E
:1004F000B7E00C9148E00E94BD518C9300919707A2
:10050000003011F00C94B702A8E9B7E00C9140E27A
:100510000E94BD518C93E4E9F5E70E941350ADE9C8
:10052000B7E08C919927A9E9B7E00E94CA4F809162
:100530009807A9E9B7E00E94FE4F0E94F44F0C9083
:100540000822689409F4E894A4E9B7E08C9185F94D
:100550008C93A4E9B7E08C9185FBA5E2B0E08C9187
:1005600087F98C93A8E9B7E08C918F5F8C93A4E90D
:10057000B7E08C9186FB16F00C94DD02A5E9B7E09C
:100580000E94004AA5E9B7E00D911C9149EF51E0A6
:100590000E942D4AA5E9B7E00D931C93A5E9B7E0A9
:1005A0000D911C91003050E0150711F00C94DD0204
:1005B00070919407706870939407A4E9B7E08C91E8
:1005C00083FB16F00C94FC02A1EAB7E00E94004AFB
:1005D000A3EAB7E04D915C91A1EAB7E00D911C91BF
:1005E0000417150711F00C94FA02709194077061CA
:1005F000709394070C94020380E090E0A1EAB7E0C6
:100600008D939C938F918BBF8F918FBFFF91EF91B3
:10061000DF91CF91BF91AF919F918F917F916F911A
:100620005F914F913F912F911F910F91BF90AF908C
:100630007F905F904F903F902F901F900F90189554
:100640000F921F922F923F924F925F927F92AF92A2
:10065000BF920F931F932F933F934F935F936F938B
:100660007F938F939F93AF93BF93CF93DF93EF933A
:10067000FF938FB78F938BB78F9388278BBF87EFAD
:1006800092EC909385008093840070919E07716036
:1006900070939E070E940C4CE8E0F2E0FA93EA9314
:1006A000E1E1F2E00E94994DA5EAB7E00D931D93B8
:1006B0002D933D93A5EAB7E00E94F349E5EAF7E000
:1006C000A1E1B2E00E94894D0E941F4CE5EAF7E0EB
:1006D000A8E0B2E00E94914D0E94174C0E940C4C81
:1006E000E1E1F2E0A5EDB6E00E946051E5EDF6E053
:1006F0000E94244DA9EAB7E00D931D932D933D93DD
:1007000081E08093AD070091AD07003118F011F042
:100710000C94B603ADEAB7E0AD90BB24A1E9B6E016
:10072000AA0CBB1CAA0CBB1CAA0DBB1D4D915D9154
:100730006D917C91A9EAB7E00D911D912D913C91AD
:100740000E948E5011F00C94AE037091E006706818
:100750007093E0068091AD078093E106ADEAB7E0C3
:100760008C918F5F8C9310F40C948303A5EAB7E00F
:100770000D911D912D913C91ABE4B7E04D915D91B0
:100780006D917C910E949A4AAEEAB7E00D931D9359
:100790002D933D9340E050E060E070E0AEEAB7E0BA
:1007A0000D911D912D913C910E948E5011F00C9451
:1007B000DE037091E00672607093E006A5EAB7E090
:1007C0000D911D912D913C91A3EBB7E04C915527D4
:1007D000662777270E949A4AAEEAB7E00D931D93E9
:1007E0002D933D9340E050E060E070E0AEEAB7E06A
:1007F0000D911D912D913C910E948E5011F00C9401
:1008000006047091940774607093940781E080935C
:100810003D0200913D02043018F011F00C94750473
:10082000A5EAB7E00D911D912D913C91ADE3B2E0A9
:10083000AD90BB24A0EFB6E0AA0CBB1CAA0CBB1C5D
:10084000AA0DBB1D4D915D916D917C910E948950C7
:10085000AEEAB7E00D931D932D933D93AEEAB7E05A
:100860000D911D912D913C91ADE3B2E0AD90BB2473
:10087000A0EEB6E0AA0CBB1CAA0CBB1CAA0DBB1DAB
:100880004D915D916D917C910E949A4AAEEAB7E0DC
:100890000D931D932D933D9300913D0241E0041B68
:1008A000ACE3B2E00C9340E050E060E070E0AEEA10
:1008B000B7E00D911D912D913C910E948E5011F049
:1008C0000C946D0480913C02A2EBB7E00E94FE4FB5
:1008D0000E94F44F9C91982B9C93ADE3B2E08C91D5
:1008E0008F5F8C9310F40C940904A8E2B7E08C910C
:1008F0008F5F8C93A8E2B7E00C9141E00E94BD515C
:100900008C9300912807003011F00C948C047091A6
:10091000E00670617093E006ADE6B7E08C918F5F02
:100920008C93ADE6B7E00C9145E00E94BD518C93ED
:1009300000916D07003011F00C94A3047091E00653
:1009400071607093E006A8E3B2E08C9181FB16F031
:100950000C94CB04A1E9B4E00E94004AA1E9B4E000
:100960000D911C91AFE8B4E04D915C910E942D4A2D
:10097000A1E9B4E00D931C93A1E9B4E00D911C91A1
:10098000003050E0150711F00C94CB047091380240
:10099000716070933802A4E9B7E08C9180FB16F087
:1009A0000C942C05A6E8B8E08C9187FB16F00C940B
:1009B000FF04A2E8B8E00E94004AA2E8B8E00D9166
:1009C0001C91AEE7B8E04D915C910E942D4AA2E8DF
:1009D000B8E00D931C93A2E8B8E00D911C91003093
:1009E00050E0150711F00C94FF04709186087064B4
:1009F00070938608709186087F7770938608A6E8C2
:100A0000B8E08C9186FB16F00C942C05A4E8B8E0B5
:100A10000E94004AA4E8B8E00D911C91A0E8B8E05B
:100A20004D915C910E942D4AA4E8B8E00D931C936F
:100A3000A4E8B8E00D911C91003050E0150711F0CA
:100A40000C942C05709186087068709386087091DC
:100A500086087F7B709386088F918BBF8F918FBFA5
:100A6000FF91EF91DF91CF91BF91AF919F918F91C6
:100A70007F916F915F914F913F912F911F910F91B6
:100A8000BF90AF907F905F904F903F902F901F90BE
:100A90000F9018950895089508950F921F922F9220
:100AA0003F924F925F927F92AF92BF920F931F93AC
:100AB0002F933F934F935F936F937F938F939F9366
:100AC000AF93BF93CF93DF93EF93FF938FB78F9342
:100AD0008BB78F9388278BBF74E67093B200A9EC15
:100AE000B7E08C918F5F8C93A9ECB7E00C914AE052
:100AF0000E94BD518C930091C907003011F00C94F5
:100B0000630700274427A0E2B0E08C9180FB00F946
:100B1000A4EEB7E08C9180FB40F9042700FBA4E928
:100B2000B7E08C9181F98C93A4E9B7E08C9181FBBB
:100B3000A1E0B8E08C9180F98C9300274427A0E2D3
:100B4000B0E08C9181FB00F9A4EEB7E08C9181FBC1
:100B500040F9042700FBA4E9B7E08C9181F98C935C
:100B6000A4E9B7E08C9181FBA1E0B8E08C9181F918
:100B70008C9300274427A0E2B0E08C9182FB00F91F
:100B8000A4EEB7E08C9182FB40F9042700FBA4E9B6
:100B9000B7E08C9181F98C93A4E9B7E08C9181FB4B
:100BA000A1E0B8E08C9182F98C9300274427A0E261
:100BB000B0E08C9183FB00F9A4EEB7E08C9183FB4D
:100BC00040F9042700FBA4E9B7E08C9181F98C93EC
:100BD000A4E9B7E08C9181FBA1E0B8E08C9183F9A6
:100BE0008C9381E08093B4070091B407043018F02F
:100BF00011F00C9463070091B40741E0041BA5EBCE
:100C0000B7E00C93A4EBB7E0AD90BB24A1E0B8E053
:100C1000AA0DBB1D0C91003011F00C942B06809195
:100C2000B507A1E0B8E00E94FE4F0E94F44F0C907F
:100C30000822689409F4E89416F40C94290682E0DA
:100C4000A4EBB7E0AD90BB24A1E0B8E0AA0DBB1DBA
:100C50008C930C945B07013011F00C944B0680913F
:100C6000B507A1E0B8E00E94FE4F0E94F44F0C903F
:100C70000822689409F4E89416F00C94490683E07D
:100C8000A4EBB7E0AD90BB24A1E0B8E0AA0DBB1D7A
:100C90008C930C945B07023011F00C94D406809175
:100CA000B507A1E0B8E00E94FE4F0E94F44F0C90FF
:100CB0000822689409F4E89416F00C94790680E010
:100CC000A4EBB7E0AD90BB24A1E0B8E0AA0DBB1D3A
:100CD0008C9380E090E0A4EBB7E0AD90BB24A4EB54
:100CE000B7E0AA0CBB1CAA0DBB1D8D939C930C9462
:100CF000D206A4EBB7E0AD90BB24A4EBB7E0AA0CFE
:100D0000BB1CAA0DBB1D0E94004AA4EBB7E0AD902E
:100D1000BB24A4EBB7E0AA0CBB1CAA0DBB1D0D9114
:100D20001C91A4EBB7E0AD90BB24AAEDB7E0AA0CF0
:100D3000BB1CAA0DBB1D4D915C910E942D4AA4EBDA
:100D4000B7E0AD90BB24A4EBB7E0AA0CBB1CAA0D86
:100D5000BB1D0D931C93A4EBB7E0AD90BB24A4EB9B
:100D6000B7E0AA0CBB1CAA0DBB1D0D911C91003055
:100D700050E0150711F00C94D20681E0A4EBB7E027
:100D8000AD90BB24A1E0B8E0AA0DBB1D8C9380916F
:100D9000B507A6ECB7E00E94FE4F0E94F44F9C916D
:100DA000982B9C930C945B07033011F00C945B0719
:100DB0008091B507A1E0B8E00E94FE4F0E94F44F79
:100DC0000C900822689409F4E89416F40C94020735
:100DD00081E0A4EBB7E0AD90BB24A1E0B8E0AA0DA0
:100DE000BB1D8C9380E090E0A4EBB7E0AD90BB24FA
:100DF000ACEBB7E0AA0CBB1CAA0DBB1D8D939C935A
:100E00000C945B07A4EBB7E0AD90BB24ACEBB7E070
:100E1000AA0CBB1CAA0DBB1D0E94004AA4EBB7E0A4
:100E2000AD90BB24ACEBB7E0AA0CBB1CAA0DBB1D5C
:100E30000D911C91A4EBB7E0AD90BB24A2EDB7E0FF
:100E4000AA0CBB1CAA0DBB1D4D915C910E942D4AA2
:100E5000A4EBB7E0AD90BB24ACEBB7E0AA0CBB1C95
:100E6000AA0DBB1D0D931C93A4EBB7E0AD90BB2462
:100E7000ACEBB7E0AA0CBB1CAA0DBB1D0D911C91DD
:100E8000003050E0150711F00C945B0780E0A4EBF4
:100E9000B7E0AD90BB24A1E0B8E0AA0DBB1D8C93D8
:100EA0008091B507A7ECB7E00E94FE4F0E94F44F77
:100EB0009C91982B9C93A4EBB7E08C918F5F8C93C3
:100EC00010F40C94F4058F918BBF8F918FBFFF911D
:100ED000EF91DF91CF91BF91AF919F918F917F91D2
:100EE0006F915F914F913F912F911F910F91BF9003
:100EF000AF907F905F904F903F902F901F900F90FA
:100F000018952F98E2E5F7EA0E9413500E94564A7E
:100F10000E945D4AA0E8B0E2E2E7F7EA0E941350BF
:100F20000E94A44F0E944E4A0E945D4AA0E8B0E28F
:100F3000E6E8F7EA0E9413500E94A44F0E944E4A2E
:100F40000E945D4AA0E8B0E2EEE8F7EA0E94135082
:100F50000E94A44F0E944E4A0E945D4AE9E3F3E0DA
:100F6000AAECB7E00E949D51E8E9F7EA0E9413500D
:100F70000E94564AEAECF7E0A0E8B0E20E94B150C5
:100F80000E944E4A0E945D4AE1E0F0E0A4E8B3E02E
:100F900094E00E94A051E0EAF7EA0E9413500E94F8
:100FA000564AE4E8F3E0A0E8B0E20E94914D0E94C6
:100FB0004E4AE0EBF7EA0E9413500E94564AE4E8DA
:100FC000F3E0A0E8B0E20E94894D0E944E4A0E94E0
:100FD0005D4AE4E3F3E0ABE4B7E094E00E94A051A3
:100FE000E2EBF7EA0E9413500E94564AEBE4F7E066
:100FF000A0E8B0E20E94A4500E944E4A0E945D4ABE
:10100000E8E3F3E0A3EBB7E00E949D51EEECF7EAD2
:101010000E9413500E94564AE3EBF7E0A0E8B0E2CA
:101020000E94B1500E944E4A0E945D4A81E0809326
:10103000200200912002043018F011F00C945E0898
:10104000E0E2F2E0A190BB24E5E0F0E0EA0DFB1D58
:10105000A0E2B2E0AD90BB24A9E8B3E0AA0DBB1DAD
:101060000E949D51E4EEF7EA0E9413500E94564AF6
:10107000E0E2F2E0A0E8B0E20E94B1500E944E4AE5
:10108000E6EFF7EA0E9413500E94564AD201E0E2CE
:10109000F2E0A190BB24E9E8F3E0EA0DFB1D0E9419
:1010A0003E51D2010E94504A0E945D4AA0E2B2E045
:1010B0008C918F5F8C9310F40C941908E8EFF7EA89
:1010C0000E9413500E94564A0E945D4A81E080931C
:1010D000240200912402043018F011F00C94180935
:1010E000E2E0F8EA0E9413500E94564AE4E2F2E07D
:1010F000A0E8B0E20E94B1500E944E4A0E945D4AB0
:1011000081E08093250200912502003118F011F052
:101110000C941009A4E2B2E00D9111270150104087
:10112000A0E3B2E00D931C93A0E3B2E00D911C91FB
:1011300040E150E00E94774FA0E3B2E00D931C9392
:10114000A0E3B2E00D911C91A5E2B2E04D915527CC
:10115000040F151FA0E3B2E00D931C93E0E3F2E04F
:10116000A190B190E6E0F0E0AA0CBB1CAA0CBB1C5D
:10117000EA0DFB1DA8E2B2E094E00E94A051A8E2B3
:10118000B2E00D911D912D913C91A0E3B2E0AD90A4
:10119000BD90ABE8B3E0AA0CBB1CAA0CBB1CAA0D0B
:1011A000BB1D0D931D932D933C93AAECB7E00C91BE
:1011B00000FB16F00C940809E8E0F8EA0E941350CE
:1011C0000E94564AE5E2F2E0A0E8B0E20E94B15087
:1011D0000E944E4AE6EFF7EA0E9413500E94564AD8
:1011E000E8E2F2E0A0E8B0E20E94894D0E944E4A97
:1011F000EEE0F8EA0E9413500E94564AE0E3F2E063
:10120000A0E8B0E20E94A1500E944E4A0E945D4AAE
:10121000A5E2B2E08C918F5F8C9310F40C9483085C
:10122000A4E2B2E08C918F5F8C9310F40C94690867
:10123000E2E1F8EA0E9413500E94564A0E945D4A79
:1012400081E08093240200912402043018F011F010
:101250000C94030AE2E0F8EA0E9413500E94564AF6
:10126000E4E2F2E0A0E8B0E20E94B1500E944E4AEF
:101270000E945D4A81E080932502009125020031A1
:1012800018F011F00C94FB09EEE1F8EA0E941350FB
:101290000E94564AE5E2F2E0A0E8B0E20E94B150B6
:1012A0000E944E4A0E945D4AA4E2B2E00D911127CD
:1012B00001501040A0E3B2E00D931C93A0E3B2E014
:1012C0000D911C9140E250E00E94774FA0E3B2E004
:1012D0000D931C93A5E2B2E00D911127015010402F
:1012E000A2E3B2E00D931C93A2E3B2E00D911C9136
:1012F00048E050E00E94774FA2E3B2E00D931C93C8
:10130000A0E3B2E00D911C91A2E3B2E04D915C919B
:10131000040F151FA0E3B2E00D931C9381E08093AE
:10132000270200912702083018F011F00C94F309FD
:101330000091300240912702040FA8E8B3E00C931B
:10134000E8E8F3E0A190BB24EBE0F1E0EA0DFB1D3F
:10135000A8E8B3E0AD90BB24A2E9B4E0AA0DBB1DA0
:101360000E949D51AAECB7E00C9100FB16F00C9482
:10137000EB09E8E2F8EA0E9413500E94564AE7E2BD
:10138000F2E0A0E8B0E20E94B1500E944E4AE6EFBF
:10139000F7EA0E9413500E94564AD201E8E8F3E0AF
:1013A000A190BB24E2E9F4E0EA0DFB1D0E943E514E
:1013B000D2010E94504AEEE2F8EA0E9413500E94C5
:1013C000564AE8E8F3E0A0E8B0E20E94B1500E947B
:1013D0004E4A0E945D4AA7E2B2E08C918F5F8C93E7
:1013E00010F40C949109A5E2B2E08C918F5F8C937C
:1013F00010F40C943D09A4E2B2E08C918F5F8C93C1
:1014000010F40C942309EAE0F1E0AFE8B4E00E94A4
:101410009F51E2E3F8EA0E9413500E94564AEFE817
:10142000F4E0A0E8B0E20E94A1500E944E4A0E945F
:101430005D4A0E947C13E0E4F8EA0E9413500E9487
:10144000564AA6E5B3E00E94504AE8E4F8EA0E9452
:1014500013500E94564A0E945D4A83E68093940688
:10146000E5E0F0E0A9E8B3E00E949D51EAE4F8EA83
:101470000E9413500E94564AE9E8F3E0A0E8B0E267
:101480000E94B1500E944E4A0E945D4A0091890319
:10149000003018F011F00C944F0A0C94660A009179
:1014A0008903053010F00C94590A0E94760C0C94B4
:1014B000640A80E080938903E8E5F8EA0E9413500B
:1014C0000E94564A0E945D4A0C946E0AE8E6F8EAC9
:1014D0000E9413500E94564A0E945D4A81E0809308
:1014E000200200912002043018F011F00C94040B3B
:1014F000E0E2F2E0A190BB24E8E0F3E0AA0CBB1C20
:10150000AA0CBB1CEA0DFB1DA0E2B2E0AD90BB240F
:10151000A0EEB6E0AA0CBB1CAA0CBB1CAA0DBB1DFE
:1015200094E00E94A051E0E2F2E0A190BB24E8E147
:10153000F3E0AA0CBB1CAA0CBB1CEA0DFB1DA0E22D
:10154000B2E0AD90BB24A0EFB6E0AA0CBB1CAA0C85
:10155000BB1CAA0DBB1D94E00E94A051ECE7F8EA69
:101560000E9413500E94564AE0E2F2E0A0E8B0E286
:101570000E94B1500E944E4AE6EFF7EA0E941350D3
:101580000E94564AE0E2F2E0A190BB24E0EEF6E0D1
:10159000AA0CBB1CAA0CBB1CEA0DFB1DA0E8B0E208
:1015A0000E94A4500E944E4AE0E8F8EA0E941350BC
:1015B0000E94564AE0E2F2E0A0E8B0E20E94B15098
:1015C0000E944E4AE6EFF7EA0E9413500E94564AE4
:1015D000E0E2F2E0A190BB24E0EFF6E0AA0CBB1C35
:1015E000AA0CBB1CEA0DFB1DA0E8B0E20E94A450AF
:1015F0000E944E4A0E945D4AA0E2B2E08C918F5F49
:101600008C9310F40C94710AEAE3F3E0ABECB7E0CE
:101610000E949F51ABECB7E00E94004AE6E8F8EA6E
:101620000E9413500E94564AEBECF7E0A0E8B0E2AB
:101630000E94A1500E944E4A0E945D4AEAE3F3E0F4
:10164000ABECB7E07BE70E948351EEE3F3E0A2ED61
:10165000B7E00E949D51E0E9F8EA0E9413500E9411
:10166000564AD201E2EDF7E00E943E51D2010E94BB
:10167000504A0E945D4A81E080932002009120023E
:10168000043018F011F00C941A0CE0E2F2E0019131
:10169000112747E050E00E94774FE9E4F3E0E00FC4
:1016A000F11FA0E2B2E00D91112747E050E00E9447
:1016B000774FAEEDB7E0A00FB11F96E00E94A751A3
:1016C000E2EBF8EA0E9413500E94564AE0E2F2E090
:1016D000A0E8B0E20E94B1500E944E4AE6EFF7EA5D
:1016E0000E9413500E94564AA0E2B2E00D911127C9
:1016F00047E050E00E94774FAEEDB7E0A00FB11F7A
:101700000E94504A0E945D4AE0E2F2E0A190BB24B0
:10171000EDE3F3E0AA0CBB1CEA0DFB1DA0E2B2E076
:10172000AD90BB24A2EDB7E0AA0CBB1CAA0DBB1D5B
:101730000E949F51EAEBF8EA0E9413500E94564A19
:10174000E0E2F2E0A0E8B0E20E94B1500E944E4A0E
:10175000E6EFF7EA0E9413500E94564AE0E2F2E0F8
:10176000A190BB24E2EDF7E0AA0CBB1CEA0DFB1D27
:10177000A0E8B0E20E94A1500E944E4AE6ECF8EACE
:101780000E9413500E94564A0E945D4AE0E2F2E035
:10179000A190BB24E5E4F3E0AA0CBB1CEA0DFB1D01
:1017A000A0E2B2E0AD90BB24AAEDB7E0AA0CBB1C4E
:1017B000AA0DBB1D0E949F51EEECF8EA0E94135047
:1017C0000E94564AE0E2F2E0A0E8B0E20E94B15086
:1017D0000E944E4AE6EFF7EA0E9413500E94564AD2
:1017E000E0E2F2E0A190BB24EAEDF7E0AA0CBB1C1A
:1017F000EA0DFB1DA0E8B0E20E94A1500E944E4AF3
:10180000E6ECF8EA0E9413500E94564A0E945D4A94
:1018100085E0A0E2B2E0AD90BB24A5E0B8E0AA0D5F
:10182000BB1D8C93A0E2B2E08C918F5F8C9310F47F
:101830000C943E0BEFE4F3E0A4EEB7E00E949D5160
:10184000EAEDF8EA0E9413500E94564AD201E4EEF3
:10185000F7E00E943E51D2010E94504A0E945D4A28
:10186000ECE6F3E0AAE0B8E00E949D51E2EEF8EA6F
:101870000E9413500E94564AD201EAE0F8E00E940A
:101880003E51D2010E94504A0E945D4AEDE6F3E0CB
:10189000AEE7B8E00E949F51EAEEF8EA0E941350CA
:1018A0000E94564AEEE7F8E0A0E8B0E20E94A1509C
:1018B0000E944E4A0E945D4AEFE6F3E0A0E8B8E0DD
:1018C0000E949F51E6EFF8EA0E9413500E94564A88
:1018D000E0E8F8E0A0E8B0E20E94A1500E944E4A81
:1018E0000E945D4A83E680937D0808958091890374
:1018F00080932402E2E0F8EA0E9413500E94564AC4
:10190000E4E2F2E0A0E8B0E20E94B1500E944E4A48
:101910000E945D4AA4E2B2E0AD90BB24A9E8B3E026
:10192000AA0DBB1D8C9180938E03E2E0F9EA0E9420
:1019300013500E94564AD201EEE8F3E00E943E5155
:10194000D2010E94504A0E945D4A81E080932502A4
:1019500000912502003118F011F00C94330DA4E22F
:10196000B2E00D91112701501040A0E3B2E00D93B9
:101970001C93A0E3B2E00D911C9140E150E00E9465
:10198000774FA0E3B2E00D931C93A0E3B2E00D917A
:101990001C91A5E2B2E04D915527040F151FA0E35D
:1019A000B2E00D931C93A0E3B2E0AD90BD90ABE824
:1019B000B3E0AA0CBB1CAA0CBB1CAA0DBB1D0D914D
:1019C0001D912D913C91A8E2B2E00D931D932D93B2
:1019D0003C93A8E2B2E00D911D912D913C91A5E2BE
:1019E000B2E0AD90BB24A1E9B6E0AA0CBB1CAA0CE6
:1019F000BB1CAA0DBB1D0D931D932D933C93E0E1E1
:101A0000F9EA0E9413500E94564AE5E2F2E0A0E88B
:101A1000B0E20E94B1500E944E4AE6EFF7EA0E94FF
:101A200013500E94564AE8E2F2E0A0E8B0E20E94B9
:101A3000894D0E944E4AEEE0F8EA0E9413500E943F
:101A4000564AE0E3F2E0A0E8B0E20E94A1500E9412
:101A50004E4A0E945D4AA5E2B2E08C918F5F8C9362
:101A600010F40C94A80C089582E00E94714F82E05B
:101A70000E94714F81E00E94714FAA85BB850D9134
:101A8000112701501040AC81BD810D931C93AC8196
:101A9000BD810D911C9140E250E00E94774FAC81D6
:101AA000BD810D931C93A885B9850D911127015017
:101AB0001040AA81BB810D931C93AA81BB810D911B
:101AC0001C9148E050E00E94774FAA81BB810D93A2
:101AD0001C93AC81BD810D911C91AA81BB814D915C
:101AE0005C91040F151FAC81BD810D931C93AC81DB
:101AF000BD810D911C91AE81BF814D915527040F81
:101B0000151FAC81BD810D931C93AC81BD810D91DE
:101B10001C910F5F1F4FAC81BD810D931C93AC8155
:101B2000BD81AD90BD90A2E9B4E0AA0DBB1D8C9122
:101B3000A881B9818C93EEE1F9EA0E9413500E94CA
:101B4000564AEE81FF81A0E8B0E20E94B1500E94A7
:101B50004E4AE6EFF7EA0E9413500E94564AD2011D
:101B6000E881F9810E943E51D2010E94504AE0EB87
:101B7000F7EA0E9413500E94564AEC81FD81A0E8CA
:101B8000B0E20E94A1500E944E4A0E945D4AA88184
:101B9000B9818C9180FBA8E2B0E08C9180F98C93A4
:101BA000A881B9818C9181FBA8E2B0E08C9181F988
:101BB0008C93A881B9818C9182FBA8E2B0E08C91D2
:101BC00082F98C93A881B9818C9183FBA8E2B0E063
:101BD0008C9183F98C93A881B9818C9184FBA8E2C4
:101BE000B0E08C9184F98C93A881B9818C9185FBAC
:101BF000A8E2B0E08C9185F98C9385E0481A80E0EA
:101C0000580A2696089540984198429843984498D7
:101C100045980895409A419A429A439A449A459A1F
:101C200008950E940C4CE8E0F2E0A0E2B3E00E94CC
:101C30006051A0E2B3E00E94474AE2E2F9EA0E9462
:101C400013500E94A44F0E940C4CE1E1F2E0A0E28C
:101C5000B3E00E94474A0E946051A0E2B3E00E94B4
:101C6000474AE2E2F9EA0E9413500E94A44F81E041
:101C700080931F0281E080931E02882780931D02BB
:101C8000A0E2B3E00E94824AA0E2B3E0E4E2F9EA13
:101C90000E9413500E94A44FE4E0F8E0A0E2B3E0F9
:101CA0000E94474A0E94B15000274427A0E2B0E0BA
:101CB0008C9181FB00F9A4EEB7E08C9181FB40F997
:101CC000042700FBA8E3B2E08C9187F98C93A0E293
:101CD000B3E00E94474AE8E2F9EA0E9413500E94EA
:101CE000A44FA8E3B2E08C9187FBA0E2B3E00E948E
:101CF000474A0E9404508D9388278C9300274427DD
:101D0000A0E2B0E08C9180FB00F9A4EEB7E08C91EA
:101D100080FB40F9042700FBA8E3B2E08C9187F92F
:101D20008C93A0E2B3E00E94474AEEE2F9EA0E94F7
:101D300013500E94A44FA8E3B2E08C9187FBA0E26D
:101D4000B3E00E94474A0E9404508D9388278C93E9
:101D5000A0E2B3E00E94474AE4E3F9EA0E9413508C
:101D60000E94A44F83E080931F0281E080931E02B3
:101D7000882780931D02A0E2B3E00E94824AA0E27D
:101D8000B3E0E8E3F9EA0E9413500E94A44FEFE5A4
:101D9000F7E0A0E2B3E00E94474A0E946051A0E24F
:101DA000B3E00E94474AECE3F9EA0E9413500E9414
:101DB000A44FE4E5F7E0A0E2B3E00E94474A0E94A6
:101DC0006051A0E2B3E00E94474AE4E3F9EA0E94CE
:101DD00013500E94A44F85E080931F0281E08093FE
:101DE0001E02882780931D02A0E2B3E00E94824A6F
:101DF000AAE3B2E08C918F5F8C93AAE3B2E00C91DE
:101E000000FB16F00C942610A9E3B2E08C918F5FD2
:101E10008C93A0E2B3E088278C93A9E3B2E00C9105
:101E200041E10E94BD518C9300913902003011F0C4
:101E30000C94D70FA0E2B3E0E0E4F9EA0E9413505B
:101E40000E94A44FE9E8F3E0A0E2B3E00E94474A11
:101E50000E94B150A0E2B3E00E94474AE2E4F9EAEE
:101E60000E9413500E94A44FAEE8B3E08C9180FB17
:101E7000A0E2B3E00E94474A0E9404508D93882755
:101E80008C93A0E2B3E00E94474AE6E4F9EA0E949C
:101E900013500E94A44FAEE8B3E08C9181FBA0E206
:101EA000B3E00E94474A0E9404508D9388278C9388
:101EB000A0E2B3E00E94474AE6E4F9EA0E94135028
:101EC0000E94A44FAEE8B3E08C9182FBA0E2B3E0A5
:101ED0000E94474A0E9404508D9388278C93A0E269
:101EE000B3E00E94474AE8E4F9EA0E9413500E94D6
:101EF000A44FAEE8B3E08C9183FBA0E2B3E00E9474
:101F0000474A0E9404508D9388278C93A0E2B3E047
:101F10000E94474AEAE4F9EA0E9413500E94A44F43
:101F2000AEE8B3E08C9184FBA0E2B3E00E94474AA4
:101F30000E9404508D9388278C93A0E2B3E00E9406
:101F4000474AECE4F9EA0E9413500E94A44FAEE81D
:101F5000B3E08C9185FBA0E2B3E00E94474A0E9467
:101F600004508D9388278C93A0E2B3E00E94474AE7
:101F7000EEE4F9EA0E9413500E94A44FAEE8B3E0E9
:101F80008C9186FBA0E2B3E00E94474A0E94045075
:101F90008D9388278C93A0E2B3E00E94474AE2E247
:101FA000F9EA0E9413500E94A44F0C941910A9E35F
:101FB000B2E0AD90BB24A1E9B6E0AA0CBB1CAA0C10
:101FC000BB1CAA0DBB1D0D911D912D913C91A8E24A
:101FD000B2E00D931D932D933C93A0E2B3E0E0E5B6
:101FE000F9EA0E9413500E94A44FE9E3F2E0A0E254
:101FF000B3E00E94474A0E94B150A0E2B3E00E94C1
:10200000474AE6EFF7EA0E9413500E94A44FE8E225
:10201000F2E0A0E2B3E00E94474A0E94894DA0E2AC
:10202000B3E00E94474AE4E5F9EA0E9413500E9497
:10203000A44F87E080931F0281E080931E028827CF
:1020400080931D02A0E2B3E00E94824A0895E5E079
:10205000F0E0A0E1BB2781E08C937BE70E948151F7
:10206000EAE0F1E004E110E0A0E1BB277BE70E9499
:10207000835180E08093210281E0809320020091CF
:102080002002043018F011F00C94EA10E0E2F2E0C3
:10209000A190BB24E5E0F0E0EA0DFB1DA0E1BB2729
:1020A0008FE78C937BE70E948151A0E2B3E0EAE5E1
:1020B000F9EA0E9413500E94A44FE0E2F3E00E946C
:1020C000244DA8E2B2E00D931D932D933D93E4E6D9
:1020D000F9EA0E9413500E94564AE0E2F2E0A0E8BA
:1020E000B0E20E94B1500E944E4AEAE6F9EA0E942C
:1020F00013500E94564AE8E2F2E0A0E8B0E20E94E3
:10210000A4500E944E4A0E945D4A81E080932202C0
:1021100000912202003118F011F00C94E210A1E2BB
:10212000B2E08C918F5F8C93A8E2B2E00D911D918B
:102130002D913C91A1E2B2E0AD90BB24ABE8B3E0BD
:10214000AA0CBB1CAA0CBB1CAA0DBB1D0D931D9396
:102150002D933C93E0E5F9EA0E9413500E94564A01
:10216000E1E2F2E0A0E8B0E20E94B1500E944E4AE3
:10217000E6EFF7EA0E9413500E94564AE8E2F2E0C6
:10218000A0E8B0E20E94894D0E944E4A0E945D4A3A
:10219000A8E2B2E00D911D912D913C9140E15EE0ED
:1021A00060E070E00E948950A8E2B2E00D931D93B8
:1021B0002D933D93A2E2B2E08C918F5F8C9310F44B
:1021C0000C948810A0E2B2E08C918F5F8C9310F495
:1021D0000C943F1081E08093250200912502003489
:1021E00018F011F00C941811E5E2F2E0A190BB2474
:1021F000E6E0F0E0AA0CBB1CAA0CBB1CEA0DFB1D20
:10220000A5E2B2E0AD90BB24ABE8B3E0AA0CBB1CE6
:10221000AA0CBB1CAA0DBB1D94E07BE70E94845155
:10222000A5E2B2E08C918F5F8C9310F40C94ED10CA
:1022300081E08093240200912402043018F011F010
:102240000C940612E2E0F8EA0E9413500E94564AEB
:10225000E4E2F2E0A0E8B0E20E94B1500E944E4AEF
:102260000E945D4A81E080932502009125020031A1
:1022700018F011F00C94FE11EEE1F8EA0E941350F0
:102280000E94564AE5E2F2E0A0E8B0E20E94B150B6
:102290000E944E4A0E945D4AA4E2B2E00D911127CD
:1022A00001501040A0E3B2E00D931C93A0E3B2E014
:1022B0000D911C9140E250E00E94774FA0E3B2E004
:1022C0000D931C93A5E2B2E00D911127015010402F
:1022D000A2E3B2E00D931C93A2E3B2E00D911C9136
:1022E00048E050E00E94774FA2E3B2E00D931C93C8
:1022F000A0E3B2E00D911C91A2E3B2E04D915C919C
:10230000040F151FA0E3B2E00D931C9381E08093AE
:10231000270200912702083018F011F00C94F611F2
:102320000091300240912702040FA8E8B3E00C931B
:10233000E8EDF5E70E941350A7E2B2E08C919927EF
:10234000A0E2B2E00E94C64F80912002A8E8B3E06C
:10235000AD90BB24A2E9B4E0AA0DBB1D8C93E8E8C4
:10236000F3E0A190BB24EBE0F1E0EA0DFB1DA0E25D
:10237000B2E07BE70E948151E8E2F8EA0E94135044
:102380000E94564AE7E2F2E0A0E8B0E20E94B150B3
:102390000E944E4AE6EFF7EA0E9413500E94564A06
:1023A000D201E8E8F3E0A190BB24E2E9F4E0EA0D11
:1023B000FB1D0E943E51D2010E94504AEEE2F8EA13
:1023C0000E9413500E94564AE8E8F3E0A0E8B0E209
:1023D0000E94B1500E944E4A0E945D4AA7E2B2E0BC
:1023E0008C918F5F8C9310F40C948911A5E2B2E06C
:1023F0008C918F5F8C9310F40C943511A4E2B2E0B1
:102400008C918F5F8C9310F40C941B11E9E3F3E033
:10241000A0E1BB2780E08C937BE70E94815180E0A4
:102420008093200281E080932402009124020430F2
:1024300018F011F00C9489120CE211E020E030E069
:10244000A4E2B2E0AD90BB24A0EEB6E0AA0CBB1CA7
:10245000AA0CBB1CAA0DBB1D0D931D932D933C9381
:10246000E4E2F2E0A190BB24E8E0F3E0AA0CBB1C9C
:10247000AA0CBB1CEA0DFB1DA4E2B2E0AD90BB248C
:10248000A0EEB6E0AA0CBB1CAA0CBB1CAA0DBB1D7F
:1024900094E07BE70E948451A0E2B2E08C91A4E238
:1024A000B2E0AD90BB24A0EFB6E0AA0CBB1CAA0C16
:1024B000BB1CAA0DBB1D8D9388278D938D938C9388
:1024C000E4E2F2E0A190BB24E8E1F3E0AA0CBB1C3B
:1024D000AA0CBB1CEA0DFB1DA4E2B2E0AD90BB242C
:1024E000A0EFB6E0AA0CBB1CAA0CBB1CAA0DBB1D1E
:1024F00094E07BE70E948451A0E2B2E08C91845C7E
:102500008C93A4E2B2E08C918F5F8C9310F40C94C6
:10251000151281E08093240200912402043018F007
:1025200011F00C94DE12A0E2B3E0E2E7F9EA0E94B7
:1025300013500E94A44FE4E2F2E0A0E2B3E00E9454
:10254000474A0E94B150E4E2F2E00191112747E0CE
:1025500050E00E94774FE9E4F3E0E00FF11FA0E2C2
:10256000B3E07BE70E949251E4E2F2E0A190BB2449
:10257000EDE3F3E0AA0CBB1CEA0DFB1D0AE010E042
:10258000A0E1BB277BE70E948351E4E2F2E0A19047
:10259000BB24E5E4F3E0AA0CBB1CEA0DFB1D0AE03A
:1025A00010E0A0E1BB277BE70E948351A4E2B2E0E8
:1025B0008C918F5F8C9310F40C948C12EFE4F3E009
:1025C000A0E1BB278FE08C937BE70E948151ECE672
:1025D000F3E0A0E1BB278FE08C937BE70E94815161
:1025E000EDE6F3E00CE310E0A0E1BB277BE70E94FF
:1025F0008351EFE6F3E00EE110E0A0E1BB277BE7BB
:102600000E948351E4E3F3E000E11EE020E030E0CB
:10261000A0E1BB2794E07BE70E948451E8E3F3E06C
:10262000A0E1BB278CE38C937BE70E948151089546
:10263000E6E7F9EA0E9413500E94564A0E945D4A5A
:10264000E0E0F0E0A5E5B3E00E949D5180E08093DA
:102650002102A2EAB9E08C9187FB16F00C94431397
:102660007091A2097F777093A209E0E9F9EA0E94CC
:1026700013500E94564AA4E2BDE00E94504A0E94B4
:102680005D4A0E940D1400919E07013011F00C94D8
:102690006D1370919E077E7F70939E07A0E2B2E05B
:1026A0008C918F5F8C93A1E2B2E08C918F5F8C93C1
:1026B000A0E2B2E00C914AE00E94BD518C930091DF
:1026C0002002003011F00C946D13E6E9F9EA0E9443
:1026D00013500E94564A0E945D4A009155030130F2
:1026E00011F00C942913E8EBF9EA0E9413500E94B0
:1026F000564A0E945D4A089580E08093200280E05F
:1027000080932102A6E5B3E088278C938EE0809326
:10271000200200912002073118F011F00C94A5134B
:10272000E09120020E94604F082FE0E1F0E0A6E572
:10273000B3E00E94474A0E942551A0E2B2E08C918A
:102740008F5F8C9310F40C948913E6E5F3E0A5E415
:10275000B2E00E946051A6E5B3E088278C938EE03A
:102760008093200200912002073118F011F00C94A0
:10277000CE13E09120020E94604F082FE0E1F0E0CC
:10278000A6E5B3E00E94474A0E942551A0E2B2E0CC
:102790008C918F5F8C9310F40C94B213E5E4F2E00B
:1027A000A6E5B3E00E94D55111F00C94DA1381E054
:1027B00080932002A1E2B2E08C918F5F8C93009114
:1027C0002002003011F00C94F91384EF91E00E9484
:1027D000104BECECF9EA0E9413500E94564AE1E2D9
:1027E000F2E0A0E8B0E20E94B1500E944E4A0E947E
:1027F0005D4A00912002013081E009F080E08F9372
:10280000009121020A3081E009F080E09F91892B3C
:10281000882311F40C9482130895E2EDF9EA0E94E2
:1028200013500E94564AA4E2BDE00E94504A0E9402
:102830005D4A81E0E4E2FDE006E00A93A0E2B3E055
:102840000E946B51E4E2FDE09CE204E132E2A4EA82
:10285000B9E00E940752A3EAB9E02C93A4EAB9E0D8
:102860000E94CD51082F063011F00C94772AE4EA2B
:10287000F9E0AEE3B2E00E946051EEE3F2E0AEE3D5
:10288000B2E00E94E84F8FEF80930E03AEE3B2E018
:10289000E4EDF9EA0E9413500E94D35111F00C9418
:1028A000921480E080930E03A5E4B2E0ECEDF9EA27
:1028B0000E9413500E94A44FA0E2B3E0E0EFF9EAB7
:1028C0000E9413500E94A44FE0E2F3E0A5E4B2E0BE
:1028D0000E94474A0E946051A5E4B2E00E94474A24
:1028E000E4E0FAEA0E9413500E94A44FA0E2B3E091
:1028F000EEE8F7EA0E9413500E94A44FE0E2F3E0F2
:10290000A5E4B2E00E94474A0E946051A5E4B2E00B
:102910000E94474AE8E4F8EA0E9413500E94A44F3C
:102920000C94752AE2E1FAEA0E9413500E94D351F6
:1029300011F00C94B91480E080930E03A5E4B2E08A
:10294000EAE1FAEA0E9413500E94A44F7091380203
:1029500070617093380281E080935503E0E0F0E00D
:10296000A5E5B3E07BE70E9481510E9427100C94FB
:10297000752AE8E4FAEA0E9413500E94D35111F03C
:102980000C94E31480E080930E030E947C13A5E472
:10299000B2E0E0E5FAEA0E9413500E94A44FE6E597
:1029A000F3E0A5E4B2E00E94474A0E946051A5E42A
:1029B000B2E00E94474AE8E4F8EA0E9413500E94FD
:1029C000A44F0C94752AEAE5FAEA0E9413500E947B
:1029D000D35111F00C9422150091A309023011F08B
:1029E0000C941D15A9EBB9E00E94F650A0E2B2E0EC
:1029F0000C9300912002013110F00C94181580E026
:102A000080930E03A5E4B2E0E2E6FAEA0E941350D6
:102A10000E94A44FE0E2F2E0A5E4B2E00E94474A3F
:102A20000E94B1508091200280939D070C941B1549
:102A300085E080930E030C94201584E080930E03B0
:102A40000C94752AEAE7FAEA0E9413500E94D351C7
:102A500011F00C9431160091A309023011F00C947E
:102A60002C16A9EBB9E00E94CD51082F0C3011F0C3
:102A70000C94271680E080930E0387E0E9EBF9E0E1
:102A800002E00A93A0E2B3E00E946B51A0E2B3E03F
:102A90000E94474AE2E8FAEA0E9413500E94A44FBB
:102AA00089E0E9EBF9E002E00A93A0E2B3E00E94DA
:102AB000474A0E946B51A0E2B3E00E94474AE2E815
:102AC000FAEA0E9413500E94A44F8BE0E9EBF9E070
:102AD00002E00A93A0E2B3E00E94474A0E946B51D1
:102AE000A0E2B3E00E94504A0E945D4AE0E2F3E0B7
:102AF000A1E1B2E00E9460510E941F4CE4E8FAEAB2
:102B00000E9413500E94564A0E940C4CA1E1B2E070
:102B10000E94504A0E945D4A81E0E9EBF9E002E040
:102B20000A93A0E2B3E00E946B51A0E2B3E00E94DE
:102B3000474AE8E8FAEA0E9413500E94A44F83E053
:102B4000E9EBF9E002E00A93A0E2B3E00E94474A11
:102B50000E946B51A0E2B3E00E94474AE8E8FAEA1B
:102B60000E9413500E94A44F85E0E9EBF9E002E0D7
:102B70000A93A0E2B3E00E94474A0E946B51A0E290
:102B8000B3E00E94504A0E945D4AE0E2F3E0A8E010
:102B9000B2E00E9460510E94174CEAE8FAEA0E94F3
:102BA00013500E94564A0E940C4CA8E0B2E00E94CA
:102BB000504A0E945D4AA5E4B2E0EEE8FAEA0E94BB
:102BC00013500E94A44F0E940C4CE8E0F2E0A5E4F0
:102BD000B2E00E94474A0E946051A5E4B2E00E9420
:102BE000474AE8EBFAEA0E9413500E94A44F0E9461
:102BF0000C4CE1E1F2E0A5E4B2E00E94474A0E94F9
:102C00006051E5E0F2E00E946F4CADE6B3E08C93DA
:102C10000E94432C0E948D2C0E94BC2BE2E0F2E02B
:102C20000E94504DA4E8B3E00D931D932D933D9366
:102C3000E1E0F0E0A4E8B3E094E07BE70E94845197
:102C4000709138027860709338020C942A1686E0EE
:102C500080930E030C942F1684E080930E030C9443
:102C6000752AECEBFAEA0E9413500E94D35111F03E
:102C70000C94471680E080930E03A5E4B2E0E4ECE8
:102C8000FAEA0E9413500E94A44F0C94752AECECAF
:102C9000FAEA0E9413500E94D35111F00C94871647
:102CA00080E080930E030E940C4CE1E1F2E0A0E290
:102CB000B3E00E946051A5E4B2E0E4EDFAEA0E94BC
:102CC00013500E94A44FE0E2F3E0A5E4B2E00E94BA
:102CD000474A0E946051A5E4B2E00E94474AE2EEF2
:102CE000FAEA0E9413500E94A44F0E940C4CE8E0A4
:102CF000F2E0A0E2B3E00E946051E0E2F3E0A5E47C
:102D0000B2E00E94474A0E9460510C94752AE2EF9B
:102D1000FAEA0E9413500E94D35111F00C94C3168A
:102D200080E080930E03E4E8F3E0A0E2B3E00E94C9
:102D3000894DA5E4B2E0EAEFFAEA0E9413500E943E
:102D4000A44FE0E2F3E0A5E4B2E00E94474A0E940B
:102D50006051A5E4B2E00E94474AEEE0FBEA0E941F
:102D600013500E94A44FE4E8F3E0A0E2B3E00E9415
:102D7000914DE0E2F3E0A5E4B2E00E94474A0E94F0
:102D800060510C94752AE6E1FBEA0E9413500E9400
:102D9000D35111F00C94CC170091A309043011F019
:102DA0000C94C717A9EBB9E00E94F650A1E2B2E07B
:102DB0000C9300912102003080E010F009F081E0D6
:102DC0008F9300912102053081E008F080E09F910F
:102DD0008923882311F40C94C217AEECB9E00E9449
:102DE000F650A0E2B2E00C9300912002003080E0A7
:102DF00010F009F081E08F9300912002013181E011
:102E000008F080E09F918923882311F40C94BD176A
:102E100080E080930E03E3EEF9E0A0E2B3E00E94CD
:102E20006051A1E2B2E00D91112701501040A0E3E2
:102E3000B2E00D931C93A0E3B2E00D911C9140E130
:102E400050E00E94774FA0E3B2E00D931C93A0E303
:102E5000B2E00D911C91A0E2B2E04D915527040F14
:102E6000151FA0E3B2E00D931C93EEE1FBEA0E9474
:102E700013500E94564AE0E3F2E0A0E8B0E20E945C
:102E8000A1500E944E4A0E945D4AE0E2F3E00E9497
:102E9000244DA0E3B2E0AD90BD90ABE8B3E0AA0C46
:102EA000BB1CAA0CBB1CAA0DBB1D0D931D932D931F
:102EB0003D93E0E3F2E0A190B190E6E0F0E0AA0CEF
:102EC000BB1CAA0CBB1CEA0DFB1DA0E3B2E0AD903D
:102ED000BD90ABE8B3E0AA0CBB1CAA0CBB1CAA0DAE
:102EE000BB1D94E07BE70E948451E0E3F2E0A190F7
:102EF000B190EBE8F3E0AA0CBB1CAA0CBB1CEA0DDA
:102F0000FB1DA0E2B3E00E94894DA5E4B2E0E8E237
:102F1000FBEA0E9413500E94A44FE0E2F2E0A5E415
:102F2000B2E00E94474A0E94B150A5E4B2E00E947C
:102F3000474AE8EBFAEA0E9413500E94A44FE0E2ED
:102F4000F3E0A5E4B2E00E94474A0E946051A5E484
:102F5000B2E00E94474AE6E3FBEA0E9413500E9457
:102F6000A44FE1E2F2E0A5E4B2E00E94474A0E94E9
:102F7000B1500E94760C0C94C01786E080930E032B
:102F80000C94C51785E080930E030C94CA1784E057
:102F900080930E030C94752AE0E4FBEA0E94135020
:102FA0000E94D35111F00C949D180091A309033095
:102FB00011F00C949818A9EBB9E00E94F650A1E228
:102FC000B2E00C9300912102003080E010F009F093
:102FD00081E08F9300912102053081E008F080E0CC
:102FE0009F918923882311F40C949318AEECB9E0D7
:102FF0000E94F650A0E2B2E00C9300912002003053
:1030000080E010F009F081E08F93009120020131FF
:1030100081E008F080E09F918923882311F40C94CB
:103020008E1880E080930E03A1E2B2E00D9111278B
:1030300001501040A0E3B2E00D931C93A0E3B2E076
:103040000D911C9140E150E00E94774FA0E3B2E067
:103050000D931C93A0E3B2E00D911C91A0E2B2E0AD
:103060004D915527040F151FA0E3B2E00D931C935B
:10307000EEE1FBEA0E9413500E94564AE0E3F2E0C0
:10308000A0E8B0E20E94A1500E944E4A0E945D4A10
:10309000E0E3F2E0A190B190EBE8F3E0AA0CBB1CF6
:1030A000AA0CBB1CEA0DFB1DA0E2B3E00E94894DF7
:1030B000A5E4B2E0E8E4FBEA0E9413500E94A44FAA
:1030C000E0E2F2E0A5E4B2E00E94474A0E94B1507B
:1030D000A5E4B2E00E94474AE0E5FBEA0E941350F3
:1030E0000E94A44FE0E2F3E0A5E4B2E00E94474A68
:1030F0000E946051A5E4B2E00E94474AE6E3FBEA81
:103100000E9413500E94A44FE1E2F2E0A5E4B2E075
:103110000E94474A0E94B1500C94911886E0809317
:103120000E030C94961885E080930E030C949B1864
:1031300084E080930E030C94752AE4E5FBEA0E9478
:1031400013500E94D35111F00C94EF180091A30971
:10315000023011F00C94EA18A9EBB9E00E94F65085
:10316000A0E3B2E00D931C93A0E3B2E00D911C919B
:10317000003050E0150718F011F00C94C1180C94B1
:10318000E51880E080930E03A0E3B2E08D919C915E
:10319000AFE8B4E08D939C93A5E4B2E0ECE5FBEAE4
:1031A0000E9413500E94A44FEFE8F4E0A5E4B2E0BF
:1031B0000E94474A0E94A150EAE0F1E0AFE8B4E083
:1031C0007BE70E9483510C94E81885E080930E03FE
:1031D0000C94ED1884E080930E030C94752AE2E7BA
:1031E000FBEA0E9413500E94D35111F00C940D1968
:1031F00080E080930E03A5E4B2E0EAE7FBEA0E94D8
:1032000013500E94A44FEFE8F4E0A5E4B2E00E945E
:10321000474A0E94A1500C94752AE2E8FBEA0E94FA
:1032200013500E94D35111F00C945F190091A3091F
:10323000023011F00C945A19A9EBB9E00E94F65033
:10324000A0E3B2E00D931C93A0E3B2E00D911C91BA
:10325000003050E0150718F011F00C9431190C945F
:10326000551980E080930E03A0E3B2E08D919C910C
:10327000AEE7B8E08D939C93A5E4B2E0EAE8FBEA00
:103280000E9413500E94A44FEEE7F8E0A5E4B2E0DC
:103290000E94474A0E94A150EDE6F3E0AEE7B8E095
:1032A0007BE70E9483510C94581985E080930E03AC
:1032B0000C945D1984E080930E030C94752AE2EA65
:1032C000FBEA0E9413500E94D35111F00C947D1917
:1032D00080E080930E03A5E4B2E0EAEEF8EA0E94F3
:1032E00013500E94A44FEEE7F8E0A5E4B2E00E947C
:1032F000474A0E94A1500C94752AEAEAFBEA0E9410
:1033000013500E94D35111F00C94CF190091A309CE
:10331000023011F00C94CA19A9EBB9E00E94F650E2
:10332000A0E3B2E00D931C93A0E3B2E00D911C91D9
:10333000003050E0150718F011F00C94A1190C940E
:10334000C51980E080930E03A0E3B2E08D919C91BB
:10335000A0E8B8E08D939C93A5E4B2E0E2EBFBEA31
:103360000E9413500E94A44FE0E8F8E0A5E4B2E008
:103370000E94474A0E94A150EFE6F3E0A0E8B8E0BF
:103380007BE70E9483510C94C81985E080930E035B
:103390000C94CD1984E080930E030C94752AECEC08
:1033A000FBEA0E9413500E94D35111F00C94ED19C6
:1033B00080E080930E03A5E4B2E0E6EFF8EA0E9415
:1033C00013500E94A44FE0E8F8E0A5E4B2E00E94A8
:1033D000474A0E94A1500C94752AE4EDFBEA0E9432
:1033E00013500E94D35111F00C94291B0091A30992
:1033F000053011F00C94241BA9EBB9E00E94F650A3
:10340000A1E2B2E00C9300912102003080E010F0C4
:1034100009F081E08F9300912102053081E008F0EE
:1034200080E09F918923882311F40C941F1BAEEC3C
:10343000B9E00E94F650A2E2B2E00C9300912202A1
:10344000003080E010F009F081E08F9300912202BB
:10345000013181E008F080E09F918923882311F4F5
:103460000C941A1BA3EEB9E00E94F650A0E2B2E061
:103470000C9300912002003080E010F009F081E010
:103480008F9300912002093081E008F080E09F9145
:103490008923882311F40C94151BA1E2B2E00D914D
:1034A000112701501040A0E3B2E00D931C93A0E35C
:1034B000B2E00D911C9140E250E00E94774FA0E3F2
:1034C000B2E00D931C93A2E2B2E00D9111270150DE
:1034D0001040A2E3B2E00D931C93A2E3B2E00D9181
:1034E0001C9148E050E00E94774FA2E3B2E00D93B8
:1034F0001C93A0E3B2E00D911C91A2E3B2E04D91C8
:103500005C91040F151FA0E3B2E00D931C93A0E3A0
:10351000B2E00D911C91A0E2B2E04D915527040F4D
:10352000151FA0E3B2E00D931C93ECEDFBEA0E94A3
:1035300013500E94564AE0E3F2E0A0E8B0E20E9495
:10354000A1500E944E4A0E945D4AA8EFB9E00E9435
:103550004E51A3E2B2E00C9380912302A0E3B2E0CB
:10356000AD90BD90A2E9B4E0AA0DBB1D8C93E0E341
:10357000F2E0A190B190EBE0F1E0EA0DFB1DA3E2D7
:10358000B2E07BE70E94815180E080930E03A5E4C6
:10359000B2E0E6EEFBEA0E9413500E94A44FE0E284
:1035A000F2E0A5E4B2E00E94474A0E94B150A5E4CF
:1035B000B2E00E94474AE6EFFBEA0E9413500E94E5
:1035C000A44FE2E2F2E0A5E4B2E00E94474A0E9482
:1035D000B150A5E4B2E00E94474AE4E0FCEA0E9450
:1035E00013500E94A44FE1E2F2E0A5E4B2E00E9491
:1035F000474A0E94B150A5E4B2E00E94474AE6EF74
:10360000F7EA0E9413500E94A44FA5E4B2E00E9482
:10361000474AE0E3F2E0A190B190E2E9F4E0EA0D7C
:10362000FB1D0E943E510C94181B87E080930E03F3
:103630000C941D1B86E080930E030C94221B85E0E6
:1036400080930E030C94271B84E080930E030C944C
:10365000752AEEE0FCEA0E9413500E94D35111F04B
:103660000C94461C0091A309043011F00C94411CE9
:10367000A9EBB9E00E94F650A1E2B2E00C930091F0
:103680002102003080E010F009F081E08F9300917A
:103690002102053081E008F080E09F918923882392
:1036A00011F40C943C1CAEECB9E00E94F650A2E27E
:1036B000B2E00C9300912202003080E010F009F09B
:1036C00081E08F9300912202013181E008F080E0D7
:1036D0009F918923882311F40C94371CA3EEB9E041
:1036E0000E94F650A0E2B2E00C930091200200305C
:1036F00080E010F009F081E08F9300912002093002
:1037000081E008F080E09F918923882311F40C94D4
:10371000321C80E080930E03A1E2B2E00D911127EC
:1037200001501040A0E3B2E00D931C93A0E3B2E07F
:103730000D911C9140E250E00E94774FA0E3B2E06F
:103740000D931C93A2E2B2E00D911127015010409D
:10375000A2E3B2E00D931C93A2E3B2E00D911C91A1
:1037600048E050E00E94774FA2E3B2E00D931C9333
:10377000A0E3B2E00D911C91A2E3B2E04D915C9107
:10378000040F151FA0E3B2E00D931C93A0E3B2E079
:103790000D911C91A0E2B2E04D915527040F151F29
:1037A000A0E3B2E00D931C93E6E1FCEA0E94135003
:1037B0000E94564AE0E3F2E0A0E8B0E20E94A15085
:1037C0000E944E4A0E945D4AA5E4B2E0E8E2F8EAAF
:1037D0000E9413500E94A44FE0E2F2E0A5E4B2E0A0
:1037E0000E94474A0E94B150A5E4B2E00E94474AB5
:1037F000E6EFFBEA0E9413500E94A44FE2E2F2E0DF
:10380000A5E4B2E00E94474A0E94B150A5E4B2E0AC
:103810000E94474AE4E0FCEA0E9413500E94A44F31
:10382000E1E2F2E0A5E4B2E00E94474A0E94B15012
:10383000A5E4B2E00E94474AE6EFF7EA0E9413507F
:103840000E94A44FA5E4B2E00E94474AE0E3F2E000
:10385000A190B190E2E9F4E0EA0DFB1D0E943E5117
:103860000C94351C87E080930E030C943A1C86E080
:1038700080930E030C943F1C85E080930E030C9400
:10388000441C84E080930E030C94752AE4E2FCEA65
:103890000E9413500E94D35111F00C94A41C00916B
:1038A000A309023011F00C949F1CA9EBB9E00E940F
:1038B000F650A1E2B2E00C9300912102003080E0CA
:1038C00010F009F081E08F9300912102053081E032
:1038D00008F080E09F918923882311F40C949A1CAE
:1038E00080E080930E03A9EBB9E00E94F650A9E8AE
:1038F000B3E00C93E5E0F0E0A9E8B3E07BE70E94D9
:103900008151A5E4B2E0ECE2FCEA0E9413500E946F
:10391000A44FE9E8F3E0A5E4B2E00E94474A0E9420
:10392000B1500E94760C7091B20772607093B2072A
:103930000C949D1C85E080930E030C94A21C84E0E3
:1039400080930E030C94752AEAE4FCEA0E9413505B
:103950000E94D35111F00C94C71C80E080930E0399
:10396000A5E4B2E0EAE4F8EA0E9413500E94A44FF2
:10397000E9E8F3E0A5E4B2E00E94474A0E94B150B2
:103980007091E00670627093E0060C94752AE2E58F
:10399000FCEA0E9413500E94D35111F00C944A1D6E
:1039A0000091A309033011F00C94451DA9EBB9E077
:1039B0000E94F650A1E2B2E00C9300912102003087
:1039C00080E010F009F081E08F9300912102053032
:1039D00081E008F080E09F918923882311F40C9402
:1039E000401D80E080930E03AEECB9E00E944E5182
:1039F000A1E2B2E0AD90BB24A9E8B3E0AA0DBB1DE3
:103A00000C93E1E2F2E0A190BB24E5E0F0E0EA0DE6
:103A1000FB1DA1E2B2E0AD90BB24A9E8B3E0AA0D82
:103A2000BB1D7BE70E948151A5E4B2E0EAE5FCEA18
:103A30000E9413500E94A44FE9E8F3E0A5E4B2E02D
:103A40000E94474A0E94B150A5E4B2E00E94474A52
:103A5000E8EBFAEA0E9413500E94A44FA5E4B2E0FA
:103A60000E94474AE1E2F2E0A190BB24E9E8F3E0DA
:103A7000EA0DFB1D0E943E510E94760C0C94431DE2
:103A800085E080930E030C94481D84E080930E0320
:103A90000C94752AE8E7FCEA0E9413500E94D35167
:103AA00011F00C94A41D0091A309023011F00C94A4
:103AB0009F1D00912102003080E010F009F081E0AC
:103AC0008F9300912102053081E008F080E09F9102
:103AD0008923882311F40C949A1D80E080930E03AF
:103AE000A5E4B2E0E0E8FCEA0E9413500E94A44F73
:103AF000E9E8F3E0A5E4B2E00E94474A0E94B15031
:103B0000A5E4B2E00E94474AE4E9FCEA0E941350AF
:103B10000E94A44FA5E4B2E00E94474AE1E2F2E02D
:103B2000A190BB24E9E8F3E0EA0DFB1D0E943E51A1
:103B30000C949D1D85E080930E030C94A21D84E0DF
:103B400080930E030C94752AE8E9FCEA0E94135056
:103B50000E94D35111F00C944B1E0091A309033025
:103B600011F00C94461EA9EBB9E00E94F650A4E2B5
:103B7000B2E00C9300912402003080E010F009F0D4
:103B800081E08F9300912402053081E008F080E00D
:103B90009F918923882311F40C94411EAEECB9E067
:103BA0000E94F650ACE2B2E00D931D932D933D932D
:103BB000ACE2B2E00D911D912D913C91A4E2B2E0F6
:103BC000AD90BB24A0EEB6E0AA0CBB1CAA0CBB1C9B
:103BD000AA0DBB1D0D931D932D933C93E4E2F2E0DF
:103BE000A190BB24E8E0F3E0AA0CBB1CAA0CBB1C10
:103BF000EA0DFB1DACE2B2E094E07BE70E94845149
:103C000080E080930E03A5E4B2E0E0EAFCEA0E94C3
:103C100013500E94A44FE4E2F2E0A5E4B2E00E9457
:103C2000474A0E94B150A5E4B2E00E94474AE2E848
:103C3000FAEA0E9413500E94A44FE4E2F2E0A1903D
:103C4000BB24E0EEF6E0AA0CBB1CAA0CBB1CEA0DE0
:103C5000FB1DA5E4B2E00E94474A0E94A450E4E2A2
:103C6000F2E0A190BB24E0EEF6E0AA0CBB1CAA0C8B
:103C7000BB1CEA0DFB1DA4E0B7E00E94A4500C940D
:103C8000441E83E080930E030C94491E84E08093CD
:103C90000E030C94752AE6EBFCEA0E9413500E9476
:103CA000D35111F00C94F21E0091A309033011F0CE
:103CB0000C94ED1EA9EBB9E00E94F650A4E2B2E02C
:103CC0000C9300912402003080E010F009F081E0B4
:103CD0008F9300912402053081E008F080E09F91ED
:103CE0008923882311F40C94E81EAEECB9E00E94FD
:103CF000F650ACE2B2E00D931D932D933D93ACE2F0
:103D0000B2E00D911D912D913C91A4E2B2E0AD90F5
:103D1000BB24A0EFB6E0AA0CBB1CAA0CBB1CAA0DCE
:103D2000BB1D0D931D932D933C93E4E2F2E0A19013
:103D3000BB24E8E1F3E0AA0CBB1CAA0CBB1CEA0DF7
:103D4000FB1DACE2B2E094E07BE70E94845180E08E
:103D500080930E03A5E4B2E0E0EAFCEA0E9413506F
:103D60000E94A44FE4E2F2E0A5E4B2E00E94474AD8
:103D70000E94B150A5E4B2E00E94474AE2E8FAEAA4
:103D80000E9413500E94A44FE4E2F2E0A190BB24F1
:103D9000E0EFF6E0AA0CBB1CAA0CBB1CEA0DFB1D55
:103DA000A5E4B2E00E94474A0E94A450E4E2F2E097
:103DB000A190BB24E0EFF6E0AA0CBB1CAA0CBB1C34
:103DC000EA0DFB1DA4E0B7E00E94A4500C94EB1E8A
:103DD00083E080930E030C94F01E84E080930E0326
:103DE0000C94752AEEEBFCEA0E9413500E94D3510A
:103DF00011F00C94971F0091A309023011F00C945C
:103E0000921FA9EBB9E00E94F650A4E2B2E00C9335
:103E100000912402003080E010F009F081E08F93DF
:103E200000912402053081E008F080E09F91892311
:103E3000882311F40C948D1FA5E4B2E0E6ECFCEAB3
:103E40000E9413500E94A44FE4E2F2E0A5E4B2E025
:103E50000E94474A0E94B150A5E4B2E00E94474A3E
:103E6000E2E8FAEA0E9413500E94A44FE4E2F2E072
:103E7000A190BB24E0EEF6E0AA0CBB1CAA0CBB1C74
:103E8000EA0DFB1DA5E4B2E00E94474A0E94A4503F
:103E900080E080930E03E2EDF9EA0E9413500E9445
:103EA000564AE4E2F2E0A0E8B0E20E94B1500E947B
:103EB0004E4AE0EBF7EA0E9413500E94564AE4E2B1
:103EC000F2E0A190BB24E0EEF6E0AA0CBB1CAA0C29
:103ED000BB1CEA0DFB1DA0E8B0E20E94A4500E94AA
:103EE0004E4A0E945D4AEEECFCEA0E9413500E948A
:103EF000564A0E945D4AE4E2F2E0A190BB24E0EE63
:103F0000F6E0AA0CBB1CAA0CBB1CEA0DFB1DA4E02E
:103F1000B7E00E94A4500C94901F83E080930E039E
:103F20000C94951F84E080930E030C94752AE2EDA7
:103F3000FCEA0E9413500E94D35111F00C943C20D3
:103F40000091A309023011F00C943720A9EBB9E0DD
:103F50000E94F650A4E2B2E00C93009124020030DB
:103F600080E010F009F081E08F9300912402053089
:103F700081E008F080E09F918923882311F40C945C
:103F80003220A5E4B2E0EAEDFCEA0E9413500E9460
:103F9000A44FE4E2F2E0A5E4B2E00E94474A0E94A6
:103FA000B150A5E4B2E00E94474AE2E8FAEA0E9472
:103FB00013500E94A44FE4E2F2E0A190BB24E0EF92
:103FC000F6E0AA0CBB1CAA0CBB1CEA0DFB1DA5E469
:103FD000B2E00E94474A0E94A45080E080930E0302
:103FE000E2EDF9EA0E9413500E94564AE4E2F2E040
:103FF000A0E8B0E20E94B1500E944E4AE0EBF7EA1E
:104000000E9413500E94564AE4E2F2E0A190BB24C1
:10401000E0EFF6E0AA0CBB1CAA0CBB1CEA0DFB1DD2
:10402000A0E8B0E20E94A4500E944E4A0E945D4A5D
:10403000EEECFCEA0E9413500E94564A0E945D4A30
:10404000E4E2F2E0A190BB24E0EFF6E0AA0CBB1C96
:10405000AA0CBB1CEA0DFB1DA4E0B7E00E94A45013
:104060000C94352083E080930E030C943A2084E076
:1040700080930E030C94752AE6EEFCEA0E9413501E
:104080000E94D35111F00C94AF200091A30902308B
:1040900011F00C94AA20A9EBB9E00E94F650A4E21A
:1040A000B2E00C9300912402003080E010F009F09F
:1040B00081E08F9300912402053081E008F080E0D8
:1040C0009F918923882311F40C94A52080E080938C
:1040D0000E030091240241E0041BA0E2B2E00C9325
:1040E00080912002A2EBB7E00E94FE4F0E94F44FA5
:1040F0009C91982B9C93A5E4B2E0EEEEFCEA0E9422
:1041000013500E94A44FE4E2F2E0A5E4B2E00E9462
:10411000474A0E94B150A5E4B2E00E94474AE0EB52
:10412000F7EA0E9413500E94A44FA5E4B2E00E9457
:10413000474AE2EBF7E00E943E51A4E0B7E0E2EB31
:10414000F7E00E943E510C94A82083E080930E0378
:104150000C94AD2084E080930E030C94752AE2E069
:10416000FDEA0E9413500E94D35111F00C94F020EC
:104170000091A309023011F00C94EB2080E08093B1
:104180000E03A9EBB9E00E94F650ABE4B7E00D9343
:104190001D932D933D93E4E3F3E0ABE4B7E094E0AB
:1041A0007BE70E948451A5E4B2E0EAE0FDEA0E94C8
:1041B00013500E94A44FEBE4F7E0A5E4B2E00E94A4
:1041C000474A0E94A450EBE4F7E0A4E0B7E00E9465
:1041D000A4500C94EE2084E080930E030C94752A76
:1041E000E2E2FDEA0E9413500E94D35111F00C94B8
:1041F000142180E080930E03A5E4B2E0EAE2FDEA38
:104200000E9413500E94A44FEBE4F7E0A5E4B2E053
:104210000E94474A0E94A450EBE4F7E0A4E0B7E014
:104220000E94A4500C94752AE4E3FDEA0E94135006
:104230000E94D35111F00C942F2180E080930E0343
:104240007091E00672607093E006A5E4B2E0ECE3E2
:10425000FDEA0E9413500E94A44F0C94752AE4E4D6
:10426000FDEA0E9413500E94D35111F00C946C216E
:104270000091A309023011F00C94672180E0809333
:104280000E03A9EBB9E00E94F650A3EBB7E00C9344
:10429000E8E3F3E0A3EBB7E07BE70E948151A5E4FC
:1042A000B2E0ECE4FDEA0E9413500E94A44FE3EB5D
:1042B000F7E0A5E4B2E00E94474A0E94B150E3EB68
:1042C000F7E0A4E0B7E00E94B1500C946A2184E0CA
:1042D00080930E030C94752AEEE5FDEA0E941350BC
:1042E0000E94D35111F00C94902180E080930E0332
:1042F000A5E4B2E0E6E6FDEA0E9413500E94A44F56
:10430000E3EBF7E0A5E4B2E00E94474A0E94B15017
:10431000E3EBF7E0A4E0B7E00E94B1500C94752AFB
:10432000ECE6FDEA0E9413500E94D35111F00C9468
:10433000AB2180E080930E037091940774607093BA
:104340009407A5E4B2E0E4E7FDEA0E9413500E945E
:10435000A44F0C94752AEEE7FDEA0E9413500E94C8
:10436000D35111F00C94E2210091A309023011F015
:104370000C94DD2180E080930E03A9EBB9E00E944C
:10438000F650AAECB7E00C93E9E3F3E0AAECB7E04F
:104390007BE70E948151A5E4B2E0E6E8FDEA0E94D5
:1043A00013500E94A44FEAECF7E0A5E4B2E00E94AB
:1043B000474A0E94B1500C94E02184E080930E03A0
:1043C0000C94752AECE9FDEA0E9413500E94D35127
:1043D00011F00C94002280E080930E03A5E4B2E07B
:1043E000E8E9F7EA0E9413500E94A44FEAECF7E0D4
:1043F000A5E4B2E00E94474A0E94B1500C94752A8D
:10440000E4EAFDEA0E9413500E94D35111F00C948B
:1044100043220091A309023011F00C943E22A9EB33
:10442000B9E00E94F650ABECB7E00D931C93EAE3C1
:10443000F3E0ABECB7E07BE70E94835180E0809330
:104440000E03A5E4B2E0ECEAFDEA0E9413500E94DC
:10445000A44FEBECF7E0A5E4B2E00E94474A0E94CB
:10446000A150EBECF7E0A4E0B7E00E94A1507091FE
:10447000B20772607093B2070C94412284E080937B
:104480000E030C94752AECECFDEA0E9413500E9476
:10449000D35111F00C947C220091A309013011F04A
:1044A0000C94772280E080930E03A5E4B2E0E4ED63
:1044B000FDEA0E9413500E94A44FEBECF7E0A5E444
:1044C000B2E00E94474A0E94A150A5E4B2E00E94D7
:1044D000474AE8E4F8EA0E9413500E94A44FEBEC2C
:1044E000F7E0A4E0B7E00E94A1500C947A2284E0A7
:1044F00080930E030C94752AE8EEFDEA0E94135097
:104500000E94D35111F00C94C6220091A3090230ED
:1045100011F00C94C122A9EBB9E00E94F650A0E280
:10452000B2E00C9300912002023010F00C94BC22F7
:1045300080E080930E0300912002003011F00C9473
:10454000A4225F980C94A5225F9AA5E4B2E0E0EF64
:10455000FDEA0E9413500E94A44FABE2B0E08C91A0
:1045600087FBA5E4B2E00E94474A0E9404508D9365
:1045700088278C930C94BF2283E080930E030C94C5
:10458000C42284E080930E030C94752AEAEFFDEABE
:104590000E9413500E94D35111F00C94F722009105
:1045A000A309023011F00C94F22280E080930E03F4
:1045B000A9EBB9E00E94F650AFECB7E00D931C9365
:1045C000A5E4B2E0E2E0FEEA0E9413500E94A44F8C
:1045D000EFECF7E0A5E4B2E00E94474A0E94A15048
:1045E0000C94F52284E080930E030C94752AEAE182
:1045F000FEEA0E9413500E94D35111F00C942F2315
:104600000091A309023011F00C942A2380E08093DA
:104610000E03A9EBB9E00E94F650ADECB7E00D93A4
:104620001C93ECE3F3E0ADECB7E07BE70E94835131
:10463000A5E4B2E0E2E2FEEA0E9413500E94A44F19
:10464000EDECF7E0A5E4B2E00E94474A0E94A150D9
:104650000C942D2384E080930E030C94752AECE3D4
:10466000FEEA0E9413500E94D35111F00C94712362
:1046700080E080930E03A5E4B2E0E4E4FEEA0E9449
:1046800013500E94A44FEDECF7E0A5E4B2E00E94C5
:10469000474A0E94A150A5E4B2E00E94474AE4E5DF
:1046A000FEEA0E9413500E94A44FEFECF7E0A5E44D
:1046B000B2E00E94474A0E94A150A5E4B2E00E94E5
:1046C000474AE0E6FEEA0E9413500E94A44FE1ED43
:1046D000F7E0A5E4B2E00E94474A0E94B1500C9472
:1046E000752AEEE6FEEA0E9413500E94D35111F0A3
:1046F0000C94962380E080930E03A9EBB9E00E940E
:10470000F650A1EDB7E00C93A5E4B2E0E6E7FEEACF
:104710000E9413500E94A44FE1EDF7E0A5E4B2E03F
:104720000E94474A0E94B1500C94752AE6E8FEEABE
:104730000E9413500E94D35111F00C942D2480E05C
:1047400080930E03A5E4B2E0EEE8FEEA0E94135067
:104750000E94A44F81E08093200200912002043047
:1047600018F011F00C942B240091200241E0041B5E
:10477000A4E2B2E00C9380912402AAE0B8E00E9487
:10478000FE4F0E94F44F0C900822689409F4E894BC
:1047900016F00C9423240027442780912402A0E2E1
:1047A000B0E00E94FE4F0E94F44F0C9008226894E3
:1047B00009F4E89400F980912402A4EEB7E00E9485
:1047C000FE4F0E94F44F0C900822689409F4E8947C
:1047D00040F9042700FBA8E3B2E08C9187F98C93A1
:1047E000E0E2F2E00191112747E050E00E94774FAC
:1047F000EEEDF7E0E00FF11FA5E4B2E00E94474ABA
:104800000E946051A5E4B2E00E94474AE6EFF7EA51
:104810000E9413500E94A44FA8E3B2E08C9187FB42
:10482000A5E4B2E00E94474A0E9404508D93882775
:104830008C93A5E4B2E00E94474AE0EBF7EA0E94BD
:1048400013500E94A44FA0E2B2E08C918F5F8C9332
:1048500010F40C94AD230C94752AE2EAFEEA0E944F
:1048600013500E94D35111F00C94E3240091A3093A
:10487000043011F00C94DE24A9EBB9E00E94F6504C
:10488000A1E2B2E00C9300912102013011F00C94EE
:10489000D124AEECB9E00E94F650A0E2B2E00C9355
:1048A00000912002003080E010F009F081E08F9349
:1048B00000912002053081E008F080E09F9189237B
:1048C000882311F40C94CC2480E080930E03009193
:1048D000200241E0041BA2E2B2E00C93A3EEB9E097
:1048E0000E94F650A1E2B2E00C9300912102003048
:1048F00011F00C94882480912202AAE0B8E00E9472
:10490000FE4F0E94F44F8C9189238C930C94932436
:1049100080912202AAE0B8E00E94FE4F0E94F44F6C
:104920009C91982B9C93ECE6F3E0AAE0B8E07BE73F
:104930000E948151A5E4B2E0EAEAFEEA0E94135027
:104940000E94A44FE0E2F2E0A5E4B2E00E94474AF0
:104950000E94B150A5E4B2E00E94474AE6EFF7EAB0
:104960000E9413500E94A44F80912202AAE0B8E056
:104970000E94FE4F0E94F44F0C900822689409F4A4
:10498000E894A5E4B2E00E94474A0E9404508D9347
:1049900088278C930C94CF2485E080930E030C948D
:1049A000DC2480E080930E03A5E4B2E0EEEBFEEAA7
:1049B0000E9413500E94A44F0C94E12484E0809341
:1049C0000E030C94752AECEDFEEA0E9413500E942F
:1049D000D35111F00C94BC250091A309013011F0C2
:1049E0000C94072580E080930E03A5E4B2E0E4EE8A
:1049F000FEEA0E9413500E94A44FA5E4B2E00E9478
:104A0000474AEAE0F8E00E943E510C94BA25023091
:104A100011F00C943A25A9EBB9E00E94F650A1E2FE
:104A2000B2E00C9300912102013011F00C942D257D
:104A300080E080930E03A5E4B2E0E4EEFEEA0E947B
:104A400013500E94A44FA5E4B2E00E94474AEAE056
:104A5000F8E00E943E510C94382580E080930E03CC
:104A6000A5E4B2E0ECEEFEEA0E9413500E94A44FCF
:104A70000C94BA25033011F00C94B725A9EBB9E0DA
:104A80000E94F650A1E2B2E00C93009121020130A5
:104A900011F00C94AA25AEECB9E00E94F650A0E209
:104AA000B2E00C9300912002003080E010F009F099
:104AB00081E08F9300912002053081E008F080E0D2
:104AC0009F918923882311F40C94A52580E080937D
:104AD0000E030091200241E0041BA2E2B2E00C931D
:104AE00080E080930E03A5E4B2E0E0E0FFEA0E94DC
:104AF00013500E94A44FE0E2F2E0A5E4B2E00E946D
:104B0000474A0E94B150A5E4B2E00E94474AE6EF4E
:104B1000F7EA0E9413500E94A44F80912202AAE05B
:104B2000B8E00E94FE4F0E94F44F0C900822689457
:104B300009F4E894A5E4B2E00E94474A0E940450B8
:104B40008D9388278C930C94A82585E080930E0381
:104B50000C94B52580E080930E03A5E4B2E0E8E074
:104B6000FFEA0E9413500E94A44F0C94BA2584E0DF
:104B700080930E030C94752AEEE1FFEA0E94135015
:104B80000E94D35111F00C9458260091A3090330D0
:104B900011F00C945326A9EBB9E00E94F650A0E264
:104BA000B2E00C9300912002003080E010F009F098
:104BB00081E08F9300912002053081E008F080E0D1
:104BC0009F918923882311F40C944E2680E08093D2
:104BD0000E030091200241E0041BA2E2B2E00C931C
:104BE000AEECB9E00E94F650A1E2B2E00C93009165
:104BF0002102003011F00C940A2680912202A4EECA
:104C0000B7E00E94FE4F0E94F44F8C9189238C9351
:104C10000C94152680912202A4EEB7E00E94FE4F6C
:104C20000E94F44F9C91982B9C93EFE4F3E0A4EE48
:104C3000B7E07BE70E948151A5E4B2E0E6E2FFEA3B
:104C40000E9413500E94A44FE0E2F2E0A5E4B2E01B
:104C50000E94474A0E94B150A5E4B2E00E94474A30
:104C6000E6EFF7EA0E9413500E94A44F80912202BF
:104C7000A4EEB7E00E94FE4F0E94F44F0C90082271
:104C8000689409F4E894A5E4B2E00E94474A0E94BF
:104C900004508D9388278C930C94512685E0809343
:104CA0000E030C94562684E080930E030C94752A10
:104CB000EAE3FFEA0E9413500E94D35111F00C94D2
:104CC000E1260091A309013011F00C947C2680E0CC
:104CD00080930E03A5E4B2E0E2E4FFEA0E941350E1
:104CE0000E94A44FA5E4B2E00E94474AE4EEF7E038
:104CF0000E943E510C94DF26023011F00C94DC2609
:104D0000A9EBB9E00E94F650A0E2B2E00C9300914A
:104D10002002003080E010F009F081E08F930091D4
:104D20002002053081E008F080E09F9189238823EC
:104D300011F40C94D7260091200241E0041BA2E25A
:104D4000B2E00C9380E080930E03A5E4B2E0EAE4C5
:104D5000FFEA0E9413500E94A44FE0E2F2E0A5E4B3
:104D6000B2E00E94474A0E94B150A5E4B2E00E941E
:104D7000474AE6EFF7EA0E9413500E94A44F809141
:104D80002202A4EEB7E00E94FE4F0E94F44F0C9066
:104D90000822689409F4E894A5E4B2E00E94474A26
:104DA0000E9404508D9388278C930C94DA2685E01A
:104DB00080930E030C94DF2684E080930E030C9402
:104DC000752AE2E5FFEA0E9413500E94D35111F0C8
:104DD0000C9405290091A309053011F00C940029C9
:104DE000A9EBB9E00E94F650A0E2B2E00C93AEEC61
:104DF000B9E00E94F650A1E2B2E00C93A3EEB9E054
:104E00000E94F650A2E2B2E00C9300912002013021
:104E100011F00C94E22800912102003080E010F0A3
:104E200009F081E08F9300912102053081E008F0C4
:104E300080E09F918923882311F40C94D528009158
:104E40002202013011F00C948127E8EFF9E0A1E291
:104E5000B2E00D91112747E050E00E94774FAEED90
:104E6000B7E0A00FB11F0E946051E1E2F2E00191B2
:104E7000112747E050E00E94774FE9E4F3E0E00FAC
:104E8000F11FA1E2B2E00D91112747E050E00E942E
:104E9000774FAEEDB7E0A00FB11F7BE70E949251B4
:104EA00080E080930E03A5E4B2E0EAE5FFEA0E9409
:104EB00013500E94A44FE1E2F2E0A5E4B2E00E94A8
:104EC000474A0E94B150A5E4B2E00E94474AE6EF8B
:104ED000F7EA0E9413500E94A44FE1E2F2E0019130
:104EE000112747E050E00E94774FEEEDF7E0E00F2A
:104EF000F11FA5E4B2E00E94474A0E9460510C9461
:104F0000D328023011F00C940028A8EFB9E00E94D9
:104F1000F650A3E2B2E00C9300912302023010F0AD
:104F20000C94F3270091210241E0041BA4E2B2E0BB
:104F30000C9300912302003011F00C94AC27809167
:104F40002402A4EEB7E00E94FE4F0E94F44F8C9121
:104F500089238C930C94B72780912402A4EEB7E0A8
:104F60000E94FE4F0E94F44F9C91982B9C93EFE47B
:104F7000F3E0A4EEB7E07BE70E94815180E08093EC
:104F80000E03A5E4B2E0EEE6FFEA0E9413500E9491
:104F9000A44FE1E2F2E0A5E4B2E00E94474A0E9499
:104FA000B150A5E4B2E00E94474AE6EFF7EA0E945A
:104FB00013500E94A44F80912402A4EEB7E00E94F7
:104FC000FE4F0E94F44F0C900822689409F4E89474
:104FD000A5E4B2E00E94474A0E9404508D938827BE
:104FE0008C930C94FE2780E080930E03A5E4B2E03E
:104FF000E4E7FFEA0E9413500E94A44F0C94D328C8
:10500000033011F00C946428A8EFB9E00E94F65028
:10501000A1E2B2E0AD90BB24A2EDB7E0AA0CBB1CAC
:10502000AA0DBB1D0D931C93E1E2F2E0A190BB24FD
:10503000EDE3F3E0AA0CBB1CEA0DFB1DA1E2B2E01C
:10504000AD90BB24A2EDB7E0AA0CBB1CAA0DBB1D02
:105050007BE70E94835180E080930E03A5E4B2E0D9
:10506000E2E9FFEA0E9413500E94A44FE1E2F2E05D
:10507000A5E4B2E00E94474A0E94B150A5E4B2E024
:105080000E94474AE6EFF7EA0E9413500E94A44F9D
:10509000E1E2F2E0A190BB24E2EDF7E0AA0CBB1C38
:1050A000EA0DFB1DA5E4B2E00E94474A0E94A15010
:1050B000A5E4B2E00E94474AEEEAFFEA0E941350DC
:1050C0000E94A44F0C94D328043011F00C94C828EB
:1050D000A8EFB9E00E94F650A1E2B2E0AD90BB2487
:1050E000AAEDB7E0AA0CBB1CAA0DBB1D0D931C9327
:1050F000E1E2F2E0A190BB24E5E4F3E0AA0CBB1CE2
:10510000EA0DFB1DA1E2B2E0AD90BB24AAEDB7E031
:10511000AA0CBB1CAA0DBB1D7BE70E94835180E03B
:1051200080930E03A5E4B2E0E6EBFFEA0E94135081
:105130000E94A44FE1E2F2E0A5E4B2E00E94474AF7
:105140000E94B150A5E4B2E00E94474AE6EFF7EAB8
:105150000E9413500E94A44FE1E2F2E0A190BB2410
:10516000EAEDF7E0AA0CBB1CEA0DFB1DA5E4B2E0DA
:105170000E94474A0E94A150A5E4B2E00E94474A1B
:10518000EEEAFFEA0E9413500E94A44F0C94D32829
:1051900080E080930E03A5E4B2E0E2EDFFEA0E9416
:1051A00013500E94A44F0C94E02880E080930E03DB
:1051B000A5E4B2E0EAEEFFEA0E9413500E94A44F79
:1051C0000C94FE28033011F00C94F32880E08093B7
:1051D0000E03A5E4B2E0ECEFFFEA0E9413500E9438
:1051E000A44F0C94FE2880E080930E03A5E4B2E067
:1051F000E4E2F0EB0E9413500E94A44F0C940329A8
:1052000084E080930E030C94752AE0E4F0EB0E9496
:1052100013500E94D35111F00C94F5290091A30969
:10522000033011F00C94F029A9EBB9E00E94F6507C
:10523000A0E2B2E00C93AEECB9E00E94F650A1E21D
:10524000B2E00C9300912002013011F00C94DF29A0
:1052500080E080930E0300912102003080E010F086
:1052600009F081E08F9300912102053081E008F080
:1052700080E09F918923882311F40C94D229009116
:10528000210241E0041BA4E2B2E00C93A5E4B2E0E9
:10529000E2E7F9EA0E9413500E94A44FE1E2F2E033
:1052A000A5E4B2E00E94474A0E94B150A5E4B2E0F2
:1052B0000E94474AE8E4F0EB0E9413500E94A44F7A
:1052C000E1E2F2E00191112747E050E00E94774FC0
:1052D000EEEDF7E0E00FF11FA5E4B2E00E94474ACF
:1052E0000E946051A5E4B2E00E94474AE2E5F0EB7B
:1052F0000E9413500E94A44F80912402A4EEB7E0B4
:105300000E94FE4F0E94F44F0C900822689409F40A
:10531000E894A5E4B2E00E94474A0E9404508D93AD
:1053200088278C93A5E4B2E00E94474AE8E5F0EBB9
:105330000E9413500E94A44FE1E2F2E0A190BB242E
:10534000E2EDF7E0AA0CBB1CEA0DFB1DA5E4B2E000
:105350000E94474A0E94A150A5E4B2E00E94474A39
:10536000E0E6F0EB0E9413500E94A44FE1E2F2E06D
:10537000A190BB24EAEDF7E0AA0CBB1CEA0DFB1DD3
:10538000A5E4B2E00E94474A0E94A150A5E4B2E021
:105390000E94474AE0E7F0EB0E9413500E94A44F9E
:1053A0000C94DD2980E080930E03A5E4B2E0EAEEE0
:1053B000FFEA0E9413500E94A44F0C94EE29033080
:1053C00011F00C94EE2980E080930E03A5E4B2E086
:1053D000ECEFFFEA0E9413500E94A44F0C94F329B3
:1053E00084E080930E030C94752AE8E7F0EB0E94AA
:1053F00013500E94D35111F00C94722AA9EBB9E01A
:105400000E94F650A0E2B2E00C930091200200301E
:1054100080E010F009F081E08F93009120020430C9
:1054200081E008F080E09F918923882311F40C9497
:105430006D2AAEECB9E00E94F650A1E2B2E00C9306
:1054400000912102023010F00C94462A00912102B2
:10545000003011F00C94392A80912002A5E2B0E0CE
:105460000E94FE4F0E94F44F8C9189238C930C94E0
:10547000442A80912002A5E2B0E00E94FE4F0E94E3
:10548000F44F9C91982B9C930C94492A85E080932F
:105490000E03A5E4B2E0E0E8F0EB0E9413500E9496
:1054A000A44FE0E2F2E0A5E4B2E00E94474A0E9485
:1054B000B150A5E4B2E00E94474AE6EFF7EA0E9445
:1054C00013500E94A44FE1E2F2E0A5E4B2E00E9492
:1054D000474A0E94B1500C94702A84E080930E03D6
:1054E0000C94752A81E080930E030C947A2A82E052
:1054F00080930E0300910E03003018F011F00C940D
:10550000832A0C94912AEAEBF4E70E941350AEE050
:10551000B3E08C9199270E94E04FA5E4B2E00E948D
:10552000A44FA5E4B2E00E94504A0E945D4A08954B
:1055300080E08093200270913802777F7093380268
:1055400000919E07013011F00C94162B70919E076C
:105550007E7F70939E07A0E2B2E08C918F5F8C9368
:10556000E4E9F0EB0E9413500E94564AE0E2F2E0B8
:10557000A0E8B0E20E94B1500E944E4A0E945D4AEB
:105580000E94BC2B62FA16F40C94142BEEE9F0EB9B
:105590000E9413500E94564A0E940C4CA1E1B2E0B6
:1055A0000E94504AE6EAF0EB0E9413500E94564ACD
:1055B0000E940C4CA8E0B2E00E94504A0E945D4A52
:1055C000E2E0F2E00E94504DA8E2B2E00D931D939C
:1055D0002D933D93A4E8B3E04D915D916D917C9145
:1055E000A8E2B2E00D911D912D913C910E948E5048
:1055F0001CF011F00C94FE2A0C94052B70913802CB
:105600007860709338020C94122BEAEAF0EB0E9457
:1056100013500E94564A0E945D4A7091E0067260E3
:105620007093E0060C94162B0E94A34DA2EAB9E0F9
:105630008C9187FB16F00C94302B7091A2097F7728
:105640007093A209E0E9F9EA0E9413500E94564AB9
:10565000A4E2BDE00E94504A0E945D4A0E940D14DF
:10566000A0EEB6E08C9181FB16F00C948D2B70911E
:10567000E0067D7F7093E006ECE3FDEA0E941350A4
:105680000E94564A0E945D4AA5E4B2E0E2EDF0EBCA
:105690000E9413500E94A44FA5E4B2E00E94CD5195
:1056A000A0E3B2E08D9388278C93A0E3B2E0ED9164
:1056B000FC91A5E4B2E00E94E751A4E3B2E00D93AF
:1056C0001D932D933D93A5E4B2E00E94474AE0EE7E
:1056D000F0EB0E9413500E94A44FE4E3F2E0A5E433
:1056E000B2E00E94474A0E942951E2EEF0EB0E948C
:1056F00013500E94564AA5E4B2E00E94504A0E940C
:105700005D4AE2EEF0EB0E9413500E946F4AA5E45E
:10571000B2E00E94694A0E94764AA6E8B8E08C91FD
:1057200081FB16F00C94A72B709186087D7F7093F7
:105730008608E4EEF0EB0E9413500E94564AA5E161
:10574000B9E00E94504A0E945D4A0E94A330009135
:1057500020020A3081E009F080E08F93A8E3B2E0F4
:105760008C9183FB81E00EF080E09F91892B882350
:1057700011F40C94A02A08950E94BA4D62FA16F40E
:105780000C943A2C10ED0E94CE4D10E00E94CE4DAC
:105790000E94BA4D62FA16F40C94302C11ED0E945E
:1057A000CE4D0E94ED4DA2E0B2E01C930E94ED4D63
:1057B000A3E0B2E01C930E94ED4DA4E0B2E01C9384
:1057C0000E94ED4DADE6B3E01C930E94ED4DA5E0C7
:1057D000B2E01C930E94ED4DA6E0B2E01C930E9443
:1057E000EB4DA7E0B2E01C930E94C64D62FA16F0A2
:1057F0000C94042CECEEF0EB0E9413500E94564ADD
:105800000E945D4A0C942E2C909102020E94004B43
:10581000A2E0B2E08C93909103020E94004BA3E0BF
:10582000B2E08C93909104020E94004BA4E0B2E09D
:105830008C93909105020E94004BA5E0B2E08C93FE
:10584000909106020E94004BA6E0B2E08C939091EA
:1058500007020E94004BA7E0B2E08C930C94382C16
:10586000ECEFF0EB0E9413500E94564A0E945D4AF2
:105870000C94422CE4E2F1EB0E9413500E94564A31
:105880000E945D4A08950E94BA4D62FA16F40C9483
:10589000842C809105020E94F94AA5E0B2E08C9325
:1058A000809106020E94F94AA6E0B2E08C938091B2
:1058B00007020E94F94AA7E0B2E08C9310ED0E9423
:1058C000CE4D13E00E94CE4D10916D030E94CE4D3F
:1058D000109105020E94CE4D109106020E94CE4DFD
:1058E000109107020E94CE4D0E94C64D62FA16F03A
:1058F0000C94822CECE4F1EB0E9413500E94564A67
:105900000E945D4A0C948C2CECE5F1EB0E94135044
:105910000E94564A0E945D4A08950E94BA4D62FA5A
:1059200016F40C94CA2C809102020E94F94AA2E05B
:10593000B2E08C93809103020E94F94AA3E0B2E0A6
:105940008C93809104020E94F94AA4E0B2E08C9307
:1059500010ED0E94CE4D10E00E94CE4D109102023B
:105960000E94CE4D109103020E94CE4D1091040270
:105970000E94CE4D0E94C64D62FA16F00C94C82CBF
:10598000EEE7F1EB0E9413500E94564A0E945D4AD6
:105990000C94D22CEAE8F1EB0E9413500E94564A74
:1059A0000E945D4A089581E00E94714F81E00E944B
:1059B000714F84E00E94714F209A289881E090E016
:1059C0000E94104B289AEF93FF93ECE9F0E00E94BD
:1059D000074BFF91EF912098EF93FF93ECE9F0E0F4
:1059E0000E94074BFF91EF91189B0C943E2D209A3B
:1059F000289884E190E00E94104B289AEF93FF933F
:105A0000ECE9F0E00E94074BFF91EF912098EF93B3
:105A1000FF93ECE9F0E00E94074BFF91EF91189B98
:105A20000C941F2DA4E5B7E088278C93AFE5B7E071
:105A300088278C9381E080936B070C94DE2FEF9383
:105A4000FF93ECE3F1E00E94074BFF91EF9118996F
:105A50000C94392DA4E5B7E088278C93AFE5B7E027
:105A600088278C9381E080936B070C94DE2F0C9435
:105A70003C2D8BE080936A070C945B2DEF93FF9392
:105A8000ECE3F1E00E94074BFF91EF9118990C9421
:105A9000582DA4E5B7E088278C93AFE5B7E08827B9
:105AA0008C9381E080936B070C94DE2F0C945B2D1C
:105AB00086E180936A0780E090E0A5E9B7E08D93E6
:105AC0009C93709194077F777093940770919407DB
:105AD000706470939407A3E2B0E00C9100FB81E046
