:100000000C947200189500001895000018950000D7
:10001000189500001895000018950000189500002C
:10002000189500001895000018950000189500001C
:100030001895000018950000189500000C9495057F
:1000400018950000189500001895000018950000FC
:100050000C94200318950000189500000C94510290
:10006000189500000C940D011895000018950000DB
:1000700018950000189500001895000018950000CC
:1000800018950000189500001895000018950000BC
:100090000C949F0118950000189500001895000019
:1000A000189500001895000018950000189500009C
:1000B000189500001895000018950000189500008C
:1000C000189500001895000018950000189500007C
:1000D000189500001895000018950000189500006C
:1000E000189500008FEF8DBFC0E0E8E14E2E81E251
:1000F0008EBFD1E2FFE15F2EA89584B7082E882736
:1001000084BF88E199278093600090936000EEEFB0
:10011000FFE1A0E0B2E088278D933197E9F787E609
:100120008093C40080E08093C50088E18093C10083
:100130006624279A389A399A3A9A3B9A3C9A3D9A79
:100140003E9A3F9A70910A01716070930A01709112
:100150000A01726070930A0170910A0174607093D1
:100160000A01219A229A239A289A209A5F9A579AEA
:10017000089809980A980B98109A119A129A139A4B
:1001800085E085BD80E084BD70916E0071607093E4
:100190006E0085E085BD80E08093800085E08093DF
:1001A000810070916F00716070936F0085E08093A3
:1001B000810087E08093B10080E08093B00070916F
:1001C000700071607093700087E08093B10070914F
:1001D000C10070687093C10087E68093CC0080E016
:1001E0008093CD007091C8007D7F7093C80086E039
:1001F0008093CA0088E18093C9007091C90070683B
:100200007093C90070E07093B9007CE07093B800FF
:100210000E94625478940C94FF490F921F922F927F
:100220003F924F925F927F92AF92BF920F931F9334
:100230002F933F934F935F936F937F938F939F93EE
:10024000AF93BF93CF93DF93EF93FF939FB79F93AA
:100250009BB79F9399279BBFA5E0BBE08091C60009
:100260008C9384E2482F0091050B041711F00C9435
:10027000440170918708706170938708A0E5BAE027
:1002800088278C930C9481010D3011F00C94690136
:10029000A7E8B8E08C9184FB16F00C94670170918C
:1002A00087087F7E7093870880E0A0E5BAE00E940F
:1002B000B2508D9388278C93E0E5FAE0A6E0BBE08E
:1002C0000E947757709187087860709387080C9424
:1002D00081010F3118F011F00C9470010C94810120
:1002E000A7E8B8E08C9184FB16F00C948101A5E09E
:1002F000BBE08C91A0E5BAE00E94B2508D938827B4
:100300008C939F919BBF9F919FBFFF91EF91DF9136
:10031000CF91BF91AF919F918F917F916F915F919D
:100320004F913F912F911F910F91BF90AF907F9070
:100330005F904F903F902F901F900F9018950F92C5
:100340001F922F923F924F925F927F92AF92BF92F5
:100350000F931F932F933F934F935F936F937F93CD
:100360008F939F93AF93BF93CF93DF93EF93FF93BD
:100370009FB79F939BB79F9399279BBFACE8B8E02B
:100380008091CE008C9385E2482F00918C08041751
:1003900011F00C94D60170918708706470938708EF
:1003A000ADE8B8E088278C930C9433020D3011F03F
:1003B0000C940B02A7E8B8E08C9186FB16F00C9425
:1003C0000902709187087F7B7093870880E0ADE811
:1003D000B8E00E94B2508D9388278C93EDE8F8E046
:1003E000AAE1B9E00E947757AAE1B9E0EAE6F3EBA7
:1003F0000E9425560E94E15711F00C94040270915E
:10040000380270627093380270918708706270933E
:1004100087080C9433020F3118F011F00C9412027B
:100420000C943302A7E8B8E08C9186FB16F00C948C
:100430003302ACE8B8E08C91ADE8B8E00E94B2506D
:100440008D9388278C93ADE8B8E00E94DB57082F86
:100450000C3818F011F00C942F020C943302ADE814
:10046000B8E088278C939F919BBF9F919FBFFF917E
:10047000EF91DF91CF91BF91AF919F918F917F913C
:100480006F915F914F913F912F911F910F91BF906D
:10049000AF907F905F904F903F902F901F900F9064
:1004A00018950F921F922F923F924F925F927F92D8
:1004B000AF92BF920F931F932F933F934F935F93EE
:1004C0006F937F938F939F93AF93BF93CF93DF935C
:1004D000EF93FF939FB79F939BB79F9399279BBFE2
:1004E00074E676BDA7E9B7E08C918F5F8C93A7E99E
:1004F000B7E00C9148E00E94CB578C93009197078E
:10050000003011F00C94B702A8E9B7E00C9140E27A
:100510000E94CB578C93E0E4F1E80E942556ADE9A8
:10052000B7E08C919927A9E9B7E00E94DC5580914A
:100530009807A9E9B7E00E9410560E9406560C9051
:100540000822689409F4E894AFE4B7E08C9183F949
:100550008C93AFE4B7E08C9183FBA5E2B0E08C9183
:1005600087F98C93A8E9B7E08C918F5F8C93AFE407
:10057000B7E08C9184FB16F00C94DD02A5E9B7E09E
:100580000E946B50A5E9B7E00D911C9149EF51E035
:100590000E949850A5E9B7E00D931C93A5E9B7E038
:1005A0000D911C91003050E0150711F00C94DD0204
:1005B00070914F07706270934F07AFE4B7E08C9172
:1005C00081FB16F00C94FC02A1EAB7E00E946B508C
:1005D000A3EAB7E04D915C91A1EAB7E00D911C91BF
:1005E0000417150711F00C94FA0270914F0774600C
:1005F00070934F070C94020380E090E0A1EAB7E00B
:100600008D939C939F919BBF9F919FBFFF91EF9173
:10061000DF91CF91BF91AF919F918F917F916F911A
:100620005F914F913F912F911F910F91BF90AF908C
:100630007F905F904F903F902F901F900F90189554
:100640000F921F922F923F924F925F927F92AF92A2
:10065000BF920F931F932F933F934F935F936F938B
:100660007F938F939F93AF93BF93CF93DF93EF933A
:10067000FF939FB79F939BB79F9399279BBF87EF4C
:1006800092EC909385008093840070919E07716036
:1006900070939E070E947752E8E0F2E0FA93EA93A3
:1006A000E1E1F2E00E940454A5EAB7E00D931D9346
:1006B0002D933D93A5EAB7E00E945E50E5EAF7E08E
:1006C000A1E1B2E00E94F4530E948A52E5EAF7E009
:1006D000A8E0B2E00E94FC530E9482520E9477522E
:1006E000E1E1F2E0A5EDB6E00E947757E5EDF6E036
:1006F0000E948F53A9EAB7E00D931D932D933D936C
:1007000081E08093AD070091AD07003118F011F042
:100710000C94B603ADEAB7E0AD90BB24A1E9B6E016
:10072000AA0CBB1CAA0CBB1CAA0DBB1D4D915D9154
:100730006D917C91A9EAB7E00D911D912D913C91AD
:100740000E94A55611F00C94AE037091E006706201
:100750007093E0068091AD078093E106ADEAB7E0C3
:100760008C918F5F8C9310F40C948303A5EAB7E00F
:100770000D911D912D913C91ABE4B7E04D915D91B0
:100780006D917C910E940551AEEAB7E00D931D93E7
:100790002D933D9340E050E060E070E0AEEAB7E0BA
:1007A0000D911D912D913C910E94A55611F00C9434
:1007B000DE0370914F07706870934F07A5EAB7E0AA
:1007C0000D911D912D913C91A3EBB7E04C915527D4
:1007D000662777270E940551AEEAB7E00D931D9377
:1007E0002D933D9340E050E060E070E0AEEAB7E06A
:1007F0000D911D912D913C910E94A55611F00C94E4
:10080000060470914F07716070934F0781E08093E9
:100810003D0200913D02043018F011F00C94750473
:10082000A5EAB7E00D911D912D913C91ADE3B2E0A9
:10083000AD90BB24A0EFB6E0AA0CBB1CAA0CBB1C5D
:10084000AA0DBB1D4D915D916D917C910E94A056AA
:10085000AEEAB7E00D931D932D933D93AEEAB7E05A
:100860000D911D912D913C91ADE3B2E0AD90BB2473
:10087000A0EEB6E0AA0CBB1CAA0CBB1CAA0DBB1DAB
:100880004D915D916D917C910E940551AEEAB7E06A
:100890000D931D932D933D9300913D0241E0041B68
:1008A000ACE3B2E00C9340E050E060E070E0AEEA10
:1008B000B7E00D911D912D913C910E94A55611F02C
:1008C0000C946D0480913C02A2EBB7E00E9410569C
:1008D0000E9406569C91982B9C93ADE3B2E08C91BC
:1008E0008F5F8C9310F40C940904A8E2B7E08C910C
:1008F0008F5F8C93A8E2B7E00C9141E00E94CB5748
:100900008C9300912807003011F00C948C047091A6
:10091000E00674607093E006AEE6B7E08C918F5FFE
:100920008C93AEE6B7E00C9145E00E94CB578C93D8
:1009300000916E07003011F00C94A30470914F07E2
:10094000706470934F07A0EEB6E08C9187FB16F0B1
:100950000C94E004A7E8B8E08C9187FB16F40C94A3
:10096000E004A1E9B4E00E946B50A1E9B4E00D916C
:100970001C91AFE8B4E04D915C910E949850A1E9C0
:10098000B4E00D931C93A1E9B4E00D911C910030EB
:1009900050E0150711F00C94E0047091870870681E
:1009A00070938708469847980E946E0E7091B20720
:1009B00071607093B2077091B20774607093B20760
:1009C000A7E8B8E08C9187FB16F00C941305A8E813
:1009D000B8E00E946B50A8E8B8E00D911C91AAE81D
:1009E000B8E04D915C910E949850A8E8B8E00D9352
:1009F0001C93A8E8B8E00D911C91003050E0150759
:100A000011F00C9413057091E00670647093E00689
:100A1000709187087F777093870880E090E0A1E964
:100A2000B4E08D939C93A4EBB7E08C9186FB16F019
:100A30000C947405A4EBB7E08C9185FB16F00C9434
:100A40004705A3E8B8E00E946B50A3E8B8E00D9119
:100A50001C91AFE7B8E04D915C910E949850A3E8DB
:100A6000B8E00D931C93A3E8B8E00D911C91003001
:100A700050E0150711F00C9447057091B4077061B0
:100A80007093B4077091B4077F7D7093B407A4EBA3
:100A9000B7E08C9184FB16F00C947405A5E8B8E0DF
:100AA0000E946B50A5E8B8E00D911C91A1E8B8E058
:100AB0004D915C910E949850A5E8B8E00D931C936D
:100AC000A5E8B8E00D911C91003050E0150711F039
:100AD0000C9474057091B40770627093B4077091B0
:100AE000B4077F7E7093B4079F919BBF9F919FBF78
:100AF000FF91EF91DF91CF91BF91AF919F918F9136
:100B00007F916F915F914F913F912F911F910F9125
:100B1000BF90AF907F905F904F903F902F901F902D
:100B20000F9018950895089508950F921F922F928F
:100B30003F924F925F927F92AF92BF920F931F931B
:100B40002F933F934F935F936F937F938F939F93D5
:100B5000AF93BF93CF93DF93EF93FF939FB79F9391
:100B60009BB79F9399279BBF74E67093B200AAEC42
:100B7000B7E08C918F5F8C93AAECB7E00C914AE0C0
:100B80000E94CB578C930091CA07003011F00C944F
:100B9000AB0700274427A0E2B0E08C9180FB00F96E
:100BA000A5EEB7E08C9180FB40F9042700FBA4EB95
:100BB000B7E08C9187F98C93A4EBB7E08C9187FB1D
:100BC000A2E0B8E08C9180F98C9300274427A0E242
:100BD000B0E08C9181FB00F9A5EEB7E08C9181FB30
:100BE00040F9042700FBA4EBB7E08C9187F98C93C4
:100BF000A4EBB7E08C9187FBA2E0B8E08C9181F97F
:100C00008C9300274427A0E2B0E08C9182FB00F98E
:100C1000A5EEB7E08C9182FB40F9042700FBA4EB22
:100C2000B7E08C9187F98C93A4EBB7E08C9187FBAC
:100C3000A2E0B8E08C9182F98C9300274427A0E2CF
:100C4000B0E08C9183FB00F9A5EEB7E08C9183FBBB
:100C500040F9042700FBA4EBB7E08C9187F98C9353
:100C6000A4EBB7E08C9187FBA2E0B8E08C9183F90C
:100C70008C9381E08093B5070091B507043018F09C
:100C800011F00C94AB070091B50741E0041BA6EBF3
:100C9000B7E00C93A5EBB7E0AD90BB24A2E0B8E0C1
:100CA000AA0DBB1D0C91003011F00C9473068091BD
:100CB000B607A2E0B8E00E9410560E9406560C90BB
:100CC0000822689409F4E89416F40C94710682E002
:100CD000A5EBB7E0AD90BB24A2E0B8E0AA0DBB1D28
:100CE0008C930C94A307013011F00C94930680911F
:100CF000B607A2E0B8E00E9410560E9406560C907B
:100D00000822689409F4E89416F00C94910683E0A4
:100D1000A5EBB7E0AD90BB24A2E0B8E0AA0DBB1DE7
:100D20008C930C94A307023011F00C941C07809153
:100D3000B607A2E0B8E00E9410560E9406560C903A
:100D40000822689409F4E89416F00C94C10680E037
:100D5000A5EBB7E0AD90BB24A2E0B8E0AA0DBB1DA7
:100D60008C9380E090E0A5EBB7E0AD90BB24A5EBC1
:100D7000B7E0AA0CBB1CAA0DBB1D8D939C930C94D1
:100D80001A07A5EBB7E0AD90BB24A5EBB7E0AA0C22
:100D9000BB1CAA0DBB1D0E946B50A5EBB7E0AD902C
:100DA000BB24A5EBB7E0AA0CBB1CAA0DBB1D0D9183
:100DB0001C91A5EBB7E0AD90BB24ABEDB7E0AA0C5E
:100DC000BB1CAA0DBB1D4D915C910E949850A5EBD8
:100DD000B7E0AD90BB24A5EBB7E0AA0CBB1CAA0DF5
:100DE000BB1D0D931C93A5EBB7E0AD90BB24A5EB09
:100DF000B7E0AA0CBB1CAA0DBB1D0D911C910030C5
:100E000050E0150711F00C941A0781E0A5EBB7E04C
:100E1000AD90BB24A2E0B8E0AA0DBB1D8C938091DD
:100E2000B607A7ECB7E00E9410560E9406569C91A8
:100E3000982B9C930C94A307033011F00C94A307F8
:100E40008091B607A2E0B8E00E9410560E940656B4
:100E50000C900822689409F4E89416F40C944A075C
:100E600081E0A5EBB7E0AD90BB24A2E0B8E0AA0D0D
:100E7000BB1D8C9380E090E0A5EBB7E0AD90BB2468
:100E8000ADEBB7E0AA0CBB1CAA0DBB1D8D939C93C8
:100E90000C94A307A5EBB7E0AD90BB24ADEBB7E096
:100EA000AA0CBB1CAA0DBB1D0E946B50A5EBB7E0A2
:100EB000AD90BB24ADEBB7E0AA0CBB1CAA0DBB1DCB
:100EC0000D911C91A5EBB7E0AD90BB24A3EDB7E06D
:100ED000AA0CBB1CAA0DBB1D4D915C910E949850A1
:100EE000A5EBB7E0AD90BB24ADEBB7E0AA0CBB1C03
:100EF000AA0DBB1D0D931C93A5EBB7E0AD90BB24D1
:100F0000ADEBB7E0AA0CBB1CAA0DBB1D0D911C914B
:100F1000003050E0150711F00C94A30780E0A5EB1A
:100F2000B7E0AD90BB24A2E0B8E0AA0DBB1D8C9346
:100F30008091B607A8ECB7E00E9410560E940656B2
:100F40009C91982B9C93A5EBB7E08C918F5F8C9331
:100F500010F40C943C069F919BBF9F919FBFFF9103
:100F6000EF91DF91CF91BF91AF919F918F917F9141
:100F70006F915F914F913F912F911F910F91BF9072
:100F8000AF907F905F904F903F902F901F900F9069
:100F900018952F98EEE6F3EB0E9425560E94C1505B
:100FA0000E94C850A0E0BFE1EEE8F3EB0E94255696
:100FB0000E94B6550E94B9500E94C850A0E0BFE1FF
:100FC000E2EAF3EB0E9425560E94B6550E94B95002
:100FD0000E94C850A0E0BFE1EAEAF3EB0E94255668
:100FE0000E94B6550E94B9500E94C850E9E3F3E050
:100FF000ABECB7E00E94B457E4EBF3EB0E9425564C
:101000000E94C150EBECF7E0A0E0BFE10E94C8569F
:101010000E94B9500E94C850E1E0F0E0A4E8B3E0BB
:1010200094E00E94B757ECEBF3EB0E9425560E9428
:10103000C150E4E8F3E0A0E0BFE10E94FC530E944D
:10104000B950ECECF3EB0E9425560E94C150E4E845
:10105000F3E0A0E0BFE10E94F4530E94B9500E9467
:10106000C850E4E3F3E0ABE4B7E094E00E94B75784
:10107000EEECF3EB0E9425560E94C150EBE4F7E042
:10108000A0E0BFE10E94BB560E94B9500E94C85028
:10109000E8E3F3E0A3EBB7E00E94B457EAEEF3EB2A
:1010A0000E9425560E94C150E3EBF7E0A0E0BFE1AB
:1010B0000E94C8560E94B9500E94C85081E0809397
:1010C000200200912002043018F011F00C94A608C0
:1010D000E0E2F2E0A190BB24E5E0F0E0EA0DFB1DC8
:1010E000A0E2B2E0AD90BB24A9E8B3E0AA0DBB1D1D
:1010F0000E94B457E0E0F4EB0E9425560E94C150D4
:10110000E0E2F2E0A0E0BFE10E94C8560E94B950C0
:10111000E2E1F4EB0E9425560E94C150D201E0E2C8
:10112000F2E0A190BB24E9E8F3E0EA0DFB1D0E9488
:101130005557D2010E94BB500E94C850A0E2B2E0B5
:101140008C918F5F8C9310F40C946108E4E1F4EBC4
:101150000E9425560E94C1500E94C85081E0809391
:10116000240200912402043018F011F00C9460095C
:10117000EEE1F4EB0E9425560E94C150E4E2F2E059
:10118000A0E0BFE10E94C8560E94B9500E94C8501A
:1011900081E08093250200912502003118F011F0C2
:1011A0000C945809A4E2B2E00D91112701501040AF
:1011B000A0E3B2E00D931C93A0E3B2E00D911C916B
:1011C00040E150E00E948955A0E3B2E00D931C93EA
:1011D000A0E3B2E00D911C91A5E2B2E04D9155273C
:1011E000040F151FA0E3B2E00D931C93E0E3F2E0BF
:1011F000A190B190E6E0F0E0AA0CBB1CAA0CBB1CCD
:10120000EA0DFB1DA8E2B2E094E00E94B757A8E205
:10121000B2E00D911D912D913C91A0E3B2E0AD9013
:10122000BD90ABE8B3E0AA0CBB1CAA0CBB1CAA0D7A
:10123000BB1D0D931D932D933C93ABECB7E00C912C
:1012400000FB16F00C945009E4E2F4EB0E942556E2
:101250000E94C150E5E2F2E0A0E0BFE10E94C85662
:101260000E94B950E2E1F4EB0E9425560E94C15061
:10127000E8E2F2E0A0E0BFE10E94F4530E94B9501E
:10128000EAE2F4EB0E9425560E94C150E0E3F2E04E
:10129000A0E0BFE10E94B8560E94B9500E94C85019
:1012A000A5E2B2E08C918F5F8C9310F40C94CB0884
:1012B000A4E2B2E08C918F5F8C9310F40C94B1088F
:1012C000EEE2F4EB0E9425560E94C1500E94C850E5
:1012D00081E08093240200912402043018F011F080
:1012E0000C944B0AEEE1F4EB0E9425560E94C1508B
:1012F000E4E2F2E0A0E0BFE10E94C8560E94B950CB
:101300000E94C85081E0809325020091250200319F
:1013100018F011F00C94430AEAE3F4EB0E9425560E
:101320000E94C150E5E2F2E0A0E0BFE10E94C85691
:101330000E94B9500E94C850A4E2B2E00D9111275A
:1013400001501040A0E3B2E00D931C93A0E3B2E083
:101350000D911C9140E250E00E948955A0E3B2E05B
:101360000D931C93A5E2B2E00D911127015010409E
:10137000A2E3B2E00D931C93A2E3B2E00D911C91A5
:1013800048E050E00E948955A2E3B2E00D931C931F
:10139000A0E3B2E00D911C91A2E3B2E04D915C910B
:1013A000040F151FA0E3B2E00D931C9381E080931E
:1013B000270200912702083018F011F00C943B0A24
:1013C0000091300240912702040FA8E8B3E00C938B
:1013D000E8E8F3E0A190BB24EBE0F1E0EA0DFB1DAF
:1013E000A8E8B3E0AD90BB24A2E9B4E0AA0DBB1D10
:1013F0000E94B457ABECB7E00C9100FB16F00C94D4
:10140000330AE4E4F4EB0E9425560E94C150E7E25F
:10141000F2E0A0E0BFE10E94C8560E94B950E2E1AC
:10142000F4EB0E9425560E94C150D201E8E8F3E097
:10143000A190BB24E2E9F4E0EA0DFB1D0E945557A0
:10144000D2010E94BB50EAE4F4EB0E9425560E94B0
:10145000C150E8E8F3E0A0E0BFE10E94C8560E9456
:10146000B9500E94C850A7E2B2E08C918F5F8C9374
:1014700010F40C94D909A5E2B2E08C918F5F8C93A3
:1014800010F40C948509A4E2B2E08C918F5F8C93E8
:1014900010F40C946B09EAE0F1E0AFE8B4E00E94CC
:1014A000B657EEE4F4EB0E9425560E94C150EFE8D7
:1014B000F4E0A0E0BFE10E94B8560E94B9500E943B
:1014C000C850E1E7F3E0AAE8B8E00E94B657ECE5BF
:1014D000F4EB0E9425560E94C150EAE8F8E0A0E033
:1014E000BFE10E94B8560E94B9500E94C8500E94A5
:1014F000F415ECE6F4EB0E9425560E94C150A6E5D7
:10150000B3E00E94BB50E4E7F4EB0E9425560E9432
:10151000C1500E94C85083E680939406E5E0F0E055
:10152000A9E8B3E00E94B457E6E7F4EB0E94255621
:101530000E94C150E9E8F3E0A0E0BFE10E94C85674
:101540000E94B9500E94C85000918903003018F0E1
:1015500011F00C94AD0A0C94C40A00918903053073
:1015600010F00C94B70A0E94D40C0C94C20A80E0CC
:1015700080938903E4E8F4EB0E9425560E94C15051
:101580000E94C8500C94CC0AE4E9F4EB0E94255662
:101590000E94C1500E94C85081E0809320020091B7
:1015A0002002043018F011F00C94620BE0E2F2E03B
:1015B000A190BB24E8E0F3E0AA0CBB1CAA0CBB1C66
:1015C000EA0DFB1DA0E2B2E0AD90BB24A0EEB6E0B8
:1015D000AA0CBB1CAA0CBB1CAA0DBB1D94E00E944C
:1015E000B757E0E2F2E0A190BB24E8E1F3E0AA0CF7
:1015F000BB1CAA0CBB1CEA0DFB1DA0E2B2E0AD9027
:10160000BB24A0EFB6E0AA0CBB1CAA0CBB1CAA0D05
:10161000BB1D94E00E94B757E8EAF4EB0E94255600
:101620000E94C150E0E2F2E0A0E0BFE10E94C85693
:101630000E94B950E2E1F4EB0E9425560E94C1508D
:10164000E0E2F2E0A190BB24E0EEF6E0AA0CBB1CC5
:10165000AA0CBB1CEA0DFB1DA0E0BFE10E94BB561B
:101660000E94B950ECEAF4EB0E9425560E94C1504A
:10167000E0E2F2E0A0E0BFE10E94C8560E94B9504B
:10168000E2E1F4EB0E9425560E94C150E0E2F2E054
:10169000A190BB24E0EFF6E0AA0CBB1CAA0CBB1C7B
:1016A000EA0DFB1DA0E0BFE10E94BB560E94B950AD
:1016B0000E94C850A0E2B2E08C918F5F8C9310F42E
:1016C0000C94CF0AEAE3F3E0ACECB7E00E94B65723
:1016D000ACECB7E00E946B50E2EBF4EB0E942556B5
:1016E0000E94C150ECECF7E0A0E0BFE10E94B856C8
:1016F0000E94B9500E94C850EAE3F3E0ACECB7E0B6
:101700007BE70E949A57EEE3F3E0A3EDB7E00E9477
:10171000B457ECEBF4EB0E9425560E94C150D20165
:10172000E3EDF7E00E945557D2010E94BB500E94A2
:10173000C85081E08093200200912002043018F00C
:1017400011F00C94780CE0E2F2E00191112747E0EF
:1017500050E00E948955E9E4F3E0E00FF11FA0E2B8
:10176000B2E00D91112747E050E00E948955AFED9E
:10177000B7E0A00FB11F96E00E94BE57EEEDF4EB6C
:101780000E9425560E94C150E0E2F2E0A0E0BFE1D5
:101790000E94C8560E94B950E2E1F4EB0E9425561F
:1017A0000E94C150A0E2B2E00D91112747E050E045
:1017B0000E948955AFEDB7E0A00FB11F0E94BB504A
:1017C0000E94C850E0E2F2E0A190BB24EDE3F3E018
:1017D000AA0CBB1CEA0DFB1DA0E2B2E0AD90BB243D
:1017E000A3EDB7E0AA0CBB1CAA0DBB1D0E94B65707
:1017F000E6EEF4EB0E9425560E94C150E0E2F2E0D2
:10180000A0E0BFE10E94C8560E94B950E2E1F4EBAB
:101810000E9425560E94C150E0E2F2E0A190BB2454
:10182000E3EDF7E0AA0CBB1CEA0DFB1DA0E0BFE155
:101830000E94B8560E94B950E2EFF4EB0E94255680
:101840000E94C1500E94C850E0E2F2E0A190BB2487
:10185000E5E4F3E0AA0CBB1CEA0DFB1DA0E2B2E03C
:10186000AD90BB24ABEDB7E0AA0CBB1CAA0DBB1D11
:101870000E94B657EAEFF4EB0E9425560E94C15031
:10188000E0E2F2E0A0E0BFE10E94C8560E94B95039
:10189000E2E1F4EB0E9425560E94C150E0E2F2E042
:1018A000A190BB24EBEDF7E0AA0CBB1CEA0DFB1DDD
:1018B000A0E0BFE10E94B8560E94B950E2EFF4EBFD
:1018C0000E9425560E94C1500E94C85085E0A0E2A7
:1018D000B2E0AD90BB24A6E0B8E0AA0DBB1D8C938E
:1018E000A0E2B2E08C918F5F8C9310F40C949C0B6F
:1018F000EFE4F3E0A5EEB7E00E94B457E6E0F5EBC5
:101900000E9425560E94C150D201E5EEF7E00E94E8
:101910005557D2010E94BB500E94C850ECE6F3E03C
:10192000ABE0B8E00E94B457EEE0F5EB0E9425561C
:101930000E94C150D201EBE0F8E00E945557D2015D
:101940000E94BB500E94C850EDE6F3E0AFE7B8E05C
:101950000E94B657E6E1F5EB0E9425560E94C15061
:10196000EFE7F8E0A0E0BFE10E94B8560E94B9504E
:101970000E94C850EFE6F3E0A1E8B8E00E94B65735
:10198000E2E2F5EB0E9425560E94C150E1E8F8E042
:10199000A0E0BFE10E94B8560E94B9500E94C85012
:1019A00083E680937E0808958091890380932402C2
:1019B000EEE1F4EB0E9425560E94C150E4E2F2E011
:1019C000A0E0BFE10E94C8560E94B9500E94C850D2
:1019D000A4E2B2E0AD90BB24A9E8B3E0AA0DBB1D20
:1019E0008C9180938E03EEE2F5EB0E9425560E94C7
:1019F000C150D201EEE8F3E00E945557D2010E9497
:101A0000BB500E94C85081E08093250200912502BE
:101A1000003118F011F00C94910DA4E2B2E00D9198
:101A2000112701501040A0E3B2E00D931C93A0E3F6
:101A3000B2E00D911C9140E150E00E948955A0E375
:101A4000B2E00D931C93A0E3B2E00D911C91A5E2CE
:101A5000B2E04D915527040F151FA0E3B2E00D939E
:101A60001C93A0E3B2E0AD90BD90ABE8B3E0AA0C4C
:101A7000BB1CAA0CBB1CAA0DBB1D0D911D912D9169
:101A80003C91A8E2B2E00D931D932D933C93A8E204
:101A9000B2E00D911D912D913C91A5E2B2E0AD9087
:101AA000BB24A1E9B6E0AA0CBB1CAA0CBB1CAA0D66
:101AB000BB1D0D931D932D933C93ECE3F5EB0E941E
:101AC00025560E94C150E5E2F2E0A0E0BFE10E948D
:101AD000C8560E94B950E2E1F4EB0E9425560E94DC
:101AE000C150E8E2F2E0A0E0BFE10E94F4530E949E
:101AF000B950EAE2F4EB0E9425560E94C150E0E39F
:101B0000F2E0A0E0BFE10E94B8560E94B9500E94E6
:101B1000C850A5E2B2E08C918F5F8C9310F40C94C6
:101B2000060D089582E00E94815582E00E94815551
:101B300081E00E948155AA85BB850D911127015036
:101B40001040AC81BD810D931C93AC81BD810D9182
:101B50001C9140E250E00E948955AC81BD810D93FB
:101B60001C93A885B9850D91112701501040AA81B9
:101B7000BB810D931C93AA81BB810D911C9148E000
:101B800050E00E948955AA81BB810D931C93AC81C2
:101B9000BD810D911C91AA81BB814D915C91040F77
:101BA000151FAC81BD810D931C93AC81BD810D913E
:101BB0001C91AE81BF814D915527040F151FAC813B
:101BC000BD810D931C93AC81BD810D911C910F5F64
:101BD0001F4FAC81BD810D931C93AC81BD81AD9035
:101BE000BD90A2E9B4E0AA0DBB1D8C91A881B9817A
:101BF0008C93A881B9810C91003011F00C94040EE3
:101C0000469847980C94060E469A479AEAE4F5EBF4
:101C10000E9425560E94C150EE81FF81A0E0BFE1E5
:101C20000E94C8560E94B950E2E1F4EB0E9425568A
:101C30000E94C150D201E881F9810E945557D2011A
:101C40000E94BB50ECECF3EB0E9425560E94C15061
:101C5000EC81FD81A0E0BFE10E94B8560E94B9501E
:101C60000E94C850A881B9818C9180FBA8E2B0E0A5
:101C70008C9180F98C93A881B9818C9181FBA8E229
:101C8000B0E08C9181F98C93A881B9818C9182FB11
:101C9000A8E2B0E08C9182F98C93A881B9818C91F3
:101CA00083FBA8E2B0E08C9183F98C93A881B98181
:101CB0008C9184FBA8E2B0E08C9184F98C93A8818C
:101CC000B9818C9185FBA8E2B0E08C9185F98C9369
:101CD00085E0481A80E0580A269608954098419871
:101CE00042984398449845980895409A419A429A58
:101CF000439A449A459A08950E947752E8E0F2E0A8
:101D0000A0E2B3E00E947757A0E2B3E00E94B25095
:101D1000EEE4F5EB0E9425560E94B6550E947752DC
:101D2000E1E1F2E0A0E2B3E00E94B2500E947757F6
:101D3000A0E2B3E00E94B250EEE4F5EB0E9425561B
:101D40000E94B65581E080931F0281E080931E02BD
:101D5000882780931D02A0E2B3E00E94ED50A0E22C
:101D6000B3E0E0E5F5EB0E9425560E94B655E5E0AC
:101D7000F8E0A0E2B3E00E94B2500E94C8560027EB
:101D80004427A0E2B0E08C9181FB00F9A5EEB7E01A
:101D90008C9181FB40F9042700FBA8E3B2E08C9111
:101DA00087F98C93A0E2B3E00E94B250E4E5F5EB32
:101DB0000E9425560E94B655A8E3B2E08C9187FB9D
:101DC000A0E2B3E00E94B2500E9416568D9388277D
:101DD0008C9300274427A0E2B0E08C9180FB00F9AF
:101DE000A5EEB7E08C9180FB40F9042700FBA8E347
:101DF000B2E08C9187F98C93A0E2B3E00E94B250DC
:101E0000EAE5F5EB0E9425560E94B655A8E3B2E03C
:101E10008C9187FBA0E2B3E00E94B2500E9416565C
:101E20008D9388278C93A0E2B3E00E94B250E0E645
:101E3000F5EB0E9425560E94B65583E080931F0261
:101E400081E080931E02882780931D02A0E2B3E008
:101E50000E94ED50A0E2B3E0E4E6F5EB0E942556C7
:101E60000E94B655E0E6F7E0A0E2B3E00E94B2506F
:101E70000E947757A0E2B3E00E94B250E8E6F5EB8B
:101E80000E9425560E94B655E5E5F7E0A0E2B3E0D2
:101E90000E94B2500E947757A0E2B3E00E94B25075
:101EA000E0E6F5EB0E9425560E94B65585E080934A
:101EB0001F0281E080931E02882780931D02A0E20A
:101EC000B3E00E94ED50AAE3B2E08C918F5F8C9357
:101ED000AAE3B2E00C9100FB16F00C949110A9E378
:101EE000B2E08C918F5F8C93A0E2B3E088278C9353
:101EF000A9E3B2E00C9141E10E94CB578C93009191
:101F00003902003011F00C944210A0E2B3E0ECE68C
:101F1000F5EB0E9425560E94B655E9E8F3E0A0E2F1
:101F2000B3E00E94B2500E94C856A0E2B3E00E9403
:101F3000B250EEE6F5EB0E9425560E94B655AEE88B
:101F4000B3E08C9180FBA0E2B3E00E94B2500E940B
:101F500016568D9388278C93A0E2B3E00E94B2506E
:101F6000E2E7F5EB0E9425560E94B655AEE8B3E0D5
:101F70008C9181FBA0E2B3E00E94B2500E94165601
:101F80008D9388278C93A0E2B3E00E94B250E2E7E1
:101F9000F5EB0E9425560E94B655AEE8B3E08C9151
:101FA00082FBA0E2B3E00E94B2500E9416568D93CD
:101FB00088278C93A0E2B3E00E94B250E4E7F5EBEF
:101FC0000E9425560E94B655AEE8B3E08C9183FB83
:101FD000A0E2B3E00E94B2500E9416568D9388276B
:101FE0008C93A0E2B3E00E94B250E6E7F5EB0E94CA
:101FF00025560E94B655AEE8B3E08C9184FBA0E272
:10200000B3E00E94B2500E9416568D9388278C939D
:10201000A0E2B3E00E94B250E8E7F5EB0E9425563B
:102020000E94B655AEE8B3E08C9185FBA0E2B3E028
:102030000E94B2500E9416568D9388278C93A0E27E
:10204000B3E00E94B250EAE7F5EB0E9425560E94E9
:10205000B655AEE8B3E08C9186FBA0E2B3E00E94F7
:10206000B2500E9416568D9388278C93A0E2B3E05D
:102070000E94B250EEE4F5EB0E9425560E94B65540
:102080000C948410A9E3B2E0AD90BB24A1E9B6E0C2
:10209000AA0CBB1CAA0CBB1CAA0DBB1D0D911D914B
:1020A0002D913C91A8E2B2E00D931D932D933C93AA
:1020B000A0E2B3E0ECE7F5EB0E9425560E94B6558E
:1020C000E9E3F2E0A0E2B3E00E94B2500E94C856F9
:1020D000A0E2B3E00E94B250E2E1F4EB0E94255688
:1020E0000E94B655E8E2F2E0A0E2B3E00E94B250EE
:1020F0000E94F453A0E2B3E00E94B250E0E8F5EB96
:102100000E9425560E94B65587E080931F0281E009
:1021100080931E02882780931D02A0E2B3E00E94F4
:10212000ED500895E5E0F0E0A0E1BB2781E08C935D
:102130007BE70E949857EAE0F1E00CE310E0A0E1B1
:10214000BB277BE70E949A57E1E7F3E004E813E03E
:10215000A0E1BB277BE70E949A5780E08093210291
:1021600081E08093200200912002043018F011F0E9
:102170000C945E11E0E2F2E0A190BB24E5E0F0E017
:10218000EA0DFB1DA0E1BB278FE78C937BE70E9444
:102190009857A0E2B3E0E6E8F5EB0E9425560E94CE
:1021A000B655E0E2F3E00E948F53A8E2B2E00D934F
:1021B0001D932D933D93E0E9F5EB0E9425560E9477
:1021C000C150E0E2F2E0A0E0BFE10E94C8560E94E8
:1021D000B950E6E9F5EB0E9425560E94C150E8E2AD
:1021E000F2E0A0E0BFE10E94BB560E94B9500E94FD
:1021F000C85081E08093220200912202003118F041
:1022000011F00C945611A1E2B2E08C918F5F8C9387
:10221000A8E2B2E00D911D912D913C91A1E2B2E0B6
:10222000AD90BB24ABE8B3E0AA0CBB1CAA0CBB1C52
:10223000AA0DBB1D0D931D932D933C93ECE7F5EB7D
:102240000E9425560E94C150E1E2F2E0A0E0BFE109
:102250000E94C8560E94B950E2E1F4EB0E94255654
:102260000E94C150E8E2F2E0A0E0BFE10E94F45316
:102270000E94B9500E94C850A8E2B2E00D911D9191
:102280002D913C9140E15EE060E070E00E949B5641
:10229000A8E2B2E00D931D932D933D93A2E2B2E02C
:1022A0008C918F5F8C9310F40C94FC10A0E2B2E040
:1022B0008C918F5F8C9310F40C94B31081E0809319
:1022C000250200912502003418F011F00C948C11B5
:1022D000E5E2F2E0A190BB24E6E0F0E0AA0CBB1C32
:1022E000AA0CBB1CEA0DFB1DA5E2B2E0AD90BB241D
:1022F000ABE8B3E0AA0CBB1CAA0CBB1CAA0DBB1D0F
:1023000094E07BE70E949B57A5E2B2E08C918F5F3F
:102310008C9310F40C94611181E08093240200915D
:102320002402043018F011F00C947A12EEE1F4EB70
:102330000E9425560E94C150E4E2F2E0A0E0BFE115
:102340000E94C8560E94B9500E94C85081E08093F4
:10235000250200912502003118F011F00C94721240
:10236000EAE3F4EB0E9425560E94C150E5E2F2E058
:10237000A0E0BFE10E94C8560E94B9500E94C85018
:10238000A4E2B2E00D91112701501040A0E3B2E0A9
:102390000D931C93A0E3B2E00D911C9140E250E03C
:1023A0000E948955A0E3B2E00D931C93A5E2B2E030
:1023B0000D91112701501040A2E3B2E00D931C9340
:1023C000A2E3B2E00D911C9148E050E00E948955D3
:1023D000A2E3B2E00D931C93A0E3B2E00D911C9137
:1023E000A2E3B2E04D915C91040F151FA0E3B2E0AF
:1023F0000D931C9381E080932702009127020830FF
:1024000018F011F00C946A120091300240912702EA
:10241000040FA8E8B3E00C93E4E8F1E80E94255625
:10242000A7E2B2E08C919927A0E2B2E00E94D855D1
:1024300080912002A8E8B3E0AD90BB24A2E9B4E00B
:10244000AA0DBB1D8C93E8E8F3E0A190BB24EBE060
:10245000F1E0EA0DFB1DA0E2B2E07BE70E94985795
:10246000E4E4F4EB0E9425560E94C150E7E2F2E05A
:10247000A0E0BFE10E94C8560E94B950E2E1F4EB2F
:102480000E9425560E94C150D201E8E8F3E0A190D5
:10249000BB24E2E9F4E0EA0DFB1D0E945557D2018E
:1024A0000E94BB50EAE4F4EB0E9425560E94C15002
:1024B000E8E8F3E0A0E0BFE10E94C8560E94B950EE
:1024C0000E94C850A7E2B2E08C918F5F8C9310F409
:1024D0000C94FD11A5E2B2E08C918F5F8C9310F407
:1024E0000C94A911A4E2B2E08C918F5F8C9310F44C
:1024F0000C948F11E9E3F3E0A0E1BB2780E08C931B
:102500007BE70E94985780E08093200281E08093CF
:10251000240200912402043018F011F00C94FD12F2
:102520000CE211E020E030E0A4E2B2E0AD90BB2488
:10253000A0EEB6E0AA0CBB1CAA0CBB1CAA0DBB1DCE
:102540000D931D932D933C93E4E2F2E0A190BB2404
:10255000E8E0F3E0AA0CBB1CAA0CBB1CEA0DFB1DB7
:10256000A4E2B2E0AD90BB24A0EEB6E0AA0CBB1C86
:10257000AA0CBB1CAA0DBB1D94E07BE70E949B57D5
:10258000A0E2B2E08C91A4E2B2E0AD90BB24A0EF57
:10259000B6E0AA0CBB1CAA0CBB1CAA0DBB1D8D93DC
:1025A00088278D938D938C93E4E2F2E0A190BB2475
:1025B000E8E1F3E0AA0CBB1CAA0CBB1CEA0DFB1D56
:1025C000A4E2B2E0AD90BB24A0EFB6E0AA0CBB1C25
:1025D000AA0CBB1CAA0DBB1D94E07BE70E949B5775
:1025E000A0E2B2E08C91845C8C93A4E2B2E08C9186
:1025F0008F5F8C9310F40C94891281E080932402F5
:1026000000912402043018F011F00C945213A0E24F
:10261000B3E0EEE9F5EB0E9425560E94B655E4E2E0
:10262000F2E0A0E2B3E00E94B2500E94C856E4E299
:10263000F2E00191112747E050E00E948955E9E45A
:10264000F3E0E00FF11FA0E2B3E07BE70E94A9579F
:10265000E4E2F2E0A190BB24EDE3F3E0AA0CBB1CA2
:10266000EA0DFB1D0AE010E0A0E1BB277BE70E941A
:102670009A57E4E2F2E0A190BB24E5E4F3E0AA0C6F
:10268000BB1CEA0DFB1D0AE010E0A0E1BB277BE7C5
:102690000E949A57A4E2B2E08C918F5F8C9310F461
:1026A0000C940013EFE4F3E0A0E1BB278FE08C93E0
:1026B0007BE70E949857ECE6F3E0A0E1BB278FE0B0
:1026C0008C937BE70E949857EDE6F3E00CE310E073
:1026D000A0E1BB277BE70E949A57EFE6F3E008E012
:1026E00017E0A0E1BB277BE70E949A57E4E3F3E001
:1026F00000E11EE020E030E0A0E1BB2794E07BE7B2
:102700000E949B57E8E3F3E0A0E1BB278CE38C93A6
:102710007BE70E9498570895E5E0F0E0A0E1BB2731
:1027200081E08C937BE70E949857EFE4F3E0A0E10F
:10273000BB278DE08C937BE70E949857EAE0F1E09D
:102740000CE310E0A0E1BB277BE70E949A57E1E78A
:10275000F3E004E813E0A0E1BB277BE70E949A576F
:10276000A0E2B3E0E2EAF5EB0E9425560E94B655DE
:10277000E0E2F3E00E948F53A8E2B2E00D931D93D4
:102780002D933D93EAE0F0E0A8E2B2E094E07BE72D
:102790000E949B57A0E2B3E0ECEAF5EB0E942556BD
:1027A0000E94B655E0E2F3E00E948F53A8E2B2E047
:1027B0000D931D932D933D93EEE0F0E0A8E2B2E07F
:1027C00094E07BE70E949B57A0E2B3E0E6EBF5EBD9
:1027D0000E9425560E94B655E0E2F3E00E948F5316
:1027E000A8E2B2E00D931D932D933D93E2E1F0E05A
:1027F000A8E2B2E094E07BE70E949B57A0E2B3E03E
:10280000E0ECF5EB0E9425560E94B655E0E2F3E0BD
:102810000E948F53A8E2B2E00D931D932D933D9338
:10282000E6E1F0E0A8E2B2E094E07BE70E949B578B
:10283000A0E2B3E0EAECF5EB0E9425560E94B65503
:10284000E0E2F3E00E948F53A8E2B2E00D931D9303
:102850002D933D93EAE1F0E0A8E2B2E094E07BE75B
:102860000E949B57A0E2B3E0E4EDF5EB0E942556F1
:102870000E94B655E0E2F3E00E948F53A8E2B2E076
:102880000D931D932D933D93EEE1F0E0A8E2B2E0AD
:1028900094E07BE70E949B57A0E2B3E0EEEDF5EBFE
:1028A0000E9425560E94B655E0E2F3E00E948F5345
:1028B000A8E2B2E00D931D932D933D93E2E2F0E088
:1028C000A8E2B2E094E07BE70E949B57A0E2B3E06D
:1028D000E2EAF5EB0E9425560E94B655E0E2F3E0ED
:1028E0000E948F53A8E2B2E00D931D932D933D9368
:1028F000E6E2F0E0A8E2B2E094E07BE70E949B57BA
:10290000EAE2F0E0A8E2B2E094E07BE70E949B57A5
:10291000EEE2F0E0A8E2B2E094E07BE70E949B5791
:10292000E2E3F0E0A8E2B2E094E07BE70E949B578C
:10293000E6E3F0E0A8E2B2E094E07BE70E949B5778
:10294000EAE3F0E0A8E2B2E094E07BE70E949B5764
:10295000EEE3F0E0A8E2B2E094E07BE70E949B5750
:10296000E2E4F0E0A8E2B2E094E07BE70E949B574B
:10297000E6E4F0E0A8E2B2E094E07BE70E949B5737
:1029800081E08093240281E080932502009125025A
:10299000003118F011F00C948F15EAE3F4EB0E946B
:1029A00025560E94C150E5E2F2E0A0E0BFE10E949E
:1029B000C8560E94B9500E94C850A4E2B2E00D91DE
:1029C000112701501040A0E3B2E00D931C93A0E347
:1029D000B2E00D911C9140E250E00E948955A0E3C5
:1029E000B2E00D931C93A5E2B2E00D9111270150C6
:1029F0001040A2E3B2E00D931C93A2E3B2E00D916C
:102A00001C9148E050E00E948955A2E3B2E00D938A
:102A10001C93A0E3B2E00D911C91A2E3B2E04D91B2
:102A20005C91040F151FA0E3B2E00D931C9381E0AD
:102A30008093270200912702083018F011F00C94BF
:102A400087150091300240912702040FA8E8B3E0F7
:102A50000C93EEE8F1E80E942556A7E2B2E08C91D3
:102A60009927A0E2B2E00E94D85580912002A8E800
:102A7000B3E0AD90BB24A2E9B4E0AA0DBB1D8C93DA
:102A8000E8E8F3E0A190BB24EBE0F1E0EA0DFB1DE8
:102A9000A0E2B2E07BE70E949857E4E4F4EB0E94E6
:102AA00025560E94C150E7E2F2E0A0E0BFE10E949B
:102AB000C8560E94B950E2E1F4EB0E9425560E94EC
:102AC000C150D201E8E8F3E0A190BB24E2E9F4E0D0
:102AD000EA0DFB1D0E945557D2010E94BB50EAE44B
:102AE000F4EB0E9425560E94C150E8E8F3E0A0E014
:102AF000BFE10E94C8560E94B9500E94C850A7E288
:102B0000B2E08C918F5F8C9310F40C941A15A5E2AF
:102B1000B2E08C918F5F8C9310F40C94C6140895DE
:102B2000E8EEF5EB0E9425560E94C1500E94C85065
:102B3000E0E0F0E0A5E5B3E00E94B45780E08093C8
:102B40002102A7E8B8E08C9183FB16F00C94BB152A
:102B500070918708777F70938708E2E0F6EB0E9418
:102B600025560E94C150A6E0BBE00E94BB500E94C7
:102B7000C8500E94891600919E07013011F00C94F4
:102B8000E51570919E077E7F70939E07A0E2B2E0EC
:102B90008C918F5F8C93A1E2B2E08C918F5F8C93CC
:102BA000A0E2B2E00C914AE00E94CB578C930091D6
:102BB0002002003011F00C94E515E8E0F6EB0E94DD
:102BC00025560E94C1500E94C85000915503013003
:102BD00011F00C94A115EAE2F6EB0E9425560E9432
:102BE000C1500E94C850089580E08093200280E088
:102BF00080932102A6E5B3E088278C938EE0809332
:102C0000200200912002073118F011F00C941F16D9
:102C1000A0E2B2E0EC91FF270E947055082FE0E19E
:102C2000F0E0A6E5B3E00E94B2500E943C57A0E25B
:102C3000B2E08C918F5F8C9310F40C940116E6E552
:102C4000F3E0A5E4B2E00E947757A6E5B3E0882759
:102C50008C938EE08093200200912002073118F0BF
:102C600011F00C944A16A0E2B2E0EC91FF270E940A
:102C70007055082FE0E1F0E0A6E5B3E00E94B25005
:102C80000E943C57A0E2B2E08C918F5F8C9310F4CD
:102C90000C942C16E5E4F2E0A6E5B3E00E94E357BD
:102CA00011F00C94561681E080932002A1E2B2E06C
:102CB0008C918F5F8C9300912002003011F00C9466
:102CC000751684EF91E00E947B51EEE3F6EB0E94D3
:102CD00025560E94C150E1E2F2E0A0E0BFE10E946F
:102CE000C8560E94B9500E94C8500091200201307D
:102CF00081E009F080E08F93009121020A3081E0A9
:102D000009F080E09F91892B882311F40C94FA1527
:102D10000895E4E4F6EB0E9425560E94C150A6E017
:102D2000BBE00E94BB500E94C85081E0E6E0FBE09F
:102D300006E00A93A0E2B3E00E948257E6E0FBE0DF
:102D40009CE204E138E0A8EAB9E00E941558A7EA3D
:102D5000B9E02C93A8EAB9E00E94DB57082F0630AF
:102D600011F00C94C72EE8EAF9E0AEE3B2E00E945D
:102D70007757EEE3F2E0AEE3B2E00E94FA558FEF50
:102D800080930E03AEE3B2E0E6E4F6EB0E94255634
:102D90000E94E15711F00C940E1780E080930E030F
:102DA000A5E4B2E0EEE4F6EB0E9425560E94B6558B
:102DB000A0E2B3E0EEE8F3EB0E9425560E94B65580
:102DC000E0E2F3E0A5E4B2E00E94B2500E9477573F
:102DD000A5E4B2E00E94B250E2E6F6EB0E9425566E
:102DE0000E94B655A0E2B3E0EAEAF3EB0E94255652
:102DF0000E94B655E0E2F3E0A5E4B2E00E94B250D2
:102E00000E947757A5E4B2E00E94B250E4E7F4EBE9
:102E10000E9425560E94B6550C94C52EE0E7F6EBAD
:102E20000E9425560E94E15711F00C94351780E05E
:102E300080930E03A5E4B2E0E8E7F6EB0E94255686
:102E40000E94B6557091380274607093380281E028
:102E500080935503E0E0F0E0A5E5B3E07BE70E9456
:102E600098570E9492100C94C52EE6EAF6EB0E9449
:102E700025560E94E15711F00C94501780E0809382
:102E80000E03A5E4B2E0EEEAF6EB0E9425560E949E
:102E9000B655709138027061709338020C94C52E4B
:102EA000E2ECF6EB0E9425560E94E15711F00C94DB
:102EB0006D1780E080930E03A5E4B2E0EAECF6EB38
:102EC0000E9425560E94B655709138027460709326
:102ED00038020E948C130C94C52EE4EEF6EB0E948F
:102EE00025560E94E15711F00C94C9170091A709CB
:102EF000023011F00C94C417ADEBB9E00E940D57ED
:102F0000A0E2B2E00C9300912002003080E010F0CB
:102F100009F081E08F9300912002013181E008F0F7
:102F200080E09F918923882311F40C94BF1780E0DF
:102F300080930E037091E00670627093E0068091BA
:102F400020028093E106A5E4B2E0ECEEF6EB0E94ED
:102F500025560E94B655E0E2F2E0A5E4B2E00E94F8
:102F6000B2500E94C856A5E4B2E00E94B250E2E11D
:102F7000F7EB0E9425560E94B6550C94C21785E0C7
:102F800080930E030C94C71784E080930E030C9477
:102F9000C52EE0E2F7EB0E9425560E94E15711F0A2
:102FA0000C94F31780E080930E030E94F415A5E4BF
:102FB000B2E0E8E2F7EB0E9425560E94B655E6E53E
:102FC000F3E0A5E4B2E00E94B2500E947757A5E476
:102FD000B2E00E94B250E4E7F4EB0E9425560E9452
:102FE000B6550C94C52EE2E3F7EB0E9425560E94DD
:102FF000E15711F00C9432180091A709023011F03A
:103000000C942D18ADEBB9E00E940D57A0E2B2E090
:103010000C9300912002013110F00C94281880E0EC
:1030200080930E03A5E4B2E0EAE3F7EB0E94255695
:103030000E94B655E0E2F2E0A5E4B2E00E94B25090
:103040000E94C8568091200280939D070C942B18F3
:1030500085E080930E030C94301884E080930E0377
:103060000C94C52EE2E5F7EB0E9425560E94E1572D
:1030700011F00C9441190091A709023011F00C9441
:103080003C19ADEBB9E00E94DB57082F0C3011F072
:103090000C94371980E080930E0387E0EDEBF9E0A4
:1030A00002E00A93A0E2B3E00E948257A0E2B3E0FC
:1030B0000E94B250EAE5F7EB0E9425560E94B655F1
:1030C00089E0EDEBF9E002E00A93A0E2B3E00E94B0
:1030D000B2500E948257A0E2B3E00E94B250EAE5EB
:1030E000F7EB0E9425560E94B6558BE0EDEBF9E018
:1030F00002E00A93A0E2B3E00E94B2500E9482571D
:10310000A0E2B3E00E94BB500E94C850E0E2F3E0AE
:10311000A1E1B2E00E9477570E948A52ECE5F7EBFA
:103120000E9425560E94C1500E947752A1E1B2E050
:103130000E94BB500E94C85081E0EDEBF9E002E034
:103140000A93A0E2B3E00E948257A0E2B3E00E949B
:10315000B250E0E6F7EB0E9425560E94B65583E098
:10316000EDEBF9E002E00A93A0E2B3E00E94B25076
:103170000E948257A0E2B3E00E94B250E0E6F7EB73
:103180000E9425560E94B65585E0EDEBF9E002E07D
:103190000A93A0E2B3E00E94B2500E948257A0E2DC
:1031A000B3E00E94BB500E94C850E0E2F3E0A8E008
:1031B000B2E00E9477570E948252E2E6F7EB0E944B
:1031C00025560E94C1500E947752A8E0B2E00E94AA
:1031D000BB500E94C850A5E4B2E0E6E6F7EB0E94BF
:1031E00025560E94B6550E947752E8E0F2E0A5E429
:1031F000B2E00E94B2500E947757A5E4B2E00E946C
:10320000B250E0E9F7EB0E9425560E94B6550E94A5
:103210007752E1E1F2E0A5E4B2E00E94B2500E94F0
:103220007757E5E0F2E00E94DA52ADE6B3E08C9326
:103230000E9493300E94DD300E940C30E2E0F2E008
:103240000E94BB53A4E8B3E00D931D932D933D93CF
:10325000E1E0F0E0A4E8B3E094E07BE70E949B5754
:10326000709138027260709338020C943A1986E0BB
:1032700080930E030C943F1984E080930E030C940A
:10328000C52EE4E9F7EB0E9425560E94E15711F0A4
:103290000C94571980E080930E03A5E4B2E0ECE9AA
:1032A000F7EB0E9425560E94B6550C94C52EE4EA11
:1032B000F7EB0E9425560E94E15711F00C949719E4
:1032C00080E080930E030E947752E1E1F2E0A0E2F9
:1032D000B3E00E947757A5E4B2E0ECEAF7EB0E9476
:1032E00025560E94B655E0E2F3E0A5E4B2E00E9464
:1032F000B2500E947757A5E4B2E00E94B250EAEBC8
:10330000F7EB0E9425560E94B6550E947752E8E0DE
:10331000F2E0A0E2B3E00E947757E0E2F3E0A5E438
:10332000B2E00E94B2500E9477570C94C52EEAEC8E
:10333000F7EB0E9425560E94E15711F00C94D31927
:1033400080E080930E03E4E8F3E0A0E2B3E00E94A3
:10335000F453A5E4B2E0E2EDF7EB0E9425560E949B
:10336000B655E0E2F3E0A5E4B2E00E94B2500E945C
:103370007757A5E4B2E00E94B250E6EEF7EB0E9468
:1033800025560E94B655E4E8F3E0A0E2B3E00E94BF
:10339000FC53E0E2F3E0A5E4B2E00E94B2500E94E8
:1033A00077570C94C52EEEEEF7EB0E9425560E943F
:1033B000E15711F00C94DC1A0091A709043011F0C8
:1033C0000C94D71AADEBB9E00E940D57A1E2B2E020
:1033D0000C9300912102003080E010F009F081E0B0
:1033E0008F9300912102053081E008F080E09F91E9
:1033F0008923882311F40C94D21AA2EDB9E00E941B
:103400000D57A0E2B2E00C9300912002003080E062
:1034100010F009F081E08F9300912002013181E0EA
:1034200008F080E09F918923882311F40C94CD1A31
:1034300080E080930E03E7EEF9E0A0E2B3E00E94A3
:103440007757A1E2B2E00D91112701501040A0E39F
:10345000B2E00D931C93A0E3B2E00D911C9140E10A
:1034600050E00E948955A0E3B2E00D931C93A0E3C5
:10347000B2E00D911C91A0E2B2E04D915527040FEE
:10348000151FA0E3B2E00D931C93E6EFF7EB0E944B
:1034900025560E94C150E0E3F2E0A0E0BFE10E94A7
:1034A000B8560E94B9500E94C850E0E2F3E00E9472
:1034B0008F53A0E3B2E0AD90BD90ABE8B3E0AA0CAF
:1034C000BB1CAA0CBB1CAA0DBB1D0D931D932D93F9
:1034D0003D93E0E3F2E0A190B190E6E0F0E0AA0CC9
:1034E000BB1CAA0CBB1CEA0DFB1DA0E3B2E0AD9017
:1034F000BD90ABE8B3E0AA0CBB1CAA0CBB1CAA0D88
:10350000BB1D94E07BE70E949B57E0E3F2E0A190B3
:10351000B190EBE8F3E0AA0CBB1CAA0CBB1CEA0DB3
:10352000FB1DA0E2B3E00E94F453A5E4B2E0E0E0AA
:10353000F8EB0E9425560E94B655E0E2F2E0A5E4C1
:10354000B2E00E94B2500E94C856A5E4B2E00E94C8
:10355000B250E0E9F7EB0E9425560E94B655E0E232
:10356000F3E0A5E4B2E00E94B2500E947757A5E4D0
:10357000B2E00E94B250EEE0F8EB0E9425560E94A5
:10358000B655E1E2F2E0A5E4B2E00E94B2500E943A
:10359000C8560E94D40C0C94D01A86E080930E0377
:1035A0000C94D51A85E080930E030C94DA1A84E00B
:1035B00080930E030C94C52EE8E1F8EB0E9425568B
:1035C0000E94E15711F00C94AD1B0091A709033044
:1035D00011F00C94A81BADEBB9E00E940D57A1E2CD
:1035E000B2E00C9300912102003080E010F009F06D
:1035F00081E08F9300912102053081E008F080E0A6
:103600009F918923882311F40C94A31BA2EDB9E0A8
:103610000E940D57A0E2B2E00C930091200200300E
:1036200080E010F009F081E08F93009120020131D9
:1036300081E008F080E09F918923882311F40C94A5
:103640009E1B80E080930E03A1E2B2E00D91112752
:1036500001501040A0E3B2E00D931C93A0E3B2E050
:103660000D911C9140E150E00E948955A0E3B2E029
:103670000D931C93A0E3B2E00D911C91A0E2B2E087
:103680004D915527040F151FA0E3B2E00D931C9335
:10369000E6EFF7EB0E9425560E94C150E0E3F2E00E
:1036A000A0E0BFE10E94B8560E94B9500E94C850E5
:1036B000E0E3F2E0A190B190EBE8F3E0AA0CBB1CD0
:1036C000AA0CBB1CEA0DFB1DA0E2B3E00E94F45360
:1036D000A5E4B2E0E0E2F8EB0E9425560E94B65560
:1036E000E0E2F2E0A5E4B2E00E94B2500E94C856C7
:1036F000A5E4B2E00E94B250E8E2F8EB0E94255641
:103700000E94B655E0E2F3E0A5E4B2E00E94B250B8
:103710000E947757A5E4B2E00E94B250EEE0F8EBC9
:103720000E9425560E94B655E1E2F2E0A5E4B2E01F
:103730000E94B2500E94C8560C94A11B86E0809350
:103740000E030C94A61B85E080930E030C94AB1B18
:1037500084E080930E030C94C52EECE2F8EB0E94FB
:1037600025560E94E15711F00C94FF1B0091A70908
:10377000023011F00C94FA1BADEBB9E00E940D572A
:10378000A0E3B2E00D931C93A0E3B2E00D911C9175
:10379000003050E0150718F011F00C94D11B0C9478
:1037A000F51B80E080930E03A0E3B2E08D919C9125
:1037B000AFE8B4E08D939C93A5E4B2E0E4E3F8EBCA
:1037C0000E9425560E94B655EFE8F4E0A5E4B2E069
:1037D0000E94B2500E94B856EAE0F1E0AFE8B4E0CF
:1037E0007BE70E949A570C94F81B85E080930E03A8
:1037F0000C94FD1B84E080930E030C94C52EEAE428
:10380000F8EB0E9425560E94E15711F00C941D1C04
:1038100080E080930E03A5E4B2E0E2E5F8EB0E94BD
:1038200025560E94B655EFE8F4E0A5E4B2E00E9408
:10383000B2500E94B8560C94C52EEAE5F8EB0E94EF
:1038400025560E94E15711F00C946F1C0091A709B6
:10385000023011F00C946A1CADEBB9E00E940D57D8
:10386000A0E3B2E00D931C93A0E3B2E00D911C9194
:10387000003050E0150718F011F00C94411C0C9426
:10388000651C80E080930E03A0E3B2E08D919C91D3
:10389000AAE8B8E08D939C93A5E4B2E0E2E6F8EBE9
:1038A0000E9425560E94B655EAE8F8E0A5E4B2E089
:1038B0000E94B2500E94B856E1E7F3E0AAE8B8E0EF
:1038C0007BE70E949A570C94681C85E080930E0356
:1038D0000C946D1C84E080930E030C94C52EECE7D1
:1038E000F8EB0E9425560E94E15711F00C948D1CB4
:1038F00080E080930E03A5E4B2E0E4E8F8EB0E94D8
:1039000025560E94B655EAE8F8E0A5E4B2E00E9428
:10391000B2500E94B8560C94C52EE2E9F8EB0E9412
:1039200025560E94E15711F00C94DF1C0091A70965
:10393000023011F00C94DA1CADEBB9E00E940D5787
:10394000A0E3B2E00D931C93A0E3B2E00D911C91B3
:10395000003050E0150718F011F00C94B11C0C94D5
:10396000D51C80E080930E03A0E3B2E08D919C9182
:10397000AFE7B8E08D939C93A5E4B2E0EAE9F8EBF9
:103980000E9425560E94B655EFE7F8E0A5E4B2E0A4
:103990000E94B2500E94B856EDE6F3E0AFE7B8E0FF
:1039A0007BE70E949A570C94D81C85E080930E0305
:1039B0000C94DD1C84E080930E030C94C52EE2EB86
:1039C000F8EB0E9425560E94E15711F00C94FD1C63
:1039D00080E080930E03A5E4B2E0E6E1F5EB0E94FF
:1039E00025560E94B655EFE7F8E0A5E4B2E00E9444
:1039F000B2500E94B8560C94C52EEAEBF8EB0E9428
:103A000025560E94E15711F00C944F1D0091A70913
:103A1000023011F00C944A1DADEBB9E00E940D5735
:103A2000A0E3B2E00D931C93A0E3B2E00D911C91D2
:103A3000003050E0150718F011F00C94211D0C9483
:103A4000451D80E080930E03A0E3B2E08D919C9130
:103A5000A1E8B8E08D939C93A5E4B2E0E2ECF8EB2A
:103A60000E9425560E94B655E1E8F8E0A5E4B2E0D0
:103A70000E94B2500E94B856EFE6F3E0A1E8B8E029
:103A80007BE70E949A570C94481D85E080930E03B3
:103A90000C944D1D84E080930E030C94C52EECED28
:103AA000F8EB0E9425560E94E15711F00C946D1D11
:103AB00080E080930E03A5E4B2E0E2E2F5EB0E9421
:103AC00025560E94B655E1E8F8E0A5E4B2E00E9470
:103AD000B2500E94B8560C94C52EE4EEF8EB0E944A
:103AE00025560E94E15711F00C94A91E0091A709D8
:103AF000053011F00C94A41EADEBB9E00E940D57F7
:103B0000A1E2B2E00C9300912102003080E010F0BD
:103B100009F081E08F9300912102053081E008F0E7
:103B200080E09F918923882311F40C949F1EA2EDBD
:103B3000B9E00E940D57A2E2B2E00C93009122027C
:103B4000003080E010F009F081E08F9300912202B4
:103B5000013181E008F080E09F918923882311F4EE
:103B60000C949A1EA7EEB9E00E940D57A0E2B2E0B5
:103B70000C9300912002003080E010F009F081E009
:103B80008F9300912002093081E008F080E09F913E
:103B90008923882311F40C94951EA1E2B2E00D91C3
:103BA000112701501040A0E3B2E00D931C93A0E355
:103BB000B2E00D911C9140E250E00E948955A0E3D3
:103BC000B2E00D931C93A2E2B2E00D9111270150D7
:103BD0001040A2E3B2E00D931C93A2E3B2E00D917A
:103BE0001C9148E050E00E948955A2E3B2E00D9399
:103BF0001C93A0E3B2E00D911C91A2E3B2E04D91C1
:103C00005C91040F151FA0E3B2E00D931C93A0E399
:103C1000B2E00D911C91A0E2B2E04D915527040F46
:103C2000151FA0E3B2E00D931C93ECEEF8EB0E949D
:103C300025560E94C150E0E3F2E0A0E0BFE10E94FF
:103C4000B8560E94B9500E94C850ACEFB9E00E942B
:103C50006557A3E2B2E00C9380912302A0E3B2E0A7
:103C6000AD90BD90A2E9B4E0AA0DBB1D8C93E0E33A
:103C7000F2E0A190B190EBE0F1E0EA0DFB1DA3E2D0
:103C8000B2E07BE70E94985780E080930E03A5E4A2
:103C9000B2E0E6EFF8EB0E9425560E94B655E0E24E
:103CA000F2E0A5E4B2E00E94B2500E94C856A5E43A
:103CB000B2E00E94B250E6E0F9EB0E9425560E9465
:103CC000B655E2E2F2E0A5E4B2E00E94B2500E94F2
:103CD000C856A5E4B2E00E94B250E4E1F9EB0E94BC
:103CE00025560E94B655E1E2F2E0A5E4B2E00E945A
:103CF000B2500E94C856A5E4B2E00E94B250E2E180
:103D0000F4EB0E9425560E94B655A5E4B2E00E944D
:103D1000B250E0E3F2E0A190B190E2E9F4E0EA0D04
:103D2000FB1D0E9455570C94981E87E080930E034C
:103D30000C949D1E86E080930E030C94A21E85E0D9
:103D400080930E030C94A71E84E080930E030C94C2
:103D5000C52EEEE1F9EB0E9425560E94E15711F0C5
:103D60000C94C61F0091A709043011F00C94C11FD8
:103D7000ADEBB9E00E940D57A1E2B2E00C930091C7
:103D80002102003080E010F009F081E08F93009173
:103D90002102053081E008F080E09F91892388238B
:103DA00011F40C94BC1FA2EDB9E00E940D57A2E2E1
:103DB000B2E00C9300912202003080E010F009F094
:103DC00081E08F9300912202013181E008F080E0D0
:103DD0009F918923882311F40C94B71FA7EEB9E0B3
:103DE0000E940D57A0E2B2E00C9300912002003037
:103DF00080E010F009F081E08F93009120020930FB
:103E000081E008F080E09F918923882311F40C94CD
:103E1000B21F80E080930E03A1E2B2E00D91112762
:103E200001501040A0E3B2E00D931C93A0E3B2E078
:103E30000D911C9140E250E00E948955A0E3B2E050
:103E40000D931C93A2E2B2E00D9111270150104096
:103E5000A2E3B2E00D931C93A2E3B2E00D911C919A
:103E600048E050E00E948955A2E3B2E00D931C9314
:103E7000A0E3B2E00D911C91A2E3B2E04D915C9100
:103E8000040F151FA0E3B2E00D931C93A0E3B2E072
:103E90000D911C91A0E2B2E04D915527040F151F22
:103EA000A0E3B2E00D931C93E6E2F9EB0E942556E5
:103EB0000E94C150E0E3F2E0A0E0BFE10E94B856EA
:103EC0000E94B9500E94C850A5E4B2E0E4E4F4EBCB
:103ED0000E9425560E94B655E0E2F2E0A5E4B2E069
:103EE0000E94B2500E94C856A5E4B2E00E94B250AF
:103EF000E6E0F9EB0E9425560E94B655E2E2F2E0B8
:103F0000A5E4B2E00E94B2500E94C856A5E4B2E017
:103F10000E94B250E4E1F9EB0E9425560E94B6558A
:103F2000E1E2F2E0A5E4B2E00E94B2500E94C8567D
:103F3000A5E4B2E00E94B250E2E1F4EB0E94255603
:103F40000E94B655A5E4B2E00E94B250E0E3F2E070
:103F5000A190B190E2E9F4E0EA0DFB1D0E945557F3
:103F60000C94B51F87E080930E030C94BA1F86E073
:103F700080930E030C94BF1F85E080930E030C9476
:103F8000C41F84E080930E030C94C52EE4E3F9EB88
:103F90000E9425560E94E15711F00C9424200091B4
:103FA000A709023011F00C941F20ADEBB9E00E947C
:103FB0000D57A1E2B2E00C9300912102003080E0A5
:103FC00010F009F081E08F9300912102053081E02B
:103FD00008F080E09F918923882311F40C941A2023
:103FE00080E080930E03ADEBB9E00E940D57A9E885
:103FF000B3E00C93E5E0F0E0A9E8B3E07BE70E94D2
:104000009857A5E4B2E0ECE3F9EB0E9425560E9434
:10401000B655E9E8F3E0A5E4B2E00E94B2500E9490
:10402000C8560E94D40C7091B20772607093B207A8
:104030000C941D2085E080930E030C94222084E0D4
:1040400080930E030C94C52EEAE5F9EB0E942556E9
:104050000E94E15711F00C94472080E080930E03FA
:10406000A5E4B2E0E6E7F4EB0E9425560E94B655BF
:10407000E9E8F3E0A5E4B2E00E94B2500E94C8561D
:104080007091E00678607093E0060C94C52EE2E62D
:10409000F9EB0E9425560E94E15711F00C94CA20BA
:1040A0000091A709033011F00C94C520ADEBB9E0E5
:1040B0000E940D57A1E2B2E00C9300912102003062
:1040C00080E010F009F081E08F930091210205302B
:1040D00081E008F080E09F918923882311F40C94FB
:1040E000C02080E080930E03A2EDB9E00E946557E6
:1040F000A1E2B2E0AD90BB24A9E8B3E0AA0DBB1DDC
:104100000C93E1E2F2E0A190BB24E5E0F0E0EA0DDF
:10411000FB1DA1E2B2E0AD90BB24A9E8B3E0AA0D7B
:10412000BB1D7BE70E949857A5E4B2E0EAE6F9EBF5
:104130000E9425560E94B655E9E8F3E0A5E4B2E0F6
:104140000E94B2500E94C856A5E4B2E00E94B2504C
:10415000E0E9F7EB0E9425560E94B655A5E4B2E0CF
:104160000E94B250E1E2F2E0A190BB24E9E8F3E062
:10417000EA0DFB1D0E9455570E94D40C0C94C320DD
:1041800085E080930E030C94C82084E080930E0396
:104190000C94C52EE8E8F9EB0E9425560E94E157E1
:1041A00011F00C9424210091A709023011F00C9415
:1041B0001F2100912102003080E010F009F081E021
:1041C0008F9300912102053081E008F080E09F91FB
:1041D0008923882311F40C941A2180E080930E0324
:1041E000A5E4B2E0E0E9F9EB0E9425560E94B6553D
:1041F000E9E8F3E0A5E4B2E00E94B2500E94C8569C
:10420000A5E4B2E00E94B250E4EAF9EB0E94255620
:104210000E94B655A5E4B2E00E94B250E1E2F2E09D
:10422000A190BB24E9E8F3E0EA0DFB1D0E9455577D
:104230000C941D2185E080930E030C94222184E0D0
:1042400080930E030C94C52EE8EAF9EB0E942556E4
:104250000E94E15711F00C94CB210091A709033083
:1042600011F00C94C621ADEBB9E00E940D57A4E209
:10427000B2E00C9300912402003080E010F009F0CD
:1042800081E08F9300912402053081E008F080E006
:104290009F918923882311F40C94C121A2EDB9E0E8
:1042A0000E940D57ACE2B2E00D931D932D933D9308
:1042B000ACE2B2E00D911D912D913C91A4E2B2E0EF
:1042C000AD90BB24A0EEB6E0AA0CBB1CAA0CBB1C94
:1042D000AA0DBB1D0D931D932D933C93E4E2F2E0D8
:1042E000A190BB24E8E0F3E0AA0CBB1CAA0CBB1C09
:1042F000EA0DFB1DACE2B2E094E07BE70E949B5725
:1043000080E080930E03A5E4B2E0E0EBF9EB0E94BD
:1043100025560E94B655E4E2F2E0A5E4B2E00E9420
:10432000B2500E94C856A5E4B2E00E94B250EAE53D
:10433000F7EB0E9425560E94B655E4E2F2E0A19008
:10434000BB24E0EEF6E0AA0CBB1CAA0CBB1CEA0DD9
:10435000FB1DA5E4B2E00E94B2500E94BB56E4E20D
:10436000F2E0A190BB24E0EEF6E0AA0CBB1CAA0C84
:10437000BB1CEA0DFB1DA4E0B7E00E94BB560C94E9
:10438000C42183E080930E030C94C92184E08093C0
:104390000E030C94C52EE6ECF9EB0E9425560E9404
:1043A000E15711F00C9472220091A709033011F02B
:1043B0000C946D22ADEBB9E00E940D57A4E2B2E07F
:1043C0000C9300912402003080E010F009F081E0AD
:1043D0008F9300912402053081E008F080E09F91E6
:1043E0008923882311F40C946822A2EDB9E00E947D
:1043F0000D57ACE2B2E00D931D932D933D93ACE2CB
:10440000B2E00D911D912D913C91A4E2B2E0AD90EE
:10441000BB24A0EFB6E0AA0CBB1CAA0CBB1CAA0DC7
:10442000BB1D0D931D932D933C93E4E2F2E0A1900C
:10443000BB24E8E1F3E0AA0CBB1CAA0CBB1CEA0DF0
:10444000FB1DACE2B2E094E07BE70E949B5780E06A
:1044500080930E03A5E4B2E0E0EBF9EB0E94255651
:104460000E94B655E4E2F2E0A5E4B2E00E94B25048
:104470000E94C856A5E4B2E00E94B250EAE5F7EB0C
:104480000E9425560E94B655E4E2F2E0A190BB24BA
:10449000E0EFF6E0AA0CBB1CAA0CBB1CEA0DFB1D4E
:1044A000A5E4B2E00E94B2500E94BB56E4E2F2E002
:1044B000A190BB24E0EFF6E0AA0CBB1CAA0CBB1C2D
:1044C000EA0DFB1DA4E0B7E00E94BB560C946B22E2
:1044D00083E080930E030C94702284E080930E039B
:1044E0000C94C52EEEECF9EB0E9425560E94E15784
:1044F00011F00C9417230091A709023011F00C94CD
:104500001223ADEBB9E00E940D57A4E2B2E00C9388
:1045100000912402003080E010F009F081E08F93D8
:1045200000912402053081E008F080E09F9189230A
:10453000882311F40C940D23A5E4B2E0E6EDF9EB29
:104540000E9425560E94B655E4E2F2E0A5E4B2E0EE
:104550000E94B2500E94C856A5E4B2E00E94B25038
:10456000EAE5F7EB0E9425560E94B655E4E2F2E038
:10457000A190BB24E0EEF6E0AA0CBB1CAA0CBB1C6D
:10458000EA0DFB1DA5E4B2E00E94B2500E94BB56AA
:1045900080E080930E03E4E4F6EB0E9425560E942F
:1045A000C150E4E2F2E0A0E0BFE10E94C8560E94E0
:1045B000B950ECECF3EB0E9425560E94C150E4E2A6
:1045C000F2E0A190BB24E0EEF6E0AA0CBB1CAA0C22
:1045D000BB1CEA0DFB1DA0E0BFE10E94BB560E9480
:1045E000B9500E94C850EEEDF9EB0E9425560E948A
:1045F000C1500E94C850E4E2F2E0A190BB24E0EE7A
:10460000F6E0AA0CBB1CAA0CBB1CEA0DFB1DA4E027
:10461000B7E00E94BB560C94102383E080930E03F6
:104620000C94152384E080930E030C94C52EE2EEC7
:10463000F9EB0E9425560E94E15711F00C94BC231F
:104640000091A709023011F00C94B723ADEBB9E04B
:104650000E940D57A4E2B2E00C93009124020030B6
:1046600080E010F009F081E08F9300912402053082
:1046700081E008F080E09F918923882311F40C9455
:10468000B223A5E4B2E0EAEEF9EB0E9425560E94BF
:10469000B655E4E2F2E0A5E4B2E00E94B2500E9416
:1046A000C856A5E4B2E00E94B250EAE5F7EB0E94DA
:1046B00025560E94B655E4E2F2E0A190BB24E0EF5B
:1046C000F6E0AA0CBB1CAA0CBB1CEA0DFB1DA5E462
:1046D000B2E00E94B2500E94BB5680E080930E036D
:1046E000E4E4F6EB0E9425560E94C150E4E2F2E0B9
:1046F000A0E0BFE10E94C8560E94B950ECECF3EB79
:104700000E9425560E94C150E4E2F2E0A190BB2431
:10471000E0EFF6E0AA0CBB1CAA0CBB1CEA0DFB1DCB
:10472000A0E0BFE10E94BB560E94B9500E94C85051
:10473000EEEDF9EB0E9425560E94C1500E94C85030
:10474000E4E2F2E0A190BB24E0EFF6E0AA0CBB1C8F
:10475000AA0CBB1CEA0DFB1DA4E0B7E00E94BB56EF
:104760000C94B52383E080930E030C94BA2384E069
:1047700080930E030C94C52EE6EFF9EB0E942556AC
:104780000E94E15711F00C942F240091A7090230E8
:1047900011F00C942A24ADEBB9E00E940D57A4E26D
:1047A000B2E00C9300912402003080E010F009F098
:1047B00081E08F9300912402053081E008F080E0D1
:1047C0009F918923882311F40C94252480E0809301
:1047D0000E030091240241E0041BA0E2B2E00C931E
:1047E00080912002A2EBB7E00E9410560E9406566C
:1047F0009C91982B9C93A5E4B2E0EEEFF9EB0E941C
:1048000025560E94B655E4E2F2E0A5E4B2E00E942B
:10481000B2500E94C856A5E4B2E00E94B250ECEC3F
:10482000F3EB0E9425560E94B655A5E4B2E00E9423
:10483000B250E2EBF7E00E945557A4E0B7E0E2EB9C
:10484000F7E00E9455570C94282483E080930E03D0
:104850000C942D2484E080930E030C94C52EE2E189
:10486000FAEB0E9425560E94E15711F00C94702437
:104870000091A709023011F00C946B2480E0809322
:104880000E03ADEBB9E00E940D57ABE4B7E00D931A
:104890001D932D933D93E4E3F3E0ABE4B7E094E0A4
:1048A0007BE70E949B57A5E4B2E0EAE1FAEB0E94A5
:1048B00025560E94B655EBE4F7E0A5E4B2E00E946D
:1048C000B2500E94BB56EBE4F7E0A4E0B7E00E94D0
:1048D000BB560C946E2484E080930E030C94C52E7A
:1048E000E2E3FAEB0E9425560E94E15711F00C9486
:1048F000942480E080930E03A5E4B2E0EAE3FAEBAF
:104900000E9425560E94B655EBE4F7E0A5E4B2E01C
:104910000E94B2500E94BB56EBE4F7E0A4E0B7E07F
:104920000E94BB560C94C52EE4E4FAEB0E94255677
:104930000E94E15711F00C94AF2480E080930E03A5
:1049400070914F07706870934F07A5E4B2E0ECE4F4
:10495000FAEB0E9425560E94B6550C94C52EE4E54C
:10496000FAEB0E9425560E94E15711F00C94EC24BA
:104970000091A709023011F00C94E72480E08093A5
:104980000E03ADEBB9E00E940D57A3EBB7E00C931B
:10499000E8E3F3E0A3EBB7E07BE70E949857A5E4D8
:1049A000B2E0ECE5FAEB0E9425560E94B655E3EB27
:1049B000F7E0A5E4B2E00E94B2500E94C856E3EBD3
:1049C000F7E0A4E0B7E00E94C8560C94EA2484E023
:1049D00080930E030C94C52EEEE6FAEB0E9425564A
:1049E0000E94E15711F00C94102580E080930E0393
:1049F000A5E4B2E0E6E7FAEB0E9425560E94B65520
:104A0000E3EBF7E0A5E4B2E00E94B2500E94C85682
:104A1000E3EBF7E0A4E0B7E00E94C8560C94C52E83
:104A2000ECE7FAEB0E9425560E94E15711F00C9436
:104A30002B2580E080930E0370914F077160709377
:104A40004F07A5E4B2E0E4E8FAEB0E9425560E9485
:104A5000B6550C94C52EEEE8FAEB0E9425560E943E
:104A6000E15711F00C9462250091A709023011F072
:104A70000C945D2580E080930E03ADEBB9E00E94BD
:104A80000D57ABECB7E00C93E9E3F3E0ABECB7E028
:104A90007BE70E949857A5E4B2E0E6E9FAEB0E94B2
:104AA00025560E94B655EBECF7E0A5E4B2E00E9473
:104AB000B2500E94C8560C94602584E080930E0387
:104AC0000C94C52EECEAFAEB0E9425560E94E157A1
:104AD00011F00C94802580E080930E03A5E4B2E0F1
:104AE000E4EBF3EB0E9425560E94B655EBECF7E0A1
:104AF000A5E4B2E00E94B2500E94C8560C94C52EA4
:104B0000E4EBFAEB0E9425560E94E15711F00C9459
:104B1000C3250091A709023011F00C94BE25ADEB1E
:104B2000B9E00E940D57ACECB7E00D931C93EAE39B
:104B3000F3E0ACECB7E07BE70E949A5780E080930B
:104B40000E03A5E4B2E0ECEBFAEB0E9425560E94BE
:104B5000B655ECECF7E0A5E4B2E00E94B2500E943A
:104B6000B856ECECF7E0A4E0B7E00E94B8567091BC
:104B7000B20772607093B2070C94C12584E08093F1
:104B80000E030C94C52EECEDFAEB0E9425560E9404
:104B9000E15711F00C94FC250091A709013011F0A8
:104BA0000C94F72580E080930E03A5E4B2E0E4EED8
:104BB000FAEB0E9425560E94B655ECECF7E0A5E40E
:104BC000B2E00E94B2500E94B856A5E4B2E00E9442
:104BD000B250E4E7F4EB0E9425560E94B655ECEC87
:104BE000F7E0A4E0B7E00E94B8560C94FA2584E000
:104BF00080930E030C94C52EE8EFFAEB0E94255625
:104C00000E94E15711F00C9446260091A70902304A
:104C100011F00C944126ADEBB9E00E940D57A0E2D3
:104C2000B2E00C9300912002023010F00C943C266C
:104C300080E080930E0300912002003011F00C946C
:104C400024265F980C9425265F9AA5E4B2E0E0E064
:104C5000FBEB0E9425560E94B655ABE2B0E08C916A
:104C600087FBA5E4B2E00E94B2500E9416568D93D5
:104C700088278C930C943F2683E080930E030C943A
:104C8000442684E080930E030C94C52EEAE0FBEBEF
:104C90000E9425560E94E15711F00C94772600914E
:104CA000A709023011F00C94722680E080930E0365
:104CB000ADEBB9E00E940D57A0EDB7E00D931C934A
:104CC000A5E4B2E0E2E1FBEB0E9425560E94B65556
:104CD000E0EDF7E0A5E4B2E00E94B2500E94B856C1
:104CE0000C94752684E080930E030C94C52EEAE2A2
:104CF000FBEB0E9425560E94E15711F00C94AF2661
:104D00000091A709023011F00C94AA2680E080934C
:104D10000E03ADEBB9E00E940D57AEECB7E00D937A
:104D20001C93ECE3F3E0AEECB7E07BE70E949A570C
:104D3000A5E4B2E0E2E3FBEB0E9425560E94B655E3
:104D4000EEECF7E0A5E4B2E00E94B2500E94B85643
:104D50000C94AD2684E080930E030C94C52EECE4F5
:104D6000FBEB0E9425560E94E15711F00C94F126AE
:104D700080E080930E03A5E4B2E0E4E5FBEB0E9443
:104D800025560E94B655EEECF7E0A5E4B2E00E948D
:104D9000B2500E94B856A5E4B2E00E94B250E4E6D8
:104DA000FBEB0E9425560E94B655E0EDF7E0A5E426
:104DB000B2E00E94B2500E94B856A5E4B2E00E9450
:104DC000B250E0E7FBEB0E9425560E94B655E2ED9B
:104DD000F7E0A5E4B2E00E94B2500E94C8560C94DD
:104DE000C52EEEE7FBEB0E9425560E94E15711F01D
:104DF0000C94162780E080930E03ADEBB9E00E947F
:104E00000D57A2EDB7E00C93A5E4B2E0E6E8FBEBAA
:104E10000E9425560E94B655E2EDF7E0A5E4B2E007
:104E20000E94B2500E94C8560C94C52EE6E9FBEBD6
:104E30000E9425560E94E15711F00C94AD2780E0A6
:104E400080930E03A5E4B2E0EEE9FBEB0E94255649
:104E50000E94B65581E08093200200912002043028
:104E600018F011F00C94AB270091200241E0041BD4
:104E7000A4E2B2E00C9380912402ABE0B8E00E947F
:104E800010560E9406560C900822689409F4E89483
:104E900016F00C94A3270027442780912402A0E257
:104EA000B0E00E9410560E9406560C9008226894AA
:104EB00009F4E89400F980912402A5EEB7E00E947D
:104EC00010560E9406560C900822689409F4E89443
:104ED00040F9042700FBA8E3B2E08C9187F98C939A
:104EE000E0E2F2E00191112747E050E00E9489558D
:104EF000EFEDF7E0E00FF11FA5E4B2E00E94B25041
:104F00000E947757A5E4B2E00E94B250E2E1F4EBD0
:104F10000E9425560E94B655A8E3B2E08C9187FB0B
:104F2000A5E4B2E00E94B2500E9416568D938827E5
:104F30008C93A5E4B2E00E94B250ECECF3EB0E943B
:104F400025560E94B655A0E2B2E08C918F5F8C93FB
:104F500010F40C942D270C94C52EE2EBFBEB0E9471
:104F600025560E94E15711F00C9463280091A7097F
:104F7000043011F00C945E28ADEBB9E00E940D579F
:104F8000A1E2B2E00C9300912102013011F00C94E7
:104F90005128A2EDB9E00E940D57A0E2B2E00C93B7
:104FA00000912002003080E010F009F081E08F9342
:104FB00000912002053081E008F080E09F91892374
:104FC000882311F40C944C2880E080930E03009108
:104FD000200241E0041BA2E2B2E00C93A7EEB9E08C
:104FE0000E940D57A1E2B2E00C9300912102003023
:104FF00011F00C94082880912202ABE0B8E00E94E6
:1050000010560E9406568C9189238C930C94132879
:1050100080912202ABE0B8E00E9410560E94065632
:105020009C91982B9C93ECE6F3E0ABE0B8E07BE737
:105030000E949857A5E4B2E0EAEBFBEB0E942556EC
:105040000E94B655E0E2F2E0A5E4B2E00E94B25060
:105050000E94C856A5E4B2E00E94B250E2E1F4EB2F
:105060000E9425560E94B65580912202ABE0B8E01E
:105070000E9410560E9406560C900822689409F46B
:10508000E894A5E4B2E00E94B2500E9416568D93B7
:1050900088278C930C944F2885E080930E030C9402
:1050A0005C2880E080930E03A5E4B2E0EEECFBEB1D
:1050B0000E9425560E94B6550C94612884E0809386
:1050C0000E030C94C52EECEEFBEB0E9425560E94BD
:1050D000E15711F00C943C290091A709013011F01F
:1050E0000C94872880E080930E03A5E4B2E0E4EFFF
:1050F000FBEB0E9425560E94B655A5E4B2E00E9443
:10510000B250EBE0F8E00E9455570C943A29023077
:1051100011F00C94BA28ADEBB9E00E940D57A1E252
:10512000B2E00C9300912102013011F00C94AD28F3
:1051300080E080930E03A5E4B2E0E4EFFBEB0E9475
:1051400025560E94B655A5E4B2E00E94B250EBE0AD
:10515000F8E00E9455570C94B82880E080930E0325
:10516000A5E4B2E0ECEFFBEB0E9425560E94B65599
:105170000C943A29033011F00C943729ADEBB9E0C7
:105180000E940D57A1E2B2E00C9300912102013080
:1051900011F00C942A29A2EDB9E00E940D57A0E26B
:1051A000B2E00C9300912002003080E010F009F092
:1051B00081E08F9300912002053081E008F080E0CB
:1051C0009F918923882311F40C94252980E08093F2
:1051D0000E030091200241E0041BA2E2B2E00C9316
:1051E00080E080930E03A5E4B2E0E0E1FCEB0E94D6
:1051F00025560E94B655E0E2F2E0A5E4B2E00E9436
:10520000B2500E94C856A5E4B2E00E94B250E2E15A
:10521000F4EB0E9425560E94B65580912202ABE025
:10522000B8E00E9410560E9406560C90082268941E
:1052300009F4E894A5E4B2E00E94B2500E94165628
:105240008D9388278C930C94282985E080930E03F6
:105250000C94352980E080930E03A5E4B2E0E8E1E8
:10526000FCEB0E9425560E94B6550C943A2984E026
:1052700080930E030C94C52EEEE2FCEB0E942556A3
:105280000E94E15711F00C94D8290091A70903302E
:1052900011F00C94D329ADEBB9E00E940D57A0E2B8
:1052A000B2E00C9300912002003080E010F009F091
:1052B00081E08F9300912002053081E008F080E0CA
:1052C0009F918923882311F40C94CE2980E0809348
:1052D0000E030091200241E0041BA2E2B2E00C9315
:1052E000A2EDB9E00E940D57A1E2B2E00C9300914B
:1052F0002102003011F00C948A2980912202A5EE3F
:10530000B7E00E9410560E9406568C9189238C9318
:105310000C94952980912202A5EEB7E00E941056C8
:105320000E9406569C91982B9C93EFE4F3E0A5EE27
:10533000B7E07BE70E949857A5E4B2E0E6E3FCEB18
:105340000E9425560E94B655E0E2F2E0A5E4B2E0E4
:105350000E94B2500E94C856A5E4B2E00E94B2502A
:10536000E2E1F4EB0E9425560E94B655809122029C
:10537000A5EEB7E00E9410560E9406560C90082237
:10538000689409F4E894A5E4B2E00E94B2500E9447
:1053900016568D9388278C930C94D12985E08093A1
:1053A0000E030C94D62984E080930E030C94C52E32
:1053B000EAE4FCEB0E9425560E94E15711F00C94A0
:1053C000612A0091A709013011F00C94FC2980E0BA
:1053D00080930E03A5E4B2E0E2E5FCEB0E942556C3
:1053E0000E94B655A5E4B2E00E94B250E5EEF7E0A7
:1053F0000E9455570C945F2A023011F00C945C2ADD
:10540000ADEBB9E00E940D57A0E2B2E00C93009121
:105410002002003080E010F009F081E08F930091CD
:105420002002053081E008F080E09F9189238823E5
:1054300011F40C94572A0091200241E0041BA2E2CF
:10544000B2E00C9380E080930E03A5E4B2E0EAE5BD
:10545000FCEB0E9425560E94B655E0E2F2E0A5E47E
:10546000B2E00E94B2500E94C856A5E4B2E00E9489
:10547000B250E2E1F4EB0E9425560E94B6558091AD
:105480002202A5EEB7E00E9410560E9406560C902C
:105490000822689409F4E894A5E4B2E00E94B250AE
:1054A0000E9416568D9388278C930C945A2A85E077
:1054B00080930E030C945F2A84E080930E030C9477
:1054C000C52EE2E6FCEB0E9425560E94E15711F042
:1054D0000C94852C0091A709053011F00C94802CB8
:1054E000ADEBB9E00E940D57A0E2B2E00C93A2ED43
:1054F000B9E00E940D57A1E2B2E00C93A7EEB9E02B
:105500000E940D57A2E2B2E00C93009120020130FC
:1055100011F00C94622C00912102003080E010F018
:1055200009F081E08F9300912102053081E008F0BD
:1055300080E09F918923882311F40C94552C0091CD
:105540002202013011F00C94012BECEFF9E0A1E202
:10555000B2E00D91112747E050E00E948955AFED70
:10556000B7E0A00FB11F0E947757E1E2F2E001918E
:10557000112747E050E00E948955E9E4F3E0E00F8D
:10558000F11FA1E2B2E00D91112747E050E00E9427
:105590008955AFEDB7E0A00FB11F7BE70E94A95777
:1055A00080E080930E03A5E4B2E0EAE6FCEB0E9403
:1055B00025560E94B655E1E2F2E0A5E4B2E00E9471
:1055C000B2500E94C856A5E4B2E00E94B250E2E197
:1055D000F4EB0E9425560E94B655E1E2F2E00191FB
:1055E000112747E050E00E948955EFEDF7E0E00F0A
:1055F000F11FA5E4B2E00E94B2500E9477570C94CC
:10560000532C023011F00C94802BACEFB9E00E94C7
:105610000D57A3E2B2E00C9300912302023010F088
:105620000C94732B0091210241E0041BA4E2B2E030
:105630000C9300912302003011F00C942C2B8091DC
:105640002402A5EEB7E00E9410560E9406568C91E7
:1056500089238C930C94372B80912402A5EEB7E01C
:105660000E9410560E9406569C91982B9C93EFE442
:10567000F3E0A5EEB7E07BE70E94985780E08093C7
:105680000E03A5E4B2E0EEE7FCEB0E9425560E9473
:10569000B655E1E2F2E0A5E4B2E00E94B2500E9409
:1056A000C856A5E4B2E00E94B250E2E1F4EB0E94D9
:1056B00025560E94B65580912402A5EEB7E00E94BF
:1056C00010560E9406560C900822689409F4E8943B
:1056D000A5E4B2E00E94B2500E9416568D9388272E
:1056E0008C930C947E2B80E080930E03A5E4B2E0B3
:1056F000E4E8FCEB0E9425560E94B6550C94532C0E
:10570000033011F00C94E42BACEFB9E00E940D577C
:10571000A1E2B2E0AD90BB24A3EDB7E0AA0CBB1CA4
:10572000AA0DBB1D0D931C93E1E2F2E0A190BB24F6
:10573000EDE3F3E0AA0CBB1CEA0DFB1DA1E2B2E015
:10574000AD90BB24A3EDB7E0AA0CBB1CAA0DBB1DFA
:105750007BE70E949A5780E080930E03A5E4B2E0B5
:10576000E2EAFCEB0E9425560E94B655E1E2F2E027
:10577000A5E4B2E00E94B2500E94C856A5E4B2E08F
:105780000E94B250E2E1F4EB0E9425560E94B65509
:10579000E1E2F2E0A190BB24E3EDF7E0AA0CBB1C30
:1057A000EA0DFB1DA5E4B2E00E94B2500E94B8567B
:1057B000A5E4B2E00E94B250EEEBFCEB0E9425564D
:1057C0000E94B6550C94532C043011F00C94482CC4
:1057D000ACEFB9E00E940D57A1E2B2E0AD90BB245E
:1057E000ABEDB7E0AA0CBB1CAA0DBB1D0D931C931F
:1057F000E1E2F2E0A190BB24E5E4F3E0AA0CBB1CDB
:10580000EA0DFB1DA1E2B2E0AD90BB24ABEDB7E029
:10581000AA0CBB1CAA0DBB1D7BE70E949A5780E017
:1058200080930E03A5E4B2E0E6ECFCEB0E94255663
:105830000E94B655E1E2F2E0A5E4B2E00E94B25067
:105840000E94C856A5E4B2E00E94B250E2E1F4EB37
:105850000E9425560E94B655E1E2F2E0A190BB24D9
:10586000EBEDF7E0AA0CBB1CEA0DFB1DA5E4B2E0D2
:105870000E94B2500E94B856A5E4B2E00E94B25015
:10588000EEEBFCEB0E9425560E94B6550C94532C6F
:1058900080E080930E03A5E4B2E0E2EEFCEB0E9410
:1058A00025560E94B6550C94602C80E080930E0320
:1058B000A5E4B2E0EAEFFCEB0E9425560E94B65543
:1058C0000C947E2C033011F00C94732C80E08093A8
:1058D0000E03A5E4B2E0ECE0FDEB0E9425560E9429
:1058E000B6550C947E2C80E080930E03A5E4B2E0C4
:1058F000E4E3FDEB0E9425560E94B6550C94832CE0
:1059000084E080930E030C94C52EE0E5FDEB0E942D
:1059100025560E94E15711F00C94752D0091A709AE
:10592000033011F00C94702DADEBB9E00E940D57CF
:10593000A0E2B2E00C93A2EDB9E00E940D57A1E203
:10594000B2E00C9300912002013011F00C945F2D15
:1059500080E080930E0300912102003080E010F07F
:1059600009F081E08F9300912102053081E008F079
:1059700080E09F918923882311F40C94522D00918B
:10598000210241E0041BA4E2B2E00C93A5E4B2E0E2
:10599000EEE9F5EB0E9425560E94B655E1E2F2E0F1
:1059A000A5E4B2E00E94B2500E94C856A5E4B2E05D
:1059B0000E94B250E8E5FDEB0E9425560E94B655C4
:1059C000E1E2F2E00191112747E050E00E948955A1
:1059D000EFEDF7E0E00FF11FA5E4B2E00E94B25056
:1059E0000E947757A5E4B2E00E94B250E2E6FDEBD8
:1059F0000E9425560E94B65580912402A5EEB7E07C
:105A00000E9410560E9406560C900822689409F4D1
:105A1000E894A5E4B2E00E94B2500E9416568D931D
:105A200088278C93A5E4B2E00E94B250E8E6FDEB33
:105A30000E9425560E94B655E1E2F2E0A190BB24F7
:105A4000E3EDF7E0AA0CBB1CEA0DFB1DA5E4B2E0F8
:105A50000E94B2500E94B856A5E4B2E00E94B25033
:105A6000E0E7FDEB0E9425560E94B655E1E2F2E028
:105A7000A190BB24EBEDF7E0AA0CBB1CEA0DFB1DCB
:105A8000A5E4B2E00E94B2500E94B856A5E4B2E08C
:105A90000E94B250E0E8FDEB0E9425560E94B655E8
:105AA0000C945D2D80E080930E03A5E4B2E0EAEF54
:105AB000FCEB0E9425560E94B6550C946E2D0330C7
:105AC00011F00C946E2D80E080930E03A5E4B2E0FB
:105AD000ECE0FDEB0E9425560E94B6550C94732D08
