:100000000C947200189500001895000018950000D7
:10001000189500001895000018950000189500002C
:10002000189500001895000018950000189500001C
:100030001895000018950000189500000C944A05CA
:1000400018950000189500001895000018950000FC
:100050000C941D0318950000189500000C944E0296
:10006000189500000C940A011895000018950000DE
:1000700018950000189500001895000018950000CC
:1000800018950000189500001895000018950000BC
:100090000C949C011895000018950000189500001C
:1000A000189500001895000018950000189500009C
:1000B000189500001895000018950000189500008C
:1000C000189500001895000018950000189500007C
:1000D000189500001895000018950000189500006C
:1000E000189500008FEF8DBFC0EBE8E24E2E81E245
:1000F0008EBFD1E2F1E25F2EA89584B7082E882743
:1001000084BF88E199278093600090936000EEEFB0
:10011000FFE1A0E0B2E088278D933197E9F787E609
:100120008093C40080E08093C50088E18093C10083
:100130006624279A389A399A3A9A3B9A3C9A3D9A79
:100140003E9A3F9A70910A01716070930A01709112
:100150000A01726070930A0170910A0174607093D1
:100160000A01289A209A5F9A579A089809980A983B
:100170000B98109A119A129A139A85E085BD80E027
:1001800084BD70916E00716070936E0085E085BDD6
:1001900080E08093800085E08093810070916F0003
:1001A000716070936F0085E08093810087E0809399
:1001B000B10080E08093B000709170007160709326
:1001C000700087E08093B1007091C10070687093F7
:1001D000C10087E68093CC0080E08093CD007091D1
:1001E000C8007D7F7093C80086E08093CA0088E1D4
:1001F0008093C9007091C90070687093C90070E065
:100200007093B9007CE07093B8000E94064C78941B
:100210000C94FD420F921F922F923F924F925F9249
:100220007F92AF92BF920F931F932F933F934F9361
:100230005F936F937F938F939F93AF93BF93CF936E
:10024000DF93EF93FF938FB78F938BB78F938827AD
:100250008BBFA3ECBAE08091C6008C9384E2482F58
:100260000091C30A041711F00C9441017091130618
:10027000746070931306AAEFB9E088278C930C94EE
:100280007E010D3011F00C946601A3E1B6E08C9173
:1002900082FB16F00C946401709113067B7F7093BF
:1002A000130680E0AAEFB9E00E9456488D93882794
:1002B0008C93EAEFF9E0A4ECBAE00E946F4F7091E2
:1002C00013067260709313060C947E010F3118F0C0
:1002D00011F00C946D010C947E01A3E1B6E08C91B9
:1002E00082FB16F00C947E01A3ECBAE08C91AAEF8D
:1002F000B9E00E9456488D9388278C938F918BBFCD
:100300008F918FBFFF91EF91DF91CF91BF91AF910F
:100310009F918F917F916F915F914F913F912F911D
:100320001F910F91BF90AF907F905F904F903F9043
:100330002F901F900F9018950F921F922F923F921F
:100340004F925F927F92AF92BF920F931F932F9322
:100350003F934F935F936F937F938F939F93AF934D
:10036000BF93CF93DF93EF93FF938FB78F938BB7A9
:100370008F9388278BBFA4E1B6E08091CE008C9349
:1003800085E2482F00911406041711F00C94D30154
:1003900070911306706170931306A5E1B6E088278B
:1003A0008C930C9430020D3011F00C940802A3E1F0
:1003B000B6E08C9184FB16F00C9406027091130643
:1003C0007F7E7093130680E0A5E1B6E00E94564858
:1003D0008D9388278C93E5E1F6E0A2EAB6E00E94CF
:1003E0006F4FA2EAB6E0ECE6F3EA0E94224E0E94CA
:1003F000E24F11F00C940102709138027064709316
:100400003802709113067860709313060C943002D2
:100410000F3118F011F00C940F020C943002A3E18C
:10042000B6E08C9184FB16F00C943002A4E1B6E0A7
:100430008C91A5E1B6E00E9456488D9388278C9355
:10044000A5E1B6E00E94DC4F082F0C3818F011F03F
:100450000C942C020C943002A5E1B6E088278C9312
:100460008F918BBF8F918FBFFF91EF91DF91CF91D4
:10047000BF91AF919F918F917F916F915F914F91BC
:100480003F912F911F910F91BF90AF907F905F9000
:100490004F903F902F901F900F9018950F921F92A2
:1004A0002F923F924F925F927F92AF92BF920F93A3
:1004B0001F932F933F934F935F936F937F938F93EC
:1004C0009F93AF93BF93CF93DF93EF93FF938FB738
:1004D0008F938BB78F9388278BBF74E676BDA5E289
:1004E000B5E08C918F5F8C93A5E2B5E00C9148E06C
:1004F0000E94CC4F8C9300912505003011F00C9494
:10050000B402A6E2B5E00C9140E20E94CC4F8C937D
:10051000E6E4F3E70E94224EABE2B5E08C91992726
:10052000A7E2B5E00E94D94D80912605A7E2B5E08B
:100530000E940D4E0E94034E0C900822689409F40C
:10054000E894A2E2B5E08C9186F98C93A2E2B5E042
:100550008C9186FBA5E2B0E08C9187F98C93A6E2A2
:10056000B5E08C918F5F8C93A2E2B5E08C9187FB14
:1005700016F00C94DA02A3E2B5E00E940F48A3E261
:10058000B5E00D911C9149EF51E00E943C48A3E277
:10059000B5E00D931C93A3E2B5E00D911C910030E2
:1005A00050E0150711F00C94DA0270916E0471603E
:1005B00070936E04A2E2B5E08C9184FB16F00C946B
:1005C000F902AFE2B5E00E940F48A1E3B5E04D911A
:1005D0005C91AFE2B5E00D911C910417150711F085
:1005E0000C94F702709122057062709322050C94AE
:1005F000FF0280E090E0AFE2B5E08D939C938F9195
:100600008BBF8F918FBFFF91EF91DF91CF91BF9102
:10061000AF919F918F917F916F915F914F913F919A
:100620002F911F910F91BF90AF907F905F904F904F
:100630003F902F901F900F9018950F921F922F921E
:100640003F924F925F927F92AF92BF920F931F9310
:100650002F933F934F935F936F937F938F939F93CA
:10066000AF93BF93CF93DF93EF93FF938FB78F93A6
:100670008BB78F9388278BBF87EF92EC9093850081
:100680008093840070912C05716070932C050E94FA
:100690001B4AE8E0F2E0FA93EA93E1E1F2E00E941B
:1006A000A84BA3E3B5E00D931D932D933D93A3E3D6
:1006B000B5E00E940248E3E3F5E0A1E1B2E00E9468
:1006C000984B0E942E4AE3E3F5E0A8E0B2E00E94D6
:1006D000A04B0E94264A0E941B4AE1E1F2E0A3E6F9
:1006E000B4E00E946F4FE3E6F4E00E94334BA7E3CF
:1006F000B5E00D931D932D933D9381E080933B05D1
:1007000000913B05043018F011F00C94B303ABE3F7
:10071000B5E0AD90BB24AFE4B4E0AA0CBB1CAA0CBE
:10072000BB1CAA0DBB1D4D915D916D917C91A7E302
:10073000B5E00D911D912D913C910E949D4E11F0BF
:100740000C94AB0370913802716070933802809101
:100750003B0580936F04ABE3B5E08C918F5F8C9386
:1007600010F40C948003A3E3B5E00D911D912D913D
:100770003C91A9EDB4E04D915D916D917C910E9409
:10078000A948ACE3B5E00D931D932D933D9340E054
:1007900050E060E070E0ACE3B5E00D911D912D916B
:1007A0003C910E949D4E11F00C94DB0370916E04FD
:1007B000746070936E04A3E3B5E00D911D912D91CB
:1007C0003C91A1E4B5E04C915527662777270E941C
:1007D000A948ACE3B5E00D931D932D933D9340E004
:1007E00050E060E070E0ACE3B5E00D911D912D911B
:1007F0003C910E949D4E11F00C94030470912205CF
:1008000078607093220581E080933B0200913B0267
:10081000043018F011F00C947204A3E3B5E00D91CC
:100820001D912D913C91ABE3B2E0AD90BB24AEE7BE
:10083000B4E0AA0CBB1CAA0CBB1CAA0DBB1D4D919D
:100840005D916D917C910E94984EACE3B5E00D9363
:100850001D932D933D93ACE3B5E00D911D912D912A
:100860003C91ABE3B2E0AD90BB24AEE6B4E0AA0CA1
:10087000BB1CAA0CBB1CAA0DBB1D4D915D916D91BB
:100880007C910E94A948ACE3B5E00D931D932D9394
:100890003D9300913B0241E0041BAAE3B2E00C93BC
:1008A00040E050E060E070E0ACE3B5E00D911D91F8
:1008B0002D913C910E949D4E11F00C946A04809100
:1008C0003A02A0E4B5E00E940D4E0E94034E9C91B6
:1008D000982B9C93ABE3B2E08C918F5F8C9310F4D8
:1008E0000C940604A6EBB4E08C918F5F8C93A6EB7E
:1008F000B4E00C9141E00E94CC4F8C930091B6047F
:10090000003011F00C94890470916E047062709341
:100910006E04ABEFB4E08C918F5F8C93ABEFB4E0DF
:100920000C9145E00E94CC4F8C930091FB04003069
:1009300011F00C94A00470916E04726070936E04B8
:10094000A8E3B2E08C9182FB16F00C94C804AFECE3
:10095000B3E00E940F48AFECB3E00D911C91ADECF9
:10096000B3E04D915C910E943C48AFECB3E00D9335
:100970001C93AFECB3E00D911C91003050E01507D3
:1009800011F00C94C80470913802726070933802B0
:10099000A2E2B5E08C9181FB16F00C942905A2E24D
:1009A000B5E08C9180FB16F00C94FC04AFE0B6E04F
:1009B0000E940F48AFE0B6E00D911C91ABE0B6E0AD
:1009C0004D915C910E943C48AFE0B6E00D931C93C2
:1009D000AFE0B6E00D911C91003050E0150711F02A
:1009E0000C94FC0470911306706870931306709158
:1009F00022057E7F70932205A3E1B6E08C9187FBF0
:100A000016F00C942905A1E1B6E00E940F48A1E17F
:100A1000B6E00D911C91ADE0B6E04D915C910E9465
:100A20003C48A1E1B6E00D931C93A1E1B6E00D9125
:100A30001C91003050E0150711F00C9429057091BD
:100A40002205716070932205709113067F77709371
:100A500013068F918BBF8F918FBFFF91EF91DF9125
:100A6000CF91BF91AF919F918F917F916F915F9146
:100A70004F913F912F911F910F91BF90AF907F9019
:100A80005F904F903F902F901F900F901895089572
:100A9000089508950F921F922F923F924F925F9266
:100AA0007F92AF92BF920F931F932F933F934F93D9
:100AB0005F936F937F938F939F93AF93BF93CF93E6
:100AC000DF93EF93FF938FB78F938BB78F93882725
:100AD0008BBF74E67093B200A7E5B5E08C918F5F91
:100AE0008C93A7E5B5E00C914AE00E94CC4F8C9323
:100AF00000915705003011F00C946007002744273F
:100B0000A0E2B0E08C9180FB00F9A2E7B5E08C9107
:100B100080FB40F9042700FBA2E2B5E08C9182F94A
:100B20008C93A2E2B5E08C9182FBAFE8B5E08C91AA
:100B300080F98C9300274427A0E2B0E08C9181FBE0
:100B400000F9A2E7B5E08C9181FB40F9042700FB96
:100B5000A2E2B5E08C9182F98C93A2E2B5E08C918F
:100B600082FBAFE8B5E08C9181F98C930027442794
:100B7000A0E2B0E08C9182FB00F9A2E7B5E08C9195
:100B800082FB40F9042700FBA2E2B5E08C9182F9D8
:100B90008C93A2E2B5E08C9182FBAFE8B5E08C913A
:100BA00082F98C9300274427A0E2B0E08C9183FB6C
:100BB00000F9A2E7B5E08C9183FB40F9042700FB24
:100BC000A2E2B5E08C9182F98C93A2E2B5E08C911F
:100BD00082FBAFE8B5E08C9183F98C9381E0809340
:100BE000420500914205043018F011F00C946007A2
:100BF0000091420541E0041BA3E4B5E00C93A2E49C
:100C0000B5E0AD90BB24AFE8B5E0AA0DBB1D0C91DB
:100C1000003011F00C94280680914305AFE8B5E050
:100C20000E940D4E0E94034E0C900822689409F415
:100C3000E89416F40C94260682E0A2E4B5E0AD90A8
:100C4000BB24AFE8B5E0AA0DBB1D8C930C945807EC
:100C5000013011F00C94480680914305AFE8B5E0EF
:100C60000E940D4E0E94034E0C900822689409F4D5
:100C7000E89416F00C94460683E0A2E4B5E0AD904B
:100C8000BB24AFE8B5E0AA0DBB1D8C930C945807AC
:100C9000023011F00C94D10680914305AFE8B5E025
:100CA0000E940D4E0E94034E0C900822689409F495
:100CB000E89416F00C94760680E0A2E4B5E0AD90DE
:100CC000BB24AFE8B5E0AA0DBB1D8C9380E090E09B
:100CD000A2E4B5E0AD90BB24A2E4B5E0AA0CBB1C35
:100CE000AA0DBB1D8D939C930C94CF06A2E4B5E096
:100CF000AD90BB24A2E4B5E0AA0CBB1CAA0DBB1DA1
:100D00000E940F48A2E4B5E0AD90BB24A2E4B5E098
:100D1000AA0CBB1CAA0DBB1D0D911C91A2E4B5E051
:100D2000AD90BB24A8E6B5E0AA0CBB1CAA0DBB1D68
:100D30004D915C910E943C48A2E4B5E0AD90BB248B
:100D4000A2E4B5E0AA0CBB1CAA0DBB1D0D931C931D
:100D5000A2E4B5E0AD90BB24A2E4B5E0AA0CBB1CB4
:100D6000AA0DBB1D0D911C91003050E0150711F02C
:100D70000C94CF0681E0A2E4B5E0AD90BB24AFE8CF
:100D8000B5E0AA0DBB1D8C9380914305A4E5B5E0A9
:100D90000E940D4E0E94034E9C91982B9C930C94A4
:100DA0005807033011F00C94580780914305AFE8C1
:100DB000B5E00E940D4E0E94034E0C9008226894EC
:100DC00009F4E89416F40C94FF0681E0A2E4B5E07F
:100DD000AD90BB24AFE8B5E0AA0DBB1D8C9380E0BD
:100DE00090E0A2E4B5E0AD90BB24AAE4B5E0AA0C83
:100DF000BB1CAA0DBB1D8D939C930C945807A2E4B9
:100E0000B5E0AD90BB24AAE4B5E0AA0CBB1CAA0DCA
:100E1000BB1D0E940F48A2E4B5E0AD90BB24AAE43C
:100E2000B5E0AA0CBB1CAA0DBB1D0D911C91A2E440
:100E3000B5E0AD90BB24A0E6B5E0AA0CBB1CAA0DA2
:100E4000BB1D4D915C910E943C48A2E4B5E0AD9081
:100E5000BB24AAE4B5E0AA0CBB1CAA0DBB1D0D93D4
:100E60001C93A2E4B5E0AD90BB24AAE4B5E0AA0CC3
:100E7000BB1CAA0DBB1D0D911C91003050E0150745
:100E800011F00C94580780E0A2E4B5E0AD90BB24CB
:100E9000AFE8B5E0AA0DBB1D8C9380914305A5E595
:100EA000B5E00E940D4E0E94034E9C91982B9C939E
:100EB000A2E4B5E08C918F5F8C9310F40C94F10553
:100EC0008F918BBF8F918FBFFF91EF91DF91CF916A
:100ED000BF91AF919F918F917F916F915F914F9152
:100EE0003F912F911F910F91BF90AF907F905F9096
:100EF0004F903F902F901F900F9018952F98E0E7FC
:100F0000F3EA0E94224E0E9465480E946C48A0E1CC
:100F1000B1E2E0E9F3EA0E94224E0E94B34D0E9442
:100F20005D480E946C48A0E1B1E2E4EAF3EA0E9465
:100F3000224E0E94B34D0E945D480E946C48A0E181
:100F4000B1E2ECEAF3EA0E94224E0E94B34D0E9405
:100F50005D480E946C48E1E0F0E0A2E8B3E094E074
:100F60000E94AF4FE6EBF3EA0E94224E0E946548D2
:100F7000E2E8F3E0A0E1B1E20E94A04B0E945D48EC
:100F8000E6ECF3EA0E94224E0E946548E2E8F3E0B4
:100F9000A0E1B1E20E94984B0E945D480E946C481B
:100FA000E4EFF0E0A9EDB4E094E00E94AF4FE8EC8C
:100FB000F3EA0E94224E0E946548E9EDF4E0A0E1C8
:100FC000B1E20E94B34E0E945D480E946C48E8EF77
:100FD000F0E0A1E4B5E00E94AC4FE4EEF3EA0E9439
:100FE000224E0E946548E1E4F5E0A0E1B1E20E94F2
:100FF000C04E0E945D480E946C4881E080932002B0
:1010000000912002043018F011F00C944508E0E241
:10101000F2E0A190BB24E5E0F0E0EA0DFB1DA0E2C8
:10102000B2E0AD90BB24A7E8B3E0AA0DBB1D0E94BF
:10103000AC4FEAEFF3EA0E94224E0E946548E0E2DC
:10104000F2E0A0E1B1E20E94C04E0E945D48ECE0F7
:10105000F4EA0E94224E0E946548D201E0E2F2E0EA
:10106000A190BB24E7E8F3E0EA0DFB1D0E944D4F81
:10107000D2010E945F480E946C48A0E2B2E08C91CD
:101080008F5F8C9310F40C940008EEE0F4EA0E9459
:10109000224E0E9465480E946C4881E080932402A1
:1010A00000912402043018F011F00C94FF08E8E1DC
:1010B000F4EA0E94224E0E946548E4E2F2E0A0E1D8
:1010C000B1E20E94C04E0E945D480E946C4881E0DF
:1010D0008093250200912502043018F011F00C9441
:1010E000F708A4E2B2E00D91112701501040A0E3EF
:1010F000B2E00D931C93A0E3B2E00D911C9144E08B
:1011000050E00E94864DA0E3B2E00D931C93A0E353
:10111000B2E00D911C91A5E2B2E04D915527040F6C
:10112000151FA0E3B2E00D931C93E0E3F2E0A19061
:10113000B190E6E0F0E0AA0CBB1CAA0CBB1CEA0DC7
:10114000FB1DA8E2B2E094E00E94AF4FA8E2B2E03B
:101150000D911D912D913C91A0E3B2E0AD90BD9019
:10116000A9E8B3E0AA0CBB1CAA0CBB1CAA0DBB1DB2
:101170000D931D932D933C93A8E5B5E00C9100FBD6
:1011800016F00C94EF08EEE1F4EA0E94224E0E9461
:101190006548E5E2F2E0A0E1B1E20E94C04E0E94A3
:1011A0005D48ECE0F4EA0E94224E0E946548E8E2C5
:1011B000F2E0A0E1B1E20E94984B0E945D48E4E2B7
:1011C000F4EA0E94224E0E946548E0E3F2E0A0E1CA
:1011D000B1E20E94B04E0E945D480E946C48A5E2B8
:1011E000B2E08C918F5F8C9310F40C946A08A4E2A7
:1011F000B2E08C918F5F8C9310F40C945008E8E26D
:10120000F4EA0E94224E0E9465480E946C4881E0E8
:101210008093240200912402043018F011F00C9401
:10122000EA09E8E1F4EA0E94224E0E946548E4E2FD
:10123000F2E0A0E1B1E20E94C04E0E945D480E942F
:101240006C4881E08093250200912502043018F05B
:1012500011F00C94E209E4E3F4EA0E94224E0E94A9
:101260006548E5E2F2E0A0E1B1E20E94C04E0E94D2
:101270005D480E946C48A4E2B2E00D911127015034
:101280001040A0E3B2E00D931C93A0E3B2E00D91F7
:101290001C9140E250E00E94864DA0E3B2E00D9325
:1012A0001C93A5E2B2E00D91112701501040A2E37A
:1012B000B2E00D931C93A2E3B2E00D911C9148E0C3
:1012C00050E00E94864DA2E3B2E00D931C93A0E390
:1012D000B2E00D911C91A2E3B2E04D915C91040F3C
:1012E000151FA0E3B2E00D931C9381E080932702C9
:1012F00000912702083018F011F00C94DA090091DF
:10130000300240912702040FA6E8B3E00C93E6E810
:10131000F3E0A190BB24EBE4F0E0EA0DFB1DA6E8AE
:10132000B3E0AD90BB24A0EDB3E0AA0DBB1D0E94BD
:10133000AC4FA8E5B5E00C9100FB16F00C94D20977
:10134000EEE3F4EA0E94224E0E946548E7E2F2E0F2
:10135000A0E1B1E20E94C04E0E945D48ECE0F4EAD8
:101360000E94224E0E946548D201E6E8F3E0A19077
:10137000BB24E0EDF3E0EA0DFB1D0E944D4FD201CE
:101380000E945F48E4E4F4EA0E94224E0E9465480D
:10139000E6E8F3E0A0E1B1E20E94C04E0E945D48A1
:1013A0000E946C48A7E2B2E08C918F5F8C9310F49E
:1013B0000C947809A5E2B2E08C918F5F8C9310F4C5
:1013C0000C942409A4E2B2E08C918F5F8C9310F40A
:1013D0000C940A09EAE4F0E0ADECB3E00E94AE4FF1
:1013E000E8E4F4EA0E94224E0E946548EDECF3E046
:1013F000A0E1B1E20E94B04E0E945D480E946C489C
:101400000E945E13E6E5F4EA0E94224E0E946548BF
:10141000A4E5B3E00E945F48EEE5F4EA0E94224EA4
:101420000E9465480E946C4883E680935204E5E080
:10143000F0E0A7E8B3E00E94AC4FE0E6F4EA0E94D7
:10144000224E0E946548E7E8F3E0A0E1B1E20E9485
:10145000C04E0E945D480E946C4800918703003096
:1014600018F011F00C94360A0C944D0A0091870381
:10147000053010F00C94400A0E94700C0C944B0A3A
:1014800080E080938703EEE6F4EA0E94224E0E94F9
:1014900065480E946C480C94550AEEE7F4EA0E94F5
:1014A000224E0E9465480E946C4881E08093200291
:1014B00000912002043018F011F00C94EB0AE0E2E5
:1014C000F2E0A190BB24E8ECF0E0AA0CBB1CAA0C53
:1014D000BB1CEA0DFB1DA0E2B2E0AD90BB24AEE662
:1014E000B4E0AA0CBB1CAA0CBB1CAA0DBB1D94E04B
:1014F0000E94AF4FE0E2F2E0A190BB24E8EDF0E003
:10150000AA0CBB1CAA0CBB1CEA0DFB1DA0E2B2E09E
:10151000AD90BB24AEE7B4E0AA0CBB1CAA0CBB1C6C
:10152000AA0DBB1D94E00E94AF4FE2E9F4EA0E94CD
:10153000224E0E946548E0E2F2E0A0E1B1E20E94A2
:10154000C04E0E945D48ECE0F4EA0E94224E0E94E8
:101550006548E0E2F2E0A190BB24EEE6F4E0AA0CDC
:10156000BB1CAA0CBB1CEA0DFB1DA0E1B1E20E9452
:10157000B34E0E945D48E6E9F4EA0E94224E0E94C2
:101580006548E0E2F2E0A0E1B1E20E94C04E0E94B4
:101590005D48ECE0F4EA0E94224E0E946548E0E2D9
:1015A000F2E0A190BB24EEE7F4E0AA0CBB1CAA0C6D
:1015B000BB1CEA0DFB1DA0E1B1E20E94B34E0E94EC
:1015C0005D480E946C48A0E2B2E08C918F5F8C93E2
:1015D00010F40C94580AE9EFF0E0A8E5B5E00E9499
:1015E000AC4FECE9F4EA0E94224E0E946548E8E51F
:1015F000F5E0A0E1B1E20E94C04E0E945D480E9469
:101600006C48EAEFF0E0A9E5B5E00E94AE4FA9E52D
:10161000B5E00E940F48E4EAF4EA0E94224E0E94DC
:101620006548E9E5F5E0A0E1B1E20E94B04E0E9414
:101630005D480E946C48EAEFF0E0A9E5B5E07BE781
:101640000E94924FEEEFF0E0A0E6B5E00E94AC4FB2
:10165000EEEAF4EA0E94224E0E946548D201E0E6DA
:10166000F5E00E944D4FD2010E945F480E946C48F5
:1016700081E08093200200912002043018F011F0E4
:101680000C94170CE0E2F2E00191112747E050E0E2
:101690000E94864DE9E0F1E0E00FF11FA0E2B2E028
:1016A0000D91112747E050E00E94864DACE6B5E071
:1016B000A00FB11F96E00E94B64FE0EDF4EA0E9441
:1016C000224E0E946548E0E2F2E0A0E1B1E20E9411
:1016D000C04E0E945D48ECE0F4EA0E94224E0E9457
:1016E0006548A0E2B2E00D91112747E050E00E946A
:1016F000864DACE6B5E0A00FB11F0E945F480E9486
:101700006C48E0E2F2E0A190BB24EDEFF0E0AA0C1F
:10171000BB1CEA0DFB1DA0E2B2E0AD90BB24A0E62D
:10172000B5E0AA0CBB1CAA0DBB1D0E94AE4FE8ED94
:10173000F4EA0E94224E0E946548E0E2F2E0A0E155
:10174000B1E20E94C04E0E945D48ECE0F4EA0E94C3
:10175000224E0E946548E0E2F2E0A190BB24E0E660
:10176000F5E0AA0CBB1CEA0DFB1DA0E1B1E20E9452
:10177000B04E0E945D48E4EEF4EA0E94224E0E94C0
:1017800065480E946C48E0E2F2E0A190BB24E5E0ED
:10179000F1E0AA0CBB1CEA0DFB1DA0E2B2E0AD908B
:1017A000BB24A8E6B5E0AA0CBB1CAA0DBB1D0E9479
:1017B000AE4FECEEF4EA0E94224E0E946548E0E251
:1017C000F2E0A0E1B1E20E94C04E0E945D48ECE070
:1017D000F4EA0E94224E0E946548E0E2F2E0A19005
:1017E000BB24E8E6F5E0AA0CBB1CEA0DFB1DA0E15A
:1017F000B1E20E94B04E0E945D48E4EEF4EA0E941D
:10180000224E0E9465480E946C4885E0A0E2B2E04A
:10181000AD90BB24A3E9B5E0AA0DBB1D8C93A0E25B
:10182000B2E08C918F5F8C9310F40C943B0BEFE043
:10183000F1E0A2E7B5E00E94AC4FE8EFF4EA0E94C5
:10184000224E0E946548D201E2E7F5E00E944D4F2A
:10185000D2010E945F480E946C48ECE2F1E0A8E9E6
:10186000B5E00E94AC4FE0E0F5EA0E94224E0E94F3
:101870006548D201E8E9F5E00E944D4FD2010E948F
:101880005F480E946C48EDE2F1E0ABE0B6E00E94F8
:10189000AE4FE8E0F5EA0E94224E0E946548EBE078
:1018A000F6E0A0E1B1E20E94B04E0E945D480E94C5
:1018B0006C48EFE2F1E0ADE0B6E00E94AE4FE4E14B
:1018C000F5EA0E94224E0E946548EDE0F6E0A0E1B4
:1018D000B1E20E94B04E0E945D480E946C4808959B
:1018E0008091870380932402E8E1F4EA0E94224E6B
:1018F0000E946548E4E2F2E0A0E1B1E20E94C04E3D
:101900000E945D480E946C48A4E2B2E0AD90BB2406
:10191000A7E8B3E0AA0DBB1D8C9180938C03E0E295
:10192000F5EA0E94224E0E946548D201ECE8F3E0FD
:101930000E944D4FD2010E945F480E946C4881E096
:101940008093250200912502043018F011F00C94C8
:101950002D0DA4E2B2E00D91112701501040A0E33B
:10196000B2E00D931C93A0E3B2E00D911C9144E012
:1019700050E00E94864DA0E3B2E00D931C93A0E3DB
:10198000B2E00D911C91A5E2B2E04D915527040FF4
:10199000151FA0E3B2E00D931C93A0E3B2E0AD905D
:1019A000BD90A9E8B3E0AA0CBB1CAA0CBB1CAA0DF5
:1019B000BB1D0D911D912D913C91A8E2B2E00D93BC
:1019C0001D932D933C93A8E2B2E00D911D912D91B2
:1019D0003C91A5E2B2E0AD90BB24AFE4B4E0AA0C28
:1019E000BB1CAA0CBB1CAA0DBB1D0D931D932D93F4
:1019F0003C93EEE2F5EA0E94224E0E946548E5E241
:101A0000F2E0A0E1B1E20E94C04E0E945D48ECE02D
:101A1000F4EA0E94224E0E946548E8E2F2E0A0E16A
:101A2000B1E20E94984B0E945D48E4E2F4EA0E9411
:101A3000224E0E946548E0E3F2E0A0E1B1E20E949C
:101A4000B04E0E945D480E946C48A5E2B2E08C91C5
:101A50008F5F8C9310F40C94A20C089582E00E9486
:101A6000804D82E00E94804D81E00E94804DAA85D9
:101A7000BB850D91112701501040AC81BD810D93A4
:101A80001C93AC81BD810D911C9140E250E00E94FD
:101A9000864DAC81BD810D931C93A885B9850D91B0
:101AA000112701501040AA81BB810D931C93AA817C
:101AB000BB810D911C9148E050E00E94864DAA81A7
:101AC000BB810D931C93AC81BD810D911C91AA81AA
:101AD000BB814D915C91040F151FAC81BD810D93AD
:101AE0001C93AC81BD810D911C91AE81BF814D9144
:101AF0005527040F151FAC81BD810D931C93AC813C
:101B0000BD810D911C910F5F1F4FAC81BD810D9365
:101B10001C93AC81BD81AD90BD90A0EDB3E0AA0D4A
:101B2000BB1D8C91A881B9818C93ECE3F5EA0E94EE
:101B3000224E0E946548EE81FF81A0E1B1E20E9441
:101B4000C04E0E945D48ECE0F4EA0E94224E0E94E2
:101B50006548D201E881F9810E944D4FD2010E946F
:101B60005F48E6ECF3EA0E94224E0E946548EC8151
:101B7000FD81A0E1B1E20E94B04E0E945D480E944A
:101B80006C48A881B9818C9180FBA8E2B0E08C916F
:101B900080F98C93A881B9818C9181FBA8E2B0E097
:101BA0008C9181F98C93A881B9818C9182FBA8E2F8
:101BB000B0E08C9182F98C93A881B9818C9183FBE0
:101BC000A8E2B0E08C9183F98C93A881B9818C91C3
:101BD00084FBA8E2B0E08C9184F98C93A881B98150
:101BE0008C9185FBA8E2B0E08C9185F98C9385E01F
:101BF000481A80E0580A26960895409841984298DD
:101C000043984498459808950E941B4AE8E0F2E002
:101C1000AEE1B3E00E946F4FAEE1B3E00E945648E0
:101C2000E0E4F5EA0E94224E0E94B34D0E941B4A56
:101C3000E1E1F2E0AEE1B3E00E9456480E946F4F4E
:101C4000AEE1B3E00E945648E0E4F5EA0E94224E7D
:101C50000E94B34D81E080931F0281E080931E02B9
:101C6000882780931D02AEE1B3E00E949148AEE167
:101C7000B3E0E2E4F5EA0E94224E0E94B34DE7E8A9
:101C8000F3E0AEE1B3E00E9456480E94C04EAEE1E0
:101C9000B3E00E945648E4E4F5EA0E94224E0E9416
:101CA000B34DACE8B3E08C9180FBAEE1B3E00E94B1
:101CB00056480E94134E8D9388278C93AEE1B3E073
:101CC0000E945648E8E4F5EA0E94224E0E94B34D75
:101CD000ACE8B3E08C9181FBAEE1B3E00E945648E2
:101CE0000E94134E8D9388278C93AEE1B3E00E943F
:101CF0005648E8E4F5EA0E94224E0E94B34DACE853
:101D0000B3E08C9182FBAEE1B3E00E9456480E94A2
:101D1000134E8D9388278C93AEE1B3E00E94564812
:101D2000EAE4F5EA0E94224E0E94B34DACE8B3E02B
:101D30008C9183FBAEE1B3E00E9456480E94134EA3
:101D40008D9388278C93AEE1B3E00E945648ECE473
:101D5000F5EA0E94224E0E94B34DACE8B3E08C91AC
:101D600084FBAEE1B3E00E9456480E94134E8D936F
:101D700088278C93AEE1B3E00E945648EEE4F5EA82
:101D80000E94224E0E94B34DACE8B3E08C9185FBDB
:101D9000AEE1B3E00E9456480E94134E8D9388270F
:101DA0008C93AEE1B3E00E945648E0E5F5EA0E946C
:101DB000224E0E94B34DACE8B3E08C9186FBAEE1BD
:101DC000B3E00E9456480E94134E8D9388278C934F
:101DD000AEE1B3E00E945648E0E4F5EA0E94224EEC
:101DE0000E94B34D83E080931F0281E080931E0226
:101DF000882780931D02AEE1B3E00E949148A3E5DD
:101E0000B4E00D911D912D913C91A8E2B2E00D93AB
:101E10001D932D933C93E8E2F2E0AEE1B3E00E9423
:101E2000984BAEE1B3E00E945648E0E4F5EA0E9428
:101E3000224E0E94B34DA7E5B4E00D911D912D9166
:101E40003C91A8E2B2E00D931D932D933C93E8E200
:101E5000F2E0AEE1B3E00E9456480E94984BAEE13A
:101E6000B3E00E945648E0E4F5EA0E94224E0E9448
:101E7000B34D85E080931F0281E080931E02882786
:101E800080931D02AEE1B3E00E949148ABE5B4E05F
:101E90000D911D912D913C91A8E2B2E00D931D93FF
:101EA0002D933C93E8E2F2E0AEE1B3E00E94984B60
:101EB000AEE1B3E00E945648E0E4F5EA0E94224E0B
:101EC0000E94B34DAFE5B4E00D911D912D913C9171
:101ED000A8E2B2E00D931D932D933C93E8E2F2E06B
:101EE000AEE1B3E00E9456480E94984BAEE1B3E0E9
:101EF0000E945648E0E4F5EA0E94224E0E94B34D4B
:101F000087E080931F0281E080931E0288278093E0
:101F10001D02AEE1B3E00E9491480895E5E0F0E0D3
:101F2000A0E1BB2781E08C937BE70E94904FEAE41D
:101F3000F0E004E110E0A0E1BB277BE70E94924FB4
:101F400081E08093200200912002043018F011F00B
:101F50000C94C10FE0E2F2E0A190BB24E5E0F0E0D8
:101F6000EA0DFB1DA0E1BB278FE78C937BE70E9466
:101F7000904FA0E2B2E08C918F5F8C9310F40C94A0
:101F8000A30FAEE1B3E0E2E5F5EA0E94224E0E9423
:101F9000B34DEEE1F3E00E94334BADE8B3E00D93B7
:101FA0001D932D933D93AEE1B3E0ECE5F5EA0E947D
:101FB000224E0E94B34DEEE1F3E00E94334BA1E9C3
:101FC000B3E00D931D932D933D93AEE1B3E0E6E6B0
:101FD000F5EA0E94224E0E94B34DEEE1F3E00E942A
:101FE000334BA5E9B3E00D931D932D933D93AEE1E3
:101FF000B3E0E0E7F5EA0E94224E0E94B34DEEE125
:10200000F3E00E94334BA9E9B3E00D931D932D93A8
:102010003D93AEE1B3E0EAE7F5EA0E94224E0E946A
:10202000B34DEEE1F3E00E94334BADE9B3E00D9325
:102030001D932D933D93AEE1B3E0E4E8F5EA0E94F1
:10204000224E0E94B34DEEE1F3E00E94334BA1EA31
:10205000B3E00D931D932D933D93AEE1B3E0EEE815
:10206000F5EA0E94224E0E94B34DEEE1F3E00E9499
:10207000334BA5EAB3E00D931D932D933D93AEE151
:10208000B3E0E8E9F5EA0E94224E0E94B34DEEE18A
:10209000F3E00E94334BA9EAB3E00D931D932D9317
:1020A0003D93AEE1B3E0E2EAF5EA0E94224E0E94DF
:1020B000B34DEEE1F3E00E94334BADEAB3E00D9394
:1020C0001D932D933D93AEE1B3E0ECEAF5EA0E9457
:1020D000224E0E94B34DEEE1F3E00E94334BA1EBA0
:1020E000B3E00D931D932D933D93AEE1B3E0E6EB8A
:1020F000F5EA0E94224E0E94B34DEEE1F3E00E9409
:10210000334BA5EBB3E00D931D932D933D93AEE1BF
:10211000B3E0E0ECF5EA0E94224E0E94B34DEEE1FE
:10212000F3E00E94334BA9EBB3E00D931D932D9385
:102130003D93AEE1B3E0EAECF5EA0E94224E0E9444
:10214000B34DEEE1F3E00E94334BADEBB3E00D9302
:102150001D932D933D93AEE1B3E0E4EDF5EA0E94CB
:10216000224E0E94B34DEEE1F3E00E94334BA1EC0E
:10217000B3E00D931D932D933D93AEE1B3E0EEEDEF
:10218000F5EA0E94224E0E94B34DEEE1F3E00E9478
:10219000334BA5ECB3E00D931D932D933D93AEE12E
:1021A000B3E0E8EEF5EA0E94224E0E94B34DEEE164
:1021B000F3E00E94334BA9ECB3E00D931D932D93F4
:1021C0003D9381E08093250200912502003118F0B3
:1021D00011F00C940F11E5E2F2E0A190BB24E6E0CF
:1021E000F0E0AA0CBB1CAA0CBB1CEA0DFB1DA5E26F
:1021F000B2E0AD90BB24A9E8B3E0AA0CBB1CAA0CCA
:10220000BB1CAA0DBB1D94E07BE70E94934FA5E287
:10221000B2E08C918F5F8C9310F40C94E41081E009
:102220008093240200912402043018F011F00C94E1
:10223000FD11E8E1F4EA0E94224E0E946548E4E2C2
:10224000F2E0A0E1B1E20E94C04E0E945D480E940F
:102250006C4881E08093250200912502043018F03B
:1022600011F00C94F511E4E3F4EA0E94224E0E946E
:102270006548E5E2F2E0A0E1B1E20E94C04E0E94B2
:102280005D480E946C48A4E2B2E00D911127015014
:102290001040A0E3B2E00D931C93A0E3B2E00D91D7
:1022A0001C9140E250E00E94864DA0E3B2E00D9305
:1022B0001C93A5E2B2E00D91112701501040A2E35A
:1022C000B2E00D931C93A2E3B2E00D911C9148E0A3
:1022D00050E00E94864DA2E3B2E00D931C93A0E370
:1022E000B2E00D911C91A2E3B2E04D915C91040F1C
:1022F000151FA0E3B2E00D931C9381E080932702A9
:1023000000912702083018F011F00C94ED110091A3
:10231000300240912702040FA6E8B3E00C93EAE8EC
:10232000F3E70E94224EA7E2B2E08C919927A0E247
:10233000B2E00E94D54D80912002A6E8B3E0AD90B6
:10234000BB24A0EDB3E0AA0DBB1D8C93E6E8F3E03F
:10235000A190BB24EBE4F0E0EA0DFB1DA0E2B2E0AB
:102360007BE70E94904FEEE3F4EA0E94224E0E9427
:102370006548E7E2F2E0A0E1B1E20E94C04E0E94AF
:102380005D48ECE0F4EA0E94224E0E946548D201CA
:10239000E6E8F3E0A190BB24E0EDF3E0EA0DFB1DDD
:1023A0000E944D4FD2010E945F48E4E4F4EA0E948B
:1023B000224E0E946548E6E8F3E0A0E1B1E20E9407
:1023C000C04E0E945D480E946C48A7E2B2E08C912A
:1023D0008F5F8C9310F40C948011A5E2B2E08C9185
:1023E0008F5F8C9310F40C942C11A4E2B2E08C91CA
:1023F0008F5F8C9310F40C941211E9EFF0E0A0E1E0
:10240000BB2780E08C937BE70E94904F80E0809315
:10241000200281E08093240200912402043018F00D
:1024200011F00C9480120CE211E020E030E0A4E204
:10243000B2E0AD90BB24AEE6B4E0AA0CBB1CAA0C83
:10244000BB1CAA0DBB1D0D931D932D933C93E4E281
:10245000F2E0A190BB24E8ECF0E0AA0CBB1CAA0CB3
:10246000BB1CEA0DFB1DA4E2B2E0AD90BB24AEE6BE
:10247000B4E0AA0CBB1CAA0CBB1CAA0DBB1D94E0AB
:102480007BE70E94934FA0E2B2E08C91A4E2B2E01D
:10249000AD90BB24AEE7B4E0AA0CBB1CAA0CBB1CDD
:1024A000AA0DBB1D8D9388278D938D938C93E4E2A9
:1024B000F2E0A190BB24E8EDF0E0AA0CBB1CAA0C52
:1024C000BB1CEA0DFB1DA4E2B2E0AD90BB24AEE75D
:1024D000B4E0AA0CBB1CAA0CBB1CAA0DBB1D94E04B
:1024E0007BE70E94934FA0E2B2E08C91845C8C93D6
:1024F000A4E2B2E08C918F5F8C9310F40C940C12D8
:1025000081E08093240200912402043018F011F03D
:102510000C94D512AEE1B3E0E2EFF5EA0E94224E50
:102520000E94B34DE4E2F2E0AEE1B3E00E9456480F
:102530000E94C04EE4E2F2E00191112747E050E032
:102540000E94864DE9E0F1E0E00FF11FAEE1B3E05B
:102550007BE70E94A14FE4E2F2E0A190BB24EDEF03
:10256000F0E0AA0CBB1CEA0DFB1D0AE010E0A0E1A4
:10257000BB277BE70E94924FE4E2F2E0A190BB24EC
:10258000E5E0F1E0AA0CBB1CEA0DFB1D0AE010E03F
:10259000A0E1BB277BE70E94924FA4E2B2E08C91BE
:1025A0008F5F8C9310F40C948312EFE0F1E0A0E1C4
:1025B000BB278FE08C937BE70E94904FECE2F1E029
:1025C000A0E1BB278FE08C937BE70E94904FEDE268
:1025D000F1E00CE310E0A0E1BB277BE70E94924F03
:1025E000EFE2F1E00EE110E0A0E1BB277BE70E9403
:1025F000924F0895E6EFF5EA0E94224E0E94654848
:102600000E946C48E0E0F0E0A3E5B3E00E94AC4F2C
:1026100080E080932102A3E1B6E08C9181FB16F06B
:102620000C942513709113067D7F70931306E0E1DF
:10263000F6EA0E94224E0E946548A4ECBAE00E948D
:102640005F480E946C480E94EF1300912C050130F6
:1026500011F00C944F1370912C057E7F70932C0514
:10266000A0E2B2E08C918F5F8C93A1E2B2E08C91FA
:102670008F5F8C93A0E2B2E00C914AE00E94CC4FB5
:102680008C9300912002003011F00C944F13E6E17E
:10269000F6EA0E94224E0E9465480E946C48009112
:1026A0005303013011F00C940B13E8E3F6EA0E9497
:1026B000224E0E9465480E946C48089580E08093F5
:1026C000200280E080932102A4E5B3E088278C9368
:1026D0008EE08093200200912002073118F011F063
:1026E0000C948713E09120020E946F4D082FE0E1C7
:1026F000F0E0A4E5B3E00E9456480E94344FA0E207
:10270000B2E08C918F5F8C9310F40C946B13E4E522
:10271000F3E0A3E4B2E00E946F4FA4E5B3E08827A2
:102720008C938EE08093200200912002073118F0F4
:1027300011F00C94B013E09120020E946F4D082F0D
:10274000E0E1F0E0A4E5B3E00E9456480E94344F77
:10275000A0E2B2E08C918F5F8C9310F40C949413F0
:10276000E3E4F2E0A4E5B3E00E94E44F11F00C943E
:10277000BC1381E080932002A1E2B2E08C918F5FD4
:102780008C9300912002003011F00C94DB1384EF45
:1027900091E00E941F49ECE4F6EA0E94224E0E945A
:1027A0006548E1E2F2E0A0E1B1E20E94C04E0E9481
:1027B0005D480E946C4800912002013081E009F0E0
:1027C00080E08F93009121020A3081E009F080E0DF
:1027D0009F91892B882311F40C9464130895E2E5EA
:1027E000F6EA0E94224E0E946548A4ECBAE00E94DC
:1027F0005F480E946C4881E0E4ECFAE006E00A934E
:10280000AEE1B3E00E947A4FE4ECFAE09CE204E12E
:1028100032E2A0E3B7E00E941650AFE2B7E02C939B
:10282000A0E3B7E00E94DC4F082F063011F00C94B3
:10283000D929E0E3F7E0ACE3B2E00E946F4FECE3AC
:10284000F2E0ACE3B2E00E94F74D8FEF80930C030F
:10285000ACE3B2E0E4E5F6EA0E94224E0E94E24FC9
:1028600011F00C94741480E080930C03A3E4B2E0A4
:10287000ECE5F6EA0E94224E0E94B34DAEE1B3E0D1
:10288000E0E7F6EA0E94224E0E94B34DEEE1F3E04B
:10289000A3E4B2E00E9456480E946F4FA3E4B2E066
:1028A0000E945648E4E8F6EA0E94224E0E94B34D88
:1028B000AEE1B3E0ECEAF3EA0E94224E0E94B34D8F
:1028C000EEE1F3E0A3E4B2E00E9456480E946F4FAD
:1028D000A3E4B2E00E945648EEE5F4EA0E94224EDC
:1028E0000E94B34D0C94D729E2E9F6EA0E94224EE9
:1028F0000E94E24F11F00C949B1480E080930C0333
:10290000A3E4B2E0EAE9F6EA0E94224E0E94B34D47
:102910007091380270627093380281E080935303A3
:10292000E0E0F0E0A3E5B3E07BE70E94904F0E9477
:102930008E0F0C94D729E8ECF6EA0E94224E0E94F2
:10294000E24F11F00C94C51480E080930C030E94B8
:102950005E13A3E4B2E0E0EDF6EA0E94224E0E948C
:10296000B34DE4E5F3E0A3E4B2E00E9456480E94D0
:102970006F4FA3E4B2E00E945648EEE5F4EA0E94ED
:10298000224E0E94B34D0C94D729EAEDF6EA0E943C
:10299000224E0E94E24F11F00C94041500912F0773
:1029A000023011F00C94FF14A5E4B7E00E94054F2B
:1029B000A0E2B2E00C9300912002013110F00C94DF
:1029C000FA1480E080930C03A3E4B2E0E2EEF6EAAE
:1029D0000E94224E0E94B34DE0E2F2E0A3E4B2E096
:1029E0000E9456480E94C04E8091200280932B0581
:1029F0000C94FD1485E080930C030C94021584E084
:102A000080930C030C94D729EAEFF6EA0E94224E39
:102A10000E94E24F11F00C94131600912F07023020
:102A200011F00C940E16A5E4B7E00E94DC4F082FBD
:102A30000C3011F00C94091680E080930C0387E0B1
:102A4000E5E4F7E002E00A93AEE1B3E00E947A4FDA
:102A5000AEE1B3E00E945648E2E0F7EA0E94224E5F
:102A60000E94B34D89E0E5E4F7E002E00A93AEE1AD
:102A7000B3E00E9456480E947A4FAEE1B3E00E9454
:102A80005648E2E0F7EA0E94224E0E94B34D8BE0E6
:102A9000E5E4F7E002E00A93AEE1B3E00E945648B5
:102AA0000E947A4FAEE1B3E00E945F480E946C48FA
:102AB000EEE1F3E0A1E1B2E00E946F4F0E942E4AE6
:102AC000E4E0F7EA0E94224E0E9465480E941B4AF9
:102AD000A1E1B2E00E945F480E946C4881E0E5E419
:102AE000F7E002E00A93AEE1B3E00E947A4FAEE174
:102AF000B3E00E945648E8E0F7EA0E94224E0E94A6
:102B0000B34D83E0E5E4F7E002E00A93AEE1B3E021
:102B10000E9456480E947A4FAEE1B3E00E945648A8
:102B2000E8E0F7EA0E94224E0E94B34D85E0E5E41A
:102B3000F7E002E00A93AEE1B3E00E9456480E943B
:102B40007A4FAEE1B3E00E945F480E946C48EEE12C
:102B5000F3E0A8E0B2E00E946F4F0E94264AEAE04C
:102B6000F7EA0E94224E0E9465480E941B4AA8E094
:102B7000B2E00E945F480E946C48A3E4B2E0EEE03D
:102B8000F7EA0E94224E0E94B34D0E941B4AE8E0E1
:102B9000F2E0A3E4B2E00E9456480E946F4FA3E423
:102BA000B2E00E945648E8E3F7EA0E94224E0E94F3
:102BB000B34D0E941B4AE1E1F2E0A3E4B2E00E94BF
:102BC00056480E946F4FE5E0F2E00E947E4AABE675
:102BD000B3E08C930E94292B0E94732B0E94A22A9F
:102BE000E2E0F2E00E945F4BA2E8B3E00D931D9398
:102BF0002D933D93E1E0F0E0A2E8B3E094E07BE7C1
:102C00000E94934F709138027061709338020C9457
:102C10000C1686E080930C030C94111684E08093CC
:102C20000C030C94D729ECE3F7EA0E94224E0E9491
:102C3000E24F11F00C94291680E080930C03A3E47A
:102C4000B2E0E4E4F7EA0E94224E0E94B34D0C94F5
:102C5000D729ECE4F7EA0E94224E0E94E24F11F0DD
:102C60000C94691680E080930C030E941B4AE1E1FA
:102C7000F2E0AEE1B3E00E946F4FA3E4B2E0E4E51E
:102C8000F7EA0E94224E0E94B34DEEE1F3E0A3E486
:102C9000B2E00E9456480E946F4FA3E4B2E00E9447
:102CA0005648E2E6F7EA0E94224E0E94B34D0E9487
:102CB0001B4AE8E0F2E0AEE1B3E00E946F4FEEE1C4
:102CC000F3E0A3E4B2E00E9456480E946F4F0C94D8
:102CD000D729E2E7F7EA0E94224E0E94E24F11F064
:102CE0000C94A51680E080930C03E2E8F3E0AEE1DB
:102CF000B3E00E94984BA3E4B2E0EAE7F7EA0E944F
:102D0000224E0E94B34DEEE1F3E0A3E4B2E00E9454
:102D100056480E946F4FA3E4B2E00E945648EEE886
:102D2000F7EA0E94224E0E94B34DE2E8F3E0AEE1E2
:102D3000B3E00E94A04BEEE1F3E0A3E4B2E00E9416
:102D400056480E946F4F0C94D729E6E9F7EA0E9493
:102D5000224E0E94E24F11F00C94AE1700912F0703
:102D6000043011F00C94A917A5E4B7E00E94054FB8
:102D7000A1E2B2E00C9300912102003080E010F05B
:102D800009F081E08F9300912102053081E008F085
:102D900080E09F918923882311F40C94A417AAE55D
:102DA000B7E00E94054FA0E2B2E00C930091200230
:102DB000003080E010F009F081E08F930091200254
:102DC000053081E008F080E09F918923882311F489
:102DD0000C949F1780E080930C03EFE6F7E0AEE1E0
:102DE000B3E00E946F4FA1E2B2E00D9111270150B4
:102DF0001040A0E3B2E00D931C93A0E3B2E00D916C
:102E00001C9144E050E00E94864DA0E3B2E00D9397
:102E10001C93A0E3B2E00D911C91A0E2B2E04D91B1
:102E20005527040F151FA0E3B2E00D931C93EEE9A4
:102E3000F7EA0E94224E0E946548E0E3F2E0A0E13A
:102E4000B1E20E94B04E0E945D480E946C48EEE1E3
:102E5000F3E00E94334BA0E3B2E0AD90BD90A9E84F
:102E6000B3E0AA0CBB1CAA0CBB1CAA0DBB1D0D9386
:102E70001D932D933D93E0E3F2E0A190B190E6E045
:102E8000F0E0AA0CBB1CAA0CBB1CEA0DFB1DA0E3C6
:102E9000B2E0AD90BD90A9E8B3E0AA0CBB1CAA0CAF
:102EA000BB1CAA0DBB1D94E07BE70E94934FE0E39F
:102EB000F2E0A190B190E9E8F3E0AA0CBB1CAA0CE7
:102EC000BB1CEA0DFB1DAEE1B3E00E94984BA3E4EE
:102ED000B2E0E8EAF7EA0E94224E0E94B34DE0E237
:102EE000F2E0A3E4B2E00E9456480E94C04EA3E480
:102EF000B2E00E945648E8E3F7EA0E94224E0E94A0
:102F0000B34DEEE1F3E0A3E4B2E00E9456480E9424
:102F10006F4FA3E4B2E00E945648E6EBF7EA0E9446
:102F2000224E0E94B34DE1E2F2E0A3E4B2E00E943F
:102F300056480E94C04E0E94700C0C94A21786E066
:102F400080930C030C94A71785E080930C030C94DA
:102F5000AC1784E080930C030C94D729E0ECF7EADB
:102F60000E94224E0E94E24F11F00C947F180091B3
:102F70002F07033011F00C947A18A5E4B7E00E94F3
:102F8000054FA1E2B2E00C9300912102003080E0F5
:102F900010F009F081E08F9300912102053081E06B
:102FA00008F080E09F918923882311F40C94751810
:102FB000AAE5B7E00E94054FA0E2B2E00C930091B1
:102FC0002002003080E010F009F081E08F93009142
:102FD0002002053081E008F080E09F91892388235A
:102FE00011F40C94701880E080930C03A1E2B2E01D
:102FF0000D91112701501040A0E3B2E00D931C93F6
:10300000A0E3B2E00D911C9144E050E00E94864D97
:10301000A0E3B2E00D931C93A0E3B2E00D911C91EC
:10302000A0E2B2E04D915527040F151FA0E3B2E0D6
:103030000D931C93EEE9F7EA0E94224E0E94654828
:10304000E0E3F2E0A0E1B1E20E94B04E0E945D48F0
:103050000E946C48E0E3F2E0A190B190E9E8F3E06F
:10306000AA0CBB1CAA0CBB1CEA0DFB1DAEE1B3E015
:103070000E94984BA3E4B2E0E8ECF7EA0E94224EEB
:103080000E94B34DE0E2F2E0A3E4B2E00E945648B1
:103090000E94C04EA3E4B2E00E945648E0EDF7EA79
:1030A0000E94224E0E94B34DEEE1F3E0A3E4B2E0B1
:1030B0000E9456480E946F4FA3E4B2E00E94564817
:1030C000E6EBF7EA0E94224E0E94B34DE1E2F2E005
:1030D000A3E4B2E00E9456480E94C04E0C947318BC
:1030E00086E080930C030C94781885E080930C03A1
:1030F0000C947D1884E080930C030C94D729E4EDA4
:10310000F7EA0E94224E0E94E24F11F00C94D1186F
:1031100000912F07023011F00C94CC18A5E4B7E011
:103120000E94054FA0E3B2E00D931C93A0E3B2E030
:103130000D911C91003050E0150718F011F00C941F
:10314000A3180C94C71880E080930C03A0E3B2E0AE
:103150008D919C91ADECB3E08D939C93A3E4B2E090
:10316000ECEDF7EA0E94224E0E94B34DEDECF3E045
:10317000A3E4B2E00E9456480E94B04EEAE4F0E0B8
:10318000ADECB3E07BE70E94924F0C94CA1885E047
:1031900080930C030C94CF1884E080930C030C9460
:1031A000D729E2EFF7EA0E94224E0E94E24F11F087
:1031B0000C94EF1880E080930C03A3E4B2E0EAEFF4
:1031C000F7EA0E94224E0E94B34DEDECF3E0A3E437
:1031D000B2E00E9456480E94B04E0C94D729E2E01B
:1031E000F8EA0E94224E0E94E24F11F00C9441191D
:1031F00000912F07023011F00C943C19A5E4B7E0C0
:103200000E94054FA0E3B2E00D931C93A0E3B2E04F
:103210000D911C91003050E0150718F011F00C943E
:1032200013190C94371980E080930C03A0E3B2E0EB
:103230008D919C91ABE0B6E08D939C93A3E4B2E0BA
:10324000EAE0F8EA0E94224E0E94B34DEBE0F6E07D
:10325000A3E4B2E00E9456480E94B04EEDE2F1E0D5
:10326000ABE0B6E07BE70E94924F0C943A1985E000
:1032700080930C030C943F1984E080930C030C940E
:10328000D729E2E2F8EA0E94224E0E94E24F11F0B2
:103290000C945F1980E080930C03A3E4B2E0E8E0B3
:1032A000F5EA0E94224E0E94B34DEBE0F6E0A3E463
:1032B000B2E00E9456480E94B04E0C94D729EAE230
:1032C000F8EA0E94224E0E94E24F11F00C94B119CC
:1032D00000912F07023011F00C94AC19A5E4B7E06F
:1032E0000E94054FA0E3B2E00D931C93A0E3B2E06F
:1032F0000D911C91003050E0150718F011F00C945E
:1033000083190C94A71980E080930C03A0E3B2E02A
:103310008D919C91ADE0B6E08D939C93A3E4B2E0D7
:10332000E2E3F8EA0E94224E0E94B34DEDE0F6E09F
:10333000A3E4B2E00E9456480E94B04EEFE2F1E0F2
:10334000ADE0B6E07BE70E94924F0C94AA1985E0AD
:1033500080930C030C94AF1984E080930C030C94BD
:10336000D729ECE4F8EA0E94224E0E94E24F11F0C5
:103370000C94CF1980E080930C03A3E4B2E0E4E165
:10338000F5EA0E94224E0E94B34DEDE0F6E0A3E480
:10339000B2E00E9456480E94B04E0C94D729E4E552
:1033A000F8EA0E94224E0E94E24F11F00C940B1B8F
:1033B00000912F07053011F00C94061BA5E4B7E02F
:1033C0000E94054FA1E2B2E00C930091210200306F
:1033D00080E010F009F081E08F9300912102053028
:1033E00081E008F080E09F918923882311F40C94F8
:1033F000011BAAE5B7E00E94054FA2E2B2E00C93E0
:1034000000912202003080E010F009F081E08F93FB
:1034100000912202053081E008F080E09F9189232D
:10342000882311F40C94FC1AAFE6B7E00E94054F14
:10343000A0E2B2E00C9300912002003080E010F096
:1034400009F081E08F9300912002093081E008F0BB
:1034500080E09F918923882311F40C94F71AA1E24C
:10346000B2E00D91112701501040A0E3B2E00D939E
:103470001C93A0E3B2E00D911C9140E250E00E9449
:10348000864DA0E3B2E00D931C93A2E2B2E00D9151
:10349000112701501040A2E3B2E00D931C93A2E368
:1034A000B2E00D911C9148E050E00E94864DA2E3ED
:1034B000B2E00D931C93A0E3B2E00D911C91A2E346
:1034C000B2E04D915C91040F151FA0E3B2E00D93A3
:1034D0001C93A0E3B2E00D911C91A0E2B2E04D91EB
:1034E0005527040F151FA0E3B2E00D931C93ECE5E4
:1034F000F8EA0E94224E0E946548E0E3F2E0A0E173
:10350000B1E20E94B04E0E945D480E946C48A4E85F
:10351000B7E00E945D4FA3E2B2E00C9380912302DA
:10352000A0E3B2E0AD90BD90A0EDB3E0AA0DBB1D4D
:103530008C93E0E3F2E0A190B190EBE4F0E0EA0DCF
:10354000FB1DA3E2B2E07BE70E94904F80E08093F6
:103550000C03A3E4B2E0E6E6F8EA0E94224E0E94E1
:10356000B34DE0E2F2E0A3E4B2E00E9456480E94CC
:10357000C04EA3E4B2E00E945648E6E7F8EA0E9493
:10358000224E0E94B34DE2E2F2E0A3E4B2E00E94D8
:1035900056480E94C04EA3E4B2E00E945648E4E8B8
:1035A000F8EA0E94224E0E94B34DE1E2F2E0A3E469
:1035B000B2E00E9456480E94C04EA3E4B2E00E94CE
:1035C0005648ECE0F4EA0E94224E0E94B34DA3E478
:1035D000B2E00E945648E0E3F2E0A190B190E0ED45
:1035E000F3E0EA0DFB1D0E944D4F0C94FA1A87E0A0
:1035F00080930C030C94FF1A86E080930C030C94C8
:10360000041B85E080930C030C94091B84E08093D9
:103610000C030C94D729EEE8F8EA0E94224E0E948F
:10362000E24F11F00C94281C00912F07043011F088
:103630000C94231CA5E4B7E00E94054FA1E2B2E080
:103640000C9300912102003080E010F009F081E03D
:103650008F9300912102053081E008F080E09F9176
:103660008923882311F40C941E1CAAE5B7E00E945C
:10367000054FA2E2B2E00C9300912202003080E0FC
:1036800010F009F081E08F9300912202053081E073
:1036900008F080E09F918923882311F40C94191C71
:1036A000AFE6B7E00E94054FA0E2B2E00C930091B4
:1036B0002002003080E010F009F081E08F9300914B
:1036C0002002093081E008F080E09F91892388235F
:1036D00011F40C94141C80E080930C03A1E2B2E07E
:1036E0000D91112701501040A0E3B2E00D931C93FF
:1036F000A0E3B2E00D911C9140E250E00E94864DA3
:10370000A0E3B2E00D931C93A2E2B2E00D91112769
:1037100001501040A2E3B2E00D931C93A2E3B2E08B
:103720000D911C9148E050E00E94864DA2E3B2E06A
:103730000D931C93A0E3B2E00D911C91A2E3B2E0C3
:103740004D915C91040F151FA0E3B2E00D931C9303
:10375000A0E3B2E00D911C91A0E2B2E04D9155279B
:10376000040F151FA0E3B2E00D931C93E6E9F8EAFD
:103770000E94224E0E946548E0E3F2E0A0E1B1E23F
:103780000E94B04E0E945D480E946C48A3E4B2E0E3
:10379000EEE3F4EA0E94224E0E94B34DE0E2F2E032
:1037A000A3E4B2E00E9456480E94C04EA3E4B2E0F7
:1037B0000E945648E6E7F8EA0E94224E0E94B34D66
:1037C000E2E2F2E0A3E4B2E00E9456480E94C04E5A
:1037D000A3E4B2E00E945648E4E8F8EA0E94224ED0
:1037E0000E94B34DE1E2F2E0A3E4B2E00E94564849
:1037F0000E94C04EA3E4B2E00E945648ECE0F4EA16
:103800000E94224E0E94B34DA3E4B2E00E945648AB
:10381000E0E3F2E0A190B190E0EDF3E0EA0DFB1DF2
:103820000E944D4F0C94171C87E080930C030C945E
:103830001C1C86E080930C030C94211C85E0809373
:103840000C030C94261C84E080930C030C94D72961
:10385000E4EAF8EA0E94224E0E94E24F11F00C9432
:10386000861C00912F07023011F00C94811CA5E4F6
:10387000B7E00E94054FA1E2B2E00C930091210253
:10388000003080E010F009F081E08F930091210278
:10389000053081E008F080E09F918923882311F4AE
:1038A0000C947C1C80E080930C03A5E4B7E00E949C
:1038B000054FA7E8B3E00C93E5E0F0E0A7E8B3E03C
:1038C0007BE70E94904FA3E4B2E0ECEAF8EA0E94A2
:1038D000224E0E94B34DE7E8F3E0A3E4B2E00E9479
:1038E00056480E94C04E0E94700C70914005726054
:1038F000709340050C947F1C85E080930C030C941E
:10390000841C84E080930C030C94D729EAECF8EA39
:103910000E94224E0E94E24F11F00C94A91C80E0FC
:1039200080930C03A3E4B2E0E0E6F4EA0E94224EA6
:103930000E94B34DE7E8F3E0A3E4B2E00E945648EA
:103940000E94C04E70916E04706470936E040C946B
:10395000D729E2EDF8EA0E94224E0E94E24F11F0D0
:103960000C942C1D00912F07033011F00C94271D8F
:10397000A5E4B7E00E94054FA1E2B2E00C930091EC
:103980002102003080E010F009F081E08F93009177
:103990002102053081E008F080E09F91892388238F
:1039A00011F40C94221D80E080930C03AAE5B7E08B
:1039B0000E945D4FA1E2B2E0AD90BB24A7E8B3E066
:1039C000AA0DBB1D0C93E1E2F2E0A190BB24E5E05F
:1039D000F0E0EA0DFB1DA1E2B2E0AD90BB24A7E848
:1039E000B3E0AA0DBB1D7BE70E94904FA3E4B2E0B9
:1039F000EAEDF8EA0E94224E0E94B34DE7E8F3E0B8
:103A0000A3E4B2E00E9456480E94C04EA3E4B2E094
:103A10000E945648E8E3F7EA0E94224E0E94B34D06
:103A2000A3E4B2E00E945648E1E2F2E0A190BB2498
:103A3000E7E8F3E0EA0DFB1D0E944D4F0E94700C79
:103A40000C94251D85E080930C030C942A1D84E0C2
:103A500080930C030C94D729E8EFF8EA0E94224ED9
:103A60000E94E24F11F00C94861D00912F07023046
:103A700011F00C94811D00912102003080E010F0C3
:103A800009F081E08F9300912102053081E008F078
:103A900080E09F918923882311F40C947C1D80E0A1
:103AA00080930C03A3E4B2E0E0E0F9EA0E94224E26
:103AB0000E94B34DE7E8F3E0A3E4B2E00E94564869
:103AC0000E94C04EA3E4B2E00E945648E4E1F9EA45
:103AD0000E94224E0E94B34DA3E4B2E00E945648D9
:103AE000E1E2F2E0A190BB24E7E8F3E0EA0DFB1D80
:103AF0000E944D4F0C947F1D85E080930C030C9425
:103B0000841D84E080930C030C94D729E8E1F9EA42
:103B10000E94224E0E94E24F11F00C942D1E009143
:103B20002F07033011F00C94281EA5E4B7E00E9483
:103B3000054FA4E2B2E00C9300912402003080E033
:103B400010F009F081E08F9300912402053081E0AC
:103B500008F080E09F918923882311F40C94231EA0
:103B6000AAE5B7E00E94054FACE2B2E00D931D93C9
:103B70002D933D93ACE2B2E00D911D912D913C91BE
:103B8000A4E2B2E0AD90BB24AEE6B4E0AA0CBB1C4C
:103B9000AA0CBB1CAA0DBB1D0D931D932D933C932A
:103BA000E4E2F2E0A190BB24E8ECF0E0AA0CBB1C3C
:103BB000AA0CBB1CEA0DFB1DACE2B2E094E07BE773
:103BC0000E94934F80E080930C03A3E4B2E0E0E214
:103BD000F9EA0E94224E0E94B34DE4E2F2E0A3E42F
:103BE000B2E00E9456480E94C04EA3E4B2E00E9498
:103BF0005648E2E0F7EA0E94224E0E94B34DE4E20A
:103C0000F2E0A190BB24EEE6F4E0AA0CBB1CAA0CE7
:103C1000BB1CEA0DFB1DA3E4B2E00E9456480E94C3
:103C2000B34EE4E2F2E0A190BB24EEE6F4E0AA0C8D
:103C3000BB1CAA0CBB1CEA0DFB1DA2E9B4E00E9450
:103C4000B34E0C94261E83E080930C030C942B1E21
:103C500084E080930C030C94D729E6E3F9EA0E94F0
:103C6000224E0E94E24F11F00C94D41E00912F07B7
:103C7000033011F00C94CF1EA5E4B7E00E94054F6D
:103C8000A4E2B2E00C9300912402003080E010F036
:103C900009F081E08F9300912402053081E008F063
:103CA00080E09F918923882311F40C94CA1EAAE511
:103CB000B7E00E94054FACE2B2E00D931D932D9347
:103CC0003D93ACE2B2E00D911D912D913C91A4E2A7
:103CD000B2E0AD90BB24AEE7B4E0AA0CBB1CAA0CCA
:103CE000BB1CAA0DBB1D0D931D932D933C93E4E2C9
:103CF000F2E0A190BB24E8EDF0E0AA0CBB1CAA0CFA
:103D0000BB1CEA0DFB1DACE2B2E094E07BE70E9435
:103D1000934F80E080930C03A3E4B2E0E0E2F9EA81
:103D20000E94224E0E94B34DE4E2F2E0A3E4B2E02E
:103D30000E9456480E94C04EA3E4B2E00E9456483A
:103D4000E2E0F7EA0E94224E0E94B34DE4E2F2E084
:103D5000A190BB24EEE7F4E0AA0CBB1CAA0CBB1C90
:103D6000EA0DFB1DA3E4B2E00E9456480E94B34E48
:103D7000E4E2F2E0A190BB24EEE7F4E0AA0CBB1C65
:103D8000AA0CBB1CEA0DFB1DA2E9B4E00E94B34ED5
:103D90000C94CD1E83E080930C030C94D21E84E01F
:103DA00080930C030C94D729EEE3F9EA0E94224E8B
:103DB0000E94E24F11F00C94791F00912F070230FE
:103DC00011F00C94741FA5E4B7E00E94054FA4E223
:103DD000B2E00C9300912402003080E010F009F072
:103DE00081E08F9300912402053081E008F080E0AB
:103DF0009F918923882311F40C946F1FA3E4B2E0F0
:103E0000E6E4F9EA0E94224E0E94B34DE4E2F2E0B9
:103E1000A3E4B2E00E9456480E94C04EA3E4B2E080
:103E20000E945648E2E0F7EA0E94224E0E94B34DFB
:103E3000E4E2F2E0A190BB24EEE6F4E0AA0CBB1CA5
:103E4000AA0CBB1CEA0DFB1DA3E4B2E00E9456487D
:103E50000E94B34E80E080930C03E2E5F6EA0E94F4
:103E6000224E0E946548E4E2F2E0A0E1B1E20E9445
:103E7000C04E0E945D48E6ECF3EA0E94224E0E948A
:103E80006548E4E2F2E0A190BB24EEE6F4E0AA0C7F
:103E9000BB1CAA0CBB1CEA0DFB1DA0E1B1E20E94F9
:103EA000B34E0E945D480E946C48EEE4F9EA0E941D
:103EB000224E0E9465480E946C48E4E2F2E0A19024
:103EC000BB24EEE6F4E0AA0CBB1CAA0CBB1CEA0D5A
:103ED000FB1DA2E9B4E00E94B34E0C94721F83E074
:103EE00080930C030C94771F84E080930C030C9454
:103EF000D729E2E5F9EA0E94224E0E94E24F11F032
:103F00000C941E2000912F07023011F00C94192000
:103F1000A5E4B7E00E94054FA4E2B2E00C93009143
:103F20002402003080E010F009F081E08F930091CE
:103F30002402053081E008F080E09F9189238823E6
:103F400011F40C941420A3E4B2E0EAE5F9EA0E942B
:103F5000224E0E94B34DE4E2F2E0A3E4B2E00E94FC
:103F600056480E94C04EA3E4B2E00E945648E2E0E8
:103F7000F7EA0E94224E0E94B34DE4E2F2E0A190E3
:103F8000BB24EEE7F4E0AA0CBB1CAA0CBB1CEA0D98
:103F9000FB1DA3E4B2E00E9456480E94B34E80E0AD
:103FA00080930C03E2E5F6EA0E94224E0E946548E7
:103FB000E4E2F2E0A0E1B1E20E94C04E0E945D485E
:103FC000E6ECF3EA0E94224E0E946548E4E2F2E049
:103FD000A190BB24EEE7F4E0AA0CBB1CAA0CBB1C0E
:103FE000EA0DFB1DA0E1B1E20E94B34E0E945D48C4
:103FF0000E946C48EEE4F9EA0E94224E0E94654855
:104000000E946C48E4E2F2E0A190BB24EEE7F4E009
:10401000AA0CBB1CAA0CBB1CEA0DFB1DA2E9B4E058
:104020000E94B34E0C94172083E080930C030C94F1
:104030001C2084E080930C030C94D729E6E6F9EA6F
:104040000E94224E0E94E24F11F00C9491200091A8
:104050002F07023011F00C948C20A5E4B7E00E94E9
:10406000054FA4E2B2E00C9300912402003080E0FE
:1040700010F009F081E08F9300912402053081E077
:1040800008F080E09F918923882311F40C94872005
:1040900080E080930C030091240241E0041BA0E225
:1040A000B2E00C9380912002A0E4B5E00E940D4E96
:1040B0000E94034E9C91982B9C93A3E4B2E0EEE601
:1040C000F9EA0E94224E0E94B34DE4E2F2E0A3E43A
:1040D000B2E00E9456480E94C04EA3E4B2E00E94A3
:1040E0005648E6ECF3EA0E94224E0E94B34DA3E448
:1040F000B2E00E945648E0E4F5E00E944D4FA2E98C
:10410000B4E0E0E4F5E00E944D4F0C948A2083E097
:1041100080930C030C948F2084E080930C030C9408
:10412000D729E2E8F9EA0E94224E0E94E24F11F0FC
:104130000C94CF2000912F07023011F00C94CA206C
:10414000A5E4B7E00E94054FA9EDB4E00D931D93DF
:104150002D933D93E4EFF0E0A9EDB4E094E07BE72C
:104160000E94934FA3E4B2E0EAE8F9EA0E94224EEB
:104170000E94B34DE9EDF4E0A3E4B2E00E9456489A
:104180000E94B34EE9EDF4E0A2E9B4E00E94B34E20
:104190000C94CD2084E080930C030C94D729E2EAA0
:1041A000F9EA0E94224E0E94E24F11F00C94F32093
:1041B00080E080930C03A3E4B2E0EAEAF9EA0E940B
:1041C000224E0E94B34DE9EDF4E0A3E4B2E00E9478
:1041D00056480E94B34EE9EDF4E0A2E9B4E00E9433
:1041E000B34E0C94D729E4EBF9EA0E94224E0E94C8
:1041F000E24F11F00C940E2180E080930C0370913B
:104200006E04746070936E04A3E4B2E0ECEBF9EA20
:104210000E94224E0E94B34D0C94D729E4ECF9EA97
:104220000E94224E0E94E24F11F00C944B2100910B
:104230002F07023011F00C94462180E080930C038C
:10424000A5E4B7E00E94054FA1E4B5E00C93E8EFC8
:10425000F0E0A1E4B5E07BE70E94904FA3E4B2E078
:10426000ECECF9EA0E94224E0E94B34DE1E4F5E045
:10427000A3E4B2E00E9456480E94C04EE1E4F5E09B
:10428000A2E9B4E00E94C04E0C94492184E08093DE
:104290000C030C94D729EEEDF9EA0E94224E0E94FD
:1042A000E24F11F00C946F2180E080930C03A3E4A3
:1042B000B2E0E6EEF9EA0E94224E0E94B34DE1E43C
:1042C000F5E0A3E4B2E00E9456480E94C04EE1E44B
:1042D000F5E0A2E9B4E00E94C04E0C94D729ECEEC0
:1042E000F9EA0E94224E0E94E24F11F00C948A21BA
:1042F00080E080930C037091220578607093220512
:10430000A3E4B2E0E4EFF9EA0E94224E0E94B34D2A
:104310000C94D729EEEFF9EA0E94224E0E94E24F58
:1043200011F00C94C12100912F07023011F00C9470
:10433000BC2180E080930C03A5E4B7E00E94054F08
:10434000A8E5B5E00C93E9EFF0E0A8E5B5E07BE780
:104350000E94904FA3E4B2E0E6E0FAEA0E94224E07
:104360000E94B34DE8E5F5E0A3E4B2E00E945648B0
:104370000E94C04E0C94BF2184E080930C030C94E7
:10438000D729ECE1FAEA0E94224E0E94E24F11F096
:104390000C94DF2180E080930C03A3E4B2E0ECE90D
:1043A000F4EA0E94224E0E94B34DE8E5F5E0A3E452
:1043B000B2E00E9456480E94C04E0C94D729E4E215
:1043C000FAEA0E94224E0E94E24F11F00C9422223F
:1043D00000912F07023011F00C941D22A5E4B7E0E4
:1043E0000E94054FA9E5B5E00D931C93EAEFF0E0BC
:1043F000A9E5B5E07BE70E94924F80E080930C0333
:10440000A3E4B2E0ECE2FAEA0E94224E0E94B34D2D
:10441000E9E5F5E0A3E4B2E00E9456480E94B04E00
:10442000E9E5F5E0A2E9B4E00E94B04E70914005E4
:104430007260709340050C94202284E080930C03FA
:104440000C94D729ECE4FAEA0E94224E0E94E24F33
:1044500011F00C945B2200912F07013011F00C94A5
:10446000562280E080930C03A3E4B2E0E4E5FAEA8C
:104470000E94224E0E94B34DE9E5F5E0A3E4B2E0CC
:104480000E9456480E94B04EA3E4B2E00E945648F3
:10449000EEE5F4EA0E94224E0E94B34DE9E5F5E014
:1044A000A2E9B4E00E94B04E0C94592284E08093BB
:1044B0000C030C94D729E8E6FAEA0E94224E0E94E7
:1044C000E24F11F00C94A52200912F07023011F059
:1044D0000C94A022A5E4B7E00E94054FA0E2B2E050
:1044E0000C9300912002023010F00C949B2280E08B
:1044F00080930C0300912002003011F00C94832271
:104500005F980C9484225F9AA3E4B2E0E0E7FAEAB1
:104510000E94224E0E94B34DABE2B0E08C9187FB2B
:10452000A3E4B2E00E9456480E94134E8D93882760
:104530008C930C949E2283E080930C030C94A32212
:1045400084E080930C030C94D729EAE7FAEA0E94EE
:10455000224E0E94E24F11F00C94D62200912F07B8
:10456000023011F00C94D12280E080930C03A5E47A
:10457000B7E00E94054FADE5B5E00D931C93A3E4B1
:10458000B2E0E2E8FAEA0E94224E0E94B34DEDE565
:10459000F5E0A3E4B2E00E9456480E94B04E0C94AD
:1045A000D42284E080930C030C94D729EAE9FAEA38
:1045B0000E94224E0E94E24F11F00C940E230091B3
:1045C0002F07023011F00C94092380E080930C0334
:1045D000A5E4B7E00E94054FABE5B5E00D931C9351
:1045E000ECEFF0E0ABE5B5E07BE70E94924FA3E48F
:1045F000B2E0E2EAFAEA0E94224E0E94B34DEBE5F5
:10460000F5E0A3E4B2E00E9456480E94B04E0C943C
:104610000C2384E080930C030C94D729ECEBFAEA8A
:104620000E94224E0E94E24F11F00C94502380E031
:1046300080930C03A3E4B2E0E4ECFAEA0E94224E79
:104640000E94B34DEBE5F5E0A3E4B2E00E945648CA
:104650000E94B04EA3E4B2E00E945648E4EDFAEAAC
:104660000E94224E0E94B34DEDE5F5E0A3E4B2E0D6
:104670000E9456480E94B04EA3E4B2E00E94564801
:10468000E0EEFAEA0E94224E0E94B34DEFE5F5E01B
:10469000A3E4B2E00E9456480E94C04E0C94D72971
:1046A000EEEEFAEA0E94224E0E94E24F11F00C94C4
:1046B000752380E080930C03A5E4B7E00E94054FCA
:1046C000AFE5B5E00C93A3E4B2E0E6EFFAEA0E94AE
:1046D000224E0E94B34DEFE5F5E0A3E4B2E00E9464
:1046E00056480E94C04E0C94D729E6E0FBEA0E948F
:1046F000224E0E94E24F11F00C940C2480E0809333
:104700000C03A3E4B2E0EEE0FBEA0E94224E0E941A
:10471000B34D81E08093200200912002043018F014
:1047200011F00C940A240091200241E0041BA4E241
:10473000B2E00C9380912402A8E9B5E00E940D4EEE
:104740000E94034E0C900822689409F4E89416F035
:104750000C9402240027442780912402A0E2B0E0B8
:104760000E940D4E0E94034E0C900822689409F49A
:10477000E89400F980912402A2E7B5E00E940D4E72
:104780000E94034E0C900822689409F4E89440F9C2
:10479000042700FBA8E3B2E08C9187F98C93E0E258
:1047A000F2E00191112747E050E00E94864DECE6CF
:1047B000F5E0E00FF11FA3E4B2E00E9456480E942A
:1047C0006F4FA3E4B2E00E945648ECE0F4EA0E9486
:1047D000224E0E94B34DA8E3B2E08C9187FBA3E484
:1047E000B2E00E9456480E94134E8D9388278C9306
:1047F000A3E4B2E00E945648E6ECF3EA0E94224E9F
:104800000E94B34DA0E2B2E08C918F5F8C9310F4C4
:104810000C948C230C94D729E2E2FBEA0E94224EEE
:104820000E94E24F11F00C94C22400912F07043033
:1048300011F00C94BD24A5E4B7E00E94054FA1E25D
:10484000B2E00C9300912102013011F00C94B024DD
:10485000AAE5B7E00E94054FA0E2B2E00C930091F8
:104860002002003080E010F009F081E08F93009189
:104870002002053081E008F080E09F9189238823A1
:1048800011F40C94AB2480E080930C03009120027F
:1048900041E0041BA2E2B2E00C93AFE6B7E00E9455
:1048A000054FA1E2B2E00C9300912102003011F01B
:1048B0000C94672480912202A8E9B5E00E940D4E75
:1048C0000E94034E8C9189238C930C9472248091C6
:1048D0002202A8E9B5E00E940D4E0E94034E9C9171
:1048E000982B9C93ECE2F1E0A8E9B5E07BE70E940D
:1048F000904FA3E4B2E0EAE2FBEA0E94224E0E945B
:10490000B34DE0E2F2E0A3E4B2E00E9456480E9418
:10491000C04EA3E4B2E00E945648ECE0F4EA0E94E4
:10492000224E0E94B34D80912202A8E9B5E00E9478
:104930000D4E0E94034E0C900822689409F4E894EE
:10494000A3E4B2E00E9456480E94134E8D9388273C
:104950008C930C94AE2485E080930C030C94BB24C0
:1049600080E080930C03A3E4B2E0EEE3FBEA0E9454
:10497000224E0E94B34D0C94C02484E080930C031B
:104980000C94D729ECE5FBEA0E94224E0E94E24FEC
:1049900011F00C949B2500912F07013011F00C941D
:1049A000E62480E080930C03A3E4B2E0E4E6FBEAB3
:1049B0000E94224E0E94B34DA3E4B2E00E945648EA
:1049C000E8E9F5E00E944D4F0C949925023011F072
:1049D0000C941925A5E4B7E00E94054FA1E2B2E0CE
:1049E0000C9300912102013011F00C940C2580E011
:1049F00080930C03A3E4B2E0E4E6FBEA0E94224EBB
:104A00000E94B34DA3E4B2E00E945648E8E9F5E005
:104A10000E944D4F0C94172580E080930C03A3E473
:104A2000B2E0ECE6FBEA0E94224E0E94B34D0C94E9
:104A30009925033011F00C949625A5E4B7E00E9467
:104A4000054FA1E2B2E00C9300912102013011F078
:104A50000C948925AAE5B7E00E94054FA0E2B2E0D8
:104A60000C9300912002003080E010F009F081E00A
:104A70008F9300912002053081E008F080E09F9143
:104A80008923882311F40C94842580E080930C03FF
:104A90000091200241E0041BA2E2B2E00C9380E00E
:104AA00080930C03A3E4B2E0E0E8FBEA0E94224E0C
:104AB0000E94B34DE0E2F2E0A3E4B2E00E94564867
:104AC0000E94C04EA3E4B2E00E945648ECE0F4EA33
:104AD0000E94224E0E94B34D80912202A8E9B5E0C7
:104AE0000E940D4E0E94034E0C900822689409F417
:104AF000E894A3E4B2E00E9456480E94134E8D93BE
:104B000088278C930C94872585E080930C030C9464
:104B1000942580E080930C03A3E4B2E0E8E8FBEA8C
:104B20000E94224E0E94B34D0C94992584E08093FC
:104B30000C030C94D729EEE9FBEA0E94224E0E9456
:104B4000E24F11F00C94372600912F07033011F03B
:104B50000C943226A5E4B7E00E94054FA0E2B2E033
:104B60000C9300912002003080E010F009F081E009
:104B70008F9300912002053081E008F080E09F9142
:104B80008923882311F40C942D2680E080930C0354
:104B90000091200241E0041BA2E2B2E00C93AAE5DE
:104BA000B7E00E94054FA1E2B2E00C930091210210
:104BB000003011F00C94E92580912202A2E7B5E0C3
:104BC0000E940D4E0E94034E8C9189238C930C946D
:104BD000F42580912202A2E7B5E00E940D4E0E94CA
:104BE000034E9C91982B9C93EFE0F1E0A2E7B5E097
:104BF0007BE70E94904FA3E4B2E0E6EAFBEA0E9462
:104C0000224E0E94B34DE0E2F2E0A3E4B2E00E9443
:104C100056480E94C04EA3E4B2E00E945648ECE021
:104C2000F4EA0E94224E0E94B34D80912202A2E734
:104C3000B5E00E940D4E0E94034E0C90082268942D
:104C400009F4E894A3E4B2E00E9456480E94134E8F
:104C50008D9388278C930C94302685E080930C03E9
:104C60000C94352684E080930C030C94D729EAEB4E
:104C7000FBEA0E94224E0E94E24F11F00C94C026E3
:104C800000912F07013011F00C945B2680E0809397
:104C90000C03A3E4B2E0E2ECFBEA0E94224E0E9485
:104CA000B34DA3E4B2E00E945648E2E7F5E00E946B
:104CB0004D4F0C94BE26023011F00C94BB26A5E497
:104CC000B7E00E94054FA0E2B2E00C9300912002F1
:104CD000003080E010F009F081E08F930091200215
:104CE000053081E008F080E09F918923882311F44A
:104CF0000C94B6260091200241E0041BA2E2B2E02F
:104D00000C9380E080930C03A3E4B2E0EAECFBEAAE
:104D10000E94224E0E94B34DE0E2F2E0A3E4B2E032
:104D20000E9456480E94C04EA3E4B2E00E9456483A
:104D3000ECE0F4EA0E94224E0E94B34D80912202E0
:104D4000A2E7B5E00E940D4E0E94034E0C9008228F
:104D5000689409F4E894A3E4B2E00E9456480E94E3
:104D6000134E8D9388278C930C94B92685E08093FD
:104D70000C030C94BE2684E080930C030C94D7297A
:104D8000E2EDFBEA0E94224E0E94E24F11F00C94E9
:104D9000E42800912F07053011F00C94DF28A5E4DA
:104DA000B7E00E94054FA0E2B2E00C93AAE5B7E09D
:104DB0000E94054FA1E2B2E00C93AFE6B7E00E947B
:104DC000054FA2E2B2E00C9300912002013011F0F5
:104DD0000C94C12800912102003080E010F009F00D
:104DE00081E08F9300912102053081E008F080E09E
:104DF0009F918923882311F40C94B42800912202F6
:104E0000013011F00C946027E4E8F7E0A1E2B2E091
:104E10000D91112747E050E00E94864DACE6B5E0C9
:104E2000A00FB11F0E946F4FE1E2F2E00191112744
:104E300047E050E00E94864DE9E0F1E0E00FF11F0D
:104E4000A1E2B2E00D91112747E050E00E94864DAB
:104E5000ACE6B5E0A00FB11F7BE70E94A14F80E058
:104E600080930C03A3E4B2E0EAEDFBEA0E94224E39
:104E70000E94B34DE1E2F2E0A3E4B2E00E945648A2
:104E80000E94C04EA3E4B2E00E945648ECE0F4EA6F
:104E90000E94224E0E94B34DE1E2F2E001911127FF
:104EA00047E050E00E94864DECE6F5E0E00FF11F90
:104EB000A3E4B2E00E9456480E946F4F0C94B228BF
:104EC000023011F00C94DF27A4E8B7E00E94054FF0
:104ED000A3E2B2E00C9300912302023010F00C9494
:104EE000D2270091210241E0041BA4E2B2E00C931E
:104EF00000912302003011F00C948B278091240242
:104F0000A2E7B5E00E940D4E0E94034E8C918923CA
:104F10008C930C94962780912402A2E7B5E00E941E
:104F20000D4E0E94034E9C91982B9C93EFE0F1E074
:104F3000A2E7B5E07BE70E94904F80E080930C03EE
:104F4000A3E4B2E0EEEEFBEA0E94224E0E94B34DD3
:104F5000E1E2F2E0A3E4B2E00E9456480E94C04EB3
:104F6000A3E4B2E00E945648ECE0F4EA0E94224E2C
:104F70000E94B34D80912402A2E7B5E00E940D4E3D
:104F80000E94034E0C900822689409F4E894A3E46C
:104F9000B2E00E9456480E94134E8D9388278C934E
:104FA0000C94DD2780E080930C03A3E4B2E0E4EFEF
:104FB000FBEA0E94224E0E94B34D0C94B2280330AB
:104FC00011F00C944328A4E8B7E00E94054FA1E239
:104FD000B2E0AD90BB24A0E6B5E0AA0CBB1CAA0DC4
:104FE000BB1D0D931C93E1E2F2E0A190BB24EDEF19
:104FF000F0E0AA0CBB1CEA0DFB1DA1E2B2E0AD90F3
:10500000BB24A0E6B5E0AA0CBB1CAA0DBB1D7BE728
:105010000E94924F80E080930C03A3E4B2E0E2E1AF
:10502000FCEA0E94224E0E94B34DE1E2F2E0A3E4CA
:10503000B2E00E9456480E94C04EA3E4B2E00E9433
:105040005648ECE0F4EA0E94224E0E94B34DE1E2A1
:10505000F2E0A190BB24E0E6F5E0AA0CBB1CEA0D4F
:10506000FB1DA3E4B2E00E9456480E94B04EA3E4A8
:10507000B2E00E945648EEE2FCEA0E94224E0E94F4
:10508000B34D0C94B228043011F00C94A728A4E876
:10509000B7E00E94054FA1E2B2E0AD90BB24A8E6C4
:1050A000B5E0AA0CBB1CAA0DBB1D0D931C93E1E23D
:1050B000F2E0A190BB24E5E0F1E0AA0CBB1CEA0DF4
:1050C000FB1DA1E2B2E0AD90BB24A8E6B5E0AA0CBE
:1050D000BB1CAA0DBB1D7BE70E94924F80E0809312
:1050E0000C03A3E4B2E0E6E3FCEA0E94224E0E9435
:1050F000B34DE1E2F2E0A3E4B2E00E9456480E9420
:10510000C04EA3E4B2E00E945648ECE0F4EA0E94EC
:10511000224E0E94B34DE1E2F2E0A190BB24E8E60A
:10512000F5E0AA0CBB1CEA0DFB1DA3E4B2E00E9453
:1051300056480E94B04EA3E4B2E00E945648EEE208
:10514000FCEA0E94224E0E94B34D0C94B22880E0EB
:1051500080930C03A3E4B2E0E2E5FCEA0E94224E55
:105160000E94B34D0C94BF2880E080930C03A3E40D
:10517000B2E0EAE6FCEA0E94224E0E94B34D0C9493
:10518000DD28033011F00C94D22880E080930C03CA
:10519000A3E4B2E0ECE7FCEA0E94224E0E94B34D89
:1051A0000C94DD2880E080930C03A3E4B2E0E4EAF1
:1051B000FCEA0E94224E0E94B34D0C94E22884E047
:1051C00080930C030C94D729E0ECFCEA0E94224E59
:1051D0000E94E24F11F00C94D42900912F07033064
:1051E00011F00C94CF29A5E4B7E00E94054FA0E28E
:1051F000B2E00C93AAE5B7E00E94054FA1E2B2E04D
:105200000C9300912002013011F00C94BE2980E033
:1052100080930C0300912102003080E010F009F02F
:1052200081E08F9300912102053081E008F080E059
:105230009F918923882311F40C94B12900912102B4
:1052400041E0041BA4E2B2E00C93A3E4B2E0E2EF7D
:10525000F5EA0E94224E0E94B34DE1E2F2E0A3E49F
:10526000B2E00E9456480E94C04EA3E4B2E00E9401
:105270005648E8ECFCEA0E94224E0E94B34DE1E25F
:10528000F2E00191112747E050E00E94864DECE6E4
:10529000F5E0E00FF11FA3E4B2E00E9456480E943F
:1052A0006F4FA3E4B2E00E945648E2EDFCEA0E9490
:1052B000224E0E94B34D80912402A2E7B5E00E94E5
:1052C0000D4E0E94034E0C900822689409F4E89455
:1052D000A3E4B2E00E9456480E94134E8D938827A3
:1052E0008C93A3E4B2E00E945648E8EDFCEA0E94E9
:1052F000224E0E94B34DE1E2F2E0A190BB24E0E631
:10530000F5E0AA0CBB1CEA0DFB1DA3E4B2E00E9471
:1053100056480E94B04EA3E4B2E00E945648E0EE28
:10532000FCEA0E94224E0E94B34DE1E2F2E0A1901D
:10533000BB24E8E6F5E0AA0CBB1CEA0DFB1DA3E4C8
:10534000B2E00E9456480E94B04EA3E4B2E00E9430
:105350005648E0EFFCEA0E94224E0E94B34D0C94A6
:10536000BC2980E080930C03A3E4B2E0EAE6FCEA07
:105370000E94224E0E94B34D0C94CD29033011F0AF
:105380000C94CD2980E080930C03A3E4B2E0ECE719
:10539000FCEA0E94224E0E94B34D0C94D22984E074
:1053A00080930C030C94D72981E080930C030C9418
:1053B000DC2982E080930C0300910C03003018F08C
:1053C00011F00C94E5290C94F329ECE6F2E70E9425
:1053D000224EACE0B3E08C9199270E94EF4DA3E4FC
:1053E000B2E00E94B34DA3E4B2E00E945F480E9485
:1053F0006C48089580E080932002709138027F7E8F
:105400007093380200912C05013011F00C94732A2E
:1054100070912C057E7F70932C05A0E2B2E08C91F8
:105420008F5F8C93E8EFFCEA0E94224E0E94654851
:10543000E0E2F2E0A0E1B1E20E94C04E0E945D48CD
:105440000E946C480E94A22A62FA16F40C94712AF7
:10545000E2E0FDEA0E94224E0E9465480E941B4A3B
:10546000A1E1B2E00E945F48EAE0FDEA0E94224E1C
:105470000E9465480E941B4AA8E0B2E00E945F4873
:105480000E946C48E2E0F2E00E945F4BA8E2B2E0CA
:105490000D931D932D933D93A2E8B3E04D915D9143
:1054A0006D917C91A8E2B2E00D911D912D913C91FE
:1054B0000E949D4E1CF011F00C94602A0C94672AF7
:1054C000709138027061709338020C946F2AEEE08C
:1054D000FDEA0E94224E0E9465480E946C480C948E
:1054E000732A0E94B24BA3E1B6E08C9181FB16F0C7
:1054F0000C948D2A709113067D7F70931306E0E162
:10550000F6EA0E94224E0E946548A4ECBAE00E948E
:105510005F480E946C480E94EF13009120020A30FD
:1055200081E009F080E08F93A8E3B2E08C9184FBE6
:1055300081E00EF080E09F91892B882311F40C9478
:10554000022A08950E94C94B62FA16F40C94202B8B
:1055500010ED0E94DD4B10E00E94DD4B0E94C94B14
:1055600062FA16F40C94162B11ED0E94DD4B0E948A
:10557000FC4BA2E0B2E01C930E94FC4BA3E0B2E023
:105580001C930E94FC4BA4E0B2E01C930E94FC4BD5
:10559000ABE6B3E01C930E94FC4BA5E0B2E01C9389
:1055A0000E94FC4BA6E0B2E01C930E94FA4BA7E0DD
:1055B000B2E01C930E94D54B62FA16F00C94EA2AD2
:1055C000E6E3FDEA0E94224E0E9465480E946C4874
:1055D0000C94142B909102020E940F49A2E0B2E0B9
:1055E0008C93909103020E940F49A3E0B2E08C9348
:1055F000909104020E940F49A4E0B2E08C93909134
:1056000005020E940F49A5E0B2E08C93909106023A
:105610000E940F49A6E0B2E08C93909107020E948D
:105620000F49A7E0B2E08C930C941E2BE6E4FDEA50
:105630000E94224E0E9465480E946C480C94282BC0
:10564000EEE6FDEA0E94224E0E9465480E946C48E8
:1056500008950E94C94B62FA16F40C946A2B80914B
:1056600005020E940849A5E0B2E08C9380910602F1
:105670000E940849A6E0B2E08C93809107020E9444
:105680000849A7E0B2E08C9310ED0E94DD4B13E0D7
:105690000E94DD4B10916B030E94DD4B10910502BF
:1056A0000E94DD4B109106020E94DD4B1091070213
:1056B0000E94DD4B0E94D54B62FA16F00C94682BC9
:1056C000E6E9FDEA0E94224E0E9465480E946C486D
:1056D0000C94722BE6EAFDEA0E94224E0E94654875
:1056E0000E946C4808950E94C94B62FA16F40C940B
:1056F000B02B809102020E940849A2E0B2E08C9394
:10570000809103020E940849A3E0B2E08C9380914B
:1057100004020E940849A4E0B2E08C9310ED0E94BC
:10572000DD4B10E00E94DD4B109102020E94DD4B28
:10573000109103020E94DD4B109104020E94DD4B88
:105740000E94D54B62FA16F00C94AE2BE8ECFDEA01
:105750000E94224E0E9465480E946C480C94B82B0F
:10576000E4EDFDEA0E94224E0E9465480E946C48CA
:10577000089581E00E94804D81E00E94804D84E088
:105780000E94804D209A289881E090E00E941F4955
:10579000289AEF93FF93ECE9F0E00E941649FF91FD
:1057A000EF912098EF93FF93ECE9F0E00E94164907
:1057B000FF91EF91189B0C94242C209A289884E157
:1057C00090E00E941F49289AEF93FF93ECE9F0E0E4
:1057D0000E941649FF91EF912098EF93FF93ECE917
:1057E000F0E00E941649FF91EF91189B0C94052C54
:1057F000A2EEB4E088278C93ADEEB4E088278C93BA
:1058000081E08093F9040C94C42EEF93FF93ECE3B2
:10581000F1E00E941649FF91EF9118990C941F2C0A
:10582000A2EEB4E088278C93ADEEB4E088278C9389
:1058300081E08093F9040C94C42E0C94222C8BE00C
:105840008093F8040C94412CEF93FF93ECE3F1E088
:105850000E941649FF91EF9118990C943E2CA2EEEC
:10586000B4E088278C93ADEEB4E088278C9381E078
:105870008093F9040C94C42E0C94412C86E18093FF
:10588000F80480E090E0A3E2B5E08D939C937091E2
:105890006E047E7F70936E04709122057068709321
:1058A0002205A3E2B0E00C9100FB81E00EF080E065
:1058B0008F93AEE6B4E08C9180FB81E00EF480E043
:1058C0009F918923882311F40C94682C0C94512CFB
:1058D000AEE6B4E08C9180FB16F40C94A52E80E02B
:1058E0008093F90481E0AC81BD818C93AC81BD8152
:1058F0000C91053018F011F00C946E2D87E0AA8100
:10590000BB818C93AA81BB814C9100E0041718F0F5
:1059100011F00C945B2D80E090E0A3E2B5E08D9354
:105920009C9370916E047E7F70936E04709122053B
:10593000706870932205A3E2B0E00C9100FB81E057
:105940000EF480E08F93AEE6B4E08C9180FB81E0B2
:105950000EF480E09F918923882311F40C94B22CDB
:105960000C949B2CAEE6B4E08C9180FB16F40C9466
:105970003B2DEF93FF93E8E8F0E00E941649FF917A
:10598000EF91189B0C94232D6894AA81BB818C9174
:10599000AC81BD81AD90BB24ACEDB4E0AA0DBB1DC4
:1059A0000E940D4E0E94034E0C9016F0092201C079
:1059B000082A0C9280E090E0A3E2B5E08D939C93DE
:1059C00070916E047E7F70936E04709122057068F2
:1059D00070932205A3E2B0E00C9100FB81E00EF091
:1059E00080E08F93AEE6B4E08C9180FB81E00EF412
:1059F00080E09F918923882311F40C94012D0C944D
:105A0000EA2CAEE6B4E08C9180FB16F00C94212DCC
:105A1000A8E5B5E00C9103FB16F00C94172DE6EF0A
:105A2000FDEA0E94224E0E9465480E946C487091D7
:105A300022057F777093220584E08093F9040C940B
:105A40005B2D0C94392DE894AA81BB818C91AC819B
:105A5000BD81AD90BB24ACEDB4E0AA0DBB1D0E948E
:105A60000D4E0E94034E0C9016F0092201C0082A28
:105A70000C920C94542DA8E5B5E00C9103FB16F0A4
:105A80000C944A2DECEFFDEA0E94224E0E946548DC
:105A90000E946C48709122057F777093220583E005
:105AA0008093F9040C945B2DAA81BB810E94FE4770
:105AB00010F00C94822C0091F904003018F011F0D1
:105AC0000C94642D0C94662D0C946E2DAC81BD81CC
:105AD0008C918F5F8C9310F40C94762C0091F904C8
