:100000000C947200189500001895000018950000D7
:10001000189500001895000018950000189500002C
:10002000189500001895000018950000189500001C
:10003000189500001895000018950000189500000C
:1000400018950000189500001895000018950000FC
:100050000C94280218950000189500000C94590182
:10006000189500000C94C600189500001895000023
:1000700018950000189500001895000018950000CC
:1000800018950000189500001895000018950000BC
:1000900018950000189500001895000018950000AC
:1000A000189500001895000018950000189500009C
:1000B000189500001895000018950000189500008C
:1000C000189500001895000018950000189500007C
:1000D000189500001895000018950000189500006C
:1000E000189500008FEF8DBFC0EBE8E24E2E81E245
:1000F0008EBFD1E2F1E25F2EA89584B7082E882743
:1001000084BF88E199278093600090936000EEEFB0
:10011000FFE1A0E0B2E088278D933197E9F787E609
:100120008093C40080E08093C50088E18093C10083
:100130006624389A399A3A9A279A85E085BD80E0F4
:1001400084BD70916E00716070936E0085E085BD16
:1001500080E08093800085E08093810070916F0043
:10016000716070936F0085E0809381007091C10091
:1001700070687093C10070E07093B9007CE0709378
:10018000B8000E94972178940C943C1D0F921F9206
:100190002F923F924F925F927F92AF92BF920F93B6
:1001A0001F932F933F934F935F936F937F938F93FF
:1001B0009F93AF93BF93CF93DF93EF93FF938FB74B
:1001C0008F938BB78F9388278BBFAAE0B8E080917D
:1001D000C6008C9384E2482F00910A08041711F09E
:1001E0000C94FD0070914803786070934803A1E47B
:1001F000B7E088278C930C943A010D3011F00C94E1
:100200002201A8E4B3E08C9183FB16F00C9420014A
:1002100070914803777F7093480380E0A1E4B7E0D2
:100220000E94ED1E8D9388278C93E1E4F7E0ABE00C
:10023000B8E00E949324709148037460709348035F
:100240000C943A010F3118F011F00C9429010C9420
:100250003A01A8E4B3E08C9183FB16F00C943A01C8
:10026000AAE0B8E08C91A1E4B7E00E94ED1E8D9366
:1002700088278C938F918BBF8F918FBFFF91EF91C8
:10028000DF91CF91BF91AF919F918F917F916F91AE
:100290005F914F913F912F911F910F91BF90AF9020
:1002A0007F905F904F903F902F901F900F901895E8
:1002B00008950F921F922F923F924F925F927F92DA
:1002C000AF92BF920F931F932F933F934F935F93E0
:1002D0006F937F938F939F93AF93BF93CF93DF934E
:1002E000EF93FF938FB78F938BB78F9388278BBF35
:1002F00074E676BDA0E6B4E08C918F5F8C93A0E6A7
:10030000B4E00C9148E00E94D5248C9300916004E5
:10031000003011F00C940A02A1E6B4E00C9140E226
:100320000E94D5248C9381E080936B0400916B0430
:10033000043018F011F00C940502E4ECF7E20E948E
:100340009B23A5E2B2E0AD90BB24A5E6B4E0AA0DE4
:10035000BB1D8C919927A2E6B4E00E945D23809199
:100360006104A2E6B4E00E948A230E9480230C90DC
:100370000822689409F4E894A8E4B3E08C9184F925
:100380008C9300916B04013011F00C94D201A8E41D
:10039000B3E08C9184FBA8E2B0E08C9180F98C935F
:1003A0000C94FD01023011F00C94E101A8E4B3E0DB
:1003B0008C9184FBA8E2B0E08C9181F98C930C9431
:1003C000FD01033011F00C94F001A8E4B3E08C912E
:1003D00084FBA8E2B0E08C9182F98C930C94FD012F
:1003E000043011F00C94FD01A8E4B3E08C9184FB7F
:1003F000A5E2B0E08C9187F98C93ABE6B4E08C91E8
:100400008F5F8C9310F40C949601A1E6B4E08C916C
:100410008F5F8C938F918BBF8F918FBFFF91EF91E7
:10042000DF91CF91BF91AF919F918F917F916F910C
:100430005F914F913F912F911F910F91BF90AF907E
:100440007F905F904F903F902F901F900F90189546
:100450000F921F922F923F924F925F927F92AF9294
:10046000BF920F931F932F933F934F935F936F937D
:100470007F938F939F93AF93BF93CF93DF93EF932C
:10048000FF938FB78F938BB78F9388278BBF87EF9F
:1004900092EC909385008093840070916A0471605F
:1004A00070936A040E94AC1FE8E0F2E0FA93EA93CA
:1004B000E1E1F2E00E943921ADE6B4E00D931D9335
:1004C0002D933D93ADE6B4E00E94A01EEDE6F4E06E
:1004D000A1E1B2E00E9429210E94BF1FEDE6F4E0F5
:1004E000A8E0B2E00E9431210E94B71F0E94AC1F19
:1004F000E1E1F2E0A5E5B4E00E949324E5E5F4E053
:100500000E94C420A1E7B4E00D931D932D933D9369
:1005100081E08093750400917504043018F011F0A7
:100520000C94BA02A5E7B4E0AD90BB24A1E4B4E01A
:10053000AA0CBB1CAA0CBB1CAA0DBB1D4D915D9146
:100540006D917C91A1E7B4E00D911D912D913C91AD
:100550000E94C12311F00C94B202709148037062A2
:1005600070934803A5E7B4E08C918F5F8C9310F4EF
:100570000C948B028F918BBF8F918FBFFF91EF9166
:10058000DF91CF91BF91AF919F918F917F916F91AB
:100590005F914F913F912F911F910F91BF90AF901D
:1005A0007F905F904F903F902F901F900F901895E5
:1005B0000895089508954098E0E5FAE40E949B2389
:1005C0000E94FC1E0E94031FA0E1B1E2E6E7FAE4EC
:1005D0000E949B230E9437230E94F41E0E94031F47
:1005E000A0E1B1E2EAE8FAE40E949B230E943723EB
:1005F0000E94F41E0E94031FA0E1B1E2E2E9FAE4C6
:100600000E949B230E9437230E94F41E0E94031F16
:1006100080E08093660480E08093670480E08093AC
:10062000680481E080936904E1E0F0E0A7E7B3E0CB
:1006300094E00E94C224ECE9FAE40E949B230E9409
:10064000FC1EE7E7F3E0A0E1B1E20E9431210E9445
:10065000F41EECEAFAE40E949B230E94FC1EE7E7EA
:10066000F3E0A0E1B1E20E9429210E94F41E0E9461
:10067000031F81E08093200200912002043018F0D3
:1006800011F00C948103E0E2F2E0A190BB24E5E0DC
:10069000F0E0EA0DFB1DA0E2B2E0AD90BB24ACE7B8
:1006A000B3E0AA0DBB1D0E94BF24EEEAFAE40E944B
:1006B0009B230E94FC1EE0E2F2E0A0E1B1E20E9476
:1006C000E4230E94F41EE0ECFAE40E949B230E94C3
:1006D000FC1ED201E0E2F2E0A190BB24ECE7F3E0E3
:1006E000EA0DFB1D0E947124D2010E94F61E0E9499
:1006F000031FA0E2B2E08C918F5F8C9310F40C94F6
:100700003C03E2ECFAE40E949B230E94FC1E0E9440
:10071000031F81E08093240200912402043018F02A
:1007200011F00C943404ECECFAE40E949B230E9438
:10073000FC1EE4E2F2E0A0E1B1E20E94E4230E94A8
:10074000F41E0E94031F81E0809325020091250280
:10075000043018F011F00C942C04A4E2B2E00D91D6
:10076000112701501040ACE2B2E00D931C93ACE2B3
:10077000B2E00D911C9144E050E00E940A23ACE2EB
:10078000B2E00D931C93ACE2B2E00D911C91A5E296
:10079000B2E04D915527040F151FACE2B2E00D9366
:1007A0001C93ECE2F2E0A190B190E6E0F0E0AA0C3C
:1007B000BB1CAA0CBB1CEA0DFB1DA8E2B2E094E036
:1007C0000E94C224A8E2B2E00D911D912D913C91AE
:1007D000ACE2B2E0AD90BD90ADE7B3E0AA0CBB1CBB
:1007E000AA0CBB1CAA0DBB1D0D931D932D933C930E
:1007F000E2EDFAE40E949B230E94FC1EE5E2F2E097
:10080000A0E1B1E20E94E4230E94F41EE0ECFAE4CD
:100810000E949B230E94FC1EE8E2F2E0A0E1B1E20C
:100820000E9429210E94F41EE8EDFAE40E949B2315
:100830000E94FC1EECE2F2E0A0E1B1E20E94D423AF
:100840000E94F41E0E94031FA5E2B2E08C918F5F0C
:100850008C9310F40C94A603A4E2B2E08C918F5F09
:100860008C9310F40C948C03ECEDFAE40E949B231F
:100870000E94FC1E0E94031F81E0809324020091CD
:100880002402043018F011F00C941805ECECFAE492
:100890000E949B230E94FC1EE4E2F2E0A0E1B1E290
:1008A0000E94E4230E94F41E0E94031F81E08093B3
:1008B000250200912502043018F011F00C94100567
:1008C000E8EEFAE40E949B230E94FC1EE5E2F2E0BF
:1008D000A0E1B1E20E94E4230E94F41E0E94031FE3
:1008E000A4E2B2E00D91112701501040ACE2B2E059
:1008F0000D931C93ACE2B2E00D911C9140E250E0EC
:100900000E940A23ACE2B2E00D931C93A5E2B2E090
:100910000D91112701501040AEE2B2E00D931C93EF
:10092000AEE2B2E00D911C9148E050E00E940A2333
:10093000AEE2B2E00D931C93ACE2B2E00D911C91DB
:10094000AEE2B2E04D915C91040F151FACE2B2E053
:100950000D931C9381E080932702009127020830B9
:1009600018F011F00C94080500912C024091270218
:10097000040FABE7B3E00C93EBE7F3E0A190BB24EB
:10098000EBE4F0E0EA0DFB1DABE7B3E0AD90BB2478
:10099000A2ECB3E0AA0DBB1D0E94BF24E2EFFAE473
:1009A0000E949B230E94FC1EE7E2F2E0A0E1B1E27C
:1009B0000E94E4230E94F41EE0ECFAE40E949B23D0
:1009C0000E94FC1ED201EBE7F3E0A190BB24E2EC15
:1009D000F3E0EA0DFB1D0E947124D2010E94F61E75
:1009E000E8EFFAE40E949B230E94FC1EEBE7F3E091
:1009F000A0E1B1E20E94E4230E94F41E0E94031FC2
:100A0000A7E2B2E08C918F5F8C9310F40C94AD044C
:100A1000A5E2B2E08C918F5F8C9310F40C94590492
:100A2000A4E2B2E08C918F5F8C9310F40C943F049D
:100A3000EAE4F0E0A1ECB3E00E94C124ECEFFAE4B8
:100A40000E949B230E94FC1EE1ECF3E0A0E1B1E2D6
:100A50000E94D4230E94F41E0E94031F0E94FB08E0
:100A6000EAE0FBE40E949B230E94FC1EA9E4B3E0A1
:100A70000E94F61EE2E1FBE40E949B230E94FC1E02
:100A80000E94031F83E680934404E5E0F0E0ACE7B6
:100A9000B3E00E94BF24E4E1FBE40E949B230E9498
:100AA000FC1EECE7F3E0A0E1B1E20E94E4230E9427
:100AB000F41E0E94031F00917C03003018F011F017
:100AC0000C9464050C947B0500917C03053010F0B8
:100AD0000C946E050E9484050C94790580E0809347
:100AE0007C03E2E2FBE40E949B230E94FC1E0E9426
:100AF000031F0C948305E2E3FBE40E949B230E9406
:100B0000FC1E0E94031F089580917C0380932402A1
:100B1000ECECFAE40E949B230E94FC1EE4E2F2E06B
:100B2000A0E1B1E20E94E4230E94F41E0E94031F90
:100B300081E08093250200912502043018F011F025
:100B40000C942606A4E2B2E00D911127015010404A
:100B5000ACE2B2E00D931C93ACE2B2E00D911C91BB
:100B600044E050E00E940A23ACE2B2E00D931C93F3
:100B7000ACE2B2E00D911C91A5E2B2E04D91552797
:100B8000040F151FACE2B2E00D931C93ACE2B2E08F
:100B9000AD90BD90ADE7B3E0AA0CBB1CAA0CBB1C8A
:100BA000AA0DBB1D0D911D912D913C91A8E2B2E0C3
:100BB0000D931D932D933C93A8E2B2E00D911D91EE
:100BC0002D913C91A5E2B2E0AD90BB24A1E4B4E04C
:100BD000AA0CBB1CAA0CBB1CAA0DBB1D0D931D931C
:100BE0002D933C93E6E4FBE40E949B230E94FC1EB1
:100BF000E5E2F2E0A0E1B1E20E94E4230E94F41EEB
:100C0000E0ECFAE40E949B230E94FC1EE8E2F2E082
:100C1000A0E1B1E20E9429210E94F41EE8EDFAE46D
:100C20000E949B230E94FC1EECE2F2E0A0E1B1E2F4
:100C30000E94D4230E94F41E0E94031FA5E2B2E08A
:100C40008C918F5F8C9310F40C949B050895E5E0D4
:100C5000F0E0A0E1BB2781E08C937BE70E94AE240B
:100C6000EAE4F0E004E110E0A0E1BB277BE70E94AA
:100C7000B02481E08093200200912002043018F01B
:100C800011F00C945A06E0E2F2E0A190BB24E5E0FA
:100C9000F0E0EA0DFB1DA0E1BB278FE78C937BE71B
:100CA0000E94AE24A0E2B2E08C918F5F8C9310F48E
:100CB0000C943C06A2E1B3E0E4E5FBE40E949B2334
:100CC0000E943723E2E1F3E00E94C420A1E8B3E0F0
:100CD0000D931D932D933D93A2E1B3E0EEE5FBE46C
:100CE0000E949B230E943723E2E1F3E00E94C4208C
:100CF000A5E8B3E00D931D932D933D93A2E1B3E0DE
:100D0000E8E6FBE40E949B230E943723E2E1F3E044
:100D10000E94C420A9E8B3E00D931D932D933D9349
:100D2000A2E1B3E0E2E7FBE40E949B230E943723A9
:100D3000E2E1F3E00E94C420ADE8B3E00D931D931F
:100D40002D933D93A2E1B3E0ECE7FBE40E949B23EB
:100D50000E943723E2E1F3E00E94C420A1E9B3E05E
:100D60000D931D932D933D93A2E1B3E0E6E8FBE4E0
:100D70000E949B230E943723E2E1F3E00E94C420FB
:100D8000A5E9B3E00D931D932D933D93A2E1B3E04C
:100D9000E0E9FBE40E949B230E943723E2E1F3E0B9
:100DA0000E94C420A9E9B3E00D931D932D933D93B8
:100DB000A2E1B3E0EAE9FBE40E949B230E9437230F
:100DC000E2E1F3E00E94C420ADE9B3E00D931D938E
:100DD0002D933D93A2E1B3E0E4EAFBE40E949B2360
:100DE0000E943723E2E1F3E00E94C420A1EAB3E0CD
:100DF0000D931D932D933D93A2E1B3E0EEEAFBE446
:100E00000E949B230E943723E2E1F3E00E94C4206A
:100E1000A5EAB3E00D931D932D933D93A2E1B3E0BA
:100E2000E8EBFBE40E949B230E943723E2E1F3E01E
:100E30000E94C420A9EAB3E00D931D932D933D9326
:100E4000A2E1B3E0E2ECFBE40E949B230E94372383
:100E5000E2E1F3E00E94C420ADEAB3E00D931D93FC
:100E60002D933D93A2E1B3E0ECECFBE40E949B23C5
:100E70000E943723E2E1F3E00E94C420A1EBB3E03B
:100E80000D931D932D933D93A2E1B3E0E6EDFBE4BA
:100E90000E949B230E943723E2E1F3E00E94C420DA
:100EA000A5EBB3E00D931D932D933D93A2E1B3E029
:100EB000E0EEFBE40E949B230E943723E2E1F3E093
:100EC0000E94C420A9EBB3E00D931D932D933D9395
:100ED000A2E1B3E0EAEEFBE40E949B230E943723E9
:100EE000E2E1F3E00E94C420ADEBB3E00D931D936B
:100EF0002D933D9381E080932502009125020031DE
:100F000018F011F00C94A807E5E2F2E0A190BB24E0
:100F1000E6E0F0E0AA0CBB1CAA0CBB1CEA0DFB1D12
:100F2000A5E2B2E0AD90BB24ADE7B3E0AA0CBB1CD8
:100F3000AA0CBB1CAA0DBB1D94E07BE70E94B12448
:100F4000A5E2B2E08C918F5F8C9310F40C947D0736
:100F500081E08093240200912402043018F011F003
:100F60000C949608ECECFAE40E949B230E94FC1E71
:100F7000E4E2F2E0A0E1B1E20E94E4230E94F41E68
:100F80000E94031F81E08093250200912502043016
:100F900018F011F00C948E08E8EEFAE40E949B23FE
:100FA0000E94FC1EE5E2F2E0A0E1B1E20E94E4232F
:100FB0000E94F41E0E94031FA4E2B2E00D911127CB
:100FC00001501040ACE2B2E00D931C93ACE2B2E0F1
:100FD0000D911C9140E250E00E940A23ACE2B2E085
:100FE0000D931C93A5E2B2E00D9111270150104022
:100FF000AEE2B2E00D931C93AEE2B2E00D911C9113
:1010000048E050E00E940A23AEE2B2E00D931C9348
:10101000ACE2B2E00D911C91AEE2B2E04D915C9178
:10102000040F151FACE2B2E00D931C9381E0809396
:10103000270200912702083018F011F00C9486085E
:1010400000912C0240912702040FABE7B3E00C9310
:10105000E8E0F8E20E949B23A7E2B2E08C91992796
:10106000A0E2B2E00E94592380912002ABE7B3E0F6
:10107000AD90BB24A2ECB3E0AA0DBB1D8C93EBE7B3
:10108000F3E0A190BB24EBE4F0E0EA0DFB1DA0E24D
:10109000B2E07BE70E94AE24E2EFFAE40E949B23D9
:1010A0000E94FC1EE7E2F2E0A0E1B1E20E94E4232C
:1010B0000E94F41EE0ECFAE40E949B230E94FC1EB6
:1010C000D201EBE7F3E0A190BB24E2ECF3E0EA0D00
:1010D000FB1D0E947124D2010E94F61EE8EFFAE483
:1010E0000E949B230E94FC1EEBE7F3E0A0E1B1E22B
:1010F0000E94E4230E94F41E0E94031FA7E2B2E0B4
:101100008C918F5F8C9310F40C941908A5E2B2E0D7
:101110008C918F5F8C9310F40C94C507A4E2B2E01D
:101120008C918F5F8C9310F40C94AB070895E4EFCF
:10113000FBE40E949B230E94FC1E0E94031FE0E030
:10114000F0E0A7E4B3E00E94BF2480E08093210296
:10115000A8E4B3E08C9182FB16F00C94C208709165
:1011600048037B7F70934803EEE0FCE40E949B23DE
:101170000E94FC1EABE0B8E00E94F61E0E94031F16
:101180000E948C0900916A04013011F00C94EC0863
:1011900070916A047E7F70936A04A0E2B2E08C9141
:1011A0008F5F8C93A1E2B2E08C918F5F8C93A0E271
:1011B000B2E00C914AE00E94D5248C930091200269
:1011C000003011F00C94EC08E4E1FCE40E949B2355
:1011D0000E94FC1E0E94031F00914703013011F082
:1011E0000C94A808E6E3FCE40E949B230E94FC1EEA
:1011F0000E94031F089580E08093200280E0809386
:101200002102A9E4B3E088278C938EE0809320022A
:1012100000912002073118F011F00C942409E0919C
:1012200020020E940023082FE0E1F0E0A9E4B3E0EF
:101230000E94ED1E0E945824A0E2B2E08C918F5FC4
:101240008C9310F40C940809E9E4F3E0A7E3B2E00E
:101250000E949324A9E4B3E088278C938EE08093C6
:10126000200200912002073118F011F00C944D0972
:10127000E09120020E940023082FE0E1F0E0A9E4C1
:10128000B3E00E94ED1E0E945824A0E2B2E08C91CF
:101290008F5F8C9310F40C943109E7E3F2E0A9E43A
:1012A000B3E00E94ED2411F00C94590981E0809381
:1012B0002002A1E2B2E08C918F5F8C93009120021A
:1012C000003011F00C94780984EF91E00E949D1F8A
:1012D000EAE4FCE40E949B230E94FC1EE1E2F2E0AF
:1012E000A0E1B1E20E94E4230E94F41E0E94031FC9
:1012F00000912002013081E009F080E08F9300919D
:1013000021020A3081E009F080E09F91892B882337
:1013100011F40C9401090895E0E5FCE40E949B237C
:101320000E94FC1EABE0B8E00E94F61E0E94031F64
:1013300081E0EBE0F8E006E00A93A2E1B3E00E946E
:101340009824EBE0F8E09CE204E132E2A7E7B4E0A5
:101350000E940125A6E7B4E02C93A7E7B4E00E9421
:10136000E524082F063011F00C949511E7E7F4E01E
:10137000A0E3B2E00E949324E0E3F2E0A0E3B2E055
:101380000E9474238FEF80930003A0E3B2E0E2E5B4
:10139000FCE40E949B230E94EB2411F00C94110AA0
:1013A00080E080930003A7E3B2E0EAE5FCE40E945A
:1013B0009B230E943723A2E1B3E0E6E7FAE40E9410
:1013C0009B230E943723E2E1F3E0A7E3B2E00E940F
:1013D000ED1E0E949324A7E3B2E00E94ED1EEEE60C
:1013E000FCE40E949B230E943723A2E1B3E0E2E9E0
:1013F000FAE40E949B230E943723E2E1F3E0A7E393
:10140000B2E00E94ED1E0E949324A7E3B2E00E9486
:10141000ED1EE2E1FBE40E949B230E9437230C9423
:101420009311ECE7FCE40E949B230E94EB2411F053
:101430000C94380A80E080930003A7E3B2E0E4E86C
:10144000FCE40E949B230E9437237091480370683C
:101450007093480381E080934703E0E0F0E0A7E465
:10146000B3E07BE70E94AE240E9427060C94931100
:10147000E2EBFCE40E949B230E94EB2411F00C940D
:10148000620A80E0809300030E94FB08A7E3B2E0B9
:10149000EAEBFCE40E949B230E943723E9E4F3E09B
:1014A000A7E3B2E00E94ED1E0E949324A7E3B2E0FE
:1014B0000E94ED1EE2E1FBE40E949B230E94372381
:1014C0000C949311E4ECFCE40E949B230E94EB2417
:1014D00011F00C94DA0A00917604033011F00C94A8
:1014E000D50AACE8B4E00E942924A0E2B2E00C9353
:1014F00000912002003080E010F009F081E08F932D
:1015000000912002053081E008F080E09F9189235E
:10151000882311F40C94D00AA1EAB4E00E94292493
:10152000A1E2B2E00C9300912102013110F00C9481
:10153000CB0A80E080930003A7E3B2E0ECECFCE48C
:101540000E949B230E943723E0E2F2E0A7E3B2E08F
:101550000E94ED1E0E94E423A7E3B2E00E94ED1E6C
:10156000E0ECFAE40E949B230E943723E1E2F2E0E0
:10157000A7E3B2E00E94ED1E0E94E42380912102C5
:10158000A0E2B2E0AD90BB24A5E6B4E0AA0DBB1D7D
:101590008C930C94CE0A86E0809300030C94D30ABB
:1015A00085E0809300030C94D80A84E080930003C4
:1015B0000C949311EEEDFCE40E949B230E94EB241B
:1015C00011F00C94E90B00917604023011F00C94A8
:1015D000E40BACE8B4E00E94E524082F0C3011F0D5
:1015E0000C94DF0B80E08093000387E0ECE8F4E0EC
:1015F00002E00A93A2E1B3E00E949824A2E1B3E0E2
:101600000E94ED1EE6EEFCE40E949B230E9437231D
:1016100089E0ECE8F4E002E00A93A2E1B3E00E9482
:10162000ED1E0E949824A2E1B3E00E94ED1EE6EEBA
:10163000FCE40E949B230E9437238BE0ECE8F4E05B
:1016400002E00A93A2E1B3E00E94ED1E0E949824FA
:10165000A2E1B3E00E94F61E0E94031FE2E1F3E064
:10166000A1E1B2E00E9493240E94BF1FE8EEFCE4D7
:101670000E949B230E94FC1E0E94AC1FA1E1B2E0CD
:101680000E94F61E0E94031F81E0ECE8F4E002E0F5
:101690000A93A2E1B3E00E949824A2E1B3E00E9481
:1016A000ED1EECEEFCE40E949B230E94372383E0B6
:1016B000ECE8F4E002E00A93A2E1B3E00E94ED1E40
:1016C0000E949824A2E1B3E00E94ED1EECEEFCE43F
:1016D0000E949B230E94372385E0ECE8F4E002E0BF
:1016E0000A93A2E1B3E00E94ED1E0E949824A2E1B9
:1016F000B3E00E94F61E0E94031FE2E1F3E0A8E0BF
:10170000B2E00E9493240E94B71FEEEEFCE40E9418
:101710009B230E94FC1E0E94AC1FA8E0B2E00E9426
:10172000F61E0E94031FA7E3B2E0E2EFFCE40E9472
:101730009B230E9437230E94AC1FE8E0F2E0A7E35E
:10174000B2E00E94ED1E0E949324A7E3B2E00E9443
:10175000ED1EECE1FDE40E949B230E9437230E94D2
:10176000AC1FE1E1F2E0A7E3B2E00E94ED1E0E94AF
:101770009324E5E0F2E00E940F20A0E6B3E08C9312
:101780000E94E5120E942F130E945E12E2E0F2E036
:101790000E94F020A7E7B3E00D931D932D933D9396
:1017A000E1E0F0E0A7E7B3E094E07BE70E94B1243A
:1017B000709148037064709348030C94E20B86E0C8
:1017C000809300030C94E70B84E0809300030C9457
:1017D0009311E0E2FDE40E949B230E94EB2411F0B0
:1017E0000C94FF0B80E080930003A7E3B2E0E8E2F3
:1017F000FDE40E949B230E9437230C949311E0E3A5
:10180000FDE40E949B230E94EB2411F00C943F0CFA
:1018100080E0809300030E94AC1FE1E1F2E0A2E1CE
:10182000B3E00E949324A7E3B2E0E8E3FDE40E9462
:101830009B230E943723E2E1F3E0A7E3B2E00E949A
:10184000ED1E0E949324A7E3B2E00E94ED1EE6E4A1
:10185000FDE40E949B230E9437230E94AC1FE8E016
:10186000F2E0A2E1B3E00E949324E2E1F3E0A7E317
:10187000B2E00E94ED1E0E9493240C949311E6E5C1
:10188000FDE40E949B230E94EB2411F00C947B0C3E
:1018900080E080930003E7E7F3E0A2E1B3E00E9479
:1018A0002921A7E3B2E0EEE5FDE40E949B230E941C
:1018B0003723E2E1F3E0A7E3B2E00E94ED1E0E94CD
:1018C0009324A7E3B2E00E94ED1EE2E7FDE40E944C
:1018D0009B230E943723E7E7F3E0A2E1B3E00E94F5
:1018E0003121E2E1F3E0A7E3B2E00E94ED1E0E94A5
:1018F00093240C949311EAE7FDE40E949B230E9439
:10190000EB2411F00C94840D00917604043011F056
:101910000C947F0DACE8B4E00E942924A1E2B2E06F
:101920000C9300912102003080E010F009F081E07A
:101930008F9300912102053081E008F080E09F91B3
:101940008923882311F40C947A0DA1EAB4E00E9453
:101950002924A0E2B2E00C9300912002003080E044
:1019600010F009F081E08F9300912002053081E0B2
:1019700008F080E09F918923882311F40C94750D61
:1019800080E080930003E6EBF4E0A2E1B3E00E9484
:101990009324A1E2B2E00D91112701501040ACE276
:1019A000B2E00D931C93ACE2B2E00D911C9144E0C7
:1019B00050E00E940A23ACE2B2E00D931C93ACE22B
:1019C000B2E00D911C91A0E2B2E04D915527040FB9
:1019D000151FACE2B2E00D931C93E2E8FDE40E9417
:1019E0009B230E94FC1EECE2F2E0A0E1B1E20E9427
:1019F000D4230E94F41E0E94031FE2E1F3E00E9440
:101A0000C420ACE2B2E0AD90BD90ADE7B3E0AA0C6B
:101A1000BB1CAA0CBB1CAA0DBB1D0D931D932D93C3
:101A20003D93ECE2F2E0A190B190E6E0F0E0AA0C88
:101A3000BB1CAA0CBB1CEA0DFB1DACE2B2E0AD90D6
:101A4000BD90ADE7B3E0AA0CBB1CAA0CBB1CAA0D51
:101A5000BB1D94E07BE70E94B124ECE2F2E0A19090
:101A6000B190EDE7F3E0AA0CBB1CAA0CBB1CEA0D7D
:101A7000FB1DA2E1B3E00E942921A7E3B2E0ECE85C
:101A8000FDE40E949B230E943723E0E2F2E0A7E3FB
:101A9000B2E00E94ED1E0E94E423A7E3B2E00E94A0
:101AA000ED1EECE1FDE40E949B230E943723E2E15E
:101AB000F3E0A7E3B2E00E94ED1E0E949324A7E3A7
:101AC000B2E00E94ED1EEAE9FDE40E949B230E9421
:101AD0003723E1E2F2E0A7E3B2E00E94ED1E0E94AC
:101AE000E4230E9484050C94780D86E08093000323
:101AF0000C947D0D85E0809300030C94820D84E0AE
:101B0000809300030C949311E4EAFDE40E949B236C
:101B10000E94EB2411F00C94550E009176040330D2
:101B200011F00C94500EACE8B4E00E942924A1E21C
:101B3000B2E00C9300912102003080E010F009F037
:101B400081E08F9300912102053081E008F080E070
:101B50009F918923882311F40C944B0EA1EAB4E0E1
:101B60000E942924A0E2B2E00C93009120020030F0
:101B700080E010F009F081E08F93009120020530A1
:101B800081E008F080E09F918923882311F40C9470
:101B9000460E80E080930003A1E2B2E00D91112790
:101BA00001501040ACE2B2E00D931C93ACE2B2E005
:101BB0000D911C9144E050E00E940A23ACE2B2E097
:101BC0000D931C93ACE2B2E00D911C91A0E2B2E047
:101BD0004D915527040F151FACE2B2E00D931C93F5
:101BE000E2E8FDE40E949B230E94FC1EECE2F2E08E
:101BF000A0E1B1E20E94D4230E94F41E0E94031FC0
:101C0000ECE2F2E0A190B190EDE7F3E0AA0CBB1C8E
:101C1000AA0CBB1CEA0DFB1DA2E1B3E00E94292126
:101C2000A7E3B2E0ECEAFDE40E949B230E94372385
:101C3000E0E2F2E0A7E3B2E00E94ED1E0E94E4239E
:101C4000A7E3B2E00E94ED1EE4EBFDE40E949B23BB
:101C50000E943723E2E1F3E0A7E3B2E00E94ED1E29
:101C60000E949324A7E3B2E00E94ED1EEAE9FDE49E
:101C70000E949B230E943723E1E2F2E0A7E3B2E057
:101C80000E94ED1E0E94E4230C94490E86E080938E
:101C900000030C944E0E85E0809300030C94530EC9
:101CA00084E0809300030C949311E8EBFDE40E9420
:101CB0009B230E94EB2411F00C94A20E0091760459
:101CC000023011F00C949D0EACE8B4E00E9429247F
:101CD000A0E2B2E00C9300912002003018F011F065
:101CE0000C94740E0C94980E80E080930003A0E294
:101CF000B2E08C91A1ECB3E08D9388278C93A7E39D
:101D0000B2E0E0ECFDE40E949B230E943723E1EC6B
:101D1000F3E0A7E3B2E00E94ED1E0E94D423EAE4C0
:101D2000F0E0A1ECB3E07BE70E94B0240C949B0EA2
:101D300085E0809300030C94A00E84E08093000360
:101D40000C949311E6EDFDE40E949B230E94EB248A
:101D500011F00C94C00E80E080930003A7E3B2E082
:101D6000EEEDFDE40E949B230E943723E1ECF3E0BB
:101D7000A7E3B2E00E94ED1E0E94D4230C949311BD
:101D8000E6EEFDE40E949B230E94EB2411F00C94EC
:101D9000FC0F00917604053011F00C94F70FACE8BD
:101DA000B4E00E942924A1E2B2E00C930091210248
:101DB000003080E010F009F081E08F930091210263
:101DC000053081E008F080E09F918923882311F499
:101DD0000C94F20FA1EAB4E00E942924A2E2B2E03E
:101DE0000C9300912202003080E010F009F081E0B5
:101DF0008F9300912202053081E008F080E09F91EE
:101E00008923882311F40C94ED0FA6EBB4E00E9413
:101E10002924A0E2B2E00C9300912002003080E07F
:101E200010F009F081E08F9300912002093081E0E9
:101E300008F080E09F918923882311F40C94E80F27
:101E4000A1E2B2E00D91112701501040ACE2B2E0E6
:101E50000D931C93ACE2B2E00D911C9140E250E076
:101E60000E940A23ACE2B2E00D931C93A2E2B2E01E
:101E70000D91112701501040AEE2B2E00D931C937A
:101E8000AEE2B2E00D911C9148E050E00E940A23BE
:101E9000AEE2B2E00D931C93ACE2B2E00D911C9166
:101EA000AEE2B2E04D915C91040F151FACE2B2E0DE
:101EB0000D931C93ACE2B2E00D911C91A0E2B2E054
:101EC0004D915527040F151FACE2B2E00D931C9302
:101ED000EEEEFDE40E949B230E94FC1EECE2F2E089
:101EE000A0E1B1E20E94D4230E94F41E0E94031FCD
:101EF000ABECB4E00E948124A3E2B2E00C938091A9
:101F00002302ACE2B2E0AD90BD90A2ECB3E0AA0D2A
:101F1000BB1D8C93ECE2F2E0A190B190EBE4F0E019
:101F2000EA0DFB1DA3E2B2E07BE70E94AE2480E055
:101F300080930003A7E3B2E0E8EFFDE40E949B2357
:101F40000E943723E0E2F2E0A7E3B2E00E94ED1E38
:101F50000E94E423A7E3B2E00E94ED1EE8E0FEE465
:101F60000E949B230E943723E2E2F2E0A7E3B2E063
:101F70000E94ED1E0E94E423A7E3B2E00E94ED1E42
:101F8000E6E1FEE40E949B230E943723E1E2F2E0B7
:101F9000A7E3B2E00E94ED1E0E94E423A7E3B2E0B3
:101FA0000E94ED1EE0ECFAE40E949B230E9437237E
:101FB000A7E3B2E00E94ED1EECE2F2E0A190B19046
:101FC000E2ECF3E0EA0DFB1D0E9471240C94EB0F90
:101FD00087E0809300030C94F00F86E08093000369
:101FE0000C94F50F85E0809300030C94FA0F84E0C5
:101FF000809300030C949311E0E2FEE40E949B2383
:102000000E94EB2411F00C94191100917604043015
:1020100011F00C941411ACE8B4E00E942924A1E260
:10202000B2E00C9300912102003080E010F009F042
:1020300081E08F9300912102053081E008F080E07B
:102040009F918923882311F40C940F11A1EAB4E025
:102050000E942924A2E2B2E00C93009122020030F7
:1020600080E010F009F081E08F93009122020530AA
:1020700081E008F080E09F918923882311F40C947B
:102080000A11A6EBB4E00E942924A0E2B2E00C936E
:1020900000912002003080E010F009F081E08F9381
:1020A00000912002093081E008F080E09F918923AF
:1020B000882311F40C94051180E080930003A1E2C1
:1020C000B2E00D91112701501040ACE2B2E00D9347
:1020D0001C93ACE2B2E00D911C9140E250E00E94F2
:1020E0000A23ACE2B2E00D931C93A2E2B2E00D91A0
:1020F000112701501040AEE2B2E00D931C93AEE206
:10210000B2E00D911C9148E050E00E940A23AEE23B
:10211000B2E00D931C93ACE2B2E00D911C91AEE2E3
:10212000B2E04D915C91040F151FACE2B2E00D934B
:102130001C93ACE2B2E00D911C91A0E2B2E04D9193
:102140005527040F151FACE2B2E00D931C93E8E293
:10215000FEE40E949B230E94FC1EECE2F2E0A0E160
:10216000B1E20E94D4230E94F41E0E94031FA7E341
:10217000B2E0E2EFFAE40E949B230E943723E0E200
:10218000F2E0A7E3B2E00E94ED1E0E94E423A7E381
:10219000B2E00E94ED1EE8E0FEE40E949B230E9454
:1021A0003723E2E2F2E0A7E3B2E00E94ED1E0E94D4
:1021B000E423A7E3B2E00E94ED1EE6E1FEE40E9404
:1021C0009B230E943723E1E2F2E0A7E3B2E00E9402
:1021D000ED1E0E94E423A7E3B2E00E94ED1EE0ECB6
:1021E000FAE40E949B230E943723A7E3B2E00E94F7
:1021F000ED1EECE2F2E0A190B190E2ECF3E0EA0D2A
:10220000FB1D0E9471240C94081187E08093000349
:102210000C940D1186E0809300030C94121185E05C
:10222000809300030C94171184E0809300030C94B6
:102230009311E6E3FEE40E949B230E94EB2411F03D
:102240000C94721100917604023011F00C946D110F
:10225000ACE8B4E00E942924A1E2B2E00C93009122
:102260002102003080E010F009F081E08F930091AE
:102270002102053081E008F080E09F9189238823C6
:1022800011F40C94681180E080930003ACE8B4E092
:102290000E942924ACE7B3E00C93E5E0F0E0ACE762
:1022A000B3E07BE70E94AE24A7E3B2E0EEE3FEE4F6
:1022B0000E949B230E943723ECE7F3E0A7E3B2E000
:1022C0000E94ED1E0E94E4230E9484050C946B1171
:1022D00085E0809300030C94701184E080930003E8
:1022E0000C949311ECE5FEE40E949B230E94EB24E6
:1022F00011F00C94901180E080930003A7E3B2E00A
:10230000E4E1FBE40E949B230E943723ECE7F3E027
:10231000A7E3B2E00E94ED1E0E94E4230C94931107
:1023200081E0809300030C94981182E08093000375
:1023300000910003003018F011F00C94A1110C94DE
:10234000AF11EAEEF6E20E949B23A0E0B3E08C918D
:1023500099270E946C23A7E3B2E00E943723A7E3EA
:10236000B2E00E94F61E0E94031F089580E0809351
:102370002002709148037F7B7093480300916A04A8
:10238000013011F00C942F1270916A047E7F7093CB
:102390006A04A0E2B2E08C918F5F8C93E4E6FEE4E5
:1023A0000E949B230E94FC1EE0E2F2E0A0E1B1E269
:1023B0000E94E4230E94F41E0E94031F0E945E12EA
:1023C00062FA16F40C942D12EEE6FEE40E949B23B2
:1023D0000E94FC1E0E94AC1FA1E1B2E00E94F61E0A
:1023E000E6E7FEE40E949B230E94FC1E0E94AC1FB5
:1023F000A8E0B2E00E94F61E0E94031FE2E0F2E0B5
:102400000E94F020A8E2B2E00D931D932D933D931E
:10241000A7E7B3E04D915D916D917C91A8E2B2E0A8
:102420000D911D912D913C910E94C1231CF011F042
:102430000C941C120C9423127091480370647093D6
:1024400048030C942B12EAE7FEE40E949B230E94AF
:10245000FC1E0E94031F0C942F120E944321A8E42B
:10246000B3E08C9182FB16F00C94491270914803F2
:102470007B7F70934803EEE0FCE40E949B230E9464
:10248000FC1EABE0B8E00E94F61E0E94031F0E94F3
:102490008C09009120020A3081E009F080E08F93DE
:1024A000A8E4B3E08C9186FB81E00EF080E09F9180
:1024B000892B882311F40C94BE1108950E945A218F
:1024C00062FA16F40C94DC1210ED0E946E2110E0FA
:1024D0000E946E210E945A2162FA16F40C94D212C4
:1024E00011ED0E946E210E948D21A2E0B2E01C93AA
:1024F0000E948D21A3E0B2E01C930E948D21A4E0F4
:10250000B2E01C930E948D21A0E6B3E01C930E94D0
:102510008D21A5E0B2E01C930E948D21A6E0B2E0DF
:102520001C930E948B21A7E0B2E01C930E946621BD
:1025300062FA16F00C94A612E2EAFEE40E949B23D3
:102540000E94FC1E0E94031F0C94D0129091020264
:102550000E948D1FA2E0B2E08C93909103020E9432
:102560008D1FA3E0B2E08C93909104020E948D1F16
:10257000A4E0B2E08C93909105020E948D1FA5E02B
:10258000B2E08C93909106020E948D1FA6E0B2E00B
:102590008C93909107020E948D1FA7E0B2E08C936C
:1025A0000C94DA12E2EBFEE40E949B230E94FC1ED4
:1025B0000E94031F0C94E412EAEDFEE40E949B23A8
:1025C0000E94FC1E0E94031F08950E945A2162FA75
:1025D00016F40C942613809105020E94861FA5E034
:1025E000B2E08C93809106020E94861FA6E0B2E0C2
:1025F0008C93809107020E94861FA7E0B2E08C9323
:1026000010ED0E946E2113E00E946E211091600374
:102610000E946E21109105020E946E211091060207
:102620000E946E21109107020E946E210E94662175
:1026300062FA16F00C942413E2E0FFE40E949B235C
:102640000E94FC1E0E94031F0C942E13E2E1FFE483
:102650000E949B230E94FC1E0E94031F08950E945B
:102660005A2162FA16F40C946C13809102020E94B3
:10267000861FA2E0B2E08C93809103020E94861F25
:10268000A3E0B2E08C93809104020E94861FA4E034
:10269000B2E08C9310ED0E946E2110E00E946E213A
:1026A000109102020E946E21109103020E946E217D
:1026B000109104020E946E210E94662162FA16F0B7
:1026C0000C946A13E4E3FFE40E949B230E94FC1E27
:1026D0000E94031F0C947413E0E4FFE40E949B2308
:1026E0000E94FC1E0E94031F08954F4B00436F6D14
:1026F000616E646F206E6F207265636F6E6F6369C9
:10270000646F004C6F6E676974756420636F6D61F0
:102710006E646F206E6F2076616C696461004E7527
:102720006D65726F206465207573756172696F20C5
:102730006E6F2076616C69646F004E756D65726FA7
:1027400020646520706172616D6574726F732069B9
:102750006E76616C69646F004572726F72206C6F87
:102760006E676974756420706172616D6574726FF3
:102770002031004572726F72206C6F6E67697475DC
:102780006420706172616D6574726F2032005061F7
:1027900072616D6574726F206E6F2076616C696412
:1027A0006F004552524F5238004552524F522053FB
:1027B000442E20496E74656E7465206465206E75C4
:1027C00065766F0000000000030000003300000089
:1027D00033030000333300003333030033C00C00F5
:1027E000FF0FFF0F5555555533333333FFFFFFFFB1
:1027F0000C00FCFFCC00FCFFCC0CFCFFCCCCFCFFA5
:102800000C00FCFFF0FFFFFF000102040810204055
:1028100080004C756E6573004D6172746573004D78
:10282000696572636F6C6573004A756576657300E0
:10283000566965726E65730053616261646F00442E
:102840006F6D696E676F004E6F2076616C0040801F
:1028500000AA840018F8AA02F8E000AA0100E0F833
:10286000AA02F8E000AA0100E0F8AA02F81800AAFB
:10287000020080F0F8AA04F8F08000AA030038AA49
:102880000338F8AA03F838AA033800AA010080E048
:10289000F0F87838AA013878F8F0704000AA020001
:1028A000F8AA03F800AA0400F8AA03F800AA020094
:1028B000F8AA03F800AA0200F8AA02F8F0E08000E3
:1028C000AA0300F8AA02F800AA020080E0F0AA0118
:1028D000F07838AA023878F8F0704000AA0C0003AB
:1028E0007FFFAA01FFF8FE7F0F010F7FFEF8FFAA0E
:1028F00001FF7F0300AA0100E0FCFFAA01FF7F7730
:1029000070777FFFAA01FFFCE000AA0500FFAA0381
:10291000FF00AA05001F7FFFAA01FFE0C0AA01C0B7
:10292000E0F8AA01F8703000AA0200FFAA03FF072E
:10293000AA0407FFAA03FF00AA0200FFAA03FF00E0
:10294000AA0200FFAA02FF0001070F1E78F0FFAAEB
:1029500002FF00AA02001F7FFFAA01FFE0C0AA0138
:10296000C0CEEEFEAA02FE7E00AA0E0001AA03015E
:1029700000AA040001AA030100AA020001AA03019F
:1029800000AA060001AA030100AA040001AA03018B
:1029900000AA080001AA050100AA050001AA030176
:1029A00000AA040001AA030100AA020001AA03016F
:1029B00000AA020001AA020100AA060001AA02015F
:1029C00000AA060001AA050100AA2C00C0F0F8AA7E
:1029D00001F838AA0138F8AA01F8F0E000AA0200CC
:1029E000C0F0AA01F0F838AA0138F8F0AA01F0C046
:1029F00000AA030080C0AA01C0E0F8AA03F800AA58
:102A00000300E0F0F8AA01F838AA0138F8F0AA01AA
:102A1000F0C000AA4E0080E0F0F8FCDECFAA01CFA3
:102A2000C7C100AA02003FFFAA02FFC0AA01C0FF5F
:102A3000AA02FF3F00AA03000301AA010100FFAAA6
:102A400003FF00AA030063E7EFAA01EFCEE6FFAAA7
:102A500001FF7F3F00AA4E0001AA090100AA05005C
:102A600001AA030100AA0A0001AA030100AA0500A5
:102A700001AA040100AAAE0001080802000000003B
:102A8000000000000000065F0600000000070300D1
:102A90000703000000247E247E24000000242B6A0B
:102AA00012000000006313086463000000364956FA
:102AB00020500000000007030000000000003E411D
:102AC000000000000000413E0000000000083E1C25
:102AD0003E0800000008083E080800000000E06012
:102AE00000000000000808080808000000006060FE
:102AF000000000000020100804020000003E5149C0
:102B0000453E00000000427F400000000062514945
:102B100049460000002249494936000000181412B5
:102B20007F100000002F494949310000003C4A490C
:102B300049300000000171090503000000364949D1
:102B40004936000000064949291E000000006C6C4F
:102B5000000000000000EC6C0000000000081422DF
:102B6000410000000024242424240000000041220D
:102B7000140800000002015909060000003E415DF2
:102B8000551E0000007E1111117E0000007F494992
:102B900049360000003E414141220000007F414192
:102BA000413E0000007F494949410000007F09097A
:102BB00009010000003E4149497A0000007F0808F1
:102BC000087F00000000417F4100000000304040CD
:102BD000403F0000007F081422410000007F404079
:102BE00040400000007F0204027F0000007F0204DA
:102BF000087F0000003E4141413E0000007F09097E
:102C000009060000003E4151215E0000007F0909D5
:102C10001966000000264949493200000001017F81
:102C200001010000003F4040403F0000001F2040E5
:102C3000201F0000003F403C403F0000006314089C
:102C40001463000000070870080700000071494580
:102C50004300000000007F41410000000002040822
:102C600010200000000041417F000000000402012C
:102C70000204000080808080808080800000030744
:102C8000000000000020545454780000007F4444A9
:102C900044380000003844444428000000384444CC
:102CA000447F0000003854545408000000087E0996
:102CB000090000000018A4A4A47C0000007F040404
:102CC000780000000000007D40000000004080848B
:102CD0007D000000007F1028440000000000007FFD
:102CE00040000000007C041804780000007C04040C
:102CF00078000000003844444438000000FC44449C
:102D0000443800000038444444FC00000044784447
:102D100004080000000854545420000000043E44FD
:102D200024000000003C40207C000000001C2040EB
:102D3000201C0000003C6030603C0000006C101063
:102D40006C000000009CA0603C0000000064545433
:102D50004C00000000083E414100000000000077E8
:102D600000000000000041413E0800000002010296
:102D700001000000003C2623263C0000001EA1E1CB
:102D800021120000003D40207D0000000038545416
:102D90005509000000205555557800000020555475
:102DA00055780000002055555478000000205755F4
:102DB00057780000001CA2E222140000003855558C
:102DC0005508000000385554550800000038555586
:102DD000540800000000017C41000000000002795E
:102DE000420000000000017C400000000070292427
:102DF0002970000000782F252F780000007C5454A3
:102E0000554500000034547C54580000007E097F72
:102E10004949000000384545390000000038454464
:102E2000390000000039454438000000003C4121D1
:102E30007D000000003D41207C000000009CA1605E
:102E40003D000000003D42423D000000003C41408A
:102E50003D000000001824662400000000483E49A0
:102E60004962000000292A7C2A290000007F0916F7
:102E7000781000000040887E0902000000205455B0
:102E8000557800000000007D4100000000384445F6
:102E900039000000003C40217D000000007A090A52
:102EA00071000000007A11227900000000085555D9
:102EB000555E0000004E51514E0000000030484D5C
:102EC00040200000003C0404040400000404040446
:102ED000041C00000017084C6A500000001708345A
:102EE0002A7800000000307D300000000008140047
:102EF00008140000001408001408000044114411D4
:102F000044110000AA55AA55AA550000BBEEBBEE1D
:102F1000BBEE0000000000FF00000000080808FFF2
:102F2000000000000A0A0AFF0000000008FF00FF7E
:102F30000000000008F808F8000000000A0A0AFE75
:102F4000000000000AFB00FF0000000000FF00FF7F
:102F5000000000000AFA02FE000000000A0B080F41
:102F600000000000080F080F000000000A0A0A0F06
:102F700000000000080808F8000000000000000F32
:102F8000080800000808080F08080000080808F8EA
:102F900008080000000000FF0808000008080808F2
:102FA00008080000080808FF08080000000000FFEB
:102FB0000A0A000000FF00FF08080000000F080BCD
:102FC0000A0A000000FE02FA0A0A00000A0B080BB7
:102FD0000A0A00000AFA02FA0A0A000000FF00FBCF
:102FE0000A0A00000A0A0A0A0A0A00000AFB00FB91
:102FF0000A0A00000A0A0A0B0A0A0000080F080F52
:10300000080800000A0A0AFA0A0A000008F808F884
:1030100008080000000F080F080800000000000F5B
:103020000A0A0000000000FE0A0A000000F808F882
:103030000808000008FF00FF080800000A0A0AFB51
:103040000A0A00000808080F00000000000000F84D
:1030500008080000FFFFFFFFFFFF0000F0F0F0F0A6
:10306000F0F00000FFFFFF0000000000000000FF84
:10307000FFFF00000F0F0F0F0F0F00000018242498
:103080001824000000FE4A4A34000000007F0101BD
:103090000300000000027E027E020000006355492A
:1030A00063000000001824241C04000000FC202001
:1030B0001C00000000080478040000000008557798
:1030C00055080000003E49493E000000004C7202D5
:1030D000724C0000002255593000000000182418DE
:1030E000241800000018247E24180000001C2A2A3E
:1030F0002A000000003C02023C000000002A2A2AAC
:103100002A0000000000242E2400000000514A4A3A
:103110004400000000444A4A51000000000000FC46
:10312000020400000020403F000000000008082AC0
:1031300008080000002412241200000000060909FB
:103140000600000000001818000000000000080041
:10315000000000000030403E0202000000010E01AD
:103160000E00000000090D0A00000000003C3C3C7D
:103170003C000000020C18020000000000000000EB
:10318000000000000000000000000000000000003F
:10319000000000007CFFFF7C000000000000000039
:1031A00000333300000000000000263E1E00002611
:1031B0003E1E0000000000000000000000000000B3
:1031C00000000010F0FE1E10F0FE1E100000021E97
:1031D0001F03021E1F030000000078FCCCFFFFCC81
:1031E000CC8800000000040C0C3F3F0C0F070000CF
:1031F0000000386C6C3880C0E070381C0000181C6F
:103200000E0703011C36361C000000B8FCC6E23E67
:103210001C00000000001F3F3121371E1C36220019
:1032200000000000263E1E0000000000000000001C
:103230000000000000000000000000F0FCFE07019C
:1032400001000000000000030F1F382020000000D4
:10325000000000010107FEFCF0000000000000205B
:1032600020381F0F0300000000000098B8E0F8F8B5
:10327000E0B898000000000C0E030F0F030E0C00C6
:10328000000000808080F0F080808000000000015D
:1032900001010F0F0101010000000000000000000B
:1032A0000000000000000000004C7C3C000000001A
:1032B000000000808080808080808000000000010D
:1032C00001010101010101000000000000000000F7
:1032D0000000000000000000003838380000000046
:1032E000000000000080C0E070381C0E00001C0EC2
:1032F00007030100000000000000F8FE0683C3631E
:10330000331EFEF80000071F1B31303030181F0736
:103310000000000C0C0EFFFF000000000000003059
:1033200030303F3F3030300000001C1E070383C3A5
:10333000E3773E1C0000383C3E37333130303030CC
:1033400000000C0E07C3C3C3C3E77E3C00000C1C87
:103350003830303030391F0E0000C0E070381C0E9D
:10336000FFFF000000000707060606063F3F0606AF
:103370000000787F6763636363E3C38300000C1C12
:103380003830303030381F0F0000C0F0F8DCCEC7C6
:10339000C3C3800000000F1F3930303030391F0F99
:1033A00000000303030303C3F33F0F030000000007
:1033B000303C0F0300000000000000BCFEE7C3C368
:1033C000E7FEBC0000000F1F3930303030391F0FCE
:1033D00000003C7EE7C3C3C3C3E7FEFC000000302F
:1033E0003030381C0E0703000000000000707070C1
:1033F0000000000000000000001C1C1C0000000079
:10340000000000000070707000000000000000006C
:10341000004C7C7C00000000000000C0E0F0381C84
:103420000E070300000000000103070E1C383000E7
:103430000000006060606060606060000000000686
:10344000060606060606060000000003070E1C38E6
:10345000F0E0C00000000030381C0E07030100003F
:1034600000001C1E070383C3E3773E1C000000001E
:1034700000003737000000000000FCFE03F31BFBD8
:10348000FB07FEF800000F1F3033363737360301D5
:1034900000000000E0FC1F1FFCE000000000383FBF
:1034A0000706060606073F380000FFFFC3C3C3C375
:1034B000E7FEBC0000003F3F3030303030391F0F96
:1034C0000000F0FC0E07030303070E0C0000030FBF
:1034D0001C38303030381C0C0000FFFF030303039E
:1034E000070EFCF000003F3F30303030381C0F0337
:1034F0000000FFFFC3C3C3C3C3C3030300003F3FB8
:1035000030303030303030300000FFFFC3C3C3C331
:10351000C3C3030300003F3F0000000000000000A1
:103520000000F0FC0E0703C3C3C3C7C60000030FAF
:103530001C38303030303F3F0000FFFFC0C0C0C0FB
:10354000C0C0FFFF00003F3F0000000000003F3F01
:10355000000000000303FFFF030300000000000061
:1035600030303F3F3030000000000000000000001D
:103570000000FFFF00000E1E3830303030381F07CB
:103580000000FFFFC0E0F0381C0E070300003F3FC3
:10359000000103070E1C38300000FFFF0000000090
:1035A0000000000000003F3F30303030303030301D
:1035B0000000FFFF1E78E0E0781EFFFF00003F3FA5
:1035C0000000010100003F3F0000FFFF0E38F0C087
:1035D0000000FFFF00003F3F00000003071C3F3FCB
:1035E0000000F0FC0E070303070EFCF00000030FC1
:1035F0001C383030381C0F030000FFFF83838383A7
:1036000083C7FE7C00003F3F010101010101000072
:103610000000F0FC0E070303070EFCF00000030F90
:103620001C3830363E1C3F330000FFFF838383830A
:1036300083C7FE7C00003F3F010103070F1D3830A8
:1036400000003C7EE7C3C3C3C3C78E0C00000C1C44
:103650003830303030391F0F000003030303FFFF01
:10366000030303030000000000003F3F00000000D0
:103670000000FFFF000000000000FFFF0000071F28
:103680003830303030381F070000073FF8C00000E6
:10369000C0F83F0700000000010F3E3E0F01000090
:1036A0000000FFFF000080800000FFFF00003F3FA0
:1036B0001C060303061C3F3F0000030F1C30E0E024
:1036C000301C0F030000303C0E030101030E3C30A0
:1036D0000000030F3CF0C0C0F03C0F0300000000EE
:1036E00000003F3F00000000000003030303C3E3AA
:1036F000331F0F030000303C3E3331303030303068
:1037000000000000FFFF03030303000000000000AF
:103710003F3F30303030000000001C3870E0C08087
:10372000000000000000000000000103070E1C184C
:103730000000000003030303FFFF0000000000007F
:10374000303030303F3F0000000070381C0E070E54
:103750001C387000000000000000000000000000A5
:10376000000000000000000000000000C0C0C0C059
:10377000C0C0C0C0C0C0C0C000000000003E7E4647
:103780000000000000000000000000000000000039
:1037900000000040606060606060E0C000001C3EAF
:1037A0003333333333333F3F0000FFFFC06060608B
:1037B00060E0C08000003F3F3030303030381F0FB5
:1037C000000080C0E06060606060C08000000F1F8B
:1037D0003830303030301808000080C0E060606061
:1037E000E0C0FFFF00000F1F3830303030303F3F67
:1037F000000080C0E06060606060C08000000F1F5B
:103800003B333333333313010000000000F0F81C66
:103810000C0C000000000003037F7F030303000083
:103820000000C0E0703030303030F0F00000016354
:103830006766666666733F1F0000FFFFC0606060DA
:10384000E0C0800000003F3F00000000003F3F005C
:10385000000000000060ECEC000000000000000030
:1038600030303F3F303000000000000000000060BA
:10387000ECEC000000000000307060607F3F000052
:10388000000000FFFF0080C0E06000000000003F7B
:103890003F03070F1C383000000000000003FFFF4B
:1038A000000000000000000030303F3F30300000DA
:1038B0000000E0C0E0E0C0C0E0E0C08000003F3FAA
:1038C00000003F3F00003F3F000000E0E0C06060BC
:1038D00060E0C0800000003F3F00000000003F3F6C
:1038E000000080C0E060606060E0C08000000F1FEA
:1038F0003830303030381F0F0000F0F030303030CA
:103900003070E0C000007F7F060C0C0C0C0E07032B
:103910000000C0E0703030303030F0F000000307BD
:103920000E0C0C0C0C067F7F000000E0E0C0606015
:103930006060E0C00000003F3F00000000000000A9
:10394000000000C0E06060606060400000000011A6
:1039500033333333333F1E000000006060FEFE60EF
:103960006060000000000000001F3F303030300079
:103970000000E0E0000000000000E0E000000F1F99
:103980003830303030183F3F000060E080000000E9
:103990000080E06000000001071E38381E070100AB
:1039A0000000E0E00000E0E00000E0E00000071FB1
:1039B000381C0F0F1C381F07000060E0C08000801B
:1039C000C0E06000000030381D0F070F1D383000C8
:1039D0000000000030F0C00000C0F0300000000027
:1039E0000040733F0F03000000004060606060E033
:1039F000E0602000000030383C36333130301000B9
:103A000000000080C0F87C0E0606060000000000E2
:103A1000010F1F3830303000000000000000FFFFB1
:103A2000000000000000000000003F3F0000000018
:103A30000000000606060E7CF8C080000000003082
:103A40003030381F0F01000000004060301030603F
:103A5000406030100000080C0602060C080C06023C
:103A600000000080C060303060C0800000000F0F98
:103A70000C0C0C0C0C0C0F0F84E0809369040E945A
:103A800097080E94DB0283E080936904E2E6FFE48A
:103A90000E949B230E94FC1E0E94031F0E94C821BB
:103AA00080E08A9380E08A9380E08A93EEE4F8E2F3
:103AB0000E949B23882780931D020E94AD22E1E093
:103AC000F0E00E941C1F0E94C821E8E7FAE20E9471
:103AD0009B23AAE1B2E0ED93FD938BB78C9381E039
:103AE00080931F0281E080931E02882780931D022D
:103AF000EAE6FFE40E949B230E94151F83E0809367
:103B00001F0281E080931E02882780931D02A0E19E
:103B1000B1E2ECE7FFE40E949B230E9437230E945E
:103B20000D1F85E080931F0281E080931E0288278D
:103B300080931D02A0E1B1E2EAE8FAE40E949B232F
:103B40000E9437230E940D1F87E080931F0281E0AF
:103B500080931E02882780931D02A0E1B1E2E2E972
:103B6000FAE40E949B230E9437230E940D1FE0E984
:103B7000FFE40E949B230E94FC1E0E94031F83E01F
:103B8000809369040E94B611A8E4B3E08C9186FB8F
:103B900016F00C94C21D81E080936904EEE9FFE405
:103BA0000E949B230E94FC1E0E94031FE1E0F0E0A4
:103BB0000E941C1F0E94C821A8E4B3E08C9182FBE4
:103BC00016F00C94F61D709148037B7F70934803A8
:103BD000EEE0FCE40E949B230E94FC1EABE0B8E0F8
:103BE0000E94F61E0E94031F0E948C0900916A0425
:103BF000013011F00C94741E70916A047E7F7093F2
:103C00006A04A6E2B2E08C918F5F8C930E94AC1F95
:103C1000E8E0F2E0A2E1B3E00E949324A2E1B3E085
:103C20000E94ED1EE4EAFFE40E949B230E943723DA
:103C30000E94AC1FE1E1F2E0A2E1B3E00E94ED1EC0
:103C40000E949324A2E1B3E00E94ED1EE4EAFFE4A7
:103C50000E949B230E94372381E080931F0281E012
:103C600080931E02882780931D02A2E1B3E00E9488
:103C70000F1FE5E0F2E00E940F20A3E4B4E08C9374
:103C80004091440400914304041711F40C94741EF1
:103C90008091430480934404E2E1F8E20E949B2374
:103CA000A3E4B4E08C9199270E946C23A2E1B3E0D5
:103CB0000E943723E6EAFFE40E949B230E94FC1E39
:103CC000E3E4F4E0A0E1B1E20E94E4230E94F41EE8
:103CD000ECEAFAE40E949B230E94FC1EA2E1B3E0FE
:103CE0000E94F61E0E94031FA8E4B3E08C9185FB9E
:103CF00016F00C94901EECEAFFE40E949B230E94B5
:103D0000FC1E0E94031F709148037F7D709348033F
:103D1000E4EBFFE40E949B230E94FC1E0E94031F11
:103D2000A8E4B3E08C9187FB16F00C949E1E709172
:103D300048037F77709348030E94DB020C94DC1DDC
:103D40000D911D912D913C910F5F1F4F2F4F3F4FB4
:103D50003C932E931E930E93089509D00E940A233C
:103D600000FC10D0089503D01ED001F8F9CF002434
:103D7000E89457FF02C009D0689400F80BD010F8FF
:103D80000124089502D009D00895509540954F5FC1
:103D90005F4F0895E89417FF0895009510950F5F01
:103DA0001F4F68940895352F242FE894452B11F464
:103DB00068940895512F402F0027112780E1440F68
:103DC000551F001F111F021B130B416018F4020F37
:103DD000131F4E7F8A9599F708958F938D918823AD
:103DE000E9F711978F910895A0E1B1E28D918823B1
:103DF00011F00CD0FBCF08950E943D23802D11F0CF
:103E000005D0FACF08958DE001D08AE00090C0007F
:103E100005FEFCCF8093C6000895A0E1B1E28D912C
:103E2000882311F00FD0FBCF08950E943D23802DF1
:103E300011F008D0FACF089588EE93E07ED0319744
:103E4000D9F708950C94D92100FC05D0089530D0FD
:103E500005D001F8F9CF37D03FD00895842F952FA2
:103E6000A62FB72FE894452B462B472B11F46894C7
:103E70000895402F512F622F732F002711272227DB
:103E80003327F0E2440F551F661F771F001F111FD5
:103E9000221F331F081B190B2A0B3B0B416028F410
:103EA000080F191F2A1F3B1F4E7FFA9559F70895D7
:103EB0000024E89477FF02C006D0689400F809D087
:103EC00010F80124089512D04F5F5F4F6F4F7F4F5E
:103ED0000895E89437FF0895009510952095309542
:103EE0000F5F1F4F2F4F3F4F689408954095509597
:103EF000609570950895982F82958F70805D8D9351
:103F00009F70905D9D9388278C9308954AE0082FB9
:103F10000E94D5240295802B0895892F8F7090518F
:103F200010F0865FFCCF08953197F1F708956894FB
:103F300062F80895E89462F80895EF93FF93EE27EE
:103F4000E82BE92B31F0E0EAFFE03197F1F7019738
:103F5000D1F7FF91EF9108950E94D802A8E0B2E056
:103F6000E5E0F2E00E94FF1F33970C94DB1FE8E0CE
:103F7000F2E0A5E0B2E00E94ED1F0C94D902E1E16D
:103F8000F2E0A2E0B2E00E94C91F0C94DA02ADE0B8
:103F9000BB27868197810E94B2230D9383819481F0
:103FA0000E94B2230D93808191810E94B2230D93D0
:103FB0000895EDE0FF2782810E94A7238AE38D9375
:103FC00081810E94A7238AE38D9380810E94A72389
:103FD00088278C930895ADE0BB27808191810E9452
:103FE000B2230D93838194810E94B2230D93868125
:103FF00097810E94B2230D930895EDE0FF27808101
:104000000E94A7238FE28D9381810E94A7238FE2D4
:104010008D9382810E94A72388278D93089521D0B4
:104020000F2D069506950F0D0D0D8F2D837021F424
:104030001E2D13300AF40A958E2D8A959927E6E5F0
:10404000F0E40E949B23A8E1BB270E945923080F9C
:1040500047E00C94D5240501010406020400030581
:10406000010393E0ADE002C096E0AAE0B0E08FB7B4
:10407000F89401910D939A95E1F78FBF08950191FE
:10408000119145EB55E00E94B31E440F440FF42EEE
:104090000F31150728F481E0E82E0395D02E24C0B7
:1040A0000C33150728F482E0E82E0E51D02E1CC0E8
:1040B0000150150B4DE651E00E94D31EF40E7CE03A
:1040C0007A95872F9927EAEEF0E40E949B23A2E1DC
:1040D000BB270E9453230217130790F37395E72E13
:1040E000021B130B0395D02E089500001F003B0008
:1040F0005A0078009700B500D400F3001101300198
:104100004E01019111912191308140E851E561E02A
:1041100070E00E94271F042F152F0C944120A1DF6F
:104120000E2D0A95802F0295003220F01F2D13705E
:1041300009F40395DA940D0D11279927E2E5F1E4CE
:104140000E949B23A8E1BB270E945923080F111F3F
:104150000895000F1B2A384755647381909E81DFB4
:104160000F2D11274CE355270E94AD1E55270E0D2C
:10417000151F4CE322273327662777270E94142335
:104180000D0D131F231F08950E94C71F0C94B0200C
:1041900068DFDF92EF92FF920F2D1127222733273E
:1041A0004DE651E060E070E00E941423FF904F2D37
:1041B0004D5F469546955527662777270E94BC2375
:1041C000EF90DF900F931F932F933F930E949020C7
:1041D000222733277F916F915F914F910C94BC23DD
:1041E00043DFAF92BF92CF920E94C92040E851E5D1
:1041F00061E070E00E941423FF90EF90DF900F9336
:104200001F932F933F930E94B0207F916F915F91F6
:104210004F910C94BC23019111912191308140E880
:1042200051E561E070E00E94271F0C941B21019171
:1042300011912191308140E15EE060E070E00E94E8
:10424000271FF42E4CE350E00E94B31EE42ED02E24
:104250000895AF93BF930E940B21BF91AF910C942F
:10426000D91FAF93BF930E948120BF91AF910C944F
:10427000FD1FAAE0BB270E94C91FE991F9910E9486
:10428000EB1F0C94F12051985098599A589A089520
:1042900068944093BC008F939F9388279927019639
:1042A00029F04091BC0047FFFACFE8949F918F918D
:1042B00062F8089544EAECDF4091B900487F483045
:1042C00019F0403109F0689462F8089544E9409388
:1042D000BC004091BC0044FDFCCF08951093BB008E
:1042E00044E8D6DF8F939F9388279927019671F032
:1042F0004091B900487F483FC9F3E894483139F00C
:10430000483229F0403419F0403509F068949F9103
:104310008F9162F8089544E801C044ECB9DF109130
:10432000BB004091B900487F483FD9F308950E94EF
:104330005A21EEE4F3E40E949B235AE10E943D23BC
:10434000102D0E946E215A95C9F70C94662178AE03
:10435000D580003FD300408D142000A1C8DA12811F
:10436000FFD9F1D840A4A6AF0E945A2118E70E94B5
:104370006E21182F09C018E70E945A210E946E2151
:1043800010E40E946E21182F0E946E210C94662169
:104390000E945A2118E70E946E2110E40E946E21AB
:1043A0001127E0E0F4E00E946E213197E1F70C94D0
:1043B0006621EF93FF9350911F025F9370901E024E
:1043C000E0911A02F0911B023BB600901C020BBE5A
:1043D0000E943D23202D0E943D23302D0E943D232D
:1043E000002D0E943D23602D8052482F0E94C92439
:1043F000E40FF51F7CD0CC241124E22E603071F143
:10440000DD24DA94CD2CFF24032F0E943D2329F0D4
:104410000A95E00FF11D6BD003C0F3940A95A9F73C
:10442000FD1408F4DF2CEA9471F7E22EFF24032F29
:10443000319762D0D895002029F00A95E01BF10948
:104440005BD003C0F3940A9599F7FC1408F4CF2CC1
:10445000EA9461F7D31611F4D62ECC2470921E0282
:10446000732F7C1940911E0250911F020E948A22D4
:10447000603041F0DD2031F05D2D0E943D235A95E2
:10448000E1F77D190E943D23802D50911D02552397
:1044900009F080950E94BB2150911E0253955093C4
:1044A0001E027A9579F7EC0DF11D21D0603081F074
:1044B00050911D02762F8827552309F080950E9480
:1044C000BB217A95C1F750911E02560F50931E02E0
:1044D00050911F02539550931F022A9509F0BECFA9
:1044E0005F9150931F023BBEFF91EF91089518F426
:1044F0002BB623942BBE089518F42BB62A942BBE0A
:1045000008950AD00E945A2118E70E946E2110E4F3
:104510000C946E214A955A954F930E945A2118E7A0
:104520000E946E2110E00E946E2110EB150F0E9478
:104530006E211F911F9312951F7010610E946E21B2
:104540001F911F700E946E21C1CE772321F0AA27F0
:10455000BB270C94BF240C943D2311242224332424
:1045600079910E94A522002D48E00E94D5240A934B
:104570000E94A5220A920A920B8148E00E94D5244B
:104580000B834C81F42E5B81BCDF131479F40E9401
:10459000A522202C802D8A3A39F00E94A522802D58
:1045A0008A3A39F031970DC031960BC01A9469F3ED
:1045B00008C00E94A522802D882311F4329701C0E3
:1045C000102C822D90911D02992309F080958F93D4
:1045D0004F2D5B8196DF8F91F394182F0E946E21EF
:1045E00089818A95898389F68B8183958B838881DC
:1045F00089838A818A958A8321F625960C9466217F
:1046000041E2FF2747BF84910895019111912191C3
:10461000308108950F92B801469F8001479F100D89
:10462000569F100D0F9008950F921F922F92C80160
:10463000D901489F80014A9F90014B9F202C499FA0
:10464000100D211D321D5A9F202C589F100D211D29
:10465000321D599F200D311D689F200D311D699F0E
:10466000300D789F300D2F901F900F9008950E946D
:104670003D230D920020D9F70895D895319628F45E
:104680008F938BB783958BBF8F910020089591E016
:1046900005C092E003C094E001C098E0EEDF0D9207
:1046A0009A95E1F70895880F991FE80FF91F0DD02B
:1046B000F0CFE80FF91F09D0EACF880F991F880FB4
:1046C000991FE80FF91F01D0E6CF28F48F938BB71D
:1046D00083958BBF8F9108950196019721F00E94D9
:1046E0003D23E9F7FACF0895819104D08D93882373
:1046F000D9F70895813618F08B3708F48F7D089527
:1047000091E0882321F08894991F8A95E9F7892FF1
:1047100090950895883018F011968850FBCF089531
:104720000F9200240BBE0F9008950F9301E00BBF72
:104730000F91889408950F930027F9CF0F9302E00B
:10474000F6CF0F9303E0F3CF0F9304E0F0CF0027F1
:104750008A3018F08A500395FBCF005D0D93805D81
:104760008D930895805390530027813018F0065F91
:104770008A95FBCF090F0895040F151F261F371FB9
:10478000089504171507260737070895000F111F0E
:10479000221F331F089500951095209530950F5FC7
:1047A0001F4F2F4F3F4F0895019110810FC00E945E
:1047B00005230EC00E94052310C00191108117FF30
:1047C00005C03FEF2FEF04C00081112722273327B8
:1047D00037FF03C0E0DF8DE28D93CF92DF92EF923F
:1047E000AA24BB24CC24DD24EE2440E2EAE0FF2707
:1047F00055E093E38081890F87FD9F7083FD907F53
:10480000891B81935A95A9F7C1DFAA1CBB1CCC1C3C
:10481000DD1CEE1C4A9551F7E894EFE0FF278291EA
:104820000BD0EB30E0F71EF068948A2D09D04D9341
:10483000EF90DF90CF900895982F829501D0892F27
:104840008F70805D26F0803309F4089568948D930D
:10485000089500271127222733271DD08A3328F4F3
:10486000803318F005D015D0F9CF0EF494CF089509
:1048700080538F93402F512F622F732F87DF86DF56
:104880007BDF84DF8F919927080F191F291F391F9C
:1048900008958D910895E894FCDF8032E9F38B321E
:1048A000D9F38930C9F38D3211F46894F2CF0895A9
:1048B00041E003C042E001C044E0E40F8827F81F54
:1048C0008291982F829506D0892F04D04A95C1F7FE
:1048D0000C9490248F708A3008F0895F805D8D93EE
:1048E000089541E0E40F8827F81F829138E098E1AD
:1048F000880F991F9D933A95D1F74A95B1F70C947B
:10490000902400271127222733278D91882339F0FF
:104910008053000F111F221F331F080FF6CF089579
:1049200088278D93089581918D938823E1F70895C9
:1049300009919191992359F08A95D9F731970023DC
:1049400031F081918D930A958823C9F70895E8CFB6
:10495000F999FECFE1BDF2BD3196089591E001C015
:1049600092E07B3751F47FB7F894F2DF8D9180BDF0
:10497000FA9AF99A9A95C9F77FBF7727089591E037
:1049800001C092E0E5DFF89A80B58D939A95D1F752
:104990000895FF935527F8E0469508F4500F579572
:1049A0004795FA95D1F7FF910895FF93881BF9E099
:1049B000001FFA9511F4FF910895881F841B18F4C5
:1049C000840F8894F5CF0894F3CF8FEF83959D9152
:1049D0009923E1F70895689401C0E894AF93BF93D9
:1049E0008D9116F0919103C00E943D23902D89175F
:1049F00018F011F48823A1F7BF91AF91089568943E
:104A000001C0E8942227102F231709F4089526F4F3
:104A10000E943D23802D01C08191803081F0891753
:104A200041F070E08D931A9591F7239571E01D93F5
:104A3000EACF01D0E8CF703011F0772708957723BF
:104A400031F42395882713958D931A95E9F70895E6
:104A50002A2A2A2A2A2A2A2A2A2A2A2A204C4F5251
:104A6000412D424F4D4241202A2A2A2A2A2A2A2A07
:104A70002A2A2A2A000030312D30332D32303235A7
:104A80002032333A32333A313200302E312E313047
:104A90003600524945474F2E42415300556C7469C8
:104AA0006D612041435420434C4B20002C00486151
:104AB0006220446961732053656D616E612000005E
:104AC0003D00486F726172696F73000050726F67CA
:104AD0002000486F726120002C2020005365637510
:104AE000656E636961730000486F726172696F205F
:104AF00000005345432000002C2000005469656DE0
:104B0000706F726965676F3D000049447365723C60
:104B100000003E0050726F672041637475616C3D08
:104B20000000436F6E66696720496E76616C696448
:104B3000610050726F6720446573686162696C69D7
:104B40007461646F7300486F726120696E69636994
:104B50006F20000030363A30303A303000003037C5
:104B60003A30303A3030000030383A30303A303075
:104B7000000030393A30303A3030000031303A30CD
:104B8000303A3030000031313A30303A30300000C5
:104B900031323A30303A3030000031333A30303A46
:104BA0003030000031333A33303A303000003134A5
:104BB0003A33303A3030000031353A33303A303021
:104BC000000031363A33303A3030000031373A3372
:104BD000303A3030000031383A33303A303000006B
:104BE00031393A33303A3030000032303A33303AEB
:104BF0003030000056657269666963617220436FE8
:104C00006E6669672E20496E696369616C00534561
:104C100052313D00496E67726573652076616C6F35
:104C200072657320646520636F6E66696775726173
:104C300063696F6E0000434F4E4649472E20494E30
:104C4000494349414C204F4B0000547279200000E9
:104C500024004C4545564657000056657273696FEF
:104C60006E2046573A204665636861203C003E2C22
:104C7000204172636869766F203C0000525354569D
:104C800041520000536520636F6E666967757261FB
:104C90006E207661726961626C6573206120766155
:104CA0006C6F72657320706F7220646566656374E3
:104CB0006F004C45455249440000494420736572D9
:104CC000203C00005345544C45440000536520638C
:104CD0006F6E666967757261206C6564000053458C
:104CE00054434C4B00003A00543E00002F00443E19
:104CF00000005741544348494E4720494E464F52C1
:104D00004D412E20536520636F6E66696775726F23
:104D10002072656C6F6A20656E20000020612000A3
:104D20004C454552544300004C65652052544300A5
:104D3000534953434C4B0000486F726120616374C8
:104D400075616C3D00002C204665636861206163DD
:104D50007475616C3D004C4545434C4B0000556CEF
:104D600074696D612041435420434C4B2061203DC8
:104D700000002C2064656C200000534554485249C3
:104D80000000505452204872693D0000436F6E6627
:104D900069672048726965676F0020656E20505210
:104DA0004F4720004C45454852490000487269650C
:104DB000676F0000203D00005345545452490000E5
:104DC000536520636F6E66696775726F20547269F0
:104DD00065676F3D00004C454554524900005472D0
:104DE0006965676F3D005345545345430000505477
:104DF00052205345433D0000536520636F6E666942
:104E0000672053454320000020646520486F72618D
:104E100072696F2000002064652050726F67200067
:104E20004C45455345430000505452204C454520C5
:104E30005345433D000053455450524700005365CD
:104E400020636F6E6669672050726F6772616D6173
:104E50002041637475616C20612000004C45455011
:104E6000524700004C656F205254432000005254BA
:104E70004320483D00002C463D00486F7261206190
:104E8000637475616C203C20486F72616D696E2C93
:104E90002061637475616C69636520656C20434CA7
:104EA0004B00457272206765746461746574696D46
:104EB00065004E6F20736520656E636F6E74726F50
:104EC0002044533332333120656E2047657464616A
:104ED000746574696D65203200004E6F2073652023
:104EE000656E636F6E74726F2044533332333120BA
:104EF000656E204765746461746574696D65203101
:104F00000000457272207365746461746574696D24
:104F100065004E6F20736520656E636F6E74726FEF
:104F20002044533332333120656E205365746461FD
:104F3000746500004572722073657474696D650054
:104F40004E6F20736520656E636F6E74726F2044C0
:104F5000533332333120656E2053657474696D6547
:104F600000004D454741525443002A2A20204D4518
:104F700047412032303230202A2A000030312D3093
:104F8000332D323032352032333A32333A31330036
:104F9000566572696669636120434C4B00004D6140
:104FA000696E00002000446961200000496E69209C
:0C4FB0005365630046696E205365630082
:00000001FF
