:100000000C947200189500001895000018950000D7
:10001000189500001895000018950000189500002C
:10002000189500001895000018950000189500001C
:100030001895000018950000189500000C9495057F
:1000400018950000189500001895000018950000FC
:100050000C94200318950000189500000C94510290
:10006000189500000C940D011895000018950000DB
:1000700018950000189500001895000018950000CC
:1000800018950000189500001895000018950000BC
:100090000C949F0118950000189500001895000019
:1000A000189500001895000018950000189500009C
:1000B000189500001895000018950000189500008C
:1000C000189500001895000018950000189500007C
:1000D000189500001895000018950000189500006C
:1000E000189500008FEF8DBFC0E8E8E94E2E81E241
:1000F0008EBFD1E2F0E25F2EA89584B7082E882744
:1001000084BF88E199278093600090936000EEEFB0
:10011000FFE1A0E0B2E088278D933197E9F787E609
:100120008093C40080E08093C50088E18093C10083
:100130006624279A389A399A3A9A3B9A3C9A3D9A79
:100140003E9A3F9A70910A01716070930A01709112
:100150000A01726070930A0170910A0174607093D1
:100160000A01219A229A239A289A209A5F9A579AEA
:10017000089809980A980B98109A119A129A139A4B
:1001800085E085BD80E084BD70916E0071607093E4
:100190006E0085E085BD80E08093800085E08093DF
:1001A000810070916F00716070936F0085E08093A3
:1001B000810087E08093B10080E08093B00070916F
:1001C000700071607093700087E08093B10070914F
:1001D000C10070687093C10087E68093CC0080E016
:1001E0008093CD007091C8007D7F7093C80086E039
:1001F0008093CA0088E18093C9007091C90070683B
:100200007093C90070E07093B9007CE07093B800FF
:100210000E94565378940C9445490F921F922F9246
:100220003F924F925F927F92AF92BF920F931F9334
:100230002F933F934F935F936F937F938F939F93EE
:10024000AF93BF93CF93DF93EF93FF938FB78F93CA
:100250008BB78F9388278BBFA5E0BBE08091C6004A
:100260008C9384E2482F0091050B041711F00C9435
:10027000440170918B08706470938B08A0E5BAE01C
:1002800088278C930C9481010D3011F00C94690136
:10029000ABE8B8E08C9186FB16F00C946701709186
:1002A0008B087F7B70938B0880E0A0E5BAE00E940A
:1002B000A64F8D9388278C93E0E5FAE0A6E0BBE09B
:1002C0000E94695670918B08706270938B080C9431
:1002D00081010F3118F011F00C9470010C94810120
:1002E000ABE8B8E08C9186FB16F00C948101A5E098
:1002F000BBE08C91A0E5BAE00E94A64F8D938827C1
:100300008C938F918BBF8F918FBFFF91EF91DF9176
:10031000CF91BF91AF919F918F917F916F915F919D
:100320004F913F912F911F910F91BF90AF907F9070
:100330005F904F903F902F901F900F9018950F92C5
:100340001F922F923F924F925F927F92AF92BF92F5
:100350000F931F932F933F934F935F936F937F93CD
:100360008F939F93AF93BF93CF93DF93EF93FF93BD
:100370008FB78F938BB78F9388278BBFACE8B8E08C
:100380008091CE008C9385E2482F00918C08041751
:1003900011F00C94D60170918608716070938608F4
:1003A000ADE8B8E088278C930C9433020D3011F03F
:1003B0000C940B02A6E8B8E08C9180FB16F00C942C
:1003C0000902709186087E7F7093860880E0ADE810
:1003D000B8E00E94A64F8D9388278C93EDE8F8E053
:1003E000AAE1B9E00E946956AAE1B9E0E0E6F1EBC2
:1003F0000E9417550E94DC5611F00C940402709173
:10040000380270627093380270918B087068709334
:100410008B080C9433020F3118F011F00C94120277
:100420000C943302A6E8B8E08C9180FB16F00C9493
:100430003302ACE8B8E08C91ADE8B8E00E94A64F7A
:100440008D9388278C93ADE8B8E00E94D656082F8C
:100450000C3818F011F00C942F020C943302ADE814
:10046000B8E088278C938F918BBF8F918FBFFF91BE
:10047000EF91DF91CF91BF91AF919F918F917F913C
:100480006F915F914F913F912F911F910F91BF906D
:10049000AF907F905F904F903F902F901F900F9064
:1004A00018950F921F922F923F924F925F927F92D8
:1004B000AF92BF920F931F932F933F934F935F93EE
:1004C0006F937F938F939F93AF93BF93CF93DF935C
:1004D000EF93FF938FB78F938BB78F9388278BBF43
:1004E00074E676BDA7E9B7E08C918F5F8C93A7E99E
:1004F000B7E00C9148E00E94C6568C930091970794
:10050000003011F00C94B702A8E9B7E00C9140E27A
:100510000E94C6568C93ECECFFE70E941755ADE99C
:10052000B7E08C919927A9E9B7E00E94CE54809159
:100530009807A9E9B7E00E9402550E94F8540C9070
:100540000822689409F4E894A4E9B7E08C9185F94D
:100550008C93A4E9B7E08C9185FBA5E2B0E08C9187
:1005600087F98C93A8E9B7E08C918F5F8C93A4E90D
:10057000B7E08C9186FB16F00C94DD02A5E9B7E09C
:100580000E945F4FA5E9B7E00D911C9149EF51E042
:100590000E948C4FA5E9B7E00D931C93A5E9B7E045
:1005A0000D911C91003050E0150711F00C94DD0204
:1005B00070919407706870939407A4E9B7E08C91E8
:1005C00083FB16F00C94FC02A1EAB7E00E945F4F97
:1005D000A3EAB7E04D915C91A1EAB7E00D911C91BF
:1005E0000417150711F00C94FA02709194077061CA
:1005F000709394070C94020380E090E0A1EAB7E0C6
:100600008D939C938F918BBF8F918FBFFF91EF91B3
:10061000DF91CF91BF91AF919F918F917F916F911A
:100620005F914F913F912F911F910F91BF90AF908C
:100630007F905F904F903F902F901F900F90189554
:100640000F921F922F923F924F925F927F92AF92A2
:10065000BF920F931F932F933F934F935F936F938B
:100660007F938F939F93AF93BF93CF93DF93EF933A
:10067000FF938FB78F938BB78F9388278BBF87EFAD
:1006800092EC909385008093840070919E07716036
:1006900070939E070E946B51E8E0F2E0FA93EA93B0
:1006A000E1E1F2E00E94F852A5EAB7E00D931D9354
:1006B0002D933D93A5EAB7E00E94524FE5EAF7E09B
:1006C000A1E1B2E00E94E8520E947E51E5EAF7E023
:1006D000A8E0B2E00E94F0520E9476510E946B5155
:1006E000E1E1F2E0A5EDB6E00E946956E5EDF6E045
:1006F0000E948352A9EAB7E00D931D932D933D9379
:1007000081E08093AD070091AD07003118F011F042
:100710000C94B603ADEAB7E0AD90BB24A1E9B6E016
:10072000AA0CBB1CAA0CBB1CAA0DBB1D4D915D9154
:100730006D917C91A9EAB7E00D911D912D913C91AD
:100740000E94975511F00C94AE037091E00670680A
:100750007093E0068091AD078093E106ADEAB7E0C3
:100760008C918F5F8C9310F40C948303A5EAB7E00F
:100770000D911D912D913C91ABE4B7E04D915D91B0
:100780006D917C910E94F94FAEEAB7E00D931D93F5
:100790002D933D9340E050E060E070E0AEEAB7E0BA
:1007A0000D911D912D913C910E94975511F00C9443
:1007B000DE037091E00672607093E006A5EAB7E090
:1007C0000D911D912D913C91A3EBB7E04C915527D4
:1007D000662777270E94F94FAEEAB7E00D931D9385
:1007E0002D933D9340E050E060E070E0AEEAB7E06A
:1007F0000D911D912D913C910E94975511F00C94F3
:1008000006047091940774607093940781E080935C
:100810003D0200913D02043018F011F00C94750473
:10082000A5EAB7E00D911D912D913C91ADE3B2E0A9
:10083000AD90BB24A0EFB6E0AA0CBB1CAA0CBB1C5D
:10084000AA0DBB1D4D915D916D917C910E949255B9
:10085000AEEAB7E00D931D932D933D93AEEAB7E05A
:100860000D911D912D913C91ADE3B2E0AD90BB2473
:10087000A0EEB6E0AA0CBB1CAA0CBB1CAA0DBB1DAB
:100880004D915D916D917C910E94F94FAEEAB7E078
:100890000D931D932D933D9300913D0241E0041B68
:1008A000ACE3B2E00C9340E050E060E070E0AEEA10
:1008B000B7E00D911D912D913C910E94975511F03B
:1008C0000C946D0480913C02A2EBB7E00E940255AB
:1008D0000E94F8549C91982B9C93ADE3B2E08C91CC
:1008E0008F5F8C9310F40C940904A8E2B7E08C910C
:1008F0008F5F8C93A8E2B7E00C9141E00E94C6564E
:100900008C9300912807003011F00C948C047091A6
:10091000E00670617093E006ADE6B7E08C918F5F02
:100920008C93ADE6B7E00C9145E00E94C6568C93DF
:1009300000916D07003011F00C94A3047091E00653
:1009400071607093E006A8E3B2E08C9181FB16F031
:100950000C94E004A6E8B8E08C9181FB16F40C94AA
:10096000E004A1E9B4E00E945F4FA1E9B4E00D9179
:100970001C91AFE8B4E04D915C910E948C4FA1E9CD
:10098000B4E00D931C93A1E9B4E00D911C910030EB
:1009900050E0150711F00C94E00470918608726025
:1009A00070938608469847980E946E0E7091B20721
:1009B00071607093B2077091B20774607093B20760
:1009C000A6E8B8E08C9181FB16F00C941305A7E81B
:1009D000B8E00E945F4FA7E8B8E00D911C91A9E82C
:1009E000B8E04D915C910E948C4FA7E8B8E00D9360
:1009F0001C93A7E8B8E00D911C91003050E015075A
:100A000011F00C94130570913802716070933802E4
:100A1000709186087D7F7093860880E090E0A1E960
:100A2000B4E08D939C93A4E9B7E08C9180FB16F021
:100A30000C947405A6E8B8E08C9187FB16F00C9432
:100A40004705A2E8B8E00E945F4FA2E8B8E00D9128
:100A50001C91AEE7B8E04D915C910E948C4FA2E8EA
:100A6000B8E00D931C93A2E8B8E00D911C91003002
:100A700050E0150711F00C944705709186087064DA
:100A800070938608709186087F7770938608A6E831
:100A9000B8E08C9186FB16F00C947405A4E8B8E0DD
:100AA0000E945F4FA4E8B8E00D911C91A0E8B8E067
:100AB0004D915C910E948C4FA4E8B8E00D931C937B
:100AC000A4E8B8E00D911C91003050E0150711F03A
:100AD0000C94740570918608706870938608709104
:100AE00086087F7B709386088F918BBF8F918FBF15
:100AF000FF91EF91DF91CF91BF91AF919F918F9136
:100B00007F916F915F914F913F912F911F910F9125
:100B1000BF90AF907F905F904F903F902F901F902D
:100B20000F9018950895089508950F921F922F928F
:100B30003F924F925F927F92AF92BF920F931F931B
:100B40002F933F934F935F936F937F938F939F93D5
:100B5000AF93BF93CF93DF93EF93FF938FB78F93B1
:100B60008BB78F9388278BBF74E67093B200A9EC84
:100B7000B7E08C918F5F8C93A9ECB7E00C914AE0C1
:100B80000E94C6568C930091C907003011F00C9456
:100B9000AB0700274427A0E2B0E08C9180FB00F96E
:100BA000A4EEB7E08C9180FB40F9042700FBA4E998
:100BB000B7E08C9181F98C93A4E9B7E08C9181FB2B
:100BC000A1E0B8E08C9180F98C9300274427A0E243
:100BD000B0E08C9181FB00F9A4EEB7E08C9181FB31
:100BE00040F9042700FBA4E9B7E08C9181F98C93CC
:100BF000A4E9B7E08C9181FBA1E0B8E08C9181F988
:100C00008C9300274427A0E2B0E08C9182FB00F98E
:100C1000A4EEB7E08C9182FB40F9042700FBA4E925
:100C2000B7E08C9181F98C93A4E9B7E08C9181FBBA
:100C3000A1E0B8E08C9182F98C9300274427A0E2D0
:100C4000B0E08C9183FB00F9A4EEB7E08C9183FBBC
:100C500040F9042700FBA4E9B7E08C9181F98C935B
:100C6000A4E9B7E08C9181FBA1E0B8E08C9183F915
:100C70008C9381E08093B4070091B407043018F09E
:100C800011F00C94AB070091B40741E0041BA5EBF5
:100C9000B7E00C93A4EBB7E0AD90BB24A1E0B8E0C3
:100CA000AA0DBB1D0C91003011F00C9473068091BD
:100CB000B507A1E0B8E00E9402550E94F8540C90DC
:100CC0000822689409F4E89416F40C94710682E002
:100CD000A4EBB7E0AD90BB24A1E0B8E0AA0DBB1D2A
:100CE0008C930C94A307013011F00C94930680911F
:100CF000B507A1E0B8E00E9402550E94F8540C909C
:100D00000822689409F4E89416F00C94910683E0A4
:100D1000A4EBB7E0AD90BB24A1E0B8E0AA0DBB1DE9
:100D20008C930C94A307023011F00C941C07809153
:100D3000B507A1E0B8E00E9402550E94F8540C905B
:100D40000822689409F4E89416F00C94C10680E037
:100D5000A4EBB7E0AD90BB24A1E0B8E0AA0DBB1DA9
:100D60008C9380E090E0A4EBB7E0AD90BB24A4EBC3
:100D7000B7E0AA0CBB1CAA0DBB1D8D939C930C94D1
:100D80001A07A4EBB7E0AD90BB24A4EBB7E0AA0C24
:100D9000BB1CAA0DBB1D0E945F4FA4EBB7E0AD903A
:100DA000BB24A4EBB7E0AA0CBB1CAA0DBB1D0D9184
:100DB0001C91A4EBB7E0AD90BB24AAEDB7E0AA0C60
:100DC000BB1CAA0DBB1D4D915C910E948C4FA4EBE6
:100DD000B7E0AD90BB24A4EBB7E0AA0CBB1CAA0DF6
:100DE000BB1D0D931C93A4EBB7E0AD90BB24A4EB0B
:100DF000B7E0AA0CBB1CAA0DBB1D0D911C910030C5
:100E000050E0150711F00C941A0781E0A4EBB7E04D
:100E1000AD90BB24A1E0B8E0AA0DBB1D8C938091DE
:100E2000B507A6ECB7E00E9402550E94F8549C91C9
:100E3000982B9C930C94A307033011F00C94A307F8
:100E40008091B507A1E0B8E00E9402550E94F854D5
:100E50000C900822689409F4E89416F40C944A075C
:100E600081E0A4EBB7E0AD90BB24A1E0B8E0AA0D0F
:100E7000BB1D8C9380E090E0A4EBB7E0AD90BB2469
:100E8000ACEBB7E0AA0CBB1CAA0DBB1D8D939C93C9
:100E90000C94A307A4EBB7E0AD90BB24ACEBB7E098
:100EA000AA0CBB1CAA0DBB1D0E945F4FA4EBB7E0B0
:100EB000AD90BB24ACEBB7E0AA0CBB1CAA0DBB1DCC
:100EC0000D911C91A4EBB7E0AD90BB24A2EDB7E06F
:100ED000AA0CBB1CAA0DBB1D4D915C910E948C4FAE
:100EE000A4EBB7E0AD90BB24ACEBB7E0AA0CBB1C05
:100EF000AA0DBB1D0D931C93A4EBB7E0AD90BB24D2
:100F0000ACEBB7E0AA0CBB1CAA0DBB1D0D911C914C
:100F1000003050E0150711F00C94A30780E0A4EB1B
:100F2000B7E0AD90BB24A1E0B8E0AA0DBB1D8C9347
:100F30008091B507A7ECB7E00E9402550E94F854D3
:100F40009C91982B9C93A4EBB7E08C918F5F8C9332
:100F500010F40C943C068F918BBF8F918FBFFF9143
:100F6000EF91DF91CF91BF91AF919F918F917F9141
:100F70006F915F914F913F912F911F910F91BF9072
:100F8000AF907F905F904F903F902F901F900F9069
:100F900018952F98E4E6F1EB0E9417550E94B54F83
:100FA0000E94BC4FA0E8B0E2E4E8F1EB0E941755C4
:100FB0000E94A8540E94AD4F0E94BC4FA0E8B0E22E
:100FC000E8E9F1EB0E9417550E94A8540E94AD4F2A
:100FD0000E94BC4FA0E8B0E2E0EAF1EB0E94175596
:100FE0000E94A8540E94AD4F0E94BC4FE9E3F3E079
:100FF000AAECB7E00E94A656EAEAF1EB0E94175568
:101000000E94B54FEAECF7E0A0E8B0E20E94BA55C2
:101010000E94AD4F0E94BC4FE1E0F0E0A4E8B3E0D5
:1010200094E00E94A956E2EBF1EB0E9417550E9452
:10103000B54FE4E8F3E0A0E8B0E20E94F0520E946D
:10104000AD4FE2ECF1EB0E9417550E94B54FE4E87A
:10105000F3E0A0E8B0E20E94E8520E94AD4F0E9487
:10106000BC4FE4E3F3E0ABE4B7E094E00E94A956A0
:10107000E4ECF1EB0E9417550E94B54FEBE4F7E06A
:10108000A0E8B0E20E94AD550E94AD4F0E94BC4F57
:10109000E8E3F3E0A3EBB7E00E94A656E0EEF1EB45
:1010A0000E9417550E94B54FE3EBF7E0A0E8B0E2CD
:1010B0000E94BA550E94AD4F0E94BC4F81E08093C0
:1010C000200200912002043018F011F00C94A608C0
:1010D000E0E2F2E0A190BB24E5E0F0E0EA0DFB1DC8
:1010E000A0E2B2E0AD90BB24A9E8B3E0AA0DBB1D1D
:1010F0000E94A656E6EFF1EB0E9417550E94B54FED
:10110000E0E2F2E0A0E8B0E20E94BA550E94AD4FE2
:10111000E8E0F2EB0E9417550E94B54FD201E0E2E1
:10112000F2E0A190BB24E9E8F3E0EA0DFB1D0E9488
:101130004756D2010E94AF4F0E94BC4FA0E2B2E0DE
:101140008C918F5F8C9310F40C946108EAE0F2EBC1
:101150000E9417550E94B54F0E94BC4F81E08093BA
:10116000240200912402043018F011F00C9460095C
:10117000E4E1F2EB0E9417550E94B54FE4E2F2E081
:10118000A0E8B0E20E94BA550E94AD4F0E94BC4F49
:1011900081E08093250200912502003118F011F0C2
:1011A0000C945809A4E2B2E00D91112701501040AF
:1011B000A0E3B2E00D931C93A0E3B2E00D911C916B
:1011C00040E150E00E947B54A0E3B2E00D931C93F9
:1011D000A0E3B2E00D911C91A5E2B2E04D9155273C
:1011E000040F151FA0E3B2E00D931C93E0E3F2E0BF
:1011F000A190B190E6E0F0E0AA0CBB1CAA0CBB1CCD
:10120000EA0DFB1DA8E2B2E094E00E94A956A8E214
:10121000B2E00D911D912D913C91A0E3B2E0AD9013
:10122000BD90ABE8B3E0AA0CBB1CAA0CBB1CAA0D7A
:10123000BB1D0D931D932D933C93AAECB7E00C912D
:1012400000FB16F00C945009EAE1F2EB0E941755EE
:101250000E94B54FE5E2F2E0A0E8B0E20E94BA5584
:101260000E94AD4FE8E0F2EB0E9417550E94B54F87
:10127000E8E2F2E0A0E8B0E20E94E8520E94AD4F3E
:10128000E0E2F2EB0E9417550E94B54FE0E3F2E076
:10129000A0E8B0E20E94AA550E94AD4F0E94BC4F48
:1012A000A5E2B2E08C918F5F8C9310F40C94CB0884
:1012B000A4E2B2E08C918F5F8C9310F40C94B1088F
:1012C000E4E2F2EB0E9417550E94B54F0E94BC4F1A
:1012D00081E08093240200912402043018F011F080
:1012E0000C944B0AE4E1F2EB0E9417550E94B54FB3
:1012F000E4E2F2E0A0E8B0E20E94BA550E94AD4FED
:101300000E94BC4F81E080932502009125020031AC
:1013100018F011F00C94430AE0E3F2EB0E94175529
:101320000E94B54FE5E2F2E0A0E8B0E20E94BA55B3
:101330000E94AD4F0E94BC4FA4E2B2E00D91112774
:1013400001501040A0E3B2E00D931C93A0E3B2E083
:101350000D911C9140E250E00E947B54A0E3B2E06A
:101360000D931C93A5E2B2E00D911127015010409E
:10137000A2E3B2E00D931C93A2E3B2E00D911C91A5
:1013800048E050E00E947B54A2E3B2E00D931C932E
:10139000A0E3B2E00D911C91A2E3B2E04D915C910B
:1013A000040F151FA0E3B2E00D931C9381E080931E
:1013B000270200912702083018F011F00C943B0A24
:1013C0000091300240912702040FA8E8B3E00C938B
:1013D000E8E8F3E0A190BB24EBE0F1E0EA0DFB1DAF
:1013E000A8E8B3E0AD90BB24A2E9B4E0AA0DBB1D10
:1013F0000E94A656AAECB7E00C9100FB16F00C94E4
:10140000330AEAE3F2EB0E9417550E94B54FE7E278
:10141000F2E0A0E8B0E20E94BA550E94AD4FE8E0C9
:10142000F2EB0E9417550E94B54FD201E8E8F3E0B5
:10143000A190BB24E2E9F4E0EA0DFB1D0E944756AF
:10144000D2010E94AF4FE0E4F2EB0E9417550E94D8
:10145000B54FE8E8F3E0A0E8B0E20E94BA550E9478
:10146000AD4F0E94BC4FA7E2B2E08C918F5F8C938E
:1014700010F40C94D909A5E2B2E08C918F5F8C93A3
:1014800010F40C948509A4E2B2E08C918F5F8C93E8
:1014900010F40C946B09EAE0F1E0AFE8B4E00E94CC
:1014A000A856E4E4F2EB0E9417550E94B54FEFE80E
:1014B000F4E0A0E8B0E20E94AA550E94AD4F0E945D
:1014C000BC4FE1E7F3E0A9E8B8E00E94A856E2E5E6
:1014D000F2EB0E9417550E94B54FE9E8F8E0A0E84A
:1014E000B0E20E94AA550E94AD4F0E94BC4F0E94DC
:1014F000F415E2E6F2EB0E9417550E94B54FA6E5FF
:10150000B3E00E94AF4FEAE6F2EB0E9417550E944B
:10151000B54F0E94BC4F83E680939406E5E0F0E06F
:10152000A9E8B3E00E94A656ECE6F2EB0E9417553C
:101530000E94B54FE9E8F3E0A0E8B0E20E94BA5596
:101540000E94AD4F0E94BC4F00918903003018F0FB
:1015500011F00C94AD0A0C94C40A00918903053073
:1015600010F00C94B70A0E94D40C0C94C20A80E0CC
:1015700080938903EAE7F2EB0E9417550E94B54F6A
:101580000E94BC4F0C94CC0AEAE8F2EB0E9417557B
:101590000E94B54F0E94BC4F81E0809320020091D1
:1015A0002002043018F011F00C94620BE0E2F2E03B
:1015B000A190BB24E8E0F3E0AA0CBB1CAA0CBB1C66
:1015C000EA0DFB1DA0E2B2E0AD90BB24A0EEB6E0B8
:1015D000AA0CBB1CAA0CBB1CAA0DBB1D94E00E944C
:1015E000A956E0E2F2E0A190BB24E8E1F3E0AA0C06
:1015F000BB1CAA0CBB1CEA0DFB1DA0E2B2E0AD9027
:10160000BB24A0EFB6E0AA0CBB1CAA0CBB1CAA0D05
:10161000BB1D94E00E94A956EEE9F2EB0E9417551B
:101620000E94B54FE0E2F2E0A0E8B0E20E94BA55B5
:101630000E94AD4FE8E0F2EB0E9417550E94B54FB3
:10164000E0E2F2E0A190BB24E0EEF6E0AA0CBB1CC5
:10165000AA0CBB1CEA0DFB1DA0E8B0E20E94AD5530
:101660000E94AD4FE2EAF2EB0E9417550E94B54F7F
:10167000E0E2F2E0A0E8B0E20E94BA550E94AD4F6D
:10168000E8E0F2EB0E9417550E94B54FE0E2F2E06D
:10169000A190BB24E0EFF6E0AA0CBB1CAA0CBB1C7B
:1016A000EA0DFB1DA0E8B0E20E94AD550E94AD4FCF
:1016B0000E94BC4FA0E2B2E08C918F5F8C9310F43B
:1016C0000C94CF0AEAE3F3E0ABECB7E00E94A85633
:1016D000ABECB7E00E945F4FE8EAF2EB0E941755CF
:1016E0000E94B54FEBECF7E0A0E8B0E20E94AA55EB
:1016F0000E94AD4F0E94BC4FEAE3F3E0ABECB7E0D1
:101700007BE70E948C56EEE3F3E0A2EDB7E00E9487
:10171000A656E2EBF2EB0E9417550E94B54FD2019C
:10172000E2EDF7E00E944756D2010E94AF4F0E94BF
:10173000BC4F81E08093200200912002043018F019
:1017400011F00C94780CE0E2F2E00191112747E0EF
:1017500050E00E947B54E9E4F3E0E00FF11FA0E2C7
:10176000B2E00D91112747E050E00E947B54AEEDAE
:10177000B7E0A00FB11F96E00E94B056E4EDF2EB87
:101780000E9417550E94B54FE0E2F2E0A0E8B0E2F7
:101790000E94BA550E94AD4FE8E0F2EB0E94175547
:1017A0000E94B54FA0E2B2E00D91112747E050E052
:1017B0000E947B54AEEDB7E0A00FB11F0E94AF4F67
:1017C0000E94BC4FE0E2F2E0A190BB24EDE3F3E025
:1017D000AA0CBB1CEA0DFB1DA0E2B2E0AD90BB243D
:1017E000A2EDB7E0AA0CBB1CAA0DBB1D0E94A85617
:1017F000ECEDF2EB0E9417550E94B54FE0E2F2E0EB
:10180000A0E8B0E20E94BA550E94AD4FE8E0F2EBCA
:101810000E9417550E94B54FE0E2F2E0A190BB2470
:10182000E2EDF7E0AA0CBB1CEA0DFB1DA0E8B0E25C
:101830000E94AA550E94AD4FE8EEF2EB0E941755A8
:101840000E94B54F0E94BC4FE0E2F2E0A190BB24A1
:10185000E5E4F3E0AA0CBB1CEA0DFB1DA0E2B2E03C
:10186000AD90BB24AAEDB7E0AA0CBB1CAA0DBB1D12
:101870000E94A856E0EFF2EB0E9417550E94B54F68
:10188000E0E2F2E0A0E8B0E20E94BA550E94AD4F5B
:10189000E8E0F2EB0E9417550E94B54FE0E2F2E05B
:1018A000A190BB24EAEDF7E0AA0CBB1CEA0DFB1DDE
:1018B000A0E8B0E20E94AA550E94AD4FE8EEF2EB1C
:1018C0000E9417550E94B54F0E94BC4F85E0A0E2D0
:1018D000B2E0AD90BB24A5E0B8E0AA0DBB1D8C938F
:1018E000A0E2B2E08C918F5F8C9310F40C949C0B6F
:1018F000EFE4F3E0A4EEB7E00E94A656ECEFF2EBC3
:101900000E9417550E94B54FD201E4EEF7E00E9405
:101910004756D2010E94AF4F0E94BC4FECE6F3E065
:10192000AAE0B8E00E94A656E4E0F3EB0E94175547
:101930000E94B54FD201EAE0F8E00E944756D2017A
:101940000E94AF4F0E94BC4FEDE6F3E0AEE7B8E077
:101950000E94A856ECE0F3EB0E9417550E94B54F89
:10196000EEE7F8E0A0E8B0E20E94AA550E94AD4F71
:101970000E94BC4FEFE6F3E0A0E8B8E00E94A85652
:10198000E8E1F3EB0E9417550E94B54FE0E8F8E05C
:10199000A0E8B0E20E94AA550E94AD4F0E94BC4F41
:1019A00083E680937D0808958091890380932402C3
:1019B000E4E1F2EB0E9417550E94B54FE4E2F2E039
:1019C000A0E8B0E20E94BA550E94AD4F0E94BC4F01
:1019D000A4E2B2E0AD90BB24A9E8B3E0AA0DBB1D20
:1019E0008C9180938E03E4E2F3EB0E9417550E94E2
:1019F000B54FD201EEE8F3E00E944756D2010E94B3
:101A0000AF4F0E94BC4F81E08093250200912502D8
:101A1000003118F011F00C94910DA4E2B2E00D9198
:101A2000112701501040A0E3B2E00D931C93A0E3F6
:101A3000B2E00D911C9140E150E00E947B54A0E384
:101A4000B2E00D931C93A0E3B2E00D911C91A5E2CE
:101A5000B2E04D915527040F151FA0E3B2E00D939E
:101A60001C93A0E3B2E0AD90BD90ABE8B3E0AA0C4C
:101A7000BB1CAA0CBB1CAA0DBB1D0D911D912D9169
:101A80003C91A8E2B2E00D931D932D933C93A8E204
:101A9000B2E00D911D912D913C91A5E2B2E0AD9087
:101AA000BB24A1E9B6E0AA0CBB1CAA0CBB1CAA0D66
:101AB000BB1D0D931D932D933C93E2E3F3EB0E942A
:101AC00017550E94B54FE5E2F2E0A0E8B0E20E94AF
:101AD000BA550E94AD4FE8E0F2EB0E9417550E9404
:101AE000B54FE8E2F2E0A0E8B0E20E94E8520E94BE
:101AF000AD4FE0E2F2EB0E9417550E94B54FE0E3D4
:101B0000F2E0A0E8B0E20E94AA550E94AD4F0E9408
:101B1000BC4FA5E2B2E08C918F5F8C9310F40C94D3
:101B2000060D089582E00E94755482E00E9475546B
:101B300081E00E947554AA85BB850D911127015043
:101B40001040AC81BD810D931C93AC81BD810D9182
:101B50001C9140E250E00E947B54AC81BD810D930A
:101B60001C93A885B9850D91112701501040AA81B9
:101B7000BB810D931C93AA81BB810D911C9148E000
:101B800050E00E947B54AA81BB810D931C93AC81D1
:101B9000BD810D911C91AA81BB814D915C91040F77
:101BA000151FAC81BD810D931C93AC81BD810D913E
:101BB0001C91AE81BF814D915527040F151FAC813B
:101BC000BD810D931C93AC81BD810D911C910F5F64
:101BD0001F4FAC81BD810D931C93AC81BD81AD9035
:101BE000BD90A2E9B4E0AA0DBB1D8C91A881B9817A
:101BF0008C93A881B9810C91003011F00C94040EE3
:101C0000469847980C94060E469A479AE0E4F3EB00
:101C10000E9417550E94B54FEE81FF81A0E8B0E207
:101C20000E94BA550E94AD4FE8E0F2EB0E941755B2
:101C30000E94B54FD201E881F9810E944756D20136
:101C40000E94AF4FE2ECF1EB0E9417550E94B54F96
:101C5000EC81FD81A0E8B0E20E94AA550E94AD4F40
:101C60000E94BC4FA881B9818C9180FBA8E2B0E0B2
:101C70008C9180F98C93A881B9818C9181FBA8E229
:101C8000B0E08C9181F98C93A881B9818C9182FB11
:101C9000A8E2B0E08C9182F98C93A881B9818C91F3
:101CA00083FBA8E2B0E08C9183F98C93A881B98181
:101CB0008C9184FBA8E2B0E08C9184F98C93A8818C
:101CC000B9818C9185FBA8E2B0E08C9185F98C9369
:101CD00085E0481A80E0580A269608954098419871
:101CE00042984398449845980895409A419A429A58
:101CF000439A449A459A08950E946B51E8E0F2E0B5
:101D0000A0E2B3E00E946956A0E2B3E00E94A64FB1
:101D1000E4E4F3EB0E9417550E94A8540E946B5113
:101D2000E1E1F2E0A0E2B3E00E94A64F0E94695612
:101D3000A0E2B3E00E94A64FE4E4F3EB0E94175543
:101D40000E94A85481E080931F0281E080931E02CC
:101D5000882780931D02A0E2B3E00E94E14FA0E239
:101D6000B3E0E6E4F3EB0E9417550E94A854E4E0C8
:101D7000F8E0A0E2B3E00E94A64F0E94BA55002707
:101D80004427A0E2B0E08C9181FB00F9A4EEB7E01B
:101D90008C9181FB40F9042700FBA8E3B2E08C9111
:101DA00087F98C93A0E2B3E00E94A64FEAE4F3EB3C
:101DB0000E9417550E94A854A8E3B2E08C9187FBBB
:101DC000A0E2B3E00E94A64F0E9408558D93882799
:101DD0008C9300274427A0E2B0E08C9180FB00F9AF
:101DE000A4EEB7E08C9180FB40F9042700FBA8E348
:101DF000B2E08C9187F98C93A0E2B3E00E94A64FE9
:101E0000E0E5F3EB0E9417550E94A854A8E3B2E066
:101E10008C9187FBA0E2B3E00E94A64F0E94085578
:101E20008D9388278C93A0E2B3E00E94A64FE6E54D
:101E3000F3EB0E9417550E94A85483E080931F0281
:101E400081E080931E02882780931D02A0E2B3E008
:101E50000E94E14FA0E2B3E0EAE5F3EB0E941755E0
:101E60000E94A854EFE5F7E0A0E2B3E00E94A64F7D
:101E70000E946956A0E2B3E00E94A64FEEE5F3EBA4
:101E80000E9417550E94A854E4E5F7E0A0E2B3E0F1
:101E90000E94A64F0E946956A0E2B3E00E94A64F9E
:101EA000E6E5F3EB0E9417550E94A85485E0809365
:101EB0001F0281E080931E02882780931D02A0E20A
:101EC000B3E00E94E14FAAE3B2E08C918F5F8C9364
:101ED000AAE3B2E00C9100FB16F00C949110A9E378
:101EE000B2E08C918F5F8C93A0E2B3E088278C9353
:101EF000A9E3B2E00C9141E10E94C6568C93009197
:101F00003902003011F00C944210A0E2B3E0E2E696
:101F1000F3EB0E9417550E94A854E9E8F3E0A0E211
:101F2000B3E00E94A64F0E94BA55A0E2B3E00E941F
:101F3000A64FE4E6F3EB0E9417550E94A854AEE8C2
:101F4000B3E08C9180FBA0E2B3E00E94A64F0E9418
:101F500008558D9388278C93A0E2B3E00E94A64F8A
:101F6000E8E6F3EB0E9417550E94A854AEE8B3E0F0
:101F70008C9181FBA0E2B3E00E94A64F0E9408551D
:101F80008D9388278C93A0E2B3E00E94A64FE8E6E9
:101F9000F3EB0E9417550E94A854AEE8B3E08C9171
:101FA00082FBA0E2B3E00E94A64F0E9408558D93E9
:101FB00088278C93A0E2B3E00E94A64FEAE6F3EBF9
:101FC0000E9417550E94A854AEE8B3E08C9183FBA1
:101FD000A0E2B3E00E94A64F0E9408558D93882787
:101FE0008C93A0E2B3E00E94A64FECE6F3EB0E94D4
:101FF00017550E94A854AEE8B3E08C9184FBA0E290
:10200000B3E00E94A64F0E9408558D9388278C93B9
:10201000A0E2B3E00E94A64FEEE6F3EB0E94175554
:102020000E94A854AEE8B3E08C9185FBA0E2B3E037
:102030000E94A64F0E9408558D9388278C93A0E29A
:10204000B3E00E94A64FE0E7F3EB0E9417550E9411
:10205000A854AEE8B3E08C9186FBA0E2B3E00E9406
:10206000A64F0E9408558D9388278C93A0E2B3E079
:102070000E94A64FE4E4F3EB0E9417550E94A85477
:102080000C948410A9E3B2E0AD90BB24A1E9B6E0C2
:10209000AA0CBB1CAA0CBB1CAA0DBB1D0D911D914B
:1020A0002D913C91A8E2B2E00D931D932D933C93AA
:1020B000A0E2B3E0E2E7F3EB0E9417550E94A854B8
:1020C000E9E3F2E0A0E2B3E00E94A64F0E94BA5515
:1020D000A0E2B3E00E94A64FE8E0F2EB0E941755A1
:1020E0000E94A854E8E2F2E0A0E2B3E00E94A64F0A
:1020F0000E94E852A0E2B3E00E94A64FE6E7F3EBAD
:102100000E9417550E94A85487E080931F0281E027
:1021100080931E02882780931D02A0E2B3E00E94F4
:10212000E14F0895E5E0F0E0A0E1BB2781E08C936A
:102130007BE70E948A56EAE0F1E00CE310E0A0E1C0
:10214000BB277BE70E948C56E1E7F3E004E813E04D
:10215000A0E1BB277BE70E948C5680E080932102A0
:1021600081E08093200200912002043018F011F0E9
:102170000C945E11E0E2F2E0A190BB24E5E0F0E017
:10218000EA0DFB1DA0E1BB278FE78C937BE70E9444
:102190008A56A0E2B3E0ECE7F3EB0E9417550E94E9
:1021A000A854E0E2F3E00E948352A8E2B2E00D936B
:1021B0001D932D933D93E6E8F3EB0E9417550E9483
:1021C000B54FE0E2F2E0A0E8B0E20E94BA550E940A
:1021D000AD4FECE8F3EB0E9417550E94B54FE8E2D3
:1021E000F2E0A0E8B0E20E94AD550E94AD4F0E941F
:1021F000BC4F81E08093220200912202003118F04E
:1022000011F00C945611A1E2B2E08C918F5F8C9387
:10221000A8E2B2E00D911D912D913C91A1E2B2E0B6
:10222000AD90BB24ABE8B3E0AA0CBB1CAA0CBB1C52
:10223000AA0DBB1D0D931D932D933C93E2E7F3EB89
:102240000E9417550E94B54FE1E2F2E0A0E8B0E22B
:102250000E94BA550E94AD4FE8E0F2EB0E9417557C
:102260000E94B54FE8E2F2E0A0E8B0E20E94E85236
:102270000E94AD4F0E94BC4FA8E2B2E00D911D91AB
:102280002D913C9140E15EE060E070E00E948D5550
:10229000A8E2B2E00D931D932D933D93A2E2B2E02C
:1022A0008C918F5F8C9310F40C94FC10A0E2B2E040
:1022B0008C918F5F8C9310F40C94B31081E0809319
:1022C000250200912502003418F011F00C948C11B5
:1022D000E5E2F2E0A190BB24E6E0F0E0AA0CBB1C32
:1022E000AA0CBB1CEA0DFB1DA5E2B2E0AD90BB241D
:1022F000ABE8B3E0AA0CBB1CAA0CBB1CAA0DBB1D0F
:1023000094E07BE70E948D56A5E2B2E08C918F5F4E
:102310008C9310F40C94611181E08093240200915D
:102320002402043018F011F00C947A12E4E1F2EB7C
:102330000E9417550E94B54FE4E2F2E0A0E8B0E237
:102340000E94BA550E94AD4F0E94BC4F81E080931D
:10235000250200912502003118F011F00C94721240
:10236000E0E3F2EB0E9417550E94B54FE5E2F2E080
:10237000A0E8B0E20E94BA550E94AD4F0E94BC4F47
:10238000A4E2B2E00D91112701501040A0E3B2E0A9
:102390000D931C93A0E3B2E00D911C9140E250E03C
:1023A0000E947B54A0E3B2E00D931C93A5E2B2E03F
:1023B0000D91112701501040A2E3B2E00D931C9340
:1023C000A2E3B2E00D911C9148E050E00E947B54E2
:1023D000A2E3B2E00D931C93A0E3B2E00D911C9137
:1023E000A2E3B2E04D915C91040F151FA0E3B2E0AF
:1023F0000D931C9381E080932702009127020830FF
:1024000018F011F00C946A120091300240912702EA
:10241000040FA8E8B3E00C93E0E1F0E80E94175540
:10242000A7E2B2E08C919927A0E2B2E00E94CA54E0
:1024300080912002A8E8B3E0AD90BB24A2E9B4E00B
:10244000AA0DBB1D8C93E8E8F3E0A190BB24EBE060
:10245000F1E0EA0DFB1DA0E2B2E07BE70E948A56A4
:10246000EAE3F2EB0E9417550E94B54FE7E2F2E073
:10247000A0E8B0E20E94BA550E94AD4FE8E0F2EB4E
:102480000E9417550E94B54FD201E8E8F3E0A190F1
:10249000BB24E2E9F4E0EA0DFB1D0E944756D2019D
:1024A0000E94AF4FE0E4F2EB0E9417550E94B54F37
:1024B000E8E8F3E0A0E8B0E20E94BA550E94AD4F10
:1024C0000E94BC4FA7E2B2E08C918F5F8C9310F416
:1024D0000C94FD11A5E2B2E08C918F5F8C9310F407
:1024E0000C94A911A4E2B2E08C918F5F8C9310F44C
:1024F0000C948F11E9E3F3E0A0E1BB2780E08C931B
:102500007BE70E948A5680E08093200281E08093DE
:10251000240200912402043018F011F00C94FD12F2
:102520000CE211E020E030E0A4E2B2E0AD90BB2488
:10253000A0EEB6E0AA0CBB1CAA0CBB1CAA0DBB1DCE
:102540000D931D932D933C93E4E2F2E0A190BB2404
:10255000E8E0F3E0AA0CBB1CAA0CBB1CEA0DFB1DB7
:10256000A4E2B2E0AD90BB24A0EEB6E0AA0CBB1C86
:10257000AA0CBB1CAA0DBB1D94E07BE70E948D56E4
:10258000A0E2B2E08C91A4E2B2E0AD90BB24A0EF57
:10259000B6E0AA0CBB1CAA0CBB1CAA0DBB1D8D93DC
:1025A00088278D938D938C93E4E2F2E0A190BB2475
:1025B000E8E1F3E0AA0CBB1CAA0CBB1CEA0DFB1D56
:1025C000A4E2B2E0AD90BB24A0EFB6E0AA0CBB1C25
:1025D000AA0CBB1CAA0DBB1D94E07BE70E948D5684
:1025E000A0E2B2E08C91845C8C93A4E2B2E08C9186
:1025F0008F5F8C9310F40C94891281E080932402F5
:1026000000912402043018F011F00C945213A0E24F
:10261000B3E0E4E9F3EB0E9417550E94A854E4E20A
:10262000F2E0A0E2B3E00E94A64F0E94BA55E4E2B5
:10263000F2E00191112747E050E00E947B54E9E469
:10264000F3E0E00FF11FA0E2B3E07BE70E949B56AE
:10265000E4E2F2E0A190BB24EDE3F3E0AA0CBB1CA2
:10266000EA0DFB1D0AE010E0A0E1BB277BE70E941A
:102670008C56E4E2F2E0A190BB24E5E4F3E0AA0C7E
:10268000BB1CEA0DFB1D0AE010E0A0E1BB277BE7C5
:102690000E948C56A4E2B2E08C918F5F8C9310F470
:1026A0000C940013EFE4F3E0A0E1BB278FE08C93E0
:1026B0007BE70E948A56ECE6F3E0A0E1BB278FE0BF
:1026C0008C937BE70E948A56EDE6F3E00CE310E082
:1026D000A0E1BB277BE70E948C56EFE6F3E008E021
:1026E00017E0A0E1BB277BE70E948C56E4E3F3E010
:1026F00000E11EE020E030E0A0E1BB2794E07BE7B2
:102700000E948D56E8E3F3E0A0E1BB278CE38C93B5
:102710007BE70E948A560895E5E0F0E0A0E1BB2740
:1027200081E08C937BE70E948A56EFE4F3E0A0E11E
:10273000BB278DE08C937BE70E948A56EAE0F1E0AC
:102740000CE310E0A0E1BB277BE70E948C56E1E799
:10275000F3E004E813E0A0E1BB277BE70E948C567E
:10276000A0E2B3E0E8E9F3EB0E9417550E94A854F9
:10277000E0E2F3E00E948352A8E2B2E00D931D93E1
:102780002D933D93EAE0F0E0A8E2B2E094E07BE72D
:102790000E948D56A0E2B3E0E2EAF3EB0E941755E7
:1027A0000E94A854E0E2F3E00E948352A8E2B2E063
:1027B0000D931D932D933D93EEE0F0E0A8E2B2E07F
:1027C00094E07BE70E948D56A0E2B3E0ECEAF3EBE5
:1027D0000E9417550E94A854E0E2F3E00E94835241
:1027E000A8E2B2E00D931D932D933D93E2E1F0E05A
:1027F000A8E2B2E094E07BE70E948D56A0E2B3E04D
:10280000E6EBF3EB0E9417550E94A854E0E2F3E0D8
:102810000E948352A8E2B2E00D931D932D933D9345
:10282000E6E1F0E0A8E2B2E094E07BE70E948D569A
:10283000A0E2B3E0E0ECF3EB0E9417550E94A8542D
:10284000E0E2F3E00E948352A8E2B2E00D931D9310
:102850002D933D93EAE1F0E0A8E2B2E094E07BE75B
:102860000E948D56A0E2B3E0EAECF3EB0E9417550C
:102870000E94A854E0E2F3E00E948352A8E2B2E092
:102880000D931D932D933D93EEE1F0E0A8E2B2E0AD
:1028900094E07BE70E948D56A0E2B3E0E4EDF3EB19
:1028A0000E9417550E94A854E0E2F3E00E94835270
:1028B000A8E2B2E00D931D932D933D93E2E2F0E088
:1028C000A8E2B2E094E07BE70E948D56A0E2B3E07C
:1028D000E8E9F3EB0E9417550E94A854E0E2F3E008
:1028E0000E948352A8E2B2E00D931D932D933D9375
:1028F000E6E2F0E0A8E2B2E094E07BE70E948D56C9
:10290000EAE2F0E0A8E2B2E094E07BE70E948D56B4
:10291000EEE2F0E0A8E2B2E094E07BE70E948D56A0
:10292000E2E3F0E0A8E2B2E094E07BE70E948D569B
:10293000E6E3F0E0A8E2B2E094E07BE70E948D5687
:10294000EAE3F0E0A8E2B2E094E07BE70E948D5673
:10295000EEE3F0E0A8E2B2E094E07BE70E948D565F
:10296000E2E4F0E0A8E2B2E094E07BE70E948D565A
:10297000E6E4F0E0A8E2B2E094E07BE70E948D5646
:1029800081E08093240281E080932502009125025A
:10299000003118F011F00C948F15E0E3F2EB0E9477
:1029A00017550E94B54FE5E2F2E0A0E8B0E20E94C0
:1029B000BA550E94AD4F0E94BC4FA4E2B2E00D9107
:1029C000112701501040A0E3B2E00D931C93A0E347
:1029D000B2E00D911C9140E250E00E947B54A0E3D4
:1029E000B2E00D931C93A5E2B2E00D9111270150C6
:1029F0001040A2E3B2E00D931C93A2E3B2E00D916C
:102A00001C9148E050E00E947B54A2E3B2E00D9399
:102A10001C93A0E3B2E00D911C91A2E3B2E04D91B2
:102A20005C91040F151FA0E3B2E00D931C9381E0AD
:102A30008093270200912702083018F011F00C94BF
:102A400087150091300240912702040FA8E8B3E0F7
:102A50000C93EAE1F0E80E941755A7E2B2E08C91EE
:102A60009927A0E2B2E00E94CA5480912002A8E80F
:102A7000B3E0AD90BB24A2E9B4E0AA0DBB1D8C93DA
:102A8000E8E8F3E0A190BB24EBE0F1E0EA0DFB1DE8
:102A9000A0E2B2E07BE70E948A56EAE3F2EB0E94F2
:102AA00017550E94B54FE7E2F2E0A0E8B0E20E94BD
:102AB000BA550E94AD4FE8E0F2EB0E9417550E9414
:102AC000B54FD201E8E8F3E0A190BB24E2E9F4E0DD
:102AD000EA0DFB1D0E944756D2010E94AF4FE0E471
:102AE000F2EB0E9417550E94B54FE8E8F3E0A0E82A
:102AF000B0E20E94BA550E94AD4F0E94BC4FA7E2BF
:102B0000B2E08C918F5F8C9310F40C941A15A5E2AF
:102B1000B2E08C918F5F8C9310F40C94C6140895DE
:102B2000EEEDF3EB0E9417550E94B54F0E94BC4F8B
:102B3000E0E0F0E0A5E5B3E00E94A65680E08093D7
:102B40002102ABE8B8E08C9185FB16F00C94BB1524
:102B500070918B087F7D70938B08E8EFF3EB0E94F8
:102B600017550E94B54FA6E0BBE00E94AF4F0E94F0
:102B7000BC4F0E94851600919E07013011F00C9405
:102B8000E51570919E077E7F70939E07A0E2B2E0EC
:102B90008C918F5F8C93A1E2B2E08C918F5F8C93CC
:102BA000A0E2B2E00C914AE00E94C6568C930091DC
:102BB0002002003011F00C94E515EEEFF3EB0E94CB
:102BC00017550E94B54F0E94BC4F0091550301302C
:102BD00011F00C94A115E0E2F4EB0E9417550E944D
:102BE000B54F0E94BC4F089580E08093200280E0A2
:102BF00080932102A6E5B3E088278C938EE0809332
:102C0000200200912002073118F011F00C941D16DB
:102C1000E09120020E946454082FE0E1F0E0A6E574
:102C2000B3E00E94A64F0E942E56A0E2B2E08C9123
:102C30008F5F8C9310F40C940116E6E5F3E0A5E4A5
:102C4000B2E00E946956A6E5B3E088278C938EE037
:102C50008093200200912002073118F011F00C94AB
:102C60004616E09120020E946454082FE0E1F0E053
:102C7000A6E5B3E00E94A64F0E942E56A0E2B2E065
:102C80008C918F5F8C9310F40C942A16E5E4F2E09B
:102C9000A6E5B3E00E94DE5611F00C94521681E0D6
:102CA00080932002A1E2B2E08C918F5F8C9300911F
:102CB0002002003011F00C94711684EF91E00E9414
:102CC0006F50E4E3F4EB0E9417550E94B54FE1E228
:102CD000F2E0A0E8B0E20E94BA550E94AD4F0E9417
:102CE000BC4F00912002013081E009F080E08F9319
:102CF000009121020A3081E009F080E09F91892B48
:102D0000882311F40C94FA150895EAE3F4EB0E9479
:102D100017550E94B54FA6E0BBE00E94AF4F0E943E
:102D2000BC4F81E0E6E0FBE006E00A93A0E2B3E0FE
:102D30000E947456E6E0FBE09CE204E138E0A8EA79
:102D4000B9E00E941057A7EAB9E02C93A8EAB9E0CD
:102D50000E94D656082F063011F00C940E2EE8EA89
:102D6000F9E0AEE3B2E00E946956EEE3F2E0AEE3D2
:102D7000B2E00E94EC548FEF80930E03AEE3B2E01A
:102D8000ECE3F4EB0E9417550E94DC5611F00C9412
:102D90000A1780E080930E03A5E4B2E0E4E4F4EBCC
:102DA0000E9417550E94A854A0E2B3E0E4E8F1EBBA
:102DB0000E9417550E94A854E0E2F3E0A5E4B2E0B7
:102DC0000E94A64F0E946956A5E4B2E00E94A64F59
:102DD000E8E5F4EB0E9417550E94A854A0E2B3E086
:102DE000E0EAF1EB0E9417550E94A854E0E2F3E0FC
:102DF000A5E4B2E00E94A64F0E946956A5E4B2E0A5
:102E00000E94A64FEAE6F2EB0E9417550E94A854D2
:102E10000C940C2EE6E6F4EB0E9417550E94DC564B
:102E200011F00C94311780E080930E03A5E4B2E01A
:102E3000EEE6F4EB0E9417550E94A85470913802F8
:102E400070617093380281E080935503E0E0F0E018
:102E5000A5E5B3E07BE70E948A560E9492100C948D
:102E60000C2EECE9F4EB0E9417550E94DC5611F091
:102E70000C944E1780E080930E03A5E4B2E0E4EAE0
:102E8000F4EB0E9417550E94A854709138027061AB
:102E9000709338020E948C130C940C2EEEEBF4EB22
:102EA0000E9417550E94DC5611F00C94781780E0B0
:102EB00080930E030E94F415A5E4B2E0E6ECF4EB77
:102EC0000E9417550E94A854E6E5F3E0A5E4B2E09D
:102ED0000E94A64F0E946956A5E4B2E00E94A64F48
:102EE000EAE6F2EB0E9417550E94A8540C940C2EAF
:102EF000E0EDF4EB0E9417550E94DC5611F00C94A3
:102F0000B7170091A709023011F00C94B217ADEB7E
:102F1000B9E00E94FF55A0E2B2E00C9300912002BC
:102F2000013110F00C94AD1780E080930E03A5E4FE
:102F3000B2E0E8EDF4EB0E9417550E94A854E0E2DD
:102F4000F2E0A5E4B2E00E94A64F0E94BA5580913B
:102F5000200280939D070C94B01785E080930E03A8
:102F60000C94B51784E080930E030C940C2EE0EFC4
:102F7000F4EB0E9417550E94DC5611F00C94C61811
:102F80000091A709023011F00C94C118ADEBB9E023
:102F90000E94D656082F0C3011F00C94BC1880E01B
:102FA00080930E0387E0EDEBF9E002E00A93A0E2E4
:102FB000B3E00E947456A0E2B3E00E94A64FE8EF8F
:102FC000F4EB0E9417550E94A85489E0EDEBF9E05C
:102FD00002E00A93A0E2B3E00E94A64F0E9474565A
:102FE000A0E2B3E00E94A64FE8EFF4EB0E94175571
:102FF0000E94A8548BE0EDEBF9E002E00A93A0E216
:10300000B3E00E94A64F0E947456A0E2B3E00E9473
:10301000AF4F0E94BC4FE0E2F3E0A1E1B2E00E94BA
:1030200069560E947E51EAEFF4EB0E9417550E9408
:10303000B54F0E946B51A1E1B2E00E94AF4F0E94D8
:10304000BC4F81E0EDEBF9E002E00A93A0E2B3E0CF
:103050000E947456A0E2B3E00E94A64FEEEFF4EB9C
:103060000E9417550E94A85483E0EDEBF9E002E0BE
:103070000A93A0E2B3E00E94A64F0E947456A0E219
:10308000B3E00E94A64FEEEFF4EB0E9417550E94AA
:10309000A85485E0EDEBF9E002E00A93A0E2B3E08A
:1030A0000E94A64F0E947456A0E2B3E00E94AF4F68
:1030B0000E94BC4FE0E2F3E0A8E0B2E00E94695653
:1030C0000E947651E0E0F5EB0E9417550E94B54F43
:1030D0000E946B51A8E0B2E00E94AF4F0E94BC4F2B
:1030E000A5E4B2E0E4E0F5EB0E9417550E94A85475
:1030F0000E946B51E8E0F2E0A5E4B2E00E94A64F26
:103100000E946956A5E4B2E00E94A64FEEE2F5EBFC
:103110000E9417550E94A8540E946B51E1E1F2E011
:10312000A5E4B2E00E94A64F0E946956E5E0F2E0F5
:103130000E94CE51ADE6B3E08C930E94DA2F0E943C
:1031400024300E94532FE2E0F2E00E94AF52A4E844
:10315000B3E00D931D932D933D93E1E0F0E0A4E8DF
:10316000B3E094E07BE70E948D567091380278605E
:10317000709338020C94BF1886E080930E030C9471
:10318000C41884E080930E030C940C2EE2E3F5EB5C
:103190000E9417550E94DC5611F00C94DC1880E058
:1031A00080930E03A5E4B2E0EAE3F5EB0E94175525
:1031B0000E94A8540C940C2EE2E4F5EB0E941755E3
:1031C0000E94DC5611F00C941C1980E080930E03D1
:1031D0000E946B51E1E1F2E0A0E2B3E00E94695687
:1031E000A5E4B2E0EAE4F5EB0E9417550E94A8546A
:1031F000E0E2F3E0A5E4B2E00E94A64F0E94695627
:10320000A5E4B2E00E94A64FE8E5F5EB0E94175551
:103210000E94A8540E946B51E8E0F2E0A0E2B3E003
:103220000E946956E0E2F3E0A5E4B2E00E94A64FF6
:103230000E9469560C940C2EE8E6F5EB0E94175597
:103240000E94DC5611F00C94581980E080930E0314
:10325000E4E8F3E0A0E2B3E00E94E852A5E4B2E0C3
:10326000E0E7F5EB0E9417550E94A854E0E2F3E076
:10327000A5E4B2E00E94A64F0E946956A5E4B2E020
:103280000E94A64FE4E8F5EB0E9417550E94A8544F
:10329000E4E8F3E0A0E2B3E00E94F052E0E2F3E001
:1032A000A5E4B2E00E94A64F0E9469560C940C2E31
:1032B000ECE8F5EB0E9417550E94DC5611F00C94D7
:1032C000611A0091A709043011F00C945C1AADEB5F
:1032D000B9E00E94FF55A1E2B2E00C9300912102F7
:1032E000003080E010F009F081E08F93009121021E
:1032F000053081E008F080E09F918923882311F454
:103300000C94571AA2EDB9E00E94FF55A0E2B2E07A
:103310000C9300912002003080E010F009F081E071
:103320008F9300912002013181E008F080E09F91AD
:103330008923882311F40C94521A80E080930E03A1
:10334000E7EEF9E0A0E2B3E00E946956A1E2B2E044
:103350000D91112701501040A0E3B2E00D931C9392
:10336000A0E3B2E00D911C9140E150E00E947B543B
:10337000A0E3B2E00D931C93A0E3B2E00D911C9189
:10338000A0E2B2E04D915527040F151FA0E3B2E073
:103390000D931C93E4E9F5EB0E9417550E94B54F7D
:1033A000E0E3F2E0A0E8B0E20E94AA550E94AD4F2F
:1033B0000E94BC4FE0E2F3E00E948352A0E3B2E03F
:1033C000AD90BD90ABE8B3E0AA0CBB1CAA0CBB1C33
:1033D000AA0DBB1D0D931D932D933D93E0E3F2E0E9
:1033E000A190B190E6E0F0E0AA0CBB1CAA0CBB1CBB
:1033F000EA0DFB1DA0E3B2E0AD90BD90ABE8B3E0F9
:10340000AA0CBB1CAA0CBB1CAA0DBB1D94E07BE73D
:103410000E948D56E0E3F2E0A190B190EBE8F3E07A
:10342000AA0CBB1CAA0CBB1CEA0DFB1DA0E2B3E05E
:103430000E94E852A5E4B2E0EEE9F5EB0E941755D0
:103440000E94A854E0E2F2E0A5E4B2E00E94A64F98
:103450000E94BA55A5E4B2E00E94A64FEEE2F5EB59
:103460000E9417550E94A854E0E2F3E0A5E4B2E000
:103470000E94A64F0E946956A5E4B2E00E94A64FA2
:10348000ECEAF5EB0E9417550E94A854E1E2F2E045
:10349000A5E4B2E00E94A64F0E94BA550E94D40C47
:1034A0000C94551A86E080930E030C945A1A85E00A
:1034B00080930E030C945F1A84E080930E030C94A7
:1034C0000C2EE6EBF5EB0E9417550E94DC5611F02E
:1034D0000C94321B0091A709033011F00C942D1BA2
:1034E000ADEBB9E00E94FF55A1E2B2E00C93009170
:1034F0002102003080E010F009F081E08F9300910C
:103500002102053081E008F080E09F918923882323
:1035100011F40C94281BA2EDB9E00E94FF55A0E223
:10352000B2E00C9300912002003080E010F009F02E
:1035300081E08F9300912002013181E008F080E06A
:103540009F918923882311F40C94231B80E080939E
:103550000E03A1E2B2E00D91112701501040A0E34B
:10356000B2E00D931C93A0E3B2E00D911C9140E1F9
:1035700050E00E947B54A0E3B2E00D931C93A0E3C3
:10358000B2E00D911C91A0E2B2E04D915527040FDD
:10359000151FA0E3B2E00D931C93E4E9F5EB0E9444
:1035A00017550E94B54FE0E3F2E0A0E8B0E20E94B8
:1035B000AA550E94AD4F0E94BC4FE0E3F2E0A190FB
:1035C000B190EBE8F3E0AA0CBB1CAA0CBB1CEA0D03
:1035D000FB1DA0E2B3E00E94E852A5E4B2E0EEEBEE
:1035E000F5EB0E9417550E94A854E0E2F2E0A5E432
:1035F000B2E00E94A64F0E94BA55A5E4B2E00E9434
:10360000A64FE6ECF5EB0E9417550E94A854E0E2A5
:10361000F3E0A5E4B2E00E94A64F0E946956A5E43B
:10362000B2E00E94A64FECEAF5EB0E9417550E940B
:10363000A854E1E2F2E0A5E4B2E00E94A64F0E94A5
:10364000BA550C94261B86E080930E030C942B1B1A
:1036500085E080930E030C94301B84E080930E036E
:103660000C940C2EEAECF5EB0E9417550E94DC56E8
:1036700011F00C94841B0091A709023011F00C94F6
:103680007F1BADEBB9E00E94FF55A0E3B2E00D93C4
:103690001C93A0E3B2E00D911C91003050E015079F
:1036A00018F011F00C94561B0C947A1B80E0809358
:1036B0000E03A0E3B2E08D919C91AFE8B4E08D934E
:1036C0009C93A5E4B2E0E2EDF5EB0E9417550E9451
:1036D000A854EFE8F4E0A5E4B2E00E94A64F0E94EF
:1036E000AA55EAE0F1E0AFE8B4E07BE70E948C562F
:1036F0000C947D1B85E080930E030C94821B84E068
:1037000080930E030C940C2EE8EEF5EB0E941755F7
:103710000E94DC5611F00C94A21B80E080930E03F3
:10372000A5E4B2E0E0EFF5EB0E9417550E94A85423
:10373000EFE8F4E0A5E4B2E00E94A64F0E94AA558B
:103740000C940C2EE8EFF5EB0E9417550E94DC5606
:1037500011F00C94F41B0091A709023011F00C94A5
:10376000EF1BADEBB9E00E94FF55A0E3B2E00D9373
:103770001C93A0E3B2E00D911C91003050E01507BE
:1037800018F011F00C94C61B0C94EA1B80E0809397
:103790000E03A0E3B2E08D919C91A9E8B8E08D936F
:1037A0009C93A5E4B2E0E0E0F6EB0E9417550E947E
:1037B000A854E9E8F8E0A5E4B2E00E94A64F0E9410
:1037C000AA55E1E7F3E0A9E8B8E07BE70E948C5650
:1037D0000C94ED1B85E080930E030C94F21B84E0A7
:1037E00080930E030C940C2EEAE1F6EB0E94175521
:1037F0000E94DC5611F00C94121C80E080930E03A2
:10380000A5E4B2E0E2E2F6EB0E9417550E94A8544C
:10381000E9E8F8E0A5E4B2E00E94A64F0E94AA55AC
:103820000C940C2EE0E3F6EB0E9417550E94DC5638
:1038300011F00C94641C0091A709023011F00C9453
:103840005F1CADEBB9E00E94FF55A0E3B2E00D9321
:103850001C93A0E3B2E00D911C91003050E01507DD
:1038600018F011F00C94361C0C945A1C80E08093D4
:103870000E03A0E3B2E08D919C91AEE7B8E08D938A
:103880009C93A5E4B2E0E8E3F6EB0E9417550E9492
:10389000A854EEE7F8E0A5E4B2E00E94A64F0E942B
:1038A000AA55EDE6F3E0AEE7B8E07BE70E948C5660
:1038B0000C945D1C85E080930E030C94621C84E0E4
:1038C00080930E030C940C2EE0E5F6EB0E94175546
:1038D0000E94DC5611F00C94821C80E080930E0351
:1038E000A5E4B2E0ECE0F3EB0E9417550E94A85467
:1038F000EEE7F8E0A5E4B2E00E94A64F0E94AA55C8
:103900000C940C2EE8E5F6EB0E9417550E94DC564D
:1039100011F00C94D41C0091A709023011F00C9402
:10392000CF1CADEBB9E00E94FF55A0E3B2E00D93D0
:103930001C93A0E3B2E00D911C91003050E01507FC
:1039400018F011F00C94A61C0C94CA1C80E0809313
:103950000E03A0E3B2E08D919C91A0E8B8E08D93B6
:103960009C93A5E4B2E0E0E6F6EB0E9417550E94B6
:10397000A854E0E8F8E0A5E4B2E00E94A64F0E9457
:10398000AA55EFE6F3E0A0E8B8E07BE70E948C568A
:103990000C94CD1C85E080930E030C94D21C84E023
:1039A00080930E030C940C2EEAE7F6EB0E94175559
:1039B0000E94DC5611F00C94F21C80E080930E0300
:1039C000A5E4B2E0E8E1F3EB0E9417550E94A85489
:1039D000E0E8F8E0A5E4B2E00E94A64F0E94AA55F4
:1039E0000C940C2EE2E8F6EB0E9417550E94DC5670
:1039F00011F00C942E1E0091A709053011F00C94C3
:103A0000291EADEBB9E00E94FF55A1E2B2E00C9394
:103A100000912102003080E010F009F081E08F93E6
:103A200000912102053081E008F080E09F91892318
:103A3000882311F40C94241EA2EDB9E00E94FF55D6
:103A4000A2E2B2E00C9300912202003080E010F07C
:103A500009F081E08F9300912202013181E008F0AA
:103A600080E09F918923882311F40C941F1EA7EEF8
:103A7000B9E00E94FF55A0E2B2E00C930091200251
:103A8000003080E010F009F081E08F930091200277
:103A9000093081E008F080E09F918923882311F4A8
:103AA0000C941A1EA1E2B2E00D91112701501040B2
:103AB000A0E3B2E00D931C93A0E3B2E00D911C9142
:103AC00040E250E00E947B54A0E3B2E00D931C93CF
:103AD000A2E2B2E00D91112701501040A2E3B2E042
:103AE0000D931C93A2E3B2E00D911C9148E050E0CD
:103AF0000E947B54A2E3B2E00D931C93A0E3B2E0DA
:103B00000D911C91A2E3B2E04D915C91040F151F41
:103B1000A0E3B2E00D931C93A0E3B2E00D911C91E1
:103B2000A0E2B2E04D915527040F151FA0E3B2E0CB
:103B30000D931C93EAE8F6EB0E9417550E94B54FCF
:103B4000E0E3F2E0A0E8B0E20E94AA550E94AD4F87
:103B50000E94BC4FACEFB9E00E945756A3E2B2E01E
:103B60000C9380912302A0E3B2E0AD90BD90A2E956
:103B7000B4E0AA0DBB1D8C93E0E3F2E0A190B190FC
:103B8000EBE0F1E0EA0DFB1DA3E2B2E07BE70E946F
:103B90008A5680E080930E03A5E4B2E0E4E9F6EBF8
:103BA0000E9417550E94A854E0E2F2E0A5E4B2E0BA
:103BB0000E94A64F0E94BA55A5E4B2E00E94A64F0B
:103BC000E4EAF6EB0E9417550E94A854E2E2F2E004
:103BD000A5E4B2E00E94A64F0E94BA55A5E4B2E067
:103BE0000E94A64FE2EBF6EB0E9417550E94A854E4
:103BF000E1E2F2E0A5E4B2E00E94A64F0E94BA55CD
:103C0000A5E4B2E00E94A64FE8E0F2EB0E9417554F
:103C10000E94A854A5E4B2E00E94A64FE0E3F2E0BF
:103C2000A190B190E2E9F4E0EA0DFB1D0E94475635
:103C30000C941D1E87E080930E030C94221E86E0D8
:103C400080930E030C94271E85E080930E030C9442
:103C50002C1E84E080930E030C940C2EECEBF6EB00
:103C60000E9417550E94DC5611F00C944B1F0091D6
:103C7000A709043011F00C94461FADEBB9E00E9487
:103C8000FF55A1E2B2E00C9300912102003080E0E8
:103C900010F009F081E08F9300912102053081E05E
:103CA00008F080E09F918923882311F40C94411F30
:103CB000A2EDB9E00E94FF55A2E2B2E00C930091A0
:103CC0002202003080E010F009F081E08F93009133
:103CD0002202013181E008F080E09F91892388234E
:103CE00011F40C943C1FA7EEB9E00E94FF55A0E22E
:103CF000B2E00C9300912002003080E010F009F057
:103D000081E08F9300912002093081E008F080E08B
:103D10009F918923882311F40C94371F80E08093AE
:103D20000E03A1E2B2E00D91112701501040A0E373
:103D3000B2E00D931C93A0E3B2E00D911C9140E220
:103D400050E00E947B54A0E3B2E00D931C93A2E2EA
:103D5000B2E00D91112701501040A2E3B2E00D93A3
:103D60001C93A2E3B2E00D911C9148E050E00E9448
:103D70007B54A2E3B2E00D931C93A0E3B2E00D915B
:103D80001C91A2E3B2E04D915C91040F151FA0E3DA
:103D9000B2E00D931C93A0E3B2E00D911C91A0E260
:103DA000B2E04D915527040F151FA0E3B2E00D932B
:103DB0001C93E4ECF6EB0E9417550E94B54FE0E32C
:103DC000F2E0A0E8B0E20E94AA550E94AD4F0E9426
:103DD000BC4FA5E4B2E0EAE3F2EB0E9417550E9463
:103DE000A854E0E2F2E0A5E4B2E00E94A64F0E94EF
:103DF000BA55A5E4B2E00E94A64FE4EAF6EB0E94B1
:103E000017550E94A854E2E2F2E0A5E4B2E00E9455
:103E1000A64F0E94BA55A5E4B2E00E94A64FE2EB7D
:103E2000F6EB0E9417550E94A854E1E2F2E0A5E4E7
:103E3000B2E00E94A64F0E94BA55A5E4B2E00E94EB
:103E4000A64FE8E0F2EB0E9417550E94A854A5E4A3
:103E5000B2E00E94A64FE0E3F2E0A190B190E2E967
:103E6000F4E0EA0DFB1D0E9447560C943A1F87E0D0
:103E700080930E030C943F1F86E080930E030C94F6
:103E8000441F85E080930E030C94491F84E08093C7
:103E90000E030C940C2EE2EDF6EB0E9417550E94D7
:103EA000DC5611F00C94A91F0091A709023011F003
:103EB0000C94A41FADEBB9E00E94FF55A1E2B2E063
:103EC0000C9300912102003080E010F009F081E0B5
:103ED0008F9300912102053081E008F080E09F91EE
:103EE0008923882311F40C949F1F80E080930E0394
:103EF000ADEBB9E00E94FF55A9E8B3E00C93E5E013
:103F0000F0E0A9E8B3E07BE70E948A56A5E4B2E0BE
:103F1000EAEDF6EB0E9417550E94A854E9E8F3E099
:103F2000A5E4B2E00E94A64F0E94BA550E94D40CAC
:103F30007091B20772607093B2070C94A21F85E073
:103F400080930E030C94A71F84E080930E030C94BF
:103F50000C2EE8EFF6EB0E9417550E94DC5611F08C
:103F60000C94CC1F80E080930E03A5E4B2E0ECE655
:103F7000F2EB0E9417550E94A854E9E8F3E0A5E48B
:103F8000B2E00E94A64F0E94BA557091E00670629E
:103F90007093E0060C940C2EE0E0F7EB0E941755AE
:103FA0000E94DC5611F00C944F200091A7090330B9
:103FB00011F00C944A20ADEBB9E00E94FF55A1E24C
:103FC000B2E00C9300912102003080E010F009F083
:103FD00081E08F9300912102053081E008F080E0BC
:103FE0009F918923882311F40C94452080E08093CD
:103FF0000E03A2EDB9E00E945756A1E2B2E0AD90E7
:10400000BB24A9E8B3E0AA0DBB1D0C93E1E2F2E0EA
:10401000A190BB24E5E0F0E0EA0DFB1DA1E2B2E0D7
:10402000AD90BB24A9E8B3E0AA0DBB1D7BE70E94BD
:104030008A56A5E4B2E0E8E0F7EB0E9417550E942B
:10404000A854E9E8F3E0A5E4B2E00E94A64F0E947C
:10405000BA55A5E4B2E00E94A64FEEE2F5EB0E944D
:1040600017550E94A854A5E4B2E00E94A64FE1E2D1
:10407000F2E0A190BB24E9E8F3E0EA0DFB1D0E9409
:1040800047560E94D40C0C94482085E080930E0380
:104090000C944D2084E080930E030C940C2EE6E2E9
:1040A000F7EB0E9417550E94DC5611F00C94A920E2
:1040B0000091A709023011F00C94A4200091210274
:1040C000003080E010F009F081E08F930091210230
:1040D000053081E008F080E09F918923882311F466
:1040E0000C949F2080E080930E03A5E4B2E0EEE202
:1040F000F7EB0E9417550E94A854E9E8F3E0A5E405
:10410000B2E00E94A64F0E94BA55A5E4B2E00E9418
:10411000A64FE2E4F7EB0E9417550E94A854A5E4CD
:10412000B2E00E94A64FE1E2F2E0A190BB24E9E8F0
:10413000F3E0EA0DFB1D0E9447560C94A22085E097
:1041400080930E030C94A72084E080930E030C94BC
:104150000C2EE6E4F7EB0E9417550E94DC5611F096
:104160000C9450210091A709033011F00C944B21BD
:10417000ADEBB9E00E94FF55A4E2B2E00C930091D0
:104180002402003080E010F009F081E08F9300916C
:104190002402053081E008F080E09F918923882384
:1041A00011F40C944621A2EDB9E00E94FF55ACE257
:1041B000B2E00D931D932D933D93ACE2B2E00D91CF
:1041C0001D912D913C91A4E2B2E0AD90BB24A0EEF4
:1041D000B6E0AA0CBB1CAA0CBB1CAA0DBB1D0D9300
:1041E0001D932D933C93E4E2F2E0A190BB24E8E020
:1041F000F3E0AA0CBB1CAA0CBB1CEA0DFB1DACE235
:10420000B2E094E07BE70E948D5680E080930E033D
:10421000A5E4B2E0EEE4F7EB0E9417550E94A85423
:10422000E4E2F2E0A5E4B2E00E94A64F0E94BA5593
:10423000A5E4B2E00E94A64FE8EFF4EB0E94175508
:104240000E94A854E4E2F2E0A190BB24E0EEF6E084
:10425000AA0CBB1CAA0CBB1CEA0DFB1DA5E4B2E01A
:104260000E94A64F0E94AD55E4E2F2E0A190BB246B
:10427000E0EEF6E0AA0CBB1CAA0CBB1CEA0DFB1D71
:10428000A4E0B7E00E94AD550C94492183E08093EF
:104290000E030C944E2184E080930E030C940C2E9C
:1042A000E4E6F7EB0E9417550E94DC5611F00C94DF
:1042B000F7210091A709033011F00C94F221ADEB26
:1042C000B9E00E94FF55A4E2B2E00C9300912402F1
:1042D000003080E010F009F081E08F93009124021B
:1042E000053081E008F080E09F918923882311F454
:1042F0000C94ED21A2EDB9E00E94FF55ACE2B2E0D2
:104300000D931D932D933D93ACE2B2E00D911D9161
:104310002D913C91A4E2B2E0AD90BB24A0EFB6E0B9
:10432000AA0CBB1CAA0CBB1CAA0DBB1D0D931D9394
:104330002D933C93E4E2F2E0A190BB24E8E1F3E0AA
:10434000AA0CBB1CAA0CBB1CEA0DFB1DACE2B2E024
:1043500094E07BE70E948D5680E080930E03A5E4F5
:10436000B2E0EEE4F7EB0E9417550E94A854E4E295
:10437000F2E0A5E4B2E00E94A64F0E94BA55A5E47F
:10438000B2E00E94A64FE8EFF4EB0E9417550E949E
:10439000A854E4E2F2E0A190BB24E0EFF6E0AA0C1E
:1043A000BB1CAA0CBB1CEA0DFB1DA5E4B2E00E94DD
:1043B000A64F0E94AD55E4E2F2E0A190BB24E0EFED
:1043C000F6E0AA0CBB1CAA0CBB1CEA0DFB1DA4E06A
:1043D000B7E00E94AD550C94F02183E080930E036A
:1043E0000C94F52184E080930E030C940C2EECE6E3
:1043F000F7EB0E9417550E94DC5611F00C949C229A
:104400000091A709023011F00C949722ADEBB9E0AE
:104410000E94FF55A4E2B2E00C9300912402003008
:1044200080E010F009F081E08F93009124020530C4
:1044300081E008F080E09F918923882311F40C9497
:104440009222A5E4B2E0E4E7F7EB0E9417550E9440
:10445000A854E4E2F2E0A5E4B2E00E94A64F0E9474
:10446000BA55A5E4B2E00E94A64FE8EFF4EB0E9433
:1044700017550E94A854E4E2F2E0A190BB24E0EEBC
:10448000F6E0AA0CBB1CAA0CBB1CEA0DFB1DA5E4A4
:10449000B2E00E94A64F0E94AD5580E080930E03CB
:1044A000EAE3F4EB0E9417550E94B54FE4E2F2E014
:1044B000A0E8B0E20E94BA550E94AD4FE2ECF1EBE9
:1044C0000E9417550E94B54FE4E2F2E0A190BB2490
:1044D000E0EEF6E0AA0CBB1CAA0CBB1CEA0DFB1D0F
:1044E000A0E8B0E20E94AD550E94AD4F0E94BC4FC3
:1044F000ECE7F7EB0E9417550E94B54F0E94BC4FA6
:10450000E4E2F2E0A190BB24E0EEF6E0AA0CBB1CD2
:10451000AA0CBB1CEA0DFB1DA4E0B7E00E94AD5540
:104520000C94952283E080930E030C949A2284E0ED
:1045300080930E030C940C2EE0E8F7EB0E941755C5
:104540000E94DC5611F00C9441230091A70902301F
:1045500011F00C943C23ADEBB9E00E94FF55A4E2AE
:10456000B2E00C9300912402003080E010F009F0DA
:1045700081E08F9300912402053081E008F080E013
:104580009F918923882311F40C943723A5E4B2E08A
:10459000E8E8F7EB0E9417550E94A854E4E2F2E025
:1045A000A5E4B2E00E94A64F0E94BA55A5E4B2E08D
:1045B0000E94A64FE8EFF4EB0E9417550E94A85402
:1045C000E4E2F2E0A190BB24E0EFF6E0AA0CBB1C11
:1045D000AA0CBB1CEA0DFB1DA5E4B2E00E94A64F8D
:1045E0000E94AD5580E080930E03EAE3F4EB0E9455
:1045F00017550E94B54FE4E2F2E0A0E8B0E20E9455
:10460000BA550E94AD4FE2ECF1EB0E9417550E94A3
:10461000B54FE4E2F2E0A190BB24E0EFF6E0AA0C93
:10462000BB1CAA0CBB1CEA0DFB1DA0E8B0E20E945B
:10463000AD550E94AD4F0E94BC4FECE7F7EB0E94D6
:1046400017550E94B54F0E94BC4FE4E2F2E0A190E2
:10465000BB24E0EFF6E0AA0CBB1CAA0CBB1CEA0DC5
:10466000FB1DA4E0B7E00E94AD550C943A2383E013
:1046700080930E030C943F2384E080930E030C94EC
:104680000C2EE4E9F7EB0E9417550E94DC5611F05E
:104690000C94B4230091A709023011F00C94AF23BD
:1046A000ADEBB9E00E94FF55A4E2B2E00C9300919B
:1046B0002402003080E010F009F081E08F93009137
:1046C0002402053081E008F080E09F91892388234F
:1046D00011F40C94AA2380E080930E03009124022D
:1046E00041E0041BA0E2B2E00C9380912002A2EB17
:1046F000B7E00E9402550E94F8549C91982B9C931D
:10470000A5E4B2E0ECE9F7EB0E9417550E94A8542B
:10471000E4E2F2E0A5E4B2E00E94A64F0E94BA559E
:10472000A5E4B2E00E94A64FE2ECF1EB0E9417551F
:104730000E94A854A5E4B2E00E94A64FE2EBF7E085
:104740000E944756A4E0B7E0E2EBF7E00E9447562C
:104750000C94AD2383E080930E030C94B22384E089
:1047600080930E030C940C2EE0EBF7EB0E94175590
:104770000E94DC5611F00C94F5230091A709023039
:1047800011F00C94F02380E080930E03ADEBB9E0C0
:104790000E94FF55ABE4B7E00D931D932D933D931D
:1047A000E4E3F3E0ABE4B7E094E07BE70E948D56EE
:1047B000A5E4B2E0E8EBF7EB0E9417550E94A8547D
:1047C000EBE4F7E0A5E4B2E00E94A64F0E94AD55ED
:1047D000EBE4F7E0A4E0B7E00E94AD550C94F323BE
:1047E00084E080930E030C940C2EE0EDF7EB0E9416
:1047F00017550E94DC5611F00C94192480E0809328
:104800000E03A5E4B2E0E8EDF7EB0E9417550E9415
:10481000A854EBE4F7E0A5E4B2E00E94A64F0E94A2
:10482000AD55EBE4F7E0A4E0B7E00E94AD550C9481
:104830000C2EE2EEF7EB0E9417550E94DC5611F0A9
:104840000C94342480E080930E037091E006726033
:104850007093E006A5E4B2E0EAEEF7EB0E9417558C
:104860000E94A8540C940C2EE2EFF7EB0E9417550F
:104870000E94DC5611F00C9471240091A7090230BB
:1048800011F00C946C2480E080930E03ADEBB9E042
:104890000E94FF55A3EBB7E00C93E8E3F3E0A3EB32
:1048A000B7E07BE70E948A56A5E4B2E0EAEFF7EBB7
:1048B0000E9417550E94A854E3EBF7E0A5E4B2E08C
:1048C0000E94A64F0E94BA55E3EBF7E0A4E0B7E0E0
:1048D0000E94BA550C946F2484E080930E030C94CC
:1048E0000C2EECE0F8EB0E9417550E94DC5611F0FC
:1048F0000C94952480E080930E03A5E4B2E0E4E1FB
:10490000F8EB0E9417550E94A854E3EBF7E0A5E4EA
:10491000B2E00E94A64F0E94BA55E3EBF7E0A4E094
:10492000B7E00E94BA550C940C2EEAE1F8EB0E9415
:1049300017550E94DC5611F00C94B02480E080934F
:104940000E0370919407746070939407A5E4B2E02D
:10495000E2E2F8EB0E9417550E94A8540C940C2E2A
:10496000ECE2F8EB0E9417550E94DC5611F00C9413
:10497000E7240091A709023011F00C94E22480E0B2
:1049800080930E03ADEBB9E00E94FF55AAECB7E0AF
:104990000C93E9E3F3E0AAECB7E07BE70E948A56C8
:1049A000A5E4B2E0E4E3F8EB0E9417550E94A85496
:1049B000EAECF7E0A5E4B2E00E94A64F0E94BA55E7
:1049C0000C94E52484E080930E030C940C2EEAE40E
:1049D000F8EB0E9417550E94DC5611F00C94052547
:1049E00080E080930E03A5E4B2E0EAEAF1EB0E94D6
:1049F00017550E94A854EAECF7E0A5E4B2E00E9443
:104A0000A64F0E94BA550C940C2EE2E5F8EB0E94DA
:104A100017550E94DC5611F00C9448250091A70907
:104A2000023011F00C944325ADEBB9E00E94FF5524
:104A3000ABECB7E00D931C93EAE3F3E0ABECB7E02B
:104A40007BE70E948C5680E080930E03A5E4B2E0E1
:104A5000EAE5F8EB0E9417550E94A854EBECF7E04A
:104A6000A5E4B2E00E94A64F0E94AA55EBECF7E045
:104A7000A4E0B7E00E94AA557091B20772607093EB
:104A8000B2070C94462584E080930E030C940C2E00
:104A9000EAE7F8EB0E9417550E94DC5611F00C94DF
:104AA00081250091A709013011F00C947C2580E04C
:104AB00080930E03A5E4B2E0E2E8F8EB0E941755FC
:104AC0000E94A854EBECF7E0A5E4B2E00E94A64FE8
:104AD0000E94AA55A5E4B2E00E94A64FEAE6F2EBD6
:104AE0000E9417550E94A854EBECF7E0A4E0B7E051
:104AF0000E94AA550C947F2584E080930E030C94A9
:104B00000C2EE6E9F8EB0E9417550E94DC5611F0D6
:104B10000C94CB250091A709023011F00C94C62506
:104B2000ADEBB9E00E94FF55A0E2B2E00C9300911A
:104B30002002023010F00C94C12580E080930E0317
:104B400000912002003011F00C94A9255F980C947C
:104B5000AA255F9AA5E4B2E0EEE9F8EB0E941755AA
:104B60000E94A854ABE2B0E08C9187FBA5E4B2E0D0
:104B70000E94A64F0E9408558D9388278C930C9411
:104B8000C42583E080930E030C94C92584E08093B0
:104B90000E030C940C2EE8EAF8EB0E9417550E94C5
:104BA000DC5611F00C94FC250091A709023011F09D
:104BB0000C94F72580E080930E03ADEBB9E00E94E2
:104BC000FF55AFECB7E00D931C93A5E4B2E0E0EB2A
:104BD000F8EB0E9417550E94A854EFECF7E0A5E40B
:104BE000B2E00E94A64F0E94AA550C94FA2584E0D8
:104BF00080930E030C940C2EE8ECF8EB0E941755F2
:104C00000E94DC5611F00C9434260091A709023062
:104C100011F00C942F2680E080930E03ADEBB9E0E9
:104C20000E94FF55ADECB7E00D931C93ECE3F3E06D
:104C3000ADECB7E07BE70E948C56A5E4B2E0E0ED76
:104C4000F8EB0E9417550E94A854EDECF7E0A5E49C
:104C5000B2E00E94A64F0E94AA550C94322684E02E
:104C600080930E030C940C2EEAEEF8EB0E9417557D
:104C70000E94DC5611F00C94762680E080930E039F
:104C8000A5E4B2E0E2EFF8EB0E9417550E94A854A9
:104C9000EDECF7E0A5E4B2E00E94A64F0E94AA5511
:104CA000A5E4B2E00E94A64FE2E0F9EB0E9417559E
:104CB0000E94A854EFECF7E0A5E4B2E00E94A64FF2
:104CC0000E94AA55A5E4B2E00E94A64FEEE0F9EBDF
:104CD0000E9417550E94A854E1EDF7E0A5E4B2E068
:104CE0000E94A64F0E94BA550C940C2EECE1F9EBF1
:104CF0000E9417550E94DC5611F00C949B2680E010
:104D000080930E03ADEBB9E00E94FF55A1EDB7E033
:104D10000C93A5E4B2E0E4E2F9EB0E9417550E947F
:104D2000A854E1EDF7E0A5E4B2E00E94A64F0E948E
:104D3000BA550C940C2EE4E3F9EB0E9417550E942F
:104D4000DC5611F00C94322780E080930E03A5E42A
:104D5000B2E0ECE3F9EB0E9417550E94A85481E001
:104D60008093200200912002043018F011F00C947E
:104D700030270091200241E0041BA4E2B2E00C9332
:104D800080912402AAE0B8E00E9402550E94F854E3
:104D90000C900822689409F4E89416F00C942827E3
:104DA0000027442780912402A0E2B0E00E9402552F
:104DB0000E94F8540C900822689409F4E89400F9D1
:104DC00080912402A4EEB7E00E9402550E94F8549C
:104DD0000C900822689409F4E89440F9042700FB39
:104DE000A8E3B2E08C9187F98C93E0E2F2E00191C4
:104DF000112747E050E00E947B54EEEDF7E0E00F12
:104E0000F11FA5E4B2E00E94A64F0E946956A5E4F6
:104E1000B2E00E94A64FE8E0F2EB0E9417550E9414
:104E2000A854A8E3B2E08C9187FBA5E4B2E00E940D
:104E3000A64F0E9408558D9388278C93A5E4B2E075
:104E40000E94A64FE2ECF1EB0E9417550E94A85475
:104E5000A0E2B2E08C918F5F8C9310F40C94B22698
:104E60000C940C2EE0E5F9EB0E9417550E94DC56DD
:104E700011F00C94E8270091A709043011F00C946C
:104E8000E327ADEBB9E00E94FF55A1E2B2E00C933D
:104E900000912102013011F00C94D627A2EDB9E067
:104EA0000E94FF55A0E2B2E00C9300912002003076
:104EB00080E010F009F081E08F930091200205302E
:104EC00081E008F080E09F918923882311F40C94FD
:104ED000D12780E080930E030091200241E0041B63
:104EE000A2E2B2E00C93A7EEB9E00E94FF55A1E266
:104EF000B2E00C9300912102003011F00C948D2748
:104F000080912202AAE0B8E00E9402550E94F85463
:104F10008C9189238C930C94982780912202AAE08B
:104F2000B8E00E9402550E94F8549C91982B9C93E3
:104F3000ECE6F3E0AAE0B8E07BE70E948A56A5E43D
:104F4000B2E0E8E5F9EB0E9417550E94A854E0E2B0
:104F5000F2E0A5E4B2E00E94A64F0E94BA55A5E493
:104F6000B2E00E94A64FE8E0F2EB0E9417550E94C3
:104F7000A85480912202AAE0B8E00E9402550E9443
:104F8000F8540C900822689409F4E894A5E4B2E07F
:104F90000E94A64F0E9408558D9388278C930C94ED
:104FA000D42785E080930E030C94E12780E0809362
:104FB0000E03A5E4B2E0ECE6F9EB0E9417550E945F
:104FC000A8540C94E62784E080930E030C940C2ED6
:104FD000EAE8F9EB0E9417550E94DC5611F00C9498
:104FE000C1280091A709013011F00C940C2880E031
:104FF00080930E03A5E4B2E0E2E9F9EB0E941755B5
:105000000E94A854A5E4B2E00E94A64FEAE0F8E0AE
:105010000E9447560C94BF28023011F00C943F2890
:10502000ADEBB9E00E94FF55A1E2B2E00C93009114
:105030002102013011F00C94322880E080930E039D
:10504000A5E4B2E0E2E9F9EB0E9417550E94A854EA
:10505000A5E4B2E00E94A64FEAE0F8E00E944756BD
:105060000C943D2880E080930E03A5E4B2E0EAE9C9
:10507000F9EB0E9417550E94A8540C94BF280330E6
:1050800011F00C94BC28ADEBB9E00E94FF55A1E2F1
:10509000B2E00C9300912102013011F00C94AF2882
:1050A000A2EDB9E00E94FF55A0E2B2E00C9300919E
:1050B0002002003080E010F009F081E08F93009131
:1050C0002002053081E008F080E09F918923882349
:1050D00011F40C94AA2880E080930E030091200222
:1050E00041E0041BA2E2B2E00C9380E080930E0347
:1050F000A5E4B2E0EEEAF9EB0E9417550E94A8542D
:10510000E0E2F2E0A5E4B2E00E94A64F0E94BA55A8
:10511000A5E4B2E00E94A64FE8E0F2EB0E9417552A
:105120000E94A85480912202AAE0B8E00E94025591
:105130000E94F8540C900822689409F4E894A5E4BD
:10514000B2E00E94A64F0E9408558D9388278C9349
:105150000C94AD2885E080930E030C94BA2880E06F
:1051600080930E03A5E4B2E0E6EBF9EB0E9417553D
:105170000E94A8540C94BF2884E080930E030C94E2
:105180000C2EECECF9EB0E9417550E94DC5611F046
:105190000C945D290091A709033011F00C94582953
:1051A000ADEBB9E00E94FF55A0E2B2E00C93009194
:1051B0002002003080E010F009F081E08F93009130
:1051C0002002053081E008F080E09F918923882348
:1051D00011F40C94532980E080930E030091200277
:1051E00041E0041BA2E2B2E00C93A2EDB9E00E9400
:1051F000FF55A1E2B2E00C9300912102003011F0C2
:105200000C940F2980912202A4EEB7E00E9402556F
:105210000E94F8548C9189238C930C941A298091C4
:105220002202A4EEB7E00E9402550E94F8549C911D
:10523000982B9C93EFE4F3E0A4EEB7E07BE70E94A9
:105240008A56A5E4B2E0E4EDF9EB0E9417550E94FE
:10525000A854E0E2F2E0A5E4B2E00E94A64F0E946A
:10526000BA55A5E4B2E00E94A64FE8E0F2EB0E9436
:1052700017550E94A85480912202A4EEB7E00E9424
:1052800002550E94F8540C900822689409F4E8949E
:10529000A5E4B2E00E94A64F0E9408558D9388278E
:1052A0008C930C94562985E080930E030C945B2913
:1052B00084E080930E030C940C2EE8EEF9EB0E9430
:1052C00017550E94DC5611F00C94E6290091A709AD
:1052D000013011F00C94812980E080930E03A5E445
:1052E000B2E0E0EFF9EB0E9417550E94A854A5E444
:1052F000B2E00E94A64FE4EEF7E00E9447560C94FD
:10530000E429023011F00C94E129ADEBB9E00E94E0
:10531000FF55A0E2B2E00C9300912002003080E043
:1053200010F009F081E08F9300912002053081E0B8
:1053300008F080E09F918923882311F40C94DC29E4
:105340000091200241E0041BA2E2B2E00C9380E055
:1053500080930E03A5E4B2E0E8EFF9EB0E94175545
:105360000E94A854E0E2F2E0A5E4B2E00E94A64F59
:105370000E94BA55A5E4B2E00E94A64FE8E0F2EB25
:105380000E9417550E94A85480912202A4EEB7E013
:105390000E9402550E94F8540C900822689409F467
:1053A000E894A5E4B2E00E94A64F0E9408558D93B0
:1053B00088278C930C94DF2985E080930E030C944E
:1053C000E42984E080930E030C940C2EE0E0FAEBC9
:1053D0000E9417550E94DC5611F00C940A2C009183
:1053E000A709053011F00C94052CADEBB9E00E9433
:1053F000FF55A0E2B2E00C93A2EDB9E00E94FF5588
:10540000A1E2B2E00C93A7EEB9E00E94FF55A2E240
:10541000B2E00C9300912002013011F00C94E72BC4
:1054200000912102003080E010F009F081E08F93BC
:1054300000912102053081E008F080E09F918923EE
:10544000882311F40C94DA2B00912202013011F020
:105450000C94862AECEFF9E0A1E2B2E00D9111275D
:1054600047E050E00E947B54AEEDB7E0A00FB11FC3
:105470000E946956E1E2F2E00191112747E050E015
:105480000E947B54E9E4F3E0E00FF11FA1E2B2E0F7
:105490000D91112747E050E00E947B54AEEDB7E03C
:1054A000A00FB11F7BE70E949B5680E080930E0304
:1054B000A5E4B2E0E8E0FAEB0E9417550E94A85478
:1054C000E1E2F2E0A5E4B2E00E94A64F0E94BA55E4
:1054D000A5E4B2E00E94A64FE8E0F2EB0E94175567
:1054E0000E94A854E1E2F2E00191112747E050E068
:1054F0000E947B54EEEDF7E0E00FF11FA5E4B2E06F
:105500000E94A64F0E9469560C94D82B023011F0CD
:105510000C94052BACEFB9E00E94FF55A3E2B2E07A
:105520000C9300912302023010F00C94F82A0091A1
:10553000210241E0041BA4E2B2E00C93009123029B
:10554000003011F00C94B12A80912402A4EEB7E04F
:105550000E9402550E94F8548C9189238C930C94DC
:10556000BC2A80912402A4EEB7E00E9402550E945A
:10557000F8549C91982B9C93EFE4F3E0A4EEB7E0F1
:105580007BE70E948A5680E080930E03A5E4B2E098
:10559000ECE1FAEB0E9417550E94A854E1E2F2E018
:1055A000A5E4B2E00E94A64F0E94BA55A5E4B2E07D
:1055B0000E94A64FE8E0F2EB0E9417550E94A85403
:1055C00080912402A4EEB7E00E9402550E94F85494
:1055D0000C900822689409F4E894A5E4B2E00E94D3
:1055E000A64F0E9408558D9388278C930C94032B0B
:1055F00080E080930E03A5E4B2E0E2E2FAEB0E94C1
:1056000017550E94A8540C94D82B033011F00C9419
:10561000692BACEFB9E00E94FF55A1E2B2E0AD907A
:10562000BB24A2EDB7E0AA0CBB1CAA0DBB1D0D93B9
:105630001C93E1E2F2E0A190BB24EDE3F3E0AA0CBD
:10564000BB1CEA0DFB1DA1E2B2E0AD90BB24A2EDB4
:10565000B7E0AA0CBB1CAA0DBB1D7BE70E948C56B1
:1056600080E080930E03A5E4B2E0E0E4FAEB0E9450
:1056700017550E94A854E1E2F2E0A5E4B2E00E94CE
:10568000A64F0E94BA55A5E4B2E00E94A64FE8E0FA
:10569000F2EB0E9417550E94A854E1E2F2E0A190BB
:1056A000BB24E2EDF7E0AA0CBB1CEA0DFB1DA5E450
:1056B000B2E00E94A64F0E94AA55A5E4B2E00E9463
:1056C000A64FECE5FAEB0E9417550E94A8540C94E3
:1056D000D82B043011F00C94CD2BACEFB9E00E9424
:1056E000FF55A1E2B2E0AD90BB24AAEDB7E0AA0C51
:1056F000BB1CAA0DBB1D0D931C93E1E2F2E0A1902F
:10570000BB24E5E4F3E0AA0CBB1CEA0DFB1DA1E2FF
:10571000B2E0AD90BB24AAEDB7E0AA0CBB1CAA0D69
:10572000BB1D7BE70E948C5680E080930E03A5E4AE
:10573000B2E0E4E6FAEB0E9417550E94A854E1E2B9
:10574000F2E0A5E4B2E00E94A64F0E94BA55A5E49B
:10575000B2E00E94A64FE8E0F2EB0E9417550E94CB
:10576000A854E1E2F2E0A190BB24EAEDF7E0AA0C34
:10577000BB1CEA0DFB1DA5E4B2E00E94A64F0E94EF
:10578000AA55A5E4B2E00E94A64FECE5FAEB0E9410
:1057900017550E94A8540C94D82B80E080930E03D8
:1057A000A5E4B2E0E0E8FAEB0E9417550E94A85485
:1057B0000C94E52B80E080930E03A5E4B2E0E8E9C9
:1057C000FAEB0E9417550E94A8540C94032C033046
:1057D00011F00C94F82B80E080930E03A5E4B2E066
:1057E000EAEAFAEB0E9417550E94A8540C94032C85
:1057F00080E080930E03A5E4B2E0E2EDFAEB0E94B4
:1058000017550E94A8540C94082C84E080930E0332
:105810000C940C2EEEEEFAEB0E9417550E94DC560B
:1058200011F00C94FA2C0091A709033011F00C949C
:10583000F52CADEBB9E00E94FF55A0E2B2E00C936D
:10584000A2EDB9E00E94FF55A1E2B2E00C930091F5
:105850002002013011F00C94E42C80E080930E03C0
:1058600000912102003080E010F009F081E08F9378
:1058700000912102053081E008F080E09F918923AA
:10588000882311F40C94D72C0091210241E0041BD1
:10589000A4E2B2E00C93A5E4B2E0E4E9F3EB0E94E9
:1058A00017550E94A854E1E2F2E0A5E4B2E00E949C
:1058B000A64F0E94BA55A5E4B2E00E94A64FE6EFBB
:1058C000FAEB0E9417550E94A854E1E2F2E0019120
:1058D000112747E050E00E947B54EEEDF7E0E00F27
:1058E000F11FA5E4B2E00E94A64F0E946956A5E40C
:1058F000B2E00E94A64FE0E0FBEB0E9417550E9429
:10590000A85480912402A4EEB7E00E9402550E94A0
:10591000F8540C900822689409F4E894A5E4B2E0E5
:105920000E94A64F0E9408558D9388278C93A5E46A
:10593000B2E00E94A64FE6E0FBEB0E9417550E94E2
:10594000A854E1E2F2E0A190BB24E2EDF7E0AA0C5A
:10595000BB1CEA0DFB1DA5E4B2E00E94A64F0E940D
:10596000AA55A5E4B2E00E94A64FEEE0FBEB0E9430
:1059700017550E94A854E1E2F2E0A190BB24EAEDA1
:10598000F7E0AA0CBB1CEA0DFB1DA5E4B2E00E94E7
:10599000A64F0E94AA55A5E4B2E00E94A64FEEE1F0
:1059A000FBEB0E9417550E94A8540C94E22C80E057
:1059B00080930E03A5E4B2E0E8E9FAEB0E941755E4
:1059C0000E94A8540C94F32C033011F00C94F32C87
:1059D00080E080930E03A5E4B2E0EAEAFAEB0E94CD
:1059E00017550E94A8540C94F82C84E080930E0361
:1059F0000C940C2EE6E2FBEB0E9417550E94DC563D
:105A000011F00C948C2D80E080930E03A5E4B2E09D
:105A1000EEE2FBEB0E9417550E94A854A8E2B0E00A
:105A20008C9180FBA5E4B2E00E94A64F0E9408552D
:105A30008D9388278C93A8E2B0E08C9181FBA5E43C
:105A4000B2E00E94A64F0E9408558D9388278C9340
:105A5000A8E2B0E08C9182FBA5E4B2E00E94A64FE0
:105A60000E9408558D9388278C93A8E2B0E08C9112
:105A700083FBA5E4B2E00E94A64F0E9408558D93D7
:105A800088278C93A8E2B0E08C9184FBA5E4B2E077
:105A90000E94A64F0E9408558D9388278C93A8E2F8
:105AA000B0E08C9185FBA5E4B2E00E94A64F0E9475
:105AB00008558D9388278C93A5E4B2E00E94A64FE9
:105AC000E2E3FBEB0E9417550E94A854A8E2B0E065
:105AD0008C9186FBA5E4B2E00E94A64F0E94085577
