:100000000C947200189500001895000018950000D7
:10001000189500001895000018950000189500002C
:10002000189500001895000018950000189500001C
:100030001895000018950000189500000C9495057F
:1000400018950000189500001895000018950000FC
:100050000C94200318950000189500000C94510290
:10006000189500000C940D011895000018950000DB
:1000700018950000189500001895000018950000CC
:1000800018950000189500001895000018950000BC
:100090000C949F0118950000189500001895000019
:1000A000189500001895000018950000189500009C
:1000B000189500001895000018950000189500008C
:1000C000189500001895000018950000189500007C
:1000D000189500001895000018950000189500006C
:1000E000189500008FEF8DBFC0E8E8E94E2E81E241
:1000F0008EBFD1E2F0E25F2EA89584B7082E882744
:1001000084BF88E199278093600090936000EEEFB0
:10011000FFE1A0E0B2E088278D933197E9F787E609
:100120008093C40080E08093C50088E18093C10083
:100130006624279A389A399A3A9A3B9A3C9A3D9A79
:100140003E9A3F9A70910A01716070930A01709112
:100150000A01726070930A0170910A0174607093D1
:100160000A01219A229A239A289A209A5F9A579AEA
:10017000089809980A980B98109A119A129A139A4B
:1001800085E085BD80E084BD70916E0071607093E4
:100190006E0085E085BD80E08093800085E08093DF
:1001A000810070916F00716070936F0085E08093A3
:1001B000810087E08093B10080E08093B00070916F
:1001C000700071607093700087E08093B10070914F
:1001D000C10070687093C10087E68093CC0080E016
:1001E0008093CD007091C8007D7F7093C80086E039
:1001F0008093CA0088E18093C9007091C90070683B
:100200007093C90070E07093B9007CE07093B800FF
:100210000E94A85178940C94A3470F921F922F929A
:100220003F924F925F927F92AF92BF920F931F9334
:100230002F933F934F935F936F937F938F939F93EE
:10024000AF93BF93CF93DF93EF93FF938FB78F93CA
:100250008BB78F9388278BBFA7E2BDE08091C60044
:100260008C9384E2482F0091270D041711F00C9411
:10027000440170918B08706470938B08A2E7BCE016
:1002800088278C930C9481010D3011F00C94690136
:10029000ABE8B8E08C9186FB16F00C946701709186
:1002A0008B087F7B70938B0880E0A2E7BCE00E9404
:1002B000F84D8D9388278C93E2E7FCE0A8E2BDE03F
:1002C0000E94B65470918B08706270938B080C94E6
:1002D00081010F3118F011F00C9470010C94810120
:1002E000ABE8B8E08C9186FB16F00C948101A7E294
:1002F000BDE08C91A2E7BCE00E94F84D8D93882769
:100300008C938F918BBF8F918FBFFF91EF91DF9176
:10031000CF91BF91AF919F918F917F916F915F919D
:100320004F913F912F911F910F91BF90AF907F9070
:100330005F904F903F902F901F900F9018950F92C5
:100340001F922F923F924F925F927F92AF92BF92F5
:100350000F931F932F933F934F935F936F937F93CD
:100360008F939F93AF93BF93CF93DF93EF93FF93BD
:100370008FB78F938BB78F9388278BBFACE8B8E08C
:100380008091CE008C9385E2482F00918C08041751
:1003900011F00C94D60170918608716070938608F4
:1003A000ADE8B8E088278C930C9433020D3011F03F
:1003B0000C940B02A6E8B8E08C9180FB16F00C942C
:1003C0000902709186087E7F7093860880E0ADE810
:1003D000B8E00E94F84D8D9388278C93EDE8F8E003
:1003E000AAE1B9E00E94B654AAE1B9E0EAEFFDEA59
:1003F0000E9469530E94295511F00C9404027091D7
:10040000380270627093380270918B087068709334
:100410008B080C9433020F3118F011F00C94120277
:100420000C943302A6E8B8E08C9180FB16F00C9493
:100430003302ACE8B8E08C91ADE8B8E00E94F84D2A
:100440008D9388278C93ADE8B8E00E942355082F40
:100450000C3818F011F00C942F020C943302ADE814
:10046000B8E088278C938F918BBF8F918FBFFF91BE
:10047000EF91DF91CF91BF91AF919F918F917F913C
:100480006F915F914F913F912F911F910F91BF906D
:10049000AF907F905F904F903F902F901F900F9064
:1004A00018950F921F922F923F924F925F927F92D8
:1004B000AF92BF920F931F932F933F934F935F93EE
:1004C0006F937F938F939F93AF93BF93CF93DF935C
:1004D000EF93FF938FB78F938BB78F9388278BBF43
:1004E00074E676BDA7E9B7E08C918F5F8C93A7E99E
:1004F000B7E00C9148E00E9413558C930091970748
:10050000003011F00C94B702A8E9B7E00C9140E27A
:100510000E9413558C93E8E8FCE70E946953ADE90B
:10052000B7E08C919927A9E9B7E00E942053809108
:100530009807A9E9B7E00E9454530E944A530C90CF
:100540000822689409F4E894A4E9B7E08C9185F94D
:100550008C93A4E9B7E08C9185FBA5E2B0E08C9187
:1005600087F98C93A8E9B7E08C918F5F8C93A4E90D
:10057000B7E08C9186FB16F00C94DD02A5E9B7E09C
:100580000E94B14DA5E9B7E00D911C9149EF51E0F2
:100590000E94DE4DA5E9B7E00D931C93A5E9B7E0F5
:1005A0000D911C91003050E0150711F00C94DD0204
:1005B00070919407706870939407A4E9B7E08C91E8
:1005C00083FB16F00C94FC02A1EAB7E00E94B14D47
:1005D000A3EAB7E04D915C91A1EAB7E00D911C91BF
:1005E0000417150711F00C94FA02709194077061CA
:1005F000709394070C94020380E090E0A1EAB7E0C6
:100600008D939C938F918BBF8F918FBFFF91EF91B3
:10061000DF91CF91BF91AF919F918F917F916F911A
:100620005F914F913F912F911F910F91BF90AF908C
:100630007F905F904F903F902F901F900F90189554
:100640000F921F922F923F924F925F927F92AF92A2
:10065000BF920F931F932F933F934F935F936F938B
:100660007F938F939F93AF93BF93CF93DF93EF933A
:10067000FF938FB78F938BB78F9388278BBF87EFAD
:1006800092EC909385008093840070919E07716036
:1006900070939E070E94BD4FE8E0F2E0FA93EA9360
:1006A000E1E1F2E00E944A51A5EAB7E00D931D9303
:1006B0002D933D93A5EAB7E00E94A44DE5EAF7E04B
:1006C000A1E1B2E00E943A510E94D04FE5EAF7E082
:1006D000A8E0B2E00E9442510E94C84F0E94BD4F64
:1006E000E1E1F2E0A5EDB6E00E94B654E5EDF6E0FA
:1006F0000E94D550A9EAB7E00D931D932D933D9329
:1007000081E08093AD070091AD07003118F011F042
:100710000C94B603ADEAB7E0AD90BB24A1E9B6E016
:10072000AA0CBB1CAA0CBB1CAA0DBB1D4D915D9154
:100730006D917C91A9EAB7E00D911D912D913C91AD
:100740000E94E45311F00C94AE037091E0067068BF
:100750007093E0068091AD078093E106ADEAB7E0C3
:100760008C918F5F8C9310F40C948303A5EAB7E00F
:100770000D911D912D913C91ABE4B7E04D915D91B0
:100780006D917C910E944B4EAEEAB7E00D931D93A4
:100790002D933D9340E050E060E070E0AEEAB7E0BA
:1007A0000D911D912D913C910E94E45311F00C94F8
:1007B000DE037091E00672607093E006A5EAB7E090
:1007C0000D911D912D913C91A3EBB7E04C915527D4
:1007D000662777270E944B4EAEEAB7E00D931D9334
:1007E0002D933D9340E050E060E070E0AEEAB7E06A
:1007F0000D911D912D913C910E94E45311F00C94A8
:1008000006047091940774607093940781E080935C
:100810003D0200913D02043018F011F00C94750473
:10082000A5EAB7E00D911D912D913C91ADE3B2E0A9
:10083000AD90BB24A0EFB6E0AA0CBB1CAA0CBB1C5D
:10084000AA0DBB1D4D915D916D917C910E94DF536E
:10085000AEEAB7E00D931D932D933D93AEEAB7E05A
:100860000D911D912D913C91ADE3B2E0AD90BB2473
:10087000A0EEB6E0AA0CBB1CAA0CBB1CAA0DBB1DAB
:100880004D915D916D917C910E944B4EAEEAB7E027
:100890000D931D932D933D9300913D0241E0041B68
:1008A000ACE3B2E00C9340E050E060E070E0AEEA10
:1008B000B7E00D911D912D913C910E94E45311F0F0
:1008C0000C946D0480913C02A2EBB7E00E9454535B
:1008D0000E944A539C91982B9C93ADE3B2E08C917B
:1008E0008F5F8C9310F40C940904A8E2B7E08C910C
:1008F0008F5F8C93A8E2B7E00C9141E00E94135502
:100900008C9300912807003011F00C948C047091A6
:10091000E00670617093E006ADE6B7E08C918F5F02
:100920008C93ADE6B7E00C9145E00E9413558C9393
:1009300000916D07003011F00C94A3047091E00653
:1009400071607093E006A8E3B2E08C9181FB16F031
:100950000C94E004A6E8B8E08C9181FB16F40C94AA
:10096000E004A1E9B4E00E94B14DA1E9B4E00D9129
:100970001C91AFE8B4E04D915C910E94DE4DA1E97D
:10098000B4E00D931C93A1E9B4E00D911C910030EB
:1009900050E0150711F00C94E00470918608726025
:1009A00070938608469847980E946E0E7091B20721
:1009B00071607093B2077091B20774607093B20760
:1009C000A6E8B8E08C9181FB16F00C941305A7E81B
:1009D000B8E00E94B14DA7E8B8E00D911C91A9E8DC
:1009E000B8E04D915C910E94DE4DA7E8B8E00D9310
:1009F0001C93A7E8B8E00D911C91003050E015075A
:100A000011F00C94130570913802716070933802E4
:100A1000709186087D7F7093860880E090E0A1E960
:100A2000B4E08D939C93A4E9B7E08C9180FB16F021
:100A30000C947405A6E8B8E08C9187FB16F00C9432
:100A40004705A2E8B8E00E94B14DA2E8B8E00D91D8
:100A50001C91AEE7B8E04D915C910E94DE4DA2E89A
:100A6000B8E00D931C93A2E8B8E00D911C91003002
:100A700050E0150711F00C944705709186087064DA
:100A800070938608709186087F7770938608A6E831
:100A9000B8E08C9186FB16F00C947405A4E8B8E0DD
:100AA0000E94B14DA4E8B8E00D911C91A0E8B8E017
:100AB0004D915C910E94DE4DA4E8B8E00D931C932B
:100AC000A4E8B8E00D911C91003050E0150711F03A
:100AD0000C94740570918608706870938608709104
:100AE00086087F7B709386088F918BBF8F918FBF15
:100AF000FF91EF91DF91CF91BF91AF919F918F9136
:100B00007F916F915F914F913F912F911F910F9125
:100B1000BF90AF907F905F904F903F902F901F902D
:100B20000F9018950895089508950F921F922F928F
:100B30003F924F925F927F92AF92BF920F931F931B
:100B40002F933F934F935F936F937F938F939F93D5
:100B5000AF93BF93CF93DF93EF93FF938FB78F93B1
:100B60008BB78F9388278BBF74E67093B200A9EC84
:100B7000B7E08C918F5F8C93A9ECB7E00C914AE0C1
:100B80000E9413558C930091C907003011F00C940A
:100B9000AB0700274427A0E2B0E08C9180FB00F96E
:100BA000A4EEB7E08C9180FB40F9042700FBA4E998
:100BB000B7E08C9181F98C93A4E9B7E08C9181FB2B
:100BC000A1E0B8E08C9180F98C9300274427A0E243
:100BD000B0E08C9181FB00F9A4EEB7E08C9181FB31
:100BE00040F9042700FBA4E9B7E08C9181F98C93CC
:100BF000A4E9B7E08C9181FBA1E0B8E08C9181F988
:100C00008C9300274427A0E2B0E08C9182FB00F98E
:100C1000A4EEB7E08C9182FB40F9042700FBA4E925
:100C2000B7E08C9181F98C93A4E9B7E08C9181FBBA
:100C3000A1E0B8E08C9182F98C9300274427A0E2D0
:100C4000B0E08C9183FB00F9A4EEB7E08C9183FBBC
:100C500040F9042700FBA4E9B7E08C9181F98C935B
:100C6000A4E9B7E08C9181FBA1E0B8E08C9183F915
:100C70008C9381E08093B4070091B407043018F09E
:100C800011F00C94AB070091B40741E0041BA5EBF5
:100C9000B7E00C93A4EBB7E0AD90BB24A1E0B8E0C3
:100CA000AA0DBB1D0C91003011F00C9473068091BD
:100CB000B507A1E0B8E00E9454530E944A530C903B
:100CC0000822689409F4E89416F40C94710682E002
:100CD000A4EBB7E0AD90BB24A1E0B8E0AA0DBB1D2A
:100CE0008C930C94A307013011F00C94930680911F
:100CF000B507A1E0B8E00E9454530E944A530C90FB
:100D00000822689409F4E89416F00C94910683E0A4
:100D1000A4EBB7E0AD90BB24A1E0B8E0AA0DBB1DE9
:100D20008C930C94A307023011F00C941C07809153
:100D3000B507A1E0B8E00E9454530E944A530C90BA
:100D40000822689409F4E89416F00C94C10680E037
:100D5000A4EBB7E0AD90BB24A1E0B8E0AA0DBB1DA9
:100D60008C9380E090E0A4EBB7E0AD90BB24A4EBC3
:100D7000B7E0AA0CBB1CAA0DBB1D8D939C930C94D1
:100D80001A07A4EBB7E0AD90BB24A4EBB7E0AA0C24
:100D9000BB1CAA0DBB1D0E94B14DA4EBB7E0AD90EA
:100DA000BB24A4EBB7E0AA0CBB1CAA0DBB1D0D9184
:100DB0001C91A4EBB7E0AD90BB24AAEDB7E0AA0C60
:100DC000BB1CAA0DBB1D4D915C910E94DE4DA4EB96
:100DD000B7E0AD90BB24A4EBB7E0AA0CBB1CAA0DF6
:100DE000BB1D0D931C93A4EBB7E0AD90BB24A4EB0B
:100DF000B7E0AA0CBB1CAA0DBB1D0D911C910030C5
:100E000050E0150711F00C941A0781E0A4EBB7E04D
:100E1000AD90BB24A1E0B8E0AA0DBB1D8C938091DE
:100E2000B507A6ECB7E00E9454530E944A539C9128
:100E3000982B9C930C94A307033011F00C94A307F8
:100E40008091B507A1E0B8E00E9454530E944A5334
:100E50000C900822689409F4E89416F40C944A075C
:100E600081E0A4EBB7E0AD90BB24A1E0B8E0AA0D0F
:100E7000BB1D8C9380E090E0A4EBB7E0AD90BB2469
:100E8000ACEBB7E0AA0CBB1CAA0DBB1D8D939C93C9
:100E90000C94A307A4EBB7E0AD90BB24ACEBB7E098
:100EA000AA0CBB1CAA0DBB1D0E94B14DA4EBB7E060
:100EB000AD90BB24ACEBB7E0AA0CBB1CAA0DBB1DCC
:100EC0000D911C91A4EBB7E0AD90BB24A2EDB7E06F
:100ED000AA0CBB1CAA0DBB1D4D915C910E94DE4D5E
:100EE000A4EBB7E0AD90BB24ACEBB7E0AA0CBB1C05
:100EF000AA0DBB1D0D931C93A4EBB7E0AD90BB24D2
:100F0000ACEBB7E0AA0CBB1CAA0DBB1D0D911C914C
:100F1000003050E0150711F00C94A30780E0A4EB1B
:100F2000B7E0AD90BB24A1E0B8E0AA0DBB1D8C9347
:100F30008091B507A7ECB7E00E9454530E944A5332
:100F40009C91982B9C93A4EBB7E08C918F5F8C9332
:100F500010F40C943C068F918BBF8F918FBFFF9143
:100F6000EF91DF91CF91BF91AF919F918F917F9141
:100F70006F915F914F913F912F911F910F91BF9072
:100F8000AF907F905F904F903F902F901F900F9069
:100F900018952F98EEEFFDEA0E9469530E94074EC4
:100FA0000E940E4EA0E8B0E2EEE1FEEA0E94695314
:100FB0000E94FA520E94FF4D0E940E4EA0E8B0E23D
:100FC000E2E3FEEA0E9469530E94FA520E94FF4D3A
:100FD0000E940E4EA0E8B0E2EAE3FEEA0E946953E6
:100FE0000E94FA520E94FF4D0E940E4EE9E3F3E088
:100FF000AAECB7E00E94F354E4E4FEEA0E946953CD
:101000000E94074EEAECF7E0A0E8B0E20E94075425
:101010000E94FF4D0E940E4EE1E0F0E0A4E8B3E034
:1010200094E00E94F654ECE4FEEA0E9469530E94A8
:10103000074EE4E8F3E0A0E8B0E20E9442510E94CB
:10104000FF4DECE5FEEA0E9469530E94074EE4E87A
:10105000F3E0A0E8B0E20E943A510E94FF4D0E94E6
:101060000E4EE4E3F3E0ABE4B7E094E00E94F65404
:10107000EEE5FEEA0E9469530E94074EEBE4F7E0BA
:10108000A0E8B0E20E94FA530E94FF4D0E940E4E6B
:10109000E8E3F3E0A3EBB7E00E94F354EAE7FEEAEB
:1010A0000E9469530E94074EE3EBF7E0A0E8B0E22C
:1010B0000E9407540E94FF4D0E940E4E81E08093D3
:1010C000200200912002043018F011F00C94A608C0
:1010D000E0E2F2E0A190BB24E5E0F0E0EA0DFB1DC8
:1010E000A0E2B2E0AD90BB24A9E8B3E0AA0DBB1D1D
:1010F0000E94F354E0E9FEEA0E9469530E94074E01
:10110000E0E2F2E0A0E8B0E20E9407540E94FF4D46
:10111000E2EAFEEA0E9469530E94074ED201E0E231
:10112000F2E0A190BB24E9E8F3E0EA0DFB1D0E9488
:101130009454D2010E94014E0E940E4EA0E2B2E0F1
:101140008C918F5F8C9310F40C946108E4EAFEEAB2
:101150000E9469530E94074E0E940E4E81E08093C8
:10116000240200912402043018F011F00C9460095C
:10117000EEEAFEEA0E9469530E94074EE4E2F2E0C2
:10118000A0E8B0E20E9407540E94FF4D0E940E4E5C
:1011900081E08093250200912502003118F011F0C2
:1011A0000C945809A4E2B2E00D91112701501040AF
:1011B000A0E3B2E00D931C93A0E3B2E00D911C916B
:1011C00040E150E00E94CD52A0E3B2E00D931C93A9
:1011D000A0E3B2E00D911C91A5E2B2E04D9155273C
:1011E000040F151FA0E3B2E00D931C93E0E3F2E0BF
:1011F000A190B190E6E0F0E0AA0CBB1CAA0CBB1CCD
:10120000EA0DFB1DA8E2B2E094E00E94F654A8E2C9
:10121000B2E00D911D912D913C91A0E3B2E0AD9013
:10122000BD90ABE8B3E0AA0CBB1CAA0CBB1CAA0D7A
:10123000BB1D0D931D932D933C93AAECB7E00C912D
:1012400000FB16F00C945009E4EBFEEA0E9469538F
:101250000E94074EE5E2F2E0A0E8B0E20E940754E7
:101260000E94FF4DE2EAFEEA0E9469530E94074E87
:10127000E8E2F2E0A0E8B0E20E943A510E94FF4D9D
:10128000EAEBFEEA0E9469530E94074EE0E3F2E0B7
:10129000A0E8B0E20E94F7530E94FF4D0E940E4E5C
:1012A000A5E2B2E08C918F5F8C9310F40C94CB0884
:1012B000A4E2B2E08C918F5F8C9310F40C94B1088F
:1012C000EEEBFEEA0E9469530E94074E0E940E4E0A
:1012D00081E08093240200912402043018F011F080
:1012E0000C944B0AEEEAFEEA0E9469530E94074EF4
:1012F000E4E2F2E0A0E8B0E20E9407540E94FF4D51
:101300000E940E4E81E0809325020091250200315B
:1013100018F011F00C94430AEAECFEEA0E946953BB
:101320000E94074EE5E2F2E0A0E8B0E20E94075416
:101330000E94FF4D0E940E4EA4E2B2E00D911127D3
:1013400001501040A0E3B2E00D931C93A0E3B2E083
:101350000D911C9140E250E00E94CD52A0E3B2E01A
:101360000D931C93A5E2B2E00D911127015010409E
:10137000A2E3B2E00D931C93A2E3B2E00D911C91A5
:1013800048E050E00E94CD52A2E3B2E00D931C93DE
:10139000A0E3B2E00D911C91A2E3B2E04D915C910B
:1013A000040F151FA0E3B2E00D931C9381E080931E
:1013B000270200912702083018F011F00C943B0A24
:1013C0000091300240912702040FA8E8B3E00C938B
:1013D000E8E8F3E0A190BB24EBE0F1E0EA0DFB1DAF
:1013E000A8E8B3E0AD90BB24A2E9B4E0AA0DBB1D10
:1013F0000E94F354AAECB7E00C9100FB16F00C9499
:10140000330AE4EDFEEA0E9469530E94074EE7E2C8
:10141000F2E0A0E8B0E20E9407540E94FF4DE2EA29
:10142000FEEA0E9469530E94074ED201E8E8F3E009
:10143000A190BB24E2E9F4E0EA0DFB1D0E94945464
:10144000D2010E94014EEAEDFEEA0E9469530E9419
:10145000074EE8E8F3E0A0E8B0E20E9407540E94DB
:10146000FF4D0E940E4EA7E2B2E08C918F5F8C93ED
:1014700010F40C94D909A5E2B2E08C918F5F8C93A3
:1014800010F40C948509A4E2B2E08C918F5F8C93E8
:1014900010F40C946B09EAE0F1E0AFE8B4E00E94CC
:1014A000F554EEEDFEEA0E9469530E94074EEFE804
:1014B000F4E0A0E8B0E20E94F7530E94FF4D0E94C2
:1014C0000E4EE1E7F3E0A9E8B8E00E94F554ECEE37
:1014D000FEEA0E9469530E94074EE9E8F8E0A0E89E
:1014E000B0E20E94F7530E94FF4D0E940E4E0E94F0
:1014F000EB15ECEFFEEA0E9469530E94074EA6E549
:10150000B3E00E94014EE4E0FFEA0E9469530E94AA
:10151000074E0E940E4E83E680939406E5E0F0E0CD
:10152000A9E8B3E00E94F354E6E0FFEA0E946953A1
:101530000E94074EE9E8F3E0A0E8B0E20E940754F9
:101540000E94FF4D0E940E4E00918903003018F05A
:1015500011F00C94AD0A0C94C40A00918903053073
:1015600010F00C94B70A0E94D40C0C94C20A80E0CC
:1015700080938903E4E1FFEA0E9469530E94074EC9
:101580000E940E4E0C94CC0AE4E2FFEA0E946953DA
:101590000E94074E0E940E4E81E08093200200912F
:1015A0002002043018F011F00C94620BE0E2F2E03B
:1015B000A190BB24E8E0F3E0AA0CBB1CAA0CBB1C66
:1015C000EA0DFB1DA0E2B2E0AD90BB24A0EEB6E0B8
:1015D000AA0CBB1CAA0CBB1CAA0DBB1D94E00E944C
:1015E000F654E0E2F2E0A190BB24E8E1F3E0AA0CBB
:1015F000BB1CAA0CBB1CEA0DFB1DA0E2B2E0AD9027
:10160000BB24A0EFB6E0AA0CBB1CAA0CBB1CAA0D05
:10161000BB1D94E00E94F654E8E3FFEA0E94695380
:101620000E94074EE0E2F2E0A0E8B0E20E94075418
:101630000E94FF4DE2EAFEEA0E9469530E94074EB3
:10164000E0E2F2E0A190BB24E0EEF6E0AA0CBB1CC5
:10165000AA0CBB1CEA0DFB1DA0E8B0E20E94FA53E5
:101660000E94FF4DECE3FFEA0E9469530E94074E7F
:10167000E0E2F2E0A0E8B0E20E9407540E94FF4DD1
:10168000E2EAFEEA0E9469530E94074EE0E2F2E0BD
:10169000A190BB24E0EFF6E0AA0CBB1CAA0CBB1C7B
:1016A000EA0DFB1DA0E8B0E20E94FA530E94FF4D34
:1016B0000E940E4EA0E2B2E08C918F5F8C9310F4EA
:1016C0000C94CF0AEAE3F3E0ABECB7E00E94F554E8
:1016D000ABECB7E00E94B14DE2E4FFEA0E9469532F
:1016E0000E94074EEBECF7E0A0E8B0E20E94F7534F
:1016F0000E94FF4D0E940E4EEAE3F3E0ABECB7E030
:101700007BE70E94D954EEE3F3E0A2EDB7E00E943C
:10171000F354ECE4FFEA0E9469530E94074ED201A1
:10172000E2EDF7E00E949454D2010E94014E0E9423
:101730000E4E81E08093200200912002043018F0C8
:1017400011F00C94780CE0E2F2E00191112747E0EF
:1017500050E00E94CD52E9E4F3E0E00FF11FA0E277
:10176000B2E00D91112747E050E00E94CD52AEED5E
:10177000B7E0A00FB11F96E00E94FD54EEE6FFEA2D
:101780000E9469530E94074EE0E2F2E0A0E8B0E256
:101790000E9407540E94FF4DE2EAFEEA0E9469534C
:1017A0000E94074EA0E2B2E00D91112747E050E001
:1017B0000E94CD52AEEDB7E0A00FB11F0E94014EC6
:1017C0000E940E4EE0E2F2E0A190BB24EDE3F3E0D4
:1017D000AA0CBB1CEA0DFB1DA0E2B2E0AD90BB243D
:1017E000A2EDB7E0AA0CBB1CAA0DBB1D0E94F554CC
:1017F000E6E7FFEA0E9469530E94074EE0E2F2E04A
:10180000A0E8B0E20E9407540E94FF4DE2EAFEEA1F
:101810000E9469530E94074EE0E2F2E0A190BB24CF
:10182000E2EDF7E0AA0CBB1CEA0DFB1DA0E8B0E25C
:101830000E94F7530E94FF4DE2E8FFEA0E946953BD
:101840000E94074E0E940E4EE0E2F2E0A190BB24FF
:10185000E5E4F3E0AA0CBB1CEA0DFB1DA0E2B2E03C
:10186000AD90BB24AAEDB7E0AA0CBB1CAA0DBB1D12
:101870000E94F554EAE8FFEA0E9469530E94074E6D
:10188000E0E2F2E0A0E8B0E20E9407540E94FF4DBF
:10189000E2EAFEEA0E9469530E94074EE0E2F2E0AB
:1018A000A190BB24EAEDF7E0AA0CBB1CEA0DFB1DDE
:1018B000A0E8B0E20E94F7530E94FF4DE2E8FFEA81
:1018C0000E9469530E94074E0E940E4E85E0A0E2DE
:1018D000B2E0AD90BB24A5E0B8E0AA0DBB1D8C938F
:1018E000A0E2B2E08C918F5F8C9310F40C949C0B6F
:1018F000EFE4F3E0A4EEB7E00E94F354E6E9FFEA78
:101900000E9469530E94074ED201E4EEF7E00E9464
:101910009454D2010E94014E0E940E4EECE6F3E078
:10192000AAE0B8E00E94F354EEE9FFEA0E9469538E
:101930000E94074ED201EAE0F8E00E949454D201DE
:101940000E94014E0E940E4EEDE6F3E0AEE7B8E0D5
:101950000E94F554E6EAFFEA0E9469530E94074E8E
:10196000EEE7F8E0A0E8B0E20E94F7530E94FF4DD6
:101970000E940E4EEFE6F3E0A0E8B8E00E94F554B6
:10198000E2EBFFEA0E9469530E94074EE0E8F8E0AC
:10199000A0E8B0E20E94F7530E94FF4D0E940E4E55
:1019A00083E680937D0808958091890380932402C3
:1019B000EEEAFEEA0E9469530E94074EE4E2F2E07A
:1019C000A0E8B0E20E9407540E94FF4D0E940E4E14
:1019D000A4E2B2E0AD90BB24A9E8B3E0AA0DBB1D20
:1019E0008C9180938E03EEEBFFEA0E9469530E9474
:1019F000074ED201EEE8F3E00E949454D2010E9417
:101A0000014E0E940E4E81E0809325020091250236
:101A1000003118F011F00C94910DA4E2B2E00D9198
:101A2000112701501040A0E3B2E00D931C93A0E3F6
:101A3000B2E00D911C9140E150E00E94CD52A0E334
:101A4000B2E00D931C93A0E3B2E00D911C91A5E2CE
:101A5000B2E04D915527040F151FA0E3B2E00D939E
:101A60001C93A0E3B2E0AD90BD90ABE8B3E0AA0C4C
:101A7000BB1CAA0CBB1CAA0DBB1D0D911D912D9169
:101A80003C91A8E2B2E00D931D932D933C93A8E204
:101A9000B2E00D911D912D913C91A5E2B2E0AD9087
:101AA000BB24A1E9B6E0AA0CBB1CAA0CBB1CAA0D66
:101AB000BB1D0D931D932D933C93ECECFFEA0E940C
:101AC00069530E94074EE5E2F2E0A0E8B0E20E940E
:101AD00007540E94FF4DE2EAFEEA0E9469530E9409
:101AE000074EE8E2F2E0A0E8B0E20E943A510E941C
:101AF000FF4DEAEBFEEA0E9469530E94074EE0E3C5
:101B0000F2E0A0E8B0E20E94F7530E94FF4D0E946D
:101B10000E4EA5E2B2E08C918F5F8C9310F40C9482
:101B2000060D089582E00E94C75282E00E94C752CB
:101B300081E00E94C752AA85BB850D9111270150F3
:101B40001040AC81BD810D931C93AC81BD810D9182
:101B50001C9140E250E00E94CD52AC81BD810D93BA
:101B60001C93A885B9850D91112701501040AA81B9
:101B7000BB810D931C93AA81BB810D911C9148E000
:101B800050E00E94CD52AA81BB810D931C93AC8181
:101B9000BD810D911C91AA81BB814D915C91040F77
:101BA000151FAC81BD810D931C93AC81BD810D913E
:101BB0001C91AE81BF814D915527040F151FAC813B
:101BC000BD810D931C93AC81BD810D911C910F5F64
:101BD0001F4FAC81BD810D931C93AC81BD81AD9035
:101BE000BD90A2E9B4E0AA0DBB1D8C91A881B9817A
:101BF0008C93A881B9810C91003011F00C94040EE3
:101C0000469847980C94060E469A479AEAEDFFEAE2
:101C10000E9469530E94074EEE81FF81A0E8B0E266
:101C20000E9407540E94FF4DE2EAFEEA0E946953B7
:101C30000E94074ED201E881F9810E949454D2019A
:101C40000E94014EECE5FEEA0E9469530E94074E95
:101C5000EC81FD81A0E8B0E20E94F7530E94FF4DA5
:101C60000E940E4EA881B9818C9180FBA8E2B0E061
:101C70008C9180F98C93A881B9818C9181FBA8E229
:101C8000B0E08C9181F98C93A881B9818C9182FB11
:101C9000A8E2B0E08C9182F98C93A881B9818C91F3
:101CA00083FBA8E2B0E08C9183F98C93A881B98181
:101CB0008C9184FBA8E2B0E08C9184F98C93A8818C
:101CC000B9818C9185FBA8E2B0E08C9185F98C9369
:101CD00085E0481A80E0580A269608954098419871
:101CE00042984398449845980895409A419A429A58
:101CF000439A449A459A08950E94BD4FE8E0F2E065
:101D0000A0E2B3E00E94B654A0E2B3E00E94F84D16
:101D1000EEEDFFEA0E9469530E94FA520E94BD4F05
:101D2000E1E1F2E0A0E2B3E00E94F84D0E94B65477
:101D3000A0E2B3E00E94F84DEEEDFFEA0E94695385
:101D40000E94FA5281E080931F0281E080931E027C
:101D5000882780931D02A0E2B3E00E94334EA0E2E8
:101D6000B3E0E0EEFFEA0E9469530E94FA52E4E019
:101D7000F8E0A0E2B3E00E94F84D0E94075400276B
:101D80004427A0E2B0E08C9181FB00F9A4EEB7E01B
:101D90008C9181FB40F9042700FBA8E3B2E08C9111
:101DA00087F98C93A0E2B3E00E94F84DE4EEFFEADD
:101DB0000E9469530E94FA52A8E3B2E08C9187FB1B
:101DC000A0E2B3E00E94F84D0E945A538D938827F9
:101DD0008C9300274427A0E2B0E08C9180FB00F9AF
:101DE000A4EEB7E08C9180FB40F9042700FBA8E348
:101DF000B2E08C9187F98C93A0E2B3E00E94F84D99
:101E0000EAEEFFEA0E9469530E94FA52A8E3B2E0A8
:101E10008C9187FBA0E2B3E00E94F84D0E945A53D8
:101E20008D9388278C93A0E2B3E00E94F84DE0EFF9
:101E3000FFEA0E9469530E94FA5283E080931F02D6
:101E400081E080931E02882780931D02A0E2B3E008
:101E50000E94334EA0E2B3E0E4EFFFEA0E94695330
:101E60000E94FA52EFE5F7E0A0E2B3E00E94F84DDD
:101E70000E94B654A0E2B3E00E94F84DE8EFFFEAFA
:101E80000E9469530E94FA52E4E5F7E0A0E2B3E051
:101E90000E94F84D0E94B654A0E2B3E00E94F84DB3
:101EA000E0EFFFEA0E9469530E94FA5285E08093B6
:101EB0001F0281E080931E02882780931D02A0E20A
:101EC000B3E00E94334EAAE3B2E08C918F5F8C9313
:101ED000AAE3B2E00C9100FB16F00C949110A9E378
:101EE000B2E08C918F5F8C93A0E2B3E088278C9353
:101EF000A9E3B2E00C9141E10E9413558C9300914B
:101F00003902003011F00C944210A0E2B3E0ECEF83
:101F1000FFEA0E9469530E94FA52E9E8F3E0A0E266
:101F2000B3E00E94F84D0E940754A0E2B3E00E9483
:101F3000F84DEEEFFFEA0E9469530E94FA52AEE8B4
:101F4000B3E08C9180FBA0E2B3E00E94F84D0E94C8
:101F50005A538D9388278C93A0E2B3E00E94F84DEA
:101F6000E2E0F0EB0E9469530E94FA52AEE8B3E05F
:101F70008C9181FBA0E2B3E00E94F84D0E945A537D
:101F80008D9388278C93A0E2B3E00E94F84DE2E0A5
:101F9000F0EB0E9469530E94FA52AEE8B3E08C91D4
:101FA00082FBA0E2B3E00E94F84D0E945A538D9349
:101FB00088278C93A0E2B3E00E94F84DE4E0F0EBB8
:101FC0000E9469530E94FA52AEE8B3E08C9183FB01
:101FD000A0E2B3E00E94F84D0E945A538D938827E7
:101FE0008C93A0E2B3E00E94F84DE6E0F0EB0E9493
:101FF00069530E94FA52AEE8B3E08C9184FBA0E2F0
:10200000B3E00E94F84D0E945A538D9388278C9319
:10201000A0E2B3E00E94F84DE8E0F0EB0E946953C3
:102020000E94FA52AEE8B3E08C9185FBA0E2B3E0E7
:102030000E94F84D0E945A538D9388278C93A0E2FA
:10204000B3E00E94F84DEAE0F0EB0E9469530E9471
:10205000FA52AEE8B3E08C9186FBA0E2B3E00E94B6
:10206000F84D0E945A538D9388278C93A0E2B3E0D9
:102070000E94F84DEEEDFFEA0E9469530E94FA5269
:102080000C948410A9E3B2E0AD90BB24A1E9B6E0C2
:10209000AA0CBB1CAA0CBB1CAA0DBB1D0D911D914B
:1020A0002D913C91A8E2B2E00D931D932D933C93AA
:1020B000A0E2B3E0ECE0F0EB0E9469530E94FA5218
:1020C000E9E3F2E0A0E2B3E00E94F84D0E94075479
:1020D000A0E2B3E00E94F84DE2EAFEEA0E946953F2
:1020E0000E94FA52E8E2F2E0A0E2B3E00E94F84D6A
:1020F0000E943A51A0E2B3E00E94F84DE0E1F0EB1B
:102100000E9469530E94FA5287E080931F0281E087
:1021100080931E02882780931D02A0E2B3E00E94F4
:10212000334E0895E5E0F0E0A0E1BB2781E08C9319
:102130007BE70E94D754EAE0F1E00CE310E0A0E175
:10214000BB277BE70E94D954E1E7F3E004E813E002
:10215000A0E1BB277BE70E94D95480E08093210255
:1021600081E08093200200912002043018F011F0E9
:102170000C945E11E0E2F2E0A190BB24E5E0F0E017
:10218000EA0DFB1DA0E1BB278FE78C937BE70E9444
:10219000D754A0E2B3E0E6E1F0EB0E9469530E945D
:1021A000FA52E0E2F3E00E94D550A8E2B2E00D93CB
:1021B0001D932D933D93E0E2F0EB0E9469530E9442
:1021C000074EE0E2F2E0A0E8B0E20E9407540E946D
:1021D000FF4DE6E2F0EB0E9469530E94074EE8E2F1
:1021E000F2E0A0E8B0E20E94FA530E94FF4D0E9484
:1021F0000E4E81E08093220200912202003118F0FD
:1022000011F00C945611A1E2B2E08C918F5F8C9387
:10221000A8E2B2E00D911D912D913C91A1E2B2E0B6
:10222000AD90BB24ABE8B3E0AA0CBB1CAA0CBB1C52
:10223000AA0DBB1D0D931D932D933C93ECE0F0EB89
:102240000E9469530E94074EE1E2F2E0A0E8B0E28A
:102250000E9407540E94FF4DE2EAFEEA0E94695381
:102260000E94074EE8E2F2E0A0E8B0E20E943A5194
:102270000E94FF4D0E940E4EA8E2B2E00D911D910A
:102280002D913C9140E15EE060E070E00E94DF5300
:10229000A8E2B2E00D931D932D933D93A2E2B2E02C
:1022A0008C918F5F8C9310F40C94FC10A0E2B2E040
:1022B0008C918F5F8C9310F40C94B31081E0809319
:1022C000250200912502003418F011F00C948C11B5
:1022D000E5E2F2E0A190BB24E6E0F0E0AA0CBB1C32
:1022E000AA0CBB1CEA0DFB1DA5E2B2E0AD90BB241D
:1022F000ABE8B3E0AA0CBB1CAA0CBB1CAA0DBB1D0F
:1023000094E07BE70E94DA54A5E2B2E08C918F5F03
:102310008C9310F40C94611181E08093240200915D
:102320002402043018F011F00C947A12EEEAFEEA5E
:102330000E9469530E94074EE4E2F2E0A0E8B0E296
:102340000E9407540E94FF4D0E940E4E81E0809330
:10235000250200912502003118F011F00C94721240
:10236000EAECFEEA0E9469530E94074EE5E2F2E0C1
:10237000A0E8B0E20E9407540E94FF4D0E940E4E5A
:10238000A4E2B2E00D91112701501040A0E3B2E0A9
:102390000D931C93A0E3B2E00D911C9140E250E03C
:1023A0000E94CD52A0E3B2E00D931C93A5E2B2E0EF
:1023B0000D91112701501040A2E3B2E00D931C9340
:1023C000A2E3B2E00D911C9148E050E00E94CD5292
:1023D000A2E3B2E00D931C93A0E3B2E00D911C9137
:1023E000A2E3B2E04D915C91040F151FA0E3B2E0AF
:1023F0000D931C9381E080932702009127020830FF
:1024000018F011F00C946A120091300240912702EA
:10241000040FA8E8B3E00C93ECECFCE70E946953CE
:10242000A7E2B2E08C919927A0E2B2E00E941C538F
:1024300080912002A8E8B3E0AD90BB24A2E9B4E00B
:10244000AA0DBB1D8C93E8E8F3E0A190BB24EBE060
:10245000F1E0EA0DFB1DA0E2B2E07BE70E94D75459
:10246000E4EDFEEA0E9469530E94074EE7E2F2E0C3
:10247000A0E8B0E20E9407540E94FF4DE2EAFEEAA3
:102480000E9469530E94074ED201E8E8F3E0A19050
:10249000BB24E2E9F4E0EA0DFB1D0E949454D20152
:1024A0000E94014EEAEDFEEA0E9469530E94074E27
:1024B000E8E8F3E0A0E8B0E20E9407540E94FF4D74
:1024C0000E940E4EA7E2B2E08C918F5F8C9310F4C5
:1024D0000C94FD11A5E2B2E08C918F5F8C9310F407
:1024E0000C94A911A4E2B2E08C918F5F8C9310F44C
:1024F0000C948F11E9E3F3E0A0E1BB2780E08C931B
:102500007BE70E94D75480E08093200281E0809393
:10251000240200912402043018F011F00C94FD12F2
:102520000CE211E020E030E0A4E2B2E0AD90BB2488
:10253000A0EEB6E0AA0CBB1CAA0CBB1CAA0DBB1DCE
:102540000D931D932D933C93E4E2F2E0A190BB2404
:10255000E8E0F3E0AA0CBB1CAA0CBB1CEA0DFB1DB7
:10256000A4E2B2E0AD90BB24A0EEB6E0AA0CBB1C86
:10257000AA0CBB1CAA0DBB1D94E07BE70E94DA5499
:10258000A0E2B2E08C91A4E2B2E0AD90BB24A0EF57
:10259000B6E0AA0CBB1CAA0CBB1CAA0DBB1D8D93DC
:1025A00088278D938D938C93E4E2F2E0A190BB2475
:1025B000E8E1F3E0AA0CBB1CAA0CBB1CEA0DFB1D56
:1025C000A4E2B2E0AD90BB24A0EFB6E0AA0CBB1C25
:1025D000AA0CBB1CAA0DBB1D94E07BE70E94DA5439
:1025E000A0E2B2E08C91845C8C93A4E2B2E08C9186
:1025F0008F5F8C9310F40C94891281E080932402F5
:1026000000912402043018F011F00C945213A0E24F
:10261000B3E0EEE2F0EB0E9469530E94FA52E4E26A
:10262000F2E0A0E2B3E00E94F84D0E940754E4E219
:10263000F2E00191112747E050E00E94CD52E9E419
:10264000F3E0E00FF11FA0E2B3E07BE70E94E85463
:10265000E4E2F2E0A190BB24EDE3F3E0AA0CBB1CA2
:10266000EA0DFB1D0AE010E0A0E1BB277BE70E941A
:10267000D954E4E2F2E0A190BB24E5E4F3E0AA0C33
:10268000BB1CEA0DFB1D0AE010E0A0E1BB277BE7C5
:102690000E94D954A4E2B2E08C918F5F8C9310F425
:1026A0000C940013EFE4F3E0A0E1BB278FE08C93E0
:1026B0007BE70E94D754ECE6F3E0A0E1BB278FE074
:1026C0008C937BE70E94D754EDE6F3E00CE310E037
:1026D000A0E1BB277BE70E94D954EFE6F3E008E0D6
:1026E00017E0A0E1BB277BE70E94D954E4E3F3E0C5
:1026F00000E11EE020E030E0A0E1BB2794E07BE7B2
:102700000E94DA54E8E3F3E0A0E1BB278CE38C936A
:102710007BE70E94D7540895E5E0F0E0A0E1BB27F5
:1027200081E08C937BE70E94D754EAE0F1E00CE370
:1027300010E0A0E1BB277BE70E94D954E1E7F3E07A
:1027400004E813E0A0E1BB277BE70E94D954A0E294
:10275000B3E0E2E3F0EB0E9469530E94FA52E0E238
:10276000F3E00E94D550A8E2B2E00D931D932D93A3
:102770003D93EAE0F0E0A8E2B2E094E07BE70E945B
:10278000DA54A0E2B3E0ECE3F0EB0E9469530E945C
:10279000FA52E0E2F3E00E94D550A8E2B2E00D93D5
:1027A0001D932D933D93EEE0F0E0A8E2B2E094E0BB
:1027B0007BE70E94DA54A0E2B3E0E6E4F0EB0E948B
:1027C00069530E94FA52E0E2F3E00E94D550A8E279
:1027D000B2E00D931D932D933D93E2E1F0E0A8E26A
:1027E000B2E094E07BE70E94DA54A0E2B3E0E0E5D7
:1027F000F0EB0E9469530E94FA52E0E2F3E00E947B
:10280000D550A8E2B2E00D931D932D933D93E6E1E0
:10281000F0E0A8E2B2E094E07BE70E94DA54A0E2A4
:10282000B3E0EAE5F0EB0E9469530E94FA52E0E25D
:10283000F3E00E94D550A8E2B2E00D931D932D93D2
:102840003D93EAE1F0E0A8E2B2E094E07BE70E9489
:10285000DA54A0E2B3E0E4E6F0EB0E9469530E9490
:10286000FA52E0E2F3E00E94D550A8E2B2E00D9304
:102870001D932D933D93EEE1F0E0A8E2B2E094E0E9
:102880007BE70E94DA54A0E2B3E0EEE6F0EB0E94B0
:1028900069530E94FA52E0E2F3E00E94D550A8E2A8
:1028A000B2E00D931D932D933D93E2E2F0E0A8E298
:1028B000B2E094E07BE70E94DA54A0E2B3E0E2E306
:1028C000F0EB0E9469530E94FA52E0E2F3E00E94AA
:1028D000D550A8E2B2E00D931D932D933D93E6E20F
:1028E000F0E0A8E2B2E094E07BE70E94DA54EAE28A
:1028F000F0E0A8E2B2E094E07BE70E94DA54EEE276
:10290000F0E0A8E2B2E094E07BE70E94DA54E2E370
:10291000F0E0A8E2B2E094E07BE70E94DA54E6E35C
:10292000F0E0A8E2B2E094E07BE70E94DA54EAE348
:10293000F0E0A8E2B2E094E07BE70E94DA54EEE334
:10294000F0E0A8E2B2E094E07BE70E94DA54E2E42F
:10295000F0E0A8E2B2E094E07BE70E94DA54E6E41B
:10296000F0E0A8E2B2E094E07BE70E94DA5481E074
:102970008093240281E0809325020091250200319A
:1029800018F011F00C948615EAECFEEA0E946953E7
:102990000E94074EE5E2F2E0A0E8B0E20E94075490
:1029A0000E94FF4D0E940E4EA4E2B2E00D9111274D
:1029B00001501040A0E3B2E00D931C93A0E3B2E0FD
:1029C0000D911C9140E250E00E94CD52A0E3B2E094
:1029D0000D931C93A5E2B2E00D9111270150104018
:1029E000A2E3B2E00D931C93A2E3B2E00D911C911F
:1029F00048E050E00E94CD52A2E3B2E00D931C9358
:102A0000A0E3B2E00D911C91A2E3B2E04D915C9184
:102A1000040F151FA0E3B2E00D931C9381E0809397
:102A2000270200912702083018F011F00C947E154F
:102A30000091300240912702040FA8E8B3E00C9304
:102A4000E6EDFCE70E946953A7E2B2E08C9199277A
:102A5000A0E2B2E00E941C5380912002A8E8B3E0FB
:102A6000AD90BB24A2E9B4E0AA0DBB1D8C93E8E8AD
:102A7000F3E0A190BB24EBE0F1E0EA0DFB1DA0E246
:102A8000B2E07BE70E94D754E4EDFEEA0E9469536E
:102A90000E94074EE7E2F2E0A0E8B0E20E9407548D
:102AA0000E94FF4DE2EAFEEA0E9469530E94074E2F
:102AB000D201E8E8F3E0A190BB24E2E9F4E0EA0DFA
:102AC000FB1D0E949454D2010E94014EEAEDFEEAE1
:102AD0000E9469530E94074EE8E8F3E0A0E8B0E2E4
:102AE0000E9407540E94FF4D0E940E4EA7E2B2E0E2
:102AF0008C918F5F8C9310F40C941115A5E2B2E0C9
:102B00008C918F5F8C9310F40C94BD140895E8E7BA
:102B1000F0EB0E9469530E94074E0E940E4EE0E0C7
:102B2000F0E0A5E5B3E00E94F35480E08093210239
:102B3000ABE8B8E08C9185FB16F00C94B21570915F
:102B40008B087F7D70938B08E2E9F0EB0E9469535C
:102B50000E94074EA8E2BDE00E94014E0E940E4E68
:102B60000E947C1600919E07013011F00C94DC1538
:102B700070919E077E7F70939E07A0E2B2E08C91D9
:102B80008F5F8C93A1E2B2E08C918F5F8C93A0E277
:102B9000B2E00C914AE00E9413558C930091200200
:102BA000003011F00C94DC15E8E9F0EB0E94695359
:102BB0000E94074E0E940E4E00915503013011F005
:102BC0000C949815EAEBF0EB0E9469530E94074EB3
:102BD0000E940E4E089580E08093200280E0809352
:102BE0002102A6E5B3E088278C938EE08093200233
:102BF00000912002073118F011F00C941416E091A6
:102C000020020E94B652082FE0E1F0E0A6E5B3E012
:102C10000E94F84D0E947B54A0E2B2E08C918F5F3D
:102C20008C9310F40C94F815E6E5F3E0A5E4B2E01B
:102C30000E94B654A6E5B3E088278C938EE080937B
:102C4000200200912002073118F011F00C943D167B
:102C5000E09120020E94B652082FE0E1F0E0A6E5E4
:102C6000B3E00E94F84D0E947B54A0E2B2E08C9148
:102C70008F5F8C9310F40C942116E5E4F2E0A6E546
:102C8000B3E00E942B5511F00C94491681E080931B
:102C90002002A1E2B2E08C918F5F8C930091200220
:102CA000003011F00C94681684EF91E00E94C14E40
:102CB000EEECF0EB0E9469530E94074EE1E2F2E075
:102CC000A0E8B0E20E9407540E94FF4D0E940E4E01
:102CD00000912002013081E009F080E08F930091A3
:102CE00021020A3081E009F080E09F91892B88233E
:102CF00011F40C94F1150895E4EDF0EB0E94695382
:102D00000E94074EA8E2BDE00E94014E0E940E4EB6
:102D100081E0E8E2FDE006E00A93A0E2B3E00E9471
:102D2000C154E8E2FDE09CE204E132E2A8EAB9E045
:102D30000E945D55A7EAB9E02C93A8EAB9E00E9489
:102D40002355082F063011F00C94052EE8EAF9E01F
:102D5000AEE3B2E00E94B654EEE3F2E0AEE3B2E0DE
:102D60000E943E538FEF80930E03AEE3B2E0E6ED98
:102D7000F0EB0E9469530E94295511F00C94011741
:102D800080E080930E03A5E4B2E0EEEDF0EB0E944C
:102D900069530E94FA52A0E2B3E0E2EFF0EB0E9426
:102DA00069530E94FA52E0E2F3E0A5E4B2E00E9427
:102DB000F84D0E94B654A5E4B2E00E94F84DE6E05A
:102DC000F1EB0E9469530E94FA52A0E2B3E0EAE3F9
:102DD000FEEA0E9469530E94FA52E0E2F3E0A5E4A1
:102DE000B2E00E94F84D0E94B654A5E4B2E00E9401
:102DF000F84DE4E0FFEA0E9469530E94FA520C94F5
:102E0000032EE4E1F1EB0E9469530E94295511F071
:102E10000C94281780E080930E03A5E4B2E0ECE167
:102E2000F1EB0E9469530E94FA527091380270616E
:102E30007093380281E080935503E0E0F0E0A5E56F
:102E4000B3E07BE70E94D7540E9492100C94032EAB
:102E5000EAE4F1EB0E9469530E94295511F00C94A9
:102E6000451780E080930E03A5E4B2E0E2E5F1EBC4
:102E70000E9469530E94FA527091380270617093F7
:102E800038020E948C130C94032EECE6F1EB0E94A6
:102E900069530E94295511F00C946F1780E08093BC
:102EA0000E030E94EB15A5E4B2E0E4E7F1EB0E940B
:102EB00069530E94FA52E6E5F3E0A5E4B2E00E940D
:102EC000F84D0E94B654A5E4B2E00E94F84DE4E04B
:102ED000FFEA0E9469530E94FA520C94032EEEE717
:102EE000F1EB0E9469530E94295511F00C94AE1722
:102EF0000091A709023011F00C94A917ADEBB9E0CD
:102F00000E944C54A0E2B2E00C93009120020131E7
:102F100010F00C94A41780E080930E03A5E4B2E0B7
:102F2000E6E8F1EB0E9469530E94FA52E0E2F2E017
:102F3000A5E4B2E00E94F84D0E940754809120025F
:102F400080939D070C94A71785E080930E030C9443
:102F5000AC1784E080930E030C94032EEEE9F1EBA2
:102F60000E9469530E94295511F00C94BD180091DC
:102F7000A709023011F00C94B818ADEBB9E00E942B
:102F80002355082F0C3011F00C94B31880E0809377
:102F90000E0387E0EDEBF9E002E00A93A0E2B3E074
:102FA0000E94C154A0E2B3E00E94F84DE6EAF1EBC2
:102FB0000E9469530E94FA5289E0EDEBF9E002E0C9
:102FC0000A93A0E2B3E00E94F84D0E94C154A0E22F
:102FD000B3E00E94F84DE6EAF1EB0E9469530E94CB
:102FE000FA528BE0EDEBF9E002E00A93A0E2B3E0E5
:102FF0000E94F84D0E94C154A0E2B3E00E94014E2D
:103000000E940E4EE0E2F3E0A1E1B2E00E94B6546D
:103010000E94D04FE8EAF1EB0E9469530E94074EEC
:103020000E94BD4FA1E1B2E00E94014E0E940E4EEF
:1030300081E0EDEBF9E002E00A93A0E2B3E00E9448
:10304000C154A0E2B3E00E94F84DECEAF1EB0E941B
:1030500069530E94FA5283E0EDEBF9E002E00A9333
:10306000A0E2B3E00E94F84D0E94C154A0E2B3E098
:103070000E94F84DECEAF1EB0E9469530E94FA526B
:1030800085E0EDEBF9E002E00A93A0E2B3E00E94F4
:10309000F84D0E94C154A0E2B3E00E94014E0E948C
:1030A0000E4EE0E2F3E0A8E0B2E00E94B6540E94C7
:1030B000C84FEEEAF1EB0E9469530E94074E0E944E
:1030C000BD4FA8E0B2E00E94014E0E940E4EA5E462
:1030D000B2E0E2EBF1EB0E9469530E94FA520E94C7
:1030E000BD4FE8E0F2E0A5E4B2E00E94F84D0E9496
:1030F000B654A5E4B2E00E94F84DECEDF1EB0E946D
:1031000069530E94FA520E94BD4FE1E1F2E0A5E44A
:10311000B2E00E94F84D0E94B654E5E0F2E00E9451
:103120002050ADE6B3E08C930E94D12F0E941B305B
:103130000E944A2FE2E0F2E00E940151A4E8B3E0CD
:103140000D931D932D933D93E1E0F0E0A4E8B3E0EF
:1031500094E07BE70E94DA547091380278607093B3
:1031600038020C94B61886E080930E030C94BB18BA
:1031700084E080930E030C94032EE0EEF1EB0E94AA
:1031800069530E94295511F00C94D31880E0809364
:103190000E03A5E4B2E0E8EEF1EB0E9469530E9451
:1031A000FA520C94032EE0EFF1EB0E9469530E9457
:1031B000295511F00C94131980E080930E030E949E
:1031C000BD4FE1E1F2E0A0E2B3E00E94B654A5E415
:1031D000B2E0E8EFF1EB0E9469530E94FA52E0E29C
:1031E000F3E0A5E4B2E00E94F84D0E94B654A5E4D5
:1031F000B2E00E94F84DE6E0F2EB0E9469530E94B3
:10320000FA520E94BD4FE8E0F2E0A0E2B3E00E9473
:10321000B654E0E2F3E0A5E4B2E00E94F84D0E946B
:10322000B6540C94032EE6E1F2EB0E9469530E941F
:10323000295511F00C944F1980E080930E03E4E8B7
:10324000F3E0A0E2B3E00E943A51A5E4B2E0EEE17F
:10325000F2EB0E9469530E94FA52E0E2F3E0A5E427
:10326000B2E00E94F84D0E94B654A5E4B2E00E947C
:10327000F84DE2E3F2EB0E9469530E94FA52E4E84F
:10328000F3E0A0E2B3E00E944251E0E2F3E0A5E403
:10329000B2E00E94F84D0E94B6540C94032EEAE36B
:1032A000F2EB0E9469530E94295511F00C94581AB0
:1032B0000091A709043011F00C94531AADEBB9E05A
:1032C0000E944C54A1E2B2E00C9300912102003024
:1032D00080E010F009F081E08F9300912102053029
:1032E00081E008F080E09F918923882311F40C94F9
:1032F0004E1AA2EDB9E00E944C54A0E2B2E00C9349
:1033000000912002003080E010F009F081E08F93FE
:1033100000912002013181E008F080E09F91892333
:10332000882311F40C94491A80E080930E03E7EE91
:10333000F9E0A0E2B3E00E94B654A1E2B2E00D9140
:10334000112701501040A0E3B2E00D931C93A0E3BD
:10335000B2E00D911C9140E150E00E94CD52A0E3FB
:10336000B2E00D931C93A0E3B2E00D911C91A0E29A
:10337000B2E04D915527040F151FA0E3B2E00D9365
:103380001C93E2E4F2EB0E9469530E94074EE0E3D3
:10339000F2E0A0E8B0E20E94F7530E94FF4D0E94C5
:1033A0000E4EE0E2F3E00E94D550A0E3B2E0AD9013
:1033B000BD90ABE8B3E0AA0CBB1CAA0CBB1CAA0DC9
:1033C000BB1D0D931D932D933D93E0E3F2E0A1907F
:1033D000B190E6E0F0E0AA0CBB1CAA0CBB1CEA0D05
:1033E000FB1DA0E3B2E0AD90BD90ABE8B3E0AA0C4A
:1033F000BB1CAA0CBB1CAA0DBB1D94E07BE70E9462
:10340000DA54E0E3F2E0A190B190EBE8F3E0AA0C2B
:10341000BB1CAA0CBB1CEA0DFB1DA0E2B3E00E9482
:103420003A51A5E4B2E0ECE4F2EB0E9469530E9449
:10343000FA52E0E2F2E0A5E4B2E00E94F84D0E9408
:103440000754A5E4B2E00E94F84DECEDF1EB0E94C8
:1034500069530E94FA52E0E2F3E0A5E4B2E00E9470
:10346000F84D0E94B654A5E4B2E00E94F84DEAE59A
:10347000F2EB0E9469530E94FA52E1E2F2E0A5E405
:10348000B2E00E94F84D0E9407540E94D40C0C94A4
:103490004C1A86E080930E030C94511A85E08093B9
:1034A0000E030C94561A84E080930E030C94032EA2
:1034B000E4E6F2EB0E9469530E94295511F00C9446
:1034C000291B0091A709033011F00C94241BADEBCC
:1034D000B9E00E944C54A1E2B2E00C9300912102A9
:1034E000003080E010F009F081E08F93009121021C
:1034F000053081E008F080E09F918923882311F452
:103500000C941F1BA2EDB9E00E944C54A0E2B2E063
:103510000C9300912002003080E010F009F081E06F
:103520008F9300912002013181E008F080E09F91AB
:103530008923882311F40C941A1B80E080930E03D6
:10354000A1E2B2E00D91112701501040A0E3B2E0DA
:103550000D931C93A0E3B2E00D911C9140E150E06B
:103560000E94CD52A0E3B2E00D931C93A0E3B2E021
:103570000D911C91A0E2B2E04D915527040F151F4B
:10358000A0E3B2E00D931C93E2E4F2EB0E946953D6
:103590000E94074EE0E3F2E0A0E8B0E20E94F75399
:1035A0000E94FF4D0E940E4EE0E3F2E0A190B19028
:1035B000EBE8F3E0AA0CBB1CAA0CBB1CEA0DFB1D3C
:1035C000A0E2B3E00E943A51A5E4B2E0ECE6F2EBEF
:1035D0000E9469530E94FA52E0E2F2E0A5E4B2E0F0
:1035E0000E94F84D0E940754A5E4B2E00E94F84DF5
:1035F000E4E7F2EB0E9469530E94FA52E0E2F3E042
:10360000A5E4B2E00E94F84D0E94B654A5E4B2E0F1
:103610000E94F84DEAE5F2EB0E9469530E94FA52CB
:10362000E1E2F2E0A5E4B2E00E94F84D0E94075406
:103630000C941D1B86E080930E030C94221B85E0E6
:1036400080930E030C94271B84E080930E030C944C
:10365000032EE8E7F2EB0E9469530E94295511F00E
:103660000C947B1B0091A709023011F00C94761B7F
:10367000ADEBB9E00E944C54A0E3B2E00D931C9373
:10368000A0E3B2E00D911C91003050E0150718F056
:1036900011F00C944D1B0C94711B80E080930E0371
:1036A000A0E3B2E08D919C91AFE8B4E08D939C9340
:1036B000A5E4B2E0E0E8F2EB0E9469530E94FA52FE
:1036C000EFE8F4E0A5E4B2E00E94F84D0E94F75361
:1036D000EAE0F1E0AFE8B4E07BE70E94D9540C9453
:1036E000741B85E080930E030C94791B84E0809317
:1036F0000E030C94032EE6E9F2EB0E9469530E943C
:10370000295511F00C94991B80E080930E03A5E4D9
:10371000B2E0EEE9F2EB0E9469530E94FA52EFE840
:10372000F4E0A5E4B2E00E94F84D0E94F7530C9437
:10373000032EE6EAF2EB0E9469530E94295511F02C
:103740000C94EB1B0091A709023011F00C94E61BBE
:10375000ADEBB9E00E944C54A0E3B2E00D931C9392
:10376000A0E3B2E00D911C91003050E0150718F075
:1037700011F00C94BD1B0C94E11B80E080930E03B0
:10378000A0E3B2E08D919C91A9E8B8E08D939C9361
:10379000A5E4B2E0EEEAF2EB0E9469530E94FA520D
:1037A000E9E8F8E0A5E4B2E00E94F84D0E94F75382
:1037B000E1E7F3E0A9E8B8E07BE70E94D9540C9474
:1037C000E41B85E080930E030C94E91B84E0809356
:1037D0000E030C94032EE8ECF2EB0E9469530E9456
:1037E000295511F00C94091C80E080930E03A5E488
:1037F000B2E0E0EDF2EB0E9469530E94FA52E9E870
:10380000F8E0A5E4B2E00E94F84D0E94F7530C9452
:10381000032EEEEDF2EB0E9469530E94295511F040
:103820000C945B1C0091A709023011F00C94561CFB
:10383000ADEBB9E00E944C54A0E3B2E00D931C93B1
:10384000A0E3B2E00D911C91003050E0150718F094
:1038500011F00C942D1C0C94511C80E080930E03ED
:10386000A0E3B2E08D919C91AEE7B8E08D939C937C
:10387000A5E4B2E0E6EEF2EB0E9469530E94FA5230
:10388000EEE7F8E0A5E4B2E00E94F84D0E94F7539D
:10389000EDE6F3E0AEE7B8E07BE70E94D9540C9484
:1038A000541C85E080930E030C94591C84E0809393
:1038B0000E030C94032EEEEFF2EB0E9469530E946C
:1038C000295511F00C94791C80E080930E03A5E437
:1038D000B2E0E6EAFFEA0E9469530E94FA52EEE77C
:1038E000F8E0A5E4B2E00E94F84D0E94F7530C9472
:1038F000032EE6E0F3EB0E9469530E94295511F074
:103900000C94CB1C0091A709023011F00C94C61C3A
:10391000ADEBB9E00E944C54A0E3B2E00D931C93D0
:10392000A0E3B2E00D911C91003050E0150718F0B3
:1039300011F00C949D1C0C94C11C80E080930E032C
:10394000A0E3B2E08D919C91A0E8B8E08D939C93A8
:10395000A5E4B2E0EEE0F3EB0E9469530E94FA5254
:10396000E0E8F8E0A5E4B2E00E94F84D0E94F753C9
:10397000EFE6F3E0A0E8B8E07BE70E94D9540C94AE
:10398000C41C85E080930E030C94C91C84E08093D2
:103990000E030C94032EE8E2F3EB0E9469530E949D
:1039A000295511F00C94E91C80E080930E03A5E4E6
:1039B000B2E0E2EBFFEA0E9469530E94FA52E0E8AB
:1039C000F8E0A5E4B2E00E94F84D0E94F7530C9491
:1039D000032EE0E3F3EB0E9469530E94295511F096
:1039E0000C94251E0091A709053011F00C94201E9F
:1039F000ADEBB9E00E944C54A1E2B2E00C9300910F
:103A00002102003080E010F009F081E08F930091F6
:103A10002102053081E008F080E09F91892388230E
:103A200011F40C941B1EA2EDB9E00E944C54A2E2CA
:103A3000B2E00C9300912202003080E010F009F017
:103A400081E08F9300912202013181E008F080E053
:103A50009F918923882311F40C94161EA7EEB9E0D8
:103A60000E944C54A0E2B2E00C930091200200307E
:103A700080E010F009F081E08F930091200209307E
:103A800081E008F080E09F918923882311F40C9451
:103A9000111EA1E2B2E00D91112701501040A0E3E8
:103AA000B2E00D931C93A0E3B2E00D911C9140E2B3
:103AB00050E00E94CD52A0E3B2E00D931C93A2E22D
:103AC000B2E00D91112701501040A2E3B2E00D9336
:103AD0001C93A2E3B2E00D911C9148E050E00E94DB
:103AE000CD52A2E3B2E00D931C93A0E3B2E00D919E
:103AF0001C91A2E3B2E04D915C91040F151FA0E36D
:103B0000B2E00D931C93A0E3B2E00D911C91A0E2F2
:103B1000B2E04D915527040F151FA0E3B2E00D93BD
:103B20001C93E8E3F3EB0E9469530E94074EE0E325
:103B3000F2E0A0E8B0E20E94F7530E94FF4D0E941D
:103B40000E4EACEFB9E00E94A454A3E2B2E00C9395
:103B500080912302A0E3B2E0AD90BD90A2E9B4E071
:103B6000AA0DBB1D8C93E0E3F2E0A190B190EBE0D5
:103B7000F1E0EA0DFB1DA3E2B2E07BE70E94D7541F
:103B800080E080930E03A5E4B2E0E2E4F3EB0E9450
:103B900069530E94FA52E0E2F2E0A5E4B2E00E942A
:103BA000F84D0E940754A5E4B2E00E94F84DE2E50A
:103BB000F3EB0E9469530E94FA52E2E2F2E0A5E4BC
:103BC000B2E00E94F84D0E940754A5E4B2E00E94C2
:103BD000F84DE0E6F3EB0E9469530E94FA52E1E2ED
:103BE000F2E0A5E4B2E00E94F84D0E940754A5E47B
:103BF000B2E00E94F84DE2EAFEEA0E9469530E9498
:103C0000FA52A5E4B2E00E94F84DE0E3F2E0A190A0
:103C1000B190E2E9F4E0EA0DFB1D0E9494540C948B
:103C2000141E87E080930E030C94191E86E0809387
:103C30000E030C941E1E85E080930E030C94231E2D
:103C400084E080930E030C94032EEAE6F3EB0E94CB
:103C500069530E94295511F00C94421F0091A70945
:103C6000043011F00C943D1FADEBB9E00E944C54B0
:103C7000A1E2B2E00C9300912102003080E010F04C
:103C800009F081E08F9300912102053081E008F076
:103C900080E09F918923882311F40C94381FA2EDB2
:103CA000B9E00E944C54A2E2B2E00C9300912202CF
:103CB000003080E010F009F081E08F930091220243
:103CC000013181E008F080E09F918923882311F47D
:103CD0000C94331FA7EEB9E00E944C54A0E2B2E06E
:103CE0000C9300912002003080E010F009F081E098
:103CF0008F9300912002093081E008F080E09F91CD
:103D00008923882311F40C942E1F80E080930E03E6
:103D1000A1E2B2E00D91112701501040A0E3B2E002
:103D20000D931C93A0E3B2E00D911C9140E250E092
:103D30000E94CD52A0E3B2E00D931C93A2E2B2E048
:103D40000D91112701501040A2E3B2E00D931C9396
:103D5000A2E3B2E00D911C9148E050E00E94CD52E8
:103D6000A2E3B2E00D931C93A0E3B2E00D911C918D
:103D7000A2E3B2E04D915C91040F151FA0E3B2E005
:103D80000D931C93A0E3B2E00D911C91A0E2B2E070
:103D90004D915527040F151FA0E3B2E00D931C931E
:103DA000E2E7F3EB0E9469530E94074EE0E3F2E082
:103DB000A0E8B0E20E94F7530E94FF4D0E940E4E11
:103DC000A5E4B2E0E4EDFEEA0E9469530E94FA52D3
:103DD000E0E2F2E0A5E4B2E00E94F84D0E94075450
:103DE000A5E4B2E00E94F84DE2E5F3EB0E946953CE
:103DF0000E94FA52E2E2F2E0A5E4B2E00E94F84D3D
:103E00000E940754A5E4B2E00E94F84DE0E6F3EB0F
:103E10000E9469530E94FA52E1E2F2E0A5E4B2E0A6
:103E20000E94F84D0E940754A5E4B2E00E94F84DAC
:103E3000E2EAFEEA0E9469530E94FA52A5E4B2E067
:103E40000E94F84DE0E3F2E0A190B190E2E9F4E0E5
:103E5000EA0DFB1D0E9494540C94311F87E080935F
:103E60000E030C94361F86E080930E030C943B1FC8
:103E700085E080930E030C94401F84E080930E0332
:103E80000C94032EE0E8F3EB0E9469530E9429553D
:103E900011F00C94A01F0091A709023011F00C94AE
:103EA0009B1FADEBB9E00E944C54A1E2B2E00C9331
:103EB00000912102003080E010F009F081E08F9342
:103EC00000912102053081E008F080E09F91892374
:103ED000882311F40C94961F80E080930E03ADEBC1
:103EE000B9E00E944C54A9E8B3E00C93E5E0F0E09F
:103EF000A9E8B3E07BE70E94D754A5E4B2E0E8E884
:103F0000F3EB0E9469530E94FA52E9E8F3E0A5E45A
:103F1000B2E00E94F84D0E9407540E94D40C7091A8
:103F2000B20772607093B2070C94991F85E080937A
:103F30000E030C949E1F84E080930E030C94032EBA
:103F4000E6EAF3EB0E9469530E94295511F00C94A4
:103F5000C31F80E080930E03A5E4B2E0E6E0FFEA31
:103F60000E9469530E94FA52E9E8F3E0A5E4B2E046
:103F70000E94F84D0E9407547091E00670627093A1
:103F8000E0060C94032EEEEAF3EB0E9469530E94C4
:103F9000295511F00C9446200091A709033011F027
:103FA0000C944120ADEBB9E00E944C54A1E2B2E088
:103FB0000C9300912102003080E010F009F081E0C4
:103FC0008F9300912102053081E008F080E09F91FD
:103FD0008923882311F40C943C2080E080930E0305
:103FE000A2EDB9E00E94A454A1E2B2E0AD90BB24DE
:103FF000A9E8B3E0AA0DBB1D0C93E1E2F2E0A190A9
:10400000BB24E5E0F0E0EA0DFB1DA1E2B2E0AD90DB
:10401000BB24A9E8B3E0AA0DBB1D7BE70E94D754DF
:10402000A5E4B2E0E6EBF3EB0E9469530E94FA527A
:10403000E9E8F3E0A5E4B2E00E94F84D0E940754DD
:10404000A5E4B2E00E94F84DECEDF1EB0E9469535B
:104050000E94FA52A5E4B2E00E94F84DE1E2F2E0DB
:10406000A190BB24E9E8F3E0EA0DFB1D0E94945403
:104070000E94D40C0C943F2085E080930E030C9496
:10408000442084E080930E030C94032EE4EDF3EBC4
:104090000E9469530E94295511F00C94A0200091B0
:1040A000A709023011F00C949B20009121020030EE
:1040B00080E010F009F081E08F930091210205303B
:1040C00081E008F080E09F918923882311F40C940B
:1040D000962080E080930E03A5E4B2E0ECEDF3EBD4
:1040E0000E9469530E94FA52E9E8F3E0A5E4B2E0C5
:1040F0000E94F84D0E940754A5E4B2E00E94F84DDA
:10410000E0EFF3EB0E9469530E94FA52A5E4B2E09B
:104110000E94F84DE1E2F2E0A190BB24E9E8F3E06F
:10412000EA0DFB1D0E9494540C94992085E0809325
:104130000E030C949E2084E080930E030C94032EB7
:10414000E4EFF3EB0E9469530E94295511F00C949F
:1041500047210091A709033011F00C944221ADEBE7
:10416000B9E00E944C54A4E2B2E00C930091240206
:10417000003080E010F009F081E08F93009124027C
:10418000053081E008F080E09F918923882311F4B5
:104190000C943D21A2EDB9E00E944C54ACE2B2E097
:1041A0000D931D932D933D93ACE2B2E00D911D91C3
:1041B0002D913C91A4E2B2E0AD90BB24A0EEB6E01C
:1041C000AA0CBB1CAA0CBB1CAA0DBB1D0D931D93F6
:1041D0002D933C93E4E2F2E0A190BB24E8E0F3E00D
:1041E000AA0CBB1CAA0CBB1CEA0DFB1DACE2B2E086
:1041F00094E07BE70E94DA5480E080930E03A5E40C
:10420000B2E0ECEFF3EB0E9469530E94FA52E4E251
:10421000F2E0A5E4B2E00E94F84D0E940754A5E444
:10422000B2E00E94F84DE6EAF1EB0E9469530E9469
:10423000FA52E4E2F2E0A190BB24E0EEF6E0AA0C30
:10424000BB1CAA0CBB1CEA0DFB1DA5E4B2E00E943E
:10425000F84D0E94FA53E4E2F2E0A190BB24E0EEB4
:10426000F6E0AA0CBB1CAA0CBB1CEA0DFB1DA4E0CB
:10427000B7E00E94FA530C94402183E080930E0330
:104280000C94452184E080930E030C94032EE2E10C
:10429000F4EB0E9469530E94295511F00C94EE2111
:1042A0000091A709033011F00C94E921ADEBB9E0BE
:1042B0000E944C54A4E2B2E00C930091240200301E
:1042C00080E010F009F081E08F9300912402053026
:1042D00081E008F080E09F918923882311F40C94F9
:1042E000E421A2EDB9E00E944C54ACE2B2E00D939F
:1042F0001D932D933D93ACE2B2E00D911D912D9154
:104300003C91A4E2B2E0AD90BB24A0EFB6E0AA0CD1
:10431000BB1CAA0CBB1CAA0DBB1D0D931D932D939A
:104320003C93E4E2F2E0A190BB24E8E1F3E0AA0CC4
:10433000BB1CAA0CBB1CEA0DFB1DACE2B2E094E076
:104340007BE70E94DA5480E080930E03A5E4B2E09C
:10435000ECEFF3EB0E9469530E94FA52E4E2F2E0C0
:10436000A5E4B2E00E94F84D0E940754A5E4B2E033
:104370000E94F84DE6EAF1EB0E9469530E94FA525E
:10438000E4E2F2E0A190BB24E0EFF6E0AA0CBB1C53
:10439000AA0CBB1CEA0DFB1DA5E4B2E00E94F84D7F
:1043A0000E94FA53E4E2F2E0A190BB24E0EFF6E0D1
:1043B000AA0CBB1CAA0CBB1CEA0DFB1DA4E0B7E0B9
:1043C0000E94FA530C94E72183E080930E030C942F
:1043D000EC2184E080930E030C94032EEAE1F4EBCD
:1043E0000E9469530E94295511F00C949322009168
:1043F000A709023011F00C948E22ADEBB9E00E94B7
:104400004C54A4E2B2E00C9300912402003080E00E
:1044100010F009F081E08F9300912402053081E0D3
:1044200008F080E09F918923882311F40C9489225D
:10443000A5E4B2E0E2E2F4EB0E9469530E94FA5272
:10444000E4E2F2E0A5E4B2E00E94F84D0E940754D5
:10445000A5E4B2E00E94F84DE6EAF1EB0E94695350
:104460000E94FA52E4E2F2E0A190BB24E0EEF6E012
:10447000AA0CBB1CAA0CBB1CEA0DFB1DA5E4B2E0F8
:104480000E94F84D0E94FA5380E080930E03E4ED01
:10449000F0EB0E9469530E94074EE4E2F2E0A0E8CC
:1044A000B0E20E9407540E94FF4DECE5FEEA0E9434
:1044B00069530E94074EE4E2F2E0A190BB24E0EED3
:1044C000F6E0AA0CBB1CAA0CBB1CEA0DFB1DA0E865
:1044D000B0E20E94FA530E94FF4D0E940E4EEAE2A3
:1044E000F4EB0E9469530E94074E0E940E4EE4E2D4
:1044F000F2E0A190BB24E0EEF6E0AA0CBB1CAA0CF3
:10450000BB1CEA0DFB1DA4E0B7E00E94FA530C941B
:104510008C2283E080930E030C94912284E080939C
:104520000E030C94032EEEE2F4EB0E9469530E94FA
:10453000295511F00C9438230091A709023011F08D
:104540000C943323ADEBB9E00E944C54A4E2B2E0EA
:104550000C9300912402003080E010F009F081E01B
:104560008F9300912402053081E008F080E09F9154
:104570008923882311F40C942E23A5E4B2E0E6E30A
:10458000F4EB0E9469530E94FA52E4E2F2E0A5E4DF
:10459000B2E00E94F84D0E940754A5E4B2E00E94E8
:1045A000F84DE6EAF1EB0E9469530E94FA52E4E208
:1045B000F2E0A190BB24E0EFF6E0AA0CBB1CAA0C31
:1045C000BB1CEA0DFB1DA5E4B2E00E94F84D0E9461
:1045D000FA5380E080930E03E4EDF0EB0E94695300
:1045E0000E94074EE4E2F2E0A0E8B0E20E94075425
:1045F0000E94FF4DECE5FEEA0E9469530E94074EBF
:10460000E4E2F2E0A190BB24E0EFF6E0AA0CBB1CD0
:10461000AA0CBB1CEA0DFB1DA0E8B0E20E94FA53F5
:104620000E94FF4D0E940E4EEAE2F4EB0E94695395
:104630000E94074E0E940E4EE4E2F2E0A190BB24DD
:10464000E0EFF6E0AA0CBB1CAA0CBB1CEA0DFB1D9C
:10465000A4E0B7E00E94FA530C94312383E08093E6
:104660000E030C94362384E080930E030C94032EE7
:10467000E2E4F4EB0E9469530E94295511F00C9476
:10468000AB230091A709023011F00C94A623ADEBE7
:10469000B9E00E944C54A4E2B2E00C9300912402D1
:1046A000003080E010F009F081E08F930091240247
:1046B000053081E008F080E09F918923882311F480
:1046C0000C94A12380E080930E030091240241E02A
:1046D000041BA0E2B2E00C9380912002A2EBB7E0B1
:1046E0000E9454530E944A539C91982B9C93A5E49A
:1046F000B2E0EAE4F4EB0E9469530E94FA52E4E269
:10470000F2E0A5E4B2E00E94F84D0E940754A5E44F
:10471000B2E00E94F84DECE5FEEA0E9469530E9467
:10472000FA52A5E4B2E00E94F84DE2EBF7E00E94F5
:104730009454A4E0B7E0E2EBF7E00E9494540C94A8
:10474000A42383E080930E030C94A92384E0809338
:104750000E030C94032EEEE5F4EB0E9469530E94C5
:10476000295511F00C94EC230091A709023011F0A7
:104770000C94E72380E080930E03ADEBB9E00E9438
:104780004C54ABE4B7E00D931D932D933D93E4E3BC
:10479000F3E0ABE4B7E094E07BE70E94DA54A5E4F1
:1047A000B2E0E6E6F4EB0E9469530E94FA52EBE4B1
:1047B000F7E0A5E4B2E00E94F84D0E94FA53EBE462
:1047C000F7E0A4E0B7E00E94FA530C94EA2384E0F7
:1047D00080930E030C94032EEEE7F4EB0E946953D2
:1047E0000E94295511F00C94102480E080930E0350
:1047F000A5E4B2E0E6E8F4EB0E9469530E94FA52A5
:10480000EBE4F7E0A5E4B2E00E94F84D0E94FA5311
:10481000EBE4F7E0A4E0B7E00E94FA530C94032E17
:10482000E0E9F4EB0E9469530E94295511F00C94C1
:104830002B2480E080930E037091E00672607093E9
:10484000E006A5E4B2E0E8E9F4EB0E9469530E94B7
:10485000FA520C94032EE0EAF4EB0E9469530E9492
:10486000295511F00C9468240091A709023011F029
:104870000C94632480E080930E03ADEBB9E00E94BA
:104880004C54A3EBB7E00C93E8E3F3E0A3EBB7E001
:104890007BE70E94D754A5E4B2E0E8EAF4EB0E947B
:1048A00069530E94FA52E3EBF7E0A5E4B2E00E94FC
:1048B000F84D0E940754E3EBF7E0A4E0B7E00E9454
:1048C00007540C94662484E080930E030C94032E0A
:1048D000EAEBF4EB0E9469530E94295511F00C9405
:1048E0008C2480E080930E03A5E4B2E0E2ECF4EBCC
:1048F0000E9469530E94FA52E3EBF7E0A5E4B2E0AC
:104900000E94F84D0E940754E3EBF7E0A4E0B7E003
:104910000E9407540C94032EE8ECF4EB0E946953B8
:104920000E94295511F00C94A72480E080930E0377
:1049300070919407746070939407A5E4B2E0E0ED81
:10494000F4EB0E9469530E94FA520C94032EEAED94
:10495000F4EB0E9469530E94295511F00C94DE2457
:104960000091A709023011F00C94D92480E08093C3
:104970000E03ADEBB9E00E944C54AAECB7E00C93E7
:10498000E9E3F3E0AAECB7E07BE70E94D754A5E4A3
:10499000B2E0E2EEF4EB0E9469530E94FA52EAECB4
:1049A000F7E0A5E4B2E00E94F84D0E9407540C9491
:1049B000DC2484E080930E030C94032EE8EFF4EBE8
:1049C0000E9469530E94295511F00C94FC2480E048
:1049D00080930E03A5E4B2E0E4E4FEEA0E9469538A
:1049E0000E94FA52EAECF7E0A5E4B2E00E94F84D2A
:1049F0000E9407540C94032EE0E0F5EB0E946953EB
:104A00000E94295511F00C943F250091A70902300E
:104A100011F00C943A25ADEBB9E00E944C54ABEC8C
:104A2000B7E00D931C93EAE3F3E0ABECB7E07BE770
:104A30000E94D95480E080930E03A5E4B2E0E8E040
:104A4000F5EB0E9469530E94FA52EBECF7E0A5E403
:104A5000B2E00E94F84D0E94F753EBECF7E0A4E0BF
:104A6000B7E00E94F7537091B20772607093B2077B
:104A70000C943D2584E080930E030C94032EE8E211
:104A8000F5EB0E9469530E94295511F00C9478258A
:104A90000091A709013011F00C94732580E08093F8
:104AA0000E03A5E4B2E0E0E3F5EB0E9469530E9437
:104AB000FA52EBECF7E0A5E4B2E00E94F84D0E9458
:104AC000F753A5E4B2E00E94F84DE4E0FFEA0E944B
:104AD00069530E94FA52EBECF7E0A4E0B7E00E94C1
:104AE000F7530C94762584E080930E030C94032EE8
:104AF000E4E4F5EB0E9469530E94295511F00C94EF
:104B0000C2250091A709023011F00C94BD25ADEB30
:104B1000B9E00E944C54A0E2B2E00C930091200254
:104B2000023010F00C94B82580E080930E030091C1
:104B30002002003011F00C94A0255F980C94A12560
:104B40005F9AA5E4B2E0ECE4F5EB0E9469530E94A1
:104B5000FA52ABE2B0E08C9187FBA5E4B2E00E9490
:104B6000F84D0E945A538D9388278C930C94BB2543
:104B700083E080930E030C94C02584E080930E03A1
:104B80000C94032EE6E5F5EB0E9469530E9429552B
:104B900011F00C94F3250091A709023011F00C9448
:104BA000EE2580E080930E03ADEBB9E00E944C54FB
:104BB000AFECB7E00D931C93A5E4B2E0EEE5F5EBA6
:104BC0000E9469530E94FA52EFECF7E0A5E4B2E0CC
:104BD0000E94F84D0E94F7530C94F12584E08093D5
:104BE0000E030C94032EE6E7F5EB0E9469530E9436
:104BF000295511F00C942B260091A709023011F0D1
:104C00000C94262680E080930E03ADEBB9E00E9461
:104C10004C54ADECB7E00D931C93ECE3F3E0ADEC3A
:104C2000B7E07BE70E94D954A5E4B2E0EEE7F5EBEC
:104C30000E9469530E94FA52EDECF7E0A5E4B2E05D
:104C40000E94F84D0E94F7530C94292684E080932B
:104C50000E030C94032EE8E9F5EB0E9469530E94C1
:104C6000295511F00C946D2680E080930E03A5E485
:104C7000B2E0E0EAF5EB0E9469530E94FA52EDECD3
:104C8000F7E0A5E4B2E00E94F84D0E94F753A5E4D6
:104C9000B2E00E94F84DE0EBF5EB0E9469530E94F0
:104CA000FA52EFECF7E0A5E4B2E00E94F84D0E9462
:104CB000F753A5E4B2E00E94F84DECEBF5EB0E944F
:104CC00069530E94FA52E1EDF7E0A5E4B2E00E94D8
:104CD000F84D0E9407540C94032EEAECF5EB0E9469
:104CE00069530E94295511F00C94922680E080931C
:104CF0000E03ADEBB9E00E944C54A1EDB7E00C936C
:104D0000A5E4B2E0E2EDF5EB0E9469530E94FA528D
:104D1000E1EDF7E0A5E4B2E00E94F84D0E940754EF
:104D20000C94032EE2EEF5EB0E9469530E94295584
:104D300011F00C94292780E080930E03A5E4B2E0E3
:104D4000EAEEF5EB0E9469530E94FA5281E08093EB
:104D5000200200912002043018F011F00C94272753
:104D60000091200241E0041BA4E2B2E00C93809188
:104D70002402AAE0B8E00E9454530E944A530C90C7
:104D80000822689409F4E89416F00C941F27002771
:104D9000442780912402A0E2B0E00E9454530E9474
:104DA0004A530C900822689409F4E89400F9809121
:104DB0002402A4EEB7E00E9454530E944A530C9080
:104DC0000822689409F4E89440F9042700FBA8E35A
:104DD000B2E08C9187F98C93E0E2F2E00191112727
:104DE00047E050E00E94CD52EEEDF7E0E00FF11FFA
:104DF000A5E4B2E00E94F84D0E94B654A5E4B2E0EA
:104E00000E94F84DE2EAFEEA0E9469530E94FA52BB
:104E1000A8E3B2E08C9187FBA5E4B2E00E94F84DD4
:104E20000E945A538D9388278C93A5E4B2E00E9488
:104E3000F84DECE5FEEA0E9469530E94FA52A0E2A6
:104E4000B2E08C918F5F8C9310F40C94A9260C9493
:104E5000032EEEEFF5EB0E9469530E94295511F0E5
:104E60000C94DF270091A709043011F00C94DA2785
:104E7000ADEBB9E00E944C54A1E2B2E00C9300917A
:104E80002102013011F00C94CD27A2EDB9E00E946F
:104E90004C54A0E2B2E00C9300912002003080E07C
:104EA00010F009F081E08F9300912002053081E03D
:104EB00008F080E09F918923882311F40C94C8277F
:104EC00080E080930E030091200241E0041BA2E2E7
:104ED000B2E00C93A7EEB9E00E944C54A1E2B2E01C
:104EE0000C9300912102003011F00C9484278091E2
:104EF0002202AAE0B8E00E9454530E944A538C91C7
:104F000089238C930C948F2780912202AAE0B8E029
:104F10000E9454530E944A539C91982B9C93ECE618
:104F2000F3E0AAE0B8E07BE70E94D754A5E4B2E042
:104F3000E6E0F6EB0E9469530E94FA52E0E2F2E0EA
:104F4000A5E4B2E00E94F84D0E940754A5E4B2E047
:104F50000E94F84DE2EAFEEA0E9469530E94FA526A
:104F600080912202AAE0B8E00E9454530E944A5362
:104F70000C900822689409F4E894A5E4B2E00E9439
:104F8000F84D0E945A538D9388278C930C94CB270D
:104F900085E080930E030C94D82780E080930E0365
:104FA000A5E4B2E0EAE1F6EB0E9469530E94FA52EE
:104FB0000C94DD2784E080930E030C94032EE8E329
:104FC000F6EB0E9469530E94295511F00C94B82801
:104FD0000091A709013011F00C94032880E0809320
:104FE0000E03A5E4B2E0E0E4F6EB0E9469530E94F0
:104FF000FA52A5E4B2E00E94F84DEAE0F8E00E941F
:1050000094540C94B628023011F00C943628ADEB71
:10501000B9E00E944C54A1E2B2E00C93009121024D
:10502000013011F00C94292880E080930E03A5E450
:10503000B2E0E0E4F6EB0E9469530E94FA52A5E464
:10504000B2E00E94F84DEAE0F8E00E9494540C941B
:10505000342880E080930E03A5E4B2E0E8E4F6EBA8
:105060000E9469530E94FA520C94B628033011F042
:105070000C94B328ADEBB9E00E944C54A1E2B2E02D
:105080000C9300912102013011F00C94A628A2ED9E
:10509000B9E00E944C54A0E2B2E00C9300912002CF
:1050A000003080E010F009F081E08F930091200241
:1050B000053081E008F080E09F918923882311F476
:1050C0000C94A12880E080930E030091200241E01F
:1050D000041BA2E2B2E00C9380E080930E03A5E4EF
:1050E000B2E0ECE5F6EB0E9469530E94FA52E0E26E
:1050F000F2E0A5E4B2E00E94F84D0E940754A5E456
:10510000B2E00E94F84DE2EAFEEA0E9469530E9472
:10511000FA5280912202AAE0B8E00E9454530E9401
:105120004A530C900822689409F4E894A5E4B2E08C
:105130000E94F84D0E945A538D9388278C930C94AB
:10514000A42885E080930E030C94B12880E080931E
:105150000E03A5E4B2E0E4E6F6EB0E9469530E9478
:10516000FA520C94B62884E080930E030C94032E1C
:10517000EAE7F6EB0E9469530E94295511F00C945E
:1051800054290091A709033011F00C944F29ADEB7D
:10519000B9E00E944C54A0E2B2E00C9300912002CE
:1051A000003080E010F009F081E08F930091200240
:1051B000053081E008F080E09F918923882311F475
:1051C0000C944A2980E080930E030091200241E074
:1051D000041BA2E2B2E00C93A2EDB9E00E944C5491
:1051E000A1E2B2E00C9300912102003011F00C9486
:1051F000062980912202A4EEB7E00E9454530E9437
:105200004A538C9189238C930C941129809122020A
:10521000A4EEB7E00E9454530E944A539C91982BED
:105220009C93EFE4F3E0A4EEB7E07BE70E94D75451
:10523000A5E4B2E0E2E8F6EB0E9469530E94FA525C
:10524000E0E2F2E0A5E4B2E00E94F84D0E940754CB
:10525000A5E4B2E00E94F84DE2EAFEEA0E9469533A
:105260000E94FA5280912202A4EEB7E00E945453A9
:105270000E944A530C900822689409F4E894A5E42B
:10528000B2E00E94F84D0E945A538D9388278C9368
:105290000C944D2985E080930E030C94522984E0F0
:1052A00080930E030C94032EE6E9F6EB0E946953FB
:1052B0000E94295511F00C94DD290091A7090130B5
:1052C00011F00C94782980E080930E03A5E4B2E0FD
:1052D000EEE9F6EB0E9469530E94FA52A5E4B2E0AF
:1052E0000E94F84DE4EEF7E00E9494540C94DB2900
:1052F000023011F00C94D829ADEBB9E00E944C5467
:10530000A0E2B2E00C9300912002003080E010F0A7
:1053100009F081E08F9300912002053081E008F0D0
:1053200080E09F918923882311F40C94D329009164
:10533000200241E0041BA2E2B2E00C9380E08093E3
:105340000E03A5E4B2E0E6EAF6EB0E9469530E9480
:10535000FA52E0E2F2E0A5E4B2E00E94F84D0E94C9
:105360000754A5E4B2E00E94F84DE2EAFEEA0E948A
:1053700069530E94FA5280912202A4EEB7E00E9483
:1053800054530E944A530C900822689409F4E894FC
:10539000A5E4B2E00E94F84D0E945A538D938827ED
:1053A0008C930C94D62985E080930E030C94DB2912
:1053B00084E080930E030C94032EEEEAF6EB0E9439
:1053C00069530E94295511F00C94012C0091A709F2
:1053D000053011F00C94FC2BADEBB9E00E944C545D
:1053E000A0E2B2E00C93A2EDB9E00E944C54A1E21D
:1053F000B2E00C93A7EEB9E00E944C54A2E2B2E0F6
:105400000C9300912002013011F00C94DE2B0091DE
:105410002102003080E010F009F081E08F930091CC
:105420002102053081E008F080E09F9189238823E4
:1054300011F40C94D12B00912202013011F00C9444
:105440007D2AECEFF9E0A1E2B2E00D91112747E0EF
:1054500050E00E94CD52AEEDB7E0A00FB11F0E9408
:10546000B654E1E2F2E00191112747E050E00E94DA
:10547000CD52E9E4F3E0E00FF11FA1E2B2E00D91BB
:10548000112747E050E00E94CD52AEEDB7E0A00FEB
:10549000B11F7BE70E94E85480E080930E03A5E4EF
:1054A000B2E0E6EBF6EB0E9469530E94FA52E1E2A9
:1054B000F2E0A5E4B2E00E94F84D0E940754A5E492
:1054C000B2E00E94F84DE2EAFEEA0E9469530E94AF
:1054D000FA52E1E2F2E00191112747E050E00E9428
:1054E000CD52EEEDF7E0E00FF11FA5E4B2E00E942F
:1054F000F84D0E94B6540C94CF2B023011F00C944E
:10550000FC2AACEFB9E00E944C54A3E2B2E00C9349
:1055100000912302023010F00C94EF2A0091210236
:1055200041E0041BA4E2B2E00C930091230200309E
:1055300011F00C94A82A80912402A4EEB7E00E94F6
:1055400054530E944A538C9189238C930C94B32A10
:1055500080912402A4EEB7E00E9454530E944A5363
:105560009C91982B9C93EFE4F3E0A4EEB7E07BE7EB
:105570000E94D75480E080930E03A5E4B2E0EAECE9
:10558000F6EB0E9469530E94FA52E1E2F2E0A5E4D0
:10559000B2E00E94F84D0E940754A5E4B2E00E94D8
:1055A000F84DE2EAFEEA0E9469530E94FA528091A5
:1055B0002402A4EEB7E00E9454530E944A530C9078
:1055C0000822689409F4E894A5E4B2E00E94F84D3A
:1055D0000E945A538D9388278C930C94FA2A80E06A
:1055E00080930E03A5E4B2E0E0EDF6EB0E94695370
:1055F0000E94FA520C94CF2B033011F00C94602BC4
:10560000ACEFB9E00E944C54A1E2B2E0AD90BB24F3
:10561000A2EDB7E0AA0CBB1CAA0DBB1D0D931C93F9
:10562000E1E2F2E0A190BB24EDE3F3E0AA0CBB1CA5
:10563000EA0DFB1DA1E2B2E0AD90BB24A2EDB7E004
:10564000AA0CBB1CAA0DBB1D7BE70E94D95480E0AD
:1056500080930E03A5E4B2E0EEEEF6EB0E946953F0
:105660000E94FA52E1E2F2E0A5E4B2E00E94F84DB5
:105670000E940754A5E4B2E00E94F84DE2EAFEEA77
:105680000E9469530E94FA52E1E2F2E0A190BB2429
:10569000E2EDF7E0AA0CBB1CEA0DFB1DA5E4B2E0AD
:1056A0000E94F84D0E94F753A5E4B2E00E94F84D25
:1056B000EAE0F7EB0E9469530E94FA520C94CF2B58
:1056C000043011F00C94C42BACEFB9E00E944C54A0
:1056D000A1E2B2E0AD90BB24AAEDB7E0AA0CBB1CDE
:1056E000AA0DBB1D0D931C93E1E2F2E0A190BB2437
:1056F000E5E4F3E0AA0CBB1CEA0DFB1DA1E2B2E05D
:10570000AD90BB24AAEDB7E0AA0CBB1CAA0DBB1D33
:105710007BE70E94D95480E080930E03A5E4B2E0B9
:10572000E2E1F7EB0E9469530E94FA52E1E2F2E0F3
:10573000A5E4B2E00E94F84D0E940754A5E4B2E04F
:105740000E94F84DE2EAFEEA0E9469530E94FA5272
:10575000E1E2F2E0A190BB24EAEDF7E0AA0CBB1C69
:10576000EA0DFB1DA5E4B2E00E94F84D0E94F7533C
:10577000A5E4B2E00E94F84DEAE0F7EB0E9469531D
:105780000E94FA520C94CF2B80E080930E03A5E484
:10579000B2E0EEE2F7EB0E9469530E94FA520C94D9
:1057A000DC2B80E080930E03A5E4B2E0E6E4F7EBA7
:1057B0000E9469530E94FA520C94FA2B033011F0A4
:1057C0000C94EF2B80E080930E03A5E4B2E0E8E5B3
:1057D000F7EB0E9469530E94FA520C94FA2B80E076
:1057E00080930E03A5E4B2E0E0E8F7EB0E94695372
:1057F0000E94FA520C94FF2B84E080930E030C94C9
:10580000032EECE9F7EB0E9469530E94295511F031
:105810000C94F12C0091A709033011F00C94EC2C9E
:10582000ADEBB9E00E944C54A0E2B2E00C93A2EDC3
:10583000B9E00E944C54A1E2B2E00C930091200226
:10584000013011F00C94DB2C80E080930E0300916A
:105850002102003080E010F009F081E08F93009188
:105860002102053081E008F080E09F9189238823A0
:1058700011F40C94CE2C0091210241E0041BA4E20F
:10588000B2E00C93A5E4B2E0EEE2F0EB0E946953C3
:105890000E94FA52E1E2F2E0A5E4B2E00E94F84D83
:1058A0000E940754A5E4B2E00E94F84DE4EAF7EB49
:1058B0000E9469530E94FA52E1E2F2E0019111273D
:1058C00047E050E00E94CD52EEEDF7E0E00FF11F0F
:1058D000A5E4B2E00E94F84D0E94B654A5E4B2E0FF
:1058E0000E94F84DEEEAF7EB0E9469530E94FA52CB
:1058F00080912402A4EEB7E00E9454530E944A53C0
:105900000C900822689409F4E894A5E4B2E00E949F
:10591000F84D0E945A538D9388278C93A5E4B2E0EA
:105920000E94F84DE4EBF7EB0E9469530E94FA5293
:10593000E1E2F2E0A190BB24E2EDF7E0AA0CBB1C8F
:10594000EA0DFB1DA5E4B2E00E94F84D0E94F7535A
:10595000A5E4B2E00E94F84DECEBF7EB0E9469532E
:105960000E94FA52E1E2F2E0A190BB24EAEDF7E0F6
:10597000AA0CBB1CEA0DFB1DA5E4B2E00E94F84D89
:105980000E94F753A5E4B2E00E94F84DECECF7EB6F
:105990000E9469530E94FA520C94D92C80E08093A3
:1059A0000E03A5E4B2E0E6E4F7EB0E9469530E941F
:1059B000FA520C94EA2C033011F00C94EA2C80E09B
:1059C00080930E03A5E4B2E0E8E5F7EB0E9469538B
:1059D0000E94FA520C94EF2C84E080930E030C94F6
:1059E000032EE4EDF7EB0E9469530E94295511F054
:1059F0000C94832D80E080930E03A5E4B2E0ECEDDF
:105A0000F7EB0E9469530E94FA52A8E2B0E08C9131
:105A100080FBA5E4B2E00E94F84D0E945A538D939A
:105A200088278C93A8E2B0E08C9181FBA5E4B2E0DA
:105A30000E94F84D0E945A538D9388278C93A8E2B8
:105A4000B0E08C9182FBA5E4B2E00E94F84D0E9488
:105A50005A538D9388278C93A8E2B0E08C9183FBF6
:105A6000A5E4B2E00E94F84D0E945A538D93882716
:105A70008C93A8E2B0E08C9184FBA5E4B2E00E9494
:105A8000F84D0E945A538D9388278C93A8E2B0E07A
:105A90008C9185FBA5E4B2E00E94F84D0E945A5318
:105AA0008D9388278C93A5E4B2E00E94F84DE0EE38
:105AB000F7EB0E9469530E94FA52A8E2B0E08C9181
:105AC00086FBA5E4B2E00E94F84D0E945A538D93E4
:105AD00088278C93A5E4B2E00E94F84DECEEF7EB3A
