:100000000C947200189500001895000018950000D7
:10001000189500001895000018950000189500002C
:10002000189500001895000018950000189500001C
:100030001895000018950000189500000C9496057E
:1000400018950000189500001895000018950000FC
:100050000C94210318950000189500000C9452028E
:10006000189500000C940E011895000018950000DA
:1000700018950000189500001895000018950000CC
:1000800018950000189500001895000018950000BC
:100090000C94A00118950000189500001895000018
:1000A000189500001895000018950000189500009C
:1000B000189500001895000018950000189500008C
:1000C000189500001895000018950000189500007C
:1000D000189500001895000018950000189500006C
:1000E000189500008FEF8DBFC0E0E8E14E2E81E251
:1000F0008EBFD1E2FFE15F2EA89584B7082E882736
:1001000084BF88E199278093600090936000EEEFB0
:10011000FFE1A0E0B2E088278D933197E9F787E609
:100120008093C40080E08093C50088E18093C10083
:100130006624279A389A399A3A9A3B9A3C9A3D9A79
:100140003E9A3F9A70910A01716070930A01709112
:100150000A01726070930A0170910A0174607093D1
:100160000A01219A229A239A289A209A5F9A579AEA
:10017000159A089809980A980B98109A119A129A49
:10018000139A85E085BD80E084BD70916E0071603A
:1001900070936E0085E085BD80E08093800085E0EF
:1001A0008093810070916F00716070936F0085E0A3
:1001B0008093810087E08093B10080E08093B0005D
:1001C0007091700071607093700087E08093B1004F
:1001D0007091C10070687093C10087E68093CC0075
:1001E00080E08093CD007091C8007D7F7093C8003F
:1001F00086E08093CA0088E18093C9007091C900AD
:1002000070687093C90070E07093B9007CE07093DF
:10021000B8000E94695C78940C9418510F921F9258
:100220002F923F924F925F927F92AF92BF920F9325
:100230001F932F933F934F935F936F937F938F936E
:100240009F93AF93BF93CF93DF93EF93FF939FB7AA
:100250009F939BB79F9399279BBFA0E9BBE0809199
:10026000C6008C9384E2482F0091900B041711F084
:100270000C94450170919808746070939808ABEDE8
:10028000BAE088278C930C9482010D3011F00C9405
:100290006A01A8E9B8E08C9182FB16F00C94680121
:1002A000709198087B7F7093980880E0ABEDBAE07E
:1002B0000E94AF588D9388278C93EBEDFAE0A1E96B
:1002C000BBE00E947E5F70919808726070939808FE
:1002D0000C9482010F3118F011F00C9471010C9400
:1002E0008201A8E9B8E08C9182FB16F00C9482019F
:1002F000A0E9BBE08C91ABEDBAE00E94AF588D93C2
:1003000088278C939F919BBF9F919FBFFF91EF91F7
:10031000DF91CF91BF91AF919F918F917F916F911D
:100320005F914F913F912F911F910F91BF90AF908F
:100330007F905F904F903F902F901F900F90189557
:100340000F921F922F923F924F925F927F92AF92A5
:10035000BF920F931F932F933F934F935F936F938E
:100360007F938F939F93AF93BF93CF93DF93EF933D
:10037000FF939FB79F939BB79F9399279BBFA7EB33
:10038000B8E08091CE008C9385E2482F0091B708A9
:10039000041711F00C94D701709198087061709354
:1003A0009808A8EBB8E088278C930C9434020D30A1
:1003B00011F00C940C02A8E9B8E08C9184FB16F0C3
:1003C0000C940A02709198087F7E7093980880E0E0
:1003D000A8EBB8E00E94AF588D9388278C93E8EB88
:1003E000F8E0A5E4B9E00E947E5FA5E4B9E0EEE1A3
:1003F000F5EC0E942C5E0E94E85F11F00C9405025F
:100400007091400270627093400270919808786019
:10041000709398080C9434020F3118F011F00C947A
:1004200013020C943402A8E9B8E08C9184FB16F016
:100430000C943402A7EBB8E08C91A8EBB8E00E94D2
:10044000AF588D9388278C93A8EBB8E00E94E25FA9
:10045000082F0C3818F011F00C9430020C94340270
:10046000A8EBB8E088278C939F919BBF9F919FBF7B
:10047000FF91EF91DF91CF91BF91AF919F918F91BC
:100480007F916F915F914F913F912F911F910F91AC
:10049000BF90AF907F905F904F903F902F901F90B4
:1004A0000F9018950F921F922F923F924F925F924A
:1004B0007F92AF92BF920F931F932F933F934F93CF
:1004C0005F936F937F938F939F93AF93BF93CF93DC
:1004D000DF93EF93FF939FB79F939BB79F939927CA
:1004E0009BBF74E676BDA7EAB7E08C918F5F8C93D3
:1004F000A7EAB7E00C9148E00E94D25F8C9300918C
:10050000A707003011F00C94B802A8EAB7E00C91EC
:1005100040E20E94D25F8C93E2E7FFE80E942C5EEB
:10052000ADEAB7E08C919927A9EAB7E00E94E35DB4
:100530008091A807A9EAB7E00E94175E0E940D5EAD
:100540000C900822689409F4E894ABE5B7E08C912C
:1005500082F98C93ABE5B7E08C9182FBA5E2B0E029
:100560008C9187F98C93A8EAB7E08C918F5F8C937C
:10057000ABE5B7E08C9183FB16F00C94DE02A5EAA4
:10058000B7E00E946858A5EAB7E00D911C9149EFC9
:1005900051E00E949558A5EAB7E00D931C93A5EA97
:1005A000B7E00D911C91003050E0150711F00C944C
:1005B000DE0270915B07706170935B07ABE5B7E09B
:1005C0008C9180FB16F00C94FD02A1EBB7E00E9429
:1005D0006858A3EBB7E04D915C91A1EBB7E00D91AA
:1005E0001C910417150711F00C94FB0270915B0726
:1005F000726070935B070C94030380E090E0A1EBC2
:10060000B7E08D939C939F919BBF9F919FBFFF915C
:10061000EF91DF91CF91BF91AF919F918F917F919A
:100620006F915F914F913F912F911F910F91BF90CB
:10063000AF907F905F904F903F902F901F900F90C2
:1006400018950F921F922F923F924F925F927F9236
:10065000AF92BF920F931F932F933F934F935F934C
:100660006F937F938F939F93AF93BF93CF93DF93BA
:10067000EF93FF939FB79F939BB79F9399279BBF40
:1006800087EF92EC90938500809384007091AE0781
:1006900071607093AE070E94745AE8E0F2E0FA933A
:1006A000EA93E1E1F2E00E940B5CA5EBB7E00D9369
:1006B0001D932D933D93A5EBB7E00E945B58E5EBAE
:1006C000F7E0A1E1B2E00E94FB5B0E94875AE5EBF4
:1006D000F7E0A8E0B2E00E94035C0E947F5A0E940B
:1006E000745AE1E1F2E0AEEDB6E00E947E5FEEED1D
:1006F000F6E00E94965BA9EBB7E00D931D932D9356
:100700003D9381E08093BD070091BD07003118F053
:1007100011F00C94B703ADEBB7E0AD90BB24AAE9A0
:10072000B6E0AA0CBB1CAA0CBB1CAA0DBB1D4D91AC
:100730005D916D917C91A9EBB7E00D911D912D918B
:100740003C910E94AC5E11F00C94AF0370919D0639
:10075000706170939D068091BD078093E906ADEBB3
:10076000B7E08C918F5F8C9310F40C948403A5EB0D
:10077000B7E00D911D912D913C91ACE5B7E04D9105
:100780005D916D917C910E940259AEEBB7E00D93A3
:100790001D932D933D9340E050E060E070E0AEEBA0
:1007A000B7E00D911D912D913C910E94AC5E11F02E
:1007B0000C94DF0370915B07706470935B07A5EB8B
:1007C000B7E00D911D912D913C91A3ECB7E04C91B8
:1007D0005527662777270E940259AEEBB7E00D93A5
:1007E0001D932D933D9340E050E060E070E0AEEB50
:1007F000B7E00D911D912D913C910E94AC5E11F0DE
:100800000C9407047091C40770687093C40781E06A
:100810008093450200914502053018F011F00C94C8
:100820007604A5EBB7E00D911D912D913C91A5E4C7
:10083000B2E0AD90BB24ACEFB6E0AA0CBB1CAA0C96
:10084000BB1CAA0DBB1D4D915D916D917C910E94C9
:10085000A75EAEEBB7E00D931D932D933D93AEEBEA
:10086000B7E00D911D912D913C91A5E4B2E0AD90C2
:10087000BB24A8EEB6E0AA0CBB1CAA0CBB1CAA0D9C
:10088000BB1D4D915D916D917C910E940259AEEB23
:10089000B7E00D931D932D933D930091450241E0E8
:1008A000041BA4E4B2E00C9340E050E060E070E090
:1008B000AEEBB7E00D911D912D913C910E94AC5E85
:1008C00011F00C946E0480914402A2ECB7E00E94F7
:1008D000175E0E940D5E9C91982B9C93A5E4B2E05C
:1008E0008C918F5F8C9310F40C940A04A8E3B7E00A
:1008F0008C918F5F8C93A8E3B7E00C9141E00E944C
:10090000D25F8C9300913807003011F00C948D0465
:1009100070919D06726070939D06AEE7B7E08C9172
:100920008F5F8C93AEE7B7E00C9145E00E94D25FF9
:100930008C9300917E07003011F00C94A404709108
:100940005B07706270935B07ADE9B6E08C9186FB44
:1009500016F00C94E104A8E9B8E08C9186FB16F43B
:100960000C94E104A9E9B4E00E946858A9E9B4E054
:100970000D911C91A7E9B4E04D915C910E949558AE
:10098000A9E9B4E00D931C93A9E9B4E00D911C9181
:10099000003050E0150711F00C94E10470919808B4
:1009A000706470939808469847980E942D11709132
:1009B000C20771607093C2077091C2077460709330
:1009C000C207A8E9B8E08C9186FB16F00C941405D8
:1009D000A9E9B8E00E946858A9E9B8E00D911C9116
:1009E000ABE9B8E04D915C910E949558A9E9B8E057
:1009F0000D931C93A9E9B8E00D911C91003050E0D3
:100A0000150711F00C94140570919D067062709397
:100A10009D06709198087F7B7093980880E090E025
:100A2000A9E9B4E08D939C93A4ECB7E08C9185FB8D
:100A300016F00C947505A4ECB7E08C9184FB16F0CD
:100A40000C944805A4E9B8E00E946858A4E9B8E00D
:100A50000D911C91A0E9B8E04D915C910E949558D0
:100A6000A4E9B8E00D931C93A4E9B8E00D911C91A2
:100A7000003050E0150711F00C9448057091C40740
:100A800078607093C4077091C4077F7E7093C40729
:100A9000A4ECB7E08C9183FB16F00C947505A6E9E5
:100AA000B8E00E946858A6E9B8E00D911C91A2E94F
:100AB000B8E04D915C910E949558A6E9B8E00D937D
:100AC0001C93A6E9B8E00D911C91003050E0150789
:100AD00011F00C9475057091C40770617093C40790
:100AE0007091C407777F7093C4079F919BBF9F91BC
:100AF0009FBFFF91EF91DF91CF91BF91AF919F91F8
:100B00008F917F916F915F914F913F912F911F91A5
:100B10000F91BF90AF907F905F904F903F902F903C
:100B20001F900F9018950895089508950F921F92A1
:100B30002F923F924F925F927F92AF92BF920F930C
:100B40001F932F933F934F935F936F937F938F9355
:100B50009F93AF93BF93CF93DF93EF93FF939FB791
:100B60009F939BB79F9399279BBF74E67093B200A6
:100B7000AAEDB7E08C918F5F8C93AAEDB7E00C9152
:100B80004AE00E94D25F8C930091DA07003011F0A6
:100B90000C94AC0700274427A0E2B0E08C9180FBC6
:100BA00000F9A6EFB7E08C9180FB40F9042700FB29
:100BB000A4ECB7E08C9186F98C93A4ECB7E08C910F
:100BC00086FBA3E1B8E08C9180F98C930027442741
:100BD000A0E2B0E08C9181FB00F9A6EFB7E08C9128
:100BE00081FB40F9042700FBA4ECB7E08C9186F967
:100BF0008C93A4ECB7E08C9186FBA3E1B8E08C91D8
:100C000081F98C9300274427A0E2B0E08C9182FB0D
:100C100000F9A6EFB7E08C9182FB40F9042700FBB6
:100C2000A4ECB7E08C9186F98C93A4ECB7E08C919E
:100C300086FBA3E1B8E08C9182F98C9300274427CE
:100C4000A0E2B0E08C9183FB00F9A6EFB7E08C91B5
:100C500083FB40F9042700FBA4ECB7E08C9186F9F4
:100C60008C93A4ECB7E08C9186FBA3E1B8E08C9167
:100C700083F98C9381E08093C5070091C507043008
:100C800018F011F00C94AC070091C50741E0041B6B
:100C9000A6ECB7E00C93A5ECB7E0AD90BB24A3E1C4
:100CA000B8E0AA0DBB1D0C91003011F00C94740635
:100CB0008091C607A3E1B8E00E94175E0E940D5E16
:100CC0000C900822689409F4E89416F40C947206C7
:100CD00082E0A5ECB7E0AD90BB24A3E1B8E0AA0D9B
:100CE000BB1D8C930C94A407013011F00C94940656
:100CF0008091C607A3E1B8E00E94175E0E940D5ED6
:100D00000C900822689409F4E89416F00C9492066A
:100D100083E0A5ECB7E0AD90BB24A3E1B8E0AA0D59
:100D2000BB1D8C930C94A407023011F00C941D078A
:100D30008091C607A3E1B8E00E94175E0E940D5E95
:100D40000C900822689409F4E89416F00C94C206FA
:100D500080E0A5ECB7E0AD90BB24A3E1B8E0AA0D1C
:100D6000BB1D8C9380E090E0A5ECB7E0AD90BB2478
:100D7000A5ECB7E0AA0CBB1CAA0DBB1D8D939C93E0
:100D80000C941B07A5ECB7E0AD90BB24A5ECB7E035
:100D9000AA0CBB1CAA0DBB1D0E946858A5ECB7E0AD
:100DA000AD90BB24A5ECB7E0AA0CBB1CAA0DBB1DE3
:100DB0000D911C91A5ECB7E0AD90BB24ACEEB7E073
:100DC000AA0CBB1CAA0DBB1D4D915C910E949558AD
:100DD000A5ECB7E0AD90BB24A5ECB7E0AA0CBB1C1A
:100DE000AA0DBB1D0D931C93A5ECB7E0AD90BB24E1
:100DF000A5ECB7E0AA0CBB1CAA0DBB1D0D911C9164
:100E0000003050E0150711F00C941B0781E0A5ECB1
:100E1000B7E0AD90BB24A3E1B8E0AA0DBB1D8C9355
:100E20008091C607A7EDB7E00E94175E0E940D5E95
:100E30009C91982B9C930C94A407033011F00C9474
:100E4000A4078091C607A3E1B8E00E94175E0E9444
:100E50000D5E0C900822689409F4E89416F40C9442
:100E60004B0781E0A5ECB7E0AD90BB24A3E1B8E06F
:100E7000AA0DBB1D8C9380E090E0A5ECB7E0AD908F
:100E8000BB24ADECB7E0AA0CBB1CAA0DBB1D8D9317
:100E90009C930C94A407A5ECB7E0AD90BB24ADECFB
:100EA000B7E0AA0CBB1CAA0DBB1D0E946858A5EC9C
:100EB000B7E0AD90BB24ADECB7E0AA0CBB1CAA0D0B
:100EC000BB1D0D911C91A5ECB7E0AD90BB24A4EE29
:100ED000B7E0AA0CBB1CAA0DBB1D4D915C910E94F2
:100EE0009558A5ECB7E0AD90BB24ADECB7E0AA0CEB
:100EF000BB1CAA0DBB1D0D931C93A5ECB7E0AD90D8
:100F0000BB24ADECB7E0AA0CBB1CAA0DBB1D0D9118
:100F10001C91003050E0150711F00C94A40780E0FC
:100F2000A5ECB7E0AD90BB24A3E1B8E0AA0DBB1DD2
:100F30008C938091C607A8EDB7E00E94175E0E94CF
:100F40000D5E9C91982B9C93A5ECB7E08C918F5FE4
:100F50008C9310F40C943D0600919F08003011F022
:100F60000C94BA0705990C94B80782E080939F0807
:100F70000C941208013011F00C94C607059B0C94D8
:100F8000C40783E080939F080C941208023011F08C
:100F90000C94D707059B0C94D20780E080939F08A0
:100FA0000C94D50781E080939F080C9412080330BD
:100FB00011F00C94120805990C94E30781E08093DA
:100FC0009F080C94120880E080939F08ACEAB8E078
:100FD0000E945B58ACEAB8E00D911D912D913C91B7
:100FE000A8EAB8E04D915D916D917C910E94025903
:100FF000A4EAB8E00D931D932D933D9340E050E09B
:1010000060E070E0A4EAB8E00D911D912D913C9153
:101010000E94AC5E11F00C941208709198087062F6
:10102000709398089F919BBF9F919FBFFF91EF91F5
:10103000DF91CF91BF91AF919F918F917F916F91F0
:101040005F914F913F912F911F910F91BF90AF9062
:101050007F905F904F903F902F901F900F9018952A
:101060002F98E2E2F5EC0E942C5E0E94BE580E948E
:10107000C558A0E0BFE1E2E4F5EC0E942C5E0E94BE
:10108000BD5D0E94B6580E94C558A0E0BFE1E6E5EC
:10109000F5EC0E942C5E0E94BD5D0E94B6580E9435
:1010A000C558A0E0BFE1EEE5F5EC0E942C5E0E9481
:1010B000BD5D0E94B6580E94C558E1E4F3E0ABED77
:1010C000B7E00E94BB5FE8E6F5EC0E942C5E0E9450
:1010D000BE58EBEDF7E0A0E0BFE10E94CF5E0E94BA
:1010E000B6580E94C558E1E0F0E0ACE8B3E094E007
:1010F0000E94BE5FE0E7F5EC0E942C5E0E94BE58A5
:10110000ECE8F3E0A0E0BFE10E94035C0E94B65867
:10111000E0E8F5EC0E942C5E0E94BE58ECE8F3E09B
:10112000A0E0BFE10E94FB5B0E94B6580E94C55838
:10113000ECE3F3E0ACE5B7E094E00E94BE5FE2E8E8
:10114000F5EC0E942C5E0E94BE58ECE5F7E0A0E0B2
:10115000BFE10E94C25E0E94B6580E94C558E0E4FA
:10116000F3E0A3ECB7E00E94BB5FEEE9F5EC0E9470
:101170002C5E0E94BE58E3ECF7E0A0E0BFE10E94C5
:10118000CF5E0E94B6580E94C55881E0809320022D
:1011900000912002043018F011F00C940D09E0E2E7
:1011A000F2E0A190BB24E5E0F0E0EA0DFB1DA0E237
:1011B000B2E0AD90BB24A1E9B3E0AA0DBB1D0E9433
:1011C000BB5FE4EBF5EC0E942C5E0E94BE58E0E2AF
:1011D000F2E0A0E0BFE10E94CF5E0E94B658E6ECCC
:1011E000F5EC0E942C5E0E94BE58D201E0E2F2E0D3
:1011F000A190BB24E1E9F3E0EA0DFB1D0E945C5FD6
:10120000D2010E94B8580E94C558A0E2B2E08C9169
:101210008F5F8C9310F40C94C808E8ECF5EC0E94F6
:101220002C5E0E94BE580E94C55881E08093240223
:1012300000912402043018F011F00C94C809E2ED7A
:10124000F5EC0E942C5E0E94BE58E4E2F2E0A0E0C1
:10125000BFE10E94CF5E0E94B6580E94C55881E04F
:101260008093250200912502003118F011F00C94B2
:10127000C009A895A4E2B2E00D91112701501040D9
:10128000A4E3B2E00D931C93A4E3B2E00D911C9192
:1012900040E150E00E94905DA4E3B2E00D931C9306
:1012A000A4E3B2E00D911C91A5E2B2E04D91552767
:1012B000040F151FA4E3B2E00D931C93E4E3F2E0E6
:1012C000A190B190E6E0F0E0AA0CBB1CAA0CBB1CFC
:1012D000EA0DFB1DA8E2B2E094E00E94BE5FA8E226
:1012E000B2E00D911D912D913C91A4E3B2E0AD903F
:1012F000BD90A3E9B3E0AA0CBB1CAA0CBB1CAA0DB1
:10130000BB1D0D931D932D933C93ABEDB7E00C915A
:1013100000FB16F00C94B809E8EDF5EC0E942C5E89
:101320000E94BE58E5E2F2E0A0E0BFE10E94CF5E7D
:101330000E94B658E6ECF5EC0E942C5E0E94BE5866
:10134000E8E2F2E0A0E0BFE10E94FB5B0E94B65839
:10135000EEEDF5EC0E942C5E0E94BE58E4E3F2E054
:10136000A0E0BFE10E94BF5E0E94B6580E94C5582F
:10137000A5E2B2E08C918F5F8C9310F40C9432094B
:10138000A4E2B2E08C918F5F8C9310F40C94180956
:10139000E2EEF5EC0E942C5E0E94BE580E94C558F9
:1013A00081E08093240200912402043018F011F0AF
:1013B0000C94B40AE2EDF5EC0E942C5E0E94BE583B
:1013C000E4E2F2E0A0E0BFE10E94CF5E0E94B658E6
:1013D0000E94C55881E080932502009125020031CA
:1013E00018F011F00C94AC0AEEEEF5EC0E942C5EB5
:1013F0000E94BE58E5E2F2E0A0E0BFE10E94CF5EAD
:101400000E94B6580E94C558A4E2B2E00D9111277F
:1014100001501040A4E3B2E00D931C93A4E3B2E0AA
:101420000D911C9140E250E00E94905DA4E3B2E077
:101430000D931C93A5E2B2E00D91112701501040CD
:10144000A6E3B2E00D931C93A6E3B2E00D911C91CC
:1014500048E050E00E94905DA6E3B2E00D931C933B
:10146000A4E3B2E00D911C91A6E3B2E04D915C9132
:10147000040F151FA4E3B2E00D931C9381E0809349
:10148000270200912702083018F011F00C94A40AEA
:10149000A8950091340240912702040FA0E9B3E01F
:1014A0000C93E0E9F3E0A190BB24EBE0F1E0EA0D5E
:1014B000FB1DA0E9B3E0AD90BB24AAE9B4E0AA0DFE
:1014C000BB1D0E94BB5FABEDB7E00C9100FB16F0BB
:1014D0000C949C0AE8EFF5EC0E942C5E0E94BE582A
:1014E000E7E2F2E0A0E0BFE10E94CF5E0E94B658C2
:1014F000E6ECF5EC0E942C5E0E94BE58D201E0E9B9
:10150000F3E0A190BB24EAE9F4E0EA0DFB1D0E94A0
:101510005C5FD2010E94B858EEEFF5EC0E942C5EA1
:101520000E94BE58E0E9F3E0A0E0BFE10E94CF5E78
:101530000E94B6580E94C558A7E2B2E08C918F5F16
:101540008C9310F40C94410AA5E2B2E08C918F5F69
:101550008C9310F40C94ED09A4E2B2E08C918F5FAF
:101560008C9310F40C94D309EAE0F1E0A7E9B4E01D
:101570000E94BD5FE2E0F6EC0E942C5E0E94BE5825
:10158000E7E9F4E0A0E0BFE10E94BF5E0E94B65828
:101590000E94C558E9E7F3E0ABE9B8E00E94BD5FFF
:1015A000E0E1F6EC0E942C5E0E94BE58EBE9F8E008
:1015B000A0E0BFE10E94BF5E0E94B6580E94C558DD
:1015C0000E945319E0E2F6EC0E942C5E0E94BE5885
:1015D000AEE5B3E00E94B858E8E2F6EC0E942C5E5B
:1015E0000E94BE580E94C55883E680939C06E5E0A1
:1015F000F0E0A1E9B3E00E94BB5FEAE2F6EC0E94F2
:101600002C5E0E94BE58E1E9F3E0A0E0BFE10E9439
:10161000CF5E0E94B6580E94C558009191030030D9
:1016200018F011F00C94160B0C942D0B00919103F3
:10163000053010F00C94200B0E94920F0C942B0B91
:1016400080E080939103E8E3F6EC0E942C5E0E9418
:10165000BE580E94C5580C94350BE8E4F6EC0E9485
:101660002C5E0E94BE580E94C55881E080932002E3
:1016700000912002053018F011F00C94CB0BE0E241
:10168000F2E0A190BB24E8E0F3E0AA0CBB1CAA0C9A
:10169000BB1CEA0DFB1DA0E2B2E0AD90BB24A8EE9E
:1016A000B6E0AA0CBB1CAA0CBB1CAA0DBB1D94E087
:1016B0000E94BE5FE0E2F2E0A190BB24ECE1F3E027
:1016C000AA0CBB1CAA0CBB1CEA0DFB1DA0E2B2E0DD
:1016D000AD90BB24ACEFB6E0AA0CBB1CAA0CBB1CA3
:1016E000AA0DBB1D94E00E94BE5FECE5F6EC0E94E3
:1016F0002C5E0E94BE58E0E2F2E0A0E0BFE10E9452
:10170000CF5E0E94B658E6ECF5EC0E942C5E0E947B
:10171000BE58E0E2F2E0A190BB24E8EEF6E0AA0CAD
:10172000BB1CAA0CBB1CEA0DFB1DA0E0BFE10E9484
:10173000C25E0E94B658E0E6F6EC0E942C5E0E9463
:10174000BE58E0E2F2E0A0E0BFE10E94CF5E0E945E
:10175000B658E6ECF5EC0E942C5E0E94BE58E0E222
:10176000F2E0A190BB24ECEFF6E0AA0CBB1CAA0CA3
:10177000BB1CEA0DFB1DA0E0BFE10E94C25E0E94FF
:10178000B6580E94C558A0E2B2E08C918F5F8C934E
:1017900010F40C94380BE2E4F3E0ACEDB7E00E94F7
:1017A000BD5FACEDB7E00E946858E6E6F6EC0E943B
:1017B0002C5E0E94BE58ECEDF7E0A0E0BFE10E9475
:1017C000BF5E0E94B6580E94C558E2E4F3E0ACED5B
:1017D000B7E07BE70E94A15FE6E4F3E0A4EEB7E0A8
:1017E0000E94BB5FE0E7F6EC0E942C5E0E94BE58B0
:1017F000D201E4EEF7E00E945C5FD2010E94B8588B
:101800000E94C55881E0809320020091200204309C
:1018100018F011F00C94E20CA895E0E2F2E00191CE
:10182000112747E050E00E94905DE1E5F3E0E00F12
:10183000F11FA0E2B2E00D91112747E050E00E94B5
:10184000905DA0EFB7E0A00FB11F96E00E94C55FCA
:10185000E2E9F6EC0E942C5E0E94BE58E0E2F2E063
:10186000A0E0BFE10E94CF5E0E94B658E6ECF5EC26
:101870000E942C5E0E94BE58A0E2B2E00D9111279A
:1018800047E050E00E94905DA0EFB7E0A00FB11FCD
:101890000E94B8580E94C558E0E2F2E0A190BB2433
:1018A000E5E4F3E0AA0CBB1CEA0DFB1DA0E2B2E0EC
:1018B000AD90BB24A4EEB7E0AA0CBB1CAA0DBB1DC7
:1018C0000E94BD5FEAE9F6EC0E942C5E0E94BE58C1
:1018D000E0E2F2E0A0E0BFE10E94CF5E0E94B658D5
:1018E000E6ECF5EC0E942C5E0E94BE58E0E2F2E0CD
:1018F000A190BB24E4EEF7E0AA0CBB1CEA0DFB1D93
:10190000A0E0BFE10E94BF5E0E94B658E6EAF6EC96
:101910000E942C5E0E94BE580E94C558E0E2F2E090
:10192000A190BB24EDE4F3E0AA0CBB1CEA0DFB1D67
:10193000A0E2B2E0AD90BB24ACEEB7E0AA0CBB1CB9
:10194000AA0DBB1D0E94BD5FEEEAF6EC0E942C5E64
:101950000E94BE58E0E2F2E0A0E0BFE10E94CF5E4C
:101960000E94B658E6ECF5EC0E942C5E0E94BE5830
:10197000E0E2F2E0A190BB24ECEEF7E0AA0CBB1C85
:10198000EA0DFB1DA0E0BFE10E94BF5E0E94B658B9
:10199000E6EAF6EC0E942C5E0E94BE580E94C558F2
:1019A00085E0A0E2B2E0AD90BB24A7E1B8E0AA0DCB
:1019B000BB1D8C93A0E2B2E08C918F5F8C9310F4EE
:1019C0000C94050CE7E5F3E0A6EFB7E00E94BB5FDF
:1019D000EAEBF6EC0E942C5E0E94BE58D201E6EFC4
:1019E000F7E00E945C5FD2010E94B8580E94C5587F
:1019F000E4E7F3E0ACE1B8E00E94BB5FE2ECF6ECB8
:101A00000E942C5E0E94BE58D201ECE1F8E00E94D8
:101A10005C5FD2010E94B8580E94C5588FEF809336
:101A20001C08E2ECF6EC0E942C5E0E94BE58D2012B
:101A3000ECE1F8E00E945C5FD2010E94B8580E947D
:101A4000C558E5E7F3E0A0E9B8E00E94BD5FEAEC25
:101A5000F6EC0E942C5E0E94BE58E0E9F8E0A0E09F
:101A6000BFE10E94BF5E0E94B6580E94C558E7E7DA
:101A7000F3E0A2E9B8E00E94BD5FE6EDF6EC0E945B
:101A80002C5E0E94BE58E2E9F8E0A0E0BFE10E94AF
:101A9000BF5E0E94B6580E94C558EBE7F3E0ADE97F
:101AA000B8E00E94BB5FE2EEF6EC0E942C5E0E9462
:101AB000BE58EDE9F8E0A0E0BFE10E94CF5E0E94D1
:101AC000B6580E94C558ECE7F3E0AEE9B8E00E94D2
:101AD000BB5FEEEEF6EC0E942C5E0E94BE58EEE973
:101AE000F8E0A0E0BFE10E94CF5E0E94B6580E94DD
:101AF000C55883E680938F08EDE7F3E0ACEAB8E0E1
:101B000094E00E94BE5FEEEFF6EC0E942C5E0E9415
:101B1000BE58ECEAF8E0A0E0BFE10E94C25E0E947D
:101B2000B6580E94C558A0EBB8E0E1E8F3E094E0B5
:101B30000E94BE5FE6E0F7EC0E942C5E0E94BE5859
:101B4000E0EBF8E0A0E0BFE10E9451600E948759FD
:101B50000E94B6580E94C558E0EBF8E00E9456601B
:101B6000ECEAF8E00E9451600E9485600E941661D4
:101B7000EDE0F0E0A0EAB8E00E94835FE0E1F7EC7E
:101B80000E942C5E0E94BE58E0EAF8E0A0E0BFE1AF
:101B90000E9451600E9487590E94B6580E94C55801
:101BA000E5E8F3E0A8EAB8E094E00E94BE5FE8E16F
:101BB000F7EC0E942C5E0E94BE58E8EAF8E0A0E034
:101BC000BFE10E94C25E0E94B6580E94C558E9E873
:101BD000F3E0A4EBB8E00E94BB5FE0E2F7EC0E9408
:101BE0002C5E0E94BE58D201E4EBF8E00E945C5FDC
:101BF000D2010E94B8580E94C558EAE8F3E0A5EB6C
:101C0000B8E00E94BD5FECE2F7EC0E942C5E0E94FF
:101C1000BE58E5EBF8E0A0E0BFE10E94BF5E0E9485
:101C2000B6580E94C5580895E6E3F7EC0E942C5E72
:101C30000E94BE580E94C558EEE8F3E0A0E2B2E070
:101C40000E94BB5FE0E5F7EC0E942C5E0E94BE584C
:101C5000E0E2F2E0A0E0BFE10E94CF5E0E94B65851
:101C60000E94C55808E040912002041BA1E2B2E0A6
:101C70000C9300912102003080E010F009F081E027
:101C80008F9300912002093081E008F080E09F915D
:101C90008923882311F40C94890FEDE8F3E0A9EE71
:101CA000B6E00E94BB5FEEE5F7EC0E942C5E0E945E
:101CB000BE58E9EEF6E0A0E0BFE10E94CF5E0E94D0
:101CC000B6580E94C5580091E90641E0040FA0E211
:101CD000B2E00C938091910380932402A4E2B2E0DD
:101CE0000D91112701501040A4E3B2E00D931C9315
:101CF000A4E3B2E00D911C9140E150E00E94905DA0
:101D0000A4E3B2E00D931C93A4E3B2E00D911C9107
:101D1000A0E2B2E04D915527040F151FA4E3B2E0F5
:101D20000D931C93A4E3B2E0AD90BD90A3E9B3E0A2
:101D3000AA0CBB1CAA0CBB1CAA0DBB1D0D911D91AE
:101D40002D913C91A8E2B2E00D931D932D933C930D
:101D5000E2E7F7EC0E942C5E0E94BE58E8E2F2E057
:101D6000A0E0BFE10E94FB5B0E94B658E0E8F5EC02
:101D70000E942C5E0E94BE58E8E2F2E0A0E0BFE1C3
:101D80000E94C25E0E94B6580E94C558E2E0F2E08E
:101D90000E94C25BACE2B2E00D931D932D933D9384
:101DA000ECE2F2E00E948C5BA0E3B2E00D931D93A5
:101DB0002D933D93E0E3F2E0A8E2B3E00E94FB5BE9
:101DC000E8E8F7EC0E942C5E0E94BE58A8E2B3E05F
:101DD0000E94B858E0E8F5EC0E942C5E0E94BE58C4
:101DE000E0E3F2E0A0E0BFE10E94C25E0E94B658CC
:101DF0000E94C558A7E9B4E00D911C91ABE9B8E089
:101E00004D915C91040F151FA4E3B2E00D931C9358
:101E1000A1E2B2E00C91112722273327A4E3B2E01C
:101E20004D915C91662777270E949A5DACE2B2E003
:101E30000D931D932D933D93ECE2F2E0A8E2B3E005
:101E40000E94FB5BE6E9F7EC0E942C5E0E94BE5804
:101E5000A8E2B3E00E94B858E0E8F5EC0E942C5EDE
:101E60000E94BE58ECE2F2E0A0E0BFE10E94C25E38
:101E70000E94B6580E94C558A0E3B2E00D911D9192
:101E80002D913C91ACE2B2E04D915D916D917C91D0
:101E90000E94A25EA0E3B2E00D931D932D933D93AB
:101EA000A8E2B2E04D915D916D917C91A0E3B2E02A
:101EB0000D911D912D913C910E94AC5E0CF402C0DD
:101EC0000C947F0F70919D06706170939D06EEE8F3
:101ED000F3E0AAEEB6E00E94BB5FE8EAF7EC0E94EE
:101EE0002C5E0E94BE58EAEEF6E0A0E0BFE10E9440
:101EF000CF5E0E94B6580E94C5580C94870FECEC38
:101F0000F7EC0E942C5E0E94BE580E94C5580C94AB
:101F1000910FEEEEF7EC0E942C5E0E94BE580E94DC
:101F2000C55808958091910380932402E2EDF5EC69
:101F30000E942C5E0E94BE58E4E2F2E0A0E0BFE105
:101F40000E94CF5E0E94B6580E94C558A4E2B2E03B
:101F5000AD90BB24A1E9B3E0AA0DBB1D8C91809389
:101F60009603E0E0F8EC0E942C5E0E94BE58D2017D
:101F7000E6E9F3E00E945C5FD2010E94B8580E943B
:101F8000C55881E08093250200912502003118F0A8
:101F900011F00C945010A895A4E2B2E00D91112715
:101FA00001501040A4E3B2E00D931C93A4E3B2E00F
:101FB0000D911C9140E150E00E94905DA4E3B2E0DD
:101FC0000D931C93A4E3B2E00D911C91A5E2B2E045
:101FD0004D915527040F151FA4E3B2E00D931C93F8
:101FE000A4E3B2E0AD90BD90A3E9B3E0AA0CBB1CA2
:101FF000AA0CBB1CAA0DBB1D0D911D912D913C91EE
:10200000A8E2B2E00D931D932D933C93A8E2B2E0B9
:102010000D911D912D913C91A5E2B2E0AD90BB24B4
:10202000AAE9B6E0AA0CBB1CAA0CBB1CAA0DBB1DDE
:102030000D931D932D933C93EEE0F8EC0E942C5EE3
:102040000E94BE58E5E2F2E0A0E0BFE10E94CF5E50
:102050000E94B658E6ECF5EC0E942C5E0E94BE5839
:10206000E8E2F2E0A0E0BFE10E94FB5B0E94B6580C
:10207000EEEDF5EC0E942C5E0E94BE58E4E3F2E027
:10208000A0E0BFE10E94BF5E0E94B6580E94C55802
:10209000A5E2B2E08C918F5F8C9310F40C94C40F86
:1020A000089582E00E94885D82E00E94885D81E060
:1020B0000E94885DAA85BB850D91112701501040B3
:1020C000AC81BD810D931C93AC81BD810D911C91A0
:1020D00040E250E00E94905DAC81BD810D931C9365
:1020E000A885B9850D91112701501040AA81BB81A7
:1020F0000D931C93AA81BB810D911C9148E050E087
:102100000E94905DAA81BB810D931C93AC81BD811F
:102110000D911C91AA81BB814D915C91040F151FFB
:10212000AC81BD810D931C93AC81BD810D911C913F
:10213000AE81BF814D915527040F151FAC81BD8124
:102140000D931C93AC81BD810D911C910F5F1F4FAE
:10215000AC81BD810D931C93AC81BD81AD90BD90D0
:10216000AAE9B4E0AA0DBB1D8C91A881B9818C931A
:10217000A881B9810C91003011F00C94C3104698DD
:1021800047980C94C510469A479AECE1F8EC0E94E7
:102190002C5E0E94BE58EE81FF81A0E0BFE10E944C
:1021A000CF5E0E94B658E6ECF5EC0E942C5E0E94D1
:1021B000BE58D201E881F9810E945C5FD2010E9481
:1021C000B858E0E8F5EC0E942C5E0E94BE58EC8105
:1021D000FD81A0E0BFE10E94BF5E0E94B6580E9450
:1021E000C558A881B9818C9180FBA8E2B0E08C91A0
:1021F00080F98C93A881B9818C9181FBA8E2B0E031
:102200008C9181F98C93A881B9818C9182FBA8E291
:10221000B0E08C9182F98C93A881B9818C9183FB79
:10222000A8E2B0E08C9183F98C93A881B9818C915C
:1022300084FBA8E2B0E08C9184F98C93A881B981E9
:102240008C9185FBA8E2B0E08C9185F98C9385E0B8
:10225000481A80E0580A2696089540984198429876
:102260004398449845980895409A419A429A439ACF
:10227000449A459A0895A4EBB8E08C9180FBA8E2BB
:10228000B0E08C9180F98C93A4EBB8E08C9181FB49
:10229000A8E2B0E08C9181F98C93A4EBB8E08C912A
:1022A00082FBA8E2B0E08C9182F98C93A4EBB8E0B9
:1022B0008C9183FBA8E2B0E08C9183F98C93A4EB22
:1022C000B8E08C9184FBA8E2B0E08C9184F98C9307
:1022D000A4EBB8E08C9185FBA8E2B0E08C9185F985
:1022E0008C9308950E94745AE8E0F2E0A8E2B3E00B
:1022F0000E947E5FA8E2B3E00E94AF58E0E2F8ECF3
:102300000E942C5E0E94BD5D0E94745AE1E1F2E0E1
:10231000A8E2B3E00E94AF580E947E5FA8E2B3E05B
:102320000E94AF58E0E2F8EC0E942C5E0E94BD5D76
:1023300081E080931F0281E080931E0288278093B2
:102340001D02A8E2B3E00E94EA58A8E2B3E0E2E28C
:10235000F8EC0E942C5E0E94BD5DE6E1F8E0A8E288
:10236000B3E00E94AF580E94CF5E00274427A0E24E
:10237000B0E08C9181FB00F9A6EFB7E08C9181FB76
:1023800040F9042700FBA0E4B2E08C9187F98C931C
:10239000A8E2B3E00E94AF58E6E2F8EC0E942C5E9F
:1023A0000E94BD5DA0E4B2E08C9187FBA8E2B3E09F
:1023B0000E94AF580E941D5E8D9388278C93002742
:1023C0004427A0E2B0E08C9180FB00F9A6EFB7E0D3
:1023D0008C9180FB40F9042700FBA0E4B2E08C91D3
:1023E00087F98C93A8E2B3E00E94AF58ECE2F8ECD6
:1023F0000E942C5E0E94BD5DA0E4B2E08C9187FB40
:10240000A8E2B3E00E94AF580E941D5E8D9388271A
:102410008C93A8E2B3E00E94AF58E2E3F8EC0E948C
:102420002C5E0E94BD5D83E080931F0281E080935B
:102430001E02882780931D02A8E2B3E00E94EA589A
:10244000A8E2B3E0E6E3F8EC0E942C5E0E94BD5DDA
:10245000E0E7F7E0A8E2B3E00E94AF580E947E5F99
:10246000A8E2B3E00E94AF58EAE3F8EC0E942C5EC9
:102470000E94BD5DE5E6F7E0A8E2B3E00E94AF5838
:102480000E947E5FA8E2B3E00E94AF58E2E3F8EC5E
:102490000E942C5E0E94BD5D85E080931F0281E05A
:1024A00080931E02882780931D02A8E2B3E00E9459
:1024B000EA58A2E4B2E08C918F5F8C93A2E4B2E080
:1024C0000C9100FB16F00C948713A1E4B2E08C9100
:1024D0008F5F8C93A8E2B3E088278C93A1E4B2E0ED
:1024E0000C9141E10E94D25F8C9300914102003037
:1024F00011F00C943813A8E2B3E0EEE3F8EC0E947C
:102500002C5E0E94BD5DE1E9F3E0A8E2B3E00E9429
:10251000AF580E94CF5EA8E2B3E00E94AF58E0E45B
:10252000F8EC0E942C5E0E94BD5DA6E9B3E08C91A0
:1025300080FBA8E2B3E00E94AF580E941D5E8D931D
:1025400088278C93A8E2B3E00E94AF58E4E4F8EC4B
:102550000E942C5E0E94BD5DA6E9B3E08C9181FBD8
:10256000A8E2B3E00E94AF580E941D5E8D938827B9
:102570008C93A8E2B3E00E94AF58E4E4F8EC0E9428
:102580002C5E0E94BD5DA6E9B3E08C9182FBA8E2BF
:10259000B3E00E94AF580E941D5E8D9388278C93F4
:1025A000A8E2B3E00E94AF58E6E4F8EC0E942C5E8B
:1025B0000E94BD5DA6E9B3E08C9183FBA8E2B3E085
:1025C0000E94AF580E941D5E8D9388278C93A8E2CD
:1025D000B3E00E94AF58E8E4F8EC0E942C5E0E9441
:1025E000BD5DA6E9B3E08C9184FBA8E2B3E00E9454
:1025F000AF580E941D5E8D9388278C93A8E2B3E0AC
:102600000E94AF58EAE4F8EC0E942C5E0E94BD5D87
:10261000A6E9B3E08C9185FBA8E2B3E00E94AF5835
:102620000E941D5E8D9388278C93A8E2B3E00E94E0
:10263000AF58ECE4F8EC0E942C5E0E94BD5DA6E968
:10264000B3E08C9186FBA8E2B3E00E94AF580E94F1
:102650001D5E8D9388278C93A8E2B3E00E94AF584B
:10266000E0E2F8EC0E942C5E0E94BD5D0C947A13AF
:10267000A1E4B2E0AD90BB24AAE9B6E0AA0CBB1C71
:10268000AA0CBB1CAA0DBB1D0D911D912D913C9157
:10269000A8E2B2E00D931D932D933C93A8E2B3E022
:1026A000EEE4F8EC0E942C5E0E94BD5DE1E4F2E0F5
:1026B000A8E2B3E00E94AF580E94CF5EA8E2B3E068
:1026C0000E94AF58E6ECF5EC0E942C5E0E94BD5DC6
:1026D000E8E2F2E0A8E2B3E00E94AF580E94FB5BA0
:1026E000A8E2B3E00E94AF58E2E5F8EC0E942C5E4D
:1026F0000E94BD5D87E080931F0281E080931E02EF
:10270000882780931D02A8E2B3E00E94EA5808954A
:10271000E5E0F0E0A0E1BB2781E08C937BE70E943D
:102720009F5FEAE0F1E00CE310E0A0E1BB277BE76C
:102730000E94A15FE9E7F3E004E813E0A0E1BB2712
:102740007BE70E94A15F80E080932102EDE7F3E048
:1027500000E010E020E030E0A0E1BB2794E07BE760
:102760000E94A25FA0EBB8E0E2E1F5EC0E942C5ED3
:102770000E94D15DE1E8F3E0A0EBB8E094E07BE7F4
:102780000E94A25FE5E8F3E001E010E020E030E025
:10279000A0E1BB2794E07BE70E94A25F81E08093E9
:1027A000200200912002043018F011F00C947D14E6
:1027B000A895E0E2F2E0A190BB24E5E0F0E0EA0DAC
:1027C000FB1DA0E1BB278FE78C937BE70E949F5FF7
:1027D000A8E2B3E0E8E5F8EC0E942C5E0E94BD5D43
:1027E000E8E2F3E00E94965BA8E2B2E00D931D934D
:1027F0002D933D93E2E6F8EC0E942C5E0E94BE58B9
:10280000E0E2F2E0A0E0BFE10E94CF5E0E94B65895
:10281000E8E6F8EC0E942C5E0E94BE58E8E2F2E086
:10282000A0E0BFE10E94C25E0E94B6580E94C55857
:1028300081E08093220200912202003118F011F011
:102840000C947514A1E2B2E08C918F5F8C93A8E296
:10285000B2E00D911D912D913C91A1E2B2E0AD90BD
:10286000BB24A3E9B3E0AA0CBB1CAA0CBB1CAA0D99
:10287000BB1D0D931D932D933C93EEE4F8EC0E9449
:102880002C5E0E94BE58E1E2F2E0A0E0BFE10E94AF
:10289000CF5E0E94B658E6ECF5EC0E942C5E0E94DA
:1028A000BE58E8E2F2E0A0E0BFE10E94FB5B0E94BC
:1028B000B6580E94C558A8E2B2E00D911D912D9125
:1028C0003C9140E15EE060E070E00E94A25EA8E220
:1028D000B2E00D931D932D933D93A2E2B2E08C9153
:1028E0008F5F8C9310F40C941B14A0E2B2E08C91D7
:1028F0008F5F8C9310F40C94D11381E080932502A8
:1029000000912502003418F011F00C94AB14E5E2AC
:10291000F2E0A190BB24E6E0F0E0AA0CBB1CAA0CFC
:10292000BB1CEA0DFB1DA5E2B2E0AD90BB24A3E900
:10293000B3E0AA0CBB1CAA0CBB1CAA0DBB1D94E0E7
:102940007BE70E94A25FA5E2B2E08C918F5F8C933F
:1029500010F40C94801481E08093240200912402EE
:10296000043018F011F00C949A15E2EDF5EC0E9489
:102970002C5E0E94BE58E4E2F2E0A0E0BFE10E94BB
:10298000CF5E0E94B6580E94C55881E08093250210
:1029900000912502003118F011F00C949215EEEE22
:1029A000F5EC0E942C5E0E94BE58E5E2F2E0A0E049
:1029B000BFE10E94CF5E0E94B6580E94C558A4E2B3
:1029C000B2E00D91112701501040A4E3B2E00D9345
:1029D0001C93A4E3B2E00D911C9140E250E00E94F0
:1029E000905DA4E3B2E00D931C93A5E2B2E00D91DB
:1029F000112701501040A6E3B2E00D931C93A6E30B
:102A0000B2E00D911C9148E050E00E94905DA6E379
:102A1000B2E00D931C93A4E3B2E00D911C91A6E3E8
:102A2000B2E04D915C91040F151FA4E3B2E00D9349
:102A30001C9381E08093270200912702083018F050
:102A400011F00C948A15A895009134024091270248
:102A5000040FA0E9B3E00C93E6EBFFE80E942C5EC4
:102A6000A7E2B2E08C919927A0E2B2E00E94DF5D7C
:102A700080912002A0E9B3E0AD90BB24AAE9B4E0C4
:102A8000AA0DBB1D8C93E0E9F3E0A190BB24EBE021
:102A9000F1E0EA0DFB1DA0E2B2E07BE70E949F5F40
:102AA000E8EFF5EC0E942C5E0E94BE58E7E2F2E0EF
:102AB000A0E0BFE10E94CF5E0E94B658E6ECF5ECC4
:102AC0000E942C5E0E94BE58D201E0E9F3E0A19082
:102AD000BB24EAE9F4E0EA0DFB1D0E945C5FD20131
:102AE0000E94B858EEEFF5EC0E942C5E0E94BE5892
:102AF000E0E9F3E0A0E0BFE10E94CF5E0E94B6589B
:102B00000E94C558A7E2B2E08C918F5F8C9310F4BD
:102B10000C941C15A5E2B2E08C918F5F8C9310F49D
:102B20000C94C814A4E2B2E08C918F5F8C9310F4E3
:102B30000C94AE14E1E4F3E0A0E1BB2780E08C93B9
:102B40007BE70E949F5F80E08093200281E080937A
:102B5000240200912402053018F011F00C941D1687
:102B60000CE211E020E030E0A4E2B2E0AD90BB2442
:102B7000A8EEB6E0AA0CBB1CAA0CBB1CAA0DBB1D80
:102B80000D931D932D933C93E4E2F2E0A190BB24BE
:102B9000E8E0F3E0AA0CBB1CAA0CBB1CEA0DFB1D71
:102BA000A4E2B2E0AD90BB24A8EEB6E0AA0CBB1C38
:102BB000AA0CBB1CAA0DBB1D94E07BE70E94A25F80
:102BC000A0E2B2E08C91A4E2B2E0AD90BB24ACEF05
:102BD000B6E0AA0CBB1CAA0CBB1CAA0DBB1D8D9396
:102BE00088278D938D938C93E4E2F2E0A190BB242F
:102BF000ECE1F3E0AA0CBB1CAA0CBB1CEA0DFB1D0C
:102C0000A4E2B2E0AD90BB24ACEFB6E0AA0CBB1CD2
:102C1000AA0CBB1CAA0DBB1D94E07BE70E94A25F1F
:102C2000A0E2B2E08C91845C8C93A4E2B2E08C913F
:102C30008F5F8C9310F40C94A91581E0809324028B
:102C400000912402043018F011F00C947216A8E2DE
:102C5000B3E0E0E7F8EC0E942C5E0E94BD5DE4E288
:102C6000F2E0A8E2B3E00E94AF580E94CF5EE4E237
:102C7000F2E00191112747E050E00E94905DE1E50C
:102C8000F3E0E00FF11FA8E2B3E07BE70E94B05F42
:102C9000E4E2F2E0A190BB24E5E4F3E0AA0CBB1C63
:102CA000EA0DFB1D0AE010E0A0E1BB277BE70E94D4
:102CB000A15FE4E2F2E0A190BB24EDE4F3E0AA0C12
:102CC000BB1CEA0DFB1D0AE010E0A0E1BB277BE77F
:102CD0000E94A15FA4E2B2E08C918F5F8C9310F40C
:102CE0000C942016E7E5F3E0A0E1BB278FE08C937E
:102CF0007BE70E949F5FE4E7F3E0A0E1BB278FE062
:102D00008C937BE70E949F5FE5E7F3E00CE310E024
:102D1000A0E1BB277BE70E94A15FE7E7F3E008E0C3
:102D200017E0A0E1BB277BE70E94A15FECE3F3E0A3
:102D300000E11EE020E030E0A0E1BB2794E07BE76B
:102D40000E94A25FE0E4F3E0A0E1BB278CE38C9358
:102D50007BE70E949F5FECE7F3E0A0E1BB2780E008
:102D60008C937BE70E949F5FE4E4F3E000E010E0D7
:102D7000A0E1BB277BE70E94A15FEBE7F3E0A0E1C6
:102D8000BB2784E18C937BE70E949F5FE9E8F3E037
:102D9000A0E1BB278FE38C937BE70E949F5FEAE86B
:102DA000F3E000E010E0A0E1BB277BE70E94A15F19
:102DB000ECE8F3E0A0E1BB2780E08C937BE70E9486
:102DC0009F5FEDE8F3E0A0E1BB2780E08C937BE719
:102DD0000E949F5F0895E5E0F0E0A0E1BB2781E05D
:102DE0008C937BE70E949F5FE7E5F3E0A0E1BB27C0
:102DF0008DE08C937BE70E949F5FEAE0F1E00CE3BB
:102E000010E0A0E1BB277BE70E94A15FE9E7F3E0C8
:102E100004E813E0A0E1BB277BE70E94A15FA8E2E2
:102E2000B3E0E4E7F8EC0E942C5E0E94BD5DE8E2AE
:102E3000F3E00E94965BA8E2B2E00D931D932D9300
:102E40003D93EAE0F0E0A8E2B2E094E07BE70E9484
:102E5000A25FA8E2B3E0EEE7F8EC0E942C5E0E94CD
:102E6000BD5DE8E2F3E00E94965BA8E2B2E00D935C
:102E70001D932D933D93EEE0F0E0A8E2B2E094E0E4
:102E80007BE70E94A25FA8E2B3E0E8E8F8EC0E94CA
:102E90002C5E0E94BD5DE8E2F3E00E94965BA8E232
:102EA000B2E00D931D932D933D93E2E1F0E0A8E293
:102EB000B2E094E07BE70E94A25FA8E2B3E0E2E91F
:102EC000F8EC0E942C5E0E94BD5DE8E2F3E00E94F7
:102ED000965BA8E2B2E00D931D932D933D93E6E13E
:102EE000F0E0A8E2B2E094E07BE70E94A25FA8E2F3
:102EF000B3E0ECE9F8EC0E942C5E0E94BD5DE8E2D4
:102F0000F3E00E94965BA8E2B2E00D931D932D932F
:102F10003D93EAE1F0E0A8E2B2E094E07BE70E94B2
:102F2000A25FA8E2B3E0E6EAF8EC0E942C5E0E9401
:102F3000BD5DE8E2F3E00E94965BA8E2B2E00D938B
:102F40001D932D933D93EEE1F0E0A8E2B2E094E012
:102F50007BE70E94A25FA8E2B3E0E0EBF8EC0E94FE
:102F60002C5E0E94BD5DE8E2F3E00E94965BA8E261
:102F7000B2E00D931D932D933D93E2E2F0E0A8E2C1
:102F8000B2E094E07BE70E94A25FA8E2B3E0E4E74E
:102F9000F8EC0E942C5E0E94BD5DE8E2F3E00E9426
:102FA000965BA8E2B2E00D931D932D933D93E6E26C
:102FB000F0E0A8E2B2E094E07BE70E94A25FEAE2E0
:102FC000F0E0A8E2B2E094E07BE70E94A25FEEE2CC
:102FD000F0E0A8E2B2E094E07BE70E94A25FE2E3C7
:102FE000F0E0A8E2B2E094E07BE70E94A25FE6E3B3
:102FF000F0E0A8E2B2E094E07BE70E94A25FEAE39F
:10300000F0E0A8E2B2E094E07BE70E94A25FEEE38A
:10301000F0E0A8E2B2E094E07BE70E94A25FE2E485
:10302000F0E0A8E2B2E094E07BE70E94A25FE6E471
:10303000F0E0A8E2B2E094E07BE70E94A25F81E0CA
:103040008093240281E080932502009125020031C3
:1030500018F011F00C94EE18EEEEF5EC0E942C5ED8
:103060000E94BE58E5E2F2E0A0E0BFE10E94CF5E20
:103070000E94B6580E94C558A4E2B2E00D911127F3
:1030800001501040A4E3B2E00D931C93A4E3B2E01E
:103090000D911C9140E250E00E94905DA4E3B2E0EB
:1030A0000D931C93A5E2B2E00D9111270150104041
:1030B000A6E3B2E00D931C93A6E3B2E00D911C9140
:1030C00048E050E00E94905DA6E3B2E00D931C93AF
:1030D000A4E3B2E00D911C91A6E3B2E04D915C91A6
:1030E000040F151FA4E3B2E00D931C9381E08093BD
:1030F000270200912702083018F011F00C94E6180E
:103100000091340240912702040FA0E9B3E00C9330
:10311000E0ECFFE80E942C5EA7E2B2E08C919927D8
:10312000A0E2B2E00E94DF5D80912002A0E9B3E05E
:10313000AD90BB24AAE9B4E0AA0DBB1D8C93E0E9D5
:10314000F3E0A190BB24EBE0F1E0EA0DFB1DA0E26F
:10315000B2E07BE70E949F5FE8EFF5EC0E942C5EF7
:103160000E94BE58E7E2F2E0A0E0BFE10E94CF5E1D
:103170000E94B658E6ECF5EC0E942C5E0E94BE5808
:10318000D201E0E9F3E0A190BB24EAE9F4E0EA0D22
:10319000FB1D0E945C5FD2010E94B858EEEFF5EC77
:1031A0000E942C5E0E94BE58E0E9F3E0A0E0BFE17F
:1031B0000E94CF5E0E94B6580E94C558A7E2B2E0B6
:1031C0008C918F5F8C9310F40C947918A5E2B2E087
:1031D0008C918F5F8C9310F40C9425180895EAEB72
:1031E000F8EC0E942C5E0E94BE580E94C558E0E098
:1031F000F0E0ADE5B3E00E94BB5F80E08093210288
:10320000A8E9B8E08C9181FB16F00C941A19709122
:1032100098087D7F70939808E4EDF8EC0E942C5E8E
:103220000E94BE58A1E9BBE00E94B8580E94C55850
:103230000E94E8190091AE07013011F00C94441976
:103240007091AE077E7F7093AE07A0E2B2E08C91E2
:103250008F5F8C93A1E2B2E08C918F5F8C93A0E2A0
:10326000B2E00C914AE00E94D25F8C930091200260
:10327000003011F00C944419EAEDF8EC0E942C5E39
:103280000E94BE580E94C55800915D03013011F0A4
:103290000C940019ECEFF8EC0E942C5E0E94BE58D2
:1032A0000E94C558089580E08093200280E08093BA
:1032B0002102AEE5B3E088278C938EE08093200254
:1032C00000912002073118F011F00C947E19A0E251
:1032D000B2E0EC91FF270E94775D082FE0E1F0E07B
:1032E000AEE5B3E00E94AF580E94435FA0E2B2E0B7
:1032F0008C918F5F8C9310F40C946019EEE5F3E0E1
:10330000ADE4B2E00E947E5FAEE5B3E088278C9327
:103310008EE08093200200912002073118F011F016
:103320000C94A919A0E2B2E0EC91FF270E94775D0E
:10333000082FE0E1F0E0AEE5B3E00E94AF580E9454
:10334000435FA0E2B2E08C918F5F8C9310F40C94F9
:103350008B19EDE4F2E0AEE5B3E00E94EA5F11F014
:103360000C94B51981E080932002A1E2B2E08C9127
:103370008F5F8C9300912002003011F00C94D419CF
:1033800084EF91E00E947859E0E1F9EC0E942C5E14
:103390000E94BE58E1E2F2E0A0E0BFE10E94CF5EF1
:1033A0000E94B6580E94C55800912002013081E069
:1033B00009F080E08F93009121020A3081E009F04A
:1033C00080E09F91892B882311F40C94591908955A
:1033D000E6E1F9EC0E942C5E0E94BE58A1E9BBE038
:1033E0000E94B8580E94C558A89581E0E1E9FBE029
:1033F00006E00A93A8E2B3E00E94895FE1E9FBE0FE
:103400009CE200E238E0A3EDB9E00E941C60A2ED6E
:10341000B9E02C93A3EDB9E00E94E25F082F0630DB
:1034200011F00C943435E3EDF9E0A6E4B2E00E942B
:103430007E5FE6E4F2E0A6E4B2E00E94015E8FEF78
:1034400080931603A6E4B2E0E8E1F9EC0E942C5E5A
:103450000E94E85F11F00C946E1A80E080931603CE
:10346000ADE4B2E0E0E2F9EC0E942C5E0E94BD5DAA
:10347000A8E2B3E0E2E4F5EC0E942C5E0E94BD5DA0
:10348000E8E2F3E0ADE4B2E00E94AF580E947E5F54
:10349000ADE4B2E00E94AF58E4E3F9EC0E942C5E88
:1034A0000E94BD5DA8E2B3E0EEE5F5EC0E942C5E63
:1034B0000E94BD5DE8E2F3E0ADE4B2E00E94AF58E7
:1034C0000E947E5FADE4B2E00E94AF58E8E2F6EC05
:1034D0000E942C5E0E94BD5D0C943235E2E4F9EC52
:1034E0000E942C5E0E94E85F11F00C94951A80E017
:1034F00080931603ADE4B2E0EAE4F9EC0E942C5E9E
:103500000E94BD5D7091400272607093400281E044
:1035100080935D03E0E0F0E0ADE5B3E07BE70E947F
:103520009F5F0E9488130C943235E8E7F9EC0E9403
:103530002C5E0E94E85F11F00C94B01A80E080933A
:103540001603ADE4B2E0E0E8F9EC0E942C5E0E94C4
:10355000BD5D709140027061709340020C943235F1
:10356000E4E9F9EC0E942C5E0E94E85F11F00C94F3
:10357000CD1A80E080931603ADE4B2E0ECE9F9ECFB
:103580000E942C5E0E94BD5D70914002726070933B
:1035900040020E94EB160C943235E6EBF9EC0E94E7
:1035A0002C5E0E94E85F11F00C94291B0091D20957
:1035B000023011F00C94241BA4EFB9E00E94145FB8
:1035C000A0E2B2E00C9300912002003080E010F005
:1035D00009F081E08F9300912002013181E008F031
:1035E00080E09F918923882311F40C941F1B80E0B5
:1035F0008093160370919D06706170939D06809173
:1036000020028093E906ADE4B2E0EEEBF9EC0E9413
:103610002C5E0E94BD5DE0E2F2E0ADE4B2E00E940B
:10362000AF580E94CF5EADE4B2E00E94AF58E4EE26
:10363000F9EC0E942C5E0E94BD5D0C94221B85E07B
:10364000809316030C94271B84E0809316030C943C
:103650003235E2EFF9EC0E942C5E0E94E85F11F037
:103660000C94531B80E0809316030E945319ADE421
:10367000B2E0EAEFF9EC0E942C5E0E94BD5DEEE53F
:10368000F3E0ADE4B2E00E94AF580E947E5FADE48B
:10369000B2E00E94AF58E8E2F6EC0E942C5E0E9475
:1036A000BD5D0C943235E4E0FAEC0E942C5E0E9481
:1036B000E85F11F00C94921B0091D209023011F0D6
:1036C0000C948D1BA4EFB9E00E94145FA0E2B2E05D
:1036D0000C9300912002013110F00C94881B80E0C3
:1036E00080931603ADE4B2E0ECE0FAEC0E942C5EAD
:1036F0000E94BD5DE0E2F2E0ADE4B2E00E94AF58AE
:103700000E94CF5E809120028093AD070C948B1BAA
:1037100085E0809316030C94901B84E0809316033D
:103720000C943235E4E2FAEC0E942C5E0E94E85FD1
:1037300011F00C94A11C0091D209023011F00C94EC
:103740009C1CA4EFB9E00E94E25F082F0C3011F03E
:103750000C94971C80E08093160387E0E4EFF9E077
:1037600002E00A93A8E2B3E00E94895FA8E2B3E016
:103770000E94AF58ECE2FAEC0E942C5E0E94BD5D04
:1037800089E0E4EFF9E002E00A93A8E2B3E00E94E6
:10379000AF580E94895FA8E2B3E00E94AF58ECE204
:1037A000FAEC0E942C5E0E94BD5D8BE0E4EFF9E034
:1037B00002E00A93A8E2B3E00E94AF580E94895F3A
:1037C000A8E2B3E00E94B8580E94C558E8E2F3E0CE
:1037D000A1E1B2E00E947E5F0E94875AEEE2FAEC1D
:1037E0000E942C5E0E94BE580E94745AA1E1B2E071
:1037F0000E94B8580E94C55881E0E4EFF9E002E069
:103800000A93A8E2B3E00E94895FA8E2B3E00E94B5
:10381000AF58E2E3FAEC0E942C5E0E94BD5D83E0AB
:10382000E4EFF9E002E00A93A8E2B3E00E94AF58A7
:103830000E94895FA8E2B3E00E94AF58E2E3FAEC8D
:103840000E942C5E0E94BD5D85E0E4EFF9E002E09D
:103850000A93A8E2B3E00E94AF580E94895FA8E2F1
:10386000B3E00E94B8580E94C558E8E2F3E0A8E02F
:10387000B2E00E947E5F0E947F5AE4E3FAEC0E946D
:103880002C5E0E94BE580E94745AA8E0B2E00E94CA
:10389000B8580E94C558ADE4B2E0E8E3FAEC0E94E3
:1038A0002C5E0E94BD5D0E94745AE8E0F2E0ADE437
:1038B000B2E00E94AF580E947E5FADE4B2E00E9489
:1038C000AF58E2E6FAEC0E942C5E0E94BD5D0E94B9
:1038D000745AE1E1F2E0ADE4B2E00E94AF580E9418
:1038E0007E5FE5E0F2E00E94D75AA5E7B3E08C9353
:1038F0000E941E370E9468370E949736E2E0F2E08D
:103900000E94C25BACE8B3E00D931D932D933D93F1
:10391000E1E0F0E0ACE8B3E094E07BE70E94A25F76
:10392000709140027160709340020C949A1C86E082
:10393000809316030C949F1C84E0809316030C94D0
:103940003235E6E6FAEC0E942C5E0E94E85F11F048
:103950000C94B71C80E080931603ADE4B2E0EEE671
:10396000FAEC0E942C5E0E94BD5D0C943235E6E7B5
:10397000FAEC0E942C5E0E94E85F11F00C94F71C98
:1039800080E0809316030E94745AE1E1F2E0A8E21D
:10399000B3E00E947E5FADE4B2E0E8E8F7EC0E949D
:1039A0002C5E0E94BD5DE8E2F3E0ADE4B2E00E946F
:1039B000AF580E947E5FADE4B2E00E94AF58EEE7E0
:1039C000FAEC0E942C5E0E94BD5D0E94745AE8E0F1
:1039D000F2E0A8E2B3E00E947E5FE8E2F3E0ADE44B
:1039E000B2E00E94AF580E947E5F0C943235EEE840
:1039F000FAEC0E942C5E0E94E85F11F00C94331DDB
:103A000080E080931603ECE8F3E0A8E2B3E00E94C4
:103A1000FB5BADE4B2E0E6E9FAEC0E942C5E0E94AA
:103A2000BD5DE8E2F3E0ADE4B2E00E94AF580E9471
:103A30007E5FADE4B2E00E94AF58EAEAFAEC0E9481
:103A40002C5E0E94BD5DECE8F3E0A8E2B3E00E94CA
:103A5000035CE8E2F3E0ADE4B2E00E94AF580E94FC
:103A60007E5F0C943235E2EBFAEC0E942C5E0E94F1
:103A7000E85F11F00C943C1E0091D209043011F063
:103A80000C94371EA4EFB9E00E94145FA1E2B2E0EB
:103A90000C9300912102003080E010F009F081E0E9
:103AA0008F9300912102053081E008F080E09F9122
:103AB0008923882311F40C94321EA5E1BAE00E94F8
:103AC000145FA0E2B2E00C9300912002003080E08D
:103AD00010F009F081E08F9300912002013181E024
:103AE00008F080E09F918923882311F40C942D1E07
:103AF00080E080931603E6E3FAE0A8E2B3E00E94D8
:103B00007E5FA1E2B2E00D91112701501040A4E3C5
:103B1000B2E00D931C93A4E3B2E00D911C9140E13F
:103B200050E00E94905DA4E3B2E00D931C93A4E3E7
:103B3000B2E00D911C91A0E2B2E04D915527040F27
:103B4000151FA4E3B2E00D931C93EAEBFAEC0E947C
:103B50002C5E0E94BE58E4E3F2E0A0E0BFE10E94C8
:103B6000BF5E0E94B6580E94C558E8E2F3E00E948A
:103B7000965BA4E3B2E0AD90BD90A3E9B3E0AA0CDC
:103B8000BB1CAA0CBB1CAA0DBB1D0D931D932D9332
:103B90003D93E4E3F2E0A190B190E6E0F0E0AA0CFE
:103BA000BB1CAA0CBB1CEA0DFB1DA4E3B2E0AD904C
:103BB000BD90A3E9B3E0AA0CBB1CAA0CBB1CAA0DC8
:103BC000BB1D94E07BE70E94A25FE4E3F2E0A190DA
:103BD000B190E3E9F3E0AA0CBB1CAA0CBB1CEA0DF4
:103BE000FB1DA8E2B3E00E94FB5BADE4B2E0E4ECB5
:103BF000FAEC0E942C5E0E94BD5DE0E2F2E0ADE4D2
:103C0000B2E00E94AF580E94CF5EADE4B2E00E94E5
:103C1000AF58E2E6FAEC0E942C5E0E94BD5DE8E23D
:103C2000F3E0ADE4B2E00E94AF580E947E5FADE4E5
:103C3000B2E00E94AF58E2EDFAEC0E942C5E0E94C6
:103C4000BD5DE1E2F2E0ADE4B2E00E94AF580E9457
:103C5000CF5E0E94920F0C94301E86E08093160374
:103C60000C94351E85E0809316030C943A1E84E074
:103C7000809316030C943235ECEDFAEC0E942C5E26
:103C80000E94E85F11F00C940D1F0091D2090330DF
:103C900011F00C94081FA4EFB9E00E94145FA1E298
:103CA000B2E00C9300912102003080E010F009F0A6
:103CB00081E08F9300912102053081E008F080E0DF
:103CC0009F918923882311F40C94031FA5E1BAE086
:103CD0000E94145FA0E2B2E00C9300912002003039
:103CE00080E010F009F081E08F9300912002013113
:103CF00081E008F080E09F918923882311F40C94DF
:103D0000FE1E80E080931603A1E2B2E00D91112720
:103D100001501040A4E3B2E00D931C93A4E3B2E081
:103D20000D911C9140E150E00E94905DA4E3B2E04F
:103D30000D931C93A4E3B2E00D911C91A0E2B2E0BC
:103D40004D915527040F151FA4E3B2E00D931C936A
:103D5000EAEBFAEC0E942C5E0E94BE58E4E3F2E02B
:103D6000A0E0BFE10E94BF5E0E94B6580E94C55805
:103D7000E4E3F2E0A190B190E3E9F3E0AA0CBB1C0C
:103D8000AA0CBB1CEA0DFB1DA8E2B3E00E94FB5B82
:103D9000ADE4B2E0E4EEFAEC0E942C5E0E94BD5D60
:103DA000E0E2F2E0ADE4B2E00E94AF580E94CF5EE4
:103DB000ADE4B2E00E94AF58ECEEFAEC0E942C5E4B
:103DC0000E94BD5DE8E2F3E0ADE4B2E00E94AF58CE
:103DD0000E947E5FADE4B2E00E94AF58E2EDFAECE3
:103DE0000E942C5E0E94BD5DE1E2F2E0ADE4B2E033
:103DF0000E94AF580E94CF5E0C94011F86E0809312
:103E000016030C94061F85E0809316030C940B1F79
:103E100084E0809316030C943235E0EFFAEC0E94B4
:103E20002C5E0E94E85F11F00C945F1F0091D20994
:103E3000023011F00C945A1FA4EFB9E00E94145FF5
:103E4000A4E3B2E00D931C93A4E3B2E00D911C91A6
:103E5000003050E0150718F011F00C94311F0C944D
:103E6000551F80E080931603A4E3B2E08D919C91EE
:103E7000A7E9B4E08D939C93ADE4B2E0E8EFFAECEF
:103E80000E942C5E0E94BD5DE7E9F4E0ADE4B2E083
:103E90000E94AF580E94BF5EEAE0F1E0A7E9B4E0FB
:103EA0007BE70E94A15F0C94581F85E08093160366
:103EB0000C945D1F84E0809316030C943235EEE081
:103EC000FBEC0E942C5E0E94E85F11F00C947D1FB9
:103ED00080E080931603ADE4B2E0E6E1FBEC0E94E3
:103EE0002C5E0E94BD5DE7E9F4E0ADE4B2E00E9423
:103EF000AF580E94BF5E0C943235EEE1FBEC0E949D
:103F00002C5E0E94E85F11F00C94CF1F0091D20943
:103F1000023011F00C94CA1FA4EFB9E00E94145FA4
:103F2000A4E3B2E00D931C93A4E3B2E00D911C91C5
:103F3000003050E0150718F011F00C94A11F0C94FC
:103F4000C51F80E080931603A4E3B2E08D919C919D
:103F5000ABE9B8E08D939C93ADE4B2E0E6E2FBEC14
:103F60000E942C5E0E94BD5DEBE9F8E0ADE4B2E09A
:103F70000E94AF580E94BF5EE9E7F3E0ABE9B8E00A
:103F80007BE70E94A15F0C94C81F85E08093160315
:103F90000C94CD1F84E0809316030C943235E0E43A
:103FA000FBEC0E942C5E0E94E85F11F00C94ED1F68
:103FB00080E080931603ADE4B2E0E8E4FBEC0E94FD
:103FC0002C5E0E94BD5DEBE9F8E0ADE4B2E00E943A
:103FD000AF580E94BF5E0C943235E6E5FBEC0E94C0
:103FE0002C5E0E94E85F11F00C943F200091D209F2
:103FF000023011F00C943A20A4EFB9E00E94145F53
:10400000A4E3B2E00D931C93A4E3B2E00D911C91E4
:10401000003050E0150718F011F00C9411200C94AA
:10402000352080E080931603A4E3B2E08D919C914B
:10403000A0E9B8E08D939C93ADE4B2E0EEE5FBEC33
:104040000E942C5E0E94BD5DE0E9F8E0ADE4B2E0C4
:104050000E94AF580E94BF5EE5E7F3E0A0E9B8E038
:104060007BE70E94A15F0C94382085E080931603C3
:104070000C943D2084E0809316030C943235E6E7DF
:10408000FBEC0E942C5E0E94E85F11F00C945D2016
:1040900080E080931603ADE4B2E0EAECF6EC0E9417
:1040A0002C5E0E94BD5DE0E9F8E0ADE4B2E00E9464
:1040B000AF580E94BF5E0C943235EEE7FBEC0E94D5
:1040C0002C5E0E94E85F11F00C94AF200091D209A1
:1040D000023011F00C94AA20A4EFB9E00E94145F02
:1040E000A4E3B2E00D931C93A4E3B2E00D911C9104
:1040F000003050E0150718F011F00C9481200C945A
:10410000A52080E080931603A4E3B2E08D919C91FA
:10411000A2E9B8E08D939C93ADE4B2E0E6E8FBEC55
:104120000E942C5E0E94BD5DE2E9F8E0ADE4B2E0E1
:104130000E94AF580E94BF5EE7E7F3E0A2E9B8E053
:104140007BE70E94A15F0C94A82085E08093160372
:104150000C94AD2084E0809316030C943235E0EA91
:10416000FBEC0E942C5E0E94E85F11F00C94CD20C5
:1041700080E080931603ADE4B2E0E6EDF6EC0E9439
:104180002C5E0E94BD5DE2E9F8E0ADE4B2E00E9481
:10419000AF580E94BF5E0C943235E8EAFBEC0E94F7
:1041A0002C5E0E94E85F11F00C9409220091D20964
:1041B000053011F00C940422A4EFB9E00E94145FC2
:1041C000A1E2B2E00C9300912102003080E010F0F7
:1041D00009F081E08F9300912102053081E008F021
:1041E00080E09F918923882311F40C94FF21A5E19D
:1041F000BAE00E94145FA2E2B2E00C9300912202A6
:10420000003080E010F009F081E08F9300912202ED
:10421000013181E008F080E09F918923882311F427
:104220000C94FA21A6E3BAE00E94145FA0E2B2E087
:104230000C9300912002003080E010F009F081E042
:104240008F9300912002093081E008F080E09F9177
:104250008923882311F40C94F521A1E2B2E00D9199
:10426000112701501040A4E3B2E00D931C93A4E386
:10427000B2E00D911C9140E250E00E94905DA4E3F9
:10428000B2E00D931C93A2E2B2E00D911127015010
:104290001040A6E3B2E00D931C93A6E3B2E00D91AB
:1042A0001C9148E050E00E94905DA6E3B2E00D93BF
:1042B0001C93A4E3B2E00D911C91A6E3B2E04D91F2
:1042C0005C91040F151FA4E3B2E00D931C93A4E3CB
:1042D000B2E00D911C91A0E2B2E04D915527040F80
:1042E000151FA4E3B2E00D931C93E0EBFBEC0E94DE
:1042F0002C5E0E94BE58E4E3F2E0A0E0BFE10E9421
:10430000BF5E0E94B6580E94C558A7E5BAE00E9459
:104310006C5FA3E2B2E00C9380912302A4E3B2E0CD
:10432000AD90BD90AAE9B4E0AA0DBB1D8C93E4E367
:10433000F2E0A190B190EBE0F1E0EA0DFB1DA3E209
:10434000B2E07BE70E949F5F80E080931603ADE4BC
:10435000B2E0EAEBFBEC0E942C5E0E94BD5DE0E265
:10436000F2E0ADE4B2E00E94AF580E94CF5EADE44F
:10437000B2E00E94AF58EAECFBEC0E942C5E0E9477
:10438000BD5DE2E2F2E0ADE4B2E00E94AF580E940F
:10439000CF5EADE4B2E00E94AF58E8EDFBEC0E94C6
:1043A0002C5E0E94BD5DE1E2F2E0ADE4B2E00E946D
:1043B000AF580E94CF5EADE4B2E00E94AF58E6EC89
:1043C000F5EC0E942C5E0E94BD5DADE4B2E00E945F
:1043D000AF58E4E3F2E0A190B190EAE9F4E0EA0D2D
:1043E000FB1D0E945C5F0C94F82187E0809316030C
:1043F0000C94FD2186E0809316030C94022285E044
:10440000809316030C94072284E0809316030C9487
:104410003235E2EEFBEC0E942C5E0E94E85F11F068
:104420000C9426230091D209043011F00C9421231E
:10443000A4EFB9E00E94145FA1E2B2E00C930091F6
:104440002102003080E010F009F081E08F930091AC
:104450002102053081E008F080E09F9189238823C4
:1044600011F40C941C23A5E1BAE00E94145FA2E2AF
:10447000B2E00C9300912202003080E010F009F0CD
:1044800081E08F9300912202013181E008F080E009
:104490009F918923882311F40C941723A6E3BAE093
:1044A0000E94145FA0E2B2E00C9300912002003061
:1044B00080E010F009F081E08F9300912002093034
:1044C00081E008F080E09F918923882311F40C9407
:1044D000122380E080931603A1E2B2E00D91112730
:1044E00001501040A4E3B2E00D931C93A4E3B2E0AA
:1044F0000D911C9140E250E00E94905DA4E3B2E077
:104500000D931C93A2E2B2E00D91112701501040CF
:10451000A6E3B2E00D931C93A6E3B2E00D911C91CB
:1045200048E050E00E94905DA6E3B2E00D931C933A
:10453000A4E3B2E00D911C91A6E3B2E04D915C9131
:10454000040F151FA4E3B2E00D931C93A4E3B2E0A3
:104550000D911C91A0E2B2E04D915527040F151F5B
:10456000A4E3B2E00D931C93EAEEFBEC0E942C5EF8
:104570000E94BE58E4E3F2E0A0E0BFE10E94BF5E0B
:104580000E94B6580E94C558ADE4B2E0E8EFF5ECE1
:104590000E942C5E0E94BD5DE0E2F2E0ADE4B2E07C
:1045A0000E94AF580E94CF5EADE4B2E00E94AF58C7
:1045B000EAECFBEC0E942C5E0E94BD5DE2E2F2E0C0
:1045C000ADE4B2E00E94AF580E94CF5EADE4B2E02D
:1045D0000E94AF58E8EDFBEC0E942C5E0E94BD5D8E
:1045E000E1E2F2E0ADE4B2E00E94AF580E94CF5E9B
:1045F000ADE4B2E00E94AF58E6ECF5EC0E942C5E10
:104600000E94BD5DADE4B2E00E94AF58E4E3F2E089
:10461000A190B190EAE9F4E0EA0DFB1D0E945C5F15
:104620000C94152387E0809316030C941A2386E0DC
:10463000809316030C941F2385E0809316030C943B
:10464000242384E0809316030C943235E8EFFBECCE
:104650000E942C5E0E94E85F11F00C94842300916C
:10466000D209023011F00C947F23A4EFB9E00E942C
:10467000145FA1E2B2E00C9300912102003080E0CF
:1046800010F009F081E08F9300912102053081E064
:1046900008F080E09F918923882311F40C947A23F9
:1046A00080E080931603A4EFB9E00E94145FA1E9B3
:1046B000B3E00C93E5E0F0E0A1E9B3E07BE70E9412
:1046C0009F5FADE4B2E0E0E0FCEC0E942C5E0E9453
:1046D000BD5DE1E9F3E0ADE4B2E00E94AF580E94B5
:1046E000CF5E0E94920F7091C20772607093C207F2
:1046F0000C947D2385E0809316030C94822384E040
:10470000809316030C943235EEE1FCEC0E942C5E93
:104710000E94E85F11F00C94A72380E080931603B9
:10472000ADE4B2E0EAE2F6EC0E942C5E0E94BD5DD0
:10473000E1E9F3E0ADE4B2E00E94AF580E94CF5E41
:1047400070919D06746070939D060C943235E6E27C
:10475000FCEC0E942C5E0E94E85F11F00C942A246D
:104760000091D209033011F00C942524A4EFB9E094
:104770000E94145FA1E2B2E00C930091210200308C
:1047800080E010F009F081E08F9300912102053064
:1047900081E008F080E09F918923882311F40C9434
:1047A000202480E080931603A5E1BAE00E946C5FAC
:1047B000A1E2B2E0AD90BB24A1E9B3E0AA0DBB1D1C
:1047C0000C93E1E2F2E0A190BB24E5E0F0E0EA0D19
:1047D000FB1DA1E2B2E0AD90BB24A1E9B3E0AA0DBC
:1047E000BB1D7BE70E949F5FADE4B2E0EEE2FCEC14
:1047F0000E942C5E0E94BD5DE1E9F3E0ADE4B2E011
:104800000E94AF580E94CF5EADE4B2E00E94AF5864
:10481000E2E6FAEC0E942C5E0E94BD5DADE4B2E0DF
:104820000E94AF58E1E2F2E0A190BB24E1E9F3E09D
:10483000EA0DFB1D0E945C5F0E94920F0C942324E2
:1048400085E0809316030C94282484E0809316035B
:104850000C943235ECE4FCEC0E942C5E0E94E85F84
:1048600011F00C9484240091D209023011F00C94C0
:104870007F2400912102003080E010F009F081E0F7
:104880008F9300912102053081E008F080E09F9134
:104890008923882311F40C947A2480E080931603F2
:1048A000ADE4B2E0E4E5FCEC0E942C5E0E94BD5D4C
:1048B000E1E9F3E0ADE4B2E00E94AF580E94CF5EC0
:1048C000ADE4B2E00E94AF58E8E6FCEC0E942C5E3A
:1048D0000E94BD5DADE4B2E00E94AF58E1E2F2E0BB
:1048E000A190BB24E1E9F3E0EA0DFB1D0E945C5FAF
:1048F0000C947D2485E0809316030C94822484E03C
:10490000809316030C943235ECE6FCEC0E942C5E8E
:104910000E94E85F11F00C942B250091D20903301E
:1049200011F00C942625A4EFB9E00E94145FA4E2D4
:10493000B2E00C9300912402003080E010F009F006
:1049400081E08F9300912402063081E008F080E03E
:104950009F918923882311F40C942125A5E1BAE0C5
:104960000E94145FACE2B2E00D931D932D933D9332
:10497000ACE2B2E00D911D912D913C91A4E2B2E028
:10498000AD90BB24A8EEB6E0AA0CBB1CAA0CBB1CC5
:10499000AA0DBB1D0D931D932D933C93E4E2F2E011
:1049A000A190BB24E8E0F3E0AA0CBB1CAA0CBB1C42
:1049B000EA0DFB1DACE2B2E094E07BE70E94A25F4F
:1049C00080E080931603ADE4B2E0E4E7FCEC0E94E3
:1049D0002C5E0E94BD5DE4E2F2E0ADE4B2E00E9434
:1049E000AF580E94CF5EADE4B2E00E94AF58ECE257
:1049F000FAEC0E942C5E0E94BD5DE4E2F2E0A19020
:104A0000BB24E8EEF6E0AA0CBB1CAA0CBB1CEA0D0A
:104A1000FB1DADE4B2E00E94AF580E94C25EE4E22A
:104A2000F2E0A190BB24E8EEF6E0AA0CBB1CAA0CB5
:104A3000BB1CEA0DFB1DA4E1B7E00E94C25E0C9412
:104A4000242583E0809316030C94292584E0809329
:104A500016030C943235EAE8FCEC0E942C5E0E94AE
:104A6000E85F11F00C94D2250091D209033011F0C7
:104A70000C94CD25A4EFB9E00E94145FA4E2B2E04B
:104A80000C9300912402003080E010F009F081E0E6
:104A90008F9300912402063081E008F080E09F911E
:104AA0008923882311F40C94C825A5E1BAE00E945B
:104AB000145FACE2B2E00D931D932D933D93ACE2F5
:104AC000B2E00D911D912D913C91A4E2B2E0AD9028
:104AD000BB24ACEFB6E0AA0CBB1CAA0CBB1CAA0DF5
:104AE000BB1D0D931D932D933C93E4E2F2E0A19046
:104AF000BB24ECE1F3E0AA0CBB1CAA0CBB1CEA0D26
:104B0000FB1DACE2B2E094E07BE70E94A25F80E094
:104B100080931603ADE4B2E0E4E7FCEC0E942C5E67
:104B20000E94BD5DE4E2F2E0ADE4B2E00E94AF5865
:104B30000E94CF5EADE4B2E00E94AF58ECE2FAEC26
:104B40000E942C5E0E94BD5DE4E2F2E0A190BB24D5
:104B5000ECEFF6E0AA0CBB1CAA0CBB1CEA0DFB1D7B
:104B6000ADE4B2E00E94AF580E94C25EE4E2F2E01F
:104B7000A190BB24ECEFF6E0AA0CBB1CAA0CBB1C5A
:104B8000EA0DFB1DA4E1B7E00E94C25E0C94CB25A8
:104B900083E0809316030C94D02584E08093160361
:104BA0000C943235E2E9FCEC0E942C5E0E94E85F36
:104BB00011F00C9477260091D209023011F00C9478
:104BC0007226A4EFB9E00E94145FA4E2B2E00C9355
:104BD00000912402003080E010F009F081E08F9312
:104BE00000912402063081E008F080E09F91892343
:104BF000882311F40C946D26ADE4B2E0EAE9FCECF4
:104C00000E942C5E0E94BD5DE4E2F2E0ADE4B2E001
:104C10000E94AF580E94CF5EADE4B2E00E94AF5850
:104C2000ECE2FAEC0E942C5E0E94BD5DE4E2F2E050
:104C3000A190BB24E8EEF6E0AA0CBB1CAA0CBB1C9E
:104C4000EA0DFB1DADE4B2E00E94AF580E94C25EC7
:104C500080E080931603E6E1F9EC0E942C5E0E944E
:104C6000BE58E4E2F2E0A0E0BFE10E94CF5E0E9405
:104C7000B658E0E8F5EC0E942C5E0E94BE58E4E2D3
:104C8000F2E0A190BB24E8EEF6E0AA0CBB1CAA0C53
:104C9000BB1CEA0DFB1DA0E0BFE10E94C25E0E94AA
:104CA000B6580E94C558E2EAFCEC0E942C5E0E94B5
:104CB000BE580E94C558E4E2F2E0A190BB24E8EEA1
:104CC000F6E0AA0CBB1CAA0CBB1CEA0DFB1DA4E160
:104CD000B7E00E94C25E0C94702683E080931603B6
:104CE0000C94752684E0809316030C943235E6EA22
:104CF000FCEC0E942C5E0E94E85F11F00C941C27D3
:104D00000091D209023011F00C941727A4EFB9E0FA
:104D10000E94145FA4E2B2E00C93009124020030E0
:104D200080E010F009F081E08F93009124020630BA
:104D300081E008F080E09F918923882311F40C948E
:104D40001227ADE4B2E0EEEAFCEC0E942C5E0E9479
:104D5000BD5DE4E2F2E0ADE4B2E00E94AF580E9433
:104D6000CF5EADE4B2E00E94AF58ECE2FAEC0E94F4
:104D70002C5E0E94BD5DE4E2F2E0A190BB24ECEF6A
:104D8000F6E0AA0CBB1CAA0CBB1CEA0DFB1DADE493
:104D9000B2E00E94AF580E94C25E80E0809316038A
:104DA000E6E1F9EC0E942C5E0E94BE58E4E2F2E0DB
:104DB000A0E0BFE10E94CF5E0E94B658E0E8F5ECAB
:104DC0000E942C5E0E94BE58E4E2F2E0A190BB2457
:104DD000ECEFF6E0AA0CBB1CAA0CBB1CEA0DFB1DF9
:104DE000A0E0BFE10E94C25E0E94B6580E94C55872
:104DF000E2EAFCEC0E942C5E0E94BE580E94C5585C
:104E0000E4E2F2E0A190BB24ECEFF6E0AA0CBB1CBC
:104E1000AA0CBB1CEA0DFB1DA4E1B7E00E94C25E18
:104E20000C94152783E0809316030C941A2784E0D2
:104E3000809316030C943235EAEBFCEC0E942C5E56
:104E40000E94E85F11F00C948F270091D209023084
:104E500011F00C948A27A4EFB9E00E94145FA4E239
:104E6000B2E00C9300912402003080E010F009F0D1
:104E700081E08F9300912402063081E008F080E009
:104E80009F918923882311F40C94852780E08093D7
:104E900016030091240241E0041BA0E2B2E00C934F
:104EA00080912002A2ECB7E00E94175E0E940D5E86
:104EB0009C91982B9C93ADE4B2E0E2ECFCEC0E9458
:104EC0002C5E0E94BD5DE4E2F2E0ADE4B2E00E943F
:104ED000AF580E94CF5EADE4B2E00E94AF58E0E868
:104EE000F5EC0E942C5E0E94BD5DADE4B2E00E9434
:104EF000AF58E2ECF7E00E945C5FA4E1B7E0E2ECBF
:104F0000F7E00E945C5F0C94882783E0809316038F
:104F10000C948D2784E0809316030C943235E6EDD3
:104F2000FCEC0E942C5E0E94E85F11F00C94D027EC
:104F30000091D209023011F00C94CB2780E08093CD
:104F40001603A4EFB9E00E94145FACE5B7E00D933F
:104F50001D932D933D93ECE3F3E0ACE5B7E094E0D3
:104F60007BE70E94A25FADE4B2E0EEEDFCEC0E94B4
:104F70002C5E0E94BD5DECE5F7E0ADE4B2E00E947E
:104F8000AF580E94C25EECE5F7E0A4E1B7E00E94F2
:104F9000C25E0C94CE2784E0809316030C943235C5
:104FA000E6EFFCEC0E942C5E0E94E85F11F00C948E
:104FB000F42780E080931603ADE4B2E0EEEFFCEC62
:104FC0000E942C5E0E94BD5DECE5F7E0ADE4B2E02E
:104FD0000E94AF580E94C25EECE5F7E0A4E1B7E0A2
:104FE0000E94C25E0C943235E8E0FDEC0E942C5E1B
:104FF0000E94E85F11F00C940F2880E08093160364
:1050000070915B07706470935B07ADE4B2E0E0E120
:10501000FDEC0E942C5E0E94BD5D0C943235E8E1EF
:10502000FDEC0E942C5E0E94E85F11F00C944C286D
:105030000091D209023011F00C94472880E080934F
:105040001603A4EFB9E00E94145FA3ECB7E00C9341
:10505000E0E4F3E0A3ECB7E07BE70E949F5FADE400
:10506000B2E0E0E2FDEC0E942C5E0E94BD5DE3EC4C
:10507000F7E0ADE4B2E00E94AF580E94CF5EE3ECEF
:10508000F7E0A4E1B7E00E94CF5E0C944A2884E0E8
:10509000809316030C943235E2E3FDEC0E942C5E03
:1050A0000E94E85F11F00C94702880E08093160352
:1050B000ADE4B2E0EAE3FDEC0E942C5E0E94BD5D2F
:1050C000E3ECF7E0ADE4B2E00E94AF580E94CF5E9F
:1050D000E3ECF7E0A4E1B7E00E94CF5E0C94323538
:1050E000E0E4FDEC0E942C5E0E94E85F11F00C945D
:1050F0008B2880E0809316037091C40770687093CA
:10510000C407ADE4B2E0E8E4FDEC0E942C5E0E942E
:10511000BD5D0C943235E2E5FDEC0E942C5E0E94F0
:10512000E85F11F00C94C2280091D209023011F00E
:105130000C94BD2880E080931603A4EFB9E00E9490
:10514000145FABEDB7E00C93E1E4F3E0ABEDB7E057
:105150007BE70E949F5FADE4B2E0EAE5FDEC0E94D0
:105160002C5E0E94BD5DEBEDF7E0ADE4B2E00E9485
:10517000AF580E94CF5E0C94C02884E08093160341
:105180000C943235E0E7FDEC0E942C5E0E94E85F53
:1051900011F00C94E02880E080931603ADE4B2E0B7
:1051A000E8E6F5EC0E942C5E0E94BD5DEBEDF7E0B9
:1051B000ADE4B2E00E94AF580E94CF5E0C9432354D
:1051C000E8E7FDEC0E942C5E0E94E85F11F00C9471
:1051D00023290091D209023011F00C941E29A4EF6A
:1051E000B9E00E94145FACEDB7E00D931C93E2E4CC
:1051F000F3E0ACEDB7E07BE70E94A15F80E0809335
:105200001603ADE4B2E0E0E8FDEC0E942C5E0E94E3
:10521000BD5DECEDF7E0ADE4B2E00E94AF580E9456
:10522000BF5EECEDF7E0A4E1B7E00E94BF5E7091D5
:10523000C20772607093C2070C94212984E08093A6
:1052400016030C943235E0EAFDEC0E942C5E0E94BD
:10525000E85F11F00C945C290091D209013011F043
:105260000C94572980E080931603ADE4B2E0E8EA9D
:10527000FDEC0E942C5E0E94BD5DECEDF7E0ADE41C
:10528000B2E00E94AF580E94BF5EADE4B2E00E945F
:10529000AF58E8E2F6EC0E942C5E0E94BD5DECED9A
:1052A000F7E0A4E1B7E00E94BF5E0C945A2984E0C5
:1052B000809316030C943235ECEBFDEC0E942C5ECF
:1052C0000E94E85F11F00C94A6290091D2090230E7
:1052D00011F00C94A129A4EFB9E00E94145FA0E2A0
:1052E000B2E00C9300912002023010F00C949C2943
:1052F00080E08093160300912002003011F00C949E
:1053000084295F980C9485295F9AADE4B2E0E4ECBF
:10531000FDEC0E942C5E0E94BD5DABE2B0E08C9182
:1053200087FBADE4B2E00E94AF580E941D5E8D93F2
:1053300088278C930C949F2983E0809316030C9408
:10534000A42984E0809316030C943235EEECFDEC36
:105350000E942C5E0E94E85F11F00C94D729009106
:10536000D209023011F00C94D22980E08093160308
:10537000A4EFB9E00E94145FA0EEB7E00D931C9378
:10538000ADE4B2E0E6EDFDEC0E942C5E0E94BD5D56
:10539000E0EEF7E0ADE4B2E00E94AF580E94BF5EDD
:1053A0000C94D52984E0809316030C943235EEEEEC
:1053B000FDEC0E942C5E0E94E85F11F00C940F2A15
:1053C0000091D209023011F00C940A2A80E08093F7
:1053D0001603A4EFB9E00E94145FAEEDB7E00D93A1
:1053E0001C93E4E4F3E0AEEDB7E07BE70E94A15F3D
:1053F000ADE4B2E0E6EFFDEC0E942C5E0E94BD5DE4
:10540000EEEDF7E0ADE4B2E00E94AF580E94BF5E5F
:105410000C940D2A84E0809316030C943235E0E15D
:10542000FEEC0E942C5E0E94E85F11F00C94512A61
:1054300080E080931603ADE4B2E0E8E1FEEC0E9468
:105440002C5E0E94BD5DEEEDF7E0ADE4B2E00E949F
:10545000AF580E94BF5EADE4B2E00E94AF58E8E2F0
:10546000FEEC0E942C5E0E94BD5DE0EEF7E0ADE434
:10547000B2E00E94AF580E94BF5EADE4B2E00E946D
:10548000AF58E4E3FEEC0E942C5E0E94BD5DE2EEAC
:10549000F7E0ADE4B2E00E94AF580E94CF5E0C94FA
:1054A0003235E2E4FEEC0E942C5E0E94E85F11F0CF
:1054B0000C94762A80E080931603A4EFB9E00E9452
:1054C000145FA2EEB7E00C93ADE4B2E0EAE4FEECC8
:1054D0000E942C5E0E94BD5DE2EEF7E0ADE4B2E01A
:1054E0000E94AF580E94CF5E0C943235EAE5FEEC84
:1054F0000E942C5E0E94E85F11F00C94AD2A00918E
:10550000D209023011F00C94A82A80E0809316038F
:10551000A4EFB9E00E94145FAEE9B8E00C93ECE7A9
:10552000F3E0AEE9B8E07BE70E949F5FADE4B2E054
:10553000E2E6FEEC0E942C5E0E94BD5DEEE9F8E022
:10554000ADE4B2E00E94AF580E94CF5E0C94AB2A4B
:1055500084E0809316030C943235EEE7FEEC0E9453
:105560002C5E0E94E85F11F00C94CB2A80E08093BF
:105570001603ADE4B2E0EEEEF6EC0E942C5E0E9463
:10558000BD5DEEE9F8E0ADE4B2E00E94AF580E94E4
:10559000CF5E0C943235E6E8FEEC0E942C5E0E9451
:1055A000E85F11F00C94022B0091D209023011F047
:1055B0000C94FD2A80E080931603A4EFB9E00E94CA
:1055C000145FADE9B8E00C93EBE7F3E0ADE9B8E0C8
:1055D0007BE70E949F5FADE4B2E0EEE8FEEC0E9444
:1055E0002C5E0E94BD5DEDE9F8E0ADE4B2E00E9402
:1055F000AF580E94CF5E0C94002B84E0809316037A
:105600000C943235E6EBFEEC0E942C5E0E94E85FC3
:1056100011F00C94202B80E080931603ADE4B2E0EF
:10562000EEEBFEEC0E942C5E0E94BD5DEDE9F8E021
:10563000ADE4B2E00E94AF580E94CF5E0C943235C8
:10564000EEEDFEEC0E942C5E0E94E85F11F00C94DF
:10565000B72B80E080931603ADE4B2E0E6EEFEECFB
:105660000E942C5E0E94BD5D81E08093200200912B
:105670002002043018F011F00C94B52B0091200298
:1056800041E0041BA4E2B2E00C9380912402ACE15F
:10569000B8E00E94175E0E940D5E0C90082268948C
:1056A00009F4E89416F00C94AD2B00274427809160
:1056B0002402A0E2B0E00E94175E0E940D5E0C90F2
:1056C0000822689409F4E89400F980912402A6EF76
:1056D000B7E00E94175E0E940D5E0C90082268944D
:1056E00009F4E89440F9042700FBA0E4B2E08C91AF
:1056F00087F98C93E0E2F2E00191112747E050E056
:105700000E94905DE0EFF7E0E00FF11FADE4B2E042
:105710000E94AF580E947E5FADE4B2E00E94AF5895
:10572000E6ECF5EC0E942C5E0E94BD5DA0E4B2E0C8
:105730008C9187FBADE4B2E00E94AF580E941D5EE1
:105740008D9388278C93ADE4B2E00E94AF58E0E8D7
:10575000F5EC0E942C5E0E94BD5DA0E2B2E08C914F
:105760008F5F8C9310F40C94372B0C943235EAEF46
:10577000FEEC0E942C5E0E94E85F11F00C946D2CF0
:105780000091D209043011F00C94682CA4EFB9E018
:105790000E94145FA1E2B2E00C930091210201305B
:1057A00011F00C945B2CA5E1BAE00E94145FA0E21A
:1057B000B2E00C9300912002003080E010F009F07C
:1057C00081E08F9300912002053081E008F080E0B5
:1057D0009F918923882311F40C94562C80E08093A8
:1057E00016030091200241E0041BA2E2B2E00C93F8
:1057F000A6E3BAE00E94145FA1E2B2E00C9300912C
:105800002102003011F00C94122C80912202ACE1A4
:10581000B8E00E94175E0E940D5E8C9189238C93E4
:105820000C941D2C80912202ACE1B8E00E94175E1E
:105830000E940D5E9C91982B9C93E4E7F3E0ACE111
:10584000B8E07BE70E949F5FADE4B2E0E2E0FFECEE
:105850000E942C5E0E94BD5DE0E2F2E0ADE4B2E0A9
:105860000E94AF580E94CF5EADE4B2E00E94AF58F4
:10587000E6ECF5EC0E942C5E0E94BD5D8091220258
:10588000ACE1B8E00E94175E0E940D5E0C90082209
:10589000689409F4E894ADE4B2E00E94AF580E9425
:1058A0001D5E8D9388278C930C94592C85E08093F2
:1058B00016030C94662C80E080931603ADE4B2E0EE
:1058C000E6E1FFEC0E942C5E0E94BD5D0C946B2C07
:1058D00084E0809316030C943235E4E3FFEC0E94DD
:1058E0002C5E0E94E85F11F00C94462D0091D209C5
:1058F000013011F00C94912C80E080931603ADE4FC
:10590000B2E0ECE3FFEC0E942C5E0E94BD5DADE4D2
:10591000B2E00E94AF58ECE1F8E00E945C5F0C94AA
:10592000442D023011F00C94C42CA4EFB9E00E9475
:10593000145FA1E2B2E00C9300912102013011F05A
:105940000C94B72C80E080931603ADE4B2E0ECE356
:10595000FFEC0E942C5E0E94BD5DADE4B2E00E94AF
:10596000AF58ECE1F8E00E945C5F0C94C22C80E040
:1059700080931603ADE4B2E0E4E4FFEC0E942C5EF9
:105980000E94BD5D0C94442D033011F00C94412D08
:10599000A4EFB9E00E94145FA1E2B2E00C93009181
:1059A0002102013011F00C94342DA5E1BAE00E94DF
:1059B000145FA0E2B2E00C9300912002003080E07E
:1059C00010F009F081E08F9300912002053081E012
:1059D00008F080E09F918923882311F40C942F2DE7
:1059E00080E0809316030091200241E0041BA2E2B4
:1059F000B2E00C9380E080931603ADE4B2E0E8E5FA
:105A0000FFEC0E942C5E0E94BD5DE0E2F2E0ADE49E
:105A1000B2E00E94AF580E94CF5EADE4B2E00E94B7
:105A2000AF58E6ECF5EC0E942C5E0E94BD5D8091C3
:105A30002202ACE1B8E00E94175E0E940D5E0C905D
:105A40000822689409F4E894ADE4B2E00E94AF58EB
:105A50000E941D5E8D9388278C930C94322D85E0D7
:105A6000809316030C943F2D80E080931603ADE4E1
:105A7000B2E0E0E6FFEC0E942C5E0E94BD5D0C945B
:105A8000442D84E0809316030C943235E6E7FFEC56
:105A90000E942C5E0E94E85F11F00C94E22D0091B0
:105AA000D209033011F00C94DD2DA4EFB9E00E946F
:105AB000145FA0E2B2E00C9300912002003080E07D
:105AC00010F009F081E08F9300912002053081E011
:105AD00008F080E09F918923882311F40C94D82D3D
