:100000000C947200189500001895000018950000D7
:10001000189500001895000018950000189500002C
:10002000189500001895000018950000189500001C
:100030001895000018950000189500000C944A05CA
:1000400018950000189500001895000018950000FC
:100050000C941D0318950000189500000C944E0296
:10006000189500000C940A011895000018950000DE
:1000700018950000189500001895000018950000CC
:1000800018950000189500001895000018950000BC
:100090000C949C011895000018950000189500001C
:1000A000189500001895000018950000189500009C
:1000B000189500001895000018950000189500008C
:1000C000189500001895000018950000189500007C
:1000D000189500001895000018950000189500006C
:1000E000189500008FEF8DBFC0EBE8E24E2E81E245
:1000F0008EBFD1E2F1E25F2EA89584B7082E882743
:1001000084BF88E199278093600090936000EEEFB0
:10011000FFE1A0E0B2E088278D933197E9F787E609
:100120008093C40080E08093C50088E18093C10083
:100130006624279A389A399A3A9A3B9A3C9A3D9A79
:100140003E9A3F9A70910A01716070930A01709112
:100150000A01726070930A0170910A0174607093D1
:100160000A01289A209A5F9A579A089809980A983B
:100170000B98109A119A129A139A85E085BD80E027
:1001800084BD70916E00716070936E0085E085BDD6
:1001900080E08093800085E08093810070916F0003
:1001A000716070936F0085E08093810087E0809399
:1001B000B10080E08093B000709170007160709326
:1001C000700087E08093B1007091C10070687093F7
:1001D000C10087E68093CC0080E08093CD007091D1
:1001E000C8007D7F7093C80086E08093CA0088E1D4
:1001F0008093C9007091C90070687093C90070E065
:100200007093B9007CE07093B8000E94214C789400
:100210000C94FD420F921F922F923F924F925F9249
:100220007F92AF92BF920F931F932F933F934F9361
:100230005F936F937F938F939F93AF93BF93CF936E
:10024000DF93EF93FF938FB78F938BB78F938827AD
:100250008BBFA3ECBAE08091C6008C9384E2482F58
:100260000091C30A041711F00C9441017091130618
:10027000726070931306AAEFB9E088278C930C94F0
:100280007E010D3011F00C946601A3E1B6E08C9173
:1002900081FB16F00C946401709113067D7F7093BE
:1002A000130680E0AAEFB9E00E9471488D93882779
:1002B0008C93EAEFF9E0A4ECBAE00E948A4F7091C7
:1002C00013067160709313060C947E010F3118F0C1
:1002D00011F00C946D010C947E01A3E1B6E08C91B9
:1002E00081FB16F00C947E01A3ECBAE08C91AAEF8E
:1002F000B9E00E9471488D9388278C938F918BBFB2
:100300008F918FBFFF91EF91DF91CF91BF91AF910F
:100310009F918F917F916F915F914F913F912F911D
:100320001F910F91BF90AF907F905F904F903F9043
:100330002F901F900F9018950F921F922F923F921F
:100340004F925F927F92AF92BF920F931F932F9322
:100350003F934F935F936F937F938F939F93AF934D
:10036000BF93CF93DF93EF93FF938FB78F938BB7A9
:100370008F9388278BBFA4E1B6E08091CE008C9349
:1003800085E2482F00911406041711F00C94D30154
:1003900070911306786070931306A5E1B6E0882784
:1003A0008C930C9430020D3011F00C940802A3E1F0
:1003B000B6E08C9183FB16F00C9406027091130644
:1003C000777F7093130680E0A5E1B6E00E94714844
:1003D0008D9388278C93E5E1F6E0A2EAB6E00E94CF
:1003E0008A4FA2EAB6E0E2EAF3EA0E943D4E0E949A
:1003F000FD4F11F00C9401027091380270647093FB
:100400003802709113067460709313060C943002D6
:100410000F3118F011F00C940F020C943002A3E18C
:10042000B6E08C9183FB16F00C943002A4E1B6E0A8
:100430008C91A5E1B6E00E9471488D9388278C933A
:10044000A5E1B6E00E94F74F082F0C3818F011F024
:100450000C942C020C943002A5E1B6E088278C9312
:100460008F918BBF8F918FBFFF91EF91DF91CF91D4
:10047000BF91AF919F918F917F916F915F914F91BC
:100480003F912F911F910F91BF90AF907F905F9000
:100490004F903F902F901F900F9018950F921F92A2
:1004A0002F923F924F925F927F92AF92BF920F93A3
:1004B0001F932F933F934F935F936F937F938F93EC
:1004C0009F93AF93BF93CF93DF93EF93FF938FB738
:1004D0008F938BB78F9388278BBF74E676BDA5E289
:1004E000B5E08C918F5F8C93A5E2B5E00C9148E06C
:1004F0000E94E74F8C9300912505003011F00C9479
:10050000B402A6E2B5E00C9140E20E94E74F8C9362
:10051000E6E4F3E70E943D4EABE2B5E08C9199270B
:10052000A7E2B5E00E94F44D80912605A7E2B5E070
:100530000E94284E0E941E4E0C900822689409F4D6
:10054000E894A2E2B5E08C9186F98C93A2E2B5E042
:100550008C9186FBA5E2B0E08C9187F98C93A6E2A2
:10056000B5E08C918F5F8C93A2E2B5E08C9187FB14
:1005700016F00C94DA02A3E2B5E00E942A48A3E246
:10058000B5E00D911C9149EF51E00E945748A3E25C
:10059000B5E00D931C93A3E2B5E00D911C910030E2
:1005A00050E0150711F00C94DA0270916E0471603E
:1005B00070936E04A2E2B5E08C9184FB16F00C946B
:1005C000F902AFE2B5E00E942A48A1E3B5E04D91FF
:1005D0005C91AFE2B5E00D911C910417150711F085
:1005E0000C94F702709122057062709322050C94AE
:1005F000FF0280E090E0AFE2B5E08D939C938F9195
:100600008BBF8F918FBFFF91EF91DF91CF91BF9102
:10061000AF919F918F917F916F915F914F913F919A
:100620002F911F910F91BF90AF907F905F904F904F
:100630003F902F901F900F9018950F921F922F921E
:100640003F924F925F927F92AF92BF920F931F9310
:100650002F933F934F935F936F937F938F939F93CA
:10066000AF93BF93CF93DF93EF93FF938FB78F93A6
:100670008BB78F9388278BBF87EF92EC9093850081
:100680008093840070912C05716070932C050E94FA
:10069000364AE8E0F2E0FA93EA93E1E1F2E00E9400
:1006A000C34BA3E3B5E00D931D932D933D93A3E3BB
:1006B000B5E00E941D48E3E3F5E0A1E1B2E00E944D
:1006C000B34B0E94494AE3E3F5E0A8E0B2E00E94A0
:1006D000BB4B0E94414A0E94364AE1E1F2E0A3E6A8
:1006E000B4E00E948A4FE3E6F4E00E944E4BA7E399
:1006F000B5E00D931D932D933D9381E080933B05D1
:1007000000913B05043018F011F00C94B303ABE3F7
:10071000B5E0AD90BB24AFE4B4E0AA0CBB1CAA0CBE
:10072000BB1CAA0DBB1D4D915D916D917C91A7E302
:10073000B5E00D911D912D913C910E94B84E11F0A4
:100740000C94AB0370913802716070933802809101
:100750003B0580936F04ABE3B5E08C918F5F8C9386
:1007600010F40C948003A3E3B5E00D911D912D913D
:100770003C91A9EDB4E04D915D916D917C910E9409
:10078000C448ACE3B5E00D931D932D933D9340E039
:1007900050E060E070E0ACE3B5E00D911D912D916B
:1007A0003C910E94B84E11F00C94DB0370916E04E2
:1007B000746070936E04A3E3B5E00D911D912D91CB
:1007C0003C91A1E4B5E04C915527662777270E941C
:1007D000C448ACE3B5E00D931D932D933D9340E0E9
:1007E00050E060E070E0ACE3B5E00D911D912D911B
:1007F0003C910E94B84E11F00C94030470912205B4
:1008000078607093220581E080933B0200913B0267
:10081000043018F011F00C947204A3E3B5E00D91CC
:100820001D912D913C91ABE3B2E0AD90BB24AEE7BE
:10083000B4E0AA0CBB1CAA0CBB1CAA0DBB1D4D919D
:100840005D916D917C910E94B34EACE3B5E00D9348
:100850001D932D933D93ACE3B5E00D911D912D912A
:100860003C91ABE3B2E0AD90BB24AEE6B4E0AA0CA1
:10087000BB1CAA0CBB1CAA0DBB1D4D915D916D91BB
:100880007C910E94C448ACE3B5E00D931D932D9379
:100890003D9300913B0241E0041BAAE3B2E00C93BC
:1008A00040E050E060E070E0ACE3B5E00D911D91F8
:1008B0002D913C910E94B84E11F00C946A048091E5
:1008C0003A02A0E4B5E00E94284E0E941E4E9C9180
:1008D000982B9C93ABE3B2E08C918F5F8C9310F4D8
:1008E0000C940604A6EBB4E08C918F5F8C93A6EB7E
:1008F000B4E00C9141E00E94E74F8C930091B60464
:10090000003011F00C94890470916E047062709341
:100910006E04ABEFB4E08C918F5F8C93ABEFB4E0DF
:100920000C9145E00E94E74F8C930091FB0400304E
:1009300011F00C94A00470916E04726070936E04B8
:10094000A8E3B2E08C9182FB16F00C94C804AFECE3
:10095000B3E00E942A48AFECB3E00D911C91ADECDE
:10096000B3E04D915C910E945748AFECB3E00D931A
:100970001C93AFECB3E00D911C91003050E01507D3
:1009800011F00C94C80470913802726070933802B0
:10099000A2E2B5E08C9181FB16F00C942905A2E24D
:1009A000B5E08C9180FB16F00C94FC04AFE0B6E04F
:1009B0000E942A48AFE0B6E00D911C91ABE0B6E092
:1009C0004D915C910E945748AFE0B6E00D931C93A7
:1009D000AFE0B6E00D911C91003050E0150711F02A
:1009E0000C94FC0470911306706870931306709158
:1009F00022057E7F70932205A3E1B6E08C9187FBF0
:100A000016F00C942905A1E1B6E00E942A48A1E164
:100A1000B6E00D911C91ADE0B6E04D915C910E9465
:100A20005748A1E1B6E00D931C93A1E1B6E00D910A
:100A30001C91003050E0150711F00C9429057091BD
:100A40002205716070932205709113067F77709371
:100A500013068F918BBF8F918FBFFF91EF91DF9125
:100A6000CF91BF91AF919F918F917F916F915F9146
:100A70004F913F912F911F910F91BF90AF907F9019
:100A80005F904F903F902F901F900F901895089572
:100A9000089508950F921F922F923F924F925F9266
:100AA0007F92AF92BF920F931F932F933F934F93D9
:100AB0005F936F937F938F939F93AF93BF93CF93E6
:100AC000DF93EF93FF938FB78F938BB78F93882725
:100AD0008BBF74E67093B200A7E5B5E08C918F5F91
:100AE0008C93A7E5B5E00C914AE00E94E74F8C9308
:100AF00000915705003011F00C946007002744273F
:100B0000A0E2B0E08C9180FB00F9A2E7B5E08C9107
:100B100080FB40F9042700FBA2E2B5E08C9182F94A
:100B20008C93A2E2B5E08C9182FBAFE8B5E08C91AA
:100B300080F98C9300274427A0E2B0E08C9181FBE0
:100B400000F9A2E7B5E08C9181FB40F9042700FB96
:100B5000A2E2B5E08C9182F98C93A2E2B5E08C918F
:100B600082FBAFE8B5E08C9181F98C930027442794
:100B7000A0E2B0E08C9182FB00F9A2E7B5E08C9195
:100B800082FB40F9042700FBA2E2B5E08C9182F9D8
:100B90008C93A2E2B5E08C9182FBAFE8B5E08C913A
:100BA00082F98C9300274427A0E2B0E08C9183FB6C
:100BB00000F9A2E7B5E08C9183FB40F9042700FB24
:100BC000A2E2B5E08C9182F98C93A2E2B5E08C911F
:100BD00082FBAFE8B5E08C9183F98C9381E0809340
:100BE000420500914205043018F011F00C946007A2
:100BF0000091420541E0041BA3E4B5E00C93A2E49C
:100C0000B5E0AD90BB24AFE8B5E0AA0DBB1D0C91DB
:100C1000003011F00C94280680914305AFE8B5E050
:100C20000E94284E0E941E4E0C900822689409F4DF
:100C3000E89416F40C94260682E0A2E4B5E0AD90A8
:100C4000BB24AFE8B5E0AA0DBB1D8C930C945807EC
:100C5000013011F00C94480680914305AFE8B5E0EF
:100C60000E94284E0E941E4E0C900822689409F49F
:100C7000E89416F00C94460683E0A2E4B5E0AD904B
:100C8000BB24AFE8B5E0AA0DBB1D8C930C945807AC
:100C9000023011F00C94D10680914305AFE8B5E025
:100CA0000E94284E0E941E4E0C900822689409F45F
:100CB000E89416F00C94760680E0A2E4B5E0AD90DE
:100CC000BB24AFE8B5E0AA0DBB1D8C9380E090E09B
:100CD000A2E4B5E0AD90BB24A2E4B5E0AA0CBB1C35
:100CE000AA0DBB1D8D939C930C94CF06A2E4B5E096
:100CF000AD90BB24A2E4B5E0AA0CBB1CAA0DBB1DA1
:100D00000E942A48A2E4B5E0AD90BB24A2E4B5E07D
:100D1000AA0CBB1CAA0DBB1D0D911C91A2E4B5E051
:100D2000AD90BB24A8E6B5E0AA0CBB1CAA0DBB1D68
:100D30004D915C910E945748A2E4B5E0AD90BB2470
:100D4000A2E4B5E0AA0CBB1CAA0DBB1D0D931C931D
:100D5000A2E4B5E0AD90BB24A2E4B5E0AA0CBB1CB4
:100D6000AA0DBB1D0D911C91003050E0150711F02C
:100D70000C94CF0681E0A2E4B5E0AD90BB24AFE8CF
:100D8000B5E0AA0DBB1D8C9380914305A4E5B5E0A9
:100D90000E94284E0E941E4E9C91982B9C930C946E
:100DA0005807033011F00C94580780914305AFE8C1
:100DB000B5E00E94284E0E941E4E0C9008226894B6
:100DC00009F4E89416F40C94FF0681E0A2E4B5E07F
:100DD000AD90BB24AFE8B5E0AA0DBB1D8C9380E0BD
:100DE00090E0A2E4B5E0AD90BB24AAE4B5E0AA0C83
:100DF000BB1CAA0DBB1D8D939C930C945807A2E4B9
:100E0000B5E0AD90BB24AAE4B5E0AA0CBB1CAA0DCA
:100E1000BB1D0E942A48A2E4B5E0AD90BB24AAE421
:100E2000B5E0AA0CBB1CAA0DBB1D0D911C91A2E440
:100E3000B5E0AD90BB24A0E6B5E0AA0CBB1CAA0DA2
:100E4000BB1D4D915C910E945748A2E4B5E0AD9066
:100E5000BB24AAE4B5E0AA0CBB1CAA0DBB1D0D93D4
:100E60001C93A2E4B5E0AD90BB24AAE4B5E0AA0CC3
:100E7000BB1CAA0DBB1D0D911C91003050E0150745
:100E800011F00C94580780E0A2E4B5E0AD90BB24CB
:100E9000AFE8B5E0AA0DBB1D8C9380914305A5E595
:100EA000B5E00E94284E0E941E4E9C91982B9C9368
:100EB000A2E4B5E08C918F5F8C9310F40C94F10553
:100EC0008F918BBF8F918FBFFF91EF91DF91CF916A
:100ED000BF91AF919F918F917F916F915F914F9152
:100EE0003F912F911F910F91BF90AF907F905F9096
:100EF0004F903F902F901F900F9018952F98E6EAF3
:100F0000F3EA0E943D4E0E9480480E948748A0E17B
:100F1000B1E2E6ECF3EA0E943D4E0E94CE4D0E9403
:100F200078480E948748A0E1B1E2EAEDF3EA0E9426
:100F30003D4E0E94CE4D0E9478480E948748A0E115
:100F4000B1E2E2EEF3EA0E943D4E0E94CE4D0E94D5
:100F500078480E948748E1E0F0E0A2E8B3E094E03E
:100F60000E94CA4FECEEF3EA0E943D4E0E94804878
:100F7000E2E8F3E0A0E1B1E20E94BB4B0E947848B6
:100F8000ECEFF3EA0E943D4E0E948048E2E8F3E075
:100F9000A0E1B1E20E94B34B0E9478480E948748CA
:100FA000E4EFF0E0A9EDB4E094E00E94CA4FEEEF68
:100FB000F3EA0E943D4E0E948048E9EDF4E0A0E192
:100FC000B1E20E94CE4E0E9478480E948748E8EF26
:100FD000F0E0A1E4B5E00E94C74FEAE1F4EA0E9424
:100FE0003D4E0E948048E1E4F5E0A0E1B1E20E94BC
:100FF000DB4E0E9478480E94874881E0809320025F
:1010000000912002043018F011F00C944508E0E241
:10101000F2E0A190BB24E5E0F0E0EA0DFB1DA0E2C8
:10102000B2E0AD90BB24A7E8B3E0AA0DBB1D0E94BF
:10103000C74FE0E3F4EA0E943D4E0E948048E0E2A0
:10104000F2E0A0E1B1E20E94DB4E0E947848E2E4C7
:10105000F4EA0E943D4E0E948048D201E0E2F2E0B4
:10106000A190BB24E7E8F3E0EA0DFB1D0E94684F66
:10107000D2010E947A480E948748A0E2B2E08C9197
:101080008F5F8C9310F40C940008E4E4F4EA0E945F
:101090003D4E0E9480480E94874881E08093240250
:1010A00000912402043018F011F00C94FF08EEE4D3
:1010B000F4EA0E943D4E0E948048E4E2F2E0A0E1A2
:1010C000B1E20E94DB4E0E9478480E94874881E08E
:1010D0008093250200912502043018F011F00C9441
:1010E000F708A4E2B2E00D91112701501040A0E3EF
:1010F000B2E00D931C93A0E3B2E00D911C9144E08B
:1011000050E00E94A14DA0E3B2E00D931C93A0E338
:10111000B2E00D911C91A5E2B2E04D915527040F6C
:10112000151FA0E3B2E00D931C93E0E3F2E0A19061
:10113000B190E6E0F0E0AA0CBB1CAA0CBB1CEA0DC7
:10114000FB1DA8E2B2E094E00E94CA4FA8E2B2E020
:101150000D911D912D913C91A0E3B2E0AD90BD9019
:10116000A9E8B3E0AA0CBB1CAA0CBB1CAA0DBB1DB2
:101170000D931D932D933C93A8E5B5E00C9100FBD6
:1011800016F00C94EF08E4E5F4EA0E943D4E0E944C
:101190008048E5E2F2E0A0E1B1E20E94DB4E0E946D
:1011A0007848E2E4F4EA0E943D4E0E948048E8E27A
:1011B000F2E0A0E1B1E20E94B34B0E947848EAE578
:1011C000F4EA0E943D4E0E948048E0E3F2E0A0E194
:1011D000B1E20E94CB4E0E9478480E948748A5E267
:1011E000B2E08C918F5F8C9310F40C946A08A4E2A7
:1011F000B2E08C918F5F8C9310F40C945008EEE564
:10120000F4EA0E943D4E0E9480480E94874881E097
:101210008093240200912402043018F011F00C9401
:10122000EA09EEE4F4EA0E943D4E0E948048E4E2BE
:10123000F2E0A0E1B1E20E94DB4E0E9478480E94F9
:10124000874881E08093250200912502043018F040
:1012500011F00C94E209EAE6F4EA0E943D4E0E9485
:101260008048E5E2F2E0A0E1B1E20E94DB4E0E949C
:1012700078480E948748A4E2B2E00D9111270150FE
:101280001040A0E3B2E00D931C93A0E3B2E00D91F7
:101290001C9140E250E00E94A14DA0E3B2E00D930A
:1012A0001C93A5E2B2E00D91112701501040A2E37A
:1012B000B2E00D931C93A2E3B2E00D911C9148E0C3
:1012C00050E00E94A14DA2E3B2E00D931C93A0E375
:1012D000B2E00D911C91A2E3B2E04D915C91040F3C
:1012E000151FA0E3B2E00D931C9381E080932702C9
:1012F00000912702083018F011F00C94DA090091DF
:10130000300240912702040FA6E8B3E00C93E6E810
:10131000F3E0A190BB24EBE4F0E0EA0DFB1DA6E8AE
:10132000B3E0AD90BB24A0EDB3E0AA0DBB1D0E94BD
:10133000C74FA8E5B5E00C9100FB16F00C94D2095C
:10134000E4E7F4EA0E943D4E0E948048E7E2F2E0C2
:10135000A0E1B1E20E94DB4E0E947848E2E4F4EAA8
:101360000E943D4E0E948048D201E6E8F3E0A19041
:10137000BB24E0EDF3E0EA0DFB1D0E94684FD201B3
:101380000E947A48EAE7F4EA0E943D4E0E948048B3
:10139000E6E8F3E0A0E1B1E20E94DB4E0E9478486B
:1013A0000E948748A7E2B2E08C918F5F8C9310F483
:1013B0000C947809A5E2B2E08C918F5F8C9310F4C5
:1013C0000C942409A4E2B2E08C918F5F8C9310F40A
:1013D0000C940A09EAE4F0E0ADECB3E00E94C94FD6
:1013E000EEE7F4EA0E943D4E0E948048EDECF3E007
:1013F000A0E1B1E20E94CB4E0E9478480E9487484B
:101400000E945E13ECE8F4EA0E943D4E0E94804880
:10141000A4E5B3E00E947A48E4E9F4EA0E943D4E74
:101420000E9480480E94874883E680935204E5E04A
:10143000F0E0A7E8B3E00E94C74FE6E9F4EA0E94B3
:101440003D4E0E948048E7E8F3E0A0E1B1E20E944F
:10145000DB4E0E9478480E94874800918703003045
:1014600018F011F00C94360A0C944D0A0091870381
:10147000053010F00C94400A0E94700C0C944B0A3A
:1014800080E080938703E4EAF4EA0E943D4E0E94E4
:1014900080480E9487480C94550AE4EBF4EA0E94C5
:1014A0003D4E0E9480480E94874881E08093200240
:1014B00000912002043018F011F00C94EB0AE0E2E5
:1014C000F2E0A190BB24E8ECF0E0AA0CBB1CAA0C53
:1014D000BB1CEA0DFB1DA0E2B2E0AD90BB24AEE662
:1014E000B4E0AA0CBB1CAA0CBB1CAA0DBB1D94E04B
:1014F0000E94CA4FE0E2F2E0A190BB24E8EDF0E0E8
:10150000AA0CBB1CAA0CBB1CEA0DFB1DA0E2B2E09E
:10151000AD90BB24AEE7B4E0AA0CBB1CAA0CBB1C6C
:10152000AA0DBB1D94E00E94CA4FE8ECF4EA0E94A9
:101530003D4E0E948048E0E2F2E0A0E1B1E20E946C
:10154000DB4E0E947848E2E4F4EA0E943D4E0E949D
:101550008048E0E2F2E0A190BB24EEE6F4E0AA0CC1
:10156000BB1CAA0CBB1CEA0DFB1DA0E1B1E20E9452
:10157000CE4E0E947848ECECF4EA0E943D4E0E9468
:101580008048E0E2F2E0A0E1B1E20E94DB4E0E947E
:101590007848E2E4F4EA0E943D4E0E948048E0E28E
:1015A000F2E0A190BB24EEE7F4E0AA0CBB1CAA0C6D
:1015B000BB1CEA0DFB1DA0E1B1E20E94CE4E0E94D1
:1015C00078480E948748A0E2B2E08C918F5F8C93AC
:1015D00010F40C94580AE9EFF0E0A8E5B5E00E9499
:1015E000C74FE2EDF4EA0E943D4E0E948048E8E5D4
:1015F000F5E0A0E1B1E20E94DB4E0E9478480E9433
:101600008748EAEFF0E0A9E5B5E00E94C94FA9E5F7
:10161000B5E00E942A48EAEDF4EA0E943D4E0E949D
:101620008048E9E5F5E0A0E1B1E20E94CB4E0E94DE
:1016300078480E948748EAEFF0E0A9E5B5E07BE74B
:101640000E94AD4FEEEFF0E0A0E6B5E00E94C74F7C
:10165000E4EEF4EA0E943D4E0E948048D201E0E6AA
:10166000F5E00E94684FD2010E947A480E948748A4
:1016700081E08093200200912002043018F011F0E4
:101680000C94170CE0E2F2E00191112747E050E0E2
:101690000E94A14DE9E0F1E0E00FF11FA0E2B2E00D
:1016A0000D91112747E050E00E94A14DACE6B5E056
:1016B000A00FB11F96E00E94D14FE6E0F5EA0E942C
:1016C0003D4E0E948048E0E2F2E0A0E1B1E20E94DB
:1016D000DB4E0E947848E2E4F4EA0E943D4E0E940C
:1016E0008048A0E2B2E00D91112747E050E00E944F
:1016F000A14DACE6B5E0A00FB11F0E947A480E9450
:101700008748E0E2F2E0A190BB24EDEFF0E0AA0C04
:10171000BB1CEA0DFB1DA0E2B2E0AD90BB24A0E62D
:10172000B5E0AA0CBB1CAA0DBB1D0E94C94FEEE080
:10173000F5EA0E943D4E0E948048E0E2F2E0A0E11E
:10174000B1E20E94DB4E0E947848E2E4F4EA0E9493
:101750003D4E0E948048E0E2F2E0A190BB24E0E62A
:10176000F5E0AA0CBB1CEA0DFB1DA0E1B1E20E9452
:10177000CB4E0E947848EAE1F5EA0E943D4E0E9475
:1017800080480E948748E0E2F2E0A190BB24E5E0B7
:10179000F1E0AA0CBB1CEA0DFB1DA0E2B2E0AD908B
:1017A000BB24A8E6B5E0AA0CBB1CAA0DBB1D0E9479
:1017B000C94FE2E2F5EA0E943D4E0E948048E0E215
:1017C000F2E0A0E1B1E20E94DB4E0E947848E2E440
:1017D000F4EA0E943D4E0E948048E0E2F2E0A190CF
:1017E000BB24E8E6F5E0AA0CBB1CEA0DFB1DA0E15A
:1017F000B1E20E94CB4E0E947848EAE1F5EA0E94ED
:101800003D4E0E9480480E94874885E0A0E2B2E0F9
:10181000AD90BB24A3E9B5E0AA0DBB1D8C93A0E25B
:10182000B2E08C918F5F8C9310F40C943B0BEFE043
:10183000F1E0A2E7B5E00E94C74FEEE2F5EA0E94B0
:101840003D4E0E948048D201E2E7F5E00E94684FD9
:10185000D2010E947A480E948748ECE2F1E0A8E9B0
:10186000B5E00E94C74FE6E3F5EA0E943D4E0E94B4
:101870008048D201E8E9F5E00E94684FD2010E9459
:101880007A480E948748EDE2F1E0ABE0B6E00E94C2
:10189000C94FEEE3F5EA0E943D4E0E948048EBE01E
:1018A000F6E0A0E1B1E20E94CB4E0E9478480E948F
:1018B0008748EFE2F1E0ADE0B6E00E94C94FEAE40C
:1018C000F5EA0E943D4E0E948048EDE0F6E0A0E17E
:1018D000B1E20E94CB4E0E9478480E94874808954A
:1018E0008091870380932402EEE4F4EA0E943D4E47
:1018F0000E948048E4E2F2E0A0E1B1E20E94DB4E07
:101900000E9478480E948748A4E2B2E0AD90BB24D0
:10191000A7E8B3E0AA0DBB1D8C9180938C03E6E58C
:10192000F5EA0E943D4E0E948048D201ECE8F3E0C7
:101930000E94684FD2010E947A480E94874881E045
:101940008093250200912502043018F011F00C94C8
:101950002D0DA4E2B2E00D91112701501040A0E33B
:10196000B2E00D931C93A0E3B2E00D911C9144E012
:1019700050E00E94A14DA0E3B2E00D931C93A0E3C0
:10198000B2E00D911C91A5E2B2E04D915527040FF4
:10199000151FA0E3B2E00D931C93A0E3B2E0AD905D
:1019A000BD90A9E8B3E0AA0CBB1CAA0CBB1CAA0DF5
:1019B000BB1D0D911D912D913C91A8E2B2E00D93BC
:1019C0001D932D933C93A8E2B2E00D911D912D91B2
:1019D0003C91A5E2B2E0AD90BB24AFE4B4E0AA0C28
:1019E000BB1CAA0CBB1CAA0DBB1D0D931D932D93F4
:1019F0003C93E4E6F5EA0E943D4E0E948048E5E211
:101A0000F2E0A0E1B1E20E94DB4E0E947848E2E4FD
:101A1000F4EA0E943D4E0E948048E8E2F2E0A0E134
:101A2000B1E20E94B34B0E947848EAE5F4EA0E94D2
:101A30003D4E0E948048E0E3F2E0A0E1B1E20E9466
:101A4000CB4E0E9478480E948748A5E2B2E08C9174
:101A50008F5F8C9310F40C94A20C089582E00E9486
:101A60009B4D82E00E949B4D81E00E949B4DAA8588
:101A7000BB850D91112701501040AC81BD810D93A4
:101A80001C93AC81BD810D911C9140E250E00E94FD
:101A9000A14DAC81BD810D931C93A885B9850D9195
:101AA000112701501040AA81BB810D931C93AA817C
:101AB000BB810D911C9148E050E00E94A14DAA818C
:101AC000BB810D931C93AC81BD810D911C91AA81AA
:101AD000BB814D915C91040F151FAC81BD810D93AD
:101AE0001C93AC81BD810D911C91AE81BF814D9144
:101AF0005527040F151FAC81BD810D931C93AC813C
:101B0000BD810D911C910F5F1F4FAC81BD810D9365
:101B10001C93AC81BD81AD90BD90A0EDB3E0AA0D4A
:101B2000BB1D8C91A881B9818C93E2E7F5EA0E94F4
:101B30003D4E0E948048EE81FF81A0E1B1E20E940B
:101B4000DB4E0E947848E2E4F4EA0E943D4E0E9497
:101B50008048D201E881F9810E94684FD2010E9439
:101B60007A48ECEFF3EA0E943D4E0E948048EC81F7
:101B7000FD81A0E1B1E20E94CB4E0E9478480E9414
:101B80008748A881B9818C9180FBA8E2B0E08C9154
:101B900080F98C93A881B9818C9181FBA8E2B0E097
:101BA0008C9181F98C93A881B9818C9182FBA8E2F8
:101BB000B0E08C9182F98C93A881B9818C9183FBE0
:101BC000A8E2B0E08C9183F98C93A881B9818C91C3
:101BD00084FBA8E2B0E08C9184F98C93A881B98150
:101BE0008C9185FBA8E2B0E08C9185F98C9385E01F
:101BF000481A80E0580A26960895409841984298DD
:101C000043984498459808950E94364AE8E0F2E0E7
:101C1000AEE1B3E00E948A4FAEE1B3E00E947148AA
:101C2000E6E7F5EA0E943D4E0E94CE4D0E94364AFC
:101C3000E1E1F2E0AEE1B3E00E9471480E948A4F18
:101C4000AEE1B3E00E947148E6E7F5EA0E943D4E3E
:101C50000E94CE4D81E080931F0281E080931E029E
:101C6000882780931D02AEE1B3E00E94AC48AEE14C
:101C7000B3E0E8E7F5EA0E943D4E0E94CE4DE7E86A
:101C8000F3E0AEE1B3E00E9471480E94DB4EAEE1AA
:101C9000B3E00E947148EAE7F5EA0E943D4E0E94D7
:101CA000CE4DACE8B3E08C9180FBAEE1B3E00E9496
:101CB00071480E942E4E8D9388278C93AEE1B3E03D
:101CC0000E947148EEE7F5EA0E943D4E0E94CE4D1B
:101CD000ACE8B3E08C9181FBAEE1B3E00E947148C7
:101CE0000E942E4E8D9388278C93AEE1B3E00E9424
:101CF0007148EEE7F5EA0E943D4E0E94CE4DACE8F9
:101D0000B3E08C9182FBAEE1B3E00E9471480E9487
:101D10002E4E8D9388278C93AEE1B3E00E947148DC
:101D2000E0E8F5EA0E943D4E0E94CE4DACE8B3E0FB
:101D30008C9183FBAEE1B3E00E9471480E942E4E6D
:101D40008D9388278C93AEE1B3E00E947148E2E85E
:101D5000F5EA0E943D4E0E94CE4DACE8B3E08C9176
:101D600084FBAEE1B3E00E9471480E942E4E8D9339
:101D700088278C93AEE1B3E00E947148E4E8F5EA6D
:101D80000E943D4E0E94CE4DACE8B3E08C9185FBA5
:101D9000AEE1B3E00E9471480E942E4E8D938827D9
:101DA0008C93AEE1B3E00E947148E6E8F5EA0E9448
:101DB0003D4E0E94CE4DACE8B3E08C9186FBAEE187
:101DC000B3E00E9471480E942E4E8D9388278C9319
:101DD000AEE1B3E00E947148E6E7F5EA0E943D4EAD
:101DE0000E94CE4D83E080931F0281E080931E020B
:101DF000882780931D02AEE1B3E00E94AC48A3E5C2
:101E0000B4E00D911D912D913C91A8E2B2E00D93AB
:101E10001D932D933C93E8E2F2E0AEE1B3E00E9423
:101E2000B34BAEE1B3E00E947148E6E7F5EA0E94E9
:101E30003D4E0E94CE4DA7E5B4E00D911D912D9130
:101E40003C91A8E2B2E00D931D932D933C93E8E200
:101E5000F2E0AEE1B3E00E9471480E94B34BAEE104
:101E6000B3E00E947148E6E7F5EA0E943D4E0E9409
:101E7000CE4D85E080931F0281E080931E0288276B
:101E800080931D02AEE1B3E00E94AC48ABE5B4E044
:101E90000D911D912D913C91A8E2B2E00D931D93FF
:101EA0002D933C93E8E2F2E0AEE1B3E00E94B34B45
:101EB000AEE1B3E00E947148E6E7F5EA0E943D4ECC
:101EC0000E94CE4DAFE5B4E00D911D912D913C9156
:101ED000A8E2B2E00D931D932D933C93E8E2F2E06B
:101EE000AEE1B3E00E9471480E94B34BAEE1B3E0B3
:101EF0000E947148E6E7F5EA0E943D4E0E94CE4DF1
:101F000087E080931F0281E080931E0288278093E0
:101F10001D02AEE1B3E00E94AC480895E5E0F0E0B8
:101F2000A0E1BB2781E08C937BE70E94AB4FEAE402
:101F3000F0E004E110E0A0E1BB277BE70E94AD4F99
:101F400081E08093200200912002043018F011F00B
:101F50000C94C10FE0E2F2E0A190BB24E5E0F0E0D8
:101F6000EA0DFB1DA0E1BB278FE78C937BE70E9466
:101F7000AB4FA0E2B2E08C918F5F8C9310F40C9485
:101F8000A30FAEE1B3E0E8E8F5EA0E943D4E0E94FF
:101F9000CE4DEEE1F3E00E944E4BADE8B3E00D9381
:101FA0001D932D933D93AEE1B3E0E2E9F5EA0E9483
:101FB0003D4E0E94CE4DEEE1F3E00E944E4BA1E972
:101FC000B3E00D931D932D933D93AEE1B3E0ECE9A7
:101FD000F5EA0E943D4E0E94CE4DEEE1F3E00E94F4
:101FE0004E4BA5E9B3E00D931D932D933D93AEE1C8
:101FF000B3E0E6EAF5EA0E943D4E0E94CE4DEEE1E6
:10200000F3E00E944E4BA9E9B3E00D931D932D938D
:102010003D93AEE1B3E0E0EBF5EA0E943D4E0E9455
:10202000CE4DEEE1F3E00E944E4BADE9B3E00D93EF
:102030001D932D933D93AEE1B3E0EAEBF5EA0E94E8
:102040003D4E0E94CE4DEEE1F3E00E944E4BA1EAE0
:10205000B3E00D931D932D933D93AEE1B3E0E4EC1B
:10206000F5EA0E943D4E0E94CE4DEEE1F3E00E9463
:102070004E4BA5EAB3E00D931D932D933D93AEE136
:10208000B3E0EEECF5EA0E943D4E0E94CE4DEEE14B
:10209000F3E00E944E4BA9EAB3E00D931D932D93FC
:1020A0003D93AEE1B3E0E8EDF5EA0E943D4E0E94BB
:1020B000CE4DEEE1F3E00E944E4BADEAB3E00D935E
:1020C0001D932D933D93AEE1B3E0E2EEF5EA0E945D
:1020D0003D4E0E94CE4DEEE1F3E00E944E4BA1EB4F
:1020E000B3E00D931D932D933D93AEE1B3E0ECEE81
:1020F000F5EA0E943D4E0E94CE4DEEE1F3E00E94D3
:102100004E4BA5EBB3E00D931D932D933D93AEE1A4
:10211000B3E0E6EFF5EA0E943D4E0E94CE4DEEE1BF
:10212000F3E00E944E4BA9EBB3E00D931D932D936A
:102130003D93AEE1B3E0E0E0F6EA0E943D4E0E943E
:10214000CE4DEEE1F3E00E944E4BADEBB3E00D93CC
:102150001D932D933D93AEE1B3E0EAE0F6EA0E94D1
:102160003D4E0E94CE4DEEE1F3E00E944E4BA1ECBD
:10217000B3E00D931D932D933D93AEE1B3E0E4E105
:10218000F6EA0E943D4E0E94CE4DEEE1F3E00E9441
:102190004E4BA5ECB3E00D931D932D933D93AEE113
:1021A000B3E0EEE1F6EA0E943D4E0E94CE4DEEE134
:1021B000F3E00E944E4BA9ECB3E00D931D932D93D9
:1021C0003D9381E08093250200912502003118F0B3
:1021D00011F00C940F11E5E2F2E0A190BB24E6E0CF
:1021E000F0E0AA0CBB1CAA0CBB1CEA0DFB1DA5E26F
:1021F000B2E0AD90BB24A9E8B3E0AA0CBB1CAA0CCA
:10220000BB1CAA0DBB1D94E07BE70E94AE4FA5E26C
:10221000B2E08C918F5F8C9310F40C94E41081E009
:102220008093240200912402043018F011F00C94E1
:10223000FD11EEE4F4EA0E943D4E0E948048E4E283
:10224000F2E0A0E1B1E20E94DB4E0E9478480E94D9
:10225000874881E08093250200912502043018F020
:1022600011F00C94F511EAE6F4EA0E943D4E0E944A
:102270008048E5E2F2E0A0E1B1E20E94DB4E0E947C
:1022800078480E948748A4E2B2E00D9111270150DE
:102290001040A0E3B2E00D931C93A0E3B2E00D91D7
:1022A0001C9140E250E00E94A14DA0E3B2E00D93EA
:1022B0001C93A5E2B2E00D91112701501040A2E35A
:1022C000B2E00D931C93A2E3B2E00D911C9148E0A3
:1022D00050E00E94A14DA2E3B2E00D931C93A0E355
:1022E000B2E00D911C91A2E3B2E04D915C91040F1C
:1022F000151FA0E3B2E00D931C9381E080932702A9
:1023000000912702083018F011F00C94ED110091A3
:10231000300240912702040FA6E8B3E00C93EAE8EC
:10232000F3E70E943D4EA7E2B2E08C919927A0E22C
:10233000B2E00E94F04D80912002A6E8B3E0AD909B
:10234000BB24A0EDB3E0AA0DBB1D8C93E6E8F3E03F
:10235000A190BB24EBE4F0E0EA0DFB1DA0E2B2E0AB
:102360007BE70E94AB4FE4E7F4EA0E943D4E0E94F7
:102370008048E7E2F2E0A0E1B1E20E94DB4E0E9479
:102380007848E2E4F4EA0E943D4E0E948048D2017F
:10239000E6E8F3E0A190BB24E0EDF3E0EA0DFB1DDD
:1023A0000E94684FD2010E947A48EAE7F4EA0E944C
:1023B0003D4E0E948048E6E8F3E0A0E1B1E20E94D1
:1023C000DB4E0E9478480E948748A7E2B2E08C91D9
:1023D0008F5F8C9310F40C948011A5E2B2E08C9185
:1023E0008F5F8C9310F40C942C11A4E2B2E08C91CA
:1023F0008F5F8C9310F40C941211E9EFF0E0A0E1E0
:10240000BB2780E08C937BE70E94AB4F80E08093FA
:10241000200281E08093240200912402043018F00D
:1024200011F00C9480120CE211E020E030E0A4E204
:10243000B2E0AD90BB24AEE6B4E0AA0CBB1CAA0C83
:10244000BB1CAA0DBB1D0D931D932D933C93E4E281
:10245000F2E0A190BB24E8ECF0E0AA0CBB1CAA0CB3
:10246000BB1CEA0DFB1DA4E2B2E0AD90BB24AEE6BE
:10247000B4E0AA0CBB1CAA0CBB1CAA0DBB1D94E0AB
:102480007BE70E94AE4FA0E2B2E08C91A4E2B2E002
:10249000AD90BB24AEE7B4E0AA0CBB1CAA0CBB1CDD
:1024A000AA0DBB1D8D9388278D938D938C93E4E2A9
:1024B000F2E0A190BB24E8EDF0E0AA0CBB1CAA0C52
:1024C000BB1CEA0DFB1DA4E2B2E0AD90BB24AEE75D
:1024D000B4E0AA0CBB1CAA0CBB1CAA0DBB1D94E04B
:1024E0007BE70E94AE4FA0E2B2E08C91845C8C93BB
:1024F000A4E2B2E08C918F5F8C9310F40C940C12D8
:1025000081E08093240200912402043018F011F03D
:102510000C94D512AEE1B3E0E8E2F6EA0E943D4E3B
:102520000E94CE4DE4E2F2E0AEE1B3E00E947148D9
:102530000E94DB4EE4E2F2E00191112747E050E017
:102540000E94A14DE9E0F1E0E00FF11FAEE1B3E040
:102550007BE70E94BC4FE4E2F2E0A190BB24EDEFE8
:10256000F0E0AA0CBB1CEA0DFB1D0AE010E0A0E1A4
:10257000BB277BE70E94AD4FE4E2F2E0A190BB24D1
:10258000E5E0F1E0AA0CBB1CEA0DFB1D0AE010E03F
:10259000A0E1BB277BE70E94AD4FA4E2B2E08C91A3
:1025A0008F5F8C9310F40C948312EFE0F1E0A0E1C4
:1025B000BB278FE08C937BE70E94AB4FECE2F1E00E
:1025C000A0E1BB278FE08C937BE70E94AB4FEDE24D
:1025D000F1E00CE310E0A0E1BB277BE70E94AD4FE8
:1025E000EFE2F1E00EE110E0A0E1BB277BE70E9403
:1025F000AD4F0895ECE2F6EA0E943D4E0E948048FD
:102600000E948748E0E0F0E0A3E5B3E00E94C74FF6
:1026100080E080932102A3E1B6E08C9180FB16F06C
:102620000C942513709113067E7F70931306E6E4D5
:10263000F6EA0E943D4E0E948048A4ECBAE00E9457
:102640007A480E9487480E94EF1300912C050130C0
:1026500011F00C944F1370912C057E7F70932C0514
:10266000A0E2B2E08C918F5F8C93A1E2B2E08C91FA
:102670008F5F8C93A0E2B2E00C914AE00E94E74F9A
:102680008C9300912002003011F00C944F13ECE475
:10269000F6EA0E943D4E0E9480480E9487480091C1
:1026A0005303013011F00C940B13EEE6F6EA0E948E
:1026B0003D4E0E9480480E948748089580E08093A4
:1026C000200280E080932102A4E5B3E088278C9368
:1026D0008EE08093200200912002073118F011F063
:1026E0000C948713E09120020E948A4D082FE0E1AC
:1026F000F0E0A4E5B3E00E9471480E944F4FA0E2D1
:10270000B2E08C918F5F8C9310F40C946B13E4E522
:10271000F3E0A3E4B2E00E948A4FA4E5B3E0882787
:102720008C938EE08093200200912002073118F0F4
:1027300011F00C94B013E09120020E948A4D082FF2
:10274000E0E1F0E0A4E5B3E00E9471480E944F4F41
:10275000A0E2B2E08C918F5F8C9310F40C949413F0
:10276000E3E4F2E0A4E5B3E00E94FF4F11F00C9423
:10277000BC1381E080932002A1E2B2E08C918F5FD4
:102780008C9300912002003011F00C94DB1384EF45
:1027900091E00E943A49E2E8F6EA0E943D4E0E942A
:1027A0008048E1E2F2E0A0E1B1E20E94DB4E0E944B
:1027B00078480E94874800912002013081E009F0AA
:1027C00080E08F93009121020A3081E009F080E0DF
:1027D0009F91892B882311F40C9464130895E8E8E1
:1027E000F6EA0E943D4E0E948048A4ECBAE00E94A6
:1027F0007A480E94874881E0E4ECFAE006E00A9318
:10280000AEE1B3E00E94954FE4ECFAE09CE204E113
:1028100032E2A0E3B7E00E943150AFE2B7E02C9380
:10282000A0E3B7E00E94F74F082F063011F00C9498
:10283000D929E0E3F7E0ACE3B2E00E948A4FECE391
:10284000F2E0ACE3B2E00E94124E8FEF80930C03F3
:10285000ACE3B2E0EAE8F6EA0E943D4E0E94FD4F8A
:1028600011F00C94741480E080930C03A3E4B2E0A4
:10287000E2E9F6EA0E943D4E0E94CE4DAEE1B3E0A1
:10288000E6ECF3EA0E943D4E0E94CE4DEEE1F3E00D
:10289000A3E4B2E00E9471480E948A4FA3E4B2E030
:1028A0000E947148E6EAF6EA0E943D4E0E94CE4D33
:1028B000AEE1B3E0E2EEF3EA0E943D4E0E94CE4D5F
:1028C000EEE1F3E0A3E4B2E00E9471480E948A4F77
:1028D000A3E4B2E00E947148E4E9F4EA0E943D4EAC
:1028E0000E94CE4D0C94D729E4EBF6EA0E943D4EAF
:1028F0000E94FD4F11F00C949B1480E080930C0318
:10290000A3E4B2E0ECEBF6EA0E943D4E0E94CE4D0D
:102910007091380270627093380281E080935303A3
:10292000E0E0F0E0A3E5B3E07BE70E94AB4F0E945C
:102930008E0F0C94D729EAEEF6EA0E943D4E0E94D3
:10294000FD4F11F00C94C51480E080930C030E949D
:102950005E13A3E4B2E0E2EFF6EA0E943D4E0E946D
:10296000CE4DE4E5F3E0A3E4B2E00E9471480E949A
:102970008A4FA3E4B2E00E947148E4E9F4EA0E94BD
:102980003D4E0E94CE4D0C94D729ECEFF6EA0E9402
:102990003D4E0E94FD4F11F00C94041500912F073D
:1029A000023011F00C94FF14A5E4B7E00E94204F10
:1029B000A0E2B2E00C9300912002013110F00C94DF
:1029C000FA1480E080930C03A3E4B2E0E4E0F7EAB9
:1029D0000E943D4E0E94CE4DE0E2F2E0A3E4B2E060
:1029E0000E9471480E94DB4E8091200280932B054B
:1029F0000C94FD1485E080930C030C94021584E084
:102A000080930C030C94D729ECE1F7EA0E943D4E29
:102A10000E94FD4F11F00C94131600912F07023005
:102A200011F00C940E16A5E4B7E00E94F74F082FA2
:102A30000C3011F00C94091680E080930C0387E0B1
:102A4000E5E4F7E002E00A93AEE1B3E00E94954FBF
:102A5000AEE1B3E00E947148E4E2F7EA0E943D4E25
:102A60000E94CE4D89E0E5E4F7E002E00A93AEE192
:102A7000B3E00E9471480E94954FAEE1B3E00E941E
:102A80007148E4E2F7EA0E943D4E0E94CE4D8BE091
:102A9000E5E4F7E002E00A93AEE1B3E00E9471489A
:102AA0000E94954FAEE1B3E00E947A480E948748A9
:102AB000EEE1F3E0A1E1B2E00E948A4F0E94494AB0
:102AC000E6E2F7EA0E943D4E0E9480480E94364AA4
:102AD000A1E1B2E00E947A480E94874881E0E5E4E3
:102AE000F7E002E00A93AEE1B3E00E94954FAEE159
:102AF000B3E00E947148EAE2F7EA0E943D4E0E946C
:102B0000CE4D83E0E5E4F7E002E00A93AEE1B3E006
:102B10000E9471480E94954FAEE1B3E00E94714857
:102B2000EAE2F7EA0E943D4E0E94CE4D85E0E5E4E0
:102B3000F7E002E00A93AEE1B3E00E9471480E9420
:102B4000954FAEE1B3E00E947A480E948748EEE1DB
:102B5000F3E0A8E0B2E00E948A4F0E94414AECE212
:102B6000F7EA0E943D4E0E9480480E94364AA8E043
:102B7000B2E00E947A480E948748A3E4B2E0E0E312
:102B8000F7EA0E943D4E0E94CE4D0E94364AE8E090
:102B9000F2E0A3E4B2E00E9471480E948A4FA3E4ED
:102BA000B2E00E947148EAE5F7EA0E943D4E0E94B9
:102BB000CE4D0E94364AE1E1F2E0A3E4B2E00E9489
:102BC00071480E948A4FE5E0F2E00E94994AABE624
:102BD000B3E08C930E94292B0E94732B0E94A22A9F
:102BE000E2E0F2E00E947A4BA2E8B3E00D931D937D
:102BF0002D933D93E1E0F0E0A2E8B3E094E07BE7C1
:102C00000E94AE4F709138027061709338020C943C
:102C10000C1686E080930C030C94111684E08093CC
:102C20000C030C94D729EEE5F7EA0E943D4E0E9472
:102C3000FD4F11F00C94291680E080930C03A3E45F
:102C4000B2E0E6E6F7EA0E943D4E0E94CE4D0C94BB
:102C5000D729EEE6F7EA0E943D4E0E94FD4F11F0A3
:102C60000C94691680E080930C030E94364AE1E1DF
:102C7000F2E0AEE1B3E00E948A4FA3E4B2E0E6E7FF
:102C8000F7EA0E943D4E0E94CE4DEEE1F3E0A3E450
:102C9000B2E00E9471480E948A4FA3E4B2E00E9411
:102CA0007148E4E8F7EA0E943D4E0E94CE4D0E9432
:102CB000364AE8E0F2E0AEE1B3E00E948A4FEEE18E
:102CC000F3E0A3E4B2E00E9471480E948A4F0C94A2
:102CD000D729E4E9F7EA0E943D4E0E94FD4F11F02A
:102CE0000C94A51680E080930C03E2E8F3E0AEE1DB
:102CF000B3E00E94B34BA3E4B2E0ECE9F7EA0E9430
:102D00003D4E0E94CE4DEEE1F3E0A3E4B2E00E941E
:102D100071480E948A4FA3E4B2E00E947148E0EB40
:102D2000F7EA0E943D4E0E94CE4DE2E8F3E0AEE1AC
:102D3000B3E00E94BB4BEEE1F3E0A3E4B2E00E94FB
:102D400071480E948A4F0C94D729E8EBF7EA0E9459
:102D50003D4E0E94FD4F11F00C94AE1700912F07CD
:102D6000043011F00C94A917A5E4B7E00E94204F9D
:102D7000A1E2B2E00C9300912102003080E010F05B
:102D800009F081E08F9300912102053081E008F085
:102D900080E09F918923882311F40C94A417AAE55D
:102DA000B7E00E94204FA0E2B2E00C930091200215
:102DB000003080E010F009F081E08F930091200254
:102DC000053081E008F080E09F918923882311F489
:102DD0000C949F1780E080930C03EFE6F7E0AEE1E0
:102DE000B3E00E948A4FA1E2B2E00D911127015099
:102DF0001040A0E3B2E00D931C93A0E3B2E00D916C
:102E00001C9144E050E00E94A14DA0E3B2E00D937C
:102E10001C93A0E3B2E00D911C91A0E2B2E04D91B1
:102E20005527040F151FA0E3B2E00D931C93E0ECAF
:102E3000F7EA0E943D4E0E948048E0E3F2E0A0E104
:102E4000B1E20E94CB4E0E9478480E948748EEE192
:102E5000F3E00E944E4BA0E3B2E0AD90BD90A9E834
:102E6000B3E0AA0CBB1CAA0CBB1CAA0DBB1D0D9386
:102E70001D932D933D93E0E3F2E0A190B190E6E045
:102E8000F0E0AA0CBB1CAA0CBB1CEA0DFB1DA0E3C6
:102E9000B2E0AD90BD90A9E8B3E0AA0CBB1CAA0CAF
:102EA000BB1CAA0DBB1D94E07BE70E94AE4FE0E384
:102EB000F2E0A190B190E9E8F3E0AA0CBB1CAA0CE7
:102EC000BB1CEA0DFB1DAEE1B3E00E94B34BA3E4D3
:102ED000B2E0EAECF7EA0E943D4E0E94CE4DE0E2FD
:102EE000F2E0A3E4B2E00E9471480E94DB4EA3E44A
:102EF000B2E00E947148EAE5F7EA0E943D4E0E9466
:102F0000CE4DEEE1F3E0A3E4B2E00E9471480E94EE
:102F10008A4FA3E4B2E00E947148E8EDF7EA0E940C
:102F20003D4E0E94CE4DE1E2F2E0A3E4B2E00E9409
:102F300071480E94DB4E0E94700C0C94A21786E030
:102F400080930C030C94A71785E080930C030C94DA
:102F5000AC1784E080930C030C94D729E2EEF7EAD7
:102F60000E943D4E0E94FD4F11F00C947F1800917D
:102F70002F07033011F00C947A18A5E4B7E00E94F3
:102F8000204FA1E2B2E00C9300912102003080E0DA
:102F900010F009F081E08F9300912102053081E06B
:102FA00008F080E09F918923882311F40C94751810
:102FB000AAE5B7E00E94204FA0E2B2E00C93009196
:102FC0002002003080E010F009F081E08F93009142
:102FD0002002053081E008F080E09F91892388235A
:102FE00011F40C94701880E080930C03A1E2B2E01D
:102FF0000D91112701501040A0E3B2E00D931C93F6
:10300000A0E3B2E00D911C9144E050E00E94A14D7C
:10301000A0E3B2E00D931C93A0E3B2E00D911C91EC
:10302000A0E2B2E04D915527040F151FA0E3B2E0D6
:103030000D931C93E0ECF7EA0E943D4E0E948048FD
:10304000E0E3F2E0A0E1B1E20E94CB4E0E947848BA
:103050000E948748E0E3F2E0A190B190E9E8F3E054
:10306000AA0CBB1CAA0CBB1CEA0DFB1DAEE1B3E015
:103070000E94B34BA3E4B2E0EAEEF7EA0E943D4EB1
:103080000E94CE4DE0E2F2E0A3E4B2E00E9471487B
:103090000E94DB4EA3E4B2E00E947148E2EFF7EA3F
:1030A0000E943D4E0E94CE4DEEE1F3E0A3E4B2E07B
:1030B0000E9471480E948A4FA3E4B2E00E947148C6
:1030C000E8EDF7EA0E943D4E0E94CE4DE1E2F2E0CB
:1030D000A3E4B2E00E9471480E94DB4E0C94731886
:1030E00086E080930C030C94781885E080930C03A1
:1030F0000C947D1884E080930C030C94D729E6EFA0
:10310000F7EA0E943D4E0E94FD4F11F00C94D11839
:1031100000912F07023011F00C94CC18A5E4B7E011
:103120000E94204FA0E3B2E00D931C93A0E3B2E015
:103130000D911C91003050E0150718F011F00C941F
:10314000A3180C94C71880E080930C03A0E3B2E0AE
:103150008D919C91ADECB3E08D939C93A3E4B2E090
:10316000EEEFF7EA0E943D4E0E94CE4DEDECF3E00B
:10317000A3E4B2E00E9471480E94CB4EEAE4F0E082
:10318000ADECB3E07BE70E94AD4F0C94CA1885E02C
:1031900080930C030C94CF1884E080930C030C9460
:1031A000D729E4E1F8EA0E943D4E0E94FD4F11F05C
:1031B0000C94EF1880E080930C03A3E4B2E0ECE100
:1031C000F8EA0E943D4E0E94CE4DEDECF3E0A3E400
:1031D000B2E00E9471480E94CB4E0C94D729E4E2E1
:1031E000F8EA0E943D4E0E94FD4F11F00C944119E7
:1031F00000912F07023011F00C943C19A5E4B7E0C0
:103200000E94204FA0E3B2E00D931C93A0E3B2E034
:103210000D911C91003050E0150718F011F00C943E
:1032200013190C94371980E080930C03A0E3B2E0EB
:103230008D919C91ABE0B6E08D939C93A3E4B2E0BA
:10324000ECE2F8EA0E943D4E0E94CE4DEBE0F6E043
:10325000A3E4B2E00E9471480E94CB4EEDE2F1E09F
:10326000ABE0B6E07BE70E94AD4F0C943A1985E0E5
:1032700080930C030C943F1984E080930C030C940E
:10328000D729E4E4F8EA0E943D4E0E94FD4F11F078
:103290000C945F1980E080930C03A3E4B2E0EEE3AA
:1032A000F5EA0E943D4E0E94CE4DEBE0F6E0A3E42D
:1032B000B2E00E9471480E94CB4E0C94D729ECE4F6
:1032C000F8EA0E943D4E0E94FD4F11F00C94B11996
:1032D00000912F07023011F00C94AC19A5E4B7E06F
:1032E0000E94204FA0E3B2E00D931C93A0E3B2E054
:1032F0000D911C91003050E0150718F011F00C945E
:1033000083190C94A71980E080930C03A0E3B2E02A
:103310008D919C91ADE0B6E08D939C93A3E4B2E0D7
:10332000E4E5F8EA0E943D4E0E94CE4DEDE0F6E065
:10333000A3E4B2E00E9471480E94CB4EEFE2F1E0BC
:10334000ADE0B6E07BE70E94AD4F0C94AA1985E092
:1033500080930C030C94AF1984E080930C030C94BD
:10336000D729EEE6F8EA0E943D4E0E94FD4F11F08B
:103370000C94CF1980E080930C03A3E4B2E0EAE45C
:10338000F5EA0E943D4E0E94CE4DEDE0F6E0A3E44A
:10339000B2E00E9471480E94CB4E0C94D729E6E718
:1033A000F8EA0E943D4E0E94FD4F11F00C940B1B59
:1033B00000912F07053011F00C94061BA5E4B7E02F
:1033C0000E94204FA1E2B2E00C9300912102003054
:1033D00080E010F009F081E08F9300912102053028
:1033E00081E008F080E09F918923882311F40C94F8
:1033F000011BAAE5B7E00E94204FA2E2B2E00C93C5
:1034000000912202003080E010F009F081E08F93FB
:1034100000912202053081E008F080E09F9189232D
:10342000882311F40C94FC1AAFE6B7E00E94204FF9
:10343000A0E2B2E00C9300912002003080E010F096
:1034400009F081E08F9300912002093081E008F0BB
:1034500080E09F918923882311F40C94F71AA1E24C
:10346000B2E00D91112701501040A0E3B2E00D939E
:103470001C93A0E3B2E00D911C9140E250E00E9449
:10348000A14DA0E3B2E00D931C93A2E2B2E00D9136
:10349000112701501040A2E3B2E00D931C93A2E368
:1034A000B2E00D911C9148E050E00E94A14DA2E3D2
:1034B000B2E00D931C93A0E3B2E00D911C91A2E346
:1034C000B2E04D915C91040F151FA0E3B2E00D93A3
:1034D0001C93A0E3B2E00D911C91A0E2B2E04D91EB
:1034E0005527040F151FA0E3B2E00D931C93EEE7E0
:1034F000F8EA0E943D4E0E948048E0E3F2E0A0E13D
:10350000B1E20E94CB4E0E9478480E948748A4E80E
:10351000B7E00E94784FA3E2B2E00C9380912302BF
:10352000A0E3B2E0AD90BD90A0EDB3E0AA0DBB1D4D
:103530008C93E0E3F2E0A190B190EBE4F0E0EA0DCF
:10354000FB1DA3E2B2E07BE70E94AB4F80E08093DB
:103550000C03A3E4B2E0E8E8F8EA0E943D4E0E94C2
:10356000CE4DE0E2F2E0A3E4B2E00E9471480E9496
:10357000DB4EA3E4B2E00E947148E8E9F8EA0E9459
:103580003D4E0E94CE4DE2E2F2E0A3E4B2E00E94A2
:1035900071480E94DB4EA3E4B2E00E947148E6EA63
:1035A000F8EA0E943D4E0E94CE4DE1E2F2E0A3E433
:1035B000B2E00E9471480E94DB4EA3E4B2E00E9498
:1035C0007148E2E4F4EA0E943D4E0E94CE4DA3E42D
:1035D000B2E00E947148E0E3F2E0A190B190E0ED2A
:1035E000F3E0EA0DFB1D0E94684F0C94FA1A87E085
:1035F00080930C030C94FF1A86E080930C030C94C8
:10360000041B85E080930C030C94091B84E08093D9
:103610000C030C94D729E0EBF8EA0E943D4E0E947F
:10362000FD4F11F00C94281C00912F07043011F06D
:103630000C94231CA5E4B7E00E94204FA1E2B2E065
:103640000C9300912102003080E010F009F081E03D
:103650008F9300912102053081E008F080E09F9176
:103660008923882311F40C941E1CAAE5B7E00E945C
:10367000204FA2E2B2E00C9300912202003080E0E1
:1036800010F009F081E08F9300912202053081E073
:1036900008F080E09F918923882311F40C94191C71
:1036A000AFE6B7E00E94204FA0E2B2E00C93009199
:1036B0002002003080E010F009F081E08F9300914B
:1036C0002002093081E008F080E09F91892388235F
:1036D00011F40C94141C80E080930C03A1E2B2E07E
:1036E0000D91112701501040A0E3B2E00D931C93FF
:1036F000A0E3B2E00D911C9140E250E00E94A14D88
:10370000A0E3B2E00D931C93A2E2B2E00D91112769
:1037100001501040A2E3B2E00D931C93A2E3B2E08B
:103720000D911C9148E050E00E94A14DA2E3B2E04F
:103730000D931C93A0E3B2E00D911C91A2E3B2E0C3
:103740004D915C91040F151FA0E3B2E00D931C9303
:10375000A0E3B2E00D911C91A0E2B2E04D9155279B
:10376000040F151FA0E3B2E00D931C93E8EBF8EAF9
:103770000E943D4E0E948048E0E3F2E0A0E1B1E209
:103780000E94CB4E0E9478480E948748A3E4B2E092
:10379000E4E7F4EA0E943D4E0E94CE4DE0E2F2E002
:1037A000A3E4B2E00E9471480E94DB4EA3E4B2E0C1
:1037B0000E947148E8E9F8EA0E943D4E0E94CE4D11
:1037C000E2E2F2E0A3E4B2E00E9471480E94DB4E24
:1037D000A3E4B2E00E947148E6EAF8EA0E943D4E96
:1037E0000E94CE4DE1E2F2E0A3E4B2E00E94714813
:1037F0000E94DB4EA3E4B2E00E947148E2E4F4EAE6
:103800000E943D4E0E94CE4DA3E4B2E00E9471485A
:10381000E0E3F2E0A190B190E0EDF3E0EA0DFB1DF2
:103820000E94684F0C94171C87E080930C030C9443
:103830001C1C86E080930C030C94211C85E0809373
:103840000C030C94261C84E080930C030C94D72961
:10385000E6ECF8EA0E943D4E0E94FD4F11F00C94F8
:10386000861C00912F07023011F00C94811CA5E4F6
:10387000B7E00E94204FA1E2B2E00C930091210238
:10388000003080E010F009F081E08F930091210278
:10389000053081E008F080E09F918923882311F4AE
:1038A0000C947C1C80E080930C03A5E4B7E00E949C
:1038B000204FA7E8B3E00C93E5E0F0E0A7E8B3E021
:1038C0007BE70E94AB4FA3E4B2E0EEECF8EA0E9483
:1038D0003D4E0E94CE4DE7E8F3E0A3E4B2E00E9443
:1038E00071480E94DB4E0E94700C7091400572601E
:1038F000709340050C947F1C85E080930C030C941E
:10390000841C84E080930C030C94D729ECEEF8EA35
:103910000E943D4E0E94FD4F11F00C94A91C80E0C6
:1039200080930C03A3E4B2E0E6E9F4EA0E943D4E82
:103930000E94CE4DE7E8F3E0A3E4B2E00E947148B4
:103940000E94DB4E70916E04706470936E040C9450
:10395000D729E4EFF8EA0E943D4E0E94FD4F11F096
:103960000C942C1D00912F07033011F00C94271D8F
:10397000A5E4B7E00E94204FA1E2B2E00C930091D1
:103980002102003080E010F009F081E08F93009177
:103990002102053081E008F080E09F91892388238F
:1039A00011F40C94221D80E080930C03AAE5B7E08B
:1039B0000E94784FA1E2B2E0AD90BB24A7E8B3E04B
:1039C000AA0DBB1D0C93E1E2F2E0A190BB24E5E05F
:1039D000F0E0EA0DFB1DA1E2B2E0AD90BB24A7E848
:1039E000B3E0AA0DBB1D7BE70E94AB4FA3E4B2E09E
:1039F000ECEFF8EA0E943D4E0E94CE4DE7E8F3E07E
:103A0000A3E4B2E00E9471480E94DB4EA3E4B2E05E
:103A10000E947148EAE5F7EA0E943D4E0E94CE4DB1
:103A2000A3E4B2E00E947148E1E2F2E0A190BB247D
:103A3000E7E8F3E0EA0DFB1D0E94684F0E94700C5E
:103A40000C94251D85E080930C030C942A1D84E0C2
:103A500080930C030C94D729EAE1F9EA0E943D4EC9
:103A60000E94FD4F11F00C94861D00912F0702302B
:103A700011F00C94811D00912102003080E010F0C3
:103A800009F081E08F9300912102053081E008F078
:103A900080E09F918923882311F40C947C1D80E0A1
:103AA00080930C03A3E4B2E0E2E2F9EA0E943D4E07
:103AB0000E94CE4DE7E8F3E0A3E4B2E00E94714833
:103AC0000E94DB4EA3E4B2E00E947148E6E3F9EA0B
:103AD0000E943D4E0E94CE4DA3E4B2E00E94714888
:103AE000E1E2F2E0A190BB24E7E8F3E0EA0DFB1D80
:103AF0000E94684F0C947F1D85E080930C030C940A
:103B0000841D84E080930C030C94D729EAE3F9EA3E
:103B10000E943D4E0E94FD4F11F00C942D1E00910D
:103B20002F07033011F00C94281EA5E4B7E00E9483
:103B3000204FA4E2B2E00C9300912402003080E018
:103B400010F009F081E08F9300912402053081E0AC
:103B500008F080E09F918923882311F40C94231EA0
:103B6000AAE5B7E00E94204FACE2B2E00D931D93AE
:103B70002D933D93ACE2B2E00D911D912D913C91BE
:103B8000A4E2B2E0AD90BB24AEE6B4E0AA0CBB1C4C
:103B9000AA0CBB1CAA0DBB1D0D931D932D933C932A
:103BA000E4E2F2E0A190BB24E8ECF0E0AA0CBB1C3C
:103BB000AA0CBB1CEA0DFB1DACE2B2E094E07BE773
:103BC0000E94AE4F80E080930C03A3E4B2E0E2E4F5
:103BD000F9EA0E943D4E0E94CE4DE4E2F2E0A3E4F9
:103BE000B2E00E9471480E94DB4EA3E4B2E00E9462
:103BF0007148E4E2F7EA0E943D4E0E94CE4DE4E2B5
:103C0000F2E0A190BB24EEE6F4E0AA0CBB1CAA0CE7
:103C1000BB1CEA0DFB1DA3E4B2E00E9471480E94A8
:103C2000CE4EE4E2F2E0A190BB24EEE6F4E0AA0C72
:103C3000BB1CAA0CBB1CEA0DFB1DA2E9B4E00E9450
:103C4000CE4E0C94261E83E080930C030C942B1E06
:103C500084E080930C030C94D729E8E5F9EA0E94EC
:103C60003D4E0E94FD4F11F00C94D41E00912F0781
:103C7000033011F00C94CF1EA5E4B7E00E94204F52
:103C8000A4E2B2E00C9300912402003080E010F036
:103C900009F081E08F9300912402053081E008F063
:103CA00080E09F918923882311F40C94CA1EAAE511
:103CB000B7E00E94204FACE2B2E00D931D932D932C
:103CC0003D93ACE2B2E00D911D912D913C91A4E2A7
:103CD000B2E0AD90BB24AEE7B4E0AA0CBB1CAA0CCA
:103CE000BB1CAA0DBB1D0D931D932D933C93E4E2C9
:103CF000F2E0A190BB24E8EDF0E0AA0CBB1CAA0CFA
:103D0000BB1CEA0DFB1DACE2B2E094E07BE70E9435
:103D1000AE4F80E080930C03A3E4B2E0E2E4F9EA62
:103D20000E943D4E0E94CE4DE4E2F2E0A3E4B2E0F8
:103D30000E9471480E94DB4EA3E4B2E00E947148E9
:103D4000E4E2F7EA0E943D4E0E94CE4DE4E2F2E04A
:103D5000A190BB24EEE7F4E0AA0CBB1CAA0CBB1C90
:103D6000EA0DFB1DA3E4B2E00E9471480E94CE4E12
:103D7000E4E2F2E0A190BB24EEE7F4E0AA0CBB1C65
:103D8000AA0CBB1CEA0DFB1DA2E9B4E00E94CE4EBA
:103D90000C94CD1E83E080930C030C94D21E84E01F
:103DA00080930C030C94D729E0E6F9EA0E943D4E7B
:103DB0000E94FD4F11F00C94791F00912F070230E3
:103DC00011F00C94741FA5E4B7E00E94204FA4E208
:103DD000B2E00C9300912402003080E010F009F072
:103DE00081E08F9300912402053081E008F080E0AB
:103DF0009F918923882311F40C946F1FA3E4B2E0F0
:103E0000E8E6F9EA0E943D4E0E94CE4DE4E2F2E07F
:103E1000A3E4B2E00E9471480E94DB4EA3E4B2E04A
:103E20000E947148E4E2F7EA0E943D4E0E94CE4DA6
:103E3000E4E2F2E0A190BB24EEE6F4E0AA0CBB1CA5
:103E4000AA0CBB1CEA0DFB1DA3E4B2E00E94714862
:103E50000E94CE4E80E080930C03E8E8F6EA0E94D0
:103E60003D4E0E948048E4E2F2E0A0E1B1E20E940F
:103E7000DB4E0E947848ECEFF3EA0E943D4E0E9430
:103E80008048E4E2F2E0A190BB24EEE6F4E0AA0C64
:103E9000BB1CAA0CBB1CEA0DFB1DA0E1B1E20E94F9
:103EA000CE4E0E9478480E948748E0E7F9EA0E94D7
:103EB0003D4E0E9480480E948748E4E2F2E0A190D3
:103EC000BB24EEE6F4E0AA0CBB1CAA0CBB1CEA0D5A
:103ED000FB1DA2E9B4E00E94CE4E0C94721F83E059
:103EE00080930C030C94771F84E080930C030C9454
:103EF000D729E4E7F9EA0E943D4E0E94FD4F11F0F8
:103F00000C941E2000912F07023011F00C94192000
:103F1000A5E4B7E00E94204FA4E2B2E00C93009128
:103F20002402003080E010F009F081E08F930091CE
:103F30002402053081E008F080E09F9189238823E6
:103F400011F40C941420A3E4B2E0ECE7F9EA0E9427
:103F50003D4E0E94CE4DE4E2F2E0A3E4B2E00E94C6
:103F600071480E94DB4EA3E4B2E00E947148E4E293
:103F7000F7EA0E943D4E0E94CE4DE4E2F2E0A190AD
:103F8000BB24EEE7F4E0AA0CBB1CAA0CBB1CEA0D98
:103F9000FB1DA3E4B2E00E9471480E94CE4E80E077
:103FA00080930C03E8E8F6EA0E943D4E0E948048A8
:103FB000E4E2F2E0A0E1B1E20E94DB4E0E94784828
:103FC000ECEFF3EA0E943D4E0E948048E4E2F2E00A
:103FD000A190BB24EEE7F4E0AA0CBB1CAA0CBB1C0E
:103FE000EA0DFB1DA0E1B1E20E94CE4E0E9478488E
:103FF0000E948748E0E7F9EA0E943D4E0E9480480F
:104000000E948748E4E2F2E0A190BB24EEE7F4E0EE
:10401000AA0CBB1CAA0CBB1CEA0DFB1DA2E9B4E058
:104020000E94CE4E0C94172083E080930C030C94D6
:104030001C2084E080930C030C94D729E8E8F9EA6B
:104040000E943D4E0E94FD4F11F00C949120009172
:104050002F07023011F00C948C20A5E4B7E00E94E9
:10406000204FA4E2B2E00C9300912402003080E0E3
:1040700010F009F081E08F9300912402053081E077
:1040800008F080E09F918923882311F40C94872005
:1040900080E080930C030091240241E0041BA0E225
:1040A000B2E00C9380912002A0E4B5E00E94284E7B
:1040B0000E941E4E9C91982B9C93A3E4B2E0E0E9F1
:1040C000F9EA0E943D4E0E94CE4DE4E2F2E0A3E404
:1040D000B2E00E9471480E94DB4EA3E4B2E00E946D
:1040E0007148ECEFF3EA0E943D4E0E94CE4DA3E4EE
:1040F000B2E00E947148E0E4F5E00E94684FA2E956
:10410000B4E0E0E4F5E00E94684F0C948A2083E07C
:1041100080930C030C948F2084E080930C030C9408
:10412000D729E4EAF9EA0E943D4E0E94FD4F11F0C2
:104130000C94CF2000912F07023011F00C94CA206C
:10414000A5E4B7E00E94204FA9EDB4E00D931D93C4
:104150002D933D93E4EFF0E0A9EDB4E094E07BE72C
:104160000E94AE4FA3E4B2E0ECEAF9EA0E943D4EB1
:104170000E94CE4DE9EDF4E0A3E4B2E00E94714864
:104180000E94CE4EE9EDF4E0A2E9B4E00E94CE4EEA
:104190000C94CD2084E080930C030C94D729E4EC9C
:1041A000F9EA0E943D4E0E94FD4F11F00C94F3205D
:1041B00080E080930C03A3E4B2E0ECECF9EA0E9407
:1041C0003D4E0E94CE4DE9EDF4E0A3E4B2E00E9442
:1041D00071480E94CE4EE9EDF4E0A2E9B4E00E94FD
:1041E000CE4E0C94D729E6EDF9EA0E943D4E0E948E
:1041F000FD4F11F00C940E2180E080930C03709120
:104200006E04746070936E04A3E4B2E0EEEDF9EA1C
:104210000E943D4E0E94CE4D0C94D729E6EEF9EA5D
:104220000E943D4E0E94FD4F11F00C944B210091D5
:104230002F07023011F00C94462180E080930C038C
:10424000A5E4B7E00E94204FA1E4B5E00C93E8EFAD
:10425000F0E0A1E4B5E07BE70E94AB4FA3E4B2E05D
:10426000EEEEF9EA0E943D4E0E94CE4DE1E4F5E00B
:10427000A3E4B2E00E9471480E94DB4EE1E4F5E065
:10428000A2E9B4E00E94DB4E0C94492184E08093C3
:104290000C030C94D729E0E0FAEA0E943D4E0E94FC
:1042A000FD4F11F00C946F2180E080930C03A3E488
:1042B000B2E0E8E0FAEA0E943D4E0E94CE4DE1E411
:1042C000F5E0A3E4B2E00E9471480E94DB4EE1E415
:1042D000F5E0A2E9B4E00E94DB4E0C94D729EEE0B1
:1042E000FAEA0E943D4E0E94FD4F11F00C948A2183
:1042F00080E080930C037091220578607093220512
:10430000A3E4B2E0E6E1FAEA0E943D4E0E94CE4DFF
:104310000C94D729E0E2FAEA0E943D4E0E94FD4F3C
:1043200011F00C94C12100912F07023011F00C9470
:10433000BC2180E080930C03A5E4B7E00E94204FED
:10434000A8E5B5E00C93E9EFF0E0A8E5B5E07BE780
:104350000E94AB4FA3E4B2E0E8E2FAEA0E943D4ECD
:104360000E94CE4DE8E5F5E0A3E4B2E00E9471487A
:104370000E94DB4E0C94BF2184E080930C030C94CC
:10438000D729EEE3FAEA0E943D4E0E94FD4F11F05C
:104390000C94DF2180E080930C03A3E4B2E0E2ED13
:1043A000F4EA0E943D4E0E94CE4DE8E5F5E0A3E41C
:1043B000B2E00E9471480E94DB4E0C94D729E6E4DB
:1043C000FAEA0E943D4E0E94FD4F11F00C94222209
:1043D00000912F07023011F00C941D22A5E4B7E0E4
:1043E0000E94204FA9E5B5E00D931C93EAEFF0E0A1
:1043F000A9E5B5E07BE70E94AD4F80E080930C0318
:10440000A3E4B2E0EEE4FAEA0E943D4E0E94CE4DF3
:10441000E9E5F5E0A3E4B2E00E9471480E94CB4ECA
:10442000E9E5F5E0A2E9B4E00E94CB4E70914005C9
:104430007260709340050C94202284E080930C03FA
:104440000C94D729EEE6FAEA0E943D4E0E94FD4FF9
:1044500011F00C945B2200912F07013011F00C94A5
:10446000562280E080930C03A3E4B2E0E6E7FAEA88
:104470000E943D4E0E94CE4DE9E5F5E0A3E4B2E096
:104480000E9471480E94CB4EA3E4B2E00E947148A2
:10449000E4E9F4EA0E943D4E0E94CE4DE9E5F5E0E4
:1044A000A2E9B4E00E94CB4E0C94592284E08093A0
:1044B0000C030C94D729EAE8FAEA0E943D4E0E94C8
:1044C000FD4F11F00C94A52200912F07023011F03E
:1044D0000C94A022A5E4B7E00E94204FA0E2B2E035
:1044E0000C9300912002023010F00C949B2280E08B
:1044F00080930C0300912002003011F00C94832271
:104500005F980C9484225F9AA3E4B2E0E2E9FAEAAD
:104510000E943D4E0E94CE4DABE2B0E08C9187FBF5
:10452000A3E4B2E00E9471480E942E4E8D9388272A
:104530008C930C949E2283E080930C030C94A32212
:1045400084E080930C030C94D729ECE9FAEA0E94EA
:104550003D4E0E94FD4F11F00C94D62200912F0782
:10456000023011F00C94D12280E080930C03A5E47A
:10457000B7E00E94204FADE5B5E00D931C93A3E496
:10458000B2E0E4EAFAEA0E943D4E0E94CE4DEDE52B
:10459000F5E0A3E4B2E00E9471480E94CB4E0C9477
:1045A000D42284E080930C030C94D729ECEBFAEA34
:1045B0000E943D4E0E94FD4F11F00C940E2300917D
:1045C0002F07023011F00C94092380E080930C0334
:1045D000A5E4B7E00E94204FABE5B5E00D931C9336
:1045E000ECEFF0E0ABE5B5E07BE70E94AD4FA3E474
:1045F000B2E0E4ECFAEA0E943D4E0E94CE4DEBE5BB
:10460000F5E0A3E4B2E00E9471480E94CB4E0C9406
:104610000C2384E080930C030C94D729EEEDFAEA86
:104620000E943D4E0E94FD4F11F00C94502380E0FB
:1046300080930C03A3E4B2E0E6EEFAEA0E943D4E5A
:104640000E94CE4DEBE5F5E0A3E4B2E00E94714894
:104650000E94CB4EA3E4B2E00E947148E6EFFAEA72
:104660000E943D4E0E94CE4DEDE5F5E0A3E4B2E0A0
:104670000E9471480E94CB4EA3E4B2E00E947148B0
:10468000E2E0FBEA0E943D4E0E94CE4DEFE5F5E0F0
:10469000A3E4B2E00E9471480E94DB4E0C94D7293B
:1046A000E0E1FBEA0E943D4E0E94FD4F11F00C94A8
:1046B000752380E080930C03A5E4B7E00E94204FAF
:1046C000AFE5B5E00C93A3E4B2E0E8E1FBEA0E94B9
:1046D0003D4E0E94CE4DEFE5F5E0A3E4B2E00E942E
:1046E00071480E94DB4E0C94D729E8E2FBEA0E9455
:1046F0003D4E0E94FD4F11F00C940C2480E08093FD
:104700000C03A3E4B2E0E0E3FBEA0E943D4E0E940A
:10471000CE4D81E08093200200912002043018F0F9
:1047200011F00C940A240091200241E0041BA4E241
:10473000B2E00C9380912402A8E9B5E00E94284ED3
:104740000E941E4E0C900822689409F4E89416F01A
:104750000C9402240027442780912402A0E2B0E0B8
:104760000E94284E0E941E4E0C900822689409F464
:10477000E89400F980912402A2E7B5E00E94284E57
:104780000E941E4E0C900822689409F4E89440F9A7
:10479000042700FBA8E3B2E08C9187F98C93E0E258
:1047A000F2E00191112747E050E00E94A14DECE6B4
:1047B000F5E0E00FF11FA3E4B2E00E9471480E940F
:1047C0008A4FA3E4B2E00E947148E2E4F4EA0E9456
:1047D0003D4E0E94CE4DA8E3B2E08C9187FBA3E44E
:1047E000B2E00E9471480E942E4E8D9388278C93D0
:1047F000A3E4B2E00E947148ECEFF3EA0E943D4E60
:104800000E94CE4DA0E2B2E08C918F5F8C9310F4A9
:104810000C948C230C94D729E4E4FBEA0E943D4ECF
:104820000E94FD4F11F00C94C22400912F07043018
:1048300011F00C94BD24A5E4B7E00E94204FA1E242
:10484000B2E00C9300912102013011F00C94B024DD
:10485000AAE5B7E00E94204FA0E2B2E00C930091DD
:104860002002003080E010F009F081E08F93009189
:104870002002053081E008F080E09F9189238823A1
:1048800011F40C94AB2480E080930C03009120027F
:1048900041E0041BA2E2B2E00C93AFE6B7E00E9455
:1048A000204FA1E2B2E00C9300912102003011F000
:1048B0000C94672480912202A8E9B5E00E94284E5A
:1048C0000E941E4E8C9189238C930C9472248091AB
:1048D0002202A8E9B5E00E94284E0E941E4E9C913B
:1048E000982B9C93ECE2F1E0A8E9B5E07BE70E940D
:1048F000AB4FA3E4B2E0ECE4FBEA0E943D4E0E9421
:10490000CE4DE0E2F2E0A3E4B2E00E9471480E94E2
:10491000DB4EA3E4B2E00E947148E2E4F4EA0E94B4
:104920003D4E0E94CE4D80912202A8E9B5E00E9442
:10493000284E0E941E4E0C900822689409F4E894B8
:10494000A3E4B2E00E9471480E942E4E8D93882706
:104950008C930C94AE2485E080930C030C94BB24C0
:1049600080E080930C03A3E4B2E0E0E6FBEA0E945F
:104970003D4E0E94CE4D0C94C02484E080930C03E5
:104980000C94D729EEE7FBEA0E943D4E0E94FD4FB2
:1049900011F00C949B2500912F07013011F00C941D
:1049A000E62480E080930C03A3E4B2E0E6E8FBEAAF
:1049B0000E943D4E0E94CE4DA3E4B2E00E94714899
:1049C000E8E9F5E00E94684F0C949925023011F057
:1049D0000C941925A5E4B7E00E94204FA1E2B2E0B3
:1049E0000C9300912102013011F00C940C2580E011
:1049F00080930C03A3E4B2E0E6E8FBEA0E943D4E9C
:104A00000E94CE4DA3E4B2E00E947148E8E9F5E0CF
:104A10000E94684F0C94172580E080930C03A3E458
:104A2000B2E0EEE8FBEA0E943D4E0E94CE4D0C94AF
:104A30009925033011F00C949625A5E4B7E00E9467
:104A4000204FA1E2B2E00C9300912102013011F05D
:104A50000C948925AAE5B7E00E94204FA0E2B2E0BD
:104A60000C9300912002003080E010F009F081E00A
:104A70008F9300912002053081E008F080E09F9143
:104A80008923882311F40C94842580E080930C03FF
:104A90000091200241E0041BA2E2B2E00C9380E00E
:104AA00080930C03A3E4B2E0E2EAFBEA0E943D4EED
:104AB0000E94CE4DE0E2F2E0A3E4B2E00E94714831
:104AC0000E94DB4EA3E4B2E00E947148E2E4F4EA03
:104AD0000E943D4E0E94CE4D80912202A8E9B5E091
:104AE0000E94284E0E941E4E0C900822689409F4E1
:104AF000E894A3E4B2E00E9471480E942E4E8D9388
:104B000088278C930C94872585E080930C030C9464
:104B1000942580E080930C03A3E4B2E0EAEAFBEA88
:104B20000E943D4E0E94CE4D0C94992584E08093C6
:104B30000C030C94D729E0ECFBEA0E943D4E0E9446
:104B4000FD4F11F00C94372600912F07033011F020
:104B50000C943226A5E4B7E00E94204FA0E2B2E018
:104B60000C9300912002003080E010F009F081E009
:104B70008F9300912002053081E008F080E09F9142
:104B80008923882311F40C942D2680E080930C0354
:104B90000091200241E0041BA2E2B2E00C93AAE5DE
:104BA000B7E00E94204FA1E2B2E00C9300912102F5
:104BB000003011F00C94E92580912202A2E7B5E0C3
:104BC0000E94284E0E941E4E8C9189238C930C9437
:104BD000F42580912202A2E7B5E00E94284E0E94AF
:104BE0001E4E9C91982B9C93EFE0F1E0A2E7B5E07C
:104BF0007BE70E94AB4FA3E4B2E0E8ECFBEA0E9443
:104C00003D4E0E94CE4DE0E2F2E0A3E4B2E00E940D
:104C100071480E94DB4EA3E4B2E00E947148E2E4D6
:104C2000F4EA0E943D4E0E94CE4D80912202A2E7FE
:104C3000B5E00E94284E0E941E4E0C9008226894F7
:104C400009F4E894A3E4B2E00E9471480E942E4E59
:104C50008D9388278C930C94302685E080930C03E9
:104C60000C94352684E080930C030C94D729ECED4A
:104C7000FBEA0E943D4E0E94FD4F11F00C94C026AD
:104C800000912F07013011F00C945B2680E0809397
:104C90000C03A3E4B2E0E4EEFBEA0E943D4E0E9466
:104CA000CE4DA3E4B2E00E947148E2E7F5E00E9435
:104CB000684F0C94BE26023011F00C94BB26A5E47C
:104CC000B7E00E94204FA0E2B2E00C9300912002D6
:104CD000003080E010F009F081E08F930091200215
:104CE000053081E008F080E09F918923882311F44A
:104CF0000C94B6260091200241E0041BA2E2B2E02F
:104D00000C9380E080930C03A3E4B2E0ECEEFBEAAA
:104D10000E943D4E0E94CE4DE0E2F2E0A3E4B2E0FC
:104D20000E9471480E94DB4EA3E4B2E00E947148E9
:104D3000E2E4F4EA0E943D4E0E94CE4D80912202B0
:104D4000A2E7B5E00E94284E0E941E4E0C90082259
:104D5000689409F4E894A3E4B2E00E9471480E94C8
:104D60002E4E8D9388278C930C94B92685E08093E2
:104D70000C030C94BE2684E080930C030C94D7297A
:104D8000E4EFFBEA0E943D4E0E94FD4F11F00C94AF
:104D9000E42800912F07053011F00C94DF28A5E4DA
:104DA000B7E00E94204FA0E2B2E00C93AAE5B7E082
:104DB0000E94204FA1E2B2E00C93AFE6B7E00E9460
:104DC000204FA2E2B2E00C9300912002013011F0DA
:104DD0000C94C12800912102003080E010F009F00D
:104DE00081E08F9300912102053081E008F080E09E
:104DF0009F918923882311F40C94B42800912202F6
:104E0000013011F00C946027E4E8F7E0A1E2B2E091
:104E10000D91112747E050E00E94A14DACE6B5E0AE
:104E2000A00FB11F0E948A4FE1E2F2E00191112729
:104E300047E050E00E94A14DE9E0F1E0E00FF11FF2
:104E4000A1E2B2E00D91112747E050E00E94A14D90
:104E5000ACE6B5E0A00FB11F7BE70E94BC4F80E03D
:104E600080930C03A3E4B2E0ECEFFBEA0E943D4E1A
:104E70000E94CE4DE1E2F2E0A3E4B2E00E9471486C
:104E80000E94DB4EA3E4B2E00E947148E2E4F4EA3F
:104E90000E943D4E0E94CE4DE1E2F2E001911127C9
:104EA00047E050E00E94A14DECE6F5E0E00FF11F75
:104EB000A3E4B2E00E9471480E948A4F0C94B22889
:104EC000023011F00C94DF27A4E8B7E00E94204FD5
:104ED000A3E2B2E00C9300912302023010F00C9494
:104EE000D2270091210241E0041BA4E2B2E00C931E
:104EF00000912302003011F00C948B278091240242
:104F0000A2E7B5E00E94284E0E941E4E8C91892394
:104F10008C930C94962780912402A2E7B5E00E941E
:104F2000284E0E941E4E9C91982B9C93EFE0F1E03E
:104F3000A2E7B5E07BE70E94AB4F80E080930C03D3
:104F4000A3E4B2E0E0E1FCEA0E943D4E0E94CE4DB7
:104F5000E1E2F2E0A3E4B2E00E9471480E94DB4E7D
:104F6000A3E4B2E00E947148E2E4F4EA0E943D4EFC
:104F70000E94CE4D80912402A2E7B5E00E94284E07
:104F80000E941E4E0C900822689409F4E894A3E451
:104F9000B2E00E9471480E942E4E8D9388278C9318
:104FA0000C94DD2780E080930C03A3E4B2E0E6E1FB
:104FB000FCEA0E943D4E0E94CE4D0C94B228033074
:104FC00011F00C944328A4E8B7E00E94204FA1E21E
:104FD000B2E0AD90BB24A0E6B5E0AA0CBB1CAA0DC4
:104FE000BB1D0D931C93E1E2F2E0A190BB24EDEF19
:104FF000F0E0AA0CBB1CEA0DFB1DA1E2B2E0AD90F3
:10500000BB24A0E6B5E0AA0CBB1CAA0DBB1D7BE728
:105010000E94AD4F80E080930C03A3E4B2E0E4E390
:10502000FCEA0E943D4E0E94CE4DE1E2F2E0A3E494
:10503000B2E00E9471480E94DB4EA3E4B2E00E94FD
:105040007148E2E4F4EA0E943D4E0E94CE4DE1E256
:10505000F2E0A190BB24E0E6F5E0AA0CBB1CEA0D4F
:10506000FB1DA3E4B2E00E9471480E94CB4EA3E472
:10507000B2E00E947148E0E5FCEA0E943D4E0E94C9
:10508000CE4D0C94B228043011F00C94A728A4E85B
:10509000B7E00E94204FA1E2B2E0AD90BB24A8E6A9
:1050A000B5E0AA0CBB1CAA0DBB1D0D931C93E1E23D
:1050B000F2E0A190BB24E5E0F1E0AA0CBB1CEA0DF4
:1050C000FB1DA1E2B2E0AD90BB24A8E6B5E0AA0CBE
:1050D000BB1CAA0DBB1D7BE70E94AD4F80E08093F7
:1050E0000C03A3E4B2E0E8E5FCEA0E943D4E0E9416
:1050F000CE4DE1E2F2E0A3E4B2E00E9471480E94EA
:10510000DB4EA3E4B2E00E947148E2E4F4EA0E94BC
:105110003D4E0E94CE4DE1E2F2E0A190BB24E8E6D4
:10512000F5E0AA0CBB1CEA0DFB1DA3E4B2E00E9453
:1051300071480E94CB4EA3E4B2E00E947148E0E5C2
:10514000FCEA0E943D4E0E94CE4D0C94B22880E0B5
:1051500080930C03A3E4B2E0E4E7FCEA0E943D4E36
:105160000E94CE4D0C94BF2880E080930C03A3E4F2
:10517000B2E0ECE8FCEA0E943D4E0E94CE4D0C9459
:10518000DD28033011F00C94D22880E080930C03CA
:10519000A3E4B2E0EEE9FCEA0E943D4E0E94CE4D4F
:1051A0000C94DD2880E080930C03A3E4B2E0E6ECED
:1051B000FCEA0E943D4E0E94CE4D0C94E22884E011
:1051C00080930C030C94D729E2EEFCEA0E943D4E3A
:1051D0000E94FD4F11F00C94D42900912F07033049
:1051E00011F00C94CF29A5E4B7E00E94204FA0E273
:1051F000B2E00C93AAE5B7E00E94204FA1E2B2E032
:105200000C9300912002013011F00C94BE2980E033
:1052100080930C0300912102003080E010F009F02F
:1052200081E08F9300912102053081E008F080E059
:105230009F918923882311F40C94B12900912102B4
:1052400041E0041BA4E2B2E00C93A3E4B2E0E8E284
:10525000F6EA0E943D4E0E94CE4DE1E2F2E0A3E468
:10526000B2E00E9471480E94DB4EA3E4B2E00E94CB
:105270007148EAEEFCEA0E943D4E0E94CE4DE1E20A
:10528000F2E00191112747E050E00E94A14DECE6C9
:10529000F5E0E00FF11FA3E4B2E00E9471480E9424
:1052A0008A4FA3E4B2E00E947148E4EFFCEA0E9456
:1052B0003D4E0E94CE4D80912402A2E7B5E00E94AF
:1052C000284E0E941E4E0C900822689409F4E8941F
:1052D000A3E4B2E00E9471480E942E4E8D9388276D
:1052E0008C93A3E4B2E00E947148EAEFFCEA0E94CA
:1052F0003D4E0E94CE4DE1E2F2E0A190BB24E0E6FB
:10530000F5E0AA0CBB1CEA0DFB1DA3E4B2E00E9471
:1053100071480E94CB4EA3E4B2E00E947148E2E0E3
:10532000FDEA0E943D4E0E94CE4DE1E2F2E0A190E6
:10533000BB24E8E6F5E0AA0CBB1CEA0DFB1DA3E4C8
:10534000B2E00E9471480E94CB4EA3E4B2E00E94FA
:105350007148E2E1FDEA0E943D4E0E94CE4D0C9460
:10536000BC2980E080930C03A3E4B2E0ECE8FCEA03
:105370000E943D4E0E94CE4D0C94CD29033011F079
:105380000C94CD2980E080930C03A3E4B2E0EEE915
:10539000FCEA0E943D4E0E94CE4D0C94D22984E03E
:1053A00080930C030C94D72981E080930C030C9418
:1053B000DC2982E080930C0300910C03003018F08C
:1053C00011F00C94E5290C94F329ECE6F2E70E9425
:1053D0003D4EACE0B3E08C9199270E940A4EA3E4C5
:1053E000B2E00E94CE4DA3E4B2E00E947A480E944F
:1053F0008748089580E080932002709138027F7E74
:105400007093380200912C05013011F00C94732A2E
:1054100070912C057E7F70932C05A0E2B2E08C91F8
:105420008F5F8C93EAE1FDEA0E943D4E0E94804826
:10543000E0E2F2E0A0E1B1E20E94DB4E0E94784897
:105440000E9487480E94A22A62FA16F40C94712ADC
:10545000E4E2FDEA0E943D4E0E9480480E94364AE6
:10546000A1E1B2E00E947A48ECE2FDEA0E943D4EE2
:105470000E9480480E94364AA8E0B2E00E947A4822
:105480000E948748E2E0F2E00E947A4BA8E2B2E094
:105490000D931D932D933D93A2E8B3E04D915D9143
:1054A0006D917C91A8E2B2E00D911D912D913C91FE
:1054B0000E94B84E1CF011F00C94602A0C94672ADC
:1054C000709138027061709338020C946F2AE0E397
:1054D000FDEA0E943D4E0E9480480E9487480C943D
:1054E000732A0E94CD4BA3E1B6E08C9180FB16F0AD
:1054F0000C948D2A709113067E7F70931306E6E458
:10550000F6EA0E943D4E0E948048A4ECBAE00E9458
:105510007A480E9487480E94EF13009120020A30C7
:1055200081E009F080E08F93A8E3B2E08C9184FBE6
:1055300081E00EF080E09F91892B882311F40C9478
:10554000022A08950E94E44B62FA16F40C94202B70
:1055500010ED0E94F84B10E00E94F84B0E94E44BC3
:1055600062FA16F40C94162B11ED0E94F84B0E946F
:10557000174CA2E0B2E01C930E94174CA3E0B2E0EB
:105580001C930E94174CA4E0B2E01C930E94174C9D
:10559000ABE6B3E01C930E94174CA5E0B2E01C936D
:1055A0000E94174CA6E0B2E01C930E94154CA7E0A5
:1055B000B2E01C930E94F04B62FA16F00C94EA2AB7
:1055C000E8E5FDEA0E943D4E0E9480480E9487481F
:1055D0000C94142B909102020E942A49A2E0B2E09E
:1055E0008C93909103020E942A49A3E0B2E08C932D
:1055F000909104020E942A49A4E0B2E08C93909119
:1056000005020E942A49A5E0B2E08C93909106021F
:105610000E942A49A6E0B2E08C93909107020E9472
:105620002A49A7E0B2E08C930C941E2BE8E6FDEA31
:105630000E943D4E0E9480480E9487480C94282B6F
:10564000E0E9FDEA0E943D4E0E9480480E948748A2
:1056500008950E94E44B62FA16F40C946A2B809130
:1056600005020E942349A5E0B2E08C9380910602D6
:105670000E942349A6E0B2E08C93809107020E9429
:105680002349A7E0B2E08C9310ED0E94F84B13E0A1
:105690000E94F84B10916B030E94F84B1091050289
:1056A0000E94F84B109106020E94F84B10910702DD
:1056B0000E94F84B0E94F04B62FA16F00C94682B93
:1056C000E8EBFDEA0E943D4E0E9480480E94874818
:1056D0000C94722BE8ECFDEA0E943D4E0E9480483B
:1056E0000E94874808950E94E44B62FA16F40C94D5
:1056F000B02B809102020E942349A2E0B2E08C9379
:10570000809103020E942349A3E0B2E08C93809130
:1057100004020E942349A4E0B2E08C9310ED0E94A1
:10572000F84B10E00E94F84B109102020E94F84BD7
:10573000109103020E94F84B109104020E94F84B52
:105740000E94F04B62FA16F00C94AE2BEAEEFDEAE2
:105750000E943D4E0E9480480E9487480C94B82BBE
:10576000E6EFFDEA0E943D4E0E9480480E94874875
:10577000089581E00E949B4D81E00E949B4D84E052
:105780000E949B4D209A289881E090E00E943A491F
:10579000289AEF93FF93ECE9F0E00E943149FF91E2
:1057A000EF912098EF93FF93ECE9F0E00E943149EC
:1057B000FF91EF91189B0C94242C209A289884E157
:1057C00090E00E943A49289AEF93FF93ECE9F0E0C9
:1057D0000E943149FF91EF912098EF93FF93ECE9FC
:1057E000F0E00E943149FF91EF91189B0C94052C39
:1057F000A2EEB4E088278C93ADEEB4E088278C93BA
:1058000081E08093F9040C94C42EEF93FF93ECE3B2
:10581000F1E00E943149FF91EF9118990C941F2CEF
:10582000A2EEB4E088278C93ADEEB4E088278C9389
:1058300081E08093F9040C94C42E0C94222C8BE00C
:105840008093F8040C94412CEF93FF93ECE3F1E088
:105850000E943149FF91EF9118990C943E2CA2EED1
:10586000B4E088278C93ADEEB4E088278C9381E078
:105870008093F9040C94C42E0C94412C86E18093FF
:10588000F80480E090E0A3E2B5E08D939C937091E2
:105890006E047E7F70936E04709122057068709321
:1058A0002205A3E2B0E00C9100FB81E00EF080E065
:1058B0008F93AEE6B4E08C9180FB81E00EF480E043
:1058C0009F918923882311F40C94682C0C94512CFB
:1058D000AEE6B4E08C9180FB16F40C94A52E80E02B
:1058E0008093F90481E0AC81BD818C93AC81BD8152
:1058F0000C91053018F011F00C946E2D87E0AA8100
:10590000BB818C93AA81BB814C9100E0041718F0F5
:1059100011F00C945B2D80E090E0A3E2B5E08D9354
:105920009C9370916E047E7F70936E04709122053B
:10593000706870932205A3E2B0E00C9100FB81E057
:105940000EF480E08F93AEE6B4E08C9180FB81E0B2
:105950000EF480E09F918923882311F40C94B22CDB
:105960000C949B2CAEE6B4E08C9180FB16F40C9466
:105970003B2DEF93FF93E8E8F0E00E943149FF915F
:10598000EF91189B0C94232D6894AA81BB818C9174
:10599000AC81BD81AD90BB24ACEDB4E0AA0DBB1DC4
:1059A0000E94284E0E941E4E0C9016F0092201C043
:1059B000082A0C9280E090E0A3E2B5E08D939C93DE
:1059C00070916E047E7F70936E04709122057068F2
:1059D00070932205A3E2B0E00C9100FB81E00EF091
:1059E00080E08F93AEE6B4E08C9180FB81E00EF412
:1059F00080E09F918923882311F40C94012D0C944D
:105A0000EA2CAEE6B4E08C9180FB16F00C94212DCC
:105A1000A8E5B5E00C9103FB16F00C94172DE8E116
:105A2000FEEA0E943D4E0E9480480E948748709185
:105A300022057F777093220584E08093F9040C940B
:105A40005B2D0C94392DE894AA81BB818C91AC819B
:105A5000BD81AD90BB24ACEDB4E0AA0DBB1D0E948E
:105A6000284E0E941E4E0C9016F0092201C0082AF2
:105A70000C920C94542DA8E5B5E00C9103FB16F0A4
:105A80000C944A2DEEE1FEEA0E943D4E0E948048B1
:105A90000E948748709122057F777093220583E0EA
:105AA0008093F9040C945B2DAA81BB810E94194854
:105AB00010F00C94822C0091F904003018F011F0D1
:105AC0000C94642D0C94662D0C946E2DAC81BD81CC
:105AD0008C918F5F8C9310F40C94762C0091F904C8
