:100000000C947200189500001895000018950000D7
:10001000189500001895000018950000189500002C
:10002000189500001895000018950000189500001C
:100030001895000018950000189500000C9495057F
:1000400018950000189500001895000018950000FC
:100050000C94200318950000189500000C94510290
:10006000189500000C940D011895000018950000DB
:1000700018950000189500001895000018950000CC
:1000800018950000189500001895000018950000BC
:100090000C949F0118950000189500001895000019
:1000A000189500001895000018950000189500009C
:1000B000189500001895000018950000189500008C
:1000C000189500001895000018950000189500007C
:1000D000189500001895000018950000189500006C
:1000E000189500008FEF8DBFC0E0E8E14E2E81E251
:1000F0008EBFD1E2FFE15F2EA89584B7082E882736
:1001000084BF88E199278093600090936000EEEFB0
:10011000FFE1A0E0B2E088278D933197E9F787E609
:100120008093C40080E08093C50088E18093C10083
:100130006624279A389A399A3A9A3B9A3C9A3D9A79
:100140003E9A3F9A70910A01716070930A01709112
:100150000A01726070930A0170910A0174607093D1
:100160000A01219A229A239A289A209A5F9A579AEA
:10017000089809980A980B98109A119A129A139A4B
:1001800085E085BD80E084BD70916E0071607093E4
:100190006E0085E085BD80E08093800085E08093DF
:1001A000810070916F00716070936F0085E08093A3
:1001B000810087E08093B10080E08093B00070916F
:1001C000700071607093700087E08093B10070914F
:1001D000C10070687093C10087E68093CC0080E016
:1001E0008093CD007091C8007D7F7093C80086E039
:1001F0008093CA0088E18093C9007091C90070683B
:100200007093C90070E07093B9007CE07093B800FF
:100210000E949B5578940C94364B0F921F922F920C
:100220003F924F925F927F92AF92BF920F931F9334
:100230002F933F934F935F936F937F938F939F93EE
:10024000AF93BF93CF93DF93EF93FF939FB79F93AA
:100250009BB79F9399279BBFA8E0BBE08091C60006
:100260008C9384E2482F0091080B041711F00C9432
:10027000440170918808706170938808A3E5BAE022
:1002800088278C930C9481010D3011F00C94690136
:10029000A8E8B8E08C9184FB16F00C94670170918B
:1002A00088087F7E7093880880E0A3E5BAE00E940A
:1002B000EB518D9388278C93E3E5FAE0A9E0BBE04E
:1002C0000E94B058709188087860709388080C94E8
:1002D00081010F3118F011F00C9470010C94810120
:1002E000A8E8B8E08C9184FB16F00C948101A8E09A
:1002F000BBE08C91A3E5BAE00E94EB518D93882777
:100300008C939F919BBF9F919FBFFF91EF91DF9136
:10031000CF91BF91AF919F918F917F916F915F919D
:100320004F913F912F911F910F91BF90AF907F9070
:100330005F904F903F902F901F900F9018950F92C5
:100340001F922F923F924F925F927F92AF92BF92F5
:100350000F931F932F933F934F935F936F937F93CD
:100360008F939F93AF93BF93CF93DF93EF93FF93BD
:100370009FB79F939BB79F9399279BBFAFE8B8E028
:100380008091CE008C9385E2482F00918F0804174E
:1003900011F00C94D60170918808706470938808ED
:1003A000A0E9B8E088278C930C9433020D3011F04B
:1003B0000C940B02A8E8B8E08C9186FB16F00C9424
:1003C0000902709188087F7B7093880880E0A0E91B
:1003D000B8E00E94EB518D9388278C93E0E9F8E018
:1003E000ADE1B9E00E94B058ADE1B9E0ECEDF5EB5C
:1003F0000E945E570E941A5911F00C9404027091E9
:10040000380270627093380270918808706270933D
:1004100088080C9433020F3118F011F00C9412027A
:100420000C943302A8E8B8E08C9186FB16F00C948B
:100430003302AFE8B8E08C91A0E9B8E00E94EB513C
:100440008D9388278C93A0E9B8E00E941459082F57
:100450000C3818F011F00C942F020C943302A0E920
:10046000B8E088278C939F919BBF9F919FBFFF917E
:10047000EF91DF91CF91BF91AF919F918F917F913C
:100480006F915F914F913F912F911F910F91BF906D
:10049000AF907F905F904F903F902F901F900F9064
:1004A00018950F921F922F923F924F925F927F92D8
:1004B000AF92BF920F931F932F933F934F935F93EE
:1004C0006F937F938F939F93AF93BF93CF93DF935C
:1004D000EF93FF939FB79F939BB79F9399279BBFE2
:1004E00074E676BDA7E9B7E08C918F5F8C93A7E99E
:1004F000B7E00C9148E00E9404598C930091970753
:10050000003011F00C94B702A8E9B7E00C9140E27A
:100510000E9404598C93EEEAF3E80E945E57ADE91D
:10052000B7E08C919927A9E9B7E00E94155780910F
:100530009807A9E9B7E00E9449570E943F570C90DD
:100540000822689409F4E894AFE4B7E08C9183F949
:100550008C93AFE4B7E08C9183FBA5E2B0E08C9183
:1005600087F98C93A8E9B7E08C918F5F8C93AFE407
:10057000B7E08C9184FB16F00C94DD02A5E9B7E09E
:100580000E94A451A5E9B7E00D911C9149EF51E0FB
:100590000E94D151A5E9B7E00D931C93A5E9B7E0FE
:1005A0000D911C91003050E0150711F00C94DD0204
:1005B00070914F07706270934F07AFE4B7E08C9172
:1005C00081FB16F00C94FC02A1EAB7E00E94A45152
:1005D000A3EAB7E04D915C91A1EAB7E00D911C91BF
:1005E0000417150711F00C94FA0270914F0774600C
:1005F00070934F070C94020380E090E0A1EAB7E00B
:100600008D939C939F919BBF9F919FBFFF91EF9173
:10061000DF91CF91BF91AF919F918F917F916F911A
:100620005F914F913F912F911F910F91BF90AF908C
:100630007F905F904F903F902F901F900F90189554
:100640000F921F922F923F924F925F927F92AF92A2
:10065000BF920F931F932F933F934F935F936F938B
:100660007F938F939F93AF93BF93CF93DF93EF933A
:10067000FF939FB79F939BB79F9399279BBF87EF4C
:1006800092EC909385008093840070919E07716036
:1006900070939E070E94B053E8E0F2E0FA93EA9369
:1006A000E1E1F2E00E943D55A5EAB7E00D931D930C
:1006B0002D933D93A5EAB7E00E949751E5EAF7E054
:1006C000A1E1B2E00E942D550E94C353E5EAF7E094
:1006D000A8E0B2E00E9435550E94BB530E94B0537F
:1006E000E1E1F2E0A5EDB6E00E94B058E5EDF6E0FC
:1006F0000E94C854A9EAB7E00D931D932D933D9332
:1007000081E08093AD070091AD07003118F011F042
:100710000C94B603ADEAB7E0AD90BB24A1E9B6E016
:10072000AA0CBB1CAA0CBB1CAA0DBB1D4D915D9154
:100730006D917C91A9EAB7E00D911D912D913C91AD
:100740000E94DE5711F00C94AE037091E0067062C7
:100750007093E0068091AD078093E106ADEAB7E0C3
:100760008C918F5F8C9310F40C948303A5EAB7E00F
:100770000D911D912D913C91ABE4B7E04D915D91B0
:100780006D917C910E943E52AEEAB7E00D931D93AD
:100790002D933D9340E050E060E070E0AEEAB7E0BA
:1007A0000D911D912D913C910E94DE5711F00C94FA
:1007B000DE0370914F07706870934F07A5EAB7E0AA
:1007C0000D911D912D913C91A3EBB7E04C915527D4
:1007D000662777270E943E52AEEAB7E00D931D933D
:1007E0002D933D9340E050E060E070E0AEEAB7E06A
:1007F0000D911D912D913C910E94DE5711F00C94AA
:10080000060470914F07716070934F0781E08093E9
:100810003D0200913D02043018F011F00C94750473
:10082000A5EAB7E00D911D912D913C91ADE3B2E0A9
:10083000AD90BB24A0EFB6E0AA0CBB1CAA0CBB1C5D
:10084000AA0DBB1D4D915D916D917C910E94D95770
:10085000AEEAB7E00D931D932D933D93AEEAB7E05A
:100860000D911D912D913C91ADE3B2E0AD90BB2473
:10087000A0EEB6E0AA0CBB1CAA0CBB1CAA0DBB1DAB
:100880004D915D916D917C910E943E52AEEAB7E030
:100890000D931D932D933D9300913D0241E0041B68
:1008A000ACE3B2E00C9340E050E060E070E0AEEA10
:1008B000B7E00D911D912D913C910E94DE5711F0F2
:1008C0000C946D0480913C02A2EBB7E00E94495762
:1008D0000E943F579C91982B9C93ADE3B2E08C9182
:1008E0008F5F8C9310F40C940904A8E2B7E08C910C
:1008F0008F5F8C93A8E2B7E00C9141E00E9404590D
:100900008C9300912807003011F00C948C047091A6
:10091000E00674607093E006AEE6B7E08C918F5FFE
:100920008C93AEE6B7E00C9145E00E9404598C939D
:1009300000916E07003011F00C94A30470914F07E2
:10094000706470934F07A0EEB6E08C9187FB16F0B1
:100950000C94E004A8E8B8E08C9187FB16F40C94A2
:10096000E004A1E9B4E00E94A451A1E9B4E00D9132
:100970001C91AFE8B4E04D915C910E94D151A1E986
:10098000B4E00D931C93A1E9B4E00D911C910030EB
:1009900050E0150711F00C94E0047091880870681D
:1009A00070938808469847980E949E0E7091B207EF
:1009B00071607093B2077091B20774607093B20760
:1009C000A8E8B8E08C9187FB16F00C941305A9E811
:1009D000B8E00E94A451A9E8B8E00D911C91ABE8E1
:1009E000B8E04D915C910E94D151A9E8B8E00D9317
:1009F0001C93A9E8B8E00D911C91003050E0150758
:100A000011F00C9413057091E00670647093E00689
:100A1000709188087F777093880880E090E0A1E962
:100A2000B4E08D939C93A4EBB7E08C9186FB16F019
:100A30000C947405A4EBB7E08C9185FB16F00C9434
:100A40004705A4E8B8E00E94A451A4E8B8E00D91DD
:100A50001C91A0E8B8E04D915C910E94D151A4E8AE
:100A6000B8E00D931C93A4E8B8E00D911C91003000
:100A700050E0150711F00C9447057091B4077061B0
:100A80007093B4077091B4077F7D7093B407A4EBA3
:100A9000B7E08C9184FB16F00C947405A6E8B8E0DE
:100AA0000E94A451A6E8B8E00D911C91A2E8B8E01C
:100AB0004D915C910E94D151A6E8B8E00D931C9332
:100AC000A6E8B8E00D911C91003050E0150711F038
:100AD0000C9474057091B40770627093B4077091B0
:100AE000B4077F7E7093B4079F919BBF9F919FBF78
:100AF000FF91EF91DF91CF91BF91AF919F918F9136
:100B00007F916F915F914F913F912F911F910F9125
:100B1000BF90AF907F905F904F903F902F901F902D
:100B20000F9018950895089508950F921F922F928F
:100B30003F924F925F927F92AF92BF920F931F931B
:100B40002F933F934F935F936F937F938F939F93D5
:100B5000AF93BF93CF93DF93EF93FF939FB79F9391
:100B60009BB79F9399279BBF74E67093B200AAEC42
:100B7000B7E08C918F5F8C93AAECB7E00C914AE0C0
:100B80000E9404598C930091CA07003011F00C9414
:100B9000AB0700274427A0E2B0E08C9180FB00F96E
:100BA000A6EEB7E08C9180FB40F9042700FBA4EB94
:100BB000B7E08C9187F98C93A4EBB7E08C9187FB1D
:100BC000A3E0B8E08C9180F98C9300274427A0E241
:100BD000B0E08C9181FB00F9A6EEB7E08C9181FB2F
:100BE00040F9042700FBA4EBB7E08C9187F98C93C4
:100BF000A4EBB7E08C9187FBA3E0B8E08C9181F97E
:100C00008C9300274427A0E2B0E08C9182FB00F98E
:100C1000A6EEB7E08C9182FB40F9042700FBA4EB21
:100C2000B7E08C9187F98C93A4EBB7E08C9187FBAC
:100C3000A3E0B8E08C9182F98C9300274427A0E2CE
:100C4000B0E08C9183FB00F9A6EEB7E08C9183FBBA
:100C500040F9042700FBA4EBB7E08C9187F98C9353
:100C6000A4EBB7E08C9187FBA3E0B8E08C9183F90B
:100C70008C9381E08093B5070091B507043018F09C
:100C800011F00C94AB070091B50741E0041BA6EBF3
:100C9000B7E00C93A5EBB7E0AD90BB24A3E0B8E0C0
:100CA000AA0DBB1D0C91003011F00C9473068091BD
:100CB000B607A3E0B8E00E9449570E943F570C9046
:100CC0000822689409F4E89416F40C94710682E002
:100CD000A5EBB7E0AD90BB24A3E0B8E0AA0DBB1D27
:100CE0008C930C94A307013011F00C94930680911F
:100CF000B607A3E0B8E00E9449570E943F570C9006
:100D00000822689409F4E89416F00C94910683E0A4
:100D1000A5EBB7E0AD90BB24A3E0B8E0AA0DBB1DE6
:100D20008C930C94A307023011F00C941C07809153
:100D3000B607A3E0B8E00E9449570E943F570C90C5
:100D40000822689409F4E89416F00C94C10680E037
:100D5000A5EBB7E0AD90BB24A3E0B8E0AA0DBB1DA6
:100D60008C9380E090E0A5EBB7E0AD90BB24A5EBC1
:100D7000B7E0AA0CBB1CAA0DBB1D8D939C930C94D1
:100D80001A07A5EBB7E0AD90BB24A5EBB7E0AA0C22
:100D9000BB1CAA0DBB1D0E94A451A5EBB7E0AD90F2
:100DA000BB24A5EBB7E0AA0CBB1CAA0DBB1D0D9183
:100DB0001C91A5EBB7E0AD90BB24ACEDB7E0AA0C5D
:100DC000BB1CAA0DBB1D4D915C910E94D151A5EB9E
:100DD000B7E0AD90BB24A5EBB7E0AA0CBB1CAA0DF5
:100DE000BB1D0D931C93A5EBB7E0AD90BB24A5EB09
:100DF000B7E0AA0CBB1CAA0DBB1D0D911C910030C5
:100E000050E0150711F00C941A0781E0A5EBB7E04C
:100E1000AD90BB24A3E0B8E0AA0DBB1D8C938091DC
:100E2000B607A7ECB7E00E9449570E943F579C9134
:100E3000982B9C930C94A307033011F00C94A307F8
:100E40008091B607A3E0B8E00E9449570E943F573F
:100E50000C900822689409F4E89416F40C944A075C
:100E600081E0A5EBB7E0AD90BB24A3E0B8E0AA0D0C
:100E7000BB1D8C9380E090E0A5EBB7E0AD90BB2468
:100E8000ADEBB7E0AA0CBB1CAA0DBB1D8D939C93C8
:100E90000C94A307A5EBB7E0AD90BB24ADEBB7E096
:100EA000AA0CBB1CAA0DBB1D0E94A451A5EBB7E068
:100EB000AD90BB24ADEBB7E0AA0CBB1CAA0DBB1DCB
:100EC0000D911C91A5EBB7E0AD90BB24A4EDB7E06C
:100ED000AA0CBB1CAA0DBB1D4D915C910E94D15167
:100EE000A5EBB7E0AD90BB24ADEBB7E0AA0CBB1C03
:100EF000AA0DBB1D0D931C93A5EBB7E0AD90BB24D1
:100F0000ADEBB7E0AA0CBB1CAA0DBB1D0D911C914B
:100F1000003050E0150711F00C94A30780E0A5EB1A
:100F2000B7E0AD90BB24A3E0B8E0AA0DBB1D8C9345
:100F30008091B607A8ECB7E00E9449570E943F573E
:100F40009C91982B9C93A5EBB7E08C918F5F8C9331
:100F500010F40C943C069F919BBF9F919FBFFF9103
:100F6000EF91DF91CF91BF91AF919F918F917F9141
:100F70006F915F914F913F912F911F910F91BF9072
:100F8000AF907F905F904F903F902F901F900F9069
:100F900018952F98E0EEF5EB0E945E570E94FA51EB
:100FA0000E940152A0E0BFE1E0E0F6EB0E945E5734
:100FB0000E94EF560E94F2510E940152A0E0BFE150
:100FC000E4E1F6EB0E945E570E94EF560E94F25158
:100FD0000E940152A0E0BFE1ECE1F6EB0E945E57F7
:100FE0000E94EF560E94F2510E940152E9E3F3E0A1
:100FF000ABECB7E00E94ED58E6E2F6EB0E945E57DC
:101000000E94FA51EBECF7E0A0E0BFE10E9401582A
:101010000E94F2510E940152E1E0F0E0A4E8B3E046
:1010200094E00E94F058EEE2F6EB0E945E570E94B8
:10103000FA51E4E8F3E0A0E0BFE10E9435550E94D8
:10104000F251EEE3F6EB0E945E570E94FA51E4E89B
:10105000F3E0A0E0BFE10E942D550E94F2510E94F2
:101060000152E4E3F3E0ABE4B7E094E00E94F0580F
:10107000E0E4F6EB0E945E570E94FA51EBE4F7E0E1
:10108000A0E0BFE10E94F4570E94F2510E94015279
:10109000E8E3F3E0A3EBB7E00E94ED58ECE5F6EBF4
:1010A0000E945E570E94FA51E3EBF7E0A0E0BFE137
:1010B0000E9401580E94F2510E94015281E08093E7
:1010C000200200912002043018F011F00C94A608C0
:1010D000E0E2F2E0A190BB24E5E0F0E0EA0DFB1DC8
:1010E000A0E2B2E0AD90BB24A9E8B3E0AA0DBB1D1D
:1010F0000E94ED58E2E7F6EB0E945E570E94FA511B
:10110000E0E2F2E0A0E0BFE10E9401580E94F2514B
:10111000E4E8F6EB0E945E570E94FA51D201E0E249
:10112000F2E0A190BB24E9E8F3E0EA0DFB1D0E9488
:101130008E58D2010E94F4510E940152A0E2B2E006
:101140008C918F5F8C9310F40C946108E6E8F6EBB9
:101150000E945E570E94FA510E94015281E08093E2
:10116000240200912402043018F011F00C9461095B
:10117000E0E9F6EB0E945E570E94FA51E4E2F2E0E9
:10118000A0E0BFE10E9401580E94F2510E9401526A
:1011900081E08093250200912502003118F011F0C2
:1011A0000C945909A895A4E2B2E00D9111270150C1
:1011B0001040A0E3B2E00D931C93A0E3B2E00D91C8
:1011C0001C9140E150E00E94C256A0E3B2E00D93B2
:1011D0001C93A0E3B2E00D911C91A5E2B2E04D9109
:1011E0005527040F151FA0E3B2E00D931C93E0E315
:1011F000F2E0A190B190E6E0F0E0AA0CBB1CAA0CD2
:10120000BB1CEA0DFB1DA8E2B2E094E00E94F0587E
:10121000A8E2B2E00D911D912D913C91A0E3B2E0C6
:10122000AD90BD90ABE8B3E0AA0CBB1CAA0CBB1CF4
:10123000AA0DBB1D0D931D932D933C93ABECB7E012
:101240000C9100FB16F00C945109E6E9F6EB0E94B4
:101250005E570E94FA51E5E2F2E0A0E0BFE10E9491
:1012600001580E94F251E4E8F6EB0E945E570E949A
:10127000FA51E8E2F2E0A0E0BFE10E942D550E94A1
:10128000F251ECE9F6EB0E945E570E94FA51E0E35E
:10129000F2E0A0E0BFE10E94F1570E94F2510E94EB
:1012A0000152A5E2B2E08C918F5F8C9310F40C9404
:1012B000CB08A4E2B2E08C918F5F8C9310F40C9475
:1012C000B108E0EAF6EB0E945E570E94FA510E94D4
:1012D000015281E08093240200912402043018F02E
:1012E00011F00C944D0AE0E9F6EB0E945E570E9463
:1012F000FA51E4E2F2E0A0E0BFE10E9401580E944E
:10130000F2510E94015281E0809325020091250252
:10131000003118F011F00C94450AECEAF6EB0E944B
:101320005E570E94FA51E5E2F2E0A0E0BFE10E94C0
:1013300001580E94F2510E940152A4E2B2E00D91C4
:10134000112701501040A0E3B2E00D931C93A0E3DD
:10135000B2E00D911C9140E250E00E94C256A0E321
:10136000B2E00D931C93A5E2B2E00D91112701505C
:101370001040A2E3B2E00D931C93A2E3B2E00D9102
:101380001C9148E050E00E94C256A2E3B2E00D93E7
:101390001C93A0E3B2E00D911C91A2E3B2E04D9149
:1013A0005C91040F151FA0E3B2E00D931C9381E044
:1013B0008093270200912702083018F011F00C9456
:1013C0003D0AA8950091300240912702040FA8E839
:1013D000B3E00C93E8E8F3E0A190BB24EBE0F1E08C
:1013E000EA0DFB1DA8E8B3E0AD90BB24A2E9B4E090
:1013F000AA0DBB1D0E94ED58ABECB7E00C9100FBB1
:1014000016F00C94350AE6EBF6EB0E945E570E944C
:10141000FA51E7E2F2E0A0E0BFE10E9401580E9429
:10142000F251E4E8F6EB0E945E570E94FA51D201B5
:10143000E8E8F3E0A190BB24E2E9F4E0EA0DFB1D4B
:101440000E948E58D2010E94F451ECEBF6EB0E9400
:101450005E570E94FA51E8E8F3E0A0E0BFE10E9485
:1014600001580E94F2510E940152A7E2B2E08C9111
:101470008F5F8C9310F40C94DA09A5E2B2E08C91A2
:101480008F5F8C9310F40C948609A4E2B2E08C91E7
:101490008F5F8C9310F40C946C09EAE0F1E0AFE8F4
:1014A000B4E00E94EF58E0ECF6EB0E945E570E9419
:1014B000FA51EFE8F4E0A0E0BFE10E94F1570E948A
:1014C000F2510E940152E1E7F3E0ABE8B8E00E947C
:1014D000EF58EEECF6EB0E945E570E94FA51EBE8F3
:1014E000F8E0A0E0BFE10E94F1570E94F2510E9493
:1014F00001520E942616EEEDF6EB0E945E570E9406
:10150000FA51A6E5B3E00E94F451E6EEF6EB0E9434
:101510005E570E94FA510E94015283E6809394061E
:10152000E5E0F0E0A9E8B3E00E94ED58E8EEF6EB64
:101530000E945E570E94FA51E9E8F3E0A0E0BFE1A3
:101540000E9401580E94F2510E94015200918903A9
:10155000003018F011F00C94AF0A0C94C60A0091F8
:101560008903053010F00C94B90A0E94030D0C9405
:10157000C40A80E080938903E6EFF6EB0E945E5791
:101580000E94FA510E9401520C94CE0AE6E0F7EB59
:101590000E945E570E94FA510E94015281E080939E
:1015A000200200912002043018F011F00C94640B1A
:1015B000E0E2F2E0A190BB24E8E0F3E0AA0CBB1C5F
:1015C000AA0CBB1CEA0DFB1DA0E2B2E0AD90BB244F
:1015D000A0EEB6E0AA0CBB1CAA0CBB1CAA0DBB1D3E
:1015E00094E00E94F058E0E2F2E0A190BB24E8E130
:1015F000F3E0AA0CBB1CAA0CBB1CEA0DFB1DA0E26D
:10160000B2E0AD90BB24A0EFB6E0AA0CBB1CAA0CC4
:10161000BB1CAA0DBB1D94E00E94F058EAE1F7EB59
:101620000E945E570E94FA51E0E2F2E0A0E0BFE1C2
:101630000E9401580E94F251E4E8F6EB0E945E57C6
:101640000E94FA51E0E2F2E0A190BB24E0EEF6E065
:10165000AA0CBB1CAA0CBB1CEA0DFB1DA0E0BFE141
:101660000E94F4570E94F251EEE1F7EB0E945E57A0
:101670000E94FA51E0E2F2E0A0E0BFE10E940158CE
:101680000E94F251E4E8F6EB0E945E570E94FA5184
:10169000E0E2F2E0A190BB24E0EFF6E0AA0CBB1C74
:1016A000AA0CBB1CEA0DFB1DA0E0BFE10E94F45791
:1016B0000E94F2510E940152A0E2B2E08C918F5F31
:1016C0008C9310F40C94D10AEAE3F3E0ACECB7E0AD
:1016D0000E94EF58ACECB7E00E94A451E4E2F7EBB3
:1016E0000E945E570E94FA51ECECF7E0A0E0BFE1E7
:1016F0000E94F1570E94F2510E940152EAE3F3E086
:10170000ACECB7E07BE70E94D358EEE3F3E0A4ED46
:10171000B7E00E94ED58EEE2F7EB0E945E570E94A0
:10172000FA51D201E4EDF7E00E948E58D2010E94F6
:10173000F4510E94015281E0809320020091200226
:10174000043018F011F00C947B0CA895E0E2F2E064
:101750000191112747E050E00E94C256E9E4F3E00E
:10176000E00FF11FA0E2B2E00D91112747E050E039
:101770000E94C256A0EEB7E0A00FB11F96E00E94F3
:10178000F758E0E5F7EB0E945E570E94FA51E0E25D
:10179000F2E0A0E0BFE10E9401580E94F251E4E8AB
:1017A000F6EB0E945E570E94FA51A0E2B2E00D9162
:1017B000112747E050E00E94C256A0EEB7E0A00F0C
:1017C000B11F0E94F4510E940152E0E2F2E0A190A8
:1017D000BB24EDE3F3E0AA0CBB1CEA0DFB1DA0E269
:1017E000B2E0AD90BB24A4EDB7E0AA0CBB1CAA0DDF
:1017F000BB1D0E94EF58E8E5F7EB0E945E570E9480
:10180000FA51E0E2F2E0A0E0BFE10E9401580E943C
:10181000F251E4E8F6EB0E945E570E94FA51E0E2D2
:10182000F2E0A190BB24E4EDF7E0AA0CBB1CEA0DAA
:10183000FB1DA0E0BFE10E94F1570E94F251E4E6D7
:10184000F7EB0E945E570E94FA510E940152E0E2BB
:10185000F2E0A190BB24E5E4F3E0AA0CBB1CEA0D86
:10186000FB1DA0E2B2E0AD90BB24ACEDB7E0AA0C4A
:10187000BB1CAA0DBB1D0E94EF58ECE6F7EB0E94C3
:101880005E570E94FA51E0E2F2E0A0E0BFE10E9460
:1018900001580E94F251E4E8F6EB0E945E570E9464
:1018A000FA51E0E2F2E0A190BB24ECEDF7E0AA0CE3
:1018B000BB1CEA0DFB1DA0E0BFE10E94F1570E9496
:1018C000F251E4E6F7EB0E945E570E94FA510E9443
:1018D000015285E0A0E2B2E0AD90BB24A7E0B8E001
:1018E000AA0DBB1D8C93A0E2B2E08C918F5F8C930C
:1018F00010F40C949E0BEFE4F3E0A6EEB7E00E9428
:10190000ED58E8E7F7EB0E945E570E94FA51D201CA
:10191000E6EEF7E00E948E58D2010E94F4510E9438
:101920000152ECE6F3E0ACE0B8E00E94ED58E0E8EC
:10193000F7EB0E945E570E94FA51D201ECE0F8E00A
:101940000E948E58D2010E94F4510E940152EDE68D
:10195000F3E0A0E8B8E00E94EF58E8E8F7EB0E9457
:101960005E570E94FA51E0E8F8E0A0E0BFE10E9473
:10197000F1570E94F2510E940152EFE6F3E0A2E813
:10198000B8E00E94EF58E4E9F7EB0E945E570E942E
:10199000FA51E2E8F8E0A0E0BFE10E94F1570E94AE
:1019A000F2510E940152E3E7F3E0ADE8B8E00E9493
:1019B000ED58E0EAF7EB0E945E570E94FA51EDE81D
:1019C000F8E0A0E0BFE10E9401580E94F2510E949D
:1019D0000152E4E7F3E0AEE8B8E00E94ED58ECEA2B
:1019E000F7EB0E945E570E94FA51EEE8F8E0A0E0A3
:1019F000BFE10E9401580E94F2510E94015283E609
:101A000080937F0808958091890380932402E0E900
:101A1000F6EB0E945E570E94FA51E4E2F2E0A0E089
:101A2000BFE10E9401580E94F2510E940152A4E2BB
:101A3000B2E0AD90BB24A9E8B3E0AA0DBB1D8C9128
:101A400080938E03ECEBF7EB0E945E570E94FA51F5
:101A5000D201EEE8F3E00E948E58D2010E94F451C8
:101A60000E94015281E080932502009125020031FD
:101A700018F011F00C94C10DA895A4E2B2E00D91FC
:101A8000112701501040A0E3B2E00D931C93A0E396
:101A9000B2E00D911C9140E150E00E94C256A0E3DB
:101AA000B2E00D931C93A0E3B2E00D911C91A5E26E
:101AB000B2E04D915527040F151FA0E3B2E00D933E
:101AC0001C93A0E3B2E0AD90BD90ABE8B3E0AA0CEC
:101AD000BB1CAA0CBB1CAA0DBB1D0D911D912D9109
:101AE0003C91A8E2B2E00D931D932D933C93A8E2A4
:101AF000B2E00D911D912D913C91A5E2B2E0AD9027
:101B0000BB24A1E9B6E0AA0CBB1CAA0CBB1CAA0D05
:101B1000BB1D0D931D932D933C93EAECF7EB0E94B4
:101B20005E570E94FA51E5E2F2E0A0E0BFE10E94B8
:101B300001580E94F251E4E8F6EB0E945E570E94C1
:101B4000FA51E8E2F2E0A0E0BFE10E942D550E94C8
:101B5000F251ECE9F6EB0E945E570E94FA51E0E385
:101B6000F2E0A0E0BFE10E94F1570E94F2510E9412
:101B70000152A5E2B2E08C918F5F8C9310F40C942B
:101B8000350D089582E00E94BA5682E00E94BA564E
:101B900081E00E94BA56AA85BB850D91112701509C
:101BA0001040AC81BD810D931C93AC81BD810D9122
:101BB0001C9140E250E00E94C256AC81BD810D9361
:101BC0001C93A885B9850D91112701501040AA8159
:101BD000BB810D931C93AA81BB810D911C9148E0A0
:101BE00050E00E94C256AA81BB810D931C93AC8128
:101BF000BD810D911C91AA81BB814D915C91040F17
:101C0000151FAC81BD810D931C93AC81BD810D91DD
:101C10001C91AE81BF814D915527040F151FAC81DA
:101C2000BD810D931C93AC81BD810D911C910F5F03
:101C30001F4FAC81BD810D931C93AC81BD81AD90D4
:101C4000BD90A2E9B4E0AA0DBB1D8C91A881B98119
:101C50008C93A881B9810C91003011F00C94340E52
:101C6000469847980C94360E469A479AE8EDF7EB5B
:101C70000E945E570E94FA51EE81FF81A0E0BFE111
:101C80000E9401580E94F251E4E8F6EB0E945E5770
:101C90000E94FA51D201E881F9810E948E58D20146
:101CA0000E94F451EEE3F6EB0E945E570E94FA5157
:101CB000EC81FD81A0E0BFE10E94F1570E94F2514A
:101CC0000E940152A881B9818C9180FBA8E2B0E00A
:101CD0008C9180F98C93A881B9818C9181FBA8E2C9
:101CE000B0E08C9181F98C93A881B9818C9182FBB1
:101CF000A8E2B0E08C9182F98C93A881B9818C9193
:101D000083FBA8E2B0E08C9183F98C93A881B98120
:101D10008C9184FBA8E2B0E08C9184F98C93A8812B
:101D2000B9818C9185FBA8E2B0E08C9185F98C9308
:101D300085E0481A80E0580A269608954098419810
:101D400042984398449845980895409A419A429AF7
:101D5000439A449A459A08950E94B053E8E0F2E00D
:101D6000A0E2B3E00E94B058A0E2B3E00E94EB51C1
:101D7000ECEDF7EB0E945E570E94EF560E94B053C5
:101D8000E1E1F2E0A0E2B3E00E94EB510E94B05822
:101D9000A0E2B3E00E94EB51ECEDF7EB0E945E573E
:101DA0000E94EF5681E080931F0281E080931E0223
:101DB000882780931D02A0E2B3E00E942652A0E291
:101DC000B3E0EEEDF7EB0E945E570E94EF56E6E0BF
:101DD000F8E0A0E2B3E00E94EB510E940158002716
:101DE0004427A0E2B0E08C9181FB00F9A6EEB7E0B9
:101DF0008C9181FB40F9042700FBA8E3B2E08C91B1
:101E000087F98C93A0E2B3E00E94EB51E2EEF7EB8E
:101E10000E945E570E94EF56A8E3B2E08C9187FBC8
:101E2000A0E2B3E00E94EB510E944F578D938827A8
:101E30008C9300274427A0E2B0E08C9180FB00F94E
:101E4000A6EEB7E08C9180FB40F9042700FBA8E3E5
:101E5000B2E08C9187F98C93A0E2B3E00E94EB5141
:101E6000E8EEF7EB0E945E570E94EF56A8E3B2E05F
:101E70008C9187FBA0E2B3E00E94EB510E944F5788
:101E80008D9388278C93A0E2B3E00E94EB51EEEE95
:101E9000F7EB0E945E570E94EF5683E080931F028B
:101EA00081E080931E02882780931D02A0E2B3E0A8
:101EB0000E942652A0E2B3E0E2EFF7EB0E945E57E9
:101EC0000E94EF56E0E6F7E0A0E2B3E00E94EB519B
:101ED0000E94B058A0E2B3E00E94EB51E6EFF7EBAE
:101EE0000E945E570E94EF56E5E5F7E0A0E2B3E0FE
:101EF0000E94EB510E94B058A0E2B3E00E94EB5167
:101F0000EEEEF7EB0E945E570E94EF5685E080935D
:101F10001F0281E080931E02882780931D02A0E2A9
:101F2000B3E00E942652AAE3B2E08C918F5F8C93BB
:101F3000AAE3B2E00C9100FB16F00C94C110A9E3E7
:101F4000B2E08C918F5F8C93A0E2B3E088278C93F2
:101F5000A9E3B2E00C9141E10E9404598C930091F5
:101F60003902003011F00C947210A0E2B3E0EAEFF5
:101F7000F7EB0E945E570E94EF56E9E8F3E0A0E21B
:101F8000B3E00E94EB510E940158A0E2B3E00E942E
:101F9000EB51ECEFF7EB0E945E570E94EF56AEE874
:101FA000B3E08C9180FBA0E2B3E00E94EB510E9471
:101FB0004F578D9388278C93A0E2B3E00E94EB519A
:101FC000E0E0F8EB0E945E570E94EF56AEE8B3E007
:101FD0008C9181FBA0E2B3E00E94EB510E944F572D
:101FE0008D9388278C93A0E2B3E00E94EB51E0E050
:101FF000F8EB0E945E570E94EF56AEE8B3E08C917A
:1020000082FBA0E2B3E00E94EB510E944F578D93F8
:1020100088278C93A0E2B3E00E94EB51E2E0F8EB5A
:102020000E945E570E94EF56AEE8B3E08C9183FBAE
:10203000A0E2B3E00E94EB510E944F578D93882796
:102040008C93A0E2B3E00E94EB51E4E0F8EB0E9435
:102050005E570E94EF56AEE8B3E08C9184FBA0E29D
:10206000B3E00E94EB510E944F578D9388278C93C9
:10207000A0E2B3E00E94EB51E6E0F8EB0E945E576D
:102080000E94EF56AEE8B3E08C9185FBA0E2B3E08E
:102090000E94EB510E944F578D9388278C93A0E2AA
:1020A000B3E00E94EB51E8E0F8EB0E945E570E941B
:1020B000EF56AEE8B3E08C9186FBA0E2B3E00E945D
:1020C000EB510E944F578D9388278C93A0E2B3E089
:1020D0000E94EB51ECEDF7EB0E945E570E94EF5629
:1020E0000C94B410A9E3B2E0AD90BB24A1E9B6E032
:1020F000AA0CBB1CAA0CBB1CAA0DBB1D0D911D91EB
:102100002D913C91A8E2B2E00D931D932D933C9349
:10211000A0E2B3E0EAE0F8EB0E945E570E94EF56BF
:10212000E9E3F2E0A0E2B3E00E94EB510E94015823
:10213000A0E2B3E00E94EB51E4E8F6EB0E945E57A8
:102140000E94EF56E8E2F2E0A0E2B3E00E94EB5119
:102150000E942D55A0E2B3E00E94EB51EEE0F8EBB7
:102160000E945E570E94EF5687E080931F0281E035
:1021700080931E02882780931D02A0E2B3E00E9494
:1021800026520895E5E0F0E0A0E1BB2781E08C93C2
:102190007BE70E94D158EAE0F1E00CE310E0A0E117
:1021A000BB277BE70E94D358E1E7F3E004E813E0A4
:1021B000A0E1BB277BE70E94D35880E080932102F7
:1021C00081E08093200200912002043018F011F089
:1021D0000C948F11A895E0E2F2E0A190BB24E5E019
:1021E000F0E0EA0DFB1DA0E1BB278FE78C937BE7B6
:1021F0000E94D158A0E2B3E0E4E1F8EB0E945E5700
:102200000E94EF56E0E2F3E00E94C854A8E2B2E078
:102210000D931D932D933D93EEE1F8EB0E945E57D5
:102220000E94FA51E0E2F2E0A0E0BFE10E94015812
:102230000E94F251E4E2F8EB0E945E570E94FA51CC
:10224000E8E2F2E0A0E0BFE10E94F4570E94F25100
:102250000E94015281E0809322020091220200310B
:1022600018F011F00C948711A1E2B2E08C918F5F0D
:102270008C93A8E2B2E00D911D912D913C91A1E2C9
:10228000B2E0AD90BB24ABE8B3E0AA0CBB1CAA0C37
:10229000BB1CAA0DBB1D0D931D932D933C93EAE02F
:1022A000F8EB0E945E570E94FA51E1E2F2E0A0E0F2
:1022B000BFE10E9401580E94F251E4E8F6EB0E944F
:1022C0005E570E94FA51E8E2F2E0A0E0BFE10E940E
:1022D0002D550E94F2510E940152A8E2B2E00D91E8
:1022E0001D912D913C9140E15EE060E070E00E9424
:1022F000D457A8E2B2E00D931D932D933D93A2E233
:10230000B2E08C918F5F8C9310F40C942D11A0E2AD
:10231000B2E08C918F5F8C9310F40C94E31081E009
:102320008093250200912502003418F011F00C94DE
:10233000BD11E5E2F2E0A190BB24E6E0F0E0AA0CDA
:10234000BB1CAA0CBB1CEA0DFB1DA5E2B2E0AD90C4
:10235000BB24ABE8B3E0AA0CBB1CAA0CBB1CAA0DA7
:10236000BB1D94E07BE70E94D458A5E2B2E08C91BB
:102370008F5F8C9310F40C94921181E0809324026F
:1023800000912402043018F011F00C94AC12E0E932
:10239000F6EB0E945E570E94FA51E4E2F2E0A0E000
:1023A000BFE10E9401580E94F2510E94015281E057
:1023B0008093250200912502003118F011F00C9451
:1023C000A412ECEAF6EB0E945E570E94FA51E5E295
:1023D000F2E0A0E0BFE10E9401580E94F2510E9489
:1023E0000152A4E2B2E00D91112701501040A0E388
:1023F000B2E00D931C93A0E3B2E00D911C9140E27A
:1024000050E00E94C256A0E3B2E00D931C93A5E2F7
:10241000B2E00D91112701501040A2E3B2E00D93FC
:102420001C93A2E3B2E00D911C9148E050E00E94A1
:10243000C256A2E3B2E00D931C93A0E3B2E00D916B
:102440001C91A2E3B2E04D915C91040F151FA0E333
:10245000B2E00D931C9381E0809327020091270244
:10246000083018F011F00C949C12A89500913002DD
:1024700040912702040FA8E8B3E00C93E2EFF3E8E1
:102480000E945E57A7E2B2E08C919927A0E2B2E0E9
:102490000E94115780912002A8E8B3E0AD90BB24C0
:1024A000A2E9B4E0AA0DBB1D8C93E8E8F3E0A1908B
:1024B000BB24EBE0F1E0EA0DFB1DA0E2B2E07BE71C
:1024C0000E94D158E6EBF6EB0E945E570E94FA514B
:1024D000E7E2F2E0A0E0BFE10E9401580E94F25161
:1024E000E4E8F6EB0E945E570E94FA51D201E8E858
:1024F000F3E0A190BB24E2E9F4E0EA0DFB1D0E94A9
:102500008E58D2010E94F451ECEBF6EB0E945E571C
:102510000E94FA51E8E8F3E0A0E0BFE10E94015810
:102520000E94F2510E940152A7E2B2E08C918F5FAB
:102530008C9310F40C942E12A5E2B2E08C918F5F74
:102540008C9310F40C94DA11A4E2B2E08C918F5FBA
:102550008C9310F40C94C011E9E3F3E0A0E1BB27E5
:1025600080E08C937BE70E94D15880E0809320022A
:1025700081E08093240200912402043018F011F0CD
:102580000C942F130CE211E020E030E0A4E2B2E062
:10259000AD90BB24A0EEB6E0AA0CBB1CAA0CBB1CE1
:1025A000AA0DBB1D0D931D932D933C93E4E2F2E025
:1025B000A190BB24E8E0F3E0AA0CBB1CAA0CBB1C56
:1025C000EA0DFB1DA4E2B2E0AD90BB24A0EEB6E0A4
:1025D000AA0CBB1CAA0CBB1CAA0DBB1D94E07BE77C
:1025E0000E94D458A0E2B2E08C91A4E2B2E0AD9097
:1025F000BB24A0EFB6E0AA0CBB1CAA0CBB1CAA0D06
:10260000BB1D8D9388278D938D938C93E4E2F2E02C
:10261000A190BB24E8E1F3E0AA0CBB1CAA0CBB1CF4
:10262000EA0DFB1DA4E2B2E0AD90BB24A0EFB6E042
:10263000AA0CBB1CAA0CBB1CAA0DBB1D94E07BE71B
:102640000E94D458A0E2B2E08C91845C8C93A4E206
:10265000B2E08C918F5F8C9310F40C94BB1281E0EC
:102660008093240200912402043018F011F00C949D
:102670008413A0E2B3E0ECE2F8EB0E945E570E9404
:10268000EF56E4E2F2E0A0E2B3E00E94EB510E94D8
:102690000158E4E2F2E00191112747E050E00E9486
:1026A000C256E9E4F3E0E00FF11FA0E2B3E07BE7FC
:1026B0000E94E258E4E2F2E0A190BB24EDE3F3E0F3
:1026C000AA0CBB1CEA0DFB1D0AE010E0A0E1BB2731
:1026D0007BE70E94D358E4E2F2E0A190BB24E5E45A
:1026E000F3E0AA0CBB1CEA0DFB1D0AE010E0A0E120
:1026F000BB277BE70E94D358A4E2B2E08C918F5FA6
:102700008C9310F40C943213EFE4F3E0A0E1BB27B8
:102710008FE08C937BE70E94D158ECE6F3E0A0E1D8
:10272000BB278FE08C937BE70E94D158EDE6F3E066
:102730000CE310E0A0E1BB277BE70E94D358EFE653
:10274000F3E008E017E0A0E1BB277BE70E94D35845
:10275000E4E3F3E000E11EE020E030E0A0E1BB278D
:1027600094E07BE70E94D458E8E3F3E0A0E1BB27C4
:102770008CE38C937BE70E94D1580895E5E0F0E06C
:10278000A0E1BB2781E08C937BE70E94D158EFE466
:10279000F3E0A0E1BB278DE08C937BE70E94D1584A
:1027A000EAE0F1E00CE310E0A0E1BB277BE70E9448
:1027B000D358E1E7F3E004E813E0A0E1BB277BE7AF
:1027C0000E94D358A0E2B3E0E0E3F8EB0E945E572A
:1027D0000E94EF56E0E2F3E00E94C854A8E2B2E0A3
:1027E0000D931D932D933D93EAE0F0E0A8E2B2E053
:1027F00094E07BE70E94D458A0E2B3E0EAE3F8EB70
:102800000E945E570E94EF56E0E2F3E00E94C85437
:10281000A8E2B2E00D931D932D933D93EEE0F0E01E
:10282000A8E2B2E094E07BE70E94D458A0E2B3E0D3
:10283000E4E4F8EB0E945E570E94EF56E0E2F3E01A
:102840000E94C854A8E2B2E00D931D932D933D93CE
:10285000E2E1F0E0A8E2B2E094E07BE70E94D45825
:10286000A0E2B3E0EEE4F8EB0E945E570E94EF5660
:10287000E0E2F3E00E94C854A8E2B2E00D931D9399
:102880002D933D93E6E1F0E0A8E2B2E094E07BE72F
:102890000E94D458A0E2B3E0E8E5F8EB0E945E574E
:1028A0000E94EF56E0E2F3E00E94C854A8E2B2E0D2
:1028B0000D931D932D933D93EAE1F0E0A8E2B2E081
:1028C00094E07BE70E94D458A0E2B3E0E2E6F8EBA4
:1028D0000E945E570E94EF56E0E2F3E00E94C85467
:1028E000A8E2B2E00D931D932D933D93EEE1F0E04D
:1028F000A8E2B2E094E07BE70E94D458A0E2B3E003
:10290000ECE6F8EB0E945E570E94EF56E0E2F3E03F
:102910000E94C854A8E2B2E00D931D932D933D93FD
:10292000E2E2F0E0A8E2B2E094E07BE70E94D45853
:10293000A0E2B3E0E0E3F8EB0E945E570E94EF569E
:10294000E0E2F3E00E94C854A8E2B2E00D931D93C8
:102950002D933D93E6E2F0E0A8E2B2E094E07BE75D
:102960000E94D458EAE2F0E0A8E2B2E094E07BE70B
:102970000E94D458EEE2F0E0A8E2B2E094E07BE7F7
:102980000E94D458E2E3F0E0A8E2B2E094E07BE7F2
:102990000E94D458E6E3F0E0A8E2B2E094E07BE7DE
:1029A0000E94D458EAE3F0E0A8E2B2E094E07BE7CA
:1029B0000E94D458EEE3F0E0A8E2B2E094E07BE7B6
:1029C0000E94D458E2E4F0E0A8E2B2E094E07BE7B1
:1029D0000E94D458E6E4F0E0A8E2B2E094E07BE79D
:1029E0000E94D45881E08093240281E080932502E4
:1029F00000912502003118F011F00C94C115ECEA99
:102A0000F6EB0E945E570E94FA51E5E2F2E0A0E088
:102A1000BFE10E9401580E94F2510E940152A4E2BB
:102A2000B2E00D91112701501040A0E3B2E00D93E8
:102A30001C93A0E3B2E00D911C9140E250E00E9493
:102A4000C256A0E3B2E00D931C93A5E2B2E00D9153
:102A5000112701501040A2E3B2E00D931C93A2E3B2
:102A6000B2E00D911C9148E050E00E94C256A2E3F2
:102A7000B2E00D931C93A0E3B2E00D911C91A2E390
:102A8000B2E04D915C91040F151FA0E3B2E00D93ED
:102A90001C9381E08093270200912702083018F0F0
:102AA00011F00C94B9150091300240912702040FE7
:102AB000A8E8B3E00C93ECEFF3E80E945E57A7E2BE
:102AC000B2E08C919927A0E2B2E00E941157809168
:102AD0002002A8E8B3E0AD90BB24A2E9B4E0AA0DBF
:102AE000BB1D8C93E8E8F3E0A190BB24EBE0F1E0A0
:102AF000EA0DFB1DA0E2B2E07BE70E94D158E6EBB5
:102B0000F6EB0E945E570E94FA51E7E2F2E0A0E085
:102B1000BFE10E9401580E94F251E4E8F6EB0E94E6
:102B20005E570E94FA51D201E8E8F3E0A190BB247D
:102B3000E2E9F4E0EA0DFB1D0E948E58D2010E94EA
:102B4000F451ECEBF6EB0E945E570E94FA51E8E874
:102B5000F3E0A0E0BFE10E9401580E94F2510E9400
:102B60000152A7E2B2E08C918F5F8C9310F40C9429
:102B70004C15A5E2B2E08C918F5F8C9310F40C940D
:102B8000F8140895E6E7F8EB0E945E570E94FA51A8
:102B90000E940152E0E0F0E0A5E5B3E00E94ED58AC
:102BA00080E080932102A8E8B8E08C9183FB16F0C6
:102BB0000C94ED1570918808777F70938808E0E990
:102BC000F8EB0E945E570E94FA51A9E0BBE00E9418
:102BD000F4510E9401520E94BB1600919E070130E1
:102BE00011F00C94171670919E077E7F70939E07CC
:102BF000A0E2B2E08C918F5F8C93A1E2B2E08C9165
:102C00008F5F8C93A0E2B2E00C914AE00E940459DD
:102C10008C9300912002003011F00C941716E6E915
:102C2000F8EB0E945E570E94FA510E9401520091F7
:102C30005503013011F00C94D315E8EBF8EB0E942A
:102C40005E570E94FA510E940152089580E08093DD
:102C5000200280E080932102A6E5B3E088278C93D0
:102C60008EE08093200200912002073118F011F0CD
:102C70000C945116A0E2B2E0EC91FF270E94A956F5
:102C8000082FE0E1F0E0A6E5B3E00E94EB510E94DE
:102C90007558A0E2B2E08C918F5F8C9310F40C9485
:102CA0003316E6E5F3E0A5E4B2E00E94B058A6E5ED
:102CB000B3E088278C938EE080932002009120025D
:102CC000073118F011F00C947C16A0E2B2E0EC9100
:102CD000FF270E94A956082FE0E1F0E0A6E5B3E047
:102CE0000E94EB510E947558A0E2B2E08C918F5F78
:102CF0008C9310F40C945E16E5E4F2E0A6E5B3E0E4
:102D00000E941C5911F00C94881681E080932002D7
:102D1000A1E2B2E08C918F5F8C9300912002003091
:102D200011F00C94A71684EF91E00E94B452ECECE1
:102D3000F8EB0E945E570E94FA51E1E2F2E0A0E057
:102D4000BFE10E9401580E94F2510E94015200917D
:102D50002002013081E009F080E08F930091210290
:102D60000A3081E009F080E09F91892B882311F4DB
:102D70000C942C160895E2EDF8EB0E945E570E9429
:102D8000FA51A9E0BBE00E94F4510E940152A895BB
:102D900081E0E9E0FBE006E00A93A0E2B3E00E94F4
:102DA000BB58E9E0FBE09CE204E138E0ABEAB9E0C3
:102DB0000E944E59AAEAB9E02C93ABEAB9E00E940E
:102DC0001459082F063011F00C94A92FEBEAF9E002
:102DD000AEE3B2E00E94B058EEE3F2E0AEE3B2E060
:102DE0000E9433578FEF80930E03AEE3B2E0E4ED21
:102DF000F8EB0E945E570E941A5911F00C9441178B
:102E000080E080930E03A5E4B2E0ECEDF8EB0E94C5
:102E10005E570E94EF56A0E2B3E0E0E0F6EB0E94BE
:102E20005E570E94EF56E0E2F3E0A5E4B2E00E94B4
:102E3000EB510E94B058A5E4B2E00E94EB51E0EFE4
:102E4000F8EB0E945E570E94EF56A0E2B3E0ECE17F
:102E5000F6EB0E945E570E94EF56E0E2F3E0A5E435
:102E6000B2E00E94EB510E94B058A5E4B2E00E948B
:102E7000EB51E6EEF6EB0E945E570E94EF560C9483
:102E8000A72FEEEFF8EB0E945E570E941A5911F03F
:102E90000C94681780E080930E03A5E4B2E0E6E0AE
:102EA000F9EB0E945E570E94EF56709138027460F1
:102EB0007093380281E080935503E0E0F0E0A5E5EF
:102EC000B3E07BE70E94D1580E94C2100C94A72F58
:102ED000E4E3F9EB0E945E570E941A5911F00C943A
:102EE000831780E080930E03A5E4B2E0ECE3F9EBF6
:102EF0000E945E570E94EF56709138027061709385
:102F000038020C94A72FE0E5F9EB0E945E570E946F
:102F10001A5911F00C94A01780E080930E03A5E4D9
:102F2000B2E0E8E5F9EB0E945E570E94EF5670911F
:102F300038027460709338020E94BE130C94A72F5D
:102F4000E2E7F9EB0E945E570E941A5911F00C94C7
:102F5000FC170091AA09023011F00C94F717A0ECAD
:102F6000B9E00E944658A0E2B2E00C930091200222
:102F7000003080E010F009F081E08F930091200292
:102F8000013181E008F080E09F918923882311F4CA
:102F90000C94F21780E080930E037091E00670624B
:102FA0007093E006809120028093E106A5E4B2E0F0
:102FB000EAE7F9EB0E945E570E94EF56E0E2F2E08A
:102FC000A5E4B2E00E94EB510E940158A5E4B2E0F2
:102FD0000E94EB51E0EAF9EB0E945E570E94EF5627
:102FE0000C94F51785E080930E030C94FA1784E097
:102FF00080930E030C94A72FEEEAF9EB0E945E5724
:103000000E941A5911F00C94261880E080930E0348
:103010000E942616A5E4B2E0E6EBF9EB0E945E57AB
:103020000E94EF56E6E5F3E0A5E4B2E00E94EB5122
:103030000E94B058A5E4B2E00E94EB51E6EEF6EB38
:103040000E945E570E94EF560C94A72FE0ECF9EB1C
:103050000E945E570E941A5911F00C946518009155
:10306000AA09023011F00C946018A0ECB9E00E949B
:103070004658A0E2B2E00C9300912002013110F01A
:103080000C945B1880E080930E03A5E4B2E0E8ECBA
:10309000F9EB0E945E570E94EF56E0E2F2E0A5E4F1
:1030A000B2E00E94EB510E9401588091200280936F
:1030B0009D070C945E1885E080930E030C946318B2
:1030C00084E080930E030C94A72FE0EEF9EB0E94AE
:1030D0005E570E941A5911F00C9474190091AA09B4
:1030E000023011F00C946F19A0ECB9E00E94145951
:1030F000082F0C3011F00C946A1980E080930E03B5
:1031000087E0E0ECF9E002E00A93A0E2B3E00E947D
:10311000BB58A0E2B3E00E94EB51E8EEF9EB0E944D
:103120005E570E94EF5689E0E0ECF9E002E00A9376
:10313000A0E2B3E00E94EB510E94BB58A0E2B3E0D2
:103140000E94EB51E8EEF9EB0E945E570E94EF56A9
:103150008BE0E0ECF9E002E00A93A0E2B3E00E9429
:10316000EB510E94BB58A0E2B3E00E94F4510E94D0
:103170000152E0E2F3E0A1E1B2E00E94B0580E9407
:10318000C353EAEEF9EB0E945E570E94FA510E9487
:10319000B053A1E1B2E00E94F4510E94015281E0DB
:1031A000E0ECF9E002E00A93A0E2B3E00E94BB5831
:1031B000A0E2B3E00E94EB51EEEEF9EB0E945E5705
:1031C0000E94EF5683E0E0ECF9E002E00A93A0E20F
:1031D000B3E00E94EB510E94BB58A0E2B3E00E9412
:1031E000EB51EEEEF9EB0E945E570E94EF5685E040
:1031F000E0ECF9E002E00A93A0E2B3E00E94EB51B8
:103200000E94BB58A0E2B3E00E94F4510E94015218
:10321000E0E2F3E0A8E0B2E00E94B0580E94BB53A5
:10322000E0EFF9EB0E945E570E94FA510E94B05302
:10323000A8E0B2E00E94F4510E940152A5E4B2E07D
:10324000E4EFF9EB0E945E570E94EF560E94B053E4
:10325000E8E0F2E0A5E4B2E00E94EB510E94B05831
:10326000A5E4B2E00E94EB51EEE1FAEB0E945E575A
:103270000E94EF560E94B053E1E1F2E0A5E4B2E013
:103280000E94EB510E94B058E5E0F2E00E94135416
:10329000ADE6B3E08C930E9475310E94BF310E946D
:1032A000EE30E2E0F2E00E94F454A4E8B3E00D93C3
:1032B0001D932D933D93E1E0F0E0A4E8B3E094E0AA
:1032C0007BE70E94D4587091380272607093380284
:1032D0000C946D1986E080930E030C94721984E0AF
:1032E00080930E030C94A72FE2E2FAEB0E945E5744
:1032F0000E941A5911F00C948A1980E080930E03F1
:10330000A5E4B2E0EAE2FAEB0E945E570E94EF56B3
:103310000C94A72FE2E3FAEB0E945E570E941A5921
:1033200011F00C94CA1980E080930E030E94B053F0
:10333000E1E1F2E0A0E2B3E00E94B058A5E4B2E01F
:10334000EAE3FAEB0E945E570E94EF56E0E2F3E0F8
:10335000A5E4B2E00E94EB510E94B058A5E4B2E0AF
:103360000E94EB51E8E4FAEB0E945E570E94EF5690
:103370000E94B053E8E0F2E0A0E2B3E00E94B0584F
:10338000E0E2F3E0A5E4B2E00E94EB510E94B05805
:103390000C94A72FE8E5FAEB0E945E570E941A5999
:1033A00011F00C94061A80E080930E03E4E8F3E039
:1033B000A0E2B3E00E942D55A5E4B2E0E0E6FAEB0E
:1033C0000E945E570E94EF56E0E2F3E0A5E4B2E00F
:1033D0000E94EB510E94B058A5E4B2E00E94EB516C
:1033E000E4E7FAEB0E945E570E94EF56E4E8F3E050
:1033F000A0E2B3E00E943555E0E2F3E0A5E4B2E0DC
:103400000E94EB510E94B0580C94A72FECE7FAEB06
:103410000E945E570E941A5911F00C940F1B0091E4
:10342000AA09043011F00C940A1BA0ECB9E00E9428
:103430004658A1E2B2E00C9300912102003080E0F6
:1034400010F009F081E08F9300912102053081E0B6
:1034500008F080E09F918923882311F40C94051BC8
:10346000A5EDB9E00E944658A0E2B2E00C930091AD
:103470002002003080E010F009F081E08F9300918D
:103480002002013181E008F080E09F9189238823A8
:1034900011F40C94001B80E080930E03EAEEF9E037
:1034A000A0E2B3E00E94B058A1E2B2E00D91112772
:1034B00001501040A0E3B2E00D931C93A0E3B2E0F2
:1034C0000D911C9140E150E00E94C256A0E3B2E091
:1034D0000D931C93A0E3B2E00D911C91A0E2B2E029
:1034E0004D915527040F151FA0E3B2E00D931C93D7
:1034F000E4E8FAEB0E945E570E94FA51E0E3F2E042
:10350000A0E0BFE10E94F1570E94F2510E940152D7
:10351000E0E2F3E00E94C854A0E3B2E0AD90BD90B9
:10352000ABE8B3E0AA0CBB1CAA0CBB1CAA0DBB1DCC
:103530000D931D932D933D93E0E3F2E0A190B190A4
:10354000E6E0F0E0AA0CBB1CAA0CBB1CEA0DFB1DBC
:10355000A0E3B2E0AD90BD90ABE8B3E0AA0CBB1C19
:10356000AA0CBB1CAA0DBB1D94E07BE70E94D4589B
:10357000E0E3F2E0A190B190EBE8F3E0AA0CBB1C11
:10358000AA0CBB1CEA0DFB1DA0E2B3E00E942D5566
:10359000A5E4B2E0EEE8FAEB0E945E570E94EF5617
:1035A000E0E2F2E0A5E4B2E00E94EB510E94015893
:1035B000A5E4B2E00E94EB51EEE1FAEB0E945E5707
:1035C0000E94EF56E0E2F3E0A5E4B2E00E94EB5186
:1035D0000E94B058A5E4B2E00E94EB51ECE9FAEB8E
:1035E0000E945E570E94EF56E1E2F2E0A5E4B2E0ED
:1035F0000E94EB510E9401580E94030D0C94031B82
:1036000086E080930E030C94081B85E080930E03E4
:103610000C940D1B84E080930E030C94A72FE6EA14
:10362000FAEB0E945E570E941A5911F00C94E01BAD
:103630000091AA09033011F00C94DB1BA0ECB9E057
:103640000E944658A1E2B2E00C93009121020030A2
:1036500080E010F009F081E08F93009121020530A5
:1036600081E008F080E09F918923882311F40C9475
:10367000D61BA5EDB9E00E944658A0E2B2E00C933B
:1036800000912002003080E010F009F081E08F937B
:1036900000912002013181E008F080E09F918923B0
:1036A000882311F40C94D11B80E080930E03A1E2D7
:1036B000B2E00D91112701501040A0E3B2E00D934C
:1036C0001C93A0E3B2E00D911C9140E150E00E94F8
:1036D000C256A0E3B2E00D931C93A0E3B2E00D91BB
:1036E0001C91A0E2B2E04D915527040F151FA0E3F5
:1036F000B2E00D931C93E4E8FAEB0E945E570E943F
:10370000FA51E0E3F2E0A0E0BFE10E94F1570E942D
:10371000F2510E940152E0E3F2E0A190B190EBE897
:10372000F3E0AA0CBB1CAA0CBB1CEA0DFB1DA0E21B
:10373000B3E00E942D55A5E4B2E0EEEAFAEB0E9458
:103740005E570E94EF56E0E2F2E0A5E4B2E00E948C
:10375000EB510E940158A5E4B2E00E94EB51E6EB68
:10376000FAEB0E945E570E94EF56E0E2F3E0A5E418
:10377000B2E00E94EB510E94B058A5E4B2E00E9472
:10378000EB51ECE9FAEB0E945E570E94EF56E1E242
:10379000F2E0A5E4B2E00E94EB510E9401580C94C3
:1037A000D41B86E080930E030C94D91B85E0809394
:1037B0000E030C94DE1B84E080930E030C94A72F61
:1037C000EAEBFAEB0E945E570E941A5911F00C9432
:1037D000321C0091AA09023011F00C942D1CA0ECAF
:1037E000B9E00E944658A0E3B2E00D931C93A0E319
:1037F000B2E00D911C91003050E0150718F011F067
:103800000C94041C0C94281C80E080930E03A0E30D
:10381000B2E08D919C91AFE8B4E08D939C93A5E4C8
:10382000B2E0E2ECFAEB0E945E570E94EF56EFE83E
:10383000F4E0A5E4B2E00E94EB510E94F157EAE007
:10384000F1E0AFE8B4E07BE70E94D3580C942B1C66
:1038500085E080930E030C94301C84E080930E036B
:103860000C94A72FE8EDFAEB0E945E570E941A59BC
:1038700011F00C94501C80E080930E03A5E4B2E09C
:10388000E0EEFAEB0E945E570E94EF56EFE8F4E09C
:10389000A5E4B2E00E94EB510E94F1570C94A72FCF
:1038A000E8EEFAEB0E945E570E941A5911F00C9450
:1038B000A21C0091AA09023011F00C949D1CA0ECEE
:1038C000B9E00E944658A0E3B2E00D931C93A0E338
:1038D000B2E00D911C91003050E0150718F011F086
:1038E0000C94741C0C94981C80E080930E03A0E34D
:1038F000B2E08D919C91ABE8B8E08D939C93A5E4E8
:10390000B2E0E0EFFAEB0E945E570E94EF56EBE860
:10391000F8E0A5E4B2E00E94EB510E94F157E1E724
:10392000F3E0ABE8B8E07BE70E94D3580C949B1C13
:1039300085E080930E030C94A01C84E080930E031A
:103940000C94A72FEAE0FBEB0E945E570E941A59E5
:1039500011F00C94C01C80E080930E03A5E4B2E04B
:10396000E2E1FBEB0E945E570E94EF56EBE8F8E0C5
:10397000A5E4B2E00E94EB510E94F1570C94A72FEE
:10398000E0E2FBEB0E945E570E941A5911F00C9482
:10399000121D0091AA09023011F00C940D1DA0EC2B
:1039A000B9E00E944658A0E3B2E00D931C93A0E357
:1039B000B2E00D911C91003050E0150718F011F0A5
:1039C0000C94E41C0C94081D80E080930E03A0E38B
:1039D000B2E08D919C91A0E8B8E08D939C93A5E412
:1039E000B2E0E8E2FBEB0E945E570E94EF56E0E88F
:1039F000F8E0A5E4B2E00E94EB510E94F157EDE639
:103A0000F3E0A0E8B8E07BE70E94D3580C940B1DCC
:103A100085E080930E030C94101D84E080930E03C8
:103A20000C94A72FE0E4FBEB0E945E570E941A590A
:103A300011F00C94301D80E080930E03A5E4B2E0F9
:103A4000E8E8F7EB0E945E570E94EF56E0E8F8E0E6
:103A5000A5E4B2E00E94EB510E94F1570C94A72F0D
:103A6000E8E4FBEB0E945E570E941A5911F00C9497
:103A7000821D0091AA09023011F00C947D1DA0EC6A
:103A8000B9E00E944658A0E3B2E00D931C93A0E376
:103A9000B2E00D911C91003050E0150718F011F0C4
:103AA0000C94541D0C94781D80E080930E03A0E3C9
:103AB000B2E08D919C91A2E8B8E08D939C93A5E42F
:103AC000B2E0E0E5FBEB0E945E570E94EF56E2E8B1
:103AD000F8E0A5E4B2E00E94EB510E94F157EFE656
:103AE000F3E0A2E8B8E07BE70E94D3580C947B1D7A
:103AF00085E080930E030C94801D84E080930E0378
:103B00000C94A72FEAE6FBEB0E945E570E941A591D
:103B100011F00C94A01D80E080930E03A5E4B2E0A8
:103B2000E4E9F7EB0E945E570E94EF56E2E8F8E006
:103B3000A5E4B2E00E94EB510E94F1570C94A72F2C
:103B4000E2E7FBEB0E945E570E941A5911F00C94B9
:103B5000DC1E0091AA09053011F00C94D71EA0ECD0
:103B6000B9E00E944658A1E2B2E00C930091210214
:103B7000003080E010F009F081E08F930091210285
:103B8000053081E008F080E09F918923882311F4BB
:103B90000C94D21EA5EDB9E00E944658A2E2B2E014
:103BA0000C9300912202003080E010F009F081E0D7
:103BB0008F9300912202013181E008F080E09F9113
:103BC0008923882311F40C94CD1EAAEEB9E00E943B
:103BD0004658A0E2B2E00C9300912002003080E051
:103BE00010F009F081E08F9300912002093081E00C
:103BF00008F080E09F918923882311F40C94C81E5B
:103C0000A1E2B2E00D91112701501040A0E3B2E013
:103C10000D931C93A0E3B2E00D911C9140E250E0A3
:103C20000E94C256A0E3B2E00D931C93A2E2B2E060
:103C30000D91112701501040A2E3B2E00D931C93A7
:103C4000A2E3B2E00D911C9148E050E00E94C25600
:103C5000A2E3B2E00D931C93A0E3B2E00D911C919E
:103C6000A2E3B2E04D915C91040F151FA0E3B2E016
:103C70000D931C93A0E3B2E00D911C91A0E2B2E081
:103C80004D915527040F151FA0E3B2E00D931C932F
:103C9000EAE7FBEB0E945E570E94FA51E0E3F2E094
:103CA000A0E0BFE10E94F1570E94F2510E94015230
:103CB000AFEFB9E00E949E58A3E2B2E00C9380916E
:103CC0002302A0E3B2E0AD90BD90A2E9B4E0AA0D5A
:103CD000BB1D8C93E0E3F2E0A190B190EBE0F1E04A
:103CE000EA0DFB1DA3E2B2E07BE70E94D15880E021
:103CF00080930E03A5E4B2E0E4E8FBEB0E945E577C
:103D00000E94EF56E0E2F2E0A5E4B2E00E94EB513F
:103D10000E940158A5E4B2E00E94EB51E4E9FBEBFC
:103D20000E945E570E94EF56E2E2F2E0A5E4B2E0A4
:103D30000E94EB510E940158A5E4B2E00E94EB51B1
:103D4000E2EAFBEB0E945E570E94EF56E1E2F2E0EE
:103D5000A5E4B2E00E94EB510E940158A5E4B2E054
:103D60000E94EB51E4E8F6EB0E945E570E94EF568A
:103D7000A5E4B2E00E94EB51E0E3F2E0A190B19043
:103D8000E2E9F4E0EA0DFB1D0E948E580C94CB1E74
:103D900087E080930E030C94D01E86E080930E0380
:103DA0000C94D51E85E080930E030C94DA1E84E0FB
:103DB00080930E030C94A72FECEAFBEB0E945E5756
:103DC0000E941A5911F00C94F91F0091AA090430AD
:103DD00011F00C94F41FA0ECB9E00E944658A1E247
:103DE000B2E00C9300912102003080E010F009F065
:103DF00081E08F9300912102053081E008F080E09E
:103E00009F918923882311F40C94EF1FA5EDB9E04D
:103E10000E944658A2E2B2E00C93009122020030C8
:103E200080E010F009F081E08F93009122020131CF
:103E300081E008F080E09F918923882311F40C949D
:103E4000EA1FAAEEB9E00E944658A0E2B2E00C9345
:103E500000912002003080E010F009F081E08F93A3
:103E600000912002093081E008F080E09F918923D1
:103E7000882311F40C94E51F80E080930E03A1E2E7
:103E8000B2E00D91112701501040A0E3B2E00D9374
:103E90001C93A0E3B2E00D911C9140E250E00E941F
:103EA000C256A0E3B2E00D931C93A2E2B2E00D91E2
:103EB000112701501040A2E3B2E00D931C93A2E33E
:103EC000B2E00D911C9148E050E00E94C256A2E37E
:103ED000B2E00D931C93A0E3B2E00D911C91A2E31C
:103EE000B2E04D915C91040F151FA0E3B2E00D9379
:103EF0001C93A0E3B2E00D911C91A0E2B2E04D91C1
:103F00005527040F151FA0E3B2E00D931C93E4EBBB
:103F1000FBEB0E945E570E94FA51E0E3F2E0A0E062
:103F2000BFE10E94F1570E94F2510E940152A5E4A4
:103F3000B2E0E6EBF6EB0E945E570E94EF56E0E23D
:103F4000F2E0A5E4B2E00E94EB510E940158A5E422
:103F5000B2E00E94EB51E4E9FBEB0E945E570E9445
:103F6000EF56E2E2F2E0A5E4B2E00E94EB510E94DB
:103F70000158A5E4B2E00E94EB51E2EAFBEB0E949B
:103F80005E570E94EF56E1E2F2E0A5E4B2E00E9443
:103F9000EB510E940158A5E4B2E00E94EB51E4E825
:103FA000F6EB0E945E570E94EF56A5E4B2E00E9435
:103FB000EB51E0E3F2E0A190B190E2E9F4E0EA0D28
:103FC000FB1D0E948E580C94E81F87E080930E031F
:103FD0000C94ED1F86E080930E030C94F21F85E095
:103FE00080930E030C94F71F84E080930E030C94CF
:103FF000A72FE2ECFBEB0E945E570E941A5911F0CA
:104000000C9457200091AA09023011F00C94522010
:10401000A0ECB9E00E944658A1E2B2E00C930091F6
:104020002102003080E010F009F081E08F930091D0
:104030002102053081E008F080E09F9189238823E8
:1040400011F40C944D2080E080930E03A0ECB9E0B5
:104050000E944658A9E8B3E00C93E5E0F0E0A9E837
:10406000B3E07BE70E94D158A5E4B2E0EAECFBEBB9
:104070000E945E570E94EF56E9E8F3E0A5E4B2E043
:104080000E94EB510E9401580E94030D7091B207EB
:1040900072607093B2070C94502085E080930E03F9
:1040A0000C94552084E080930E030C94A72FE8EE27
:1040B000FBEB0E945E570E941A5911F00C947A2073
:1040C00080E080930E03A5E4B2E0E8EEF6EB0E94F8
:1040D0005E570E94EF56E9E8F3E0A5E4B2E00E94E3
:1040E000EB510E9401587091E00678607093E006F1
:1040F0000C94A72FE0EFFBEB0E945E570E941A5929
:1041000011F00C94FD200091AA09033011F00C94D9
:10411000F820A0ECB9E00E944658A1E2B2E00C936E
:1041200000912102003080E010F009F081E08F93CF
:1041300000912102053081E008F080E09F91892301
:10414000882311F40C94F32080E080930E03A5EDF6
:10415000B9E00E949E58A1E2B2E0AD90BB24A9E86C
:10416000B3E0AA0DBB1D0C93E1E2F2E0A190BB24E9
:10417000E5E0F0E0EA0DFB1DA1E2B2E0AD90BB246A
:10418000A9E8B3E0AA0DBB1D7BE70E94D158A5E4C6
:10419000B2E0E8EFFBEB0E945E570E94EF56E9E8C1
:1041A000F3E0A5E4B2E00E94EB510E940158A5E4BF
:1041B000B2E00E94EB51EEE1FAEB0E945E570E94E2
:1041C000EF56A5E4B2E00E94EB51E1E2F2E0A190EB
:1041D000BB24E9E8F3E0EA0DFB1D0E948E580E9423
:1041E000030D0C94F62085E080930E030C94FB20C5
:1041F00084E080930E030C94A72FE6E1FCEB0E9471
:104200005E570E941A5911F00C9457210091AA0987
:10421000023011F00C94522100912102003080E014
:1042200010F009F081E08F9300912102053081E0C8
:1042300008F080E09F918923882311F40C944D218C
:1042400080E080930E03A5E4B2E0EEE1FCEB0E9477
:104250005E570E94EF56E9E8F3E0A5E4B2E00E9461
:10426000EB510E940158A5E4B2E00E94EB51E2E359
:10427000FCEB0E945E570E94EF56A5E4B2E00E945C
:10428000EB51E1E2F2E0A190BB24E9E8F3E0EA0DB2
:10429000FB1D0E948E580C94502185E080930E03E4
:1042A0000C94552184E080930E030C94A72FE6E331
:1042B000FCEB0E945E570E941A5911F00C94FE21EB
:1042C0000091AA09033011F00C94F921A0ECB9E097
:1042D0000E944658A4E2B2E00C9300912402003000
:1042E00080E010F009F081E08F9300912402053006
:1042F00081E008F080E09F918923882311F40C94D9
:10430000F421A5EDB9E00E944658ACE2B2E00D936D
:104310001D932D933D93ACE2B2E00D911D912D9133
:104320003C91A4E2B2E0AD90BB24A0EEB6E0AA0CB2
:10433000BB1CAA0CBB1CAA0DBB1D0D931D932D937A
:104340003C93E4E2F2E0A190BB24E8E0F3E0AA0CA5
:10435000BB1CAA0CBB1CEA0DFB1DACE2B2E094E056
:104360007BE70E94D45880E080930E03A5E4B2E07E
:10437000EEE3FCEB0E945E570E94EF56E4E2F2E0AF
:10438000A5E4B2E00E94EB510E940158A5E4B2E01E
:104390000E94EB51E8EEF9EB0E945E570E94EF5647
:1043A000E4E2F2E0A190BB24E0EEF6E0AA0CBB1C34
:1043B000AA0CBB1CEA0DFB1DA5E4B2E00E94EB5168
:1043C0000E94F457E4E2F2E0A190BB24E0EEF6E0B4
:1043D000AA0CBB1CAA0CBB1CEA0DFB1DA4E0B7E099
:1043E0000E94F4570C94F72183E080930E030C9401
:1043F000FC2184E080930E030C94A72FE4E5FCEBF2
:104400000E945E570E941A5911F00C94A522009147
:10441000AA09033011F00C94A022A0ECB9E00E948C
:104420004658A4E2B2E00C9300912402003080E0F0
:1044300010F009F081E08F9300912402053081E0B3
:1044400008F080E09F918923882311F40C949B222B
:10445000A5EDB9E00E944658ACE2B2E00D931D9381
:104460002D933D93ACE2B2E00D911D912D913C91C5
:10447000A4E2B2E0AD90BB24A0EFB6E0AA0CBB1C56
:10448000AA0CBB1CAA0DBB1D0D931D932D933C9331
:10449000E4E2F2E0A190BB24E8E1F3E0AA0CBB1C4B
:1044A000AA0CBB1CEA0DFB1DACE2B2E094E07BE77A
:1044B0000E94D45880E080930E03A5E4B2E0EEE3BE
:1044C000FCEB0E945E570E94EF56E4E2F2E0A5E4A6
:1044D000B2E00E94EB510E940158A5E4B2E00E94B4
:1044E000EB51E8EEF9EB0E945E570E94EF56E4E2D2
:1044F000F2E0A190BB24E0EFF6E0AA0CBB1CAA0CF2
:10450000BB1CEA0DFB1DA5E4B2E00E94EB510E942A
:10451000F457E4E2F2E0A190BB24E0EFF6E0AA0C4D
:10452000BB1CAA0CBB1CEA0DFB1DA4E0B7E00E945B
:10453000F4570C949E2283E080930E030C94A322E4
:1045400084E080930E030C94A72FECE5FCEB0E9413
:104550005E570E941A5911F00C944A230091AA093F
:10456000023011F00C944523A0ECB9E00E944658AB
:10457000A4E2B2E00C9300912402003080E010F03D
:1045800009F081E08F9300912402053081E008F06A
:1045900080E09F918923882311F40C944023A5E4A3
:1045A000B2E0E4E6FCEB0E945E570E94EF56E4E2C4
:1045B000F2E0A5E4B2E00E94EB510E940158A5E4AC
:1045C000B2E00E94EB51E8EEF9EB0E945E570E94C8
:1045D000EF56E4E2F2E0A190BB24E0EEF6E0AA0C94
:1045E000BB1CAA0CBB1CEA0DFB1DA5E4B2E00E949B
:1045F000EB510E94F45780E080930E03E2EDF8EB5C
:104600000E945E570E94FA51E4E2F2E0A0E0BFE1AE
:104610000E9401580E94F251EEE3F6EB0E945E57B1
:104620000E94FA51E4E2F2E0A190BB24E0EEF6E051
:10463000AA0CBB1CAA0CBB1CEA0DFB1DA0E0BFE131
:104640000E94F4570E94F2510E940152ECE6FCEBEA
:104650000E945E570E94FA510E940152E4E2F2E089
:10466000A190BB24E0EEF6E0AA0CBB1CAA0CBB1C7C
:10467000EA0DFB1DA4E0B7E00E94F4570C9443231D
:1046800083E080930E030C94482384E080930E0310
:104690000C94A72FE0E7FCEB0E945E570E941A598A
:1046A00011F00C94EF230091AA09023011F00C9440
:1046B000EA23A0ECB9E00E944658A4E2B2E00C93D1
:1046C00000912402003080E010F009F081E08F9327
:1046D00000912402053081E008F080E09F91892359
:1046E000882311F40C94E523A5E4B2E0E8E7FCEBA1
:1046F0000E945E570E94EF56E4E2F2E0A5E4B2E0C9
:104700000E94EB510E940158A5E4B2E00E94EB51D7
:10471000E8EEF9EB0E945E570E94EF56E4E2F2E009
:10472000A190BB24E0EFF6E0AA0CBB1CAA0CBB1CBA
:10473000EA0DFB1DA5E4B2E00E94EB510E94F45784
:1047400080E080930E03E2EDF8EB0E945E570E943A
:10475000FA51E4E2F2E0A0E0BFE10E9401580E94B9
:10476000F251EEE3F6EB0E945E570E94FA51E4E24A
:10477000F2E0A190BB24E0EFF6E0AA0CBB1CAA0C6F
:10478000BB1CEA0DFB1DA0E0BFE10E94F4570E9494
:10479000F2510E940152ECE6FCEB0E945E570E942F
:1047A000FA510E940152E4E2F2E0A190BB24E0EF52
:1047B000F6E0AA0CBB1CAA0CBB1CEA0DFB1DA4E076
:1047C000B7E00E94F4570C94E82383E080930E0333
:1047D0000C94ED2384E080930E030C94A72FE4E85F
:1047E000FCEB0E945E570E941A5911F00C9462244F
:1047F0000091AA09023011F00C945D24A0ECB9E0FC
:104800000E944658A4E2B2E00C93009124020030CA
:1048100080E010F009F081E08F93009124020530D0
:1048200081E008F080E09F918923882311F40C94A3
:10483000582480E080930E030091240241E0041B81
:10484000A0E2B2E00C9380912002A2EBB7E00E94BC
:1048500049570E943F579C91982B9C93A5E4B2E046
:10486000ECE8FCEB0E945E570E94EF56E4E2F2E0B7
:10487000A5E4B2E00E94EB510E940158A5E4B2E029
:104880000E94EB51EEE3F6EB0E945E570E94EF565A
:10489000A5E4B2E00E94EB51E2EBF7E00E948E58F3
:1048A000A4E0B7E0E2EBF7E00E948E580C945B24A2
:1048B00083E080930E030C94602484E080930E03C5
:1048C0000C94A72FE0EAFCEB0E945E570E941A5955
:1048D00011F00C94A3240091AA09023011F00C9459
:1048E0009E2480E080930E03A0ECB9E00E9446581D
:1048F000ABE4B7E00D931D932D933D93E4E3F3E018
:10490000ABE4B7E094E07BE70E94D458A5E4B2E0C2
:10491000E8EAFCEB0E945E570E94EF56EBE4F7E0FA
:10492000A5E4B2E00E94EB510E94F457EBE4F7E0FB
:10493000A4E0B7E00E94F4570C94A12484E0809393
:104940000E030C94A72FE0ECFCEB0E945E570E9434
:104950001A5911F00C94C72480E080930E03A5E44B
:10496000B2E0E8ECFCEB0E945E570E94EF56EBE4ED
:10497000F7E0A5E4B2E00E94EB510E94F457EBE4AB
:10498000F7E0A4E0B7E00E94F4570C94A72FE2ED03
:10499000FCEB0E945E570E941A5911F00C94E2241D
:1049A00080E080930E0370914F07706870934F07FB
:1049B000A5E4B2E0EAEDFCEB0E945E570E94EF56E0
:1049C0000C94A72FE2EEFCEB0E945E570E941A594E
:1049D00011F00C941F250091AA09023011F00C94DB
:1049E0001A2580E080930E03A0ECB9E00E9446589F
:1049F000A3EBB7E00C93E8E3F3E0A3EBB7E07BE7CE
:104A00000E94D158A5E4B2E0EAEEFCEB0E945E57AA
:104A10000E94EF56E3EBF7E0A5E4B2E00E94EB5111
:104A20000E940158E3EBF7E0A4E0B7E00E940158D0
:104A30000C941D2584E080930E030C94A72FECEFBB
:104A4000FCEB0E945E570E941A5911F00C9443250A
:104A500080E080930E03A5E4B2E0E4E0FDEB0E9469
:104A60005E570E94EF56E3EBF7E0A5E4B2E00E9448
:104A7000EB510E940158E3EBF7E0A4E0B7E00E949D
:104A800001580C94A72FEAE0FDEB0E945E570E94AC
:104A90001A5911F00C945E2580E080930E037091FA
:104AA0004F07716070934F07A5E4B2E0E2E1FDEBC0
:104AB0000E945E570E94EF560C94A72FECE1FDEB8D
:104AC0000E945E570E941A5911F00C94952500918E
:104AD000AA09023011F00C94902580E080930E0317
:104AE000A0ECB9E00E944658ABECB7E00C93E9E3C8
:104AF000F3E0ABECB7E07BE70E94D158A5E4B2E06D
:104B0000E4E2FDEB0E945E570E94EF56EBECF7E00B
:104B1000A5E4B2E00E94EB510E9401580C94932549
:104B200084E080930E030C94A72FEAE3FDEB0E9430
:104B30005E570E941A5911F00C94B32580E08093BF
:104B40000E03A5E4B2E0E6E2F6EB0E945E570E9497
:104B5000EF56EBECF7E0A5E4B2E00E94EB510E94C7
:104B600001580C94A72FE2E4FDEB0E945E570E94CF
:104B70001A5911F00C94F6250091AA09023011F08F
:104B80000C94F125A0ECB9E00E944658ACECB7E0DB
:104B90000D931C93EAE3F3E0ACECB7E07BE70E94F3
:104BA000D35880E080930E03A5E4B2E0EAE4FDEB85
:104BB0000E945E570E94EF56ECECF7E0A5E4B2E0ED
:104BC0000E94EB510E94F157ECECF7E0A4E0B7E053
:104BD0000E94F1577091B20772607093B2070C9403
:104BE000F42584E080930E030C94A72FEAE6FDEBF6
:104BF0000E945E570E941A5911F00C942F260091C2
:104C0000AA09013011F00C942A2680E080930E034B
:104C1000A5E4B2E0E2E7FDEB0E945E570E94EF568A
:104C2000ECECF7E0A5E4B2E00E94EB510E94F157F2
:104C3000A5E4B2E00E94EB51E6EEF6EB0E945E576F
:104C40000E94EF56ECECF7E0A4E0B7E00E94F157C9
:104C50000C942D2684E080930E030C94A72FE6E895
:104C6000FDEB0E945E570E941A5911F00C947926B0
:104C70000091AA09023011F00C947426A0ECB9E05E
:104C80000E944658A0E2B2E00C930091200202304C
:104C900010F00C946F2680E080930E0300912002A8
:104CA000003011F00C9457265F980C9458265F9AA8
:104CB000A5E4B2E0EEE8FDEB0E945E570E94EF56DD
:104CC000ABE2B0E08C9187FBA5E4B2E00E94EB512F
:104CD0000E944F578D9388278C930C94722683E003
:104CE00080930E030C94772684E080930E030C943B
:104CF000A72FE8E9FDEB0E945E570E941A5911F0B8
:104D00000C94AA260091AA09023011F00C94A52651
:104D100080E080930E03A0ECB9E00E944658A0ED1D
:104D2000B7E00D931C93A5E4B2E0E0EAFDEB0E942E
:104D30005E570E94EF56E0EDF7E0A5E4B2E00E9476
:104D4000EB510E94F1570C94A82684E080930E0347
:104D50000C94A72FE8EBFDEB0E945E570E941A59B6
:104D600011F00C94E2260091AA09023011F00C9483
:104D7000DD2680E080930E03A0ECB9E00E94465847
:104D8000AEECB7E00D931C93ECE3F3E0AEECB7E0D0
:104D90007BE70E94D358A5E4B2E0E0ECFDEB0E9473
:104DA0005E570E94EF56EEECF7E0A5E4B2E00E94F9
:104DB000EB510E94F1570C94E02684E080930E039F
:104DC0000C94A72FEAEDFDEB0E945E570E941A5942
:104DD00011F00C94242780E080930E03A5E4B2E048
:104DE000E2EEFDEB0E945E570E94EF56EEECF7E01C
:104DF000A5E4B2E00E94EB510E94F157A5E4B2E0B5
:104E00000E94EB51E2EFFDEB0E945E570E94EF56CD
:104E1000E0EDF7E0A5E4B2E00E94EB510E94F1570B
:104E2000A5E4B2E00E94EB51EEEFFDEB0E945E576D
:104E30000E94EF56E2EDF7E0A5E4B2E00E94EB51EC
:104E40000E9401580C94A72FECE0FEEB0E945E57E5
:104E50000E941A5911F00C94492780E080930E03A8
:104E6000A0ECB9E00E944658A2EDB7E00C93A5E48F
:104E7000B2E0E4E1FEEB0E945E570E94EF56E2EDE5
:104E8000F7E0A5E4B2E00E94EB510E9401580C94B7
:104E9000A72FE4E2FEEB0E945E570E941A5911F020
:104EA0000C9485270091AA09023011F00C948027F8
:104EB00080E080930E03A0ECB9E00E944658AEE873
:104EC000B8E00C93E4E7F3E0AEE8B8E07BE70E94DB
:104ED000D1587091B20772607093B207A5E4B2E046
:104EE000ECE2FEEB0E945E570E94EF56EEE8F8E01F
:104EF000A5E4B2E00E94EB510E9401580C94832774
:104F000084E080930E030C94A72FE8E4FEEB0E944C
:104F10005E570E941A5911F00C94A32780E08093E9
:104F20000E03A5E4B2E0ECEAF7EB0E945E570E94A4
:104F3000EF56EEE8F8E0A5E4B2E00E94EB510E94E3
:104F400001580C94A72FE0E5FEEB0E945E570E94EB
:104F50001A5911F00C94DA270091AA09023011F0C5
:104F60000C94D52780E080930E03A0ECB9E00E945A
:104F70004658ADE8B8E00C93E3E7F3E0ADE8B8E0FD
:104F80007BE70E94D158A5E4B2E0E8E5FEEB0E9481
:104F90005E570E94EF56EDE8F8E0A5E4B2E00E940B
:104FA000EB510E9401580C94D82784E080930E03A3
:104FB0000C94A72FE0E8FEEB0E945E570E941A595E
:104FC00011F00C94F82780E080930E03A5E4B2E082
:104FD000E8E8FEEB0E945E570E94EF56EDE8F8E02D
:104FE000A5E4B2E00E94EB510E9401580C94A72F57
:104FF000E8EAFEEB0E945E570E941A5911F00C94E9
:105000008F2880E080930E03A5E4B2E0E0EBFEEB96
:105010000E945E570E94EF5681E08093200200912B
:105020002002043018F011F00C948D280091200219
:1050300041E0041BA4E2B2E00C9380912402ACE0B6
:10504000B8E00E9449570E943F570C90082268948C
:1050500009F4E89416F00C948528002744278091E1
:105060002402A0E2B0E00E9449570E943F570C90F2
:105070000822689409F4E89400F980912402A6EECD
:10508000B7E00E9449570E943F570C90082268944D
:1050900009F4E89440F9042700FBA8E3B2E08C91FE
:1050A00087F98C93E0E2F2E00191112747E050E0AC
:1050B0000E94C256E0EEF7E0E00FF11FA5E4B2E077
:1050C0000E94EB510E94B058A5E4B2E00E94EB515F
:1050D000E4E8F6EB0E945E570E94EF56A8E3B2E0C8
:1050E0008C9187FBA5E4B2E00E94EB510E944F57E0
:1050F0008D9388278C93A5E4B2E00E94EB51EEE3F8
:10510000F6EB0E945E570E94EF56A0E2B2E08C914F
:105110008F5F8C9310F40C940F280C94A72FE4EC61
:10512000FEEB0E945E570E941A5911F00C9445291B
:105130000091AA09043011F00C944029A0ECB9E0C8
:105140000E944658A1E2B2E00C9300912102013086
:1051500011F00C943329A5EDB9E00E944658A0E265
:10516000B2E00C9300912002003080E010F009F0D2
:1051700081E08F9300912002053081E008F080E00B
:105180009F918923882311F40C942E2980E0809329
:105190000E030091200241E0041BA2E2B2E00C9356
:1051A000AAEEB9E00E944658A1E2B2E00C93009149
:1051B0002102003011F00C94EA2880912202ACE028
:1051C000B8E00E9449570E943F578C9189238C93E5
:1051D0000C94F52880912202ACE0B8E00E94495777
:1051E0000E943F579C91982B9C93ECE6F3E0ACE037
:1051F000B8E07BE70E94D158A5E4B2E0ECECFEEB0E
:105200000E945E570E94EF56E0E2F2E0A5E4B2E0B1
:105210000E94EB510E940158A5E4B2E00E94EB51BC
:10522000E4E8F6EB0E945E570E94EF56809122025E
:10523000ACE0B8E00E9449570E943F570C9008220A
:10524000689409F4E894A5E4B2E00E94EB510E944E
:105250004F578D9388278C930C94312985E0809348
:105260000E030C943E2980E080930E03A5E4B2E087
:10527000E0EEFEEB0E945E570E94EF560C9443292D
:1052800084E080930E030C94A72FEEEFFEEB0E94B8
:105290005E570E941A5911F00C941E2A0091AA0917
:1052A000013011F00C94692980E080930E03A5E48D
:1052B000B2E0E6E0FFEB0E945E570E94EF56A5E4E5
:1052C000B2E00E94EB51ECE0F8E00E948E580C94A2
:1052D0001C2A023011F00C949C29A0ECB9E00E9429
:1052E0004658A1E2B2E00C9300912102013011F086
:1052F0000C948F2980E080930E03A5E4B2E0E6E0F1
:10530000FFEB0E945E570E94EF56A5E4B2E00E94B8
:10531000EB51ECE0F8E00E948E580C949A2980E062
:1053200080930E03A5E4B2E0EEE0FFEB0E945E572F
:105330000E94EF560C941C2A033011F00C94192A89
:10534000A0ECB9E00E944658A1E2B2E00C930091B3
:105350002102013011F00C940C2AA5EDB9E00E9455
:105360004658A0E2B2E00C9300912002003080E0A9
:1053700010F009F081E08F9300912002053081E068
:1053800008F080E09F918923882311F40C94072A68
:1053900080E080930E030091200241E0041BA2E212
:1053A000B2E00C9380E080930E03A5E4B2E0E2E269
:1053B000FFEB0E945E570E94EF56E0E2F2E0A5E4A8
:1053C000B2E00E94EB510E940158A5E4B2E00E94B5
:1053D000EB51E4E8F6EB0E945E570E94EF56809195
:1053E0002202ACE0B8E00E9449570E943F570C905F
:1053F0000822689409F4E894A5E4B2E00E94EB5115
:105400000E944F578D9388278C930C940A2A85E02D
:1054100080930E030C94172A80E080930E03A5E47A
:10542000B2E0EAE2FFEB0E945E570E94EF560C9456
:105430001C2A84E080930E030C94A72FE0E4FFEB7A
:105440000E945E570E941A5911F00C94BA2A0091DA
:10545000AA09033011F00C94B52AA0ECB9E00E941F
:105460004658A0E2B2E00C9300912002003080E0A8
:1054700010F009F081E08F9300912002053081E067
:1054800008F080E09F918923882311F40C94B02ABE
:1054900080E080930E030091200241E0041BA2E211
:1054A000B2E00C93A5EDB9E00E944658A1E2B2E04B
:1054B0000C9300912102003011F00C946C2A809121
:1054C0002202A6EEB7E00E9449570E943F578C91F6
:1054D00089238C930C94772A80912202A6EEB7E060
:1054E0000E9449570E943F579C91982B9C93EFE450
:1054F000F3E0A6EEB7E07BE70E94D158A5E4B2E066
:10550000E8E4FFEB0E945E570E94EF56E0E2F2E013
:10551000A5E4B2E00E94EB510E940158A5E4B2E07C
:105520000E94EB51E4E8F6EB0E945E570E94EF56B2
:1055300080912202A6EEB7E00E9449570E943F5791
:105540000C900822689409F4E894A5E4B2E00E9463
:10555000EB510E944F578D9388278C930C94B32A5C
:1055600085E080930E030C94B82A84E080930E03A8
:105570000C94A72FECE5FFEB0E945E570E941A598E
:1055800011F00C94432B0091AA09013011F00C94F6
:10559000DE2A80E080930E03A5E4B2E0E4E6FFEBB0
:1055A0000E945E570E94EF56A5E4B2E00E94EB51C4
:1055B000E6EEF7E00E948E580C94412B023011F079
:1055C0000C943E2BA0ECB9E00E944658A0E2B2E059
:1055D0000C9300912002003080E010F009F081E08F
:1055E0008F9300912002053081E008F080E09F91C8
:1055F0008923882311F40C94392B0091200241E077
:10560000041BA2E2B2E00C9380E080930E03A5E4B9
:10561000B2E0ECE6FFEB0E945E570E94EF56E0E23C
:10562000F2E0A5E4B2E00E94EB510E940158A5E42B
:10563000B2E00E94EB51E4E8F6EB0E945E570E9454
:10564000EF5680912202A6EEB7E00E9449570E94D1
:105650003F570C900822689409F4E894A5E4B2E05E
:105660000E94EB510E944F578D9388278C930C9486
:105670003C2B85E080930E030C94412B84E08093B7
:105680000E030C94A72FE4E7FFEB0E945E570E94E5
:105690001A5911F00C94672D0091AA09053011F0E8
:1056A0000C94622DA0ECB9E00E944658A0E2B2E052
:1056B0000C93A5EDB9E00E944658A1E2B2E00C932C
:1056C000AAEEB9E00E944658A2E2B2E00C93009123
:1056D0002002013011F00C94442D00912102003081
:1056E00080E010F009F081E08F93009121020530F5
:1056F00081E008F080E09F918923882311F40C94C5
:10570000372D00912202013011F00C94E32BEFEFC2
:10571000F9E0A1E2B2E00D91112747E050E00E94CC
:10572000C256A0EEB7E0A00FB11F0E94B058E1E250
:10573000F2E00191112747E050E00E94C256E9E4EF
:10574000F3E0E00FF11FA1E2B2E00D91112747E075
:1057500050E00E94C256A0EEB7E0A00FB11F7BE759
:105760000E94E25880E080930E03A5E4B2E0ECE7EB
:10577000FFEB0E945E570E94EF56E1E2F2E0A5E4E3
:10578000B2E00E94EB510E940158A5E4B2E00E94F1
:10579000EB51E4E8F6EB0E945E570E94EF56E1E21F
:1057A000F2E00191112747E050E00E94C256E0EE7E
:1057B000F7E0E00FF11FA5E4B2E00E94EB510E9478
:1057C000B0580C94352D023011F00C94622CAFEFD0
:1057D000B9E00E944658A3E2B2E00C930091230284
:1057E000023010F00C94552C0091210241E0041B72
:1057F000A4E2B2E00C9300912302003011F00C946B
:105800000E2C80912402A6EEB7E00E9449570E9418
:105810003F578C9189238C930C94192C80912402EE
:10582000A6EEB7E00E9449570E943F579C91982BE3
:105830009C93EFE4F3E0A6EEB7E07BE70E94D1583B
:1058400080E080930E03A5E4B2E0E0E9FFEB0E9464
:105850005E570E94EF56E1E2F2E0A5E4B2E00E945A
:10586000EB510E940158A5E4B2E00E94EB51E4E83C
:10587000F6EB0E945E570E94EF5680912402A6EE3E
:10588000B7E00E9449570E943F570C900822689445
:1058900009F4E894A5E4B2E00E94EB510E944F574E
:1058A0008D9388278C930C94602C80E080930E035A
:1058B000A5E4B2E0E6E9FFEB0E945E570E94EF56D6
:1058C0000C94352D033011F00C94C62CAFEFB9E0D9
:1058D0000E944658A1E2B2E0AD90BB24A4EDB7E02F
:1058E000AA0CBB1CAA0DBB1D0D931C93E1E2F2E0B8
:1058F000A190BB24EDE3F3E0AA0CBB1CEA0DFB1D59
:10590000A1E2B2E0AD90BB24A4EDB7E0AA0CBB1CB1
:10591000AA0DBB1D7BE70E94D35880E080930E0345
:10592000A5E4B2E0E4EBFFEB0E945E570E94EF5665
:10593000E1E2F2E0A5E4B2E00E94EB510E940158DE
:10594000A5E4B2E00E94EB51E4E8F6EB0E945E575A
:105950000E94EF56E1E2F2E0A190BB24E4EDF7E013
:10596000AA0CBB1CEA0DFB1DA5E4B2E00E94EB51A2
:105970000E94F157A5E4B2E00E94EB51E0EDFFEB8D
:105980000E945E570E94EF560C94352D043011F0A2
:105990000C942A2DAFEFB9E00E944658A1E2B2E084
:1059A000AD90BB24ACEDB7E0AA0CBB1CAA0DBB1D8F
:1059B0000D931C93E1E2F2E0A190BB24E5E4F3E057
:1059C000AA0CBB1CEA0DFB1DA1E2B2E0AD90BB240A
:1059D000ACEDB7E0AA0CBB1CAA0DBB1D7BE70E9477
:1059E000D35880E080930E03A5E4B2E0E8EDFFEB2E
:1059F0000E945E570E94EF56E1E2F2E0A5E4B2E0B9
:105A00000E94EB510E940158A5E4B2E00E94EB51C4
:105A1000E4E8F6EB0E945E570E94EF56E1E2F2E006
:105A2000A190BB24ECEDF7E0AA0CBB1CEA0DFB1D1A
:105A3000A5E4B2E00E94EB510E94F157A5E4B2E068
:105A40000E94EB51E0EDFFEB0E945E570E94EF5683
:105A50000C94352D80E080930E03A5E4B2E0E4EFD2
:105A6000FFEB0E945E570E94EF560C94422D80E09F
:105A700080930E03A5E4B2E0ECE0F0EC0E945E57E8
:105A80000E94EF560C94602D033011F00C94552DAC
:105A900080E080930E03A5E4B2E0EEE1F0EC0E941A
:105AA0005E570E94EF560C94602D80E080930E03A9
:105AB000A5E4B2E0E6E4F0EC0E945E570E94EF56E7
:105AC0000C94652D84E080930E030C94A72FE2E6DE
:105AD000F0EC0E945E570E941A5911F00C94572E58
