:100000000C947200189500001895000018950000D7
:10001000189500001895000018950000189500002C
:10002000189500001895000018950000189500001C
:100030001895000018950000189500000C944D05C7
:1000400018950000189500001895000018950000FC
:100050000C94200318950000189500000C94510290
:10006000189500000C940D011895000018950000DB
:1000700018950000189500001895000018950000CC
:1000800018950000189500001895000018950000BC
:100090000C949F0118950000189500001895000019
:1000A000189500001895000018950000189500009C
:1000B000189500001895000018950000189500008C
:1000C000189500001895000018950000189500007C
:1000D000189500001895000018950000189500006C
:1000E000189500008FEF8DBFC0E8E8E94E2E81E241
:1000F0008EBFD1E2F0E25F2EA89584B7082E882744
:1001000084BF88E199278093600090936000EEEFB0
:10011000FFE1A0E0B2E088278D933197E9F787E609
:100120008093C40080E08093C50088E18093C10083
:100130006624279A389A399A3A9A3B9A3C9A3D9A79
:100140003E9A3F9A70910A01716070930A01709112
:100150000A01726070930A0170910A0174607093D1
:100160000A01219A229A239A289A209A5F9A579AEA
:10017000089809980A980B98109A119A129A139A4B
:1001800085E085BD80E084BD70916E0071607093E4
:100190006E0085E085BD80E08093800085E08093DF
:1001A000810070916F00716070936F0085E08093A3
:1001B000810087E08093B10080E08093B00070916F
:1001C000700071607093700087E08093B10070914F
:1001D000C10070687093C10087E68093CC0080E016
:1001E0008093CD007091C8007D7F7093C80086E039
:1001F0008093CA0088E18093C9007091C90070683B
:100200007093C90070E07093B9007CE07093B800FF
:100210000E94CE4D78940C9410440F921F922F920E
:100220003F924F925F927F92AF92BF920F931F9334
:100230002F933F934F935F936F937F938F939F93EE
:10024000AF93BF93CF93DF93EF93FF938FB78F93CA
:100250008BB78F9388278BBFA3E2BDE08091C60048
:100260008C9384E2482F0091230D041711F00C9415
:10027000440170918608716070938608AEE6BCE018
:1002800088278C930C9481010D3011F00C94690136
:10029000A6E8B8E08C9180FB16F00C946701709191
:1002A00086087E7F7093860880E0AEE6BCE00E9400
:1002B0001E4A8D9388278C93EEE6FCE0A4E2BDE015
:1002C0000E94DC507091A20970687093A2090C948E
:1002D00081010F3118F011F00C9470010C94810120
:1002E000A6E8B8E08C9180FB16F00C948101A3E2A3
:1002F000BDE08C91AEE6BCE00E941E4A8D9388273B
:100300008C938F918BBF8F918FBFFF91EF91DF9176
:10031000CF91BF91AF919F918F917F916F915F919D
:100320004F913F912F911F910F91BF90AF907F9070
:100330005F904F903F902F901F900F9018950F92C5
:100340001F922F923F924F925F927F92AF92BF92F5
:100350000F931F932F933F934F935F936F937F93CD
:100360008F939F93AF93BF93CF93DF93EF93FF93BD
:100370008FB78F938BB78F9388278BBFA7E8B8E091
:100380008091CE008C9385E2482F00918708041756
:1003900011F00C94D60170918608746070938608F1
:1003A000A8E8B8E088278C930C9433020D3011F044
:1003B0000C940B02A6E8B8E08C9182FB16F00C942A
:1003C0000902709186087B7F7093860880E0A8E818
:1003D000B8E00E941E4A8D9388278C93E8E8F8E0E5
:1003E000A5E1B9E00E94DC50A5E1B9E0E6E4F6EA57
:1003F0000E948F4F0E944F5111F00C940402709193
:10040000380270627093380270918608726070933F
:1004100086080C9433020F3118F011F00C9412027C
:100420000C943302A6E8B8E08C9182FB16F00C9491
:100430003302A7E8B8E08C91A8E8B8E00E941E4A11
:100440008D9388278C93A8E8B8E00E944951082F23
:100450000C3818F011F00C942F020C943302A8E819
:10046000B8E088278C938F918BBF8F918FBFFF91BE
:10047000EF91DF91CF91BF91AF919F918F917F913C
:100480006F915F914F913F912F911F910F91BF906D
:10049000AF907F905F904F903F902F901F900F9064
:1004A00018950F921F922F923F924F925F927F92D8
:1004B000AF92BF920F931F932F933F934F935F93EE
:1004C0006F937F938F939F93AF93BF93CF93DF935C
:1004D000EF93FF938FB78F938BB78F9388278BBF43
:1004E00074E676BDA7E9B7E08C918F5F8C93A7E99E
:1004F000B7E00C9148E00E9439518C930091970726
:10050000003011F00C94B702A8E9B7E00C9140E27A
:100510000E9439518C93ECE6F5E70E948F4FADE9CC
:10052000B7E08C919927A9E9B7E00E94464F8091E6
:100530009807A9E9B7E00E947A4F0E94704F0C908B
:100540000822689409F4E894A4E9B7E08C9185F94D
:100550008C93A4E9B7E08C9185FBA5E2B0E08C9187
:1005600087F98C93A8E9B7E08C918F5F8C93A4E90D
:10057000B7E08C9186FB16F00C94DD02A5E9B7E09C
:100580000E94D749A5E9B7E00D911C9149EF51E0D0
:100590000E94044AA5E9B7E00D931C93A5E9B7E0D2
:1005A0000D911C91003050E0150711F00C94DD0204
:1005B00070919407706870939407A4E9B7E08C91E8
:1005C00083FB16F00C94FC02A1EAB7E00E94D74925
:1005D000A3EAB7E04D915C91A1EAB7E00D911C91BF
:1005E0000417150711F00C94FA02709194077061CA
:1005F000709394070C94020380E090E0A1EAB7E0C6
:100600008D939C938F918BBF8F918FBFFF91EF91B3
:10061000DF91CF91BF91AF919F918F917F916F911A
:100620005F914F913F912F911F910F91BF90AF908C
:100630007F905F904F903F902F901F900F90189554
:100640000F921F922F923F924F925F927F92AF92A2
:10065000BF920F931F932F933F934F935F936F938B
:100660007F938F939F93AF93BF93CF93DF93EF933A
:10067000FF938FB78F938BB78F9388278BBF87EFAD
:1006800092EC909385008093840070919E07716036
:1006900070939E070E94E34BE8E0F2E0FA93EA933E
:1006A000E1E1F2E00E94704DA5EAB7E00D931D93E1
:1006B0002D933D93A5EAB7E00E94CA49E5EAF7E029
:1006C000A1E1B2E00E94604D0E94F64BE5EAF7E03E
:1006D000A8E0B2E00E94684D0E94EE4B0E94E34BFE
:1006E000E1E1F2E0A5EDB6E00E94DC50E5EDF6E0D8
:1006F0000E94FB4CA9EAB7E00D931D932D933D9307
:1007000081E08093AD070091AD07003118F011F042
:100710000C94B603ADEAB7E0AD90BB24A1E9B6E016
:10072000AA0CBB1CAA0CBB1CAA0DBB1D4D915D9154
:100730006D917C91A9EAB7E00D911D912D913C91AD
:100740000E940A5011F00C94AE037091E00670689C
:100750007093E0068091AD078093E106ADEAB7E0C3
:100760008C918F5F8C9310F40C948303A5EAB7E00F
:100770000D911D912D913C91ABE4B7E04D915D91B0
:100780006D917C910E94714AAEEAB7E00D931D9382
:100790002D933D9340E050E060E070E0AEEAB7E0BA
:1007A0000D911D912D913C910E940A5011F00C94D5
:1007B000DE037091E00672607093E006A5EAB7E090
:1007C0000D911D912D913C91A3EBB7E04C915527D4
:1007D000662777270E94714AAEEAB7E00D931D9312
:1007E0002D933D9340E050E060E070E0AEEAB7E06A
:1007F0000D911D912D913C910E940A5011F00C9485
:1008000006047091940774607093940781E080935C
:100810003D0200913D02043018F011F00C94750473
:10082000A5EAB7E00D911D912D913C91ADE3B2E0A9
:10083000AD90BB24A0EFB6E0AA0CBB1CAA0CBB1C5D
:10084000AA0DBB1D4D915D916D917C910E9405504B
:10085000AEEAB7E00D931D932D933D93AEEAB7E05A
:100860000D911D912D913C91ADE3B2E0AD90BB2473
:10087000A0EEB6E0AA0CBB1CAA0CBB1CAA0DBB1DAB
:100880004D915D916D917C910E94714AAEEAB7E005
:100890000D931D932D933D9300913D0241E0041B68
:1008A000ACE3B2E00C9340E050E060E070E0AEEA10
:1008B000B7E00D911D912D913C910E940A5011F0CD
:1008C0000C946D0480913C02A2EBB7E00E947A4F39
:1008D0000E94704F9C91982B9C93ADE3B2E08C9159
:1008E0008F5F8C9310F40C940904A8E2B7E08C910C
:1008F0008F5F8C93A8E2B7E00C9141E00E943951E0
:100900008C9300912807003011F00C948C047091A6
:10091000E00670617093E006ADE6B7E08C918F5F02
:100920008C93ADE6B7E00C9145E00E9439518C9371
:1009300000916D07003011F00C94A3047091E00653
:1009400071607093E006A8E3B2E08C9181FB16F031
:100950000C94CB04A1E9B4E00E94D749A1E9B4E02A
:100960000D911C91AFE8B4E04D915C910E94044A56
:10097000A1E9B4E00D931C93A1E9B4E00D911C91A1
:10098000003050E0150711F00C94CB047091380240
:10099000716070933802A4E9B7E08C9180FB16F087
:1009A0000C942C05A6E8B8E08C9187FB16F00C940B
:1009B000FF04A2E8B8E00E94D749A2E8B8E00D9190
:1009C0001C91AEE7B8E04D915C910E94044AA2E808
:1009D000B8E00D931C93A2E8B8E00D911C91003093
:1009E00050E0150711F00C94FF04709186087064B4
:1009F00070938608709186087F7770938608A6E8C2
:100A0000B8E08C9186FB16F00C942C05A4E8B8E0B5
:100A10000E94D749A4E8B8E00D911C91A0E8B8E085
:100A20004D915C910E94044AA4E8B8E00D931C9398
:100A3000A4E8B8E00D911C91003050E0150711F0CA
:100A40000C942C05709186087068709386087091DC
:100A500086087F7B709386088F918BBF8F918FBFA5
:100A6000FF91EF91DF91CF91BF91AF919F918F91C6
:100A70007F916F915F914F913F912F911F910F91B6
:100A8000BF90AF907F905F904F903F902F901F90BE
:100A90000F9018950895089508950F921F922F9220
:100AA0003F924F925F927F92AF92BF920F931F93AC
:100AB0002F933F934F935F936F937F938F939F9366
:100AC000AF93BF93CF93DF93EF93FF938FB78F9342
:100AD0008BB78F9388278BBF74E67093B200A9EC15
:100AE000B7E08C918F5F8C93A9ECB7E00C914AE052
:100AF0000E9439518C930091C907003011F00C9479
:100B0000630700274427A0E2B0E08C9180FB00F946
:100B1000A4EEB7E08C9180FB40F9042700FBA4E928
:100B2000B7E08C9181F98C93A4E9B7E08C9181FBBB
:100B3000A1E0B8E08C9180F98C9300274427A0E2D3
:100B4000B0E08C9181FB00F9A4EEB7E08C9181FBC1
:100B500040F9042700FBA4E9B7E08C9181F98C935C
:100B6000A4E9B7E08C9181FBA1E0B8E08C9181F918
:100B70008C9300274427A0E2B0E08C9182FB00F91F
:100B8000A4EEB7E08C9182FB40F9042700FBA4E9B6
:100B9000B7E08C9181F98C93A4E9B7E08C9181FB4B
:100BA000A1E0B8E08C9182F98C9300274427A0E261
:100BB000B0E08C9183FB00F9A4EEB7E08C9183FB4D
:100BC00040F9042700FBA4E9B7E08C9181F98C93EC
:100BD000A4E9B7E08C9181FBA1E0B8E08C9183F9A6
:100BE0008C9381E08093B4070091B407043018F02F
:100BF00011F00C9463070091B40741E0041BA5EBCE
:100C0000B7E00C93A4EBB7E0AD90BB24A1E0B8E053
:100C1000AA0DBB1D0C91003011F00C942B06809195
:100C2000B507A1E0B8E00E947A4F0E94704F0C9087
:100C30000822689409F4E89416F40C94290682E0DA
:100C4000A4EBB7E0AD90BB24A1E0B8E0AA0DBB1DBA
:100C50008C930C945B07013011F00C944B0680913F
:100C6000B507A1E0B8E00E947A4F0E94704F0C9047
:100C70000822689409F4E89416F00C94490683E07D
:100C8000A4EBB7E0AD90BB24A1E0B8E0AA0DBB1D7A
:100C90008C930C945B07023011F00C94D406809175
:100CA000B507A1E0B8E00E947A4F0E94704F0C9007
:100CB0000822689409F4E89416F00C94790680E010
:100CC000A4EBB7E0AD90BB24A1E0B8E0AA0DBB1D3A
:100CD0008C9380E090E0A4EBB7E0AD90BB24A4EB54
:100CE000B7E0AA0CBB1CAA0DBB1D8D939C930C9462
:100CF000D206A4EBB7E0AD90BB24A4EBB7E0AA0CFE
:100D0000BB1CAA0DBB1D0E94D749A4EBB7E0AD9058
:100D1000BB24A4EBB7E0AA0CBB1CAA0DBB1D0D9114
:100D20001C91A4EBB7E0AD90BB24AAEDB7E0AA0CF0
:100D3000BB1CAA0DBB1D4D915C910E94044AA4EB03
:100D4000B7E0AD90BB24A4EBB7E0AA0CBB1CAA0D86
:100D5000BB1D0D931C93A4EBB7E0AD90BB24A4EB9B
:100D6000B7E0AA0CBB1CAA0DBB1D0D911C91003055
:100D700050E0150711F00C94D20681E0A4EBB7E027
:100D8000AD90BB24A1E0B8E0AA0DBB1D8C9380916F
:100D9000B507A6ECB7E00E947A4F0E94704F9C9175
:100DA000982B9C930C945B07033011F00C945B0719
:100DB0008091B507A1E0B8E00E947A4F0E94704F81
:100DC0000C900822689409F4E89416F40C94020735
:100DD00081E0A4EBB7E0AD90BB24A1E0B8E0AA0DA0
:100DE000BB1D8C9380E090E0A4EBB7E0AD90BB24FA
:100DF000ACEBB7E0AA0CBB1CAA0DBB1D8D939C935A
:100E00000C945B07A4EBB7E0AD90BB24ACEBB7E070
:100E1000AA0CBB1CAA0DBB1D0E94D749A4EBB7E0CE
:100E2000AD90BB24ACEBB7E0AA0CBB1CAA0DBB1D5C
:100E30000D911C91A4EBB7E0AD90BB24A2EDB7E0FF
:100E4000AA0CBB1CAA0DBB1D4D915C910E94044ACB
:100E5000A4EBB7E0AD90BB24ACEBB7E0AA0CBB1C95
:100E6000AA0DBB1D0D931C93A4EBB7E0AD90BB2462
:100E7000ACEBB7E0AA0CBB1CAA0DBB1D0D911C91DD
:100E8000003050E0150711F00C945B0780E0A4EBF4
:100E9000B7E0AD90BB24A1E0B8E0AA0DBB1D8C93D8
:100EA0008091B507A7ECB7E00E947A4F0E94704F7F
:100EB0009C91982B9C93A4EBB7E08C918F5F8C93C3
:100EC00010F40C94F4058F918BBF8F918FBFFF911D
:100ED000EF91DF91CF91BF91AF919F918F917F91D2
:100EE0006F915F914F913F912F911F910F91BF9003
:100EF000AF907F905F904F903F902F901F900F90FA
:100F000018952F98EAE4F6EA0E948F4F0E942D4A26
:100F10000E94344AA0E8B0E2EAE6F6EA0E948F4F67
:100F20000E94204F0E94254A0E94344AA0E8B0E265
:100F3000EEE7F6EA0E948F4F0E94204F0E94254A5A
:100F40000E94344AA0E8B0E2E6E8F6EA0E948F4F39
:100F50000E94204F0E94254A0E94344AE9E3F3E0B0
:100F6000AAECB7E00E941951E0E9F6EA0E948F4F1F
:100F70000E942D4AEAECF7E0A0E8B0E20E942D5072
:100F80000E94254A0E94344AE1E0F0E0A4E8B3E080
:100F900094E00E941C51E8E9F6EA0E948F4F0E94FB
:100FA0002D4AE4E8F3E0A0E8B0E20E94684D0E9418
:100FB000254AE8EAF6EA0E948F4F0E942D4AE4E8AB
:100FC000F3E0A0E8B0E20E94604D0E94254A0E9432
:100FD000344AE4E3F3E0ABE4B7E094E00E941C5150
:100FE000EAEAF6EA0E948F4F0E942D4AEBE4F7E00E
:100FF000A0E8B0E20E9420500E94254A0E94344A94
:10100000E8E3F3E0A3EBB7E00E941951E6ECF6EA5F
:101010000E948F4F0E942D4AE3EBF7E0A0E8B0E278
:101020000E942D500E94254A0E94344A81E08093FC
:10103000200200912002043018F011F00C945E0898
:10104000E0E2F2E0A190BB24E5E0F0E0EA0DFB1D58
:10105000A0E2B2E0AD90BB24A9E8B3E0AA0DBB1DAD
:101060000E941951ECEDF6EA0E948F4F0E942D4A22
:10107000E0E2F2E0A0E8B0E20E942D500E94254A92
:10108000EEEEF6EA0E948F4F0E942D4AD201E0E276
:10109000F2E0A190BB24E9E8F3E0EA0DFB1D0E9419
:1010A000BA50D2010E94274A0E94344AA0E2B2E01C
:1010B0008C918F5F8C9310F40C941908E0EFF6EA92
:1010C0000E948F4F0E942D4A0E94344A81E08093F3
:1010D000240200912402043018F011F00C94180935
:1010E000EAEFF6EA0E948F4F0E942D4AE4E2F2E016
:1010F000A0E8B0E20E942D500E94254A0E94344A86
:1011000081E08093250200912502003118F011F052
:101110000C941009A4E2B2E00D9111270150104087
:10112000A0E3B2E00D931C93A0E3B2E00D911C91FB
:1011300040E150E00E94F34EA0E3B2E00D931C9317
:10114000A0E3B2E00D911C91A5E2B2E04D915527CC
:10115000040F151FA0E3B2E00D931C93E0E3F2E04F
:10116000A190B190E6E0F0E0AA0CBB1CAA0CBB1C5D
:10117000EA0DFB1DA8E2B2E094E00E941C51A8E237
:10118000B2E00D911D912D913C91A0E3B2E0AD90A4
:10119000BD90ABE8B3E0AA0CBB1CAA0CBB1CAA0D0B
:1011A000BB1D0D931D932D933C93AAECB7E00C91BE
:1011B00000FB16F00C940809E0E0F7EA0E948F4F5C
:1011C0000E942D4AE5E2F2E0A0E8B0E20E942D5034
:1011D0000E94254AEEEEF6EA0E948F4F0E942D4AA9
:1011E000E8E2F2E0A0E8B0E20E94604D0E94254AE9
:1011F000E6E0F7EA0E948F4F0E942D4AE0E3F2E01A
:10120000A0E8B0E20E941D500E94254A0E94344A84
:10121000A5E2B2E08C918F5F8C9310F40C9483085C
:10122000A4E2B2E08C918F5F8C9310F40C94690867
:10123000EAE0F7EA0E948F4F0E942D4A0E94344A4A
:1012400081E08093240200912402043018F011F010
:101250000C94030AEAEFF6EA0E948F4F0E942D4A8F
:10126000E4E2F2E0A0E8B0E20E942D500E94254A9C
:101270000E94344A81E080932502009125020031CA
:1012800018F011F00C94FB09E6E1F7EA0E948F4F89
:101290000E942D4AE5E2F2E0A0E8B0E20E942D5063
:1012A0000E94254A0E94344AA4E2B2E00D9111271F
:1012B00001501040A0E3B2E00D931C93A0E3B2E014
:1012C0000D911C9140E250E00E94F34EA0E3B2E089
:1012D0000D931C93A5E2B2E00D911127015010402F
:1012E000A2E3B2E00D931C93A2E3B2E00D911C9136
:1012F00048E050E00E94F34EA2E3B2E00D931C934D
:10130000A0E3B2E00D911C91A2E3B2E04D915C919B
:10131000040F151FA0E3B2E00D931C9381E08093AE
:10132000270200912702083018F011F00C94F309FD
:101330000091300240912702040FA8E8B3E00C931B
:10134000E8E8F3E0A190BB24EBE0F1E0EA0DFB1D3F
:10135000A8E8B3E0AD90BB24A2E9B4E0AA0DBB1DA0
:101360000E941951AAECB7E00C9100FB16F00C9406
:10137000EB09E0E2F7EA0E948F4F0E942D4AE7E274
:10138000F2E0A0E8B0E20E942D500E94254AEEEE65
:10139000F6EA0E948F4F0E942D4AD201E8E8F3E05E
:1013A000A190BB24E2E9F4E0EA0DFB1D0E94BA50D3
:1013B000D2010E94274AE6E2F7EA0E948F4F0E947C
:1013C0002D4AE8E8F3E0A0E8B0E20E942D500E9428
:1013D000254A0E94344AA7E2B2E08C918F5F8C9339
:1013E00010F40C949109A5E2B2E08C918F5F8C937C
:1013F00010F40C943D09A4E2B2E08C918F5F8C93C1
:1014000010F40C942309EAE0F1E0AFE8B4E00E94A4
:101410001B51EAE2F7EA0E948F4F0E942D4AEFE843
:10142000F4E0A0E8B0E20E941D500E94254A0E940C
:10143000344A0E947C13E8E3F7EA0E948F4F0E942F
:101440002D4AA6E5B3E00E94274AE0E4F7EA0E94AD
:101450008F4F0E942D4A0E94344A83E6809394065F
:10146000E5E0F0E0A9E8B3E00E941951E2E4F7EA10
:101470000E948F4F0E942D4AE9E8F3E0A0E8B0E215
:101480000E942D500E94254A0E94344A00918903EF
:10149000003018F011F00C944F0A0C94660A009179
:1014A0008903053010F00C94590A0E94760C0C94B4
:1014B000640A80E080938903E0E5F7EA0E948F4F99
:1014C0000E942D4A0E94344A0C946E0AE0E6F7EA24
:1014D0000E948F4F0E942D4A0E94344A81E08093DF
:1014E000200200912002043018F011F00C94040B3B
:1014F000E0E2F2E0A190BB24E8E0F3E0AA0CBB1C20
:10150000AA0CBB1CEA0DFB1DA0E2B2E0AD90BB240F
:10151000A0EEB6E0AA0CBB1CAA0CBB1CAA0DBB1DFE
:1015200094E00E941C51E0E2F2E0A190BB24E8E1CB
:10153000F3E0AA0CBB1CAA0CBB1CEA0DFB1DA0E22D
:10154000B2E0AD90BB24A0EFB6E0AA0CBB1CAA0C85
:10155000BB1CAA0DBB1D94E00E941C51E4E7F7EAF6
:101560000E948F4F0E942D4AE0E2F2E0A0E8B0E234
:101570000E942D500E94254AEEEEF6EA0E948F4FFF
:101580000E942D4AE0E2F2E0A190BB24E0EEF6E0FA
:10159000AA0CBB1CAA0CBB1CEA0DFB1DA0E8B0E208
:1015A0000E9420500E94254AE8E7F7EA0E948F4FE8
:1015B0000E942D4AE0E2F2E0A0E8B0E20E942D5045
:1015C0000E94254AEEEEF6EA0E948F4F0E942D4AB5
:1015D000E0E2F2E0A190BB24E0EFF6E0AA0CBB1C35
:1015E000AA0CBB1CEA0DFB1DA0E8B0E20E94205033
:1015F0000E94254A0E94344AA0E2B2E08C918F5F9B
:101600008C9310F40C94710AEAE3F3E0ABECB7E0CE
:101610000E941B51ABECB7E00E94D749EEE7F7EA16
:101620000E948F4F0E942D4AEBECF7E0A0E8B0E259
:101630000E941D500E94254A0E94344AEAE3F3E0CA
:10164000ABECB7E07BE70E94FF50EEE3F3E0A2EDE6
:10165000B7E00E941951E8E8F7EA0E948F4F0E9414
:101660002D4AD201E2EDF7E00E94BA50D2010E9469
:10167000274A0E94344A81E0809320020091200290
:10168000043018F011F00C941A0CE0E2F2E0019131
:10169000112747E050E00E94F34EE9E4F3E0E00F49
:1016A000F11FA0E2B2E00D91112747E050E00E9447
:1016B000F34EAEEDB7E0A00FB11F96E00E942351AC
:1016C000EAEAF7EA0E948F4F0E942D4AE0E2F2E038
:1016D000A0E8B0E20E942D500E94254AEEEEF6EA04
:1016E0000E948F4F0E942D4AA0E2B2E00D91112777
:1016F00047E050E00E94F34EAEEDB7E0A00FB11FFF
:101700000E94274A0E94344AE0E2F2E0A190BB2402
:10171000EDE3F3E0AA0CBB1CEA0DFB1DA0E2B2E076
:10172000AD90BB24A2EDB7E0AA0CBB1CAA0DBB1D5B
:101730000E941B51E2EBF7EA0E948F4F0E942D4A54
:10174000E0E2F2E0A0E8B0E20E942D500E94254ABB
:10175000EEEEF6EA0E948F4F0E942D4AE0E2F2E0A0
:10176000A190BB24E2EDF7E0AA0CBB1CEA0DFB1D27
:10177000A0E8B0E20E941D500E94254AEEEBF7EA75
:101780000E948F4F0E942D4A0E94344AE0E2F2E00C
:10179000A190BB24E5E4F3E0AA0CBB1CEA0DFB1D01
:1017A000A0E2B2E0AD90BB24AAEDB7E0AA0CBB1C4E
:1017B000AA0DBB1D0E941B51E6ECF7EA0E948F4F59
:1017C0000E942D4AE0E2F2E0A0E8B0E20E942D5033
:1017D0000E94254AEEEEF6EA0E948F4F0E942D4AA3
:1017E000E0E2F2E0A190BB24EAEDF7E0AA0CBB1C1A
:1017F000EA0DFB1DA0E8B0E20E941D500E94254AA0
:10180000EEEBF7EA0E948F4F0E942D4A0E94344A65
:1018100085E0A0E2B2E0AD90BB24A5E0B8E0AA0D5F
:10182000BB1D8C93A0E2B2E08C918F5F8C9310F47F
:101830000C943E0BEFE4F3E0A4EEB7E00E941951E4
:10184000E2EDF7EA0E948F4F0E942D4AD201E4EEAA
:10185000F7E00E94BA50D2010E94274A0E94344AFF
:10186000ECE6F3E0AAE0B8E00E941951EAEDF7EAED
:101870000E948F4F0E942D4AD201EAE0F8E00E94B8
:10188000BA50D2010E94274A0E94344AEDE6F3E0A2
:10189000AEE7B8E00E941B51E2EEF7EA0E948F4FDC
:1018A0000E942D4AEEE7F8E0A0E8B0E20E941D5049
:1018B0000E94254A0E94344AEFE6F3E0A0E8B8E02F
:1018C0000E941B51EEEEF7EA0E948F4F0E942D4AB4
:1018D000E0E8F8E0A0E8B0E20E941D500E94254A2E
:1018E0000E94344A83E680937D080895809189039D
:1018F00080932402EAEFF6EA0E948F4F0E942D4A5D
:10190000E4E2F2E0A0E8B0E20E942D500E94254AF5
:101910000E94344AA4E2B2E0AD90BB24A9E8B3E04F
:10192000AA0DBB1D8C9180938E03EAEFF7EA0E940B
:101930008F4F0E942D4AD201EEE8F3E00E94BA5088
:10194000D2010E94274A0E94344A81E080932502F6
:1019500000912502003118F011F00C94330DA4E22F
:10196000B2E00D91112701501040A0E3B2E00D93B9
:101970001C93A0E3B2E00D911C9140E150E00E9465
:10198000F34EA0E3B2E00D931C93A0E3B2E00D91FF
:101990001C91A5E2B2E04D915527040F151FA0E35D
:1019A000B2E00D931C93A0E3B2E0AD90BD90ABE824
:1019B000B3E0AA0CBB1CAA0CBB1CAA0DBB1D0D914D
:1019C0001D912D913C91A8E2B2E00D931D932D93B2
:1019D0003C93A8E2B2E00D911D912D913C91A5E2BE
:1019E000B2E0AD90BB24A1E9B6E0AA0CBB1CAA0CE6
:1019F000BB1CAA0DBB1D0D931D932D933C93E8E0DA
:101A0000F8EA0E948F4F0E942D4AE5E2F2E0A0E83A
:101A1000B0E20E942D500E94254AEEEEF6EA0E94A6
:101A20008F4F0E942D4AE8E2F2E0A0E8B0E20E9467
:101A3000604D0E94254AE6E0F7EA0E948F4F0E941F
:101A40002D4AE0E3F2E0A0E8B0E20E941D500E94BF
:101A5000254A0E94344AA5E2B2E08C918F5F8C93B4
:101A600010F40C94A80C089582E00E94ED4E82E0E0
:101A70000E94ED4E81E00E94ED4EAA85BB850D913E
:101A8000112701501040AC81BD810D931C93AC8196
:101A9000BD810D911C9140E250E00E94F34EAC815B
:101AA000BD810D931C93A885B9850D911127015017
:101AB0001040AA81BB810D931C93AA81BB810D911B
:101AC0001C9148E050E00E94F34EAA81BB810D9327
:101AD0001C93AC81BD810D911C91AA81BB814D915C
:101AE0005C91040F151FAC81BD810D931C93AC81DB
:101AF000BD810D911C91AE81BF814D915527040F81
:101B0000151FAC81BD810D931C93AC81BD810D91DE
:101B10001C910F5F1F4FAC81BD810D931C93AC8155
:101B2000BD81AD90BD90A2E9B4E0AA0DBB1D8C9122
:101B3000A881B9818C93E6E1F8EA0E948F4F0E9458
:101B40002D4AEE81FF81A0E8B0E20E942D500E9454
:101B5000254AEEEEF6EA0E948F4F0E942D4AD201EE
:101B6000E881F9810E94BA50D2010E94274AE8EA2E
:101B7000F6EA0E948F4F0E942D4AEC81FD81A0E879
:101B8000B0E20E941D500E94254A0E94344AA8815A
:101B9000B9818C9180FBA8E2B0E08C9180F98C93A4
:101BA000A881B9818C9181FBA8E2B0E08C9181F988
:101BB0008C93A881B9818C9182FBA8E2B0E08C91D2
:101BC00082F98C93A881B9818C9183FBA8E2B0E063
:101BD0008C9183F98C93A881B9818C9184FBA8E2C4
:101BE000B0E08C9184F98C93A881B9818C9185FBAC
:101BF000A8E2B0E08C9185F98C9385E0481A80E0EA
:101C0000580A2696089540984198429843984498D7
:101C100045980895409A419A429A439A449A459A1F
:101C200008950E94E34BE8E0F2E0A0E2B3E00E94F6
:101C3000DC50A0E2B3E00E941E4AEAE1F8EA0E940A
:101C40008F4F0E94204F0E94E34BE1E1F2E0A0E2BF
:101C5000B3E00E941E4A0E94DC50A0E2B3E00E9462
:101C60001E4AEAE1F8EA0E948F4F0E94204F81E06D
:101C700080931F0281E080931E02882780931D02BB
:101C8000A0E2B3E00E94594AA0E2B3E0ECE1F8EA36
:101C90000E948F4F0E94204FE4E0F8E0A0E2B3E002
:101CA0000E941E4A0E942D5000274427A0E2B0E067
:101CB0008C9181FB00F9A4EEB7E08C9181FB40F997
:101CC000042700FBA8E3B2E08C9187F98C93A0E293
:101CD000B3E00E941E4AE0E2F8EA0E948F4F0E94A1
:101CE000204FA8E3B2E08C9187FBA0E2B3E00E9412
:101CF0001E4A0E94804F8D9388278C93002744278B
:101D0000A0E2B0E08C9180FB00F9A4EEB7E08C91EA
:101D100080FB40F9042700FBA8E3B2E08C9187F92F
:101D20008C93A0E2B3E00E941E4AE6E2F8EA0E9429
:101D30008F4F0E94204FA8E3B2E08C9187FBA0E276
:101D4000B3E00E941E4A0E94804F8D9388278C9397
:101D5000A0E2B3E00E941E4AECE2F8EA0E948F4F34
:101D60000E94204F83E080931F0281E080931E0237
:101D7000882780931D02A0E2B3E00E94594AA0E2A6
:101D8000B3E0E0E3F8EA0E948F4F0E94204FEFE5B6
:101D9000F7E0A0E2B3E00E941E4A0E94DC50A0E2FD
:101DA000B3E00E941E4AE4E3F8EA0E948F4F0E94CB
:101DB000204FE4E5F7E0A0E2B3E00E941E4A0E9453
:101DC000DC50A0E2B3E00E941E4AECE2F8EA0E9476
:101DD0008F4F0E94204F85E080931F0281E0809307
:101DE0001E02882780931D02A0E2B3E00E94594A98
:101DF000AAE3B2E08C918F5F8C93AAE3B2E00C91DE
:101E000000FB16F00C942610A9E3B2E08C918F5FD2
:101E10008C93A0E2B3E088278C93A9E3B2E00C9105
:101E200041E10E9439518C9300913902003011F048
:101E30000C94D70FA0E2B3E0E8E3F8EA0E948F4FDA
:101E40000E94204FE9E8F3E0A0E2B3E00E941E4ABE
:101E50000E942D50A0E2B3E00E941E4AEAE3F8EA95
:101E60000E948F4F0E94204FAEE8B3E08C9180FB20
:101E7000A0E2B3E00E941E4A0E94804F8D93882703
:101E80008C93A0E2B3E00E941E4AEEE3F8EA0E94BF
:101E90008F4F0E94204FAEE8B3E08C9181FBA0E20F
:101EA000B3E00E941E4A0E94804F8D9388278C9336
:101EB000A0E2B3E00E941E4AEEE3F8EA0E948F4FD0
:101EC0000E94204FAEE8B3E08C9182FBA0E2B3E029
:101ED0000E941E4A0E94804F8D9388278C93A0E217
:101EE000B3E00E941E4AE0E4F8EA0E948F4F0E948D
:101EF000204FAEE8B3E08C9183FBA0E2B3E00E94F8
:101F00001E4A0E94804F8D9388278C93A0E2B3E0F5
:101F10000E941E4AE2E4F8EA0E948F4F0E94204F7E
:101F2000AEE8B3E08C9184FBA0E2B3E00E941E4ACD
:101F30000E94804F8D9388278C93A0E2B3E00E948B
:101F40001E4AE4E4F8EA0E948F4F0E94204FAEE858
:101F5000B3E08C9185FBA0E2B3E00E941E4A0E9490
:101F6000804F8D9388278C93A0E2B3E00E941E4A95
:101F7000E6E4F8EA0E948F4F0E94204FAEE8B3E0FB
:101F80008C9186FBA0E2B3E00E941E4A0E94804F23
:101F90008D9388278C93A0E2B3E00E941E4AEAE169
:101FA000F8EA0E948F4F0E94204F0C941910A9E369
:101FB000B2E0AD90BB24A1E9B6E0AA0CBB1CAA0C10
:101FC000BB1CAA0DBB1D0D911D912D913C91A8E24A
:101FD000B2E00D931D932D933C93A0E2B3E0E8E4AF
:101FE000F8EA0E948F4F0E94204FE9E3F2E0A0E25E
:101FF000B3E00E941E4A0E942D50A0E2B3E00E946E
:102000001E4AEEEEF6EA0E948F4F0E94204FE8E251
:10201000F2E0A0E2B3E00E941E4A0E94604DA0E2FE
:10202000B3E00E941E4AECE4F8EA0E948F4F0E943F
:10203000204F87E080931F0281E080931E02882753
:1020400080931D02A0E2B3E00E94594A0895E5E0A2
:10205000F0E0A0E1BB2781E08C937BE70E94FD507C
:10206000EAE0F1E004E110E0A0E1BB277BE70E9499
:10207000FF5080E08093210281E080932002009154
:102080002002043018F011F00C94EA10E0E2F2E0C3
:10209000A190BB24E5E0F0E0EA0DFB1DA0E1BB2729
:1020A0008FE78C937BE70E94FD50A0E2B3E0E2E56E
:1020B000F8EA0E948F4F0E94204FE0E2F3E00E9476
:1020C000FB4CA8E2B2E00D931D932D933D93ECE5FC
:1020D000F8EA0E948F4F0E942D4AE0E2F2E0A0E869
:1020E000B0E20E942D500E94254AE2E6F8EA0E94E2
:1020F0008F4F0E942D4AE8E2F2E0A0E8B0E20E9491
:1021000020500E94254A0E94344A81E08093220296
:1021100000912202003118F011F00C94E210A1E2BB
:10212000B2E08C918F5F8C93A8E2B2E00D911D918B
:102130002D913C91A1E2B2E0AD90BB24ABE8B3E0BD
:10214000AA0CBB1CAA0CBB1CAA0DBB1D0D931D9396
:102150002D933C93E8E4F8EA0E948F4F0E942D4AA9
:10216000E1E2F2E0A0E8B0E20E942D500E94254A90
:10217000EEEEF6EA0E948F4F0E942D4AE8E2F2E06E
:10218000A0E8B0E20E94604D0E94254A0E94344AB5
:10219000A8E2B2E00D911D912D913C9140E15EE0ED
:1021A00060E070E00E940550A8E2B2E00D931D933C
:1021B0002D933D93A2E2B2E08C918F5F8C9310F44B
:1021C0000C948810A0E2B2E08C918F5F8C9310F495
:1021D0000C943F1081E08093250200912502003489
:1021E00018F011F00C941811E5E2F2E0A190BB2474
:1021F000E6E0F0E0AA0CBB1CAA0CBB1CEA0DFB1D20
:10220000A5E2B2E0AD90BB24ABE8B3E0AA0CBB1CE6
:10221000AA0CBB1CAA0DBB1D94E07BE70E940051D9
:10222000A5E2B2E08C918F5F8C9310F40C94ED10CA
:1022300081E08093240200912402043018F011F010
:102240000C940612EAEFF6EA0E948F4F0E942D4A84
:10225000E4E2F2E0A0E8B0E20E942D500E94254A9C
:102260000E94344A81E080932502009125020031CA
:1022700018F011F00C94FE11E6E1F7EA0E948F4F7E
:102280000E942D4AE5E2F2E0A0E8B0E20E942D5063
:102290000E94254A0E94344AA4E2B2E00D9111271F
:1022A00001501040A0E3B2E00D931C93A0E3B2E014
:1022B0000D911C9140E250E00E94F34EA0E3B2E089
:1022C0000D931C93A5E2B2E00D911127015010402F
:1022D000A2E3B2E00D931C93A2E3B2E00D911C9136
:1022E00048E050E00E94F34EA2E3B2E00D931C934D
:1022F000A0E3B2E00D911C91A2E3B2E04D915C919C
:10230000040F151FA0E3B2E00D931C9381E08093AE
:10231000270200912702083018F011F00C94F611F2
:102320000091300240912702040FA8E8B3E00C931B
:10233000E0EBF5E70E948F4FA7E2B2E08C9199277E
:10234000A0E2B2E00E94424F80912002A8E8B3E0F0
:10235000AD90BB24A2E9B4E0AA0DBB1D8C93E8E8C4
:10236000F3E0A190BB24EBE0F1E0EA0DFB1DA0E25D
:10237000B2E07BE70E94FD50E0E2F7EA0E948F4F57
:102380000E942D4AE7E2F2E0A0E8B0E20E942D5060
:102390000E94254AEEEEF6EA0E948F4F0E942D4AD7
:1023A000D201E8E8F3E0A190BB24E2E9F4E0EA0D11
:1023B000FB1D0E94BA50D2010E94274AE6E2F7EACA
:1023C0000E948F4F0E942D4AE8E8F3E0A0E8B0E2B7
:1023D0000E942D500E94254A0E94344AA7E2B2E092
:1023E0008C918F5F8C9310F40C948911A5E2B2E06C
:1023F0008C918F5F8C9310F40C943511A4E2B2E0B1
:102400008C918F5F8C9310F40C941B11E9E3F3E033
:10241000A0E1BB2780E08C937BE70E94FD5080E029
:102420008093200281E080932402009124020430F2
:1024300018F011F00C9489120CE211E020E030E069
:10244000A4E2B2E0AD90BB24A0EEB6E0AA0CBB1CA7
:10245000AA0CBB1CAA0DBB1D0D931D932D933C9381
:10246000E4E2F2E0A190BB24E8E0F3E0AA0CBB1C9C
:10247000AA0CBB1CEA0DFB1DA4E2B2E0AD90BB248C
:10248000A0EEB6E0AA0CBB1CAA0CBB1CAA0DBB1D7F
:1024900094E07BE70E940051A0E2B2E08C91A4E2BC
:1024A000B2E0AD90BB24A0EFB6E0AA0CBB1CAA0C16
:1024B000BB1CAA0DBB1D8D9388278D938D938C9388
:1024C000E4E2F2E0A190BB24E8E1F3E0AA0CBB1C3B
:1024D000AA0CBB1CEA0DFB1DA4E2B2E0AD90BB242C
:1024E000A0EFB6E0AA0CBB1CAA0CBB1CAA0DBB1D1E
:1024F00094E07BE70E940051A0E2B2E08C91845C02
:102500008C93A4E2B2E08C918F5F8C9310F40C94C6
:10251000151281E08093240200912402043018F007
:1025200011F00C94DE12A0E2B3E0EAE6F8EA0E94B1
:102530008F4F0E94204FE4E2F2E0A0E2B3E00E945D
:102540001E4A0E942D50E4E2F2E00191112747E07B
:1025500050E00E94F34EE9E4F3E0E00FF11FA0E247
:10256000B3E07BE70E940E51E4E2F2E0A190BB24CD
:10257000EDE3F3E0AA0CBB1CEA0DFB1D0AE010E042
:10258000A0E1BB277BE70E94FF50E4E2F2E0A190CC
:10259000BB24E5E4F3E0AA0CBB1CEA0DFB1D0AE03A
:1025A00010E0A0E1BB277BE70E94FF50A4E2B2E06D
:1025B0008C918F5F8C9310F40C948C12EFE4F3E009
:1025C000A0E1BB278FE08C937BE70E94FD50ECE6F7
:1025D000F3E0A0E1BB278FE08C937BE70E94FD50E6
:1025E000EDE6F3E00CE310E0A0E1BB277BE70E94FF
:1025F000FF50EFE6F3E00EE110E0A0E1BB277BE740
:102600000E94FF50E4E3F3E000E11EE020E030E050
:10261000A0E1BB2794E07BE70E940051E8E3F3E0F0
:10262000A0E1BB278CE38C937BE70E94FD500895CB
:10263000EEE6F8EA0E948F4F0E942D4A0E94344A2B
:10264000E0E0F0E0A5E5B3E00E94195180E080935E
:102650002102A2EAB9E08C9187FB16F00C94431397
:102660007091A2097F777093A209E8E8F8EA0E94C6
:102670008F4F0E942D4AA4E2BDE00E94274A0E948B
:10268000344A0E940D1400919E07013011F00C9401
:102690006D1370919E077E7F70939E07A0E2B2E05B
:1026A0008C918F5F8C93A1E2B2E08C918F5F8C93C1
:1026B000A0E2B2E00C914AE00E9439518C93009163
:1026C0002002003011F00C946D13EEE8F8EA0E943D
:1026D0008F4F0E942D4A0E94344A009155030130C9
:1026E00011F00C942913E0EBF8EA0E948F4F0E943E
:1026F0002D4A0E94344A089580E08093200280E0B1
:1027000080932102A6E5B3E088278C938EE0809326
:10271000200200912002073118F011F00C94A5134B
:10272000E09120020E94DC4E082FE0E1F0E0A6E5F7
:10273000B3E00E941E4A0E94A150A0E2B2E08C9138
:102740008F5F8C9310F40C948913E6E5F3E0A5E415
:10275000B2E00E94DC50A6E5B3E088278C938EE0BF
:102760008093200200912002073118F011F00C94A0
:10277000CE13E09120020E94DC4E082FE0E1F0E051
:10278000A6E5B3E00E941E4A0E94A150A0E2B2E07A
:102790008C918F5F8C9310F40C94B213E5E4F2E00B
:1027A000A6E5B3E00E94515111F00C94DA1381E0D8
:1027B00080932002A1E2B2E08C918F5F8C93009114
:1027C0002002003011F00C94F91384EF91E00E9484
:1027D000E74AE4ECF8EA0E948F4F0E942D4AE1E2BA
:1027E000F2E0A0E8B0E20E942D500E94254A0E942B
:1027F000344A00912002013081E009F080E08F939B
:10280000009121020A3081E009F080E09F91892B3C
:10281000882311F40C9482130895EAECF8EA0E94DC
:102820008F4F0E942D4AA4E2BDE00E94274A0E94D9
:10283000344A81E0E4E2FDE006E00A93A0E2B3E07E
:102840000E94E750E4E2FDE09CE204E132E2A4EA07
:10285000B9E00E948351A3EAB9E02C93A4EAB9E05D
:102860000E944951082F063011F00C94772AE4EAAF
:10287000F9E0AEE3B2E00E94DC50EEE3F2E0AEE35A
:10288000B2E00E94644F8FEF80930E03AEE3B2E09C
:10289000ECECF8EA0E948F4F0E944F5111F00C941B
:1028A000921480E080930E03A5E4B2E0E4EDF8EA30
:1028B0000E948F4F0E94204FA0E2B3E0EAE6F6EAC2
:1028C0000E948F4F0E94204FE0E2F3E0A5E4B2E0C7
:1028D0000E941E4A0E94DC50A5E4B2E00E941E4AFB
:1028E000E8EEF8EA0E948F4F0E94204FA0E2B3E08A
:1028F000E6E8F6EA0E948F4F0E94204FE0E2F3E004
:10290000A5E4B2E00E941E4A0E94DC50A5E4B2E0B9
:102910000E941E4AE0E4F7EA0E948F4F0E94204F77
:102920000C94752AE6EFF8EA0E948F4F0E944F51EF
:1029300011F00C94B91480E080930E03A5E4B2E08A
:10294000EEEFF8EA0E948F4F0E94204F70913802FC
:1029500070617093380281E080935503E0E0F0E00D
:10296000A5E5B3E07BE70E94FD500E9427100C9480
:10297000752AECE2F9EA0E948F4F0E944F5111F044
:102980000C94E31480E080930E030E947C13A5E472
:10299000B2E0E4E3F9EA0E948F4F0E94204FE6E59F
:1029A000F3E0A5E4B2E00E941E4A0E94DC50A5E4D8
:1029B000B2E00E941E4AE0E4F7EA0E948F4F0E94B4
:1029C000204F0C94752AEEE3F9EA0E948F4F0E9483
:1029D0004F5111F00C9422150091A309023011F00F
:1029E0000C941D15A9EBB9E00E947250A0E2B2E070
:1029F0000C9300912002013110F00C94181580E026
:102A000080930E03A5E4B2E0E6E4F9EA0E948F4F5A
:102A10000E94204FE0E2F2E0A5E4B2E00E941E4AEC
:102A20000E942D508091200280939D070C941B15CD
:102A300085E080930E030C94201584E080930E03B0
:102A40000C94752AEEE5F9EA0E948F4F0E944F51CF
:102A500011F00C9431160091A309023011F00C947E
:102A60002C16A9EBB9E00E944951082F0C3011F047
:102A70000C94271680E080930E0387E0E9EBF9E0E1
:102A800002E00A93A0E2B3E00E94E750A0E2B3E0C4
:102A90000E941E4AE6E6F9EA0E948F4F0E94204FEC
:102AA00089E0E9EBF9E002E00A93A0E2B3E00E94DA
:102AB0001E4A0E94E750A0E2B3E00E941E4AE6E6EA
:102AC000F9EA0E948F4F0E94204F8BE0E9EBF9E07A
:102AD00002E00A93A0E2B3E00E941E4A0E94E7507F
:102AE000A0E2B3E00E94274A0E94344AE0E2F3E009
:102AF000A1E1B2E00E94DC500E94F64BE8E6F9EA60
:102B00000E948F4F0E942D4A0E94E34BA1E1B2E048
:102B10000E94274A0E94344A81E0E9EBF9E002E092
:102B20000A93A0E2B3E00E94E750A0E2B3E00E9463
:102B30001E4AECE6F9EA0E948F4F0E94204F83E084
:102B4000E9EBF9E002E00A93A0E2B3E00E941E4A3A
:102B50000E94E750A0E2B3E00E941E4AECE6F9EAC8
:102B60000E948F4F0E94204F85E0E9EBF9E002E0E0
:102B70000A93A0E2B3E00E941E4A0E94E750A0E23E
:102B8000B3E00E94274A0E94344AE0E2F3E0A8E062
:102B9000B2E00E94DC500E94EE4BEEE6F9EA0E94A1
:102BA0008F4F0E942D4A0E94E34BA8E0B2E00E94A2
:102BB000274A0E94344AA5E4B2E0E2E7F9EA0E941B
:102BC0008F4F0E94204F0E94E34BE8E0F2E0A5E423
:102BD000B2E00E941E4A0E94DC50A5E4B2E00E94CE
:102BE0001E4AECE9F9EA0E948F4F0E94204F0E9492
:102BF000E34BE1E1F2E0A5E4B2E00E941E4A0E944C
:102C0000DC50E5E0F2E00E94464CADE6B3E08C9388
:102C10000E94432C0E948D2C0E94BC2BE2E0F2E02B
:102C20000E94274DA4E8B3E00D931D932D933D938F
:102C3000E1E0F0E0A4E8B3E094E07BE70E9400511B
:102C4000709138027860709338020C942A1686E0EE
:102C500080930E030C942F1684E080930E030C9443
:102C6000752AE0EAF9EA0E948F4F0E944F5111F055
:102C70000C94471680E080930E03A5E4B2E0E8EAE6
:102C8000F9EA0E948F4F0E94204F0C94752AE0EBC6
:102C9000F9EA0E948F4F0E944F5111F00C94871651
:102CA00080E080930E030E94E34BE1E1F2E0A0E2BA
:102CB000B3E00E94DC50A5E4B2E0E8EBF9EA0E9440
:102CC0008F4F0E94204FE0E2F3E0A5E4B2E00E94C3
:102CD0001E4A0E94DC50A5E4B2E00E941E4AE6ECC7
:102CE000F9EA0E948F4F0E94204F0E94E34BE8E0D8
:102CF000F2E0A0E2B3E00E94DC50E0E2F3E0A5E401
:102D0000B2E00E941E4A0E94DC500C94752AE6ED47
:102D1000F9EA0E948F4F0E944F5111F00C94C31694
:102D200080E080930E03E4E8F3E0A0E2B3E00E94C9
:102D3000604DA5E4B2E0EEEDF9EA0E948F4F0E94EB
:102D4000204FE0E2F3E0A5E4B2E00E941E4A0E94B8
:102D5000DC50A5E4B2E00E941E4AE2EFF9EA0E94CC
:102D60008F4F0E94204FE4E8F3E0A0E2B3E00E941E
:102D7000684DE0E2F3E0A5E4B2E00E941E4A0E9442
:102D8000DC500C94752AEAEFF9EA0E948F4F0E94FA
:102D90004F5111F00C94CC170091A309043011F09D
:102DA0000C94C717A9EBB9E00E947250A1E2B2E0FF
:102DB0000C9300912102003080E010F009F081E0D6
:102DC0008F9300912102053081E008F080E09F910F
:102DD0008923882311F40C94C217AEECB9E00E9449
:102DE0007250A0E2B2E00C9300912002003080E02B
:102DF00010F009F081E08F9300912002013181E011
:102E000008F080E09F918923882311F40C94BD176A
:102E100080E080930E03E3EEF9E0A0E2B3E00E94CD
:102E2000DC50A1E2B2E00D91112701501040A0E367
:102E3000B2E00D931C93A0E3B2E00D911C9140E130
:102E400050E00E94F34EA0E3B2E00D931C93A0E388
:102E5000B2E00D911C91A0E2B2E04D915527040F14
:102E6000151FA0E3B2E00D931C93E2E0FAEA0E9482
:102E70008F4F0E942D4AE0E3F2E0A0E8B0E20E940A
:102E80001D500E94254A0E94344AE0E2F3E00E946D
:102E9000FB4CA0E3B2E0AD90BD90ABE8B3E0AA0C70
:102EA000BB1CAA0CBB1CAA0DBB1D0D931D932D931F
:102EB0003D93E0E3F2E0A190B190E6E0F0E0AA0CEF
:102EC000BB1CAA0CBB1CEA0DFB1DA0E3B2E0AD903D
:102ED000BD90ABE8B3E0AA0CBB1CAA0CBB1CAA0DAE
:102EE000BB1D94E07BE70E940051E0E3F2E0A1907B
:102EF000B190EBE8F3E0AA0CBB1CAA0CBB1CEA0DDA
:102F0000FB1DA0E2B3E00E94604DA5E4B2E0ECE05E
:102F1000FAEA0E948F4F0E94204FE0E2F2E0A5E41F
:102F2000B2E00E941E4A0E942D50A5E4B2E00E9429
:102F30001E4AECE9F9EA0E948F4F0E94204FE0E21E
:102F4000F3E0A5E4B2E00E941E4A0E94DC50A5E432
:102F5000B2E00E941E4AEAE1FAEA0E948F4F0E9404
:102F6000204FE1E2F2E0A5E4B2E00E941E4A0E9496
:102F70002D500E94760C0C94C01786E080930E03AF
:102F80000C94C51785E080930E030C94CA1784E057
:102F900080930E030C94752AE4E2FAEA0E948F4FA4
:102FA0000E944F5111F00C949D180091A309033019
:102FB00011F00C949818A9EBB9E00E947250A1E2AC
:102FC000B2E00C9300912102003080E010F009F093
:102FD00081E08F9300912102053081E008F080E0CC
:102FE0009F918923882311F40C949318AEECB9E0D7
:102FF0000E947250A0E2B2E00C93009120020030D7
:1030000080E010F009F081E08F93009120020131FF
:1030100081E008F080E09F918923882311F40C94CB
:103020008E1880E080930E03A1E2B2E00D9111278B
:1030300001501040A0E3B2E00D931C93A0E3B2E076
:103040000D911C9140E150E00E94F34EA0E3B2E0EC
:103050000D931C93A0E3B2E00D911C91A0E2B2E0AD
:103060004D915527040F151FA0E3B2E00D931C935B
:10307000E2E0FAEA0E948F4F0E942D4AE0E3F2E07C
:10308000A0E8B0E20E941D500E94254A0E94344AE6
:10309000E0E3F2E0A190B190EBE8F3E0AA0CBB1CF6
:1030A000AA0CBB1CEA0DFB1DA0E2B3E00E94604D20
:1030B000A5E4B2E0ECE2FAEA0E948F4F0E94204FB2
:1030C000E0E2F2E0A5E4B2E00E941E4A0E942D5028
:1030D000A5E4B2E00E941E4AE4E3FAEA0E948F4FA0
:1030E0000E94204FE0E2F3E0A5E4B2E00E941E4A15
:1030F0000E94DC50A5E4B2E00E941E4AEAE1FAEA2E
:103100000E948F4F0E94204FE1E2F2E0A5E4B2E07E
:103110000E941E4A0E942D500C94911886E08093C4
:103120000E030C94961885E080930E030C949B1864
:1031300084E080930E030C94752AE8E3FAEA0E9477
:103140008F4F0E944F5111F00C94EF180091A3097A
:10315000023011F00C94EA18A9EBB9E00E94725009
:10316000A0E3B2E00D931C93A0E3B2E00D911C919B
:10317000003050E0150718F011F00C94C1180C94B1
:10318000E51880E080930E03A0E3B2E08D919C915E
:10319000AFE8B4E08D939C93A5E4B2E0E0E4FAEAF2
:1031A0000E948F4F0E94204FEFE8F4E0A5E4B2E0C8
:1031B0000E941E4A0E941D50EAE0F1E0AFE8B4E030
:1031C0007BE70E94FF500C94E81885E080930E0383
:1031D0000C94ED1884E080930E030C94752AE6E5B8
:1031E000FAEA0E948F4F0E944F5111F00C940D1972
:1031F00080E080930E03A5E4B2E0EEE5FAEA0E94D7
:103200008F4F0E94204FEFE8F4E0A5E4B2E00E9467
:103210001E4A0E941D500C94752AE6E6FAEA0E94A6
:103220008F4F0E944F5111F00C945F190091A30928
:10323000023011F00C945A19A9EBB9E00E947250B7
:10324000A0E3B2E00D931C93A0E3B2E00D911C91BA
:10325000003050E0150718F011F00C9431190C945F
:10326000551980E080930E03A0E3B2E08D919C910C
:10327000AEE7B8E08D939C93A5E4B2E0EEE6FAEAFF
:103280000E948F4F0E94204FEEE7F8E0A5E4B2E0E5
:103290000E941E4A0E941D50EDE6F3E0AEE7B8E042
:1032A0007BE70E94FF500C94581985E080930E0331
:1032B0000C945D1984E080930E030C94752AE6E863
:1032C000FAEA0E948F4F0E944F5111F00C947D1921
:1032D00080E080930E03A5E4B2E0E2EEF7EA0E94FC
:1032E0008F4F0E94204FEEE7F8E0A5E4B2E00E9485
:1032F0001E4A0E941D500C94752AEEE8FAEA0E94BC
:103300008F4F0E944F5111F00C94CF190091A309D7
:10331000023011F00C94CA19A9EBB9E00E94725066
:10332000A0E3B2E00D931C93A0E3B2E00D911C91D9
:10333000003050E0150718F011F00C94A1190C940E
:10334000C51980E080930E03A0E3B2E08D919C91BB
:10335000A0E8B8E08D939C93A5E4B2E0E6E9FAEA30
:103360000E948F4F0E94204FE0E8F8E0A5E4B2E011
:103370000E941E4A0E941D50EFE6F3E0A0E8B8E06C
:103380007BE70E94FF500C94C81985E080930E03E0
:103390000C94CD1984E080930E030C94752AE0EB15
:1033A000FAEA0E948F4F0E944F5111F00C94ED19D0
:1033B00080E080930E03A5E4B2E0EEEEF7EA0E940F
:1033C0008F4F0E94204FE0E8F8E0A5E4B2E00E94B1
:1033D0001E4A0E941D500C94752AE8EBFAEA0E94DE
:1033E0008F4F0E944F5111F00C94291B0091A3099B
:1033F000053011F00C94241BA9EBB9E00E94725027
:10340000A1E2B2E00C9300912102003080E010F0C4
:1034100009F081E08F9300912102053081E008F0EE
:1034200080E09F918923882311F40C941F1BAEEC3C
:10343000B9E00E947250A2E2B2E00C930091220225
:10344000003080E010F009F081E08F9300912202BB
:10345000013181E008F080E09F918923882311F4F5
:103460000C941A1BA3EEB9E00E947250A0E2B2E0E5
:103470000C9300912002003080E010F009F081E010
:103480008F9300912002093081E008F080E09F9145
:103490008923882311F40C94151BA1E2B2E00D914D
:1034A000112701501040A0E3B2E00D931C93A0E35C
:1034B000B2E00D911C9140E250E00E94F34EA0E377
:1034C000B2E00D931C93A2E2B2E00D9111270150DE
:1034D0001040A2E3B2E00D931C93A2E3B2E00D9181
:1034E0001C9148E050E00E94F34EA2E3B2E00D933D
:1034F0001C93A0E3B2E00D911C91A2E3B2E04D91C8
:103500005C91040F151FA0E3B2E00D931C93A0E3A0
:10351000B2E00D911C91A0E2B2E04D915527040F4D
:10352000151FA0E3B2E00D931C93E0ECFAEA0E94B1
:103530008F4F0E942D4AE0E3F2E0A0E8B0E20E9443
:103540001D500E94254A0E94344AA8EFB9E00E940B
:10355000CA50A3E2B2E00C9380912302A0E3B2E050
:10356000AD90BD90A2E9B4E0AA0DBB1D8C93E0E341
:10357000F2E0A190B190EBE0F1E0EA0DFB1DA3E2D7
:10358000B2E07BE70E94FD5080E080930E03A5E44B
:10359000B2E0EAECFAEA0E948F4F0E94204FE0E28C
:1035A000F2E0A5E4B2E00E941E4A0E942D50A5E47C
:1035B000B2E00E941E4AEAEDFAEA0E948F4F0E9492
:1035C000204FE2E2F2E0A5E4B2E00E941E4A0E942F
:1035D0002D50A5E4B2E00E941E4AE8EEFAEA0E94ED
:1035E0008F4F0E94204FE1E2F2E0A5E4B2E00E949A
:1035F0001E4A0E942D50A5E4B2E00E941E4AEEEE43
:10360000F6EA0E948F4F0E94204FA5E4B2E00E948C
:103610001E4AE0E3F2E0A190B190E2E9F4E0EA0DA5
:10362000FB1D0E94BA500C94181B87E080930E0378
:103630000C941D1B86E080930E030C94221B85E0E6
:1036400080930E030C94271B84E080930E030C944C
:10365000752AE2EFFAEA0E948F4F0E944F5111F053
:103660000C94461C0091A309043011F00C94411CE9
:10367000A9EBB9E00E947250A1E2B2E00C93009174
:103680002102003080E010F009F081E08F9300917A
:103690002102053081E008F080E09F918923882392
:1036A00011F40C943C1CAEECB9E00E947250A2E202
:1036B000B2E00C9300912202003080E010F009F09B
:1036C00081E08F9300912202013181E008F080E0D7
:1036D0009F918923882311F40C94371CA3EEB9E041
:1036E0000E947250A0E2B2E00C93009120020030E0
:1036F00080E010F009F081E08F9300912002093002
:1037000081E008F080E09F918923882311F40C94D4
:10371000321C80E080930E03A1E2B2E00D911127EC
:1037200001501040A0E3B2E00D931C93A0E3B2E07F
:103730000D911C9140E250E00E94F34EA0E3B2E0F4
:103740000D931C93A2E2B2E00D911127015010409D
:10375000A2E3B2E00D931C93A2E3B2E00D911C91A1
:1037600048E050E00E94F34EA2E3B2E00D931C93B8
:10377000A0E3B2E00D911C91A2E3B2E04D915C9107
:10378000040F151FA0E3B2E00D931C93A0E3B2E079
:103790000D911C91A0E2B2E04D915527040F151F29
:1037A000A0E3B2E00D931C93EAEFFAEA0E948F4F78
:1037B0000E942D4AE0E3F2E0A0E8B0E20E941D5032
:1037C0000E94254A0E94344AA5E4B2E0E0E2F7EA0A
:1037D0000E948F4F0E94204FE0E2F2E0A5E4B2E0A9
:1037E0000E941E4A0E942D50A5E4B2E00E941E4A8B
:1037F000EAEDFAEA0E948F4F0E94204FE2E2F2E0E7
:10380000A5E4B2E00E941E4A0E942D50A5E4B2E059
:103810000E941E4AE8EEFAEA0E948F4F0E94204F53
:10382000E1E2F2E0A5E4B2E00E941E4A0E942D50BF
:10383000A5E4B2E00E941E4AEEEEF6EA0E948F4F27
:103840000E94204FA5E4B2E00E941E4AE0E3F2E0AD
:10385000A190B190E2E9F4E0EA0DFB1D0E94BA509C
:103860000C94351C87E080930E030C943A1C86E080
:1038700080930E030C943F1C85E080930E030C9400
:10388000441C84E080930E030C94752AE8E0FBEA64
:103890000E948F4F0E944F5111F00C94A41C009174
:1038A000A309023011F00C949F1CA9EBB9E00E940F
:1038B0007250A1E2B2E00C9300912102003080E04E
:1038C00010F009F081E08F9300912102053081E032
:1038D00008F080E09F918923882311F40C949A1CAE
:1038E00080E080930E03A9EBB9E00E947250A9E832
:1038F000B3E00C93E5E0F0E0A9E8B3E07BE70E94D9
:10390000FD50A5E4B2E0E0E1FBEA0E948F4F0E9487
:10391000204FE9E8F3E0A5E4B2E00E941E4A0E94CD
:103920002D500E94760C7091B20772607093B207AE
:103930000C949D1C85E080930E030C94A21C84E0E3
:1039400080930E030C94752AEEE2FBEA0E948F4FDF
:103950000E944F5111F00C94C71C80E080930E031D
:10396000A5E4B2E0E2E4F7EA0E948F4F0E94204F04
:10397000E9E8F3E0A5E4B2E00E941E4A0E942D505F
:103980007091E00670627093E0060C94752AE6E38D
:10399000FBEA0E948F4F0E944F5111F00C944A1D78
:1039A0000091A309033011F00C94451DA9EBB9E077
:1039B0000E947250A1E2B2E00C930091210200300B
:1039C00080E010F009F081E08F9300912102053032
:1039D00081E008F080E09F918923882311F40C9402
:1039E000401D80E080930E03AEECB9E00E94CA5007
:1039F000A1E2B2E0AD90BB24A9E8B3E0AA0DBB1DE3
:103A00000C93E1E2F2E0A190BB24E5E0F0E0EA0DE6
:103A1000FB1DA1E2B2E0AD90BB24A9E8B3E0AA0D82
:103A2000BB1D7BE70E94FD50A5E4B2E0EEE3FBEA9C
:103A30000E948F4F0E94204FE9E8F3E0A5E4B2E036
:103A40000E941E4A0E942D50A5E4B2E00E941E4A28
:103A5000ECE9F9EA0E948F4F0E94204FA5E4B2E002
:103A60000E941E4AE1E2F2E0A190BB24E9E8F3E003
:103A7000EA0DFB1D0E94BA500E94760C0C94431D67
:103A800085E080930E030C94481D84E080930E0320
:103A90000C94752AECE5FBEA0E948F4F0E944F516F
:103AA00011F00C94A41D0091A309023011F00C94A4
:103AB0009F1D00912102003080E010F009F081E0AC
:103AC0008F9300912102053081E008F080E09F9102
:103AD0008923882311F40C949A1D80E080930E03AF
:103AE000A5E4B2E0E4E6FBEA0E948F4F0E94204F7B
:103AF000E9E8F3E0A5E4B2E00E941E4A0E942D50DE
:103B0000A5E4B2E00E941E4AE8E7FBEA0E948F4F5C
:103B10000E94204FA5E4B2E00E941E4AE1E2F2E0DA
:103B2000A190BB24E9E8F3E0EA0DFB1D0E94BA5026
:103B30000C949D1D85E080930E030C94A21D84E0DF
:103B400080930E030C94752AECE7FBEA0E948F4FDA
:103B50000E944F5111F00C944B1E0091A3090330A9
:103B600011F00C94461EA9EBB9E00E947250A4E239
:103B7000B2E00C9300912402003080E010F009F0D4
:103B800081E08F9300912402053081E008F080E00D
:103B90009F918923882311F40C94411EAEECB9E067
:103BA0000E947250ACE2B2E00D931D932D933D93B1
:103BB000ACE2B2E00D911D912D913C91A4E2B2E0F6
:103BC000AD90BB24A0EEB6E0AA0CBB1CAA0CBB1C9B
:103BD000AA0DBB1D0D931D932D933C93E4E2F2E0DF
:103BE000A190BB24E8E0F3E0AA0CBB1CAA0CBB1C10
:103BF000EA0DFB1DACE2B2E094E07BE70E940051CD
:103C000080E080930E03A5E4B2E0E4E8FBEA0E94C2
:103C10008F4F0E94204FE4E2F2E0A5E4B2E00E9460
:103C20001E4A0E942D50A5E4B2E00E941E4AE6E61C
:103C3000F9EA0E948F4F0E94204FE4E2F2E0A19047
:103C4000BB24E0EEF6E0AA0CBB1CAA0CBB1CEA0DE0
:103C5000FB1DA5E4B2E00E941E4A0E942050E4E24F
:103C6000F2E0A190BB24E0EEF6E0AA0CBB1CAA0C8B
:103C7000BB1CEA0DFB1DA4E0B7E00E9420500C9491
:103C8000441E83E080930E030C94491E84E08093CD
:103C90000E030C94752AEAE9FBEA0E948F4F0E94FA
:103CA0004F5111F00C94F21E0091A309033011F052
:103CB0000C94ED1EA9EBB9E00E947250A4E2B2E0B0
:103CC0000C9300912402003080E010F009F081E0B4
:103CD0008F9300912402053081E008F080E09F91ED
:103CE0008923882311F40C94E81EAEECB9E00E94FD
:103CF0007250ACE2B2E00D931D932D933D93ACE274
:103D0000B2E00D911D912D913C91A4E2B2E0AD90F5
:103D1000BB24A0EFB6E0AA0CBB1CAA0CBB1CAA0DCE
:103D2000BB1D0D931D932D933C93E4E2F2E0A19013
:103D3000BB24E8E1F3E0AA0CBB1CAA0CBB1CEA0DF7
:103D4000FB1DACE2B2E094E07BE70E94005180E012
:103D500080930E03A5E4B2E0E4E8FBEA0E948F4FF3
:103D60000E94204FE4E2F2E0A5E4B2E00E941E4A85
:103D70000E942D50A5E4B2E00E941E4AE6E6F9EA50
:103D80000E948F4F0E94204FE4E2F2E0A190BB24FA
:103D9000E0EFF6E0AA0CBB1CAA0CBB1CEA0DFB1D55
:103DA000A5E4B2E00E941E4A0E942050E4E2F2E044
:103DB000A190BB24E0EFF6E0AA0CBB1CAA0CBB1C34
:103DC000EA0DFB1DA4E0B7E00E9420500C94EB1E0E
:103DD00083E080930E030C94F01E84E080930E0326
:103DE0000C94752AE2EAFBEA0E948F4F0E944F5121
:103DF00011F00C94971F0091A309023011F00C945C
:103E0000921FA9EBB9E00E947250A4E2B2E00C93B9
:103E100000912402003080E010F009F081E08F93DF
:103E200000912402053081E008F080E09F91892311
:103E3000882311F40C948D1FA5E4B2E0EAEAFBEAB2
:103E40000E948F4F0E94204FE4E2F2E0A5E4B2E02E
:103E50000E941E4A0E942D50A5E4B2E00E941E4A14
:103E6000E6E6F9EA0E948F4F0E94204FE4E2F2E07A
:103E7000A190BB24E0EEF6E0AA0CBB1CAA0CBB1C74
:103E8000EA0DFB1DA5E4B2E00E941E4A0E942050EC
:103E900080E080930E03EAECF8EA0E948F4F0E94C4
:103EA0002D4AE4E2F2E0A0E8B0E20E942D500E9428
:103EB000254AE8EAF6EA0E948F4F0E942D4AE4E282
:103EC000F2E0A190BB24E0EEF6E0AA0CBB1CAA0C29
:103ED000BB1CEA0DFB1DA0E8B0E20E9420500E942E
:103EE000254A0E94344AE2EBFBEA0E948F4F0E946F
:103EF0002D4A0E94344AE4E2F2E0A190BB24E0EEB5
:103F0000F6E0AA0CBB1CAA0CBB1CEA0DFB1DA4E02E
:103F1000B7E00E9420500C94901F83E080930E0322
:103F20000C94951F84E080930E030C94752AE6EBA5
:103F3000FBEA0E948F4F0E944F5111F00C943C20DD
:103F40000091A309023011F00C943720A9EBB9E0DD
:103F50000E947250A4E2B2E00C930091240200305F
:103F600080E010F009F081E08F9300912402053089
:103F700081E008F080E09F918923882311F40C945C
:103F80003220A5E4B2E0EEEBFBEA0E948F4F0E94E4
:103F9000204FE4E2F2E0A5E4B2E00E941E4A0E9453
:103FA0002D50A5E4B2E00E941E4AE6E6F9EA0E941E
:103FB0008F4F0E94204FE4E2F2E0A190BB24E0EF9B
:103FC000F6E0AA0CBB1CAA0CBB1CEA0DFB1DA5E469
:103FD000B2E00E941E4A0E94205080E080930E03AF
:103FE000EAECF8EA0E948F4F0E942D4AE4E2F2E0E8
:103FF000A0E8B0E20E942D500E94254AE8EAF6EAC5
:104000000E948F4F0E942D4AE4E2F2E0A190BB246F
:10401000E0EFF6E0AA0CBB1CAA0CBB1CEA0DFB1DD2
:10402000A0E8B0E20E9420500E94254A0E94344A33
:10403000E2EBFBEA0E948F4F0E942D4A0E94344A15
:10404000E4E2F2E0A190BB24E0EFF6E0AA0CBB1C96
:10405000AA0CBB1CEA0DFB1DA4E0B7E00E94205097
:104060000C94352083E080930E030C943A2084E076
:1040700080930E030C94752AEAECFBEA0E948F4FA2
:104080000E944F5111F00C94AF200091A30902300F
:1040900011F00C94AA20A9EBB9E00E947250A4E29E
:1040A000B2E00C9300912402003080E010F009F09F
:1040B00081E08F9300912402053081E008F080E0D8
:1040C0009F918923882311F40C94A52080E080938C
:1040D0000E030091240241E0041BA0E2B2E00C9325
:1040E00080912002A2EBB7E00E947A4F0E94704FAD
:1040F0009C91982B9C93A5E4B2E0E2EDFBEA0E9430
:104100008F4F0E94204FE4E2F2E0A5E4B2E00E946B
:104110001E4A0E942D50A5E4B2E00E941E4AE8EA21
:10412000F6EA0E948F4F0E94204FA5E4B2E00E9461
:104130001E4AE2EBF7E00E94BA50A4E0B7E0E2EBDF
:10414000F7E00E94BA500C94A82083E080930E03FD
:104150000C94AD2084E080930E030C94752AE6EE57
:10416000FBEA0E948F4F0E944F5111F00C94F020F7
:104170000091A309023011F00C94EB2080E08093B1
:104180000E03A9EBB9E00E947250ABE4B7E00D93C7
:104190001D932D933D93E4E3F3E0ABE4B7E094E0AB
:1041A0007BE70E940051A5E4B2E0EEEEFBEA0E943C
:1041B0008F4F0E94204FEBE4F7E0A5E4B2E00E94AD
:1041C0001E4A0E942050EBE4F7E0A4E0B7E00E9412
:1041D00020500C94EE2084E080930E030C94752AFA
:1041E000E6E0FCEA0E948F4F0E944F5111F00C94C0
:1041F000142180E080930E03A5E4B2E0EEE0FCEA37
:104200000E948F4F0E94204FEBE4F7E0A5E4B2E05C
:104210000E941E4A0E942050EBE4F7E0A4E0B7E0C1
:104220000E9420500C94752AE8E1FCEA0E948F4F0E
:104230000E944F5111F00C942F2180E080930E03C7
:104240007091E00672607093E006A5E4B2E0E0E2EF
:10425000FCEA0E948F4F0E94204F0C94752AE8E2DE
:10426000FCEA0E948F4F0E944F5111F00C946C2178
:104270000091A309023011F00C94672180E0809333
:104280000E03A9EBB9E00E947250A3EBB7E00C93C8
:10429000E8E3F3E0A3EBB7E07BE70E94FD50A5E481
:1042A000B2E0E0E3FCEA0E948F4F0E94204FE3EB74
:1042B000F7E0A5E4B2E00E941E4A0E942D50E3EB15
:1042C000F7E0A4E0B7E00E942D500C946A2184E04E
:1042D00080930E030C94752AE2E4FCEA0E948F4F4F
:1042E0000E944F5111F00C94902180E080930E03B6
:1042F000A5E4B2E0EAE4FCEA0E948F4F0E94204F5E
:10430000E3EBF7E0A5E4B2E00E941E4A0E942D50C4
:10431000E3EBF7E0A4E0B7E00E942D500C94752A7F
:10432000E0E5FCEA0E948F4F0E944F5111F00C947F
:10433000AB2180E080930E037091940774607093BA
:104340009407A5E4B2E0E8E5FCEA0E948F4F0E94E2
:10435000204F0C94752AE2E6FCEA0E948F4F0E94DF
:104360004F5111F00C94E2210091A309023011F099
:104370000C94DD2180E080930E03A9EBB9E00E944C
:104380007250AAECB7E00C93E9E3F3E0AAECB7E0D3
:104390007BE70E94FD50A5E4B2E0EAE6FCEA0E9459
:1043A0008F4F0E94204FEAECF7E0A5E4B2E00E94B4
:1043B0001E4A0E942D500C94E02184E080930E034D
:1043C0000C94752AE0E8FCEA0E948F4F0E944F513E
:1043D00011F00C94002280E080930E03A5E4B2E07B
:1043E000E0E9F6EA0E948F4F0E94204FEAECF7E0E6
:1043F000A5E4B2E00E941E4A0E942D500C94752A3A
:10440000E8E8FCEA0E948F4F0E944F5111F00C9493
:1044100043220091A309023011F00C943E22A9EB33
:10442000B9E00E947250ABECB7E00D931C93EAE345
:10443000F3E0ABECB7E07BE70E94FF5080E08093B5
:104440000E03A5E4B2E0E0E9FCEA0E948F4F0E946F
:10445000204FEBECF7E0A5E4B2E00E941E4A0E9478
:104460001D50EBECF7E0A4E0B7E00E941D50709106
:10447000B20772607093B2070C94412284E080937B
:104480000E030C94752AE0EBFCEA0E948F4F0E9409
:104490004F5111F00C947C220091A309013011F0CE
:1044A0000C94772280E080930E03A5E4B2E0E8EB61
:1044B000FCEA0E948F4F0E94204FEBECF7E0A5E44E
:1044C000B2E00E941E4A0E941D50A5E4B2E00E9484
:1044D0001E4AE0E4F7EA0E948F4F0E94204FEBEC67
:1044E000F7E0A4E0B7E00E941D500C947A2284E02B
:1044F00080930E030C94752AECECFCEA0E948F4F1B
:104500000E944F5111F00C94C6220091A309023071
:1045100011F00C94C122A9EBB9E00E947250A0E204
:10452000B2E00C9300912002023010F00C94BC22F7
:1045300080E080930E0300912002003011F00C9473
:10454000A4225F980C94A5225F9AA5E4B2E0E4ED62
:10455000FCEA0E948F4F0E94204FABE2B0E08C91AA
:1045600087FBA5E4B2E00E941E4A0E94804F8D9313
:1045700088278C930C94BF2283E080930E030C94C5
:10458000C42284E080930E030C94752AEEEDFCEABD
:104590000E948F4F0E944F5111F00C94F72200910E
:1045A000A309023011F00C94F22280E080930E03F4
:1045B000A9EBB9E00E947250AFECB7E00D931C93E9
:1045C000A5E4B2E0E6EEFCEA0E948F4F0E94204F85
:1045D000EFECF7E0A5E4B2E00E941E4A0E941D50F5
:1045E0000C94F52284E080930E030C94752AEEEF70
:1045F000FCEA0E948F4F0E944F5111F00C942F2320
:104600000091A309023011F00C942A2380E08093DA
:104610000E03A9EBB9E00E947250ADECB7E00D9328
:104620001C93ECE3F3E0ADECB7E07BE70E94FF50B6
:10463000A5E4B2E0E6E0FDEA0E948F4F0E94204F21
:10464000EDECF7E0A5E4B2E00E941E4A0E941D5086
:104650000C942D2384E080930E030C94752AE0E2E1
:10466000FDEA0E948F4F0E944F5111F00C9471236C
:1046700080E080930E03A5E4B2E0E8E2FDEA0E9448
:104680008F4F0E94204FEDECF7E0A5E4B2E00E94CE
:104690001E4A0E941D50A5E4B2E00E941E4AE8E3B3
:1046A000FDEA0E948F4F0E94204FEFECF7E0A5E457
:1046B000B2E00E941E4A0E941D50A5E4B2E00E9492
:1046C0001E4AE4E4FDEA0E948F4F0E94204FE1ED74
:1046D000F7E0A5E4B2E00E941E4A0E942D500C941F
:1046E000752AE2E5FDEA0E948F4F0E944F5111F0BA
:1046F0000C94962380E080930E03A9EBB9E00E940E
:104700007250A1EDB7E00C93A5E4B2E0EAE5FDEA52
:104710000E948F4F0E94204FE1EDF7E0A5E4B2E048
:104720000E941E4A0E942D500C94752AEAE6FDEA6A
:104730000E948F4F0E944F5111F00C942D2480E065
:1047400080930E03A5E4B2E0E2E7FDEA0E948F4FFA
:104750000E94204F81E080932002009120020430CB
:1047600018F011F00C942B240091200241E0041B5E
:10477000A4E2B2E00C9380912402AAE0B8E00E9487
:104780007A4F0E94704F0C900822689409F4E894C4
:1047900016F00C9423240027442780912402A0E2E1
:1047A000B0E00E947A4F0E94704F0C9008226894EB
:1047B00009F4E89400F980912402A4EEB7E00E9485
:1047C0007A4F0E94704F0C900822689409F4E89484
:1047D00040F9042700FBA8E3B2E08C9187F98C93A1
:1047E000E0E2F2E00191112747E050E00E94F34E31
:1047F000EEEDF7E0E00FF11FA5E4B2E00E941E4AE3
:104800000E94DC50A5E4B2E00E941E4AEEEEF6EAF9
:104810000E948F4F0E94204FA8E3B2E08C9187FB4B
:10482000A5E4B2E00E941E4A0E94804F8D93882723
:104830008C93A5E4B2E00E941E4AE8EAF6EA0E94E0
:104840008F4F0E94204FA0E2B2E08C918F5F8C933B
:1048500010F40C94AD230C94752AE6E8FDEA0E944E
:104860008F4F0E944F5111F00C94E3240091A30943
:10487000043011F00C94DE24A9EBB9E00E947250D0
:10488000A1E2B2E00C9300912102013011F00C94EE
:10489000D124AEECB9E00E947250A0E2B2E00C93D9
:1048A00000912002003080E010F009F081E08F9349
:1048B00000912002053081E008F080E09F9189237B
:1048C000882311F40C94CC2480E080930E03009193
:1048D000200241E0041BA2E2B2E00C93A3EEB9E097
:1048E0000E947250A1E2B2E00C93009121020030CC
:1048F00011F00C94882480912202AAE0B8E00E9472
:104900007A4F0E94704F8C9189238C930C9493243E
:1049100080912202AAE0B8E00E947A4F0E94704F74
:104920009C91982B9C93ECE6F3E0AAE0B8E07BE73F
:104930000E94FD50A5E4B2E0EEE8FDEA0E948F4F30
:104940000E94204FE0E2F2E0A5E4B2E00E941E4A9D
:104950000E942D50A5E4B2E00E941E4AEEEEF6EA57
:104960000E948F4F0E94204F80912202AAE0B8E05F
:104970000E947A4F0E94704F0C900822689409F4AC
:10498000E894A5E4B2E00E941E4A0E94804F8D93F5
:1049900088278C930C94CF2485E080930E030C948D
:1049A000DC2480E080930E03A5E4B2E0E2EAFDEAB5
:1049B0000E948F4F0E94204F0C94E12484E080934A
:1049C0000E030C94752AE0ECFDEA0E948F4F0E94C2
:1049D0004F5111F00C94BC250091A309013011F046
:1049E0000C94072580E080930E03A5E4B2E0E8EC88
:1049F000FDEA0E948F4F0E94204FA5E4B2E00E9482
:104A00001E4AEAE0F8E00E94BA500C94BA2502303F
:104A100011F00C943A25A9EBB9E00E947250A1E282
:104A2000B2E00C9300912102013011F00C942D257D
:104A300080E080930E03A5E4B2E0E8ECFDEA0E947A
:104A40008F4F0E94204FA5E4B2E00E941E4AEAE088
:104A5000F8E00E94BA500C94382580E080930E0351
:104A6000A5E4B2E0E0EDFDEA0E948F4F0E94204FE6
:104A70000C94BA25033011F00C94B725A9EBB9E0DA
:104A80000E947250A1E2B2E00C9300912102013029
:104A900011F00C94AA25AEECB9E00E947250A0E28D
:104AA000B2E00C9300912002003080E010F009F099
:104AB00081E08F9300912002053081E008F080E0D2
:104AC0009F918923882311F40C94A52580E080937D
:104AD0000E030091200241E0041BA2E2B2E00C931D
:104AE00080E080930E03A5E4B2E0E4EEFDEA0E94CC
:104AF0008F4F0E94204FE0E2F2E0A5E4B2E00E9476
:104B00001E4A0E942D50A5E4B2E00E941E4AEEEE1D
:104B1000F6EA0E948F4F0E94204F80912202AAE065
:104B2000B8E00E947A4F0E94704F0C90082268945F
:104B300009F4E894A5E4B2E00E941E4A0E94804F66
:104B40008D9388278C930C94A82585E080930E0381
:104B50000C94B52580E080930E03A5E4B2E0ECEE62
:104B6000FDEA0E948F4F0E94204F0C94BA2584E0EA
:104B700080930E030C94752AE2E0FEEA0E948F4FA8
:104B80000E944F5111F00C9458260091A309033054
:104B900011F00C945326A9EBB9E00E947250A0E2E8
:104BA000B2E00C9300912002003080E010F009F098
:104BB00081E08F9300912002053081E008F080E0D1
:104BC0009F918923882311F40C944E2680E08093D2
:104BD0000E030091200241E0041BA2E2B2E00C931C
:104BE000AEECB9E00E947250A1E2B2E00C930091E9
:104BF0002102003011F00C940A2680912202A4EECA
:104C0000B7E00E947A4F0E94704F8C9189238C9359
:104C10000C94152680912202A4EEB7E00E947A4FF0
:104C20000E94704F9C91982B9C93EFE4F3E0A4EECC
:104C3000B7E07BE70E94FD50A5E4B2E0EAE0FEEABF
:104C40000E948F4F0E94204FE0E2F2E0A5E4B2E024
:104C50000E941E4A0E942D50A5E4B2E00E941E4A06
:104C6000EEEEF6EA0E948F4F0E94204F80912202C2
:104C7000A4EEB7E00E947A4F0E94704F0C90082279
:104C8000689409F4E894A5E4B2E00E941E4A0E94E8
:104C9000804F8D9388278C930C94512685E08093C8
:104CA0000E030C94562684E080930E030C94752A10
:104CB000EEE1FEEA0E948F4F0E944F5111F00C94DA
:104CC000E1260091A309013011F00C947C2680E0CC
:104CD00080930E03A5E4B2E0E6E2FEEA0E948F4F65
:104CE0000E94204FA5E4B2E00E941E4AE4EEF7E0E5
:104CF0000E94BA500C94DF26023011F00C94DC268E
:104D0000A9EBB9E00E947250A0E2B2E00C930091CE
:104D10002002003080E010F009F081E08F930091D4
:104D20002002053081E008F080E09F9189238823EC
:104D300011F40C94D7260091200241E0041BA2E25A
:104D4000B2E00C9380E080930E03A5E4B2E0EEE2C3
:104D5000FEEA0E948F4F0E94204FE0E2F2E0A5E4BD
:104D6000B2E00E941E4A0E942D50A5E4B2E00E94CB
:104D70001E4AEEEEF6EA0E948F4F0E94204F80916D
:104D80002202A4EEB7E00E947A4F0E94704F0C906E
:104D90000822689409F4E894A5E4B2E00E941E4A4F
:104DA0000E94804F8D9388278C930C94DA2685E09F
:104DB00080930E030C94DF2684E080930E030C9402
:104DC000752AE6E3FEEA0E948F4F0E944F5111F0D0
:104DD0000C9405290091A309053011F00C940029C9
:104DE000A9EBB9E00E947250A0E2B2E00C93AEECE5
:104DF000B9E00E947250A1E2B2E00C93A3EEB9E0D8
:104E00000E947250A2E2B2E00C93009120020130A5
:104E100011F00C94E22800912102003080E010F0A3
:104E200009F081E08F9300912102053081E008F0C4
:104E300080E09F918923882311F40C94D528009158
:104E40002202013011F00C948127E8EFF9E0A1E291
:104E5000B2E00D91112747E050E00E94F34EAEED15
:104E6000B7E0A00FB11F0E94DC50E1E2F2E0019137
:104E7000112747E050E00E94F34EE9E4F3E0E00F31
:104E8000F11FA1E2B2E00D91112747E050E00E942E
:104E9000F34EAEEDB7E0A00FB11F7BE70E940E51BD
:104EA00080E080930E03A5E4B2E0EEE3FEEA0E9408
:104EB0008F4F0E94204FE1E2F2E0A5E4B2E00E94B1
:104EC0001E4A0E942D50A5E4B2E00E941E4AEEEE5A
:104ED000F6EA0E948F4F0E94204FE1E2F2E001913A
:104EE000112747E050E00E94F34EEEEDF7E0E00FAF
:104EF000F11FA5E4B2E00E941E4A0E94DC500C940F
:104F0000D328023011F00C940028A8EFB9E00E94D9
:104F10007250A3E2B2E00C9300912302023010F031
:104F20000C94F3270091210241E0041BA4E2B2E0BB
:104F30000C9300912302003011F00C94AC27809167
:104F40002402A4EEB7E00E947A4F0E94704F8C9129
:104F500089238C930C94B72780912402A4EEB7E0A8
:104F60000E947A4F0E94704F9C91982B9C93EFE483
:104F7000F3E0A4EEB7E07BE70E94FD5080E0809371
:104F80000E03A5E4B2E0E2E5FEEA0E948F4F0E9424
:104F9000204FE1E2F2E0A5E4B2E00E941E4A0E9446
:104FA0002D50A5E4B2E00E941E4AEEEEF6EA0E9401
:104FB0008F4F0E94204F80912402A4EEB7E00E9400
:104FC0007A4F0E94704F0C900822689409F4E8947C
:104FD000A5E4B2E00E941E4A0E94804F8D9388276C
:104FE0008C930C94FE2780E080930E03A5E4B2E03E
:104FF000E8E5FEEA0E948F4F0E94204F0C94D328D0
:10500000033011F00C946428A8EFB9E00E947250AC
:10501000A1E2B2E0AD90BB24A2EDB7E0AA0CBB1CAC
:10502000AA0DBB1D0D931C93E1E2F2E0A190BB24FD
:10503000EDE3F3E0AA0CBB1CEA0DFB1DA1E2B2E01C
:10504000AD90BB24A2EDB7E0AA0CBB1CAA0DBB1D02
:105050007BE70E94FF5080E080930E03A5E4B2E05E
:10506000E6E7FEEA0E948F4F0E94204FE1E2F2E065
:10507000A5E4B2E00E941E4A0E942D50A5E4B2E0D1
:105080000E941E4AEEEEF6EA0E948F4F0E94204FC9
:10509000E1E2F2E0A190BB24E2EDF7E0AA0CBB1C38
:1050A000EA0DFB1DA5E4B2E00E941E4A0E941D50BD
:1050B000A5E4B2E00E941E4AE2E9FEEA0E948F4F98
:1050C0000E94204F0C94D328043011F00C94C8286F
:1050D000A8EFB9E00E947250A1E2B2E0AD90BB240B
:1050E000AAEDB7E0AA0CBB1CAA0DBB1D0D931C9327
:1050F000E1E2F2E0A190BB24E5E4F3E0AA0CBB1CE2
:10510000EA0DFB1DA1E2B2E0AD90BB24AAEDB7E031
:10511000AA0CBB1CAA0DBB1D7BE70E94FF5080E0C0
:1051200080930E03A5E4B2E0EAE9FEEA0E948F4F05
:105130000E94204FE1E2F2E0A5E4B2E00E941E4AA4
:105140000E942D50A5E4B2E00E941E4AEEEEF6EA5F
:105150000E948F4F0E94204FE1E2F2E0A190BB2419
:10516000EAEDF7E0AA0CBB1CEA0DFB1DA5E4B2E0DA
:105170000E941E4A0E941D50A5E4B2E00E941E4AF1
:10518000E2E9FEEA0E948F4F0E94204F0C94D32840
:1051900080E080930E03A5E4B2E0E6EBFEEA0E9415
:1051A0008F4F0E94204F0C94E02880E080930E03E4
:1051B000A5E4B2E0EEECFEEA0E948F4F0E94204F81
:1051C0000C94FE28033011F00C94F32880E08093B7
:1051D0000E03A5E4B2E0E0EEFEEA0E948F4F0E94CB
:1051E000204F0C94FE2880E080930E03A5E4B2E0EB
:1051F000E8E0FFEA0E948F4F0E94204F0C940329A1
:1052000084E080930E030C94752AE4E2FFEA0E9486
:105210008F4F0E944F5111F00C94F5290091A30972
:10522000033011F00C94F029A9EBB9E00E94725000
:10523000A0E2B2E00C93AEECB9E00E947250A1E2A1
:10524000B2E00C9300912002013011F00C94DF29A0
:1052500080E080930E0300912102003080E010F086
:1052600009F081E08F9300912102053081E008F080
:1052700080E09F918923882311F40C94D229009116
:10528000210241E0041BA4E2B2E00C93A5E4B2E0E9
:10529000EAE6F8EA0E948F4F0E94204FE1E2F2E036
:1052A000A5E4B2E00E941E4A0E942D50A5E4B2E09F
:1052B0000E941E4AECE2FFEA0E948F4F0E94204F9C
:1052C000E1E2F2E00191112747E050E00E94F34E45
:1052D000EEEDF7E0E00FF11FA5E4B2E00E941E4AF8
:1052E0000E94DC50A5E4B2E00E941E4AE6E3FFEA19
:1052F0000E948F4F0E94204F80912402A4EEB7E0BD
:105300000E947A4F0E94704F0C900822689409F412
:10531000E894A5E4B2E00E941E4A0E94804F8D935B
:1053200088278C93A5E4B2E00E941E4AECE3FFEAD2
:105330000E948F4F0E94204FE1E2F2E0A190BB2437
:10534000E2EDF7E0AA0CBB1CEA0DFB1DA5E4B2E000
:105350000E941E4A0E941D50A5E4B2E00E941E4A0F
:10536000E4E4FFEA0E948F4F0E94204FE1E2F2E066
:10537000A190BB24EAEDF7E0AA0CBB1CEA0DFB1DD3
:10538000A5E4B2E00E941E4A0E941D50A5E4B2E0CE
:105390000E941E4AE4E5FFEA0E948F4F0E94204FC0
:1053A0000C94DD2980E080930E03A5E4B2E0EEECDE
:1053B000FEEA0E948F4F0E94204F0C94EE2903308A
:1053C00011F00C94EE2980E080930E03A5E4B2E086
:1053D000E0EEFEEA0E948F4F0E94204F0C94F329CA
:1053E00084E080930E030C94752AECE5FFEA0E949A
:1053F0008F4F0E944F5111F00C94722AA9EBB9E023
:105400000E947250A0E2B2E00C93009120020030A2
:1054100080E010F009F081E08F93009120020430C9
:1054200081E008F080E09F918923882311F40C9497
:105430006D2AAEECB9E00E947250A1E2B2E00C938A
:1054400000912102023010F00C94462A00912102B2
:10545000003011F00C94392A80912002A5E2B0E0CE
:105460000E947A4F0E94704F8C9189238C930C94E8
:10547000442A80912002A5E2B0E00E947A4F0E9467
:10548000704F9C91982B9C930C94492A85E08093B3
:105490000E03A5E4B2E0E4E6FFEA0E948F4F0E940B
:1054A000204FE0E2F2E0A5E4B2E00E941E4A0E9432
:1054B0002D50A5E4B2E00E941E4AEEEEF6EA0E94EC
:1054C0008F4F0E94204FE1E2F2E0A5E4B2E00E949B
:1054D0001E4A0E942D500C94702A84E080930E0383
:1054E0000C94752A81E080930E030C947A2A82E052
:1054F00080930E0300910E03003018F011F00C940D
:10550000832A0C94912AE2E9F4E70E948F4FAEE0DF
:10551000B3E08C9199270E945C4FA5E4B2E00E9411
:10552000204FA5E4B2E00E94274A0E94344A089521
:1055300080E08093200270913802777F7093380268
:1055400000919E07013011F00C94162B70919E076C
:105550007E7F70939E07A0E2B2E08C918F5F8C9368
:10556000E8E7FFEA0E948F4F0E942D4AE0E2F2E056
:10557000A0E8B0E20E942D500E94254A0E94344AC1
:105580000E94BC2B62FA16F40C94142BE2E8FFEA9A
:105590000E948F4F0E942D4A0E94E34BA1E1B2E08E
:1055A0000E94274AEAE8FFEA0E948F4F0E942D4A94
:1055B0000E94E34BA8E0B2E00E94274A0E94344ACE
:1055C000E2E0F2E00E94274DA8E2B2E00D931D93C5
:1055D0002D933D93A4E8B3E04D915D916D917C9145
:1055E000A8E2B2E00D911D912D913C910E940A50CC
:1055F0001CF011F00C94FE2A0C94052B70913802CB
:105600007860709338020C94122BEEE8FFEA0E9447
:105610008F4F0E942D4A0E94344A7091E0067260BA
:105620007093E0060C94162B0E947A4DA2EAB9E022
:105630008C9187FB16F00C94302B7091A2097F7728
:105640007093A209E8E8F8EA0E948F4F0E942D4A61
:10565000A4E2BDE00E94274A0E94344A0E940D1431
:10566000A0EEB6E08C9181FB16F00C948D2B70911E
:10567000E0067D7F7093E006E0E2FCEA0E948F4F37
:105680000E942D4A0E94344AA5E4B2E0E6EBFFEA0C
:105690000E948F4F0E94204FA5E4B2E00E94495122
:1056A000A0E3B2E08D9388278C93A0E3B2E0ED9164
:1056B000FC91A5E4B2E00E946351A4E3B2E00D9333
:1056C0001D932D933D93A5E4B2E00E941E4AE4ECA5
:1056D000FFEA0E948F4F0E94204FE4E3F2E0A5E42E
:1056E000B2E00E941E4A0E94A550E6ECFFEA0E942A
:1056F0008F4F0E942D4AA5E4B2E00E94274A0E94E3
:10570000344AE6ECFFEA0E948F4F0E94464AA5E425
:10571000B2E00E94404A0E944D4AA6E8B8E08C914F
:1057200081FB16F00C94A72B709186087D7F7093F7
:105730008608E8ECFFEA0E948F4F0E942D4AA5E1FF
:10574000B9E00E94274A0E94344A0E94A330009187
:1057500020020A3081E009F080E08F93A8E3B2E0F4
:105760008C9183FB81E00EF080E09F91892B882350
:1057700011F40C94A02A08950E94914D62FA16F437
:105780000C943A2C10ED0E94A54D10E00E94A54DFE
:105790000E94914D62FA16F40C94302C11ED0E9487
:1057A000A54D0E94C44DA2E0B2E01C930E94C44DDE
:1057B000A3E0B2E01C930E94C44DA4E0B2E01C93AD
:1057C0000E94C44DADE6B3E01C930E94C44DA5E019
:1057D000B2E01C930E94C44DA6E0B2E01C930E946C
:1057E000C24DA7E0B2E01C930E949D4D62FA16F0F4
:1057F0000C94042CE0EDFFEA0E948F4F0E942D4A8A
:105800000E94344A0C942E2C909102020E94D74A96
:10581000A2E0B2E08C93909103020E94D74AA3E0E9
:10582000B2E08C93909104020E94D74AA4E0B2E0C7
:105830008C93909105020E94D74AA5E0B2E08C9328
:10584000909106020E94D74AA6E0B2E08C93909114
:1058500007020E94D74AA7E0B2E08C930C94382C40
:10586000E0EEFFEA0E948F4F0E942D4A0E94344AC8
:105870000C94422CE8E0F0EB0E948F4F0E942D4ADE
:105880000E94344A08950E94914D62FA16F40C94D5
:10589000842C809105020E94D04AA5E0B2E08C934E
:1058A000809106020E94D04AA6E0B2E08C938091DB
:1058B00007020E94D04AA7E0B2E08C9310ED0E944C
:1058C000A54D13E00E94A54D10916D030E94A54DBA
:1058D000109105020E94A54D109106020E94A54D4F
:1058E000109107020E94A54D0E949D4D62FA16F08C
:1058F0000C94822CE0E3F0EB0E948F4F0E942D4A23
:105900000E94344A0C948C2CE0E4F0EB0E948F4F00
:105910000E942D4A0E94344A08950E94914D62FAD5
:1059200016F40C94CA2C809102020E94D04AA2E084
:10593000B2E08C93809103020E94D04AA3E0B2E0CF
:105940008C93809104020E94D04AA4E0B2E08C9330
:1059500010ED0E94A54D10E00E94A54D109102028D
:105960000E94A54D109103020E94A54D10910402C2
:105970000E94A54D0E949D4D62FA16F00C94C82C11
:10598000E2E6F0EB0E948F4F0E942D4A0E94344ABB
:105990000C94D22CEEE6F0EB0E948F4F0E942D4A21
:1059A0000E94344A089581E00E94ED4E81E00E94F9
:1059B000ED4E84E00E94ED4E209A289881E090E020
:1059C0000E94E74A289AEF93FF93ECE9F0E00E94E7
:1059D000DE4AFF91EF912098EF93FF93ECE9F0E01E
:1059E0000E94DE4AFF91EF91189B0C943E2D209A65
:1059F000289884E190E00E94E74A289AEF93FF9369
:105A0000ECE9F0E00E94DE4AFF91EF912098EF93DD
:105A1000FF93ECE9F0E00E94DE4AFF91EF91189BC2
:105A20000C941F2DA4E5B7E088278C93AFE5B7E071
:105A300088278C9381E080936B070C94DE2FEF9383
:105A4000FF93ECE3F1E00E94DE4AFF91EF91189999
:105A50000C94392DA4E5B7E088278C93AFE5B7E027
:105A600088278C9381E080936B070C94DE2F0C9435
:105A70003C2D8BE080936A070C945B2DEF93FF9392
:105A8000ECE3F1E00E94DE4AFF91EF9118990C944B
:105A9000582DA4E5B7E088278C93AFE5B7E08827B9
:105AA0008C9381E080936B070C94DE2F0C945B2D1C
:105AB00086E180936A0780E090E0A5E9B7E08D93E6
:105AC0009C93709194077F777093940770919407DB
:105AD000706470939407A3E2B0E00C9100FB81E046
